{"contracts/flashloan/UniswapV4FlashArbitrage.sol":{"UniswapV4FlashArbitrage":{"abi":[{"inputs":[{"internalType":"address","name":"_poolManager","type":"address"},{"internalType":"address","name":"_sushiswapRouter","type":"address"},{"internalType":"uint256","name":"_minimumProfitThreshold","type":"uint256"}],"stateMutability":"nonpayable","type":"constructor"},{"inputs":[],"name":"InsufficientProfit","type":"error"},{"inputs":[{"internalType":"address","name":"owner","type":"address"}],"name":"OwnableInvalidOwner","type":"error"},{"inputs":[{"internalType":"address","name":"account","type":"address"}],"name":"OwnableUnauthorizedAccount","type":"error"},{"inputs":[],"name":"ReentrancyGuardReentrantCall","type":"error"},{"anonymous":false,"inputs":[{"indexed":true,"internalType":"address","name":"token0","type":"address"},{"indexed":true,"internalType":"address","name":"token1","type":"address"},{"indexed":false,"internalType":"uint256","name":"profit","type":"uint256"}],"name":"ArbitrageExecuted","type":"event"},{"anonymous":false,"inputs":[{"indexed":false,"internalType":"string","name":"message","type":"string"},{"indexed":false,"internalType":"uint256","name":"value","type":"uint256"}],"name":"Debug","type":"event"},{"anonymous":false,"inputs":[{"indexed":false,"internalType":"string","name":"message","type":"string"},{"indexed":false,"internalType":"address","name":"addr","type":"address"}],"name":"DebugAddr","type":"event"},{"anonymous":false,"inputs":[{"indexed":false,"internalType":"string","name":"message","type":"string"},{"indexed":false,"internalType":"address","name":"token","type":"address"},{"indexed":false,"internalType":"uint256","name":"balance","type":"uint256"}],"name":"DebugBalance","type":"event"},{"anonymous":false,"inputs":[{"indexed":true,"internalType":"address","name":"token0","type":"address"},{"indexed":true,"internalType":"address","name":"token1","type":"address"},{"indexed":false,"internalType":"uint256","name":"amount0","type":"uint256"},{"indexed":false,"internalType":"uint256","name":"amount1","type":"uint256"}],"name":"FlashOperationStarted","type":"event"},{"anonymous":false,"inputs":[{"indexed":true,"internalType":"address","name":"previousOwner","type":"address"},{"indexed":true,"internalType":"address","name":"newOwner","type":"address"}],"name":"OwnershipTransferred","type":"event"},{"inputs":[{"internalType":"address","name":"token","type":"address"},{"internalType":"uint256","name":"amount","type":"uint256"},{"internalType":"address","name":"recipient","type":"address"}],"name":"emergencyWithdraw","outputs":[],"stateMutability":"nonpayable","type":"function"},{"inputs":[{"internalType":"address","name":"token0","type":"address"},{"internalType":"address","name":"token1","type":"address"},{"internalType":"uint256","name":"amount0","type":"uint256"},{"internalType":"uint256","name":"amount1","type":"uint256"},{"internalType":"bytes","name":"hookData","type":"bytes"}],"name":"executeArbitrage","outputs":[],"stateMutability":"nonpayable","type":"function"},{"inputs":[{"internalType":"address","name":"token0","type":"address"},{"internalType":"address","name":"token1","type":"address"},{"internalType":"uint256","name":"amount0","type":"uint256"},{"internalType":"uint256","name":"amount1","type":"uint256"},{"internalType":"bytes","name":"data","type":"bytes"}],"name":"flashCallback","outputs":[{"internalType":"bytes4","name":"","type":"bytes4"}],"stateMutability":"nonpayable","type":"function"},{"inputs":[],"name":"minimumProfitThreshold","outputs":[{"internalType":"uint256","name":"","type":"uint256"}],"stateMutability":"view","type":"function"},{"inputs":[],"name":"owner","outputs":[{"internalType":"address","name":"","type":"address"}],"stateMutability":"view","type":"function"},{"inputs":[],"name":"poolManager","outputs":[{"internalType":"contract IUniswapV4PoolManager","name":"","type":"address"}],"stateMutability":"view","type":"function"},{"inputs":[],"name":"renounceOwnership","outputs":[],"stateMutability":"nonpayable","type":"function"},{"inputs":[{"internalType":"uint256","name":"newThreshold","type":"uint256"}],"name":"setMinimumProfitThreshold","outputs":[],"stateMutability":"nonpayable","type":"function"},{"inputs":[],"name":"sushiswapRouter","outputs":[{"internalType":"address","name":"","type":"address"}],"stateMutability":"view","type":"function"},{"inputs":[{"internalType":"address","name":"newOwner","type":"address"}],"name":"transferOwnership","outputs":[],"stateMutability":"nonpayable","type":"function"}],"evm":{"bytecode":{"linkReferences":{},"object":"60c060405234801561001057600080fd5b506040516131ba3803806131ba83398101604081905261002f91610197565b338061005657604051631e4fbdf760e01b8152600060048201526024015b60405180910390fd5b61005f8161012b565b50600180556001600160a01b0383166100ba5760405162461bcd60e51b815260206004820152601460248201527f496e76616c696420706f6f6c206d616e61676572000000000000000000000000604482015260640161004d565b6001600160a01b0382166101105760405162461bcd60e51b815260206004820152601860248201527f496e76616c69642053757368697377617020726f757465720000000000000000604482015260640161004d565b6001600160a01b03928316608052911660a0526002556101d3565b600080546001600160a01b038381166001600160a01b0319831681178455604051919092169283917f8be0079c531659141344cd1fd0a4f28419497f9722a3daafe3b4186f6b6457e09190a35050565b80516001600160a01b038116811461019257600080fd5b919050565b6000806000606084860312156101ac57600080fd5b6101b58461017b565b92506101c36020850161017b565b9150604084015190509250925092565b60805160a051612f6061025a6000396000818161017f01528181610538015281816105be015281816121750152818161243b0152612587015260008181610145015281816101c10152818161042c015281816104b201528181610a5101528181610c36015281816111680152818161162e01528181611dde01526120230152612f606000f3fe608060405234801561001057600080fd5b506004361061009e5760003560e01c8063b5ffad4411610066578063b5ffad441461012d578063dc4c90d314610140578063e1ab1b1314610167578063e9240c2d1461017a578063f2fde38b146101a157600080fd5b80630a967eb2146100a357806351c469e2146100bf578063551512de146100eb578063715018a6146101005780638da5cb5b14610108575b600080fd5b6100ac60025481565b6040519081526020015b60405180910390f35b6100d26100cd366004612808565b6101b4565b6040516001600160e01b031990911681526020016100b6565b6100fe6100f93660046128b5565b610eda565b005b6100fe610ff3565b6000546001600160a01b03165b6040516001600160a01b0390911681526020016100b6565b6100fe61013b366004612808565b611007565b6101157f000000000000000000000000000000000000000000000000000000000000000081565b6100fe6101753660046128f7565b611224565b6101157f000000000000000000000000000000000000000000000000000000000000000081565b6100fe6101af366004612910565b611231565b6000336001600160a01b037f0000000000000000000000000000000000000000000000000000000000000000161461022b5760405162461bcd60e51b8152602060048201526015602482015274556e617574686f72697a65642063616c6c6261636b60581b60448201526064015b60405180910390fd5b60408051818152600d818301526c43616c6c6261636b2066726f6d60981b606082015233602082015290517f619c62393708f63887b9ff82e481dbe31792a4445225c39a9d31d2144bccafb49181900360800190a16040516370a0823160e01b8152306004820152600080516020612f0b8339815191529088906001600160a01b038216906370a0823190602401602060405180830381865afa1580156102d6573d6000803e3d6000fd5b505050506040513d601f19601f820116820180604052508101906102fa9190612934565b60408051606080825260169082015275496e697469616c20746f6b656e302062616c616e636560501b60808201526001600160a01b03909316602084015282015260a00160405180910390a16040516370a0823160e01b8152306004820152600080516020612f0b8339815191529087906001600160a01b038216906370a0823190602401602060405180830381865afa15801561039c573d6000803e3d6000fd5b505050506040513d601f19601f820116820180604052508101906103c09190612934565b60408051606080825260169082015275496e697469616c20746f6b656e312062616c616e636560501b60808201526001600160a01b03909316602084015282015260a00160405180910390a160008061041b84860186612a3b565b909250905086156104a657610451897f00000000000000000000000000000000000000000000000000000000000000008961126f565b60408051818152601f818301527f417070726f76656420746f6b656e3020666f7220506f6f6c4d616e61676572006060820152602081018990529051600080516020612eeb8339815191529181900360800190a15b851561052c576104d7887f00000000000000000000000000000000000000000000000000000000000000008861126f565b60408051818152601f818301527f417070726f76656420746f6b656e3120666f7220506f6f6c4d616e61676572006060820152602081018890529051600080516020612eeb8339815191529181900360800190a15b86156105b25761055d897f00000000000000000000000000000000000000000000000000000000000000008961126f565b60408051818152601d818301527f417070726f76656420746f6b656e3020666f72205375736869737761700000006060820152602081018990529051600080516020612eeb8339815191529181900360800190a15b8515610638576105e3887f00000000000000000000000000000000000000000000000000000000000000008861126f565b60408051818152601d818301527f417070726f76656420746f6b656e3120666f72205375736869737761700000006060820152602081018890529051600080516020612eeb8339815191529181900360800190a15b60008260800151156106b457604080518181526017818301527f457865637574696e6720556e69737761702066697273740000000000000000006060820152600060208201529051600080516020612eeb8339815191529181900360800190a16106ad836000015184602001518a8a866113e1565b9050610720565b604080518181526019818301527f457865637574696e6720537573686973776170206669727374000000000000006060820152600060208201529051600080516020612eeb8339815191529181900360800190a161071d836000015184602001518a8a866119a2565b90505b6040805181815260118183015270141c9bd99a5d0818d85b18dd5b185d1959607a1b6060820152602081018390529051600080516020612eeb8339815191529181900360800190a160025481101561078b57604051632723fc7560e11b815260040160405180910390fd5b886001600160a01b03168a6001600160a01b03167f546205492ce144edebd2cc39035c50dbd9aebfec90cbcae9c9ae2914d1e130f7836040516107d091815260200190565b60405180910390a36040516370a0823160e01b8152306004820152600080516020612f0b833981519152908b906001600160a01b038216906370a0823190602401602060405180830381865afa15801561082e573d6000803e3d6000fd5b505050506040513d601f19601f820116820180604052508101906108529190612934565b6040805160608082526018908201527f5072652d726570617920746f6b656e302062616c616e6365000000000000000060808201526001600160a01b03909316602084015282015260a00160405180910390a16040516370a0823160e01b8152306004820152600080516020612f0b833981519152908a906001600160a01b038216906370a0823190602401602060405180830381865afa1580156108fb573d6000803e3d6000fd5b505050506040513d601f19601f8201168201806040525081019061091f9190612934565b6040805160608082526018908201527f5072652d726570617920746f6b656e312062616c616e6365000000000000000060808201526001600160a01b03909316602084015282015260a00160405180910390a18715610b57576040516370a0823160e01b815230600482015288906001600160a01b038c16906370a0823190602401602060405180830381865afa1580156109be573d6000803e3d6000fd5b505050506040513d601f19601f820116820180604052508101906109e29190612934565b1015610a3a5760405162461bcd60e51b815260206004820152602160248201527f496e73756666696369656e7420746f6b656e3020666f722072657061796d656e6044820152601d60fa1b6064820152608401610222565b60405163a9059cbb60e01b81526001600160a01b037f000000000000000000000000000000000000000000000000000000000000000081166004830152602482018a90528b169063a9059cbb906044016020604051808303816000875af1158015610aa9573d6000803e3d6000fd5b505050506040513d601f19601f82011682018060405250810190610acd9190612adf565b610b125760405162461bcd60e51b8152602060048201526016602482015275151bdad95b8c081d1c985b9cd9995c8819985a5b195960521b6044820152606401610222565b60408051818152600d818301526c052657061696420746f6b656e3609c1b6060820152602081018a90529051600080516020612eeb8339815191529181900360800190a15b8615610d3c576040516370a0823160e01b815230600482015287906001600160a01b038b16906370a0823190602401602060405180830381865afa158015610ba3573d6000803e3d6000fd5b505050506040513d601f19601f82011682018060405250810190610bc79190612934565b1015610c1f5760405162461bcd60e51b815260206004820152602160248201527f496e73756666696369656e7420746f6b656e3120666f722072657061796d656e6044820152601d60fa1b6064820152608401610222565b60405163a9059cbb60e01b81526001600160a01b037f000000000000000000000000000000000000000000000000000000000000000081166004830152602482018990528a169063a9059cbb906044016020604051808303816000875af1158015610c8e573d6000803e3d6000fd5b505050506040513d601f19601f82011682018060405250810190610cb29190612adf565b610cf75760405162461bcd60e51b8152602060048201526016602482015275151bdad95b8c481d1c985b9cd9995c8819985a5b195960521b6044820152606401610222565b60408051818152600d818301526c52657061696420746f6b656e3160981b6060820152602081018990529051600080516020612eeb8339815191529181900360800190a15b6040516370a0823160e01b8152306004820152600080516020612f0b833981519152908b906001600160a01b038216906370a0823190602401602060405180830381865afa158015610d92573d6000803e3d6000fd5b505050506040513d601f19601f82011682018060405250810190610db69190612934565b6040805160608082526014908201527346696e616c20746f6b656e302062616c616e636560601b60808201526001600160a01b03909316602084015282015260a00160405180910390a16040516370a0823160e01b8152306004820152600080516020612f0b833981519152908a906001600160a01b038216906370a0823190602401602060405180830381865afa158015610e56573d6000803e3d6000fd5b505050506040513d601f19601f82011682018060405250810190610e7a9190612934565b6040805160608082526014908201527346696e616c20746f6b656e312062616c616e636560601b60808201526001600160a01b03909316602084015282015260a00160405180910390a1506328e234f160e11b9998505050505050505050565b610ee2611f59565b610eea611f86565b6001600160a01b038116610f345760405162461bcd60e51b8152602060048201526011602482015270125b9d985b1a59081c9958da5c1a595b9d607a1b6044820152606401610222565b60405163a9059cbb60e01b81526001600160a01b0382811660048301526024820184905284169063a9059cbb906044016020604051808303816000875af1158015610f83573d6000803e3d6000fd5b505050506040513d601f19601f82011682018060405250810190610fa79190612adf565b610fe55760405162461bcd60e51b815260206004820152600f60248201526e151c985b9cd9995c8819985a5b1959608a1b6044820152606401610222565b610fee60018055565b505050565b610ffb611f59565b6110056000611fb0565b565b61100f611f59565b611017611f86565b6001600160a01b0386161580159061103757506001600160a01b03851615155b6110745760405162461bcd60e51b815260206004820152600e60248201526d496e76616c696420746f6b656e7360901b6044820152606401610222565b60008411806110835750600083115b6110c15760405162461bcd60e51b815260206004820152600f60248201526e496e76616c696420616d6f756e747360881b6044820152606401610222565b60006110cf87878787612000565b905060006040518060a00160405280896001600160a01b03168152602001886001600160a01b031681526020018781526020018681526020018315158152509050866001600160a01b0316886001600160a01b03167ff2e147821beb8fb704fb5792949feff8c547cfc1cdbabc9a0d11479c8d339489888860405161115e929190918252602082015260400190565b60405180910390a37f00000000000000000000000000000000000000000000000000000000000000006001600160a01b03166377991025308a8a8a8a878b8b6040516020016111af93929190612afc565b6040516020818303038152906040526040518763ffffffff1660e01b81526004016111df96959493929190612b6d565b600060405180830381600087803b1580156111f957600080fd5b505af115801561120d573d6000803e3d6000fd5b50505050505061121c60018055565b505050505050565b61122c611f59565b600255565b611239611f59565b6001600160a01b03811661126357604051631e4fbdf760e01b815260006004820152602401610222565b61126c81611fb0565b50565b60405163095ea7b360e01b81526001600160a01b0383811660048301526000602483015284169063095ea7b3906044016020604051808303816000875af11580156112be573d6000803e3d6000fd5b505050506040513d601f19601f820116820180604052508101906112e29190612adf565b61132e5760405162461bcd60e51b815260206004820152601860248201527f4661696c656420746f20636c65617220617070726f76616c00000000000000006044820152606401610222565b60405163095ea7b360e01b81526001600160a01b0383811660048301526024820183905284169063095ea7b3906044016020604051808303816000875af115801561137d573d6000803e3d6000fd5b505050506040513d601f19601f820116820180604052508101906113a19190612adf565b610fee5760405162461bcd60e51b81526020600482015260116024820152704661696c656420746f20617070726f766560781b6044820152606401610222565b6040516370a0823160e01b8152306004820152600090600080516020612f0b8339815191529087906001600160a01b038216906370a0823190602401602060405180830381865afa15801561143a573d6000803e3d6000fd5b505050506040513d601f19601f8201168201806040525081019061145e9190612934565b604080516060808252601a908201527f5072652d556e697377617020746f6b656e302062616c616e636500000000000060808201526001600160a01b03909316602084015282015260a00160405180910390a16040516370a0823160e01b8152306004820152600080516020612f0b8339815191529086906001600160a01b038216906370a0823190602401602060405180830381865afa158015611507573d6000803e3d6000fd5b505050506040513d601f19601f8201168201806040525081019061152b9190612934565b604080516060808252601a908201527f5072652d556e697377617020746f6b656e312062616c616e636500000000000060808201526001600160a01b03909316602084015282015260a00160405180910390a1600061158b87878561221f565b604080516060810182526001815260208101889052600081830152905191925090600080516020612eeb8339815191529061160c90889060408082526022908201527f457865637574696e6720556e69737761702073776170207769746820616d6f756060820152611b9d60f21b6080820152602081019190915260a00190565b60405180910390a1604051630f140bef60e11b81526000906001600160a01b037f00000000000000000000000000000000000000000000000000000000000000001690631e2817de906116659086908690600401612c32565b60408051808303816000875af1158015611683573d6000803e3d6000fd5b505050506040513d601f19601f820116820180604052508101906116a79190612c6e565b9050600080516020612eeb83398151915281600001516116c690612cd5565b60405161170391906040808252601390820152720556e697377617020737761702064656c74613606c1b6060820152602081019190915260800190565b60405180910390a1600080516020612eeb833981519152816020015161172890612cd5565b6040516117659190604080825260139082015272556e697377617020737761702064656c74613160681b6060820152602081019190915260800190565b60405180910390a16040516370a0823160e01b8152306004820152600080516020612f0b833981519152908a906001600160a01b038216906370a0823190602401602060405180830381865afa1580156117c3573d6000803e3d6000fd5b505050506040513d601f19601f820116820180604052508101906117e79190612934565b604080516060808252601b908201527f506f73742d556e697377617020746f6b656e302062616c616e6365000000000060808201526001600160a01b03909316602084015282015260a00160405180910390a16040516370a0823160e01b8152306004820152600080516020612f0b8339815191529089906001600160a01b038216906370a0823190602401602060405180830381865afa158015611890573d6000803e3d6000fd5b505050506040513d601f19601f820116820180604052508101906118b49190612934565b604080516060808252601b908201527f506f73742d556e697377617020746f6b656e312062616c616e6365000000000060808201526001600160a01b03909316602084015282015260a00160405180910390a16000611923898b846020015161191c90612cd5565b6000612287565b9050600080516020612eeb83398151915281604051611974919060408082526015908201527414dd5cda1a5cddd85c081cddd85c081c995cdd5b1d605a1b6060820152602081019190915260800190565b60405180910390a187811161198a576000611994565b6119948882612cf1565b9a9950505050505050505050565b6040516370a0823160e01b8152306004820152600090600080516020612f0b8339815191529087906001600160a01b038216906370a0823190602401602060405180830381865afa1580156119fb573d6000803e3d6000fd5b505050506040513d601f19601f82011682018060405250810190611a1f9190612934565b604080516060808252601c908201527f5072652d53757368697377617020746f6b656e302062616c616e63650000000060808201526001600160a01b03909316602084015282015260a00160405180910390a16040516370a0823160e01b8152306004820152600080516020612f0b8339815191529086906001600160a01b038216906370a0823190602401602060405180830381865afa158015611ac8573d6000803e3d6000fd5b505050506040513d601f19601f82011682018060405250810190611aec9190612934565b604080516060808252601c908201527f5072652d53757368697377617020746f6b656e312062616c616e63650000000060808201526001600160a01b03909316602084015282015260a00160405180910390a1604080518181526024818301527f457865637574696e67205375736869737761702073776170207769746820616d6060820152631bdd5b9d60e21b6080820152602081018690529051600080516020612eeb8339815191529181900360a00190a16000611baf8787876000612287565b9050600080516020612eeb83398151915281604051611c00919060408082526015908201527414dd5cda1a5cddd85c081cddd85c081c995cdd5b1d605a1b6060820152602081019190915260800190565b60405180910390a16040516370a0823160e01b8152306004820152600080516020612f0b8339815191529088906001600160a01b038216906370a0823190602401602060405180830381865afa158015611c5e573d6000803e3d6000fd5b505050506040513d601f19601f82011682018060405250810190611c829190612934565b604080516060808252601d908201527f506f73742d53757368697377617020746f6b656e302062616c616e636500000060808201526001600160a01b03909316602084015282015260a00160405180910390a16040516370a0823160e01b8152306004820152600080516020612f0b8339815191529087906001600160a01b038216906370a0823190602401602060405180830381865afa158015611d2b573d6000803e3d6000fd5b505050506040513d601f19601f82011682018060405250810190611d4f9190612934565b604080516060808252601d908201527f506f73742d53757368697377617020746f6b656e312062616c616e636500000060808201526001600160a01b03909316602084015282015260a00160405180910390a16000611daf87898661221f565b60408051606081018252600181526020810185905260008183018190529151630f140bef60e11b8152929350917f00000000000000000000000000000000000000000000000000000000000000006001600160a01b031690631e2817de90611e1d9086908690600401612c32565b60408051808303816000875af1158015611e3b573d6000803e3d6000fd5b505050506040513d601f19601f82011682018060405250810190611e5f9190612c6e565b9050600080516020612eeb8339815191528160000151611e7e90612cd5565b604051611ebb91906040808252601390820152720556e697377617020737761702064656c74613606c1b6060820152602081019190915260800190565b60405180910390a1600080516020612eeb8339815191528160200151611ee090612cd5565b604051611f1d9190604080825260139082015272556e697377617020737761702064656c74613160681b6060820152602081019190915260800190565b60405180910390a1878160200151611f3490612cd5565b11611f40576000611994565b878160200151611f4f90612cd5565b6119949190612cf1565b6000546001600160a01b031633146110055760405163118cdaa760e01b8152336004820152602401610222565b600260015403611fa957604051633ee5aeb560e01b815260040160405180910390fd5b6002600155565b600080546001600160a01b038381166001600160a01b0319831681178455604051919092169283917f8be0079c531659141344cd1fd0a4f28419497f9722a3daafe3b4186f6b6457e09190a35050565b60008061201d86866040518060200160405280600081525061221f565b905060007f00000000000000000000000000000000000000000000000000000000000000006001600160a01b031663760f59d0836040518263ffffffff1660e01b815260040161206d9190612d0a565b602060405180830381865afa15801561208a573d6000803e3d6000fd5b505050506040513d601f19601f820116820180604052508101906120ae9190612d18565b90506000600160c01b866120cb6001600160a01b03851680612d35565b6120d59190612d35565b6120df9190612d4c565b6040805160028082526060820183529293506000929091602083019080368337019050509050888160008151811061211957612119612d6e565b60200260200101906001600160a01b031690816001600160a01b031681525050878160018151811061214d5761214d612d6e565b6001600160a01b03928316602091820292909201015260405163d06ca61f60e01b81526000917f0000000000000000000000000000000000000000000000000000000000000000169063d06ca61f906121ac908b908690600401612dc9565b600060405180830381865afa1580156121c9573d6000803e3d6000fd5b505050506040513d6000823e601f3d908101601f191682016040526121f19190810190612dea565b60018151811061220357612203612d6e565b6020026020010151905080831195505050505050949350505050565b6040805160a08101825260008082526020820181905291810182905260608101829052608081019190915250506040805160a0810182526001600160a01b039384168152919092166020820152610bb891810191909152603c60608201526000608082015290565b6040516370a0823160e01b8152306004820152600090600080516020612f0b8339815191529086906001600160a01b038216906370a0823190602401602060405180830381865afa1580156122e0573d6000803e3d6000fd5b505050506040513d601f19601f820116820180604052508101906123049190612934565b604080516060808252601d908201527f5072652d53757368697377617020746f6b656e496e2062616c616e636500000060808201526001600160a01b03909316602084015282015260a00160405180910390a16040516370a0823160e01b8152306004820152600080516020612f0b8339815191529085906001600160a01b038216906370a0823190602401602060405180830381865afa1580156123ad573d6000803e3d6000fd5b505050506040513d601f19601f820116820180604052508101906123d19190612934565b604080516060808252601e908201527f5072652d53757368697377617020746f6b656e4f75742062616c616e6365000060808201526001600160a01b03909316602084015282015260a00160405180910390a160405163095ea7b360e01b81526001600160a01b037f0000000000000000000000000000000000000000000000000000000000000000811660048301526024820185905286169063095ea7b3906044016020604051808303816000875af1158015612493573d6000803e3d6000fd5b505050506040513d601f19601f820116820180604052508101906124b79190612adf565b6125035760405162461bcd60e51b815260206004820152601960248201527f53757368697377617020617070726f76616c206661696c6564000000000000006044820152606401610222565b604080516002808252606082018352600092602083019080368337019050509050858160008151811061253857612538612d6e565b60200260200101906001600160a01b031690816001600160a01b031681525050848160018151811061256c5761256c612d6e565b6001600160a01b0392831660209182029290920101526000907f0000000000000000000000000000000000000000000000000000000000000000166338ed1739868685306125bc4261012c612e9b565b6040518663ffffffff1660e01b81526004016125dc959493929190612eae565b6000604051808303816000875af11580156125fb573d6000803e3d6000fd5b505050506040513d6000823e601f3d908101601f191682016040526126239190810190612dea565b6040516370a0823160e01b8152306004820152909150600080516020612f0b8339815191529088906001600160a01b038216906370a0823190602401602060405180830381865afa15801561267c573d6000803e3d6000fd5b505050506040513d601f19601f820116820180604052508101906126a09190612934565b604080516060808252601e908201527f506f73742d53757368697377617020746f6b656e496e2062616c616e6365000060808201526001600160a01b03909316602084015282015260a00160405180910390a16040516370a0823160e01b8152306004820152600080516020612f0b8339815191529087906001600160a01b038216906370a0823190602401602060405180830381865afa158015612749573d6000803e3d6000fd5b505050506040513d601f19601f8201168201806040525081019061276d9190612934565b604080516060808252601f908201527f506f73742d53757368697377617020746f6b656e4f75742062616c616e63650060808201526001600160a01b03909316602084015282015260a00160405180910390a180600182516127cf9190612cf1565b815181106127df576127df612d6e565b602002602001015192505050949350505050565b6001600160a01b038116811461126c57600080fd5b60008060008060008060a0878903121561282157600080fd5b863561282c816127f3565b9550602087013561283c816127f3565b94506040870135935060608701359250608087013567ffffffffffffffff81111561286657600080fd5b8701601f8101891361287757600080fd5b803567ffffffffffffffff81111561288e57600080fd5b8960208284010111156128a057600080fd5b60208201935080925050509295509295509295565b6000806000606084860312156128ca57600080fd5b83356128d5816127f3565b92506020840135915060408401356128ec816127f3565b809150509250925092565b60006020828403121561290957600080fd5b5035919050565b60006020828403121561292257600080fd5b813561292d816127f3565b9392505050565b60006020828403121561294657600080fd5b5051919050565b634e487b7160e01b600052604160045260246000fd5b60405160a0810167ffffffffffffffff811182821017156129865761298661294d565b60405290565b604051601f8201601f1916810167ffffffffffffffff811182821017156129b5576129b561294d565b604052919050565b801515811461126c57600080fd5b600082601f8301126129dc57600080fd5b813567ffffffffffffffff8111156129f6576129f661294d565b612a09601f8201601f191660200161298c565b818152846020838601011115612a1e57600080fd5b816020850160208301376000918101602001919091529392505050565b60008082840360c0811215612a4f57600080fd5b60a0811215612a5d57600080fd5b50612a66612963565b8335612a71816127f3565b81526020840135612a81816127f3565b602082015260408481013590820152606080850135908201526080840135612aa8816129bd565b6080820152915060a083013567ffffffffffffffff811115612ac957600080fd5b612ad5858286016129cb565b9150509250929050565b600060208284031215612af157600080fd5b815161292d816129bd565b60018060a01b03845116815260018060a01b036020850151166020820152604084015160408201526060840151606082015260808401511515608082015260c060a08201528160c0820152818360e0830137600081830160e090810191909152601f909201601f1916010192915050565b6001600160a01b038781168252868116602083015285166040820152606081018490526080810183905260c060a082018190528251908201819052600090815b81811015612bca57602081860181015160e0868401015201612bad565b50600060e0828501015260e0601f19601f830116840101915050979650505050505050565b80516001600160a01b03908116835260208083015182169084015260408083015162ffffff169084015260608083015160020b9084015260809182015116910152565b6101008101612c418285612bef565b8251151560a0830152602083015160c08301526040909201516001600160a01b031660e090910152919050565b60006040828403128015612c8157600080fd5b506040805190810167ffffffffffffffff81118282101715612ca557612ca561294d565b604052825181526020928301519281019290925250919050565b634e487b7160e01b600052601160045260246000fd5b6000600160ff1b8201612cea57612cea612cbf565b5060000390565b81810381811115612d0457612d04612cbf565b92915050565b60a08101612d048284612bef565b600060208284031215612d2a57600080fd5b815161292d816127f3565b8082028115828204841417612d0457612d04612cbf565b600082612d6957634e487b7160e01b600052601260045260246000fd5b500490565b634e487b7160e01b600052603260045260246000fd5b600081518084526020840193506020830160005b82811015612dbf5781516001600160a01b0316865260209586019590910190600101612d98565b5093949350505050565b828152604060208201526000612de26040830184612d84565b949350505050565b600060208284031215612dfc57600080fd5b815167ffffffffffffffff811115612e1357600080fd5b8201601f81018413612e2457600080fd5b805167ffffffffffffffff811115612e3e57612e3e61294d565b8060051b612e4e6020820161298c565b91825260208184018101929081019087841115612e6a57600080fd5b6020850194505b83851015612e9057845180835260209586019590935090910190612e71565b979650505050505050565b80820180821115612d0457612d04612cbf565b85815284602082015260a060408201526000612ecd60a0830186612d84565b6001600160a01b039490941660608301525060800152939250505056fe3c5ad147104e56be34a9176a6692f7df8d2f4b29a5af06bc6b98970d329d657728d7b9b2f784cfd77a99878b6ee7ac54e22d1a1b3cd542a1992bc36993b213c1a26469706673582212203bd691af5f01b9821286b6e8b546b7dcebe977b8db8101ff9a7a01fdf98637d964736f6c634300081c0033","opcodes":"PUSH1 0xC0 PUSH1 0x40 MSTORE CALLVALUE DUP1 ISZERO PUSH2 0x10 JUMPI PUSH1 0x0 DUP1 REVERT JUMPDEST POP PUSH1 0x40 MLOAD PUSH2 0x31BA CODESIZE SUB DUP1 PUSH2 0x31BA DUP4 CODECOPY DUP2 ADD PUSH1 0x40 DUP2 SWAP1 MSTORE PUSH2 0x2F SWAP2 PUSH2 0x197 JUMP JUMPDEST CALLER DUP1 PUSH2 0x56 JUMPI PUSH1 0x40 MLOAD PUSH4 0x1E4FBDF7 PUSH1 0xE0 SHL DUP2 MSTORE PUSH1 0x0 PUSH1 0x4 DUP3 ADD MSTORE PUSH1 0x24 ADD JUMPDEST PUSH1 0x40 MLOAD DUP1 SWAP2 SUB SWAP1 REVERT JUMPDEST PUSH2 0x5F DUP2 PUSH2 0x12B JUMP JUMPDEST POP PUSH1 0x1 DUP1 SSTORE PUSH1 0x1 PUSH1 0x1 PUSH1 0xA0 SHL SUB DUP4 AND PUSH2 0xBA JUMPI PUSH1 0x40 MLOAD PUSH3 0x461BCD PUSH1 0xE5 SHL DUP2 MSTORE PUSH1 0x20 PUSH1 0x4 DUP3 ADD MSTORE PUSH1 0x14 PUSH1 0x24 DUP3 ADD MSTORE PUSH32 0x496E76616C696420706F6F6C206D616E61676572000000000000000000000000 PUSH1 0x44 DUP3 ADD MSTORE PUSH1 0x64 ADD PUSH2 0x4D JUMP JUMPDEST PUSH1 0x1 PUSH1 0x1 PUSH1 0xA0 SHL SUB DUP3 AND PUSH2 0x110 JUMPI PUSH1 0x40 MLOAD PUSH3 0x461BCD PUSH1 0xE5 SHL DUP2 MSTORE PUSH1 0x20 PUSH1 0x4 DUP3 ADD MSTORE PUSH1 0x18 PUSH1 0x24 DUP3 ADD MSTORE PUSH32 0x496E76616C69642053757368697377617020726F757465720000000000000000 PUSH1 0x44 DUP3 ADD MSTORE PUSH1 0x64 ADD PUSH2 0x4D JUMP JUMPDEST PUSH1 0x1 PUSH1 0x1 PUSH1 0xA0 SHL SUB SWAP3 DUP4 AND PUSH1 0x80 MSTORE SWAP2 AND PUSH1 0xA0 MSTORE PUSH1 0x2 SSTORE PUSH2 0x1D3 JUMP JUMPDEST PUSH1 0x0 DUP1 SLOAD PUSH1 0x1 PUSH1 0x1 PUSH1 0xA0 SHL SUB DUP4 DUP2 AND PUSH1 0x1 PUSH1 0x1 PUSH1 0xA0 SHL SUB NOT DUP4 AND DUP2 OR DUP5 SSTORE PUSH1 0x40 MLOAD SWAP2 SWAP1 SWAP3 AND SWAP3 DUP4 SWAP2 PUSH32 0x8BE0079C531659141344CD1FD0A4F28419497F9722A3DAAFE3B4186F6B6457E0 SWAP2 SWAP1 LOG3 POP POP JUMP JUMPDEST DUP1 MLOAD PUSH1 0x1 PUSH1 0x1 PUSH1 0xA0 SHL SUB DUP2 AND DUP2 EQ PUSH2 0x192 JUMPI PUSH1 0x0 DUP1 REVERT JUMPDEST SWAP2 SWAP1 POP JUMP JUMPDEST PUSH1 0x0 DUP1 PUSH1 0x0 PUSH1 0x60 DUP5 DUP7 SUB SLT ISZERO PUSH2 0x1AC JUMPI PUSH1 0x0 DUP1 REVERT JUMPDEST PUSH2 0x1B5 DUP5 PUSH2 0x17B JUMP JUMPDEST SWAP3 POP PUSH2 0x1C3 PUSH1 0x20 DUP6 ADD PUSH2 0x17B JUMP JUMPDEST SWAP2 POP PUSH1 0x40 DUP5 ADD MLOAD SWAP1 POP SWAP3 POP SWAP3 POP SWAP3 JUMP JUMPDEST PUSH1 0x80 MLOAD PUSH1 0xA0 MLOAD PUSH2 0x2F60 PUSH2 0x25A PUSH1 0x0 CODECOPY PUSH1 0x0 DUP2 DUP2 PUSH2 0x17F ADD MSTORE DUP2 DUP2 PUSH2 0x538 ADD MSTORE DUP2 DUP2 PUSH2 0x5BE ADD MSTORE DUP2 DUP2 PUSH2 0x2175 ADD MSTORE DUP2 DUP2 PUSH2 0x243B ADD MSTORE PUSH2 0x2587 ADD MSTORE PUSH1 0x0 DUP2 DUP2 PUSH2 0x145 ADD MSTORE DUP2 DUP2 PUSH2 0x1C1 ADD MSTORE DUP2 DUP2 PUSH2 0x42C ADD MSTORE DUP2 DUP2 PUSH2 0x4B2 ADD MSTORE DUP2 DUP2 PUSH2 0xA51 ADD MSTORE DUP2 DUP2 PUSH2 0xC36 ADD MSTORE DUP2 DUP2 PUSH2 0x1168 ADD MSTORE DUP2 DUP2 PUSH2 0x162E ADD MSTORE DUP2 DUP2 PUSH2 0x1DDE ADD MSTORE PUSH2 0x2023 ADD MSTORE PUSH2 0x2F60 PUSH1 0x0 RETURN INVALID PUSH1 0x80 PUSH1 0x40 MSTORE CALLVALUE DUP1 ISZERO PUSH2 0x10 JUMPI PUSH1 0x0 DUP1 REVERT JUMPDEST POP PUSH1 0x4 CALLDATASIZE LT PUSH2 0x9E JUMPI PUSH1 0x0 CALLDATALOAD PUSH1 0xE0 SHR DUP1 PUSH4 0xB5FFAD44 GT PUSH2 0x66 JUMPI DUP1 PUSH4 0xB5FFAD44 EQ PUSH2 0x12D JUMPI DUP1 PUSH4 0xDC4C90D3 EQ PUSH2 0x140 JUMPI DUP1 PUSH4 0xE1AB1B13 EQ PUSH2 0x167 JUMPI DUP1 PUSH4 0xE9240C2D EQ PUSH2 0x17A JUMPI DUP1 PUSH4 0xF2FDE38B EQ PUSH2 0x1A1 JUMPI PUSH1 0x0 DUP1 REVERT JUMPDEST DUP1 PUSH4 0xA967EB2 EQ PUSH2 0xA3 JUMPI DUP1 PUSH4 0x51C469E2 EQ PUSH2 0xBF JUMPI DUP1 PUSH4 0x551512DE EQ PUSH2 0xEB JUMPI DUP1 PUSH4 0x715018A6 EQ PUSH2 0x100 JUMPI DUP1 PUSH4 0x8DA5CB5B EQ PUSH2 0x108 JUMPI JUMPDEST PUSH1 0x0 DUP1 REVERT JUMPDEST PUSH2 0xAC PUSH1 0x2 SLOAD DUP2 JUMP JUMPDEST PUSH1 0x40 MLOAD SWAP1 DUP2 MSTORE PUSH1 0x20 ADD JUMPDEST PUSH1 0x40 MLOAD DUP1 SWAP2 SUB SWAP1 RETURN JUMPDEST PUSH2 0xD2 PUSH2 0xCD CALLDATASIZE PUSH1 0x4 PUSH2 0x2808 JUMP JUMPDEST PUSH2 0x1B4 JUMP JUMPDEST PUSH1 0x40 MLOAD PUSH1 0x1 PUSH1 0x1 PUSH1 0xE0 SHL SUB NOT SWAP1 SWAP2 AND DUP2 MSTORE PUSH1 0x20 ADD PUSH2 0xB6 JUMP JUMPDEST PUSH2 0xFE PUSH2 0xF9 CALLDATASIZE PUSH1 0x4 PUSH2 0x28B5 JUMP JUMPDEST PUSH2 0xEDA JUMP JUMPDEST STOP JUMPDEST PUSH2 0xFE PUSH2 0xFF3 JUMP JUMPDEST PUSH1 0x0 SLOAD PUSH1 0x1 PUSH1 0x1 PUSH1 0xA0 SHL SUB AND JUMPDEST PUSH1 0x40 MLOAD PUSH1 0x1 PUSH1 0x1 PUSH1 0xA0 SHL SUB SWAP1 SWAP2 AND DUP2 MSTORE PUSH1 0x20 ADD PUSH2 0xB6 JUMP JUMPDEST PUSH2 0xFE PUSH2 0x13B CALLDATASIZE PUSH1 0x4 PUSH2 0x2808 JUMP JUMPDEST PUSH2 0x1007 JUMP JUMPDEST PUSH2 0x115 PUSH32 0x0 DUP2 JUMP JUMPDEST PUSH2 0xFE PUSH2 0x175 CALLDATASIZE PUSH1 0x4 PUSH2 0x28F7 JUMP JUMPDEST PUSH2 0x1224 JUMP JUMPDEST PUSH2 0x115 PUSH32 0x0 DUP2 JUMP JUMPDEST PUSH2 0xFE PUSH2 0x1AF CALLDATASIZE PUSH1 0x4 PUSH2 0x2910 JUMP JUMPDEST PUSH2 0x1231 JUMP JUMPDEST PUSH1 0x0 CALLER PUSH1 0x1 PUSH1 0x1 PUSH1 0xA0 SHL SUB PUSH32 0x0 AND EQ PUSH2 0x22B JUMPI PUSH1 0x40 MLOAD PUSH3 0x461BCD PUSH1 0xE5 SHL DUP2 MSTORE PUSH1 0x20 PUSH1 0x4 DUP3 ADD MSTORE PUSH1 0x15 PUSH1 0x24 DUP3 ADD MSTORE PUSH21 0x556E617574686F72697A65642063616C6C6261636B PUSH1 0x58 SHL PUSH1 0x44 DUP3 ADD MSTORE PUSH1 0x64 ADD JUMPDEST PUSH1 0x40 MLOAD DUP1 SWAP2 SUB SWAP1 REVERT JUMPDEST PUSH1 0x40 DUP1 MLOAD DUP2 DUP2 MSTORE PUSH1 0xD DUP2 DUP4 ADD MSTORE PUSH13 0x43616C6C6261636B2066726F6D PUSH1 0x98 SHL PUSH1 0x60 DUP3 ADD MSTORE CALLER PUSH1 0x20 DUP3 ADD MSTORE SWAP1 MLOAD PUSH32 0x619C62393708F63887B9FF82E481DBE31792A4445225C39A9D31D2144BCCAFB4 SWAP2 DUP2 SWAP1 SUB PUSH1 0x80 ADD SWAP1 LOG1 PUSH1 0x40 MLOAD PUSH4 0x70A08231 PUSH1 0xE0 SHL DUP2 MSTORE ADDRESS PUSH1 0x4 DUP3 ADD MSTORE PUSH1 0x0 DUP1 MLOAD PUSH1 0x20 PUSH2 0x2F0B DUP4 CODECOPY DUP2 MLOAD SWAP2 MSTORE SWAP1 DUP9 SWAP1 PUSH1 0x1 PUSH1 0x1 PUSH1 0xA0 SHL SUB DUP3 AND SWAP1 PUSH4 0x70A08231 SWAP1 PUSH1 0x24 ADD PUSH1 0x20 PUSH1 0x40 MLOAD DUP1 DUP4 SUB DUP2 DUP7 GAS STATICCALL ISZERO DUP1 ISZERO PUSH2 0x2D6 JUMPI RETURNDATASIZE PUSH1 0x0 DUP1 RETURNDATACOPY RETURNDATASIZE PUSH1 0x0 REVERT JUMPDEST POP POP POP POP PUSH1 0x40 MLOAD RETURNDATASIZE PUSH1 0x1F NOT PUSH1 0x1F DUP3 ADD AND DUP3 ADD DUP1 PUSH1 0x40 MSTORE POP DUP2 ADD SWAP1 PUSH2 0x2FA SWAP2 SWAP1 PUSH2 0x2934 JUMP JUMPDEST PUSH1 0x40 DUP1 MLOAD PUSH1 0x60 DUP1 DUP3 MSTORE PUSH1 0x16 SWAP1 DUP3 ADD MSTORE PUSH22 0x496E697469616C20746F6B656E302062616C616E6365 PUSH1 0x50 SHL PUSH1 0x80 DUP3 ADD MSTORE PUSH1 0x1 PUSH1 0x1 PUSH1 0xA0 SHL SUB SWAP1 SWAP4 AND PUSH1 0x20 DUP5 ADD MSTORE DUP3 ADD MSTORE PUSH1 0xA0 ADD PUSH1 0x40 MLOAD DUP1 SWAP2 SUB SWAP1 LOG1 PUSH1 0x40 MLOAD PUSH4 0x70A08231 PUSH1 0xE0 SHL DUP2 MSTORE ADDRESS PUSH1 0x4 DUP3 ADD MSTORE PUSH1 0x0 DUP1 MLOAD PUSH1 0x20 PUSH2 0x2F0B DUP4 CODECOPY DUP2 MLOAD SWAP2 MSTORE SWAP1 DUP8 SWAP1 PUSH1 0x1 PUSH1 0x1 PUSH1 0xA0 SHL SUB DUP3 AND SWAP1 PUSH4 0x70A08231 SWAP1 PUSH1 0x24 ADD PUSH1 0x20 PUSH1 0x40 MLOAD DUP1 DUP4 SUB DUP2 DUP7 GAS STATICCALL ISZERO DUP1 ISZERO PUSH2 0x39C JUMPI RETURNDATASIZE PUSH1 0x0 DUP1 RETURNDATACOPY RETURNDATASIZE PUSH1 0x0 REVERT JUMPDEST POP POP POP POP PUSH1 0x40 MLOAD RETURNDATASIZE PUSH1 0x1F NOT PUSH1 0x1F DUP3 ADD AND DUP3 ADD DUP1 PUSH1 0x40 MSTORE POP DUP2 ADD SWAP1 PUSH2 0x3C0 SWAP2 SWAP1 PUSH2 0x2934 JUMP JUMPDEST PUSH1 0x40 DUP1 MLOAD PUSH1 0x60 DUP1 DUP3 MSTORE PUSH1 0x16 SWAP1 DUP3 ADD MSTORE PUSH22 0x496E697469616C20746F6B656E312062616C616E6365 PUSH1 0x50 SHL PUSH1 0x80 DUP3 ADD MSTORE PUSH1 0x1 PUSH1 0x1 PUSH1 0xA0 SHL SUB SWAP1 SWAP4 AND PUSH1 0x20 DUP5 ADD MSTORE DUP3 ADD MSTORE PUSH1 0xA0 ADD PUSH1 0x40 MLOAD DUP1 SWAP2 SUB SWAP1 LOG1 PUSH1 0x0 DUP1 PUSH2 0x41B DUP5 DUP7 ADD DUP7 PUSH2 0x2A3B JUMP JUMPDEST SWAP1 SWAP3 POP SWAP1 POP DUP7 ISZERO PUSH2 0x4A6 JUMPI PUSH2 0x451 DUP10 PUSH32 0x0 DUP10 PUSH2 0x126F JUMP JUMPDEST PUSH1 0x40 DUP1 MLOAD DUP2 DUP2 MSTORE PUSH1 0x1F DUP2 DUP4 ADD MSTORE PUSH32 0x417070726F76656420746F6B656E3020666F7220506F6F6C4D616E6167657200 PUSH1 0x60 DUP3 ADD MSTORE PUSH1 0x20 DUP2 ADD DUP10 SWAP1 MSTORE SWAP1 MLOAD PUSH1 0x0 DUP1 MLOAD PUSH1 0x20 PUSH2 0x2EEB DUP4 CODECOPY DUP2 MLOAD SWAP2 MSTORE SWAP2 DUP2 SWAP1 SUB PUSH1 0x80 ADD SWAP1 LOG1 JUMPDEST DUP6 ISZERO PUSH2 0x52C JUMPI PUSH2 0x4D7 DUP9 PUSH32 0x0 DUP9 PUSH2 0x126F JUMP JUMPDEST PUSH1 0x40 DUP1 MLOAD DUP2 DUP2 MSTORE PUSH1 0x1F DUP2 DUP4 ADD MSTORE PUSH32 0x417070726F76656420746F6B656E3120666F7220506F6F6C4D616E6167657200 PUSH1 0x60 DUP3 ADD MSTORE PUSH1 0x20 DUP2 ADD DUP9 SWAP1 MSTORE SWAP1 MLOAD PUSH1 0x0 DUP1 MLOAD PUSH1 0x20 PUSH2 0x2EEB DUP4 CODECOPY DUP2 MLOAD SWAP2 MSTORE SWAP2 DUP2 SWAP1 SUB PUSH1 0x80 ADD SWAP1 LOG1 JUMPDEST DUP7 ISZERO PUSH2 0x5B2 JUMPI PUSH2 0x55D DUP10 PUSH32 0x0 DUP10 PUSH2 0x126F JUMP JUMPDEST PUSH1 0x40 DUP1 MLOAD DUP2 DUP2 MSTORE PUSH1 0x1D DUP2 DUP4 ADD MSTORE PUSH32 0x417070726F76656420746F6B656E3020666F7220537573686973776170000000 PUSH1 0x60 DUP3 ADD MSTORE PUSH1 0x20 DUP2 ADD DUP10 SWAP1 MSTORE SWAP1 MLOAD PUSH1 0x0 DUP1 MLOAD PUSH1 0x20 PUSH2 0x2EEB DUP4 CODECOPY DUP2 MLOAD SWAP2 MSTORE SWAP2 DUP2 SWAP1 SUB PUSH1 0x80 ADD SWAP1 LOG1 JUMPDEST DUP6 ISZERO PUSH2 0x638 JUMPI PUSH2 0x5E3 DUP9 PUSH32 0x0 DUP9 PUSH2 0x126F JUMP JUMPDEST PUSH1 0x40 DUP1 MLOAD DUP2 DUP2 MSTORE PUSH1 0x1D DUP2 DUP4 ADD MSTORE PUSH32 0x417070726F76656420746F6B656E3120666F7220537573686973776170000000 PUSH1 0x60 DUP3 ADD MSTORE PUSH1 0x20 DUP2 ADD DUP9 SWAP1 MSTORE SWAP1 MLOAD PUSH1 0x0 DUP1 MLOAD PUSH1 0x20 PUSH2 0x2EEB DUP4 CODECOPY DUP2 MLOAD SWAP2 MSTORE SWAP2 DUP2 SWAP1 SUB PUSH1 0x80 ADD SWAP1 LOG1 JUMPDEST PUSH1 0x0 DUP3 PUSH1 0x80 ADD MLOAD ISZERO PUSH2 0x6B4 JUMPI PUSH1 0x40 DUP1 MLOAD DUP2 DUP2 MSTORE PUSH1 0x17 DUP2 DUP4 ADD MSTORE PUSH32 0x457865637574696E6720556E6973776170206669727374000000000000000000 PUSH1 0x60 DUP3 ADD MSTORE PUSH1 0x0 PUSH1 0x20 DUP3 ADD MSTORE SWAP1 MLOAD PUSH1 0x0 DUP1 MLOAD PUSH1 0x20 PUSH2 0x2EEB DUP4 CODECOPY DUP2 MLOAD SWAP2 MSTORE SWAP2 DUP2 SWAP1 SUB PUSH1 0x80 ADD SWAP1 LOG1 PUSH2 0x6AD DUP4 PUSH1 0x0 ADD MLOAD DUP5 PUSH1 0x20 ADD MLOAD DUP11 DUP11 DUP7 PUSH2 0x13E1 JUMP JUMPDEST SWAP1 POP PUSH2 0x720 JUMP JUMPDEST PUSH1 0x40 DUP1 MLOAD DUP2 DUP2 MSTORE PUSH1 0x19 DUP2 DUP4 ADD MSTORE PUSH32 0x457865637574696E672053757368697377617020666972737400000000000000 PUSH1 0x60 DUP3 ADD MSTORE PUSH1 0x0 PUSH1 0x20 DUP3 ADD MSTORE SWAP1 MLOAD PUSH1 0x0 DUP1 MLOAD PUSH1 0x20 PUSH2 0x2EEB DUP4 CODECOPY DUP2 MLOAD SWAP2 MSTORE SWAP2 DUP2 SWAP1 SUB PUSH1 0x80 ADD SWAP1 LOG1 PUSH2 0x71D DUP4 PUSH1 0x0 ADD MLOAD DUP5 PUSH1 0x20 ADD MLOAD DUP11 DUP11 DUP7 PUSH2 0x19A2 JUMP JUMPDEST SWAP1 POP JUMPDEST PUSH1 0x40 DUP1 MLOAD DUP2 DUP2 MSTORE PUSH1 0x11 DUP2 DUP4 ADD MSTORE PUSH17 0x141C9BD99A5D0818D85B18DD5B185D1959 PUSH1 0x7A SHL PUSH1 0x60 DUP3 ADD MSTORE PUSH1 0x20 DUP2 ADD DUP4 SWAP1 MSTORE SWAP1 MLOAD PUSH1 0x0 DUP1 MLOAD PUSH1 0x20 PUSH2 0x2EEB DUP4 CODECOPY DUP2 MLOAD SWAP2 MSTORE SWAP2 DUP2 SWAP1 SUB PUSH1 0x80 ADD SWAP1 LOG1 PUSH1 0x2 SLOAD DUP2 LT ISZERO PUSH2 0x78B JUMPI PUSH1 0x40 MLOAD PUSH4 0x2723FC75 PUSH1 0xE1 SHL DUP2 MSTORE PUSH1 0x4 ADD PUSH1 0x40 MLOAD DUP1 SWAP2 SUB SWAP1 REVERT JUMPDEST DUP9 PUSH1 0x1 PUSH1 0x1 PUSH1 0xA0 SHL SUB AND DUP11 PUSH1 0x1 PUSH1 0x1 PUSH1 0xA0 SHL SUB AND PUSH32 0x546205492CE144EDEBD2CC39035C50DBD9AEBFEC90CBCAE9C9AE2914D1E130F7 DUP4 PUSH1 0x40 MLOAD PUSH2 0x7D0 SWAP2 DUP2 MSTORE PUSH1 0x20 ADD SWAP1 JUMP JUMPDEST PUSH1 0x40 MLOAD DUP1 SWAP2 SUB SWAP1 LOG3 PUSH1 0x40 MLOAD PUSH4 0x70A08231 PUSH1 0xE0 SHL DUP2 MSTORE ADDRESS PUSH1 0x4 DUP3 ADD MSTORE PUSH1 0x0 DUP1 MLOAD PUSH1 0x20 PUSH2 0x2F0B DUP4 CODECOPY DUP2 MLOAD SWAP2 MSTORE SWAP1 DUP12 SWAP1 PUSH1 0x1 PUSH1 0x1 PUSH1 0xA0 SHL SUB DUP3 AND SWAP1 PUSH4 0x70A08231 SWAP1 PUSH1 0x24 ADD PUSH1 0x20 PUSH1 0x40 MLOAD DUP1 DUP4 SUB DUP2 DUP7 GAS STATICCALL ISZERO DUP1 ISZERO PUSH2 0x82E JUMPI RETURNDATASIZE PUSH1 0x0 DUP1 RETURNDATACOPY RETURNDATASIZE PUSH1 0x0 REVERT JUMPDEST POP POP POP POP PUSH1 0x40 MLOAD RETURNDATASIZE PUSH1 0x1F NOT PUSH1 0x1F DUP3 ADD AND DUP3 ADD DUP1 PUSH1 0x40 MSTORE POP DUP2 ADD SWAP1 PUSH2 0x852 SWAP2 SWAP1 PUSH2 0x2934 JUMP JUMPDEST PUSH1 0x40 DUP1 MLOAD PUSH1 0x60 DUP1 DUP3 MSTORE PUSH1 0x18 SWAP1 DUP3 ADD MSTORE PUSH32 0x5072652D726570617920746F6B656E302062616C616E63650000000000000000 PUSH1 0x80 DUP3 ADD MSTORE PUSH1 0x1 PUSH1 0x1 PUSH1 0xA0 SHL SUB SWAP1 SWAP4 AND PUSH1 0x20 DUP5 ADD MSTORE DUP3 ADD MSTORE PUSH1 0xA0 ADD PUSH1 0x40 MLOAD DUP1 SWAP2 SUB SWAP1 LOG1 PUSH1 0x40 MLOAD PUSH4 0x70A08231 PUSH1 0xE0 SHL DUP2 MSTORE ADDRESS PUSH1 0x4 DUP3 ADD MSTORE PUSH1 0x0 DUP1 MLOAD PUSH1 0x20 PUSH2 0x2F0B DUP4 CODECOPY DUP2 MLOAD SWAP2 MSTORE SWAP1 DUP11 SWAP1 PUSH1 0x1 PUSH1 0x1 PUSH1 0xA0 SHL SUB DUP3 AND SWAP1 PUSH4 0x70A08231 SWAP1 PUSH1 0x24 ADD PUSH1 0x20 PUSH1 0x40 MLOAD DUP1 DUP4 SUB DUP2 DUP7 GAS STATICCALL ISZERO DUP1 ISZERO PUSH2 0x8FB JUMPI RETURNDATASIZE PUSH1 0x0 DUP1 RETURNDATACOPY RETURNDATASIZE PUSH1 0x0 REVERT JUMPDEST POP POP POP POP PUSH1 0x40 MLOAD RETURNDATASIZE PUSH1 0x1F NOT PUSH1 0x1F DUP3 ADD AND DUP3 ADD DUP1 PUSH1 0x40 MSTORE POP DUP2 ADD SWAP1 PUSH2 0x91F SWAP2 SWAP1 PUSH2 0x2934 JUMP JUMPDEST PUSH1 0x40 DUP1 MLOAD PUSH1 0x60 DUP1 DUP3 MSTORE PUSH1 0x18 SWAP1 DUP3 ADD MSTORE PUSH32 0x5072652D726570617920746F6B656E312062616C616E63650000000000000000 PUSH1 0x80 DUP3 ADD MSTORE PUSH1 0x1 PUSH1 0x1 PUSH1 0xA0 SHL SUB SWAP1 SWAP4 AND PUSH1 0x20 DUP5 ADD MSTORE DUP3 ADD MSTORE PUSH1 0xA0 ADD PUSH1 0x40 MLOAD DUP1 SWAP2 SUB SWAP1 LOG1 DUP8 ISZERO PUSH2 0xB57 JUMPI PUSH1 0x40 MLOAD PUSH4 0x70A08231 PUSH1 0xE0 SHL DUP2 MSTORE ADDRESS PUSH1 0x4 DUP3 ADD MSTORE DUP9 SWAP1 PUSH1 0x1 PUSH1 0x1 PUSH1 0xA0 SHL SUB DUP13 AND SWAP1 PUSH4 0x70A08231 SWAP1 PUSH1 0x24 ADD PUSH1 0x20 PUSH1 0x40 MLOAD DUP1 DUP4 SUB DUP2 DUP7 GAS STATICCALL ISZERO DUP1 ISZERO PUSH2 0x9BE JUMPI RETURNDATASIZE PUSH1 0x0 DUP1 RETURNDATACOPY RETURNDATASIZE PUSH1 0x0 REVERT JUMPDEST POP POP POP POP PUSH1 0x40 MLOAD RETURNDATASIZE PUSH1 0x1F NOT PUSH1 0x1F DUP3 ADD AND DUP3 ADD DUP1 PUSH1 0x40 MSTORE POP DUP2 ADD SWAP1 PUSH2 0x9E2 SWAP2 SWAP1 PUSH2 0x2934 JUMP JUMPDEST LT ISZERO PUSH2 0xA3A JUMPI PUSH1 0x40 MLOAD PUSH3 0x461BCD PUSH1 0xE5 SHL DUP2 MSTORE PUSH1 0x20 PUSH1 0x4 DUP3 ADD MSTORE PUSH1 0x21 PUSH1 0x24 DUP3 ADD MSTORE PUSH32 0x496E73756666696369656E7420746F6B656E3020666F722072657061796D656E PUSH1 0x44 DUP3 ADD MSTORE PUSH1 0x1D PUSH1 0xFA SHL PUSH1 0x64 DUP3 ADD MSTORE PUSH1 0x84 ADD PUSH2 0x222 JUMP JUMPDEST PUSH1 0x40 MLOAD PUSH4 0xA9059CBB PUSH1 0xE0 SHL DUP2 MSTORE PUSH1 0x1 PUSH1 0x1 PUSH1 0xA0 SHL SUB PUSH32 0x0 DUP2 AND PUSH1 0x4 DUP4 ADD MSTORE PUSH1 0x24 DUP3 ADD DUP11 SWAP1 MSTORE DUP12 AND SWAP1 PUSH4 0xA9059CBB SWAP1 PUSH1 0x44 ADD PUSH1 0x20 PUSH1 0x40 MLOAD DUP1 DUP4 SUB DUP2 PUSH1 0x0 DUP8 GAS CALL ISZERO DUP1 ISZERO PUSH2 0xAA9 JUMPI RETURNDATASIZE PUSH1 0x0 DUP1 RETURNDATACOPY RETURNDATASIZE PUSH1 0x0 REVERT JUMPDEST POP POP POP POP PUSH1 0x40 MLOAD RETURNDATASIZE PUSH1 0x1F NOT PUSH1 0x1F DUP3 ADD AND DUP3 ADD DUP1 PUSH1 0x40 MSTORE POP DUP2 ADD SWAP1 PUSH2 0xACD SWAP2 SWAP1 PUSH2 0x2ADF JUMP JUMPDEST PUSH2 0xB12 JUMPI PUSH1 0x40 MLOAD PUSH3 0x461BCD PUSH1 0xE5 SHL DUP2 MSTORE PUSH1 0x20 PUSH1 0x4 DUP3 ADD MSTORE PUSH1 0x16 PUSH1 0x24 DUP3 ADD MSTORE PUSH22 0x151BDAD95B8C081D1C985B9CD9995C8819985A5B1959 PUSH1 0x52 SHL PUSH1 0x44 DUP3 ADD MSTORE PUSH1 0x64 ADD PUSH2 0x222 JUMP JUMPDEST PUSH1 0x40 DUP1 MLOAD DUP2 DUP2 MSTORE PUSH1 0xD DUP2 DUP4 ADD MSTORE PUSH13 0x52657061696420746F6B656E3 PUSH1 0x9C SHL PUSH1 0x60 DUP3 ADD MSTORE PUSH1 0x20 DUP2 ADD DUP11 SWAP1 MSTORE SWAP1 MLOAD PUSH1 0x0 DUP1 MLOAD PUSH1 0x20 PUSH2 0x2EEB DUP4 CODECOPY DUP2 MLOAD SWAP2 MSTORE SWAP2 DUP2 SWAP1 SUB PUSH1 0x80 ADD SWAP1 LOG1 JUMPDEST DUP7 ISZERO PUSH2 0xD3C JUMPI PUSH1 0x40 MLOAD PUSH4 0x70A08231 PUSH1 0xE0 SHL DUP2 MSTORE ADDRESS PUSH1 0x4 DUP3 ADD MSTORE DUP8 SWAP1 PUSH1 0x1 PUSH1 0x1 PUSH1 0xA0 SHL SUB DUP12 AND SWAP1 PUSH4 0x70A08231 SWAP1 PUSH1 0x24 ADD PUSH1 0x20 PUSH1 0x40 MLOAD DUP1 DUP4 SUB DUP2 DUP7 GAS STATICCALL ISZERO DUP1 ISZERO PUSH2 0xBA3 JUMPI RETURNDATASIZE PUSH1 0x0 DUP1 RETURNDATACOPY RETURNDATASIZE PUSH1 0x0 REVERT JUMPDEST POP POP POP POP PUSH1 0x40 MLOAD RETURNDATASIZE PUSH1 0x1F NOT PUSH1 0x1F DUP3 ADD AND DUP3 ADD DUP1 PUSH1 0x40 MSTORE POP DUP2 ADD SWAP1 PUSH2 0xBC7 SWAP2 SWAP1 PUSH2 0x2934 JUMP JUMPDEST LT ISZERO PUSH2 0xC1F JUMPI PUSH1 0x40 MLOAD PUSH3 0x461BCD PUSH1 0xE5 SHL DUP2 MSTORE PUSH1 0x20 PUSH1 0x4 DUP3 ADD MSTORE PUSH1 0x21 PUSH1 0x24 DUP3 ADD MSTORE PUSH32 0x496E73756666696369656E7420746F6B656E3120666F722072657061796D656E PUSH1 0x44 DUP3 ADD MSTORE PUSH1 0x1D PUSH1 0xFA SHL PUSH1 0x64 DUP3 ADD MSTORE PUSH1 0x84 ADD PUSH2 0x222 JUMP JUMPDEST PUSH1 0x40 MLOAD PUSH4 0xA9059CBB PUSH1 0xE0 SHL DUP2 MSTORE PUSH1 0x1 PUSH1 0x1 PUSH1 0xA0 SHL SUB PUSH32 0x0 DUP2 AND PUSH1 0x4 DUP4 ADD MSTORE PUSH1 0x24 DUP3 ADD DUP10 SWAP1 MSTORE DUP11 AND SWAP1 PUSH4 0xA9059CBB SWAP1 PUSH1 0x44 ADD PUSH1 0x20 PUSH1 0x40 MLOAD DUP1 DUP4 SUB DUP2 PUSH1 0x0 DUP8 GAS CALL ISZERO DUP1 ISZERO PUSH2 0xC8E JUMPI RETURNDATASIZE PUSH1 0x0 DUP1 RETURNDATACOPY RETURNDATASIZE PUSH1 0x0 REVERT JUMPDEST POP POP POP POP PUSH1 0x40 MLOAD RETURNDATASIZE PUSH1 0x1F NOT PUSH1 0x1F DUP3 ADD AND DUP3 ADD DUP1 PUSH1 0x40 MSTORE POP DUP2 ADD SWAP1 PUSH2 0xCB2 SWAP2 SWAP1 PUSH2 0x2ADF JUMP JUMPDEST PUSH2 0xCF7 JUMPI PUSH1 0x40 MLOAD PUSH3 0x461BCD PUSH1 0xE5 SHL DUP2 MSTORE PUSH1 0x20 PUSH1 0x4 DUP3 ADD MSTORE PUSH1 0x16 PUSH1 0x24 DUP3 ADD MSTORE PUSH22 0x151BDAD95B8C481D1C985B9CD9995C8819985A5B1959 PUSH1 0x52 SHL PUSH1 0x44 DUP3 ADD MSTORE PUSH1 0x64 ADD PUSH2 0x222 JUMP JUMPDEST PUSH1 0x40 DUP1 MLOAD DUP2 DUP2 MSTORE PUSH1 0xD DUP2 DUP4 ADD MSTORE PUSH13 0x52657061696420746F6B656E31 PUSH1 0x98 SHL PUSH1 0x60 DUP3 ADD MSTORE PUSH1 0x20 DUP2 ADD DUP10 SWAP1 MSTORE SWAP1 MLOAD PUSH1 0x0 DUP1 MLOAD PUSH1 0x20 PUSH2 0x2EEB DUP4 CODECOPY DUP2 MLOAD SWAP2 MSTORE SWAP2 DUP2 SWAP1 SUB PUSH1 0x80 ADD SWAP1 LOG1 JUMPDEST PUSH1 0x40 MLOAD PUSH4 0x70A08231 PUSH1 0xE0 SHL DUP2 MSTORE ADDRESS PUSH1 0x4 DUP3 ADD MSTORE PUSH1 0x0 DUP1 MLOAD PUSH1 0x20 PUSH2 0x2F0B DUP4 CODECOPY DUP2 MLOAD SWAP2 MSTORE SWAP1 DUP12 SWAP1 PUSH1 0x1 PUSH1 0x1 PUSH1 0xA0 SHL SUB DUP3 AND SWAP1 PUSH4 0x70A08231 SWAP1 PUSH1 0x24 ADD PUSH1 0x20 PUSH1 0x40 MLOAD DUP1 DUP4 SUB DUP2 DUP7 GAS STATICCALL ISZERO DUP1 ISZERO PUSH2 0xD92 JUMPI RETURNDATASIZE PUSH1 0x0 DUP1 RETURNDATACOPY RETURNDATASIZE PUSH1 0x0 REVERT JUMPDEST POP POP POP POP PUSH1 0x40 MLOAD RETURNDATASIZE PUSH1 0x1F NOT PUSH1 0x1F DUP3 ADD AND DUP3 ADD DUP1 PUSH1 0x40 MSTORE POP DUP2 ADD SWAP1 PUSH2 0xDB6 SWAP2 SWAP1 PUSH2 0x2934 JUMP JUMPDEST PUSH1 0x40 DUP1 MLOAD PUSH1 0x60 DUP1 DUP3 MSTORE PUSH1 0x14 SWAP1 DUP3 ADD MSTORE PUSH20 0x46696E616C20746F6B656E302062616C616E6365 PUSH1 0x60 SHL PUSH1 0x80 DUP3 ADD MSTORE PUSH1 0x1 PUSH1 0x1 PUSH1 0xA0 SHL SUB SWAP1 SWAP4 AND PUSH1 0x20 DUP5 ADD MSTORE DUP3 ADD MSTORE PUSH1 0xA0 ADD PUSH1 0x40 MLOAD DUP1 SWAP2 SUB SWAP1 LOG1 PUSH1 0x40 MLOAD PUSH4 0x70A08231 PUSH1 0xE0 SHL DUP2 MSTORE ADDRESS PUSH1 0x4 DUP3 ADD MSTORE PUSH1 0x0 DUP1 MLOAD PUSH1 0x20 PUSH2 0x2F0B DUP4 CODECOPY DUP2 MLOAD SWAP2 MSTORE SWAP1 DUP11 SWAP1 PUSH1 0x1 PUSH1 0x1 PUSH1 0xA0 SHL SUB DUP3 AND SWAP1 PUSH4 0x70A08231 SWAP1 PUSH1 0x24 ADD PUSH1 0x20 PUSH1 0x40 MLOAD DUP1 DUP4 SUB DUP2 DUP7 GAS STATICCALL ISZERO DUP1 ISZERO PUSH2 0xE56 JUMPI RETURNDATASIZE PUSH1 0x0 DUP1 RETURNDATACOPY RETURNDATASIZE PUSH1 0x0 REVERT JUMPDEST POP POP POP POP PUSH1 0x40 MLOAD RETURNDATASIZE PUSH1 0x1F NOT PUSH1 0x1F DUP3 ADD AND DUP3 ADD DUP1 PUSH1 0x40 MSTORE POP DUP2 ADD SWAP1 PUSH2 0xE7A SWAP2 SWAP1 PUSH2 0x2934 JUMP JUMPDEST PUSH1 0x40 DUP1 MLOAD PUSH1 0x60 DUP1 DUP3 MSTORE PUSH1 0x14 SWAP1 DUP3 ADD MSTORE PUSH20 0x46696E616C20746F6B656E312062616C616E6365 PUSH1 0x60 SHL PUSH1 0x80 DUP3 ADD MSTORE PUSH1 0x1 PUSH1 0x1 PUSH1 0xA0 SHL SUB SWAP1 SWAP4 AND PUSH1 0x20 DUP5 ADD MSTORE DUP3 ADD MSTORE PUSH1 0xA0 ADD PUSH1 0x40 MLOAD DUP1 SWAP2 SUB SWAP1 LOG1 POP PUSH4 0x28E234F1 PUSH1 0xE1 SHL SWAP10 SWAP9 POP POP POP POP POP POP POP POP POP JUMP JUMPDEST PUSH2 0xEE2 PUSH2 0x1F59 JUMP JUMPDEST PUSH2 0xEEA PUSH2 0x1F86 JUMP JUMPDEST PUSH1 0x1 PUSH1 0x1 PUSH1 0xA0 SHL SUB DUP2 AND PUSH2 0xF34 JUMPI PUSH1 0x40 MLOAD PUSH3 0x461BCD PUSH1 0xE5 SHL DUP2 MSTORE PUSH1 0x20 PUSH1 0x4 DUP3 ADD MSTORE PUSH1 0x11 PUSH1 0x24 DUP3 ADD MSTORE PUSH17 0x125B9D985B1A59081C9958DA5C1A595B9D PUSH1 0x7A SHL PUSH1 0x44 DUP3 ADD MSTORE PUSH1 0x64 ADD PUSH2 0x222 JUMP JUMPDEST PUSH1 0x40 MLOAD PUSH4 0xA9059CBB PUSH1 0xE0 SHL DUP2 MSTORE PUSH1 0x1 PUSH1 0x1 PUSH1 0xA0 SHL SUB DUP3 DUP2 AND PUSH1 0x4 DUP4 ADD MSTORE PUSH1 0x24 DUP3 ADD DUP5 SWAP1 MSTORE DUP5 AND SWAP1 PUSH4 0xA9059CBB SWAP1 PUSH1 0x44 ADD PUSH1 0x20 PUSH1 0x40 MLOAD DUP1 DUP4 SUB DUP2 PUSH1 0x0 DUP8 GAS CALL ISZERO DUP1 ISZERO PUSH2 0xF83 JUMPI RETURNDATASIZE PUSH1 0x0 DUP1 RETURNDATACOPY RETURNDATASIZE PUSH1 0x0 REVERT JUMPDEST POP POP POP POP PUSH1 0x40 MLOAD RETURNDATASIZE PUSH1 0x1F NOT PUSH1 0x1F DUP3 ADD AND DUP3 ADD DUP1 PUSH1 0x40 MSTORE POP DUP2 ADD SWAP1 PUSH2 0xFA7 SWAP2 SWAP1 PUSH2 0x2ADF JUMP JUMPDEST PUSH2 0xFE5 JUMPI PUSH1 0x40 MLOAD PUSH3 0x461BCD PUSH1 0xE5 SHL DUP2 MSTORE PUSH1 0x20 PUSH1 0x4 DUP3 ADD MSTORE PUSH1 0xF PUSH1 0x24 DUP3 ADD MSTORE PUSH15 0x151C985B9CD9995C8819985A5B1959 PUSH1 0x8A SHL PUSH1 0x44 DUP3 ADD MSTORE PUSH1 0x64 ADD PUSH2 0x222 JUMP JUMPDEST PUSH2 0xFEE PUSH1 0x1 DUP1 SSTORE JUMP JUMPDEST POP POP POP JUMP JUMPDEST PUSH2 0xFFB PUSH2 0x1F59 JUMP JUMPDEST PUSH2 0x1005 PUSH1 0x0 PUSH2 0x1FB0 JUMP JUMPDEST JUMP JUMPDEST PUSH2 0x100F PUSH2 0x1F59 JUMP JUMPDEST PUSH2 0x1017 PUSH2 0x1F86 JUMP JUMPDEST PUSH1 0x1 PUSH1 0x1 PUSH1 0xA0 SHL SUB DUP7 AND ISZERO DUP1 ISZERO SWAP1 PUSH2 0x1037 JUMPI POP PUSH1 0x1 PUSH1 0x1 PUSH1 0xA0 SHL SUB DUP6 AND ISZERO ISZERO JUMPDEST PUSH2 0x1074 JUMPI PUSH1 0x40 MLOAD PUSH3 0x461BCD PUSH1 0xE5 SHL DUP2 MSTORE PUSH1 0x20 PUSH1 0x4 DUP3 ADD MSTORE PUSH1 0xE PUSH1 0x24 DUP3 ADD MSTORE PUSH14 0x496E76616C696420746F6B656E73 PUSH1 0x90 SHL PUSH1 0x44 DUP3 ADD MSTORE PUSH1 0x64 ADD PUSH2 0x222 JUMP JUMPDEST PUSH1 0x0 DUP5 GT DUP1 PUSH2 0x1083 JUMPI POP PUSH1 0x0 DUP4 GT JUMPDEST PUSH2 0x10C1 JUMPI PUSH1 0x40 MLOAD PUSH3 0x461BCD PUSH1 0xE5 SHL DUP2 MSTORE PUSH1 0x20 PUSH1 0x4 DUP3 ADD MSTORE PUSH1 0xF PUSH1 0x24 DUP3 ADD MSTORE PUSH15 0x496E76616C696420616D6F756E7473 PUSH1 0x88 SHL PUSH1 0x44 DUP3 ADD MSTORE PUSH1 0x64 ADD PUSH2 0x222 JUMP JUMPDEST PUSH1 0x0 PUSH2 0x10CF DUP8 DUP8 DUP8 DUP8 PUSH2 0x2000 JUMP JUMPDEST SWAP1 POP PUSH1 0x0 PUSH1 0x40 MLOAD DUP1 PUSH1 0xA0 ADD PUSH1 0x40 MSTORE DUP1 DUP10 PUSH1 0x1 PUSH1 0x1 PUSH1 0xA0 SHL SUB AND DUP2 MSTORE PUSH1 0x20 ADD DUP9 PUSH1 0x1 PUSH1 0x1 PUSH1 0xA0 SHL SUB AND DUP2 MSTORE PUSH1 0x20 ADD DUP8 DUP2 MSTORE PUSH1 0x20 ADD DUP7 DUP2 MSTORE PUSH1 0x20 ADD DUP4 ISZERO ISZERO DUP2 MSTORE POP SWAP1 POP DUP7 PUSH1 0x1 PUSH1 0x1 PUSH1 0xA0 SHL SUB AND DUP9 PUSH1 0x1 PUSH1 0x1 PUSH1 0xA0 SHL SUB AND PUSH32 0xF2E147821BEB8FB704FB5792949FEFF8C547CFC1CDBABC9A0D11479C8D339489 DUP9 DUP9 PUSH1 0x40 MLOAD PUSH2 0x115E SWAP3 SWAP2 SWAP1 SWAP2 DUP3 MSTORE PUSH1 0x20 DUP3 ADD MSTORE PUSH1 0x40 ADD SWAP1 JUMP JUMPDEST PUSH1 0x40 MLOAD DUP1 SWAP2 SUB SWAP1 LOG3 PUSH32 0x0 PUSH1 0x1 PUSH1 0x1 PUSH1 0xA0 SHL SUB AND PUSH4 0x77991025 ADDRESS DUP11 DUP11 DUP11 DUP11 DUP8 DUP12 DUP12 PUSH1 0x40 MLOAD PUSH1 0x20 ADD PUSH2 0x11AF SWAP4 SWAP3 SWAP2 SWAP1 PUSH2 0x2AFC JUMP JUMPDEST PUSH1 0x40 MLOAD PUSH1 0x20 DUP2 DUP4 SUB SUB DUP2 MSTORE SWAP1 PUSH1 0x40 MSTORE PUSH1 0x40 MLOAD DUP8 PUSH4 0xFFFFFFFF AND PUSH1 0xE0 SHL DUP2 MSTORE PUSH1 0x4 ADD PUSH2 0x11DF SWAP7 SWAP6 SWAP5 SWAP4 SWAP3 SWAP2 SWAP1 PUSH2 0x2B6D JUMP JUMPDEST PUSH1 0x0 PUSH1 0x40 MLOAD DUP1 DUP4 SUB DUP2 PUSH1 0x0 DUP8 DUP1 EXTCODESIZE ISZERO DUP1 ISZERO PUSH2 0x11F9 JUMPI PUSH1 0x0 DUP1 REVERT JUMPDEST POP GAS CALL ISZERO DUP1 ISZERO PUSH2 0x120D JUMPI RETURNDATASIZE PUSH1 0x0 DUP1 RETURNDATACOPY RETURNDATASIZE PUSH1 0x0 REVERT JUMPDEST POP POP POP POP POP POP PUSH2 0x121C PUSH1 0x1 DUP1 SSTORE JUMP JUMPDEST POP POP POP POP POP POP JUMP JUMPDEST PUSH2 0x122C PUSH2 0x1F59 JUMP JUMPDEST PUSH1 0x2 SSTORE JUMP JUMPDEST PUSH2 0x1239 PUSH2 0x1F59 JUMP JUMPDEST PUSH1 0x1 PUSH1 0x1 PUSH1 0xA0 SHL SUB DUP2 AND PUSH2 0x1263 JUMPI PUSH1 0x40 MLOAD PUSH4 0x1E4FBDF7 PUSH1 0xE0 SHL DUP2 MSTORE PUSH1 0x0 PUSH1 0x4 DUP3 ADD MSTORE PUSH1 0x24 ADD PUSH2 0x222 JUMP JUMPDEST PUSH2 0x126C DUP2 PUSH2 0x1FB0 JUMP JUMPDEST POP JUMP JUMPDEST PUSH1 0x40 MLOAD PUSH4 0x95EA7B3 PUSH1 0xE0 SHL DUP2 MSTORE PUSH1 0x1 PUSH1 0x1 PUSH1 0xA0 SHL SUB DUP4 DUP2 AND PUSH1 0x4 DUP4 ADD MSTORE PUSH1 0x0 PUSH1 0x24 DUP4 ADD MSTORE DUP5 AND SWAP1 PUSH4 0x95EA7B3 SWAP1 PUSH1 0x44 ADD PUSH1 0x20 PUSH1 0x40 MLOAD DUP1 DUP4 SUB DUP2 PUSH1 0x0 DUP8 GAS CALL ISZERO DUP1 ISZERO PUSH2 0x12BE JUMPI RETURNDATASIZE PUSH1 0x0 DUP1 RETURNDATACOPY RETURNDATASIZE PUSH1 0x0 REVERT JUMPDEST POP POP POP POP PUSH1 0x40 MLOAD RETURNDATASIZE PUSH1 0x1F NOT PUSH1 0x1F DUP3 ADD AND DUP3 ADD DUP1 PUSH1 0x40 MSTORE POP DUP2 ADD SWAP1 PUSH2 0x12E2 SWAP2 SWAP1 PUSH2 0x2ADF JUMP JUMPDEST PUSH2 0x132E JUMPI PUSH1 0x40 MLOAD PUSH3 0x461BCD PUSH1 0xE5 SHL DUP2 MSTORE PUSH1 0x20 PUSH1 0x4 DUP3 ADD MSTORE PUSH1 0x18 PUSH1 0x24 DUP3 ADD MSTORE PUSH32 0x4661696C656420746F20636C65617220617070726F76616C0000000000000000 PUSH1 0x44 DUP3 ADD MSTORE PUSH1 0x64 ADD PUSH2 0x222 JUMP JUMPDEST PUSH1 0x40 MLOAD PUSH4 0x95EA7B3 PUSH1 0xE0 SHL DUP2 MSTORE PUSH1 0x1 PUSH1 0x1 PUSH1 0xA0 SHL SUB DUP4 DUP2 AND PUSH1 0x4 DUP4 ADD MSTORE PUSH1 0x24 DUP3 ADD DUP4 SWAP1 MSTORE DUP5 AND SWAP1 PUSH4 0x95EA7B3 SWAP1 PUSH1 0x44 ADD PUSH1 0x20 PUSH1 0x40 MLOAD DUP1 DUP4 SUB DUP2 PUSH1 0x0 DUP8 GAS CALL ISZERO DUP1 ISZERO PUSH2 0x137D JUMPI RETURNDATASIZE PUSH1 0x0 DUP1 RETURNDATACOPY RETURNDATASIZE PUSH1 0x0 REVERT JUMPDEST POP POP POP POP PUSH1 0x40 MLOAD RETURNDATASIZE PUSH1 0x1F NOT PUSH1 0x1F DUP3 ADD AND DUP3 ADD DUP1 PUSH1 0x40 MSTORE POP DUP2 ADD SWAP1 PUSH2 0x13A1 SWAP2 SWAP1 PUSH2 0x2ADF JUMP JUMPDEST PUSH2 0xFEE JUMPI PUSH1 0x40 MLOAD PUSH3 0x461BCD PUSH1 0xE5 SHL DUP2 MSTORE PUSH1 0x20 PUSH1 0x4 DUP3 ADD MSTORE PUSH1 0x11 PUSH1 0x24 DUP3 ADD MSTORE PUSH17 0x4661696C656420746F20617070726F7665 PUSH1 0x78 SHL PUSH1 0x44 DUP3 ADD MSTORE PUSH1 0x64 ADD PUSH2 0x222 JUMP JUMPDEST PUSH1 0x40 MLOAD PUSH4 0x70A08231 PUSH1 0xE0 SHL DUP2 MSTORE ADDRESS PUSH1 0x4 DUP3 ADD MSTORE PUSH1 0x0 SWAP1 PUSH1 0x0 DUP1 MLOAD PUSH1 0x20 PUSH2 0x2F0B DUP4 CODECOPY DUP2 MLOAD SWAP2 MSTORE SWAP1 DUP8 SWAP1 PUSH1 0x1 PUSH1 0x1 PUSH1 0xA0 SHL SUB DUP3 AND SWAP1 PUSH4 0x70A08231 SWAP1 PUSH1 0x24 ADD PUSH1 0x20 PUSH1 0x40 MLOAD DUP1 DUP4 SUB DUP2 DUP7 GAS STATICCALL ISZERO DUP1 ISZERO PUSH2 0x143A JUMPI RETURNDATASIZE PUSH1 0x0 DUP1 RETURNDATACOPY RETURNDATASIZE PUSH1 0x0 REVERT JUMPDEST POP POP POP POP PUSH1 0x40 MLOAD RETURNDATASIZE PUSH1 0x1F NOT PUSH1 0x1F DUP3 ADD AND DUP3 ADD DUP1 PUSH1 0x40 MSTORE POP DUP2 ADD SWAP1 PUSH2 0x145E SWAP2 SWAP1 PUSH2 0x2934 JUMP JUMPDEST PUSH1 0x40 DUP1 MLOAD PUSH1 0x60 DUP1 DUP3 MSTORE PUSH1 0x1A SWAP1 DUP3 ADD MSTORE PUSH32 0x5072652D556E697377617020746F6B656E302062616C616E6365000000000000 PUSH1 0x80 DUP3 ADD MSTORE PUSH1 0x1 PUSH1 0x1 PUSH1 0xA0 SHL SUB SWAP1 SWAP4 AND PUSH1 0x20 DUP5 ADD MSTORE DUP3 ADD MSTORE PUSH1 0xA0 ADD PUSH1 0x40 MLOAD DUP1 SWAP2 SUB SWAP1 LOG1 PUSH1 0x40 MLOAD PUSH4 0x70A08231 PUSH1 0xE0 SHL DUP2 MSTORE ADDRESS PUSH1 0x4 DUP3 ADD MSTORE PUSH1 0x0 DUP1 MLOAD PUSH1 0x20 PUSH2 0x2F0B DUP4 CODECOPY DUP2 MLOAD SWAP2 MSTORE SWAP1 DUP7 SWAP1 PUSH1 0x1 PUSH1 0x1 PUSH1 0xA0 SHL SUB DUP3 AND SWAP1 PUSH4 0x70A08231 SWAP1 PUSH1 0x24 ADD PUSH1 0x20 PUSH1 0x40 MLOAD DUP1 DUP4 SUB DUP2 DUP7 GAS STATICCALL ISZERO DUP1 ISZERO PUSH2 0x1507 JUMPI RETURNDATASIZE PUSH1 0x0 DUP1 RETURNDATACOPY RETURNDATASIZE PUSH1 0x0 REVERT JUMPDEST POP POP POP POP PUSH1 0x40 MLOAD RETURNDATASIZE PUSH1 0x1F NOT PUSH1 0x1F DUP3 ADD AND DUP3 ADD DUP1 PUSH1 0x40 MSTORE POP DUP2 ADD SWAP1 PUSH2 0x152B SWAP2 SWAP1 PUSH2 0x2934 JUMP JUMPDEST PUSH1 0x40 DUP1 MLOAD PUSH1 0x60 DUP1 DUP3 MSTORE PUSH1 0x1A SWAP1 DUP3 ADD MSTORE PUSH32 0x5072652D556E697377617020746F6B656E312062616C616E6365000000000000 PUSH1 0x80 DUP3 ADD MSTORE PUSH1 0x1 PUSH1 0x1 PUSH1 0xA0 SHL SUB SWAP1 SWAP4 AND PUSH1 0x20 DUP5 ADD MSTORE DUP3 ADD MSTORE PUSH1 0xA0 ADD PUSH1 0x40 MLOAD DUP1 SWAP2 SUB SWAP1 LOG1 PUSH1 0x0 PUSH2 0x158B DUP8 DUP8 DUP6 PUSH2 0x221F JUMP JUMPDEST PUSH1 0x40 DUP1 MLOAD PUSH1 0x60 DUP2 ADD DUP3 MSTORE PUSH1 0x1 DUP2 MSTORE PUSH1 0x20 DUP2 ADD DUP9 SWAP1 MSTORE PUSH1 0x0 DUP2 DUP4 ADD MSTORE SWAP1 MLOAD SWAP2 SWAP3 POP SWAP1 PUSH1 0x0 DUP1 MLOAD PUSH1 0x20 PUSH2 0x2EEB DUP4 CODECOPY DUP2 MLOAD SWAP2 MSTORE SWAP1 PUSH2 0x160C SWAP1 DUP9 SWAP1 PUSH1 0x40 DUP1 DUP3 MSTORE PUSH1 0x22 SWAP1 DUP3 ADD MSTORE PUSH32 0x457865637574696E6720556E69737761702073776170207769746820616D6F75 PUSH1 0x60 DUP3 ADD MSTORE PUSH2 0x1B9D PUSH1 0xF2 SHL PUSH1 0x80 DUP3 ADD MSTORE PUSH1 0x20 DUP2 ADD SWAP2 SWAP1 SWAP2 MSTORE PUSH1 0xA0 ADD SWAP1 JUMP JUMPDEST PUSH1 0x40 MLOAD DUP1 SWAP2 SUB SWAP1 LOG1 PUSH1 0x40 MLOAD PUSH4 0xF140BEF PUSH1 0xE1 SHL DUP2 MSTORE PUSH1 0x0 SWAP1 PUSH1 0x1 PUSH1 0x1 PUSH1 0xA0 SHL SUB PUSH32 0x0 AND SWAP1 PUSH4 0x1E2817DE SWAP1 PUSH2 0x1665 SWAP1 DUP7 SWAP1 DUP7 SWAP1 PUSH1 0x4 ADD PUSH2 0x2C32 JUMP JUMPDEST PUSH1 0x40 DUP1 MLOAD DUP1 DUP4 SUB DUP2 PUSH1 0x0 DUP8 GAS CALL ISZERO DUP1 ISZERO PUSH2 0x1683 JUMPI RETURNDATASIZE PUSH1 0x0 DUP1 RETURNDATACOPY RETURNDATASIZE PUSH1 0x0 REVERT JUMPDEST POP POP POP POP PUSH1 0x40 MLOAD RETURNDATASIZE PUSH1 0x1F NOT PUSH1 0x1F DUP3 ADD AND DUP3 ADD DUP1 PUSH1 0x40 MSTORE POP DUP2 ADD SWAP1 PUSH2 0x16A7 SWAP2 SWAP1 PUSH2 0x2C6E JUMP JUMPDEST SWAP1 POP PUSH1 0x0 DUP1 MLOAD PUSH1 0x20 PUSH2 0x2EEB DUP4 CODECOPY DUP2 MLOAD SWAP2 MSTORE DUP2 PUSH1 0x0 ADD MLOAD PUSH2 0x16C6 SWAP1 PUSH2 0x2CD5 JUMP JUMPDEST PUSH1 0x40 MLOAD PUSH2 0x1703 SWAP2 SWAP1 PUSH1 0x40 DUP1 DUP3 MSTORE PUSH1 0x13 SWAP1 DUP3 ADD MSTORE PUSH19 0x556E697377617020737761702064656C74613 PUSH1 0x6C SHL PUSH1 0x60 DUP3 ADD MSTORE PUSH1 0x20 DUP2 ADD SWAP2 SWAP1 SWAP2 MSTORE PUSH1 0x80 ADD SWAP1 JUMP JUMPDEST PUSH1 0x40 MLOAD DUP1 SWAP2 SUB SWAP1 LOG1 PUSH1 0x0 DUP1 MLOAD PUSH1 0x20 PUSH2 0x2EEB DUP4 CODECOPY DUP2 MLOAD SWAP2 MSTORE DUP2 PUSH1 0x20 ADD MLOAD PUSH2 0x1728 SWAP1 PUSH2 0x2CD5 JUMP JUMPDEST PUSH1 0x40 MLOAD PUSH2 0x1765 SWAP2 SWAP1 PUSH1 0x40 DUP1 DUP3 MSTORE PUSH1 0x13 SWAP1 DUP3 ADD MSTORE PUSH19 0x556E697377617020737761702064656C746131 PUSH1 0x68 SHL PUSH1 0x60 DUP3 ADD MSTORE PUSH1 0x20 DUP2 ADD SWAP2 SWAP1 SWAP2 MSTORE PUSH1 0x80 ADD SWAP1 JUMP JUMPDEST PUSH1 0x40 MLOAD DUP1 SWAP2 SUB SWAP1 LOG1 PUSH1 0x40 MLOAD PUSH4 0x70A08231 PUSH1 0xE0 SHL DUP2 MSTORE ADDRESS PUSH1 0x4 DUP3 ADD MSTORE PUSH1 0x0 DUP1 MLOAD PUSH1 0x20 PUSH2 0x2F0B DUP4 CODECOPY DUP2 MLOAD SWAP2 MSTORE SWAP1 DUP11 SWAP1 PUSH1 0x1 PUSH1 0x1 PUSH1 0xA0 SHL SUB DUP3 AND SWAP1 PUSH4 0x70A08231 SWAP1 PUSH1 0x24 ADD PUSH1 0x20 PUSH1 0x40 MLOAD DUP1 DUP4 SUB DUP2 DUP7 GAS STATICCALL ISZERO DUP1 ISZERO PUSH2 0x17C3 JUMPI RETURNDATASIZE PUSH1 0x0 DUP1 RETURNDATACOPY RETURNDATASIZE PUSH1 0x0 REVERT JUMPDEST POP POP POP POP PUSH1 0x40 MLOAD RETURNDATASIZE PUSH1 0x1F NOT PUSH1 0x1F DUP3 ADD AND DUP3 ADD DUP1 PUSH1 0x40 MSTORE POP DUP2 ADD SWAP1 PUSH2 0x17E7 SWAP2 SWAP1 PUSH2 0x2934 JUMP JUMPDEST PUSH1 0x40 DUP1 MLOAD PUSH1 0x60 DUP1 DUP3 MSTORE PUSH1 0x1B SWAP1 DUP3 ADD MSTORE PUSH32 0x506F73742D556E697377617020746F6B656E302062616C616E63650000000000 PUSH1 0x80 DUP3 ADD MSTORE PUSH1 0x1 PUSH1 0x1 PUSH1 0xA0 SHL SUB SWAP1 SWAP4 AND PUSH1 0x20 DUP5 ADD MSTORE DUP3 ADD MSTORE PUSH1 0xA0 ADD PUSH1 0x40 MLOAD DUP1 SWAP2 SUB SWAP1 LOG1 PUSH1 0x40 MLOAD PUSH4 0x70A08231 PUSH1 0xE0 SHL DUP2 MSTORE ADDRESS PUSH1 0x4 DUP3 ADD MSTORE PUSH1 0x0 DUP1 MLOAD PUSH1 0x20 PUSH2 0x2F0B DUP4 CODECOPY DUP2 MLOAD SWAP2 MSTORE SWAP1 DUP10 SWAP1 PUSH1 0x1 PUSH1 0x1 PUSH1 0xA0 SHL SUB DUP3 AND SWAP1 PUSH4 0x70A08231 SWAP1 PUSH1 0x24 ADD PUSH1 0x20 PUSH1 0x40 MLOAD DUP1 DUP4 SUB DUP2 DUP7 GAS STATICCALL ISZERO DUP1 ISZERO PUSH2 0x1890 JUMPI RETURNDATASIZE PUSH1 0x0 DUP1 RETURNDATACOPY RETURNDATASIZE PUSH1 0x0 REVERT JUMPDEST POP POP POP POP PUSH1 0x40 MLOAD RETURNDATASIZE PUSH1 0x1F NOT PUSH1 0x1F DUP3 ADD AND DUP3 ADD DUP1 PUSH1 0x40 MSTORE POP DUP2 ADD SWAP1 PUSH2 0x18B4 SWAP2 SWAP1 PUSH2 0x2934 JUMP JUMPDEST PUSH1 0x40 DUP1 MLOAD PUSH1 0x60 DUP1 DUP3 MSTORE PUSH1 0x1B SWAP1 DUP3 ADD MSTORE PUSH32 0x506F73742D556E697377617020746F6B656E312062616C616E63650000000000 PUSH1 0x80 DUP3 ADD MSTORE PUSH1 0x1 PUSH1 0x1 PUSH1 0xA0 SHL SUB SWAP1 SWAP4 AND PUSH1 0x20 DUP5 ADD MSTORE DUP3 ADD MSTORE PUSH1 0xA0 ADD PUSH1 0x40 MLOAD DUP1 SWAP2 SUB SWAP1 LOG1 PUSH1 0x0 PUSH2 0x1923 DUP10 DUP12 DUP5 PUSH1 0x20 ADD MLOAD PUSH2 0x191C SWAP1 PUSH2 0x2CD5 JUMP JUMPDEST PUSH1 0x0 PUSH2 0x2287 JUMP JUMPDEST SWAP1 POP PUSH1 0x0 DUP1 MLOAD PUSH1 0x20 PUSH2 0x2EEB DUP4 CODECOPY DUP2 MLOAD SWAP2 MSTORE DUP2 PUSH1 0x40 MLOAD PUSH2 0x1974 SWAP2 SWAP1 PUSH1 0x40 DUP1 DUP3 MSTORE PUSH1 0x15 SWAP1 DUP3 ADD MSTORE PUSH21 0x14DD5CDA1A5CDDD85C081CDDD85C081C995CDD5B1D PUSH1 0x5A SHL PUSH1 0x60 DUP3 ADD MSTORE PUSH1 0x20 DUP2 ADD SWAP2 SWAP1 SWAP2 MSTORE PUSH1 0x80 ADD SWAP1 JUMP JUMPDEST PUSH1 0x40 MLOAD DUP1 SWAP2 SUB SWAP1 LOG1 DUP8 DUP2 GT PUSH2 0x198A JUMPI PUSH1 0x0 PUSH2 0x1994 JUMP JUMPDEST PUSH2 0x1994 DUP9 DUP3 PUSH2 0x2CF1 JUMP JUMPDEST SWAP11 SWAP10 POP POP POP POP POP POP POP POP POP POP JUMP JUMPDEST PUSH1 0x40 MLOAD PUSH4 0x70A08231 PUSH1 0xE0 SHL DUP2 MSTORE ADDRESS PUSH1 0x4 DUP3 ADD MSTORE PUSH1 0x0 SWAP1 PUSH1 0x0 DUP1 MLOAD PUSH1 0x20 PUSH2 0x2F0B DUP4 CODECOPY DUP2 MLOAD SWAP2 MSTORE SWAP1 DUP8 SWAP1 PUSH1 0x1 PUSH1 0x1 PUSH1 0xA0 SHL SUB DUP3 AND SWAP1 PUSH4 0x70A08231 SWAP1 PUSH1 0x24 ADD PUSH1 0x20 PUSH1 0x40 MLOAD DUP1 DUP4 SUB DUP2 DUP7 GAS STATICCALL ISZERO DUP1 ISZERO PUSH2 0x19FB JUMPI RETURNDATASIZE PUSH1 0x0 DUP1 RETURNDATACOPY RETURNDATASIZE PUSH1 0x0 REVERT JUMPDEST POP POP POP POP PUSH1 0x40 MLOAD RETURNDATASIZE PUSH1 0x1F NOT PUSH1 0x1F DUP3 ADD AND DUP3 ADD DUP1 PUSH1 0x40 MSTORE POP DUP2 ADD SWAP1 PUSH2 0x1A1F SWAP2 SWAP1 PUSH2 0x2934 JUMP JUMPDEST PUSH1 0x40 DUP1 MLOAD PUSH1 0x60 DUP1 DUP3 MSTORE PUSH1 0x1C SWAP1 DUP3 ADD MSTORE PUSH32 0x5072652D53757368697377617020746F6B656E302062616C616E636500000000 PUSH1 0x80 DUP3 ADD MSTORE PUSH1 0x1 PUSH1 0x1 PUSH1 0xA0 SHL SUB SWAP1 SWAP4 AND PUSH1 0x20 DUP5 ADD MSTORE DUP3 ADD MSTORE PUSH1 0xA0 ADD PUSH1 0x40 MLOAD DUP1 SWAP2 SUB SWAP1 LOG1 PUSH1 0x40 MLOAD PUSH4 0x70A08231 PUSH1 0xE0 SHL DUP2 MSTORE ADDRESS PUSH1 0x4 DUP3 ADD MSTORE PUSH1 0x0 DUP1 MLOAD PUSH1 0x20 PUSH2 0x2F0B DUP4 CODECOPY DUP2 MLOAD SWAP2 MSTORE SWAP1 DUP7 SWAP1 PUSH1 0x1 PUSH1 0x1 PUSH1 0xA0 SHL SUB DUP3 AND SWAP1 PUSH4 0x70A08231 SWAP1 PUSH1 0x24 ADD PUSH1 0x20 PUSH1 0x40 MLOAD DUP1 DUP4 SUB DUP2 DUP7 GAS STATICCALL ISZERO DUP1 ISZERO PUSH2 0x1AC8 JUMPI RETURNDATASIZE PUSH1 0x0 DUP1 RETURNDATACOPY RETURNDATASIZE PUSH1 0x0 REVERT JUMPDEST POP POP POP POP PUSH1 0x40 MLOAD RETURNDATASIZE PUSH1 0x1F NOT PUSH1 0x1F DUP3 ADD AND DUP3 ADD DUP1 PUSH1 0x40 MSTORE POP DUP2 ADD SWAP1 PUSH2 0x1AEC SWAP2 SWAP1 PUSH2 0x2934 JUMP JUMPDEST PUSH1 0x40 DUP1 MLOAD PUSH1 0x60 DUP1 DUP3 MSTORE PUSH1 0x1C SWAP1 DUP3 ADD MSTORE PUSH32 0x5072652D53757368697377617020746F6B656E312062616C616E636500000000 PUSH1 0x80 DUP3 ADD MSTORE PUSH1 0x1 PUSH1 0x1 PUSH1 0xA0 SHL SUB SWAP1 SWAP4 AND PUSH1 0x20 DUP5 ADD MSTORE DUP3 ADD MSTORE PUSH1 0xA0 ADD PUSH1 0x40 MLOAD DUP1 SWAP2 SUB SWAP1 LOG1 PUSH1 0x40 DUP1 MLOAD DUP2 DUP2 MSTORE PUSH1 0x24 DUP2 DUP4 ADD MSTORE PUSH32 0x457865637574696E67205375736869737761702073776170207769746820616D PUSH1 0x60 DUP3 ADD MSTORE PUSH4 0x1BDD5B9D PUSH1 0xE2 SHL PUSH1 0x80 DUP3 ADD MSTORE PUSH1 0x20 DUP2 ADD DUP7 SWAP1 MSTORE SWAP1 MLOAD PUSH1 0x0 DUP1 MLOAD PUSH1 0x20 PUSH2 0x2EEB DUP4 CODECOPY DUP2 MLOAD SWAP2 MSTORE SWAP2 DUP2 SWAP1 SUB PUSH1 0xA0 ADD SWAP1 LOG1 PUSH1 0x0 PUSH2 0x1BAF DUP8 DUP8 DUP8 PUSH1 0x0 PUSH2 0x2287 JUMP JUMPDEST SWAP1 POP PUSH1 0x0 DUP1 MLOAD PUSH1 0x20 PUSH2 0x2EEB DUP4 CODECOPY DUP2 MLOAD SWAP2 MSTORE DUP2 PUSH1 0x40 MLOAD PUSH2 0x1C00 SWAP2 SWAP1 PUSH1 0x40 DUP1 DUP3 MSTORE PUSH1 0x15 SWAP1 DUP3 ADD MSTORE PUSH21 0x14DD5CDA1A5CDDD85C081CDDD85C081C995CDD5B1D PUSH1 0x5A SHL PUSH1 0x60 DUP3 ADD MSTORE PUSH1 0x20 DUP2 ADD SWAP2 SWAP1 SWAP2 MSTORE PUSH1 0x80 ADD SWAP1 JUMP JUMPDEST PUSH1 0x40 MLOAD DUP1 SWAP2 SUB SWAP1 LOG1 PUSH1 0x40 MLOAD PUSH4 0x70A08231 PUSH1 0xE0 SHL DUP2 MSTORE ADDRESS PUSH1 0x4 DUP3 ADD MSTORE PUSH1 0x0 DUP1 MLOAD PUSH1 0x20 PUSH2 0x2F0B DUP4 CODECOPY DUP2 MLOAD SWAP2 MSTORE SWAP1 DUP9 SWAP1 PUSH1 0x1 PUSH1 0x1 PUSH1 0xA0 SHL SUB DUP3 AND SWAP1 PUSH4 0x70A08231 SWAP1 PUSH1 0x24 ADD PUSH1 0x20 PUSH1 0x40 MLOAD DUP1 DUP4 SUB DUP2 DUP7 GAS STATICCALL ISZERO DUP1 ISZERO PUSH2 0x1C5E JUMPI RETURNDATASIZE PUSH1 0x0 DUP1 RETURNDATACOPY RETURNDATASIZE PUSH1 0x0 REVERT JUMPDEST POP POP POP POP PUSH1 0x40 MLOAD RETURNDATASIZE PUSH1 0x1F NOT PUSH1 0x1F DUP3 ADD AND DUP3 ADD DUP1 PUSH1 0x40 MSTORE POP DUP2 ADD SWAP1 PUSH2 0x1C82 SWAP2 SWAP1 PUSH2 0x2934 JUMP JUMPDEST PUSH1 0x40 DUP1 MLOAD PUSH1 0x60 DUP1 DUP3 MSTORE PUSH1 0x1D SWAP1 DUP3 ADD MSTORE PUSH32 0x506F73742D53757368697377617020746F6B656E302062616C616E6365000000 PUSH1 0x80 DUP3 ADD MSTORE PUSH1 0x1 PUSH1 0x1 PUSH1 0xA0 SHL SUB SWAP1 SWAP4 AND PUSH1 0x20 DUP5 ADD MSTORE DUP3 ADD MSTORE PUSH1 0xA0 ADD PUSH1 0x40 MLOAD DUP1 SWAP2 SUB SWAP1 LOG1 PUSH1 0x40 MLOAD PUSH4 0x70A08231 PUSH1 0xE0 SHL DUP2 MSTORE ADDRESS PUSH1 0x4 DUP3 ADD MSTORE PUSH1 0x0 DUP1 MLOAD PUSH1 0x20 PUSH2 0x2F0B DUP4 CODECOPY DUP2 MLOAD SWAP2 MSTORE SWAP1 DUP8 SWAP1 PUSH1 0x1 PUSH1 0x1 PUSH1 0xA0 SHL SUB DUP3 AND SWAP1 PUSH4 0x70A08231 SWAP1 PUSH1 0x24 ADD PUSH1 0x20 PUSH1 0x40 MLOAD DUP1 DUP4 SUB DUP2 DUP7 GAS STATICCALL ISZERO DUP1 ISZERO PUSH2 0x1D2B JUMPI RETURNDATASIZE PUSH1 0x0 DUP1 RETURNDATACOPY RETURNDATASIZE PUSH1 0x0 REVERT JUMPDEST POP POP POP POP PUSH1 0x40 MLOAD RETURNDATASIZE PUSH1 0x1F NOT PUSH1 0x1F DUP3 ADD AND DUP3 ADD DUP1 PUSH1 0x40 MSTORE POP DUP2 ADD SWAP1 PUSH2 0x1D4F SWAP2 SWAP1 PUSH2 0x2934 JUMP JUMPDEST PUSH1 0x40 DUP1 MLOAD PUSH1 0x60 DUP1 DUP3 MSTORE PUSH1 0x1D SWAP1 DUP3 ADD MSTORE PUSH32 0x506F73742D53757368697377617020746F6B656E312062616C616E6365000000 PUSH1 0x80 DUP3 ADD MSTORE PUSH1 0x1 PUSH1 0x1 PUSH1 0xA0 SHL SUB SWAP1 SWAP4 AND PUSH1 0x20 DUP5 ADD MSTORE DUP3 ADD MSTORE PUSH1 0xA0 ADD PUSH1 0x40 MLOAD DUP1 SWAP2 SUB SWAP1 LOG1 PUSH1 0x0 PUSH2 0x1DAF DUP8 DUP10 DUP7 PUSH2 0x221F JUMP JUMPDEST PUSH1 0x40 DUP1 MLOAD PUSH1 0x60 DUP2 ADD DUP3 MSTORE PUSH1 0x1 DUP2 MSTORE PUSH1 0x20 DUP2 ADD DUP6 SWAP1 MSTORE PUSH1 0x0 DUP2 DUP4 ADD DUP2 SWAP1 MSTORE SWAP2 MLOAD PUSH4 0xF140BEF PUSH1 0xE1 SHL DUP2 MSTORE SWAP3 SWAP4 POP SWAP2 PUSH32 0x0 PUSH1 0x1 PUSH1 0x1 PUSH1 0xA0 SHL SUB AND SWAP1 PUSH4 0x1E2817DE SWAP1 PUSH2 0x1E1D SWAP1 DUP7 SWAP1 DUP7 SWAP1 PUSH1 0x4 ADD PUSH2 0x2C32 JUMP JUMPDEST PUSH1 0x40 DUP1 MLOAD DUP1 DUP4 SUB DUP2 PUSH1 0x0 DUP8 GAS CALL ISZERO DUP1 ISZERO PUSH2 0x1E3B JUMPI RETURNDATASIZE PUSH1 0x0 DUP1 RETURNDATACOPY RETURNDATASIZE PUSH1 0x0 REVERT JUMPDEST POP POP POP POP PUSH1 0x40 MLOAD RETURNDATASIZE PUSH1 0x1F NOT PUSH1 0x1F DUP3 ADD AND DUP3 ADD DUP1 PUSH1 0x40 MSTORE POP DUP2 ADD SWAP1 PUSH2 0x1E5F SWAP2 SWAP1 PUSH2 0x2C6E JUMP JUMPDEST SWAP1 POP PUSH1 0x0 DUP1 MLOAD PUSH1 0x20 PUSH2 0x2EEB DUP4 CODECOPY DUP2 MLOAD SWAP2 MSTORE DUP2 PUSH1 0x0 ADD MLOAD PUSH2 0x1E7E SWAP1 PUSH2 0x2CD5 JUMP JUMPDEST PUSH1 0x40 MLOAD PUSH2 0x1EBB SWAP2 SWAP1 PUSH1 0x40 DUP1 DUP3 MSTORE PUSH1 0x13 SWAP1 DUP3 ADD MSTORE PUSH19 0x556E697377617020737761702064656C74613 PUSH1 0x6C SHL PUSH1 0x60 DUP3 ADD MSTORE PUSH1 0x20 DUP2 ADD SWAP2 SWAP1 SWAP2 MSTORE PUSH1 0x80 ADD SWAP1 JUMP JUMPDEST PUSH1 0x40 MLOAD DUP1 SWAP2 SUB SWAP1 LOG1 PUSH1 0x0 DUP1 MLOAD PUSH1 0x20 PUSH2 0x2EEB DUP4 CODECOPY DUP2 MLOAD SWAP2 MSTORE DUP2 PUSH1 0x20 ADD MLOAD PUSH2 0x1EE0 SWAP1 PUSH2 0x2CD5 JUMP JUMPDEST PUSH1 0x40 MLOAD PUSH2 0x1F1D SWAP2 SWAP1 PUSH1 0x40 DUP1 DUP3 MSTORE PUSH1 0x13 SWAP1 DUP3 ADD MSTORE PUSH19 0x556E697377617020737761702064656C746131 PUSH1 0x68 SHL PUSH1 0x60 DUP3 ADD MSTORE PUSH1 0x20 DUP2 ADD SWAP2 SWAP1 SWAP2 MSTORE PUSH1 0x80 ADD SWAP1 JUMP JUMPDEST PUSH1 0x40 MLOAD DUP1 SWAP2 SUB SWAP1 LOG1 DUP8 DUP2 PUSH1 0x20 ADD MLOAD PUSH2 0x1F34 SWAP1 PUSH2 0x2CD5 JUMP JUMPDEST GT PUSH2 0x1F40 JUMPI PUSH1 0x0 PUSH2 0x1994 JUMP JUMPDEST DUP8 DUP2 PUSH1 0x20 ADD MLOAD PUSH2 0x1F4F SWAP1 PUSH2 0x2CD5 JUMP JUMPDEST PUSH2 0x1994 SWAP2 SWAP1 PUSH2 0x2CF1 JUMP JUMPDEST PUSH1 0x0 SLOAD PUSH1 0x1 PUSH1 0x1 PUSH1 0xA0 SHL SUB AND CALLER EQ PUSH2 0x1005 JUMPI PUSH1 0x40 MLOAD PUSH4 0x118CDAA7 PUSH1 0xE0 SHL DUP2 MSTORE CALLER PUSH1 0x4 DUP3 ADD MSTORE PUSH1 0x24 ADD PUSH2 0x222 JUMP JUMPDEST PUSH1 0x2 PUSH1 0x1 SLOAD SUB PUSH2 0x1FA9 JUMPI PUSH1 0x40 MLOAD PUSH4 0x3EE5AEB5 PUSH1 0xE0 SHL DUP2 MSTORE PUSH1 0x4 ADD PUSH1 0x40 MLOAD DUP1 SWAP2 SUB SWAP1 REVERT JUMPDEST PUSH1 0x2 PUSH1 0x1 SSTORE JUMP JUMPDEST PUSH1 0x0 DUP1 SLOAD PUSH1 0x1 PUSH1 0x1 PUSH1 0xA0 SHL SUB DUP4 DUP2 AND PUSH1 0x1 PUSH1 0x1 PUSH1 0xA0 SHL SUB NOT DUP4 AND DUP2 OR DUP5 SSTORE PUSH1 0x40 MLOAD SWAP2 SWAP1 SWAP3 AND SWAP3 DUP4 SWAP2 PUSH32 0x8BE0079C531659141344CD1FD0A4F28419497F9722A3DAAFE3B4186F6B6457E0 SWAP2 SWAP1 LOG3 POP POP JUMP JUMPDEST PUSH1 0x0 DUP1 PUSH2 0x201D DUP7 DUP7 PUSH1 0x40 MLOAD DUP1 PUSH1 0x20 ADD PUSH1 0x40 MSTORE DUP1 PUSH1 0x0 DUP2 MSTORE POP PUSH2 0x221F JUMP JUMPDEST SWAP1 POP PUSH1 0x0 PUSH32 0x0 PUSH1 0x1 PUSH1 0x1 PUSH1 0xA0 SHL SUB AND PUSH4 0x760F59D0 DUP4 PUSH1 0x40 MLOAD DUP3 PUSH4 0xFFFFFFFF AND PUSH1 0xE0 SHL DUP2 MSTORE PUSH1 0x4 ADD PUSH2 0x206D SWAP2 SWAP1 PUSH2 0x2D0A JUMP JUMPDEST PUSH1 0x20 PUSH1 0x40 MLOAD DUP1 DUP4 SUB DUP2 DUP7 GAS STATICCALL ISZERO DUP1 ISZERO PUSH2 0x208A JUMPI RETURNDATASIZE PUSH1 0x0 DUP1 RETURNDATACOPY RETURNDATASIZE PUSH1 0x0 REVERT JUMPDEST POP POP POP POP PUSH1 0x40 MLOAD RETURNDATASIZE PUSH1 0x1F NOT PUSH1 0x1F DUP3 ADD AND DUP3 ADD DUP1 PUSH1 0x40 MSTORE POP DUP2 ADD SWAP1 PUSH2 0x20AE SWAP2 SWAP1 PUSH2 0x2D18 JUMP JUMPDEST SWAP1 POP PUSH1 0x0 PUSH1 0x1 PUSH1 0xC0 SHL DUP7 PUSH2 0x20CB PUSH1 0x1 PUSH1 0x1 PUSH1 0xA0 SHL SUB DUP6 AND DUP1 PUSH2 0x2D35 JUMP JUMPDEST PUSH2 0x20D5 SWAP2 SWAP1 PUSH2 0x2D35 JUMP JUMPDEST PUSH2 0x20DF SWAP2 SWAP1 PUSH2 0x2D4C JUMP JUMPDEST PUSH1 0x40 DUP1 MLOAD PUSH1 0x2 DUP1 DUP3 MSTORE PUSH1 0x60 DUP3 ADD DUP4 MSTORE SWAP3 SWAP4 POP PUSH1 0x0 SWAP3 SWAP1 SWAP2 PUSH1 0x20 DUP4 ADD SWAP1 DUP1 CALLDATASIZE DUP4 CALLDATACOPY ADD SWAP1 POP POP SWAP1 POP DUP9 DUP2 PUSH1 0x0 DUP2 MLOAD DUP2 LT PUSH2 0x2119 JUMPI PUSH2 0x2119 PUSH2 0x2D6E JUMP JUMPDEST PUSH1 0x20 MUL PUSH1 0x20 ADD ADD SWAP1 PUSH1 0x1 PUSH1 0x1 PUSH1 0xA0 SHL SUB AND SWAP1 DUP2 PUSH1 0x1 PUSH1 0x1 PUSH1 0xA0 SHL SUB AND DUP2 MSTORE POP POP DUP8 DUP2 PUSH1 0x1 DUP2 MLOAD DUP2 LT PUSH2 0x214D JUMPI PUSH2 0x214D PUSH2 0x2D6E JUMP JUMPDEST PUSH1 0x1 PUSH1 0x1 PUSH1 0xA0 SHL SUB SWAP3 DUP4 AND PUSH1 0x20 SWAP2 DUP3 MUL SWAP3 SWAP1 SWAP3 ADD ADD MSTORE PUSH1 0x40 MLOAD PUSH4 0xD06CA61F PUSH1 0xE0 SHL DUP2 MSTORE PUSH1 0x0 SWAP2 PUSH32 0x0 AND SWAP1 PUSH4 0xD06CA61F SWAP1 PUSH2 0x21AC SWAP1 DUP12 SWAP1 DUP7 SWAP1 PUSH1 0x4 ADD PUSH2 0x2DC9 JUMP JUMPDEST PUSH1 0x0 PUSH1 0x40 MLOAD DUP1 DUP4 SUB DUP2 DUP7 GAS STATICCALL ISZERO DUP1 ISZERO PUSH2 0x21C9 JUMPI RETURNDATASIZE PUSH1 0x0 DUP1 RETURNDATACOPY RETURNDATASIZE PUSH1 0x0 REVERT JUMPDEST POP POP POP POP PUSH1 0x40 MLOAD RETURNDATASIZE PUSH1 0x0 DUP3 RETURNDATACOPY PUSH1 0x1F RETURNDATASIZE SWAP1 DUP2 ADD PUSH1 0x1F NOT AND DUP3 ADD PUSH1 0x40 MSTORE PUSH2 0x21F1 SWAP2 SWAP1 DUP2 ADD SWAP1 PUSH2 0x2DEA JUMP JUMPDEST PUSH1 0x1 DUP2 MLOAD DUP2 LT PUSH2 0x2203 JUMPI PUSH2 0x2203 PUSH2 0x2D6E JUMP JUMPDEST PUSH1 0x20 MUL PUSH1 0x20 ADD ADD MLOAD SWAP1 POP DUP1 DUP4 GT SWAP6 POP POP POP POP POP POP SWAP5 SWAP4 POP POP POP POP JUMP JUMPDEST PUSH1 0x40 DUP1 MLOAD PUSH1 0xA0 DUP2 ADD DUP3 MSTORE PUSH1 0x0 DUP1 DUP3 MSTORE PUSH1 0x20 DUP3 ADD DUP2 SWAP1 MSTORE SWAP2 DUP2 ADD DUP3 SWAP1 MSTORE PUSH1 0x60 DUP2 ADD DUP3 SWAP1 MSTORE PUSH1 0x80 DUP2 ADD SWAP2 SWAP1 SWAP2 MSTORE POP POP PUSH1 0x40 DUP1 MLOAD PUSH1 0xA0 DUP2 ADD DUP3 MSTORE PUSH1 0x1 PUSH1 0x1 PUSH1 0xA0 SHL SUB SWAP4 DUP5 AND DUP2 MSTORE SWAP2 SWAP1 SWAP3 AND PUSH1 0x20 DUP3 ADD MSTORE PUSH2 0xBB8 SWAP2 DUP2 ADD SWAP2 SWAP1 SWAP2 MSTORE PUSH1 0x3C PUSH1 0x60 DUP3 ADD MSTORE PUSH1 0x0 PUSH1 0x80 DUP3 ADD MSTORE SWAP1 JUMP JUMPDEST PUSH1 0x40 MLOAD PUSH4 0x70A08231 PUSH1 0xE0 SHL DUP2 MSTORE ADDRESS PUSH1 0x4 DUP3 ADD MSTORE PUSH1 0x0 SWAP1 PUSH1 0x0 DUP1 MLOAD PUSH1 0x20 PUSH2 0x2F0B DUP4 CODECOPY DUP2 MLOAD SWAP2 MSTORE SWAP1 DUP7 SWAP1 PUSH1 0x1 PUSH1 0x1 PUSH1 0xA0 SHL SUB DUP3 AND SWAP1 PUSH4 0x70A08231 SWAP1 PUSH1 0x24 ADD PUSH1 0x20 PUSH1 0x40 MLOAD DUP1 DUP4 SUB DUP2 DUP7 GAS STATICCALL ISZERO DUP1 ISZERO PUSH2 0x22E0 JUMPI RETURNDATASIZE PUSH1 0x0 DUP1 RETURNDATACOPY RETURNDATASIZE PUSH1 0x0 REVERT JUMPDEST POP POP POP POP PUSH1 0x40 MLOAD RETURNDATASIZE PUSH1 0x1F NOT PUSH1 0x1F DUP3 ADD AND DUP3 ADD DUP1 PUSH1 0x40 MSTORE POP DUP2 ADD SWAP1 PUSH2 0x2304 SWAP2 SWAP1 PUSH2 0x2934 JUMP JUMPDEST PUSH1 0x40 DUP1 MLOAD PUSH1 0x60 DUP1 DUP3 MSTORE PUSH1 0x1D SWAP1 DUP3 ADD MSTORE PUSH32 0x5072652D53757368697377617020746F6B656E496E2062616C616E6365000000 PUSH1 0x80 DUP3 ADD MSTORE PUSH1 0x1 PUSH1 0x1 PUSH1 0xA0 SHL SUB SWAP1 SWAP4 AND PUSH1 0x20 DUP5 ADD MSTORE DUP3 ADD MSTORE PUSH1 0xA0 ADD PUSH1 0x40 MLOAD DUP1 SWAP2 SUB SWAP1 LOG1 PUSH1 0x40 MLOAD PUSH4 0x70A08231 PUSH1 0xE0 SHL DUP2 MSTORE ADDRESS PUSH1 0x4 DUP3 ADD MSTORE PUSH1 0x0 DUP1 MLOAD PUSH1 0x20 PUSH2 0x2F0B DUP4 CODECOPY DUP2 MLOAD SWAP2 MSTORE SWAP1 DUP6 SWAP1 PUSH1 0x1 PUSH1 0x1 PUSH1 0xA0 SHL SUB DUP3 AND SWAP1 PUSH4 0x70A08231 SWAP1 PUSH1 0x24 ADD PUSH1 0x20 PUSH1 0x40 MLOAD DUP1 DUP4 SUB DUP2 DUP7 GAS STATICCALL ISZERO DUP1 ISZERO PUSH2 0x23AD JUMPI RETURNDATASIZE PUSH1 0x0 DUP1 RETURNDATACOPY RETURNDATASIZE PUSH1 0x0 REVERT JUMPDEST POP POP POP POP PUSH1 0x40 MLOAD RETURNDATASIZE PUSH1 0x1F NOT PUSH1 0x1F DUP3 ADD AND DUP3 ADD DUP1 PUSH1 0x40 MSTORE POP DUP2 ADD SWAP1 PUSH2 0x23D1 SWAP2 SWAP1 PUSH2 0x2934 JUMP JUMPDEST PUSH1 0x40 DUP1 MLOAD PUSH1 0x60 DUP1 DUP3 MSTORE PUSH1 0x1E SWAP1 DUP3 ADD MSTORE PUSH32 0x5072652D53757368697377617020746F6B656E4F75742062616C616E63650000 PUSH1 0x80 DUP3 ADD MSTORE PUSH1 0x1 PUSH1 0x1 PUSH1 0xA0 SHL SUB SWAP1 SWAP4 AND PUSH1 0x20 DUP5 ADD MSTORE DUP3 ADD MSTORE PUSH1 0xA0 ADD PUSH1 0x40 MLOAD DUP1 SWAP2 SUB SWAP1 LOG1 PUSH1 0x40 MLOAD PUSH4 0x95EA7B3 PUSH1 0xE0 SHL DUP2 MSTORE PUSH1 0x1 PUSH1 0x1 PUSH1 0xA0 SHL SUB PUSH32 0x0 DUP2 AND PUSH1 0x4 DUP4 ADD MSTORE PUSH1 0x24 DUP3 ADD DUP6 SWAP1 MSTORE DUP7 AND SWAP1 PUSH4 0x95EA7B3 SWAP1 PUSH1 0x44 ADD PUSH1 0x20 PUSH1 0x40 MLOAD DUP1 DUP4 SUB DUP2 PUSH1 0x0 DUP8 GAS CALL ISZERO DUP1 ISZERO PUSH2 0x2493 JUMPI RETURNDATASIZE PUSH1 0x0 DUP1 RETURNDATACOPY RETURNDATASIZE PUSH1 0x0 REVERT JUMPDEST POP POP POP POP PUSH1 0x40 MLOAD RETURNDATASIZE PUSH1 0x1F NOT PUSH1 0x1F DUP3 ADD AND DUP3 ADD DUP1 PUSH1 0x40 MSTORE POP DUP2 ADD SWAP1 PUSH2 0x24B7 SWAP2 SWAP1 PUSH2 0x2ADF JUMP JUMPDEST PUSH2 0x2503 JUMPI PUSH1 0x40 MLOAD PUSH3 0x461BCD PUSH1 0xE5 SHL DUP2 MSTORE PUSH1 0x20 PUSH1 0x4 DUP3 ADD MSTORE PUSH1 0x19 PUSH1 0x24 DUP3 ADD MSTORE PUSH32 0x53757368697377617020617070726F76616C206661696C656400000000000000 PUSH1 0x44 DUP3 ADD MSTORE PUSH1 0x64 ADD PUSH2 0x222 JUMP JUMPDEST PUSH1 0x40 DUP1 MLOAD PUSH1 0x2 DUP1 DUP3 MSTORE PUSH1 0x60 DUP3 ADD DUP4 MSTORE PUSH1 0x0 SWAP3 PUSH1 0x20 DUP4 ADD SWAP1 DUP1 CALLDATASIZE DUP4 CALLDATACOPY ADD SWAP1 POP POP SWAP1 POP DUP6 DUP2 PUSH1 0x0 DUP2 MLOAD DUP2 LT PUSH2 0x2538 JUMPI PUSH2 0x2538 PUSH2 0x2D6E JUMP JUMPDEST PUSH1 0x20 MUL PUSH1 0x20 ADD ADD SWAP1 PUSH1 0x1 PUSH1 0x1 PUSH1 0xA0 SHL SUB AND SWAP1 DUP2 PUSH1 0x1 PUSH1 0x1 PUSH1 0xA0 SHL SUB AND DUP2 MSTORE POP POP DUP5 DUP2 PUSH1 0x1 DUP2 MLOAD DUP2 LT PUSH2 0x256C JUMPI PUSH2 0x256C PUSH2 0x2D6E JUMP JUMPDEST PUSH1 0x1 PUSH1 0x1 PUSH1 0xA0 SHL SUB SWAP3 DUP4 AND PUSH1 0x20 SWAP2 DUP3 MUL SWAP3 SWAP1 SWAP3 ADD ADD MSTORE PUSH1 0x0 SWAP1 PUSH32 0x0 AND PUSH4 0x38ED1739 DUP7 DUP7 DUP6 ADDRESS PUSH2 0x25BC TIMESTAMP PUSH2 0x12C PUSH2 0x2E9B JUMP JUMPDEST PUSH1 0x40 MLOAD DUP7 PUSH4 0xFFFFFFFF AND PUSH1 0xE0 SHL DUP2 MSTORE PUSH1 0x4 ADD PUSH2 0x25DC SWAP6 SWAP5 SWAP4 SWAP3 SWAP2 SWAP1 PUSH2 0x2EAE JUMP JUMPDEST PUSH1 0x0 PUSH1 0x40 MLOAD DUP1 DUP4 SUB DUP2 PUSH1 0x0 DUP8 GAS CALL ISZERO DUP1 ISZERO PUSH2 0x25FB JUMPI RETURNDATASIZE PUSH1 0x0 DUP1 RETURNDATACOPY RETURNDATASIZE PUSH1 0x0 REVERT JUMPDEST POP POP POP POP PUSH1 0x40 MLOAD RETURNDATASIZE PUSH1 0x0 DUP3 RETURNDATACOPY PUSH1 0x1F RETURNDATASIZE SWAP1 DUP2 ADD PUSH1 0x1F NOT AND DUP3 ADD PUSH1 0x40 MSTORE PUSH2 0x2623 SWAP2 SWAP1 DUP2 ADD SWAP1 PUSH2 0x2DEA JUMP JUMPDEST PUSH1 0x40 MLOAD PUSH4 0x70A08231 PUSH1 0xE0 SHL DUP2 MSTORE ADDRESS PUSH1 0x4 DUP3 ADD MSTORE SWAP1 SWAP2 POP PUSH1 0x0 DUP1 MLOAD PUSH1 0x20 PUSH2 0x2F0B DUP4 CODECOPY DUP2 MLOAD SWAP2 MSTORE SWAP1 DUP9 SWAP1 PUSH1 0x1 PUSH1 0x1 PUSH1 0xA0 SHL SUB DUP3 AND SWAP1 PUSH4 0x70A08231 SWAP1 PUSH1 0x24 ADD PUSH1 0x20 PUSH1 0x40 MLOAD DUP1 DUP4 SUB DUP2 DUP7 GAS STATICCALL ISZERO DUP1 ISZERO PUSH2 0x267C JUMPI RETURNDATASIZE PUSH1 0x0 DUP1 RETURNDATACOPY RETURNDATASIZE PUSH1 0x0 REVERT JUMPDEST POP POP POP POP PUSH1 0x40 MLOAD RETURNDATASIZE PUSH1 0x1F NOT PUSH1 0x1F DUP3 ADD AND DUP3 ADD DUP1 PUSH1 0x40 MSTORE POP DUP2 ADD SWAP1 PUSH2 0x26A0 SWAP2 SWAP1 PUSH2 0x2934 JUMP JUMPDEST PUSH1 0x40 DUP1 MLOAD PUSH1 0x60 DUP1 DUP3 MSTORE PUSH1 0x1E SWAP1 DUP3 ADD MSTORE PUSH32 0x506F73742D53757368697377617020746F6B656E496E2062616C616E63650000 PUSH1 0x80 DUP3 ADD MSTORE PUSH1 0x1 PUSH1 0x1 PUSH1 0xA0 SHL SUB SWAP1 SWAP4 AND PUSH1 0x20 DUP5 ADD MSTORE DUP3 ADD MSTORE PUSH1 0xA0 ADD PUSH1 0x40 MLOAD DUP1 SWAP2 SUB SWAP1 LOG1 PUSH1 0x40 MLOAD PUSH4 0x70A08231 PUSH1 0xE0 SHL DUP2 MSTORE ADDRESS PUSH1 0x4 DUP3 ADD MSTORE PUSH1 0x0 DUP1 MLOAD PUSH1 0x20 PUSH2 0x2F0B DUP4 CODECOPY DUP2 MLOAD SWAP2 MSTORE SWAP1 DUP8 SWAP1 PUSH1 0x1 PUSH1 0x1 PUSH1 0xA0 SHL SUB DUP3 AND SWAP1 PUSH4 0x70A08231 SWAP1 PUSH1 0x24 ADD PUSH1 0x20 PUSH1 0x40 MLOAD DUP1 DUP4 SUB DUP2 DUP7 GAS STATICCALL ISZERO DUP1 ISZERO PUSH2 0x2749 JUMPI RETURNDATASIZE PUSH1 0x0 DUP1 RETURNDATACOPY RETURNDATASIZE PUSH1 0x0 REVERT JUMPDEST POP POP POP POP PUSH1 0x40 MLOAD RETURNDATASIZE PUSH1 0x1F NOT PUSH1 0x1F DUP3 ADD AND DUP3 ADD DUP1 PUSH1 0x40 MSTORE POP DUP2 ADD SWAP1 PUSH2 0x276D SWAP2 SWAP1 PUSH2 0x2934 JUMP JUMPDEST PUSH1 0x40 DUP1 MLOAD PUSH1 0x60 DUP1 DUP3 MSTORE PUSH1 0x1F SWAP1 DUP3 ADD MSTORE PUSH32 0x506F73742D53757368697377617020746F6B656E4F75742062616C616E636500 PUSH1 0x80 DUP3 ADD MSTORE PUSH1 0x1 PUSH1 0x1 PUSH1 0xA0 SHL SUB SWAP1 SWAP4 AND PUSH1 0x20 DUP5 ADD MSTORE DUP3 ADD MSTORE PUSH1 0xA0 ADD PUSH1 0x40 MLOAD DUP1 SWAP2 SUB SWAP1 LOG1 DUP1 PUSH1 0x1 DUP3 MLOAD PUSH2 0x27CF SWAP2 SWAP1 PUSH2 0x2CF1 JUMP JUMPDEST DUP2 MLOAD DUP2 LT PUSH2 0x27DF JUMPI PUSH2 0x27DF PUSH2 0x2D6E JUMP JUMPDEST PUSH1 0x20 MUL PUSH1 0x20 ADD ADD MLOAD SWAP3 POP POP POP SWAP5 SWAP4 POP POP POP POP JUMP JUMPDEST PUSH1 0x1 PUSH1 0x1 PUSH1 0xA0 SHL SUB DUP2 AND DUP2 EQ PUSH2 0x126C JUMPI PUSH1 0x0 DUP1 REVERT JUMPDEST PUSH1 0x0 DUP1 PUSH1 0x0 DUP1 PUSH1 0x0 DUP1 PUSH1 0xA0 DUP8 DUP10 SUB SLT ISZERO PUSH2 0x2821 JUMPI PUSH1 0x0 DUP1 REVERT JUMPDEST DUP7 CALLDATALOAD PUSH2 0x282C DUP2 PUSH2 0x27F3 JUMP JUMPDEST SWAP6 POP PUSH1 0x20 DUP8 ADD CALLDATALOAD PUSH2 0x283C DUP2 PUSH2 0x27F3 JUMP JUMPDEST SWAP5 POP PUSH1 0x40 DUP8 ADD CALLDATALOAD SWAP4 POP PUSH1 0x60 DUP8 ADD CALLDATALOAD SWAP3 POP PUSH1 0x80 DUP8 ADD CALLDATALOAD PUSH8 0xFFFFFFFFFFFFFFFF DUP2 GT ISZERO PUSH2 0x2866 JUMPI PUSH1 0x0 DUP1 REVERT JUMPDEST DUP8 ADD PUSH1 0x1F DUP2 ADD DUP10 SGT PUSH2 0x2877 JUMPI PUSH1 0x0 DUP1 REVERT JUMPDEST DUP1 CALLDATALOAD PUSH8 0xFFFFFFFFFFFFFFFF DUP2 GT ISZERO PUSH2 0x288E JUMPI PUSH1 0x0 DUP1 REVERT JUMPDEST DUP10 PUSH1 0x20 DUP3 DUP5 ADD ADD GT ISZERO PUSH2 0x28A0 JUMPI PUSH1 0x0 DUP1 REVERT JUMPDEST PUSH1 0x20 DUP3 ADD SWAP4 POP DUP1 SWAP3 POP POP POP SWAP3 SWAP6 POP SWAP3 SWAP6 POP SWAP3 SWAP6 JUMP JUMPDEST PUSH1 0x0 DUP1 PUSH1 0x0 PUSH1 0x60 DUP5 DUP7 SUB SLT ISZERO PUSH2 0x28CA JUMPI PUSH1 0x0 DUP1 REVERT JUMPDEST DUP4 CALLDATALOAD PUSH2 0x28D5 DUP2 PUSH2 0x27F3 JUMP JUMPDEST SWAP3 POP PUSH1 0x20 DUP5 ADD CALLDATALOAD SWAP2 POP PUSH1 0x40 DUP5 ADD CALLDATALOAD PUSH2 0x28EC DUP2 PUSH2 0x27F3 JUMP JUMPDEST DUP1 SWAP2 POP POP SWAP3 POP SWAP3 POP SWAP3 JUMP JUMPDEST PUSH1 0x0 PUSH1 0x20 DUP3 DUP5 SUB SLT ISZERO PUSH2 0x2909 JUMPI PUSH1 0x0 DUP1 REVERT JUMPDEST POP CALLDATALOAD SWAP2 SWAP1 POP JUMP JUMPDEST PUSH1 0x0 PUSH1 0x20 DUP3 DUP5 SUB SLT ISZERO PUSH2 0x2922 JUMPI PUSH1 0x0 DUP1 REVERT JUMPDEST DUP2 CALLDATALOAD PUSH2 0x292D DUP2 PUSH2 0x27F3 JUMP JUMPDEST SWAP4 SWAP3 POP POP POP JUMP JUMPDEST PUSH1 0x0 PUSH1 0x20 DUP3 DUP5 SUB SLT ISZERO PUSH2 0x2946 JUMPI PUSH1 0x0 DUP1 REVERT JUMPDEST POP MLOAD SWAP2 SWAP1 POP JUMP JUMPDEST PUSH4 0x4E487B71 PUSH1 0xE0 SHL PUSH1 0x0 MSTORE PUSH1 0x41 PUSH1 0x4 MSTORE PUSH1 0x24 PUSH1 0x0 REVERT JUMPDEST PUSH1 0x40 MLOAD PUSH1 0xA0 DUP2 ADD PUSH8 0xFFFFFFFFFFFFFFFF DUP2 GT DUP3 DUP3 LT OR ISZERO PUSH2 0x2986 JUMPI PUSH2 0x2986 PUSH2 0x294D JUMP JUMPDEST PUSH1 0x40 MSTORE SWAP1 JUMP JUMPDEST PUSH1 0x40 MLOAD PUSH1 0x1F DUP3 ADD PUSH1 0x1F NOT AND DUP2 ADD PUSH8 0xFFFFFFFFFFFFFFFF DUP2 GT DUP3 DUP3 LT OR ISZERO PUSH2 0x29B5 JUMPI PUSH2 0x29B5 PUSH2 0x294D JUMP JUMPDEST PUSH1 0x40 MSTORE SWAP2 SWAP1 POP JUMP JUMPDEST DUP1 ISZERO ISZERO DUP2 EQ PUSH2 0x126C JUMPI PUSH1 0x0 DUP1 REVERT JUMPDEST PUSH1 0x0 DUP3 PUSH1 0x1F DUP4 ADD SLT PUSH2 0x29DC JUMPI PUSH1 0x0 DUP1 REVERT JUMPDEST DUP2 CALLDATALOAD PUSH8 0xFFFFFFFFFFFFFFFF DUP2 GT ISZERO PUSH2 0x29F6 JUMPI PUSH2 0x29F6 PUSH2 0x294D JUMP JUMPDEST PUSH2 0x2A09 PUSH1 0x1F DUP3 ADD PUSH1 0x1F NOT AND PUSH1 0x20 ADD PUSH2 0x298C JUMP JUMPDEST DUP2 DUP2 MSTORE DUP5 PUSH1 0x20 DUP4 DUP7 ADD ADD GT ISZERO PUSH2 0x2A1E JUMPI PUSH1 0x0 DUP1 REVERT JUMPDEST DUP2 PUSH1 0x20 DUP6 ADD PUSH1 0x20 DUP4 ADD CALLDATACOPY PUSH1 0x0 SWAP2 DUP2 ADD PUSH1 0x20 ADD SWAP2 SWAP1 SWAP2 MSTORE SWAP4 SWAP3 POP POP POP JUMP JUMPDEST PUSH1 0x0 DUP1 DUP3 DUP5 SUB PUSH1 0xC0 DUP2 SLT ISZERO PUSH2 0x2A4F JUMPI PUSH1 0x0 DUP1 REVERT JUMPDEST PUSH1 0xA0 DUP2 SLT ISZERO PUSH2 0x2A5D JUMPI PUSH1 0x0 DUP1 REVERT JUMPDEST POP PUSH2 0x2A66 PUSH2 0x2963 JUMP JUMPDEST DUP4 CALLDATALOAD PUSH2 0x2A71 DUP2 PUSH2 0x27F3 JUMP JUMPDEST DUP2 MSTORE PUSH1 0x20 DUP5 ADD CALLDATALOAD PUSH2 0x2A81 DUP2 PUSH2 0x27F3 JUMP JUMPDEST PUSH1 0x20 DUP3 ADD MSTORE PUSH1 0x40 DUP5 DUP2 ADD CALLDATALOAD SWAP1 DUP3 ADD MSTORE PUSH1 0x60 DUP1 DUP6 ADD CALLDATALOAD SWAP1 DUP3 ADD MSTORE PUSH1 0x80 DUP5 ADD CALLDATALOAD PUSH2 0x2AA8 DUP2 PUSH2 0x29BD JUMP JUMPDEST PUSH1 0x80 DUP3 ADD MSTORE SWAP2 POP PUSH1 0xA0 DUP4 ADD CALLDATALOAD PUSH8 0xFFFFFFFFFFFFFFFF DUP2 GT ISZERO PUSH2 0x2AC9 JUMPI PUSH1 0x0 DUP1 REVERT JUMPDEST PUSH2 0x2AD5 DUP6 DUP3 DUP7 ADD PUSH2 0x29CB JUMP JUMPDEST SWAP2 POP POP SWAP3 POP SWAP3 SWAP1 POP JUMP JUMPDEST PUSH1 0x0 PUSH1 0x20 DUP3 DUP5 SUB SLT ISZERO PUSH2 0x2AF1 JUMPI PUSH1 0x0 DUP1 REVERT JUMPDEST DUP2 MLOAD PUSH2 0x292D DUP2 PUSH2 0x29BD JUMP JUMPDEST PUSH1 0x1 DUP1 PUSH1 0xA0 SHL SUB DUP5 MLOAD AND DUP2 MSTORE PUSH1 0x1 DUP1 PUSH1 0xA0 SHL SUB PUSH1 0x20 DUP6 ADD MLOAD AND PUSH1 0x20 DUP3 ADD MSTORE PUSH1 0x40 DUP5 ADD MLOAD PUSH1 0x40 DUP3 ADD MSTORE PUSH1 0x60 DUP5 ADD MLOAD PUSH1 0x60 DUP3 ADD MSTORE PUSH1 0x80 DUP5 ADD MLOAD ISZERO ISZERO PUSH1 0x80 DUP3 ADD MSTORE PUSH1 0xC0 PUSH1 0xA0 DUP3 ADD MSTORE DUP2 PUSH1 0xC0 DUP3 ADD MSTORE DUP2 DUP4 PUSH1 0xE0 DUP4 ADD CALLDATACOPY PUSH1 0x0 DUP2 DUP4 ADD PUSH1 0xE0 SWAP1 DUP2 ADD SWAP2 SWAP1 SWAP2 MSTORE PUSH1 0x1F SWAP1 SWAP3 ADD PUSH1 0x1F NOT AND ADD ADD SWAP3 SWAP2 POP POP JUMP JUMPDEST PUSH1 0x1 PUSH1 0x1 PUSH1 0xA0 SHL SUB DUP8 DUP2 AND DUP3 MSTORE DUP7 DUP2 AND PUSH1 0x20 DUP4 ADD MSTORE DUP6 AND PUSH1 0x40 DUP3 ADD MSTORE PUSH1 0x60 DUP2 ADD DUP5 SWAP1 MSTORE PUSH1 0x80 DUP2 ADD DUP4 SWAP1 MSTORE PUSH1 0xC0 PUSH1 0xA0 DUP3 ADD DUP2 SWAP1 MSTORE DUP3 MLOAD SWAP1 DUP3 ADD DUP2 SWAP1 MSTORE PUSH1 0x0 SWAP1 DUP2 JUMPDEST DUP2 DUP2 LT ISZERO PUSH2 0x2BCA JUMPI PUSH1 0x20 DUP2 DUP7 ADD DUP2 ADD MLOAD PUSH1 0xE0 DUP7 DUP5 ADD ADD MSTORE ADD PUSH2 0x2BAD JUMP JUMPDEST POP PUSH1 0x0 PUSH1 0xE0 DUP3 DUP6 ADD ADD MSTORE PUSH1 0xE0 PUSH1 0x1F NOT PUSH1 0x1F DUP4 ADD AND DUP5 ADD ADD SWAP2 POP POP SWAP8 SWAP7 POP POP POP POP POP POP POP JUMP JUMPDEST DUP1 MLOAD PUSH1 0x1 PUSH1 0x1 PUSH1 0xA0 SHL SUB SWAP1 DUP2 AND DUP4 MSTORE PUSH1 0x20 DUP1 DUP4 ADD MLOAD DUP3 AND SWAP1 DUP5 ADD MSTORE PUSH1 0x40 DUP1 DUP4 ADD MLOAD PUSH3 0xFFFFFF AND SWAP1 DUP5 ADD MSTORE PUSH1 0x60 DUP1 DUP4 ADD MLOAD PUSH1 0x2 SIGNEXTEND SWAP1 DUP5 ADD MSTORE PUSH1 0x80 SWAP2 DUP3 ADD MLOAD AND SWAP2 ADD MSTORE JUMP JUMPDEST PUSH2 0x100 DUP2 ADD PUSH2 0x2C41 DUP3 DUP6 PUSH2 0x2BEF JUMP JUMPDEST DUP3 MLOAD ISZERO ISZERO PUSH1 0xA0 DUP4 ADD MSTORE PUSH1 0x20 DUP4 ADD MLOAD PUSH1 0xC0 DUP4 ADD MSTORE PUSH1 0x40 SWAP1 SWAP3 ADD MLOAD PUSH1 0x1 PUSH1 0x1 PUSH1 0xA0 SHL SUB AND PUSH1 0xE0 SWAP1 SWAP2 ADD MSTORE SWAP2 SWAP1 POP JUMP JUMPDEST PUSH1 0x0 PUSH1 0x40 DUP3 DUP5 SUB SLT DUP1 ISZERO PUSH2 0x2C81 JUMPI PUSH1 0x0 DUP1 REVERT JUMPDEST POP PUSH1 0x40 DUP1 MLOAD SWAP1 DUP2 ADD PUSH8 0xFFFFFFFFFFFFFFFF DUP2 GT DUP3 DUP3 LT OR ISZERO PUSH2 0x2CA5 JUMPI PUSH2 0x2CA5 PUSH2 0x294D JUMP JUMPDEST PUSH1 0x40 MSTORE DUP3 MLOAD DUP2 MSTORE PUSH1 0x20 SWAP3 DUP4 ADD MLOAD SWAP3 DUP2 ADD SWAP3 SWAP1 SWAP3 MSTORE POP SWAP2 SWAP1 POP JUMP JUMPDEST PUSH4 0x4E487B71 PUSH1 0xE0 SHL PUSH1 0x0 MSTORE PUSH1 0x11 PUSH1 0x4 MSTORE PUSH1 0x24 PUSH1 0x0 REVERT JUMPDEST PUSH1 0x0 PUSH1 0x1 PUSH1 0xFF SHL DUP3 ADD PUSH2 0x2CEA JUMPI PUSH2 0x2CEA PUSH2 0x2CBF JUMP JUMPDEST POP PUSH1 0x0 SUB SWAP1 JUMP JUMPDEST DUP2 DUP2 SUB DUP2 DUP2 GT ISZERO PUSH2 0x2D04 JUMPI PUSH2 0x2D04 PUSH2 0x2CBF JUMP JUMPDEST SWAP3 SWAP2 POP POP JUMP JUMPDEST PUSH1 0xA0 DUP2 ADD PUSH2 0x2D04 DUP3 DUP5 PUSH2 0x2BEF JUMP JUMPDEST PUSH1 0x0 PUSH1 0x20 DUP3 DUP5 SUB SLT ISZERO PUSH2 0x2D2A JUMPI PUSH1 0x0 DUP1 REVERT JUMPDEST DUP2 MLOAD PUSH2 0x292D DUP2 PUSH2 0x27F3 JUMP JUMPDEST DUP1 DUP3 MUL DUP2 ISZERO DUP3 DUP3 DIV DUP5 EQ OR PUSH2 0x2D04 JUMPI PUSH2 0x2D04 PUSH2 0x2CBF JUMP JUMPDEST PUSH1 0x0 DUP3 PUSH2 0x2D69 JUMPI PUSH4 0x4E487B71 PUSH1 0xE0 SHL PUSH1 0x0 MSTORE PUSH1 0x12 PUSH1 0x4 MSTORE PUSH1 0x24 PUSH1 0x0 REVERT JUMPDEST POP DIV SWAP1 JUMP JUMPDEST PUSH4 0x4E487B71 PUSH1 0xE0 SHL PUSH1 0x0 MSTORE PUSH1 0x32 PUSH1 0x4 MSTORE PUSH1 0x24 PUSH1 0x0 REVERT JUMPDEST PUSH1 0x0 DUP2 MLOAD DUP1 DUP5 MSTORE PUSH1 0x20 DUP5 ADD SWAP4 POP PUSH1 0x20 DUP4 ADD PUSH1 0x0 JUMPDEST DUP3 DUP2 LT ISZERO PUSH2 0x2DBF JUMPI DUP2 MLOAD PUSH1 0x1 PUSH1 0x1 PUSH1 0xA0 SHL SUB AND DUP7 MSTORE PUSH1 0x20 SWAP6 DUP7 ADD SWAP6 SWAP1 SWAP2 ADD SWAP1 PUSH1 0x1 ADD PUSH2 0x2D98 JUMP JUMPDEST POP SWAP4 SWAP5 SWAP4 POP POP POP POP JUMP JUMPDEST DUP3 DUP2 MSTORE PUSH1 0x40 PUSH1 0x20 DUP3 ADD MSTORE PUSH1 0x0 PUSH2 0x2DE2 PUSH1 0x40 DUP4 ADD DUP5 PUSH2 0x2D84 JUMP JUMPDEST SWAP5 SWAP4 POP POP POP POP JUMP JUMPDEST PUSH1 0x0 PUSH1 0x20 DUP3 DUP5 SUB SLT ISZERO PUSH2 0x2DFC JUMPI PUSH1 0x0 DUP1 REVERT JUMPDEST DUP2 MLOAD PUSH8 0xFFFFFFFFFFFFFFFF DUP2 GT ISZERO PUSH2 0x2E13 JUMPI PUSH1 0x0 DUP1 REVERT JUMPDEST DUP3 ADD PUSH1 0x1F DUP2 ADD DUP5 SGT PUSH2 0x2E24 JUMPI PUSH1 0x0 DUP1 REVERT JUMPDEST DUP1 MLOAD PUSH8 0xFFFFFFFFFFFFFFFF DUP2 GT ISZERO PUSH2 0x2E3E JUMPI PUSH2 0x2E3E PUSH2 0x294D JUMP JUMPDEST DUP1 PUSH1 0x5 SHL PUSH2 0x2E4E PUSH1 0x20 DUP3 ADD PUSH2 0x298C JUMP JUMPDEST SWAP2 DUP3 MSTORE PUSH1 0x20 DUP2 DUP5 ADD DUP2 ADD SWAP3 SWAP1 DUP2 ADD SWAP1 DUP8 DUP5 GT ISZERO PUSH2 0x2E6A JUMPI PUSH1 0x0 DUP1 REVERT JUMPDEST PUSH1 0x20 DUP6 ADD SWAP5 POP JUMPDEST DUP4 DUP6 LT ISZERO PUSH2 0x2E90 JUMPI DUP5 MLOAD DUP1 DUP4 MSTORE PUSH1 0x20 SWAP6 DUP7 ADD SWAP6 SWAP1 SWAP4 POP SWAP1 SWAP2 ADD SWAP1 PUSH2 0x2E71 JUMP JUMPDEST SWAP8 SWAP7 POP POP POP POP POP POP POP JUMP JUMPDEST DUP1 DUP3 ADD DUP1 DUP3 GT ISZERO PUSH2 0x2D04 JUMPI PUSH2 0x2D04 PUSH2 0x2CBF JUMP JUMPDEST DUP6 DUP2 MSTORE DUP5 PUSH1 0x20 DUP3 ADD MSTORE PUSH1 0xA0 PUSH1 0x40 DUP3 ADD MSTORE PUSH1 0x0 PUSH2 0x2ECD PUSH1 0xA0 DUP4 ADD DUP7 PUSH2 0x2D84 JUMP JUMPDEST PUSH1 0x1 PUSH1 0x1 PUSH1 0xA0 SHL SUB SWAP5 SWAP1 SWAP5 AND PUSH1 0x60 DUP4 ADD MSTORE POP PUSH1 0x80 ADD MSTORE SWAP4 SWAP3 POP POP POP JUMP INVALID EXTCODECOPY GAS 0xD1 SELFBALANCE LT 0x4E JUMP 0xBE CALLVALUE 0xA9 OR PUSH11 0x6692F7DF8D2F4B29A5AF06 0xBC PUSH12 0x98970D329D657728D7B9B2F7 DUP5 0xCF 0xD7 PUSH27 0x99878B6EE7AC54E22D1A1B3CD542A1992BC36993B213C1A2646970 PUSH7 0x73582212203BD6 SWAP2 0xAF PUSH0 ADD 0xB9 DUP3 SLT DUP7 0xB6 0xE8 0xB5 CHAINID 0xB7 0xDC 0xEB 0xE9 PUSH24 0xB8DB8101FF9A7A01FDF98637D964736F6C634300081C0033 "},"methodIdentifiers":{"emergencyWithdraw(address,uint256,address)":"551512de","executeArbitrage(address,address,uint256,uint256,bytes)":"b5ffad44","flashCallback(address,address,uint256,uint256,bytes)":"51c469e2","minimumProfitThreshold()":"0a967eb2","owner()":"8da5cb5b","poolManager()":"dc4c90d3","renounceOwnership()":"715018a6","setMinimumProfitThreshold(uint256)":"e1ab1b13","sushiswapRouter()":"e9240c2d","transferOwnership(address)":"f2fde38b"}}}}}