{"contracts/flashloan/FlashloanArbitrage.sol":{"FlashloanV2":{"abi":[{"inputs":[{"internalType":"address","name":"_addressProvider","type":"address"},{"internalType":"address","name":"_uniswapRouterAddress","type":"address"},{"internalType":"address","name":"_sushiswapRouterAddress","type":"address"}],"stateMutability":"nonpayable","type":"constructor"},{"inputs":[{"internalType":"address","name":"owner","type":"address"}],"name":"OwnableInvalidOwner","type":"error"},{"inputs":[{"internalType":"address","name":"account","type":"address"}],"name":"OwnableUnauthorizedAccount","type":"error"},{"inputs":[{"internalType":"address","name":"token","type":"address"}],"name":"SafeERC20FailedOperation","type":"error"},{"anonymous":false,"inputs":[{"indexed":true,"internalType":"address","name":"_from","type":"address"},{"indexed":true,"internalType":"address","name":"_assetAddress","type":"address"},{"indexed":false,"internalType":"uint256","name":"amount","type":"uint256"}],"name":"LogWithdraw","type":"event"},{"anonymous":false,"inputs":[{"indexed":true,"internalType":"address","name":"previousOwner","type":"address"},{"indexed":true,"internalType":"address","name":"newOwner","type":"address"}],"name":"OwnershipTransferred","type":"event"},{"inputs":[],"name":"ADDRESSES_PROVIDER","outputs":[{"internalType":"contract ILendingPoolAddressesProviderV2","name":"","type":"address"}],"stateMutability":"view","type":"function"},{"inputs":[],"name":"LENDING_POOL","outputs":[{"internalType":"contract ILendingPoolV2","name":"","type":"address"}],"stateMutability":"view","type":"function"},{"inputs":[{"internalType":"address[]","name":"assets","type":"address[]"},{"internalType":"uint256[]","name":"amounts","type":"uint256[]"},{"internalType":"uint256[]","name":"premiums","type":"uint256[]"},{"internalType":"address","name":"","type":"address"},{"internalType":"bytes","name":"params","type":"bytes"}],"name":"executeOperation","outputs":[{"internalType":"bool","name":"","type":"bool"}],"stateMutability":"nonpayable","type":"function"},{"inputs":[],"name":"owner","outputs":[{"internalType":"address","name":"","type":"address"}],"stateMutability":"view","type":"function"},{"inputs":[{"internalType":"address","name":"_asset","type":"address"}],"name":"pullTokens","outputs":[],"stateMutability":"nonpayable","type":"function"},{"inputs":[],"name":"renounceOwnership","outputs":[],"stateMutability":"nonpayable","type":"function"},{"inputs":[{"internalType":"address","name":"_borrowAsset","type":"address"},{"internalType":"uint256","name":"_borrowAmount","type":"uint256"},{"internalType":"address","name":"_swappingPair","type":"address"},{"internalType":"address","name":"_factoryAddress","type":"address"}],"name":"startTransaction","outputs":[],"stateMutability":"nonpayable","type":"function"},{"inputs":[{"internalType":"address","name":"newOwner","type":"address"}],"name":"transferOwnership","outputs":[],"stateMutability":"nonpayable","type":"function"},{"inputs":[{"internalType":"address","name":"_assetAddress","type":"address"}],"name":"withdraw","outputs":[],"stateMutability":"nonpayable","type":"function"}],"evm":{"bytecode":{"linkReferences":{},"object":"61010060405234801561001157600080fd5b5060405161269638038061269683398181016040528101906100339190610325565b33838073ffffffffffffffffffffffffffffffffffffffff1660808173ffffffffffffffffffffffffffffffffffffffff16815250508073ffffffffffffffffffffffffffffffffffffffff16630261bf8b6040518163ffffffff1660e01b8152600401602060405180830381865afa1580156100b4573d6000803e3d6000fd5b505050506040513d601f19601f820116820180604052508101906100d89190610378565b73ffffffffffffffffffffffffffffffffffffffff1660a08173ffffffffffffffffffffffffffffffffffffffff168152505050600073ffffffffffffffffffffffffffffffffffffffff168173ffffffffffffffffffffffffffffffffffffffff160361017e5760006040517f1e4fbdf700000000000000000000000000000000000000000000000000000000815260040161017591906103b4565b60405180910390fd5b61018d816101fe60201b60201c565b508173ffffffffffffffffffffffffffffffffffffffff1660c08173ffffffffffffffffffffffffffffffffffffffff16815250508073ffffffffffffffffffffffffffffffffffffffff1660e08173ffffffffffffffffffffffffffffffffffffffff16815250505050506103cf565b60008060009054906101000a900473ffffffffffffffffffffffffffffffffffffffff169050816000806101000a81548173ffffffffffffffffffffffffffffffffffffffff021916908373ffffffffffffffffffffffffffffffffffffffff1602179055508173ffffffffffffffffffffffffffffffffffffffff168173ffffffffffffffffffffffffffffffffffffffff167f8be0079c531659141344cd1fd0a4f28419497f9722a3daafe3b4186f6b6457e060405160405180910390a35050565b600080fd5b600073ffffffffffffffffffffffffffffffffffffffff82169050919050565b60006102f2826102c7565b9050919050565b610302816102e7565b811461030d57600080fd5b50565b60008151905061031f816102f9565b92915050565b60008060006060848603121561033e5761033d6102c2565b5b600061034c86828701610310565b935050602061035d86828701610310565b925050604061036e86828701610310565b9150509250925092565b60006020828403121561038e5761038d6102c2565b5b600061039c84828501610310565b91505092915050565b6103ae816102e7565b82525050565b60006020820190506103c960008301846103a5565b92915050565b60805160a05160c05160e05161225d61043960003960008181610abb01528181610b1d0152610d8b015260008181610a8d01528181610b4b0152610d5b0152600081816105360152818161060f015281816106a8015261116a0152600061019e015261225d6000f3fe608060405234801561001057600080fd5b50600436106100935760003560e01c80638da5cb5b116100665780638da5cb5b146100f8578063920f5c8414610116578063b4dcfc7714610146578063f058fb1b14610164578063f2fde38b1461018057610093565b80630542975c1461009857806342e9c6ce146100b657806351cff8d9146100d2578063715018a6146100ee575b600080fd5b6100a061019c565b6040516100ad919061149b565b60405180910390f35b6100d060048036038101906100cb9190611508565b6101c0565b005b6100ec60048036038101906100e79190611508565b6102d1565b005b6100f661048b565b005b61010061049f565b60405161010d9190611544565b60405180910390f35b610130600480360381019061012b9190611670565b6104c8565b60405161013d9190611787565b60405180910390f35b61014e6106a6565b60405161015b91906117c3565b60405180910390f35b61017e60048036038101906101799190611814565b6106ca565b005b61019a60048036038101906101959190611508565b6107f8565b005b7f000000000000000000000000000000000000000000000000000000000000000081565b6101c861087e565b60008190508073ffffffffffffffffffffffffffffffffffffffff1663095ea7b333476040518363ffffffff1660e01b815260040161020892919061188a565b6020604051808303816000875af1158015610227573d6000803e3d6000fd5b505050506040513d601f19601f8201168201806040525081019061024b91906118df565b508073ffffffffffffffffffffffffffffffffffffffff166323b872dd3033476040518463ffffffff1660e01b81526004016102899392919061190c565b6020604051808303816000875af11580156102a8573d6000803e3d6000fd5b505050506040513d601f19601f820116820180604052508101906102cc91906118df565b505050565b6102d961087e565b60008073ffffffffffffffffffffffffffffffffffffffff168273ffffffffffffffffffffffffffffffffffffffff160361037a5760003090508073ffffffffffffffffffffffffffffffffffffffff163191503373ffffffffffffffffffffffffffffffffffffffff166108fc839081150290604051600060405180830381858888f19350505050158015610373573d6000803e3d6000fd5b5050610422565b8173ffffffffffffffffffffffffffffffffffffffff166370a08231306040518263ffffffff1660e01b81526004016103b39190611544565b602060405180830381865afa1580156103d0573d6000803e3d6000fd5b505050506040513d601f19601f820116820180604052508101906103f49190611958565b905061042133828473ffffffffffffffffffffffffffffffffffffffff166109059092919063ffffffff16565b5b8173ffffffffffffffffffffffffffffffffffffffff163373ffffffffffffffffffffffffffffffffffffffff167f9207361cc2a04b9c7a06691df1eb87c6a63957ae88bf01d0d18c81e3d12720998360405161047f9190611985565b60405180910390a35050565b61049361087e565b61049d6000610984565b565b60008060009054906101000a900473ffffffffffffffffffffffffffffffffffffffff16905090565b6000808a8a60008181106104df576104de6119a0565b5b90506020020160208101906104f49190611508565b905060008989600081811061050c5761050b6119a0565b5b90506020020135905060008888600081811061052b5761052a6119a0565b5b9050602002013590507f000000000000000000000000000000000000000000000000000000000000000073ffffffffffffffffffffffffffffffffffffffff163373ffffffffffffffffffffffffffffffffffffffff16146105c2576040517f08c379a00000000000000000000000000000000000000000000000000000000081526004016105b990611a2c565b60405180910390fd5b600086868101906105d39190611a8a565b90506105e0848483610a48565b50600082846105ef9190611ae6565b90508473ffffffffffffffffffffffffffffffffffffffff1663095ea7b37f0000000000000000000000000000000000000000000000000000000000000000836040518363ffffffff1660e01b815260040161064c92919061188a565b6020604051808303816000875af115801561066b573d6000803e3d6000fd5b505050506040513d601f19601f8201168201806040525081019061068f91906118df565b506001955050505050509998505050505050505050565b7f000000000000000000000000000000000000000000000000000000000000000081565b6106d261087e565b60008173ffffffffffffffffffffffffffffffffffffffff1663e6a4390586856040518363ffffffff1660e01b815260040161070f929190611b1a565b602060405180830381865afa15801561072c573d6000803e3d6000fd5b505050506040513d601f19601f820116820180604052508101906107509190611b58565b9050600073ffffffffffffffffffffffffffffffffffffffff168173ffffffffffffffffffffffffffffffffffffffff16036107c1576040517f08c379a00000000000000000000000000000000000000000000000000000000081526004016107b890611bd1565b60405180910390fd5b6000836040516020016107d49190611544565b60405160208183030381529060405290506107f0868683610b8b565b505050505050565b61080061087e565b600073ffffffffffffffffffffffffffffffffffffffff168173ffffffffffffffffffffffffffffffffffffffff16036108725760006040517f1e4fbdf70000000000000000000000000000000000000000000000000000000081526004016108699190611544565b60405180910390fd5b61087b81610984565b50565b610886610ca9565b73ffffffffffffffffffffffffffffffffffffffff166108a461049f565b73ffffffffffffffffffffffffffffffffffffffff1614610903576108c7610ca9565b6040517f118cdaa70000000000000000000000000000000000000000000000000000000081526004016108fa9190611544565b60405180910390fd5b565b61097f838473ffffffffffffffffffffffffffffffffffffffff1663a9059cbb858560405160240161093892919061188a565b604051602081830303815290604052915060e01b6020820180517bffffffffffffffffffffffffffffffffffffffffffffffffffffffff8381831617835250505050610cb1565b505050565b60008060009054906101000a900473ffffffffffffffffffffffffffffffffffffffff169050816000806101000a81548173ffffffffffffffffffffffffffffffffffffffff021916908373ffffffffffffffffffffffffffffffffffffffff1602179055508173ffffffffffffffffffffffffffffffffffffffff168173ffffffffffffffffffffffffffffffffffffffff167f8be0079c531659141344cd1fd0a4f28419497f9722a3daafe3b4186f6b6457e060405160405180910390a35050565b600080610a56848685610d53565b90506000806002811115610a6d57610a6c611bf1565b5b826002811115610a8057610a7f611bf1565b5b03610ae9576000610ab3867f00000000000000000000000000000000000000000000000000000000000000008988610e7c565b9050610ae1817f0000000000000000000000000000000000000000000000000000000000000000878a610e7c565b915050610b7f565b60016002811115610afd57610afc611bf1565b5b826002811115610b1057610b0f611bf1565b5b03610b79576000610b43867f00000000000000000000000000000000000000000000000000000000000000008988610e7c565b9050610b71817f0000000000000000000000000000000000000000000000000000000000000000878a610e7c565b915050610b7e565b600080fd5b5b80925050509392505050565b6000600167ffffffffffffffff811115610ba857610ba7611c20565b5b604051908082528060200260200182016040528015610bd65781602001602082028036833780820191505090505b5090508381600081518110610bee57610bed6119a0565b5b602002602001019073ffffffffffffffffffffffffffffffffffffffff16908173ffffffffffffffffffffffffffffffffffffffff16815250506000600167ffffffffffffffff811115610c4557610c44611c20565b5b604051908082528060200260200182016040528015610c735781602001602082028036833780820191505090505b5090508381600081518110610c8b57610c8a6119a0565b5b602002602001018181525050610ca28282856110d4565b5050505050565b600033905090565b600080602060008451602086016000885af180610cd4576040513d6000823e3d81fd5b3d925060005191505060008214610cef576001811415610d0b565b60008473ffffffffffffffffffffffffffffffffffffffff163b145b15610d4d57836040517f5274afe7000000000000000000000000000000000000000000000000000000008152600401610d449190611544565b60405180910390fd5b50505050565b600080610d827f0000000000000000000000000000000000000000000000000000000000000000858588611208565b90506000610db27f0000000000000000000000000000000000000000000000000000000000000000868689611208565b905080821115610e1157610dc78683836113a2565b610e06576040517f08c379a0000000000000000000000000000000000000000000000000000000008152600401610dfd90611c9b565b60405180910390fd5b600092505050610e75565b80821015610e6e57610e248682846113a2565b610e63576040517f08c379a0000000000000000000000000000000000000000000000000000000008152600401610e5a90611c9b565b60405180910390fd5b600192505050610e75565b6002925050505b9392505050565b60008273ffffffffffffffffffffffffffffffffffffffff1663095ea7b385876040518363ffffffff1660e01b8152600401610eb992919061188a565b6020604051808303816000875af1158015610ed8573d6000803e3d6000fd5b505050506040513d601f19601f82011682018060405250810190610efc91906118df565b5060006064605f610f0f8787878b611208565b610f199190611cbb565b610f239190611d2c565b90506000600267ffffffffffffffff811115610f4257610f41611c20565b5b604051908082528060200260200182016040528015610f705781602001602082028036833780820191505090505b5090508481600081518110610f8857610f876119a0565b5b602002602001019073ffffffffffffffffffffffffffffffffffffffff16908173ffffffffffffffffffffffffffffffffffffffff16815250508381600181518110610fd757610fd66119a0565b5b602002602001019073ffffffffffffffffffffffffffffffffffffffff16908173ffffffffffffffffffffffffffffffffffffffff168152505060008673ffffffffffffffffffffffffffffffffffffffff166338ed17398985853061012c426110419190611ae6565b6040518663ffffffff1660e01b8152600401611061959493929190611e1b565b6000604051808303816000875af1158015611080573d6000803e3d6000fd5b505050506040513d6000823e3d601f19601f820116820180604052508101906110a99190611f95565b6001815181106110bc576110bb6119a0565b5b60200260200101519050809350505050949350505050565b60003090506000309050600080865167ffffffffffffffff8111156110fc576110fb611c20565b5b60405190808252806020026020018201604052801561112a5781602001602082028036833780820191505090505b50905060005b875181101561116757600082828151811061114e5761114d6119a0565b5b6020026020010181815250508080600101915050611130565b507f000000000000000000000000000000000000000000000000000000000000000073ffffffffffffffffffffffffffffffffffffffff1663ab9c4b5d85898985888b896040518863ffffffff1660e01b81526004016111cd9796959493929190612138565b600060405180830381600087803b1580156111e757600080fd5b505af11580156111fb573d6000803e3d6000fd5b5050505050505050505050565b600080600267ffffffffffffffff81111561122657611225611c20565b5b6040519080825280602002602001820160405280156112545781602001602082028036833780820191505090505b509050848160008151811061126c5761126b6119a0565b5b602002602001019073ffffffffffffffffffffffffffffffffffffffff16908173ffffffffffffffffffffffffffffffffffffffff168152505083816001815181106112bb576112ba6119a0565b5b602002602001019073ffffffffffffffffffffffffffffffffffffffff16908173ffffffffffffffffffffffffffffffffffffffff168152505060008673ffffffffffffffffffffffffffffffffffffffff1663d06ca61f85846040518363ffffffff1660e01b81526004016113329291906121c3565b600060405180830381865afa15801561134f573d6000803e3d6000fd5b505050506040513d6000823e3d601f19601f820116820180604052508101906113789190611f95565b60018151811061138b5761138a6119a0565b5b602002602001015190508092505050949350505050565b60008083670de0b6b3a764000084866113bb91906121f3565b6113c59190611cbb565b6113cf9190611d2c565b905060006103e86003876113e39190611cbb565b60026113ef9190611cbb565b6113f99190611d2c565b90508082111561140e57600192505050611415565b6000925050505b9392505050565b600073ffffffffffffffffffffffffffffffffffffffff82169050919050565b6000819050919050565b600061146161145c6114578461141c565b61143c565b61141c565b9050919050565b600061147382611446565b9050919050565b600061148582611468565b9050919050565b6114958161147a565b82525050565b60006020820190506114b0600083018461148c565b92915050565b6000604051905090565b600080fd5b600080fd5b60006114d58261141c565b9050919050565b6114e5816114ca565b81146114f057600080fd5b50565b600081359050611502816114dc565b92915050565b60006020828403121561151e5761151d6114c0565b5b600061152c848285016114f3565b91505092915050565b61153e816114ca565b82525050565b60006020820190506115596000830184611535565b92915050565b600080fd5b600080fd5b600080fd5b60008083601f8401126115845761158361155f565b5b8235905067ffffffffffffffff8111156115a1576115a0611564565b5b6020830191508360208202830111156115bd576115bc611569565b5b9250929050565b60008083601f8401126115da576115d961155f565b5b8235905067ffffffffffffffff8111156115f7576115f6611564565b5b60208301915083602082028301111561161357611612611569565b5b9250929050565b60008083601f8401126116305761162f61155f565b5b8235905067ffffffffffffffff81111561164d5761164c611564565b5b60208301915083600182028301111561166957611668611569565b5b9250929050565b600080600080600080600080600060a08a8c031215611692576116916114c0565b5b60008a013567ffffffffffffffff8111156116b0576116af6114c5565b5b6116bc8c828d0161156e565b995099505060208a013567ffffffffffffffff8111156116df576116de6114c5565b5b6116eb8c828d016115c4565b975097505060408a013567ffffffffffffffff81111561170e5761170d6114c5565b5b61171a8c828d016115c4565b9550955050606061172d8c828d016114f3565b93505060808a013567ffffffffffffffff81111561174e5761174d6114c5565b5b61175a8c828d0161161a565b92509250509295985092959850929598565b60008115159050919050565b6117818161176c565b82525050565b600060208201905061179c6000830184611778565b92915050565b60006117ad82611468565b9050919050565b6117bd816117a2565b82525050565b60006020820190506117d860008301846117b4565b92915050565b6000819050919050565b6117f1816117de565b81146117fc57600080fd5b50565b60008135905061180e816117e8565b92915050565b6000806000806080858703121561182e5761182d6114c0565b5b600061183c878288016114f3565b945050602061184d878288016117ff565b935050604061185e878288016114f3565b925050606061186f878288016114f3565b91505092959194509250565b611884816117de565b82525050565b600060408201905061189f6000830185611535565b6118ac602083018461187b565b9392505050565b6118bc8161176c565b81146118c757600080fd5b50565b6000815190506118d9816118b3565b92915050565b6000602082840312156118f5576118f46114c0565b5b6000611903848285016118ca565b91505092915050565b60006060820190506119216000830186611535565b61192e6020830185611535565b61193b604083018461187b565b949350505050565b600081519050611952816117e8565b92915050565b60006020828403121561196e5761196d6114c0565b5b600061197c84828501611943565b91505092915050565b600060208201905061199a600083018461187b565b92915050565b7f4e487b7100000000000000000000000000000000000000000000000000000000600052603260045260246000fd5b600082825260208201905092915050565b7f4e6f7420706f6f6c000000000000000000000000000000000000000000000000600082015250565b6000611a166008836119cf565b9150611a21826119e0565b602082019050919050565b60006020820190508181036000830152611a4581611a09565b9050919050565b6000611a578261141c565b9050919050565b611a6781611a4c565b8114611a7257600080fd5b50565b600081359050611a8481611a5e565b92915050565b600060208284031215611aa057611a9f6114c0565b5b6000611aae84828501611a75565b91505092915050565b7f4e487b7100000000000000000000000000000000000000000000000000000000600052601160045260246000fd5b6000611af1826117de565b9150611afc836117de565b9250828201905080821115611b1457611b13611ab7565b5b92915050565b6000604082019050611b2f6000830185611535565b611b3c6020830184611535565b9392505050565b600081519050611b52816114dc565b92915050565b600060208284031215611b6e57611b6d6114c0565b5b6000611b7c84828501611b43565b91505092915050565b7f506169724164647265737320646f6573206e6f74206578697374210000000000600082015250565b6000611bbb601b836119cf565b9150611bc682611b85565b602082019050919050565b60006020820190508181036000830152611bea81611bae565b9050919050565b7f4e487b7100000000000000000000000000000000000000000000000000000000600052602160045260246000fd5b7f4e487b7100000000000000000000000000000000000000000000000000000000600052604160045260246000fd5b7f417262697472616765206e6f742070726f66697461626c650000000000000000600082015250565b6000611c856018836119cf565b9150611c9082611c4f565b602082019050919050565b60006020820190508181036000830152611cb481611c78565b9050919050565b6000611cc6826117de565b9150611cd1836117de565b9250828202611cdf816117de565b91508282048414831517611cf657611cf5611ab7565b5b5092915050565b7f4e487b7100000000000000000000000000000000000000000000000000000000600052601260045260246000fd5b6000611d37826117de565b9150611d42836117de565b925082611d5257611d51611cfd565b5b828204905092915050565b600081519050919050565b600082825260208201905092915050565b6000819050602082019050919050565b611d92816114ca565b82525050565b6000611da48383611d89565b60208301905092915050565b6000602082019050919050565b6000611dc882611d5d565b611dd28185611d68565b9350611ddd83611d79565b8060005b83811015611e0e578151611df58882611d98565b9750611e0083611db0565b925050600181019050611de1565b5085935050505092915050565b600060a082019050611e30600083018861187b565b611e3d602083018761187b565b8181036040830152611e4f8186611dbd565b9050611e5e6060830185611535565b611e6b608083018461187b565b9695505050505050565b6000601f19601f8301169050919050565b611e8f82611e75565b810181811067ffffffffffffffff82111715611eae57611ead611c20565b5b80604052505050565b6000611ec16114b6565b9050611ecd8282611e86565b919050565b600067ffffffffffffffff821115611eed57611eec611c20565b5b602082029050602081019050919050565b6000611f11611f0c84611ed2565b611eb7565b90508083825260208201905060208402830185811115611f3457611f33611569565b5b835b81811015611f5d5780611f498882611943565b845260208401935050602081019050611f36565b5050509392505050565b600082601f830112611f7c57611f7b61155f565b5b8151611f8c848260208601611efe565b91505092915050565b600060208284031215611fab57611faa6114c0565b5b600082015167ffffffffffffffff811115611fc957611fc86114c5565b5b611fd584828501611f67565b91505092915050565b600081519050919050565b600082825260208201905092915050565b6000819050602082019050919050565b612013816117de565b82525050565b6000612025838361200a565b60208301905092915050565b6000602082019050919050565b600061204982611fde565b6120538185611fe9565b935061205e83611ffa565b8060005b8381101561208f5781516120768882612019565b975061208183612031565b925050600181019050612062565b5085935050505092915050565b600081519050919050565b600082825260208201905092915050565b60005b838110156120d65780820151818401526020810190506120bb565b60008484015250505050565b60006120ed8261209c565b6120f781856120a7565b93506121078185602086016120b8565b61211081611e75565b840191505092915050565b600061ffff82169050919050565b6121328161211b565b82525050565b600060e08201905061214d600083018a611535565b818103602083015261215f8189611dbd565b90508181036040830152612173818861203e565b90508181036060830152612187818761203e565b90506121966080830186611535565b81810360a08301526121a881856120e2565b90506121b760c0830184612129565b98975050505050505050565b60006040820190506121d8600083018561187b565b81810360208301526121ea8184611dbd565b90509392505050565b60006121fe826117de565b9150612209836117de565b925082820390508181111561222157612220611ab7565b5b9291505056fea264697066735822122053aa304cea054f9f3d78591f0defb59701ff4ea804dbb49bf38caca213d0cf6364736f6c634300081c0033","opcodes":"PUSH2 0x100 PUSH1 0x40 MSTORE CALLVALUE DUP1 ISZERO PUSH2 0x11 JUMPI PUSH1 0x0 DUP1 REVERT JUMPDEST POP PUSH1 0x40 MLOAD PUSH2 0x2696 CODESIZE SUB DUP1 PUSH2 0x2696 DUP4 CODECOPY DUP2 DUP2 ADD PUSH1 0x40 MSTORE DUP2 ADD SWAP1 PUSH2 0x33 SWAP2 SWAP1 PUSH2 0x325 JUMP JUMPDEST CALLER DUP4 DUP1 PUSH20 0xFFFFFFFFFFFFFFFFFFFFFFFFFFFFFFFFFFFFFFFF AND PUSH1 0x80 DUP2 PUSH20 0xFFFFFFFFFFFFFFFFFFFFFFFFFFFFFFFFFFFFFFFF AND DUP2 MSTORE POP POP DUP1 PUSH20 0xFFFFFFFFFFFFFFFFFFFFFFFFFFFFFFFFFFFFFFFF AND PUSH4 0x261BF8B PUSH1 0x40 MLOAD DUP2 PUSH4 0xFFFFFFFF AND PUSH1 0xE0 SHL DUP2 MSTORE PUSH1 0x4 ADD PUSH1 0x20 PUSH1 0x40 MLOAD DUP1 DUP4 SUB DUP2 DUP7 GAS STATICCALL ISZERO DUP1 ISZERO PUSH2 0xB4 JUMPI RETURNDATASIZE PUSH1 0x0 DUP1 RETURNDATACOPY RETURNDATASIZE PUSH1 0x0 REVERT JUMPDEST POP POP POP POP PUSH1 0x40 MLOAD RETURNDATASIZE PUSH1 0x1F NOT PUSH1 0x1F DUP3 ADD AND DUP3 ADD DUP1 PUSH1 0x40 MSTORE POP DUP2 ADD SWAP1 PUSH2 0xD8 SWAP2 SWAP1 PUSH2 0x378 JUMP JUMPDEST PUSH20 0xFFFFFFFFFFFFFFFFFFFFFFFFFFFFFFFFFFFFFFFF AND PUSH1 0xA0 DUP2 PUSH20 0xFFFFFFFFFFFFFFFFFFFFFFFFFFFFFFFFFFFFFFFF AND DUP2 MSTORE POP POP POP PUSH1 0x0 PUSH20 0xFFFFFFFFFFFFFFFFFFFFFFFFFFFFFFFFFFFFFFFF AND DUP2 PUSH20 0xFFFFFFFFFFFFFFFFFFFFFFFFFFFFFFFFFFFFFFFF AND SUB PUSH2 0x17E JUMPI PUSH1 0x0 PUSH1 0x40 MLOAD PUSH32 0x1E4FBDF700000000000000000000000000000000000000000000000000000000 DUP2 MSTORE PUSH1 0x4 ADD PUSH2 0x175 SWAP2 SWAP1 PUSH2 0x3B4 JUMP JUMPDEST PUSH1 0x40 MLOAD DUP1 SWAP2 SUB SWAP1 REVERT JUMPDEST PUSH2 0x18D DUP2 PUSH2 0x1FE PUSH1 0x20 SHL PUSH1 0x20 SHR JUMP JUMPDEST POP DUP2 PUSH20 0xFFFFFFFFFFFFFFFFFFFFFFFFFFFFFFFFFFFFFFFF AND PUSH1 0xC0 DUP2 PUSH20 0xFFFFFFFFFFFFFFFFFFFFFFFFFFFFFFFFFFFFFFFF AND DUP2 MSTORE POP POP DUP1 PUSH20 0xFFFFFFFFFFFFFFFFFFFFFFFFFFFFFFFFFFFFFFFF AND PUSH1 0xE0 DUP2 PUSH20 0xFFFFFFFFFFFFFFFFFFFFFFFFFFFFFFFFFFFFFFFF AND DUP2 MSTORE POP POP POP POP POP PUSH2 0x3CF JUMP JUMPDEST PUSH1 0x0 DUP1 PUSH1 0x0 SWAP1 SLOAD SWAP1 PUSH2 0x100 EXP SWAP1 DIV PUSH20 0xFFFFFFFFFFFFFFFFFFFFFFFFFFFFFFFFFFFFFFFF AND SWAP1 POP DUP2 PUSH1 0x0 DUP1 PUSH2 0x100 EXP DUP2 SLOAD DUP2 PUSH20 0xFFFFFFFFFFFFFFFFFFFFFFFFFFFFFFFFFFFFFFFF MUL NOT AND SWAP1 DUP4 PUSH20 0xFFFFFFFFFFFFFFFFFFFFFFFFFFFFFFFFFFFFFFFF AND MUL OR SWAP1 SSTORE POP DUP2 PUSH20 0xFFFFFFFFFFFFFFFFFFFFFFFFFFFFFFFFFFFFFFFF AND DUP2 PUSH20 0xFFFFFFFFFFFFFFFFFFFFFFFFFFFFFFFFFFFFFFFF AND PUSH32 0x8BE0079C531659141344CD1FD0A4F28419497F9722A3DAAFE3B4186F6B6457E0 PUSH1 0x40 MLOAD PUSH1 0x40 MLOAD DUP1 SWAP2 SUB SWAP1 LOG3 POP POP JUMP JUMPDEST PUSH1 0x0 DUP1 REVERT JUMPDEST PUSH1 0x0 PUSH20 0xFFFFFFFFFFFFFFFFFFFFFFFFFFFFFFFFFFFFFFFF DUP3 AND SWAP1 POP SWAP2 SWAP1 POP JUMP JUMPDEST PUSH1 0x0 PUSH2 0x2F2 DUP3 PUSH2 0x2C7 JUMP JUMPDEST SWAP1 POP SWAP2 SWAP1 POP JUMP JUMPDEST PUSH2 0x302 DUP2 PUSH2 0x2E7 JUMP JUMPDEST DUP2 EQ PUSH2 0x30D JUMPI PUSH1 0x0 DUP1 REVERT JUMPDEST POP JUMP JUMPDEST PUSH1 0x0 DUP2 MLOAD SWAP1 POP PUSH2 0x31F DUP2 PUSH2 0x2F9 JUMP JUMPDEST SWAP3 SWAP2 POP POP JUMP JUMPDEST PUSH1 0x0 DUP1 PUSH1 0x0 PUSH1 0x60 DUP5 DUP7 SUB SLT ISZERO PUSH2 0x33E JUMPI PUSH2 0x33D PUSH2 0x2C2 JUMP JUMPDEST JUMPDEST PUSH1 0x0 PUSH2 0x34C DUP7 DUP3 DUP8 ADD PUSH2 0x310 JUMP JUMPDEST SWAP4 POP POP PUSH1 0x20 PUSH2 0x35D DUP7 DUP3 DUP8 ADD PUSH2 0x310 JUMP JUMPDEST SWAP3 POP POP PUSH1 0x40 PUSH2 0x36E DUP7 DUP3 DUP8 ADD PUSH2 0x310 JUMP JUMPDEST SWAP2 POP POP SWAP3 POP SWAP3 POP SWAP3 JUMP JUMPDEST PUSH1 0x0 PUSH1 0x20 DUP3 DUP5 SUB SLT ISZERO PUSH2 0x38E JUMPI PUSH2 0x38D PUSH2 0x2C2 JUMP JUMPDEST JUMPDEST PUSH1 0x0 PUSH2 0x39C DUP5 DUP3 DUP6 ADD PUSH2 0x310 JUMP JUMPDEST SWAP2 POP POP SWAP3 SWAP2 POP POP JUMP JUMPDEST PUSH2 0x3AE DUP2 PUSH2 0x2E7 JUMP JUMPDEST DUP3 MSTORE POP POP JUMP JUMPDEST PUSH1 0x0 PUSH1 0x20 DUP3 ADD SWAP1 POP PUSH2 0x3C9 PUSH1 0x0 DUP4 ADD DUP5 PUSH2 0x3A5 JUMP JUMPDEST SWAP3 SWAP2 POP POP JUMP JUMPDEST PUSH1 0x80 MLOAD PUSH1 0xA0 MLOAD PUSH1 0xC0 MLOAD PUSH1 0xE0 MLOAD PUSH2 0x225D PUSH2 0x439 PUSH1 0x0 CODECOPY PUSH1 0x0 DUP2 DUP2 PUSH2 0xABB ADD MSTORE DUP2 DUP2 PUSH2 0xB1D ADD MSTORE PUSH2 0xD8B ADD MSTORE PUSH1 0x0 DUP2 DUP2 PUSH2 0xA8D ADD MSTORE DUP2 DUP2 PUSH2 0xB4B ADD MSTORE PUSH2 0xD5B ADD MSTORE PUSH1 0x0 DUP2 DUP2 PUSH2 0x536 ADD MSTORE DUP2 DUP2 PUSH2 0x60F ADD MSTORE DUP2 DUP2 PUSH2 0x6A8 ADD MSTORE PUSH2 0x116A ADD MSTORE PUSH1 0x0 PUSH2 0x19E ADD MSTORE PUSH2 0x225D PUSH1 0x0 RETURN INVALID PUSH1 0x80 PUSH1 0x40 MSTORE CALLVALUE DUP1 ISZERO PUSH2 0x10 JUMPI PUSH1 0x0 DUP1 REVERT JUMPDEST POP PUSH1 0x4 CALLDATASIZE LT PUSH2 0x93 JUMPI PUSH1 0x0 CALLDATALOAD PUSH1 0xE0 SHR DUP1 PUSH4 0x8DA5CB5B GT PUSH2 0x66 JUMPI DUP1 PUSH4 0x8DA5CB5B EQ PUSH2 0xF8 JUMPI DUP1 PUSH4 0x920F5C84 EQ PUSH2 0x116 JUMPI DUP1 PUSH4 0xB4DCFC77 EQ PUSH2 0x146 JUMPI DUP1 PUSH4 0xF058FB1B EQ PUSH2 0x164 JUMPI DUP1 PUSH4 0xF2FDE38B EQ PUSH2 0x180 JUMPI PUSH2 0x93 JUMP JUMPDEST DUP1 PUSH4 0x542975C EQ PUSH2 0x98 JUMPI DUP1 PUSH4 0x42E9C6CE EQ PUSH2 0xB6 JUMPI DUP1 PUSH4 0x51CFF8D9 EQ PUSH2 0xD2 JUMPI DUP1 PUSH4 0x715018A6 EQ PUSH2 0xEE JUMPI JUMPDEST PUSH1 0x0 DUP1 REVERT JUMPDEST PUSH2 0xA0 PUSH2 0x19C JUMP JUMPDEST PUSH1 0x40 MLOAD PUSH2 0xAD SWAP2 SWAP1 PUSH2 0x149B JUMP JUMPDEST PUSH1 0x40 MLOAD DUP1 SWAP2 SUB SWAP1 RETURN JUMPDEST PUSH2 0xD0 PUSH1 0x4 DUP1 CALLDATASIZE SUB DUP2 ADD SWAP1 PUSH2 0xCB SWAP2 SWAP1 PUSH2 0x1508 JUMP JUMPDEST PUSH2 0x1C0 JUMP JUMPDEST STOP JUMPDEST PUSH2 0xEC PUSH1 0x4 DUP1 CALLDATASIZE SUB DUP2 ADD SWAP1 PUSH2 0xE7 SWAP2 SWAP1 PUSH2 0x1508 JUMP JUMPDEST PUSH2 0x2D1 JUMP JUMPDEST STOP JUMPDEST PUSH2 0xF6 PUSH2 0x48B JUMP JUMPDEST STOP JUMPDEST PUSH2 0x100 PUSH2 0x49F JUMP JUMPDEST PUSH1 0x40 MLOAD PUSH2 0x10D SWAP2 SWAP1 PUSH2 0x1544 JUMP JUMPDEST PUSH1 0x40 MLOAD DUP1 SWAP2 SUB SWAP1 RETURN JUMPDEST PUSH2 0x130 PUSH1 0x4 DUP1 CALLDATASIZE SUB DUP2 ADD SWAP1 PUSH2 0x12B SWAP2 SWAP1 PUSH2 0x1670 JUMP JUMPDEST PUSH2 0x4C8 JUMP JUMPDEST PUSH1 0x40 MLOAD PUSH2 0x13D SWAP2 SWAP1 PUSH2 0x1787 JUMP JUMPDEST PUSH1 0x40 MLOAD DUP1 SWAP2 SUB SWAP1 RETURN JUMPDEST PUSH2 0x14E PUSH2 0x6A6 JUMP JUMPDEST PUSH1 0x40 MLOAD PUSH2 0x15B SWAP2 SWAP1 PUSH2 0x17C3 JUMP JUMPDEST PUSH1 0x40 MLOAD DUP1 SWAP2 SUB SWAP1 RETURN JUMPDEST PUSH2 0x17E PUSH1 0x4 DUP1 CALLDATASIZE SUB DUP2 ADD SWAP1 PUSH2 0x179 SWAP2 SWAP1 PUSH2 0x1814 JUMP JUMPDEST PUSH2 0x6CA JUMP JUMPDEST STOP JUMPDEST PUSH2 0x19A PUSH1 0x4 DUP1 CALLDATASIZE SUB DUP2 ADD SWAP1 PUSH2 0x195 SWAP2 SWAP1 PUSH2 0x1508 JUMP JUMPDEST PUSH2 0x7F8 JUMP JUMPDEST STOP JUMPDEST PUSH32 0x0 DUP2 JUMP JUMPDEST PUSH2 0x1C8 PUSH2 0x87E JUMP JUMPDEST PUSH1 0x0 DUP2 SWAP1 POP DUP1 PUSH20 0xFFFFFFFFFFFFFFFFFFFFFFFFFFFFFFFFFFFFFFFF AND PUSH4 0x95EA7B3 CALLER SELFBALANCE PUSH1 0x40 MLOAD DUP4 PUSH4 0xFFFFFFFF AND PUSH1 0xE0 SHL DUP2 MSTORE PUSH1 0x4 ADD PUSH2 0x208 SWAP3 SWAP2 SWAP1 PUSH2 0x188A JUMP JUMPDEST PUSH1 0x20 PUSH1 0x40 MLOAD DUP1 DUP4 SUB DUP2 PUSH1 0x0 DUP8 GAS CALL ISZERO DUP1 ISZERO PUSH2 0x227 JUMPI RETURNDATASIZE PUSH1 0x0 DUP1 RETURNDATACOPY RETURNDATASIZE PUSH1 0x0 REVERT JUMPDEST POP POP POP POP PUSH1 0x40 MLOAD RETURNDATASIZE PUSH1 0x1F NOT PUSH1 0x1F DUP3 ADD AND DUP3 ADD DUP1 PUSH1 0x40 MSTORE POP DUP2 ADD SWAP1 PUSH2 0x24B SWAP2 SWAP1 PUSH2 0x18DF JUMP JUMPDEST POP DUP1 PUSH20 0xFFFFFFFFFFFFFFFFFFFFFFFFFFFFFFFFFFFFFFFF AND PUSH4 0x23B872DD ADDRESS CALLER SELFBALANCE PUSH1 0x40 MLOAD DUP5 PUSH4 0xFFFFFFFF AND PUSH1 0xE0 SHL DUP2 MSTORE PUSH1 0x4 ADD PUSH2 0x289 SWAP4 SWAP3 SWAP2 SWAP1 PUSH2 0x190C JUMP JUMPDEST PUSH1 0x20 PUSH1 0x40 MLOAD DUP1 DUP4 SUB DUP2 PUSH1 0x0 DUP8 GAS CALL ISZERO DUP1 ISZERO PUSH2 0x2A8 JUMPI RETURNDATASIZE PUSH1 0x0 DUP1 RETURNDATACOPY RETURNDATASIZE PUSH1 0x0 REVERT JUMPDEST POP POP POP POP PUSH1 0x40 MLOAD RETURNDATASIZE PUSH1 0x1F NOT PUSH1 0x1F DUP3 ADD AND DUP3 ADD DUP1 PUSH1 0x40 MSTORE POP DUP2 ADD SWAP1 PUSH2 0x2CC SWAP2 SWAP1 PUSH2 0x18DF JUMP JUMPDEST POP POP POP JUMP JUMPDEST PUSH2 0x2D9 PUSH2 0x87E JUMP JUMPDEST PUSH1 0x0 DUP1 PUSH20 0xFFFFFFFFFFFFFFFFFFFFFFFFFFFFFFFFFFFFFFFF AND DUP3 PUSH20 0xFFFFFFFFFFFFFFFFFFFFFFFFFFFFFFFFFFFFFFFF AND SUB PUSH2 0x37A JUMPI PUSH1 0x0 ADDRESS SWAP1 POP DUP1 PUSH20 0xFFFFFFFFFFFFFFFFFFFFFFFFFFFFFFFFFFFFFFFF AND BALANCE SWAP2 POP CALLER PUSH20 0xFFFFFFFFFFFFFFFFFFFFFFFFFFFFFFFFFFFFFFFF AND PUSH2 0x8FC DUP4 SWAP1 DUP2 ISZERO MUL SWAP1 PUSH1 0x40 MLOAD PUSH1 0x0 PUSH1 0x40 MLOAD DUP1 DUP4 SUB DUP2 DUP6 DUP9 DUP9 CALL SWAP4 POP POP POP POP ISZERO DUP1 ISZERO PUSH2 0x373 JUMPI RETURNDATASIZE PUSH1 0x0 DUP1 RETURNDATACOPY RETURNDATASIZE PUSH1 0x0 REVERT JUMPDEST POP POP PUSH2 0x422 JUMP JUMPDEST DUP2 PUSH20 0xFFFFFFFFFFFFFFFFFFFFFFFFFFFFFFFFFFFFFFFF AND PUSH4 0x70A08231 ADDRESS PUSH1 0x40 MLOAD DUP3 PUSH4 0xFFFFFFFF AND PUSH1 0xE0 SHL DUP2 MSTORE PUSH1 0x4 ADD PUSH2 0x3B3 SWAP2 SWAP1 PUSH2 0x1544 JUMP JUMPDEST PUSH1 0x20 PUSH1 0x40 MLOAD DUP1 DUP4 SUB DUP2 DUP7 GAS STATICCALL ISZERO DUP1 ISZERO PUSH2 0x3D0 JUMPI RETURNDATASIZE PUSH1 0x0 DUP1 RETURNDATACOPY RETURNDATASIZE PUSH1 0x0 REVERT JUMPDEST POP POP POP POP PUSH1 0x40 MLOAD RETURNDATASIZE PUSH1 0x1F NOT PUSH1 0x1F DUP3 ADD AND DUP3 ADD DUP1 PUSH1 0x40 MSTORE POP DUP2 ADD SWAP1 PUSH2 0x3F4 SWAP2 SWAP1 PUSH2 0x1958 JUMP JUMPDEST SWAP1 POP PUSH2 0x421 CALLER DUP3 DUP5 PUSH20 0xFFFFFFFFFFFFFFFFFFFFFFFFFFFFFFFFFFFFFFFF AND PUSH2 0x905 SWAP1 SWAP3 SWAP2 SWAP1 PUSH4 0xFFFFFFFF AND JUMP JUMPDEST JUMPDEST DUP2 PUSH20 0xFFFFFFFFFFFFFFFFFFFFFFFFFFFFFFFFFFFFFFFF AND CALLER PUSH20 0xFFFFFFFFFFFFFFFFFFFFFFFFFFFFFFFFFFFFFFFF AND PUSH32 0x9207361CC2A04B9C7A06691DF1EB87C6A63957AE88BF01D0D18C81E3D1272099 DUP4 PUSH1 0x40 MLOAD PUSH2 0x47F SWAP2 SWAP1 PUSH2 0x1985 JUMP JUMPDEST PUSH1 0x40 MLOAD DUP1 SWAP2 SUB SWAP1 LOG3 POP POP JUMP JUMPDEST PUSH2 0x493 PUSH2 0x87E JUMP JUMPDEST PUSH2 0x49D PUSH1 0x0 PUSH2 0x984 JUMP JUMPDEST JUMP JUMPDEST PUSH1 0x0 DUP1 PUSH1 0x0 SWAP1 SLOAD SWAP1 PUSH2 0x100 EXP SWAP1 DIV PUSH20 0xFFFFFFFFFFFFFFFFFFFFFFFFFFFFFFFFFFFFFFFF AND SWAP1 POP SWAP1 JUMP JUMPDEST PUSH1 0x0 DUP1 DUP11 DUP11 PUSH1 0x0 DUP2 DUP2 LT PUSH2 0x4DF JUMPI PUSH2 0x4DE PUSH2 0x19A0 JUMP JUMPDEST JUMPDEST SWAP1 POP PUSH1 0x20 MUL ADD PUSH1 0x20 DUP2 ADD SWAP1 PUSH2 0x4F4 SWAP2 SWAP1 PUSH2 0x1508 JUMP JUMPDEST SWAP1 POP PUSH1 0x0 DUP10 DUP10 PUSH1 0x0 DUP2 DUP2 LT PUSH2 0x50C JUMPI PUSH2 0x50B PUSH2 0x19A0 JUMP JUMPDEST JUMPDEST SWAP1 POP PUSH1 0x20 MUL ADD CALLDATALOAD SWAP1 POP PUSH1 0x0 DUP9 DUP9 PUSH1 0x0 DUP2 DUP2 LT PUSH2 0x52B JUMPI PUSH2 0x52A PUSH2 0x19A0 JUMP JUMPDEST JUMPDEST SWAP1 POP PUSH1 0x20 MUL ADD CALLDATALOAD SWAP1 POP PUSH32 0x0 PUSH20 0xFFFFFFFFFFFFFFFFFFFFFFFFFFFFFFFFFFFFFFFF AND CALLER PUSH20 0xFFFFFFFFFFFFFFFFFFFFFFFFFFFFFFFFFFFFFFFF AND EQ PUSH2 0x5C2 JUMPI PUSH1 0x40 MLOAD PUSH32 0x8C379A000000000000000000000000000000000000000000000000000000000 DUP2 MSTORE PUSH1 0x4 ADD PUSH2 0x5B9 SWAP1 PUSH2 0x1A2C JUMP JUMPDEST PUSH1 0x40 MLOAD DUP1 SWAP2 SUB SWAP1 REVERT JUMPDEST PUSH1 0x0 DUP7 DUP7 DUP2 ADD SWAP1 PUSH2 0x5D3 SWAP2 SWAP1 PUSH2 0x1A8A JUMP JUMPDEST SWAP1 POP PUSH2 0x5E0 DUP5 DUP5 DUP4 PUSH2 0xA48 JUMP JUMPDEST POP PUSH1 0x0 DUP3 DUP5 PUSH2 0x5EF SWAP2 SWAP1 PUSH2 0x1AE6 JUMP JUMPDEST SWAP1 POP DUP5 PUSH20 0xFFFFFFFFFFFFFFFFFFFFFFFFFFFFFFFFFFFFFFFF AND PUSH4 0x95EA7B3 PUSH32 0x0 DUP4 PUSH1 0x40 MLOAD DUP4 PUSH4 0xFFFFFFFF AND PUSH1 0xE0 SHL DUP2 MSTORE PUSH1 0x4 ADD PUSH2 0x64C SWAP3 SWAP2 SWAP1 PUSH2 0x188A JUMP JUMPDEST PUSH1 0x20 PUSH1 0x40 MLOAD DUP1 DUP4 SUB DUP2 PUSH1 0x0 DUP8 GAS CALL ISZERO DUP1 ISZERO PUSH2 0x66B JUMPI RETURNDATASIZE PUSH1 0x0 DUP1 RETURNDATACOPY RETURNDATASIZE PUSH1 0x0 REVERT JUMPDEST POP POP POP POP PUSH1 0x40 MLOAD RETURNDATASIZE PUSH1 0x1F NOT PUSH1 0x1F DUP3 ADD AND DUP3 ADD DUP1 PUSH1 0x40 MSTORE POP DUP2 ADD SWAP1 PUSH2 0x68F SWAP2 SWAP1 PUSH2 0x18DF JUMP JUMPDEST POP PUSH1 0x1 SWAP6 POP POP POP POP POP POP SWAP10 SWAP9 POP POP POP POP POP POP POP POP POP JUMP JUMPDEST PUSH32 0x0 DUP2 JUMP JUMPDEST PUSH2 0x6D2 PUSH2 0x87E JUMP JUMPDEST PUSH1 0x0 DUP2 PUSH20 0xFFFFFFFFFFFFFFFFFFFFFFFFFFFFFFFFFFFFFFFF AND PUSH4 0xE6A43905 DUP7 DUP6 PUSH1 0x40 MLOAD DUP4 PUSH4 0xFFFFFFFF AND PUSH1 0xE0 SHL DUP2 MSTORE PUSH1 0x4 ADD PUSH2 0x70F SWAP3 SWAP2 SWAP1 PUSH2 0x1B1A JUMP JUMPDEST PUSH1 0x20 PUSH1 0x40 MLOAD DUP1 DUP4 SUB DUP2 DUP7 GAS STATICCALL ISZERO DUP1 ISZERO PUSH2 0x72C JUMPI RETURNDATASIZE PUSH1 0x0 DUP1 RETURNDATACOPY RETURNDATASIZE PUSH1 0x0 REVERT JUMPDEST POP POP POP POP PUSH1 0x40 MLOAD RETURNDATASIZE PUSH1 0x1F NOT PUSH1 0x1F DUP3 ADD AND DUP3 ADD DUP1 PUSH1 0x40 MSTORE POP DUP2 ADD SWAP1 PUSH2 0x750 SWAP2 SWAP1 PUSH2 0x1B58 JUMP JUMPDEST SWAP1 POP PUSH1 0x0 PUSH20 0xFFFFFFFFFFFFFFFFFFFFFFFFFFFFFFFFFFFFFFFF AND DUP2 PUSH20 0xFFFFFFFFFFFFFFFFFFFFFFFFFFFFFFFFFFFFFFFF AND SUB PUSH2 0x7C1 JUMPI PUSH1 0x40 MLOAD PUSH32 0x8C379A000000000000000000000000000000000000000000000000000000000 DUP2 MSTORE PUSH1 0x4 ADD PUSH2 0x7B8 SWAP1 PUSH2 0x1BD1 JUMP JUMPDEST PUSH1 0x40 MLOAD DUP1 SWAP2 SUB SWAP1 REVERT JUMPDEST PUSH1 0x0 DUP4 PUSH1 0x40 MLOAD PUSH1 0x20 ADD PUSH2 0x7D4 SWAP2 SWAP1 PUSH2 0x1544 JUMP JUMPDEST PUSH1 0x40 MLOAD PUSH1 0x20 DUP2 DUP4 SUB SUB DUP2 MSTORE SWAP1 PUSH1 0x40 MSTORE SWAP1 POP PUSH2 0x7F0 DUP7 DUP7 DUP4 PUSH2 0xB8B JUMP JUMPDEST POP POP POP POP POP POP JUMP JUMPDEST PUSH2 0x800 PUSH2 0x87E JUMP JUMPDEST PUSH1 0x0 PUSH20 0xFFFFFFFFFFFFFFFFFFFFFFFFFFFFFFFFFFFFFFFF AND DUP2 PUSH20 0xFFFFFFFFFFFFFFFFFFFFFFFFFFFFFFFFFFFFFFFF AND SUB PUSH2 0x872 JUMPI PUSH1 0x0 PUSH1 0x40 MLOAD PUSH32 0x1E4FBDF700000000000000000000000000000000000000000000000000000000 DUP2 MSTORE PUSH1 0x4 ADD PUSH2 0x869 SWAP2 SWAP1 PUSH2 0x1544 JUMP JUMPDEST PUSH1 0x40 MLOAD DUP1 SWAP2 SUB SWAP1 REVERT JUMPDEST PUSH2 0x87B DUP2 PUSH2 0x984 JUMP JUMPDEST POP JUMP JUMPDEST PUSH2 0x886 PUSH2 0xCA9 JUMP JUMPDEST PUSH20 0xFFFFFFFFFFFFFFFFFFFFFFFFFFFFFFFFFFFFFFFF AND PUSH2 0x8A4 PUSH2 0x49F JUMP JUMPDEST PUSH20 0xFFFFFFFFFFFFFFFFFFFFFFFFFFFFFFFFFFFFFFFF AND EQ PUSH2 0x903 JUMPI PUSH2 0x8C7 PUSH2 0xCA9 JUMP JUMPDEST PUSH1 0x40 MLOAD PUSH32 0x118CDAA700000000000000000000000000000000000000000000000000000000 DUP2 MSTORE PUSH1 0x4 ADD PUSH2 0x8FA SWAP2 SWAP1 PUSH2 0x1544 JUMP JUMPDEST PUSH1 0x40 MLOAD DUP1 SWAP2 SUB SWAP1 REVERT JUMPDEST JUMP JUMPDEST PUSH2 0x97F DUP4 DUP5 PUSH20 0xFFFFFFFFFFFFFFFFFFFFFFFFFFFFFFFFFFFFFFFF AND PUSH4 0xA9059CBB DUP6 DUP6 PUSH1 0x40 MLOAD PUSH1 0x24 ADD PUSH2 0x938 SWAP3 SWAP2 SWAP1 PUSH2 0x188A JUMP JUMPDEST PUSH1 0x40 MLOAD PUSH1 0x20 DUP2 DUP4 SUB SUB DUP2 MSTORE SWAP1 PUSH1 0x40 MSTORE SWAP2 POP PUSH1 0xE0 SHL PUSH1 0x20 DUP3 ADD DUP1 MLOAD PUSH28 0xFFFFFFFFFFFFFFFFFFFFFFFFFFFFFFFFFFFFFFFFFFFFFFFFFFFFFFFF DUP4 DUP2 DUP4 AND OR DUP4 MSTORE POP POP POP POP PUSH2 0xCB1 JUMP JUMPDEST POP POP POP JUMP JUMPDEST PUSH1 0x0 DUP1 PUSH1 0x0 SWAP1 SLOAD SWAP1 PUSH2 0x100 EXP SWAP1 DIV PUSH20 0xFFFFFFFFFFFFFFFFFFFFFFFFFFFFFFFFFFFFFFFF AND SWAP1 POP DUP2 PUSH1 0x0 DUP1 PUSH2 0x100 EXP DUP2 SLOAD DUP2 PUSH20 0xFFFFFFFFFFFFFFFFFFFFFFFFFFFFFFFFFFFFFFFF MUL NOT AND SWAP1 DUP4 PUSH20 0xFFFFFFFFFFFFFFFFFFFFFFFFFFFFFFFFFFFFFFFF AND MUL OR SWAP1 SSTORE POP DUP2 PUSH20 0xFFFFFFFFFFFFFFFFFFFFFFFFFFFFFFFFFFFFFFFF AND DUP2 PUSH20 0xFFFFFFFFFFFFFFFFFFFFFFFFFFFFFFFFFFFFFFFF AND PUSH32 0x8BE0079C531659141344CD1FD0A4F28419497F9722A3DAAFE3B4186F6B6457E0 PUSH1 0x40 MLOAD PUSH1 0x40 MLOAD DUP1 SWAP2 SUB SWAP1 LOG3 POP POP JUMP JUMPDEST PUSH1 0x0 DUP1 PUSH2 0xA56 DUP5 DUP7 DUP6 PUSH2 0xD53 JUMP JUMPDEST SWAP1 POP PUSH1 0x0 DUP1 PUSH1 0x2 DUP2 GT ISZERO PUSH2 0xA6D JUMPI PUSH2 0xA6C PUSH2 0x1BF1 JUMP JUMPDEST JUMPDEST DUP3 PUSH1 0x2 DUP2 GT ISZERO PUSH2 0xA80 JUMPI PUSH2 0xA7F PUSH2 0x1BF1 JUMP JUMPDEST JUMPDEST SUB PUSH2 0xAE9 JUMPI PUSH1 0x0 PUSH2 0xAB3 DUP7 PUSH32 0x0 DUP10 DUP9 PUSH2 0xE7C JUMP JUMPDEST SWAP1 POP PUSH2 0xAE1 DUP2 PUSH32 0x0 DUP8 DUP11 PUSH2 0xE7C JUMP JUMPDEST SWAP2 POP POP PUSH2 0xB7F JUMP JUMPDEST PUSH1 0x1 PUSH1 0x2 DUP2 GT ISZERO PUSH2 0xAFD JUMPI PUSH2 0xAFC PUSH2 0x1BF1 JUMP JUMPDEST JUMPDEST DUP3 PUSH1 0x2 DUP2 GT ISZERO PUSH2 0xB10 JUMPI PUSH2 0xB0F PUSH2 0x1BF1 JUMP JUMPDEST JUMPDEST SUB PUSH2 0xB79 JUMPI PUSH1 0x0 PUSH2 0xB43 DUP7 PUSH32 0x0 DUP10 DUP9 PUSH2 0xE7C JUMP JUMPDEST SWAP1 POP PUSH2 0xB71 DUP2 PUSH32 0x0 DUP8 DUP11 PUSH2 0xE7C JUMP JUMPDEST SWAP2 POP POP PUSH2 0xB7E JUMP JUMPDEST PUSH1 0x0 DUP1 REVERT JUMPDEST JUMPDEST DUP1 SWAP3 POP POP POP SWAP4 SWAP3 POP POP POP JUMP JUMPDEST PUSH1 0x0 PUSH1 0x1 PUSH8 0xFFFFFFFFFFFFFFFF DUP2 GT ISZERO PUSH2 0xBA8 JUMPI PUSH2 0xBA7 PUSH2 0x1C20 JUMP JUMPDEST JUMPDEST PUSH1 0x40 MLOAD SWAP1 DUP1 DUP3 MSTORE DUP1 PUSH1 0x20 MUL PUSH1 0x20 ADD DUP3 ADD PUSH1 0x40 MSTORE DUP1 ISZERO PUSH2 0xBD6 JUMPI DUP2 PUSH1 0x20 ADD PUSH1 0x20 DUP3 MUL DUP1 CALLDATASIZE DUP4 CALLDATACOPY DUP1 DUP3 ADD SWAP2 POP POP SWAP1 POP JUMPDEST POP SWAP1 POP DUP4 DUP2 PUSH1 0x0 DUP2 MLOAD DUP2 LT PUSH2 0xBEE JUMPI PUSH2 0xBED PUSH2 0x19A0 JUMP JUMPDEST JUMPDEST PUSH1 0x20 MUL PUSH1 0x20 ADD ADD SWAP1 PUSH20 0xFFFFFFFFFFFFFFFFFFFFFFFFFFFFFFFFFFFFFFFF AND SWAP1 DUP2 PUSH20 0xFFFFFFFFFFFFFFFFFFFFFFFFFFFFFFFFFFFFFFFF AND DUP2 MSTORE POP POP PUSH1 0x0 PUSH1 0x1 PUSH8 0xFFFFFFFFFFFFFFFF DUP2 GT ISZERO PUSH2 0xC45 JUMPI PUSH2 0xC44 PUSH2 0x1C20 JUMP JUMPDEST JUMPDEST PUSH1 0x40 MLOAD SWAP1 DUP1 DUP3 MSTORE DUP1 PUSH1 0x20 MUL PUSH1 0x20 ADD DUP3 ADD PUSH1 0x40 MSTORE DUP1 ISZERO PUSH2 0xC73 JUMPI DUP2 PUSH1 0x20 ADD PUSH1 0x20 DUP3 MUL DUP1 CALLDATASIZE DUP4 CALLDATACOPY DUP1 DUP3 ADD SWAP2 POP POP SWAP1 POP JUMPDEST POP SWAP1 POP DUP4 DUP2 PUSH1 0x0 DUP2 MLOAD DUP2 LT PUSH2 0xC8B JUMPI PUSH2 0xC8A PUSH2 0x19A0 JUMP JUMPDEST JUMPDEST PUSH1 0x20 MUL PUSH1 0x20 ADD ADD DUP2 DUP2 MSTORE POP POP PUSH2 0xCA2 DUP3 DUP3 DUP6 PUSH2 0x10D4 JUMP JUMPDEST POP POP POP POP POP JUMP JUMPDEST PUSH1 0x0 CALLER SWAP1 POP SWAP1 JUMP JUMPDEST PUSH1 0x0 DUP1 PUSH1 0x20 PUSH1 0x0 DUP5 MLOAD PUSH1 0x20 DUP7 ADD PUSH1 0x0 DUP9 GAS CALL DUP1 PUSH2 0xCD4 JUMPI PUSH1 0x40 MLOAD RETURNDATASIZE PUSH1 0x0 DUP3 RETURNDATACOPY RETURNDATASIZE DUP2 REVERT JUMPDEST RETURNDATASIZE SWAP3 POP PUSH1 0x0 MLOAD SWAP2 POP POP PUSH1 0x0 DUP3 EQ PUSH2 0xCEF JUMPI PUSH1 0x1 DUP2 EQ ISZERO PUSH2 0xD0B JUMP JUMPDEST PUSH1 0x0 DUP5 PUSH20 0xFFFFFFFFFFFFFFFFFFFFFFFFFFFFFFFFFFFFFFFF AND EXTCODESIZE EQ JUMPDEST ISZERO PUSH2 0xD4D JUMPI DUP4 PUSH1 0x40 MLOAD PUSH32 0x5274AFE700000000000000000000000000000000000000000000000000000000 DUP2 MSTORE PUSH1 0x4 ADD PUSH2 0xD44 SWAP2 SWAP1 PUSH2 0x1544 JUMP JUMPDEST PUSH1 0x40 MLOAD DUP1 SWAP2 SUB SWAP1 REVERT JUMPDEST POP POP POP POP JUMP JUMPDEST PUSH1 0x0 DUP1 PUSH2 0xD82 PUSH32 0x0 DUP6 DUP6 DUP9 PUSH2 0x1208 JUMP JUMPDEST SWAP1 POP PUSH1 0x0 PUSH2 0xDB2 PUSH32 0x0 DUP7 DUP7 DUP10 PUSH2 0x1208 JUMP JUMPDEST SWAP1 POP DUP1 DUP3 GT ISZERO PUSH2 0xE11 JUMPI PUSH2 0xDC7 DUP7 DUP4 DUP4 PUSH2 0x13A2 JUMP JUMPDEST PUSH2 0xE06 JUMPI PUSH1 0x40 MLOAD PUSH32 0x8C379A000000000000000000000000000000000000000000000000000000000 DUP2 MSTORE PUSH1 0x4 ADD PUSH2 0xDFD SWAP1 PUSH2 0x1C9B JUMP JUMPDEST PUSH1 0x40 MLOAD DUP1 SWAP2 SUB SWAP1 REVERT JUMPDEST PUSH1 0x0 SWAP3 POP POP POP PUSH2 0xE75 JUMP JUMPDEST DUP1 DUP3 LT ISZERO PUSH2 0xE6E JUMPI PUSH2 0xE24 DUP7 DUP3 DUP5 PUSH2 0x13A2 JUMP JUMPDEST PUSH2 0xE63 JUMPI PUSH1 0x40 MLOAD PUSH32 0x8C379A000000000000000000000000000000000000000000000000000000000 DUP2 MSTORE PUSH1 0x4 ADD PUSH2 0xE5A SWAP1 PUSH2 0x1C9B JUMP JUMPDEST PUSH1 0x40 MLOAD DUP1 SWAP2 SUB SWAP1 REVERT JUMPDEST PUSH1 0x1 SWAP3 POP POP POP PUSH2 0xE75 JUMP JUMPDEST PUSH1 0x2 SWAP3 POP POP POP JUMPDEST SWAP4 SWAP3 POP POP POP JUMP JUMPDEST PUSH1 0x0 DUP3 PUSH20 0xFFFFFFFFFFFFFFFFFFFFFFFFFFFFFFFFFFFFFFFF AND PUSH4 0x95EA7B3 DUP6 DUP8 PUSH1 0x40 MLOAD DUP4 PUSH4 0xFFFFFFFF AND PUSH1 0xE0 SHL DUP2 MSTORE PUSH1 0x4 ADD PUSH2 0xEB9 SWAP3 SWAP2 SWAP1 PUSH2 0x188A JUMP JUMPDEST PUSH1 0x20 PUSH1 0x40 MLOAD DUP1 DUP4 SUB DUP2 PUSH1 0x0 DUP8 GAS CALL ISZERO DUP1 ISZERO PUSH2 0xED8 JUMPI RETURNDATASIZE PUSH1 0x0 DUP1 RETURNDATACOPY RETURNDATASIZE PUSH1 0x0 REVERT JUMPDEST POP POP POP POP PUSH1 0x40 MLOAD RETURNDATASIZE PUSH1 0x1F NOT PUSH1 0x1F DUP3 ADD AND DUP3 ADD DUP1 PUSH1 0x40 MSTORE POP DUP2 ADD SWAP1 PUSH2 0xEFC SWAP2 SWAP1 PUSH2 0x18DF JUMP JUMPDEST POP PUSH1 0x0 PUSH1 0x64 PUSH1 0x5F PUSH2 0xF0F DUP8 DUP8 DUP8 DUP12 PUSH2 0x1208 JUMP JUMPDEST PUSH2 0xF19 SWAP2 SWAP1 PUSH2 0x1CBB JUMP JUMPDEST PUSH2 0xF23 SWAP2 SWAP1 PUSH2 0x1D2C JUMP JUMPDEST SWAP1 POP PUSH1 0x0 PUSH1 0x2 PUSH8 0xFFFFFFFFFFFFFFFF DUP2 GT ISZERO PUSH2 0xF42 JUMPI PUSH2 0xF41 PUSH2 0x1C20 JUMP JUMPDEST JUMPDEST PUSH1 0x40 MLOAD SWAP1 DUP1 DUP3 MSTORE DUP1 PUSH1 0x20 MUL PUSH1 0x20 ADD DUP3 ADD PUSH1 0x40 MSTORE DUP1 ISZERO PUSH2 0xF70 JUMPI DUP2 PUSH1 0x20 ADD PUSH1 0x20 DUP3 MUL DUP1 CALLDATASIZE DUP4 CALLDATACOPY DUP1 DUP3 ADD SWAP2 POP POP SWAP1 POP JUMPDEST POP SWAP1 POP DUP5 DUP2 PUSH1 0x0 DUP2 MLOAD DUP2 LT PUSH2 0xF88 JUMPI PUSH2 0xF87 PUSH2 0x19A0 JUMP JUMPDEST JUMPDEST PUSH1 0x20 MUL PUSH1 0x20 ADD ADD SWAP1 PUSH20 0xFFFFFFFFFFFFFFFFFFFFFFFFFFFFFFFFFFFFFFFF AND SWAP1 DUP2 PUSH20 0xFFFFFFFFFFFFFFFFFFFFFFFFFFFFFFFFFFFFFFFF AND DUP2 MSTORE POP POP DUP4 DUP2 PUSH1 0x1 DUP2 MLOAD DUP2 LT PUSH2 0xFD7 JUMPI PUSH2 0xFD6 PUSH2 0x19A0 JUMP JUMPDEST JUMPDEST PUSH1 0x20 MUL PUSH1 0x20 ADD ADD SWAP1 PUSH20 0xFFFFFFFFFFFFFFFFFFFFFFFFFFFFFFFFFFFFFFFF AND SWAP1 DUP2 PUSH20 0xFFFFFFFFFFFFFFFFFFFFFFFFFFFFFFFFFFFFFFFF AND DUP2 MSTORE POP POP PUSH1 0x0 DUP7 PUSH20 0xFFFFFFFFFFFFFFFFFFFFFFFFFFFFFFFFFFFFFFFF AND PUSH4 0x38ED1739 DUP10 DUP6 DUP6 ADDRESS PUSH2 0x12C TIMESTAMP PUSH2 0x1041 SWAP2 SWAP1 PUSH2 0x1AE6 JUMP JUMPDEST PUSH1 0x40 MLOAD DUP7 PUSH4 0xFFFFFFFF AND PUSH1 0xE0 SHL DUP2 MSTORE PUSH1 0x4 ADD PUSH2 0x1061 SWAP6 SWAP5 SWAP4 SWAP3 SWAP2 SWAP1 PUSH2 0x1E1B JUMP JUMPDEST PUSH1 0x0 PUSH1 0x40 MLOAD DUP1 DUP4 SUB DUP2 PUSH1 0x0 DUP8 GAS CALL ISZERO DUP1 ISZERO PUSH2 0x1080 JUMPI RETURNDATASIZE PUSH1 0x0 DUP1 RETURNDATACOPY RETURNDATASIZE PUSH1 0x0 REVERT JUMPDEST POP POP POP POP PUSH1 0x40 MLOAD RETURNDATASIZE PUSH1 0x0 DUP3 RETURNDATACOPY RETURNDATASIZE PUSH1 0x1F NOT PUSH1 0x1F DUP3 ADD AND DUP3 ADD DUP1 PUSH1 0x40 MSTORE POP DUP2 ADD SWAP1 PUSH2 0x10A9 SWAP2 SWAP1 PUSH2 0x1F95 JUMP JUMPDEST PUSH1 0x1 DUP2 MLOAD DUP2 LT PUSH2 0x10BC JUMPI PUSH2 0x10BB PUSH2 0x19A0 JUMP JUMPDEST JUMPDEST PUSH1 0x20 MUL PUSH1 0x20 ADD ADD MLOAD SWAP1 POP DUP1 SWAP4 POP POP POP POP SWAP5 SWAP4 POP POP POP POP JUMP JUMPDEST PUSH1 0x0 ADDRESS SWAP1 POP PUSH1 0x0 ADDRESS SWAP1 POP PUSH1 0x0 DUP1 DUP7 MLOAD PUSH8 0xFFFFFFFFFFFFFFFF DUP2 GT ISZERO PUSH2 0x10FC JUMPI PUSH2 0x10FB PUSH2 0x1C20 JUMP JUMPDEST JUMPDEST PUSH1 0x40 MLOAD SWAP1 DUP1 DUP3 MSTORE DUP1 PUSH1 0x20 MUL PUSH1 0x20 ADD DUP3 ADD PUSH1 0x40 MSTORE DUP1 ISZERO PUSH2 0x112A JUMPI DUP2 PUSH1 0x20 ADD PUSH1 0x20 DUP3 MUL DUP1 CALLDATASIZE DUP4 CALLDATACOPY DUP1 DUP3 ADD SWAP2 POP POP SWAP1 POP JUMPDEST POP SWAP1 POP PUSH1 0x0 JUMPDEST DUP8 MLOAD DUP2 LT ISZERO PUSH2 0x1167 JUMPI PUSH1 0x0 DUP3 DUP3 DUP2 MLOAD DUP2 LT PUSH2 0x114E JUMPI PUSH2 0x114D PUSH2 0x19A0 JUMP JUMPDEST JUMPDEST PUSH1 0x20 MUL PUSH1 0x20 ADD ADD DUP2 DUP2 MSTORE POP POP DUP1 DUP1 PUSH1 0x1 ADD SWAP2 POP POP PUSH2 0x1130 JUMP JUMPDEST POP PUSH32 0x0 PUSH20 0xFFFFFFFFFFFFFFFFFFFFFFFFFFFFFFFFFFFFFFFF AND PUSH4 0xAB9C4B5D DUP6 DUP10 DUP10 DUP6 DUP9 DUP12 DUP10 PUSH1 0x40 MLOAD DUP9 PUSH4 0xFFFFFFFF AND PUSH1 0xE0 SHL DUP2 MSTORE PUSH1 0x4 ADD PUSH2 0x11CD SWAP8 SWAP7 SWAP6 SWAP5 SWAP4 SWAP3 SWAP2 SWAP1 PUSH2 0x2138 JUMP JUMPDEST PUSH1 0x0 PUSH1 0x40 MLOAD DUP1 DUP4 SUB DUP2 PUSH1 0x0 DUP8 DUP1 EXTCODESIZE ISZERO DUP1 ISZERO PUSH2 0x11E7 JUMPI PUSH1 0x0 DUP1 REVERT JUMPDEST POP GAS CALL ISZERO DUP1 ISZERO PUSH2 0x11FB JUMPI RETURNDATASIZE PUSH1 0x0 DUP1 RETURNDATACOPY RETURNDATASIZE PUSH1 0x0 REVERT JUMPDEST POP POP POP POP POP POP POP POP POP POP POP JUMP JUMPDEST PUSH1 0x0 DUP1 PUSH1 0x2 PUSH8 0xFFFFFFFFFFFFFFFF DUP2 GT ISZERO PUSH2 0x1226 JUMPI PUSH2 0x1225 PUSH2 0x1C20 JUMP JUMPDEST JUMPDEST PUSH1 0x40 MLOAD SWAP1 DUP1 DUP3 MSTORE DUP1 PUSH1 0x20 MUL PUSH1 0x20 ADD DUP3 ADD PUSH1 0x40 MSTORE DUP1 ISZERO PUSH2 0x1254 JUMPI DUP2 PUSH1 0x20 ADD PUSH1 0x20 DUP3 MUL DUP1 CALLDATASIZE DUP4 CALLDATACOPY DUP1 DUP3 ADD SWAP2 POP POP SWAP1 POP JUMPDEST POP SWAP1 POP DUP5 DUP2 PUSH1 0x0 DUP2 MLOAD DUP2 LT PUSH2 0x126C JUMPI PUSH2 0x126B PUSH2 0x19A0 JUMP JUMPDEST JUMPDEST PUSH1 0x20 MUL PUSH1 0x20 ADD ADD SWAP1 PUSH20 0xFFFFFFFFFFFFFFFFFFFFFFFFFFFFFFFFFFFFFFFF AND SWAP1 DUP2 PUSH20 0xFFFFFFFFFFFFFFFFFFFFFFFFFFFFFFFFFFFFFFFF AND DUP2 MSTORE POP POP DUP4 DUP2 PUSH1 0x1 DUP2 MLOAD DUP2 LT PUSH2 0x12BB JUMPI PUSH2 0x12BA PUSH2 0x19A0 JUMP JUMPDEST JUMPDEST PUSH1 0x20 MUL PUSH1 0x20 ADD ADD SWAP1 PUSH20 0xFFFFFFFFFFFFFFFFFFFFFFFFFFFFFFFFFFFFFFFF AND SWAP1 DUP2 PUSH20 0xFFFFFFFFFFFFFFFFFFFFFFFFFFFFFFFFFFFFFFFF AND DUP2 MSTORE POP POP PUSH1 0x0 DUP7 PUSH20 0xFFFFFFFFFFFFFFFFFFFFFFFFFFFFFFFFFFFFFFFF AND PUSH4 0xD06CA61F DUP6 DUP5 PUSH1 0x40 MLOAD DUP4 PUSH4 0xFFFFFFFF AND PUSH1 0xE0 SHL DUP2 MSTORE PUSH1 0x4 ADD PUSH2 0x1332 SWAP3 SWAP2 SWAP1 PUSH2 0x21C3 JUMP JUMPDEST PUSH1 0x0 PUSH1 0x40 MLOAD DUP1 DUP4 SUB DUP2 DUP7 GAS STATICCALL ISZERO DUP1 ISZERO PUSH2 0x134F JUMPI RETURNDATASIZE PUSH1 0x0 DUP1 RETURNDATACOPY RETURNDATASIZE PUSH1 0x0 REVERT JUMPDEST POP POP POP POP PUSH1 0x40 MLOAD RETURNDATASIZE PUSH1 0x0 DUP3 RETURNDATACOPY RETURNDATASIZE PUSH1 0x1F NOT PUSH1 0x1F DUP3 ADD AND DUP3 ADD DUP1 PUSH1 0x40 MSTORE POP DUP2 ADD SWAP1 PUSH2 0x1378 SWAP2 SWAP1 PUSH2 0x1F95 JUMP JUMPDEST PUSH1 0x1 DUP2 MLOAD DUP2 LT PUSH2 0x138B JUMPI PUSH2 0x138A PUSH2 0x19A0 JUMP JUMPDEST JUMPDEST PUSH1 0x20 MUL PUSH1 0x20 ADD ADD MLOAD SWAP1 POP DUP1 SWAP3 POP POP POP SWAP5 SWAP4 POP POP POP POP JUMP JUMPDEST PUSH1 0x0 DUP1 DUP4 PUSH8 0xDE0B6B3A7640000 DUP5 DUP7 PUSH2 0x13BB SWAP2 SWAP1 PUSH2 0x21F3 JUMP JUMPDEST PUSH2 0x13C5 SWAP2 SWAP1 PUSH2 0x1CBB JUMP JUMPDEST PUSH2 0x13CF SWAP2 SWAP1 PUSH2 0x1D2C JUMP JUMPDEST SWAP1 POP PUSH1 0x0 PUSH2 0x3E8 PUSH1 0x3 DUP8 PUSH2 0x13E3 SWAP2 SWAP1 PUSH2 0x1CBB JUMP JUMPDEST PUSH1 0x2 PUSH2 0x13EF SWAP2 SWAP1 PUSH2 0x1CBB JUMP JUMPDEST PUSH2 0x13F9 SWAP2 SWAP1 PUSH2 0x1D2C JUMP JUMPDEST SWAP1 POP DUP1 DUP3 GT ISZERO PUSH2 0x140E JUMPI PUSH1 0x1 SWAP3 POP POP POP PUSH2 0x1415 JUMP JUMPDEST PUSH1 0x0 SWAP3 POP POP POP JUMPDEST SWAP4 SWAP3 POP POP POP JUMP JUMPDEST PUSH1 0x0 PUSH20 0xFFFFFFFFFFFFFFFFFFFFFFFFFFFFFFFFFFFFFFFF DUP3 AND SWAP1 POP SWAP2 SWAP1 POP JUMP JUMPDEST PUSH1 0x0 DUP2 SWAP1 POP SWAP2 SWAP1 POP JUMP JUMPDEST PUSH1 0x0 PUSH2 0x1461 PUSH2 0x145C PUSH2 0x1457 DUP5 PUSH2 0x141C JUMP JUMPDEST PUSH2 0x143C JUMP JUMPDEST PUSH2 0x141C JUMP JUMPDEST SWAP1 POP SWAP2 SWAP1 POP JUMP JUMPDEST PUSH1 0x0 PUSH2 0x1473 DUP3 PUSH2 0x1446 JUMP JUMPDEST SWAP1 POP SWAP2 SWAP1 POP JUMP JUMPDEST PUSH1 0x0 PUSH2 0x1485 DUP3 PUSH2 0x1468 JUMP JUMPDEST SWAP1 POP SWAP2 SWAP1 POP JUMP JUMPDEST PUSH2 0x1495 DUP2 PUSH2 0x147A JUMP JUMPDEST DUP3 MSTORE POP POP JUMP JUMPDEST PUSH1 0x0 PUSH1 0x20 DUP3 ADD SWAP1 POP PUSH2 0x14B0 PUSH1 0x0 DUP4 ADD DUP5 PUSH2 0x148C JUMP JUMPDEST SWAP3 SWAP2 POP POP JUMP JUMPDEST PUSH1 0x0 PUSH1 0x40 MLOAD SWAP1 POP SWAP1 JUMP JUMPDEST PUSH1 0x0 DUP1 REVERT JUMPDEST PUSH1 0x0 DUP1 REVERT JUMPDEST PUSH1 0x0 PUSH2 0x14D5 DUP3 PUSH2 0x141C JUMP JUMPDEST SWAP1 POP SWAP2 SWAP1 POP JUMP JUMPDEST PUSH2 0x14E5 DUP2 PUSH2 0x14CA JUMP JUMPDEST DUP2 EQ PUSH2 0x14F0 JUMPI PUSH1 0x0 DUP1 REVERT JUMPDEST POP JUMP JUMPDEST PUSH1 0x0 DUP2 CALLDATALOAD SWAP1 POP PUSH2 0x1502 DUP2 PUSH2 0x14DC JUMP JUMPDEST SWAP3 SWAP2 POP POP JUMP JUMPDEST PUSH1 0x0 PUSH1 0x20 DUP3 DUP5 SUB SLT ISZERO PUSH2 0x151E JUMPI PUSH2 0x151D PUSH2 0x14C0 JUMP JUMPDEST JUMPDEST PUSH1 0x0 PUSH2 0x152C DUP5 DUP3 DUP6 ADD PUSH2 0x14F3 JUMP JUMPDEST SWAP2 POP POP SWAP3 SWAP2 POP POP JUMP JUMPDEST PUSH2 0x153E DUP2 PUSH2 0x14CA JUMP JUMPDEST DUP3 MSTORE POP POP JUMP JUMPDEST PUSH1 0x0 PUSH1 0x20 DUP3 ADD SWAP1 POP PUSH2 0x1559 PUSH1 0x0 DUP4 ADD DUP5 PUSH2 0x1535 JUMP JUMPDEST SWAP3 SWAP2 POP POP JUMP JUMPDEST PUSH1 0x0 DUP1 REVERT JUMPDEST PUSH1 0x0 DUP1 REVERT JUMPDEST PUSH1 0x0 DUP1 REVERT JUMPDEST PUSH1 0x0 DUP1 DUP4 PUSH1 0x1F DUP5 ADD SLT PUSH2 0x1584 JUMPI PUSH2 0x1583 PUSH2 0x155F JUMP JUMPDEST JUMPDEST DUP3 CALLDATALOAD SWAP1 POP PUSH8 0xFFFFFFFFFFFFFFFF DUP2 GT ISZERO PUSH2 0x15A1 JUMPI PUSH2 0x15A0 PUSH2 0x1564 JUMP JUMPDEST JUMPDEST PUSH1 0x20 DUP4 ADD SWAP2 POP DUP4 PUSH1 0x20 DUP3 MUL DUP4 ADD GT ISZERO PUSH2 0x15BD JUMPI PUSH2 0x15BC PUSH2 0x1569 JUMP JUMPDEST JUMPDEST SWAP3 POP SWAP3 SWAP1 POP JUMP JUMPDEST PUSH1 0x0 DUP1 DUP4 PUSH1 0x1F DUP5 ADD SLT PUSH2 0x15DA JUMPI PUSH2 0x15D9 PUSH2 0x155F JUMP JUMPDEST JUMPDEST DUP3 CALLDATALOAD SWAP1 POP PUSH8 0xFFFFFFFFFFFFFFFF DUP2 GT ISZERO PUSH2 0x15F7 JUMPI PUSH2 0x15F6 PUSH2 0x1564 JUMP JUMPDEST JUMPDEST PUSH1 0x20 DUP4 ADD SWAP2 POP DUP4 PUSH1 0x20 DUP3 MUL DUP4 ADD GT ISZERO PUSH2 0x1613 JUMPI PUSH2 0x1612 PUSH2 0x1569 JUMP JUMPDEST JUMPDEST SWAP3 POP SWAP3 SWAP1 POP JUMP JUMPDEST PUSH1 0x0 DUP1 DUP4 PUSH1 0x1F DUP5 ADD SLT PUSH2 0x1630 JUMPI PUSH2 0x162F PUSH2 0x155F JUMP JUMPDEST JUMPDEST DUP3 CALLDATALOAD SWAP1 POP PUSH8 0xFFFFFFFFFFFFFFFF DUP2 GT ISZERO PUSH2 0x164D JUMPI PUSH2 0x164C PUSH2 0x1564 JUMP JUMPDEST JUMPDEST PUSH1 0x20 DUP4 ADD SWAP2 POP DUP4 PUSH1 0x1 DUP3 MUL DUP4 ADD GT ISZERO PUSH2 0x1669 JUMPI PUSH2 0x1668 PUSH2 0x1569 JUMP JUMPDEST JUMPDEST SWAP3 POP SWAP3 SWAP1 POP JUMP JUMPDEST PUSH1 0x0 DUP1 PUSH1 0x0 DUP1 PUSH1 0x0 DUP1 PUSH1 0x0 DUP1 PUSH1 0x0 PUSH1 0xA0 DUP11 DUP13 SUB SLT ISZERO PUSH2 0x1692 JUMPI PUSH2 0x1691 PUSH2 0x14C0 JUMP JUMPDEST JUMPDEST PUSH1 0x0 DUP11 ADD CALLDATALOAD PUSH8 0xFFFFFFFFFFFFFFFF DUP2 GT ISZERO PUSH2 0x16B0 JUMPI PUSH2 0x16AF PUSH2 0x14C5 JUMP JUMPDEST JUMPDEST PUSH2 0x16BC DUP13 DUP3 DUP14 ADD PUSH2 0x156E JUMP JUMPDEST SWAP10 POP SWAP10 POP POP PUSH1 0x20 DUP11 ADD CALLDATALOAD PUSH8 0xFFFFFFFFFFFFFFFF DUP2 GT ISZERO PUSH2 0x16DF JUMPI PUSH2 0x16DE PUSH2 0x14C5 JUMP JUMPDEST JUMPDEST PUSH2 0x16EB DUP13 DUP3 DUP14 ADD PUSH2 0x15C4 JUMP JUMPDEST SWAP8 POP SWAP8 POP POP PUSH1 0x40 DUP11 ADD CALLDATALOAD PUSH8 0xFFFFFFFFFFFFFFFF DUP2 GT ISZERO PUSH2 0x170E JUMPI PUSH2 0x170D PUSH2 0x14C5 JUMP JUMPDEST JUMPDEST PUSH2 0x171A DUP13 DUP3 DUP14 ADD PUSH2 0x15C4 JUMP JUMPDEST SWAP6 POP SWAP6 POP POP PUSH1 0x60 PUSH2 0x172D DUP13 DUP3 DUP14 ADD PUSH2 0x14F3 JUMP JUMPDEST SWAP4 POP POP PUSH1 0x80 DUP11 ADD CALLDATALOAD PUSH8 0xFFFFFFFFFFFFFFFF DUP2 GT ISZERO PUSH2 0x174E JUMPI PUSH2 0x174D PUSH2 0x14C5 JUMP JUMPDEST JUMPDEST PUSH2 0x175A DUP13 DUP3 DUP14 ADD PUSH2 0x161A JUMP JUMPDEST SWAP3 POP SWAP3 POP POP SWAP3 SWAP6 SWAP9 POP SWAP3 SWAP6 SWAP9 POP SWAP3 SWAP6 SWAP9 JUMP JUMPDEST PUSH1 0x0 DUP2 ISZERO ISZERO SWAP1 POP SWAP2 SWAP1 POP JUMP JUMPDEST PUSH2 0x1781 DUP2 PUSH2 0x176C JUMP JUMPDEST DUP3 MSTORE POP POP JUMP JUMPDEST PUSH1 0x0 PUSH1 0x20 DUP3 ADD SWAP1 POP PUSH2 0x179C PUSH1 0x0 DUP4 ADD DUP5 PUSH2 0x1778 JUMP JUMPDEST SWAP3 SWAP2 POP POP JUMP JUMPDEST PUSH1 0x0 PUSH2 0x17AD DUP3 PUSH2 0x1468 JUMP JUMPDEST SWAP1 POP SWAP2 SWAP1 POP JUMP JUMPDEST PUSH2 0x17BD DUP2 PUSH2 0x17A2 JUMP JUMPDEST DUP3 MSTORE POP POP JUMP JUMPDEST PUSH1 0x0 PUSH1 0x20 DUP3 ADD SWAP1 POP PUSH2 0x17D8 PUSH1 0x0 DUP4 ADD DUP5 PUSH2 0x17B4 JUMP JUMPDEST SWAP3 SWAP2 POP POP JUMP JUMPDEST PUSH1 0x0 DUP2 SWAP1 POP SWAP2 SWAP1 POP JUMP JUMPDEST PUSH2 0x17F1 DUP2 PUSH2 0x17DE JUMP JUMPDEST DUP2 EQ PUSH2 0x17FC JUMPI PUSH1 0x0 DUP1 REVERT JUMPDEST POP JUMP JUMPDEST PUSH1 0x0 DUP2 CALLDATALOAD SWAP1 POP PUSH2 0x180E DUP2 PUSH2 0x17E8 JUMP JUMPDEST SWAP3 SWAP2 POP POP JUMP JUMPDEST PUSH1 0x0 DUP1 PUSH1 0x0 DUP1 PUSH1 0x80 DUP6 DUP8 SUB SLT ISZERO PUSH2 0x182E JUMPI PUSH2 0x182D PUSH2 0x14C0 JUMP JUMPDEST JUMPDEST PUSH1 0x0 PUSH2 0x183C DUP8 DUP3 DUP9 ADD PUSH2 0x14F3 JUMP JUMPDEST SWAP5 POP POP PUSH1 0x20 PUSH2 0x184D DUP8 DUP3 DUP9 ADD PUSH2 0x17FF JUMP JUMPDEST SWAP4 POP POP PUSH1 0x40 PUSH2 0x185E DUP8 DUP3 DUP9 ADD PUSH2 0x14F3 JUMP JUMPDEST SWAP3 POP POP PUSH1 0x60 PUSH2 0x186F DUP8 DUP3 DUP9 ADD PUSH2 0x14F3 JUMP JUMPDEST SWAP2 POP POP SWAP3 SWAP6 SWAP2 SWAP5 POP SWAP3 POP JUMP JUMPDEST PUSH2 0x1884 DUP2 PUSH2 0x17DE JUMP JUMPDEST DUP3 MSTORE POP POP JUMP JUMPDEST PUSH1 0x0 PUSH1 0x40 DUP3 ADD SWAP1 POP PUSH2 0x189F PUSH1 0x0 DUP4 ADD DUP6 PUSH2 0x1535 JUMP JUMPDEST PUSH2 0x18AC PUSH1 0x20 DUP4 ADD DUP5 PUSH2 0x187B JUMP JUMPDEST SWAP4 SWAP3 POP POP POP JUMP JUMPDEST PUSH2 0x18BC DUP2 PUSH2 0x176C JUMP JUMPDEST DUP2 EQ PUSH2 0x18C7 JUMPI PUSH1 0x0 DUP1 REVERT JUMPDEST POP JUMP JUMPDEST PUSH1 0x0 DUP2 MLOAD SWAP1 POP PUSH2 0x18D9 DUP2 PUSH2 0x18B3 JUMP JUMPDEST SWAP3 SWAP2 POP POP JUMP JUMPDEST PUSH1 0x0 PUSH1 0x20 DUP3 DUP5 SUB SLT ISZERO PUSH2 0x18F5 JUMPI PUSH2 0x18F4 PUSH2 0x14C0 JUMP JUMPDEST JUMPDEST PUSH1 0x0 PUSH2 0x1903 DUP5 DUP3 DUP6 ADD PUSH2 0x18CA JUMP JUMPDEST SWAP2 POP POP SWAP3 SWAP2 POP POP JUMP JUMPDEST PUSH1 0x0 PUSH1 0x60 DUP3 ADD SWAP1 POP PUSH2 0x1921 PUSH1 0x0 DUP4 ADD DUP7 PUSH2 0x1535 JUMP JUMPDEST PUSH2 0x192E PUSH1 0x20 DUP4 ADD DUP6 PUSH2 0x1535 JUMP JUMPDEST PUSH2 0x193B PUSH1 0x40 DUP4 ADD DUP5 PUSH2 0x187B JUMP JUMPDEST SWAP5 SWAP4 POP POP POP POP JUMP JUMPDEST PUSH1 0x0 DUP2 MLOAD SWAP1 POP PUSH2 0x1952 DUP2 PUSH2 0x17E8 JUMP JUMPDEST SWAP3 SWAP2 POP POP JUMP JUMPDEST PUSH1 0x0 PUSH1 0x20 DUP3 DUP5 SUB SLT ISZERO PUSH2 0x196E JUMPI PUSH2 0x196D PUSH2 0x14C0 JUMP JUMPDEST JUMPDEST PUSH1 0x0 PUSH2 0x197C DUP5 DUP3 DUP6 ADD PUSH2 0x1943 JUMP JUMPDEST SWAP2 POP POP SWAP3 SWAP2 POP POP JUMP JUMPDEST PUSH1 0x0 PUSH1 0x20 DUP3 ADD SWAP1 POP PUSH2 0x199A PUSH1 0x0 DUP4 ADD DUP5 PUSH2 0x187B JUMP JUMPDEST SWAP3 SWAP2 POP POP JUMP JUMPDEST PUSH32 0x4E487B7100000000000000000000000000000000000000000000000000000000 PUSH1 0x0 MSTORE PUSH1 0x32 PUSH1 0x4 MSTORE PUSH1 0x24 PUSH1 0x0 REVERT JUMPDEST PUSH1 0x0 DUP3 DUP3 MSTORE PUSH1 0x20 DUP3 ADD SWAP1 POP SWAP3 SWAP2 POP POP JUMP JUMPDEST PUSH32 0x4E6F7420706F6F6C000000000000000000000000000000000000000000000000 PUSH1 0x0 DUP3 ADD MSTORE POP JUMP JUMPDEST PUSH1 0x0 PUSH2 0x1A16 PUSH1 0x8 DUP4 PUSH2 0x19CF JUMP JUMPDEST SWAP2 POP PUSH2 0x1A21 DUP3 PUSH2 0x19E0 JUMP JUMPDEST PUSH1 0x20 DUP3 ADD SWAP1 POP SWAP2 SWAP1 POP JUMP JUMPDEST PUSH1 0x0 PUSH1 0x20 DUP3 ADD SWAP1 POP DUP2 DUP2 SUB PUSH1 0x0 DUP4 ADD MSTORE PUSH2 0x1A45 DUP2 PUSH2 0x1A09 JUMP JUMPDEST SWAP1 POP SWAP2 SWAP1 POP JUMP JUMPDEST PUSH1 0x0 PUSH2 0x1A57 DUP3 PUSH2 0x141C JUMP JUMPDEST SWAP1 POP SWAP2 SWAP1 POP JUMP JUMPDEST PUSH2 0x1A67 DUP2 PUSH2 0x1A4C JUMP JUMPDEST DUP2 EQ PUSH2 0x1A72 JUMPI PUSH1 0x0 DUP1 REVERT JUMPDEST POP JUMP JUMPDEST PUSH1 0x0 DUP2 CALLDATALOAD SWAP1 POP PUSH2 0x1A84 DUP2 PUSH2 0x1A5E JUMP JUMPDEST SWAP3 SWAP2 POP POP JUMP JUMPDEST PUSH1 0x0 PUSH1 0x20 DUP3 DUP5 SUB SLT ISZERO PUSH2 0x1AA0 JUMPI PUSH2 0x1A9F PUSH2 0x14C0 JUMP JUMPDEST JUMPDEST PUSH1 0x0 PUSH2 0x1AAE DUP5 DUP3 DUP6 ADD PUSH2 0x1A75 JUMP JUMPDEST SWAP2 POP POP SWAP3 SWAP2 POP POP JUMP JUMPDEST PUSH32 0x4E487B7100000000000000000000000000000000000000000000000000000000 PUSH1 0x0 MSTORE PUSH1 0x11 PUSH1 0x4 MSTORE PUSH1 0x24 PUSH1 0x0 REVERT JUMPDEST PUSH1 0x0 PUSH2 0x1AF1 DUP3 PUSH2 0x17DE JUMP JUMPDEST SWAP2 POP PUSH2 0x1AFC DUP4 PUSH2 0x17DE JUMP JUMPDEST SWAP3 POP DUP3 DUP3 ADD SWAP1 POP DUP1 DUP3 GT ISZERO PUSH2 0x1B14 JUMPI PUSH2 0x1B13 PUSH2 0x1AB7 JUMP JUMPDEST JUMPDEST SWAP3 SWAP2 POP POP JUMP JUMPDEST PUSH1 0x0 PUSH1 0x40 DUP3 ADD SWAP1 POP PUSH2 0x1B2F PUSH1 0x0 DUP4 ADD DUP6 PUSH2 0x1535 JUMP JUMPDEST PUSH2 0x1B3C PUSH1 0x20 DUP4 ADD DUP5 PUSH2 0x1535 JUMP JUMPDEST SWAP4 SWAP3 POP POP POP JUMP JUMPDEST PUSH1 0x0 DUP2 MLOAD SWAP1 POP PUSH2 0x1B52 DUP2 PUSH2 0x14DC JUMP JUMPDEST SWAP3 SWAP2 POP POP JUMP JUMPDEST PUSH1 0x0 PUSH1 0x20 DUP3 DUP5 SUB SLT ISZERO PUSH2 0x1B6E JUMPI PUSH2 0x1B6D PUSH2 0x14C0 JUMP JUMPDEST JUMPDEST PUSH1 0x0 PUSH2 0x1B7C DUP5 DUP3 DUP6 ADD PUSH2 0x1B43 JUMP JUMPDEST SWAP2 POP POP SWAP3 SWAP2 POP POP JUMP JUMPDEST PUSH32 0x506169724164647265737320646F6573206E6F74206578697374210000000000 PUSH1 0x0 DUP3 ADD MSTORE POP JUMP JUMPDEST PUSH1 0x0 PUSH2 0x1BBB PUSH1 0x1B DUP4 PUSH2 0x19CF JUMP JUMPDEST SWAP2 POP PUSH2 0x1BC6 DUP3 PUSH2 0x1B85 JUMP JUMPDEST PUSH1 0x20 DUP3 ADD SWAP1 POP SWAP2 SWAP1 POP JUMP JUMPDEST PUSH1 0x0 PUSH1 0x20 DUP3 ADD SWAP1 POP DUP2 DUP2 SUB PUSH1 0x0 DUP4 ADD MSTORE PUSH2 0x1BEA DUP2 PUSH2 0x1BAE JUMP JUMPDEST SWAP1 POP SWAP2 SWAP1 POP JUMP JUMPDEST PUSH32 0x4E487B7100000000000000000000000000000000000000000000000000000000 PUSH1 0x0 MSTORE PUSH1 0x21 PUSH1 0x4 MSTORE PUSH1 0x24 PUSH1 0x0 REVERT JUMPDEST PUSH32 0x4E487B7100000000000000000000000000000000000000000000000000000000 PUSH1 0x0 MSTORE PUSH1 0x41 PUSH1 0x4 MSTORE PUSH1 0x24 PUSH1 0x0 REVERT JUMPDEST PUSH32 0x417262697472616765206E6F742070726F66697461626C650000000000000000 PUSH1 0x0 DUP3 ADD MSTORE POP JUMP JUMPDEST PUSH1 0x0 PUSH2 0x1C85 PUSH1 0x18 DUP4 PUSH2 0x19CF JUMP JUMPDEST SWAP2 POP PUSH2 0x1C90 DUP3 PUSH2 0x1C4F JUMP JUMPDEST PUSH1 0x20 DUP3 ADD SWAP1 POP SWAP2 SWAP1 POP JUMP JUMPDEST PUSH1 0x0 PUSH1 0x20 DUP3 ADD SWAP1 POP DUP2 DUP2 SUB PUSH1 0x0 DUP4 ADD MSTORE PUSH2 0x1CB4 DUP2 PUSH2 0x1C78 JUMP JUMPDEST SWAP1 POP SWAP2 SWAP1 POP JUMP JUMPDEST PUSH1 0x0 PUSH2 0x1CC6 DUP3 PUSH2 0x17DE JUMP JUMPDEST SWAP2 POP PUSH2 0x1CD1 DUP4 PUSH2 0x17DE JUMP JUMPDEST SWAP3 POP DUP3 DUP3 MUL PUSH2 0x1CDF DUP2 PUSH2 0x17DE JUMP JUMPDEST SWAP2 POP DUP3 DUP3 DIV DUP5 EQ DUP4 ISZERO OR PUSH2 0x1CF6 JUMPI PUSH2 0x1CF5 PUSH2 0x1AB7 JUMP JUMPDEST JUMPDEST POP SWAP3 SWAP2 POP POP JUMP JUMPDEST PUSH32 0x4E487B7100000000000000000000000000000000000000000000000000000000 PUSH1 0x0 MSTORE PUSH1 0x12 PUSH1 0x4 MSTORE PUSH1 0x24 PUSH1 0x0 REVERT JUMPDEST PUSH1 0x0 PUSH2 0x1D37 DUP3 PUSH2 0x17DE JUMP JUMPDEST SWAP2 POP PUSH2 0x1D42 DUP4 PUSH2 0x17DE JUMP JUMPDEST SWAP3 POP DUP3 PUSH2 0x1D52 JUMPI PUSH2 0x1D51 PUSH2 0x1CFD JUMP JUMPDEST JUMPDEST DUP3 DUP3 DIV SWAP1 POP SWAP3 SWAP2 POP POP JUMP JUMPDEST PUSH1 0x0 DUP2 MLOAD SWAP1 POP SWAP2 SWAP1 POP JUMP JUMPDEST PUSH1 0x0 DUP3 DUP3 MSTORE PUSH1 0x20 DUP3 ADD SWAP1 POP SWAP3 SWAP2 POP POP JUMP JUMPDEST PUSH1 0x0 DUP2 SWAP1 POP PUSH1 0x20 DUP3 ADD SWAP1 POP SWAP2 SWAP1 POP JUMP JUMPDEST PUSH2 0x1D92 DUP2 PUSH2 0x14CA JUMP JUMPDEST DUP3 MSTORE POP POP JUMP JUMPDEST PUSH1 0x0 PUSH2 0x1DA4 DUP4 DUP4 PUSH2 0x1D89 JUMP JUMPDEST PUSH1 0x20 DUP4 ADD SWAP1 POP SWAP3 SWAP2 POP POP JUMP JUMPDEST PUSH1 0x0 PUSH1 0x20 DUP3 ADD SWAP1 POP SWAP2 SWAP1 POP JUMP JUMPDEST PUSH1 0x0 PUSH2 0x1DC8 DUP3 PUSH2 0x1D5D JUMP JUMPDEST PUSH2 0x1DD2 DUP2 DUP6 PUSH2 0x1D68 JUMP JUMPDEST SWAP4 POP PUSH2 0x1DDD DUP4 PUSH2 0x1D79 JUMP JUMPDEST DUP1 PUSH1 0x0 JUMPDEST DUP4 DUP2 LT ISZERO PUSH2 0x1E0E JUMPI DUP2 MLOAD PUSH2 0x1DF5 DUP9 DUP3 PUSH2 0x1D98 JUMP JUMPDEST SWAP8 POP PUSH2 0x1E00 DUP4 PUSH2 0x1DB0 JUMP JUMPDEST SWAP3 POP POP PUSH1 0x1 DUP2 ADD SWAP1 POP PUSH2 0x1DE1 JUMP JUMPDEST POP DUP6 SWAP4 POP POP POP POP SWAP3 SWAP2 POP POP JUMP JUMPDEST PUSH1 0x0 PUSH1 0xA0 DUP3 ADD SWAP1 POP PUSH2 0x1E30 PUSH1 0x0 DUP4 ADD DUP9 PUSH2 0x187B JUMP JUMPDEST PUSH2 0x1E3D PUSH1 0x20 DUP4 ADD DUP8 PUSH2 0x187B JUMP JUMPDEST DUP2 DUP2 SUB PUSH1 0x40 DUP4 ADD MSTORE PUSH2 0x1E4F DUP2 DUP7 PUSH2 0x1DBD JUMP JUMPDEST SWAP1 POP PUSH2 0x1E5E PUSH1 0x60 DUP4 ADD DUP6 PUSH2 0x1535 JUMP JUMPDEST PUSH2 0x1E6B PUSH1 0x80 DUP4 ADD DUP5 PUSH2 0x187B JUMP JUMPDEST SWAP7 SWAP6 POP POP POP POP POP POP JUMP JUMPDEST PUSH1 0x0 PUSH1 0x1F NOT PUSH1 0x1F DUP4 ADD AND SWAP1 POP SWAP2 SWAP1 POP JUMP JUMPDEST PUSH2 0x1E8F DUP3 PUSH2 0x1E75 JUMP JUMPDEST DUP2 ADD DUP2 DUP2 LT PUSH8 0xFFFFFFFFFFFFFFFF DUP3 GT OR ISZERO PUSH2 0x1EAE JUMPI PUSH2 0x1EAD PUSH2 0x1C20 JUMP JUMPDEST JUMPDEST DUP1 PUSH1 0x40 MSTORE POP POP POP JUMP JUMPDEST PUSH1 0x0 PUSH2 0x1EC1 PUSH2 0x14B6 JUMP JUMPDEST SWAP1 POP PUSH2 0x1ECD DUP3 DUP3 PUSH2 0x1E86 JUMP JUMPDEST SWAP2 SWAP1 POP JUMP JUMPDEST PUSH1 0x0 PUSH8 0xFFFFFFFFFFFFFFFF DUP3 GT ISZERO PUSH2 0x1EED JUMPI PUSH2 0x1EEC PUSH2 0x1C20 JUMP JUMPDEST JUMPDEST PUSH1 0x20 DUP3 MUL SWAP1 POP PUSH1 0x20 DUP2 ADD SWAP1 POP SWAP2 SWAP1 POP JUMP JUMPDEST PUSH1 0x0 PUSH2 0x1F11 PUSH2 0x1F0C DUP5 PUSH2 0x1ED2 JUMP JUMPDEST PUSH2 0x1EB7 JUMP JUMPDEST SWAP1 POP DUP1 DUP4 DUP3 MSTORE PUSH1 0x20 DUP3 ADD SWAP1 POP PUSH1 0x20 DUP5 MUL DUP4 ADD DUP6 DUP2 GT ISZERO PUSH2 0x1F34 JUMPI PUSH2 0x1F33 PUSH2 0x1569 JUMP JUMPDEST JUMPDEST DUP4 JUMPDEST DUP2 DUP2 LT ISZERO PUSH2 0x1F5D JUMPI DUP1 PUSH2 0x1F49 DUP9 DUP3 PUSH2 0x1943 JUMP JUMPDEST DUP5 MSTORE PUSH1 0x20 DUP5 ADD SWAP4 POP POP PUSH1 0x20 DUP2 ADD SWAP1 POP PUSH2 0x1F36 JUMP JUMPDEST POP POP POP SWAP4 SWAP3 POP POP POP JUMP JUMPDEST PUSH1 0x0 DUP3 PUSH1 0x1F DUP4 ADD SLT PUSH2 0x1F7C JUMPI PUSH2 0x1F7B PUSH2 0x155F JUMP JUMPDEST JUMPDEST DUP2 MLOAD PUSH2 0x1F8C DUP5 DUP3 PUSH1 0x20 DUP7 ADD PUSH2 0x1EFE JUMP JUMPDEST SWAP2 POP POP SWAP3 SWAP2 POP POP JUMP JUMPDEST PUSH1 0x0 PUSH1 0x20 DUP3 DUP5 SUB SLT ISZERO PUSH2 0x1FAB JUMPI PUSH2 0x1FAA PUSH2 0x14C0 JUMP JUMPDEST JUMPDEST PUSH1 0x0 DUP3 ADD MLOAD PUSH8 0xFFFFFFFFFFFFFFFF DUP2 GT ISZERO PUSH2 0x1FC9 JUMPI PUSH2 0x1FC8 PUSH2 0x14C5 JUMP JUMPDEST JUMPDEST PUSH2 0x1FD5 DUP5 DUP3 DUP6 ADD PUSH2 0x1F67 JUMP JUMPDEST SWAP2 POP POP SWAP3 SWAP2 POP POP JUMP JUMPDEST PUSH1 0x0 DUP2 MLOAD SWAP1 POP SWAP2 SWAP1 POP JUMP JUMPDEST PUSH1 0x0 DUP3 DUP3 MSTORE PUSH1 0x20 DUP3 ADD SWAP1 POP SWAP3 SWAP2 POP POP JUMP JUMPDEST PUSH1 0x0 DUP2 SWAP1 POP PUSH1 0x20 DUP3 ADD SWAP1 POP SWAP2 SWAP1 POP JUMP JUMPDEST PUSH2 0x2013 DUP2 PUSH2 0x17DE JUMP JUMPDEST DUP3 MSTORE POP POP JUMP JUMPDEST PUSH1 0x0 PUSH2 0x2025 DUP4 DUP4 PUSH2 0x200A JUMP JUMPDEST PUSH1 0x20 DUP4 ADD SWAP1 POP SWAP3 SWAP2 POP POP JUMP JUMPDEST PUSH1 0x0 PUSH1 0x20 DUP3 ADD SWAP1 POP SWAP2 SWAP1 POP JUMP JUMPDEST PUSH1 0x0 PUSH2 0x2049 DUP3 PUSH2 0x1FDE JUMP JUMPDEST PUSH2 0x2053 DUP2 DUP6 PUSH2 0x1FE9 JUMP JUMPDEST SWAP4 POP PUSH2 0x205E DUP4 PUSH2 0x1FFA JUMP JUMPDEST DUP1 PUSH1 0x0 JUMPDEST DUP4 DUP2 LT ISZERO PUSH2 0x208F JUMPI DUP2 MLOAD PUSH2 0x2076 DUP9 DUP3 PUSH2 0x2019 JUMP JUMPDEST SWAP8 POP PUSH2 0x2081 DUP4 PUSH2 0x2031 JUMP JUMPDEST SWAP3 POP POP PUSH1 0x1 DUP2 ADD SWAP1 POP PUSH2 0x2062 JUMP JUMPDEST POP DUP6 SWAP4 POP POP POP POP SWAP3 SWAP2 POP POP JUMP JUMPDEST PUSH1 0x0 DUP2 MLOAD SWAP1 POP SWAP2 SWAP1 POP JUMP JUMPDEST PUSH1 0x0 DUP3 DUP3 MSTORE PUSH1 0x20 DUP3 ADD SWAP1 POP SWAP3 SWAP2 POP POP JUMP JUMPDEST PUSH1 0x0 JUMPDEST DUP4 DUP2 LT ISZERO PUSH2 0x20D6 JUMPI DUP1 DUP3 ADD MLOAD DUP2 DUP5 ADD MSTORE PUSH1 0x20 DUP2 ADD SWAP1 POP PUSH2 0x20BB JUMP JUMPDEST PUSH1 0x0 DUP5 DUP5 ADD MSTORE POP POP POP POP JUMP JUMPDEST PUSH1 0x0 PUSH2 0x20ED DUP3 PUSH2 0x209C JUMP JUMPDEST PUSH2 0x20F7 DUP2 DUP6 PUSH2 0x20A7 JUMP JUMPDEST SWAP4 POP PUSH2 0x2107 DUP2 DUP6 PUSH1 0x20 DUP7 ADD PUSH2 0x20B8 JUMP JUMPDEST PUSH2 0x2110 DUP2 PUSH2 0x1E75 JUMP JUMPDEST DUP5 ADD SWAP2 POP POP SWAP3 SWAP2 POP POP JUMP JUMPDEST PUSH1 0x0 PUSH2 0xFFFF DUP3 AND SWAP1 POP SWAP2 SWAP1 POP JUMP JUMPDEST PUSH2 0x2132 DUP2 PUSH2 0x211B JUMP JUMPDEST DUP3 MSTORE POP POP JUMP JUMPDEST PUSH1 0x0 PUSH1 0xE0 DUP3 ADD SWAP1 POP PUSH2 0x214D PUSH1 0x0 DUP4 ADD DUP11 PUSH2 0x1535 JUMP JUMPDEST DUP2 DUP2 SUB PUSH1 0x20 DUP4 ADD MSTORE PUSH2 0x215F DUP2 DUP10 PUSH2 0x1DBD JUMP JUMPDEST SWAP1 POP DUP2 DUP2 SUB PUSH1 0x40 DUP4 ADD MSTORE PUSH2 0x2173 DUP2 DUP9 PUSH2 0x203E JUMP JUMPDEST SWAP1 POP DUP2 DUP2 SUB PUSH1 0x60 DUP4 ADD MSTORE PUSH2 0x2187 DUP2 DUP8 PUSH2 0x203E JUMP JUMPDEST SWAP1 POP PUSH2 0x2196 PUSH1 0x80 DUP4 ADD DUP7 PUSH2 0x1535 JUMP JUMPDEST DUP2 DUP2 SUB PUSH1 0xA0 DUP4 ADD MSTORE PUSH2 0x21A8 DUP2 DUP6 PUSH2 0x20E2 JUMP JUMPDEST SWAP1 POP PUSH2 0x21B7 PUSH1 0xC0 DUP4 ADD DUP5 PUSH2 0x2129 JUMP JUMPDEST SWAP9 SWAP8 POP POP POP POP POP POP POP POP JUMP JUMPDEST PUSH1 0x0 PUSH1 0x40 DUP3 ADD SWAP1 POP PUSH2 0x21D8 PUSH1 0x0 DUP4 ADD DUP6 PUSH2 0x187B JUMP JUMPDEST DUP2 DUP2 SUB PUSH1 0x20 DUP4 ADD MSTORE PUSH2 0x21EA DUP2 DUP5 PUSH2 0x1DBD JUMP JUMPDEST SWAP1 POP SWAP4 SWAP3 POP POP POP JUMP JUMPDEST PUSH1 0x0 PUSH2 0x21FE DUP3 PUSH2 0x17DE JUMP JUMPDEST SWAP2 POP PUSH2 0x2209 DUP4 PUSH2 0x17DE JUMP JUMPDEST SWAP3 POP DUP3 DUP3 SUB SWAP1 POP DUP2 DUP2 GT ISZERO PUSH2 0x2221 JUMPI PUSH2 0x2220 PUSH2 0x1AB7 JUMP JUMPDEST JUMPDEST SWAP3 SWAP2 POP POP JUMP INVALID LOG2 PUSH5 0x6970667358 0x22 SLT KECCAK256 MSTORE8 0xAA ADDRESS 0x4C 0xEA SDIV 0x4F SWAP16 RETURNDATASIZE PUSH25 0x591F0DEFB59701FF4EA804DBB49BF38CACA213D0CF6364736F PUSH13 0x634300081C0033000000000000 "},"methodIdentifiers":{"ADDRESSES_PROVIDER()":"0542975c","LENDING_POOL()":"b4dcfc77","executeOperation(address[],uint256[],uint256[],address,bytes)":"920f5c84","owner()":"8da5cb5b","pullTokens(address)":"42e9c6ce","renounceOwnership()":"715018a6","startTransaction(address,uint256,address,address)":"f058fb1b","transferOwnership(address)":"f2fde38b","withdraw(address)":"51cff8d9"}}}}}