{"contracts/FlashloanV2.sol":{"FlashloanV2":{"abi":[{"inputs":[{"internalType":"address","name":"_addressProvider","type":"address"},{"internalType":"address","name":"_uniswapRouterAddress","type":"address"},{"internalType":"address","name":"_sushiswapRouterAddress","type":"address"}],"stateMutability":"nonpayable","type":"constructor"},{"inputs":[{"internalType":"address","name":"owner","type":"address"}],"name":"OwnableInvalidOwner","type":"error"},{"inputs":[{"internalType":"address","name":"account","type":"address"}],"name":"OwnableUnauthorizedAccount","type":"error"},{"inputs":[{"internalType":"address","name":"token","type":"address"}],"name":"SafeERC20FailedOperation","type":"error"},{"anonymous":false,"inputs":[{"indexed":true,"internalType":"address","name":"_from","type":"address"},{"indexed":true,"internalType":"address","name":"_assetAddress","type":"address"},{"indexed":false,"internalType":"uint256","name":"amount","type":"uint256"}],"name":"LogWithdraw","type":"event"},{"anonymous":false,"inputs":[{"indexed":true,"internalType":"address","name":"previousOwner","type":"address"},{"indexed":true,"internalType":"address","name":"newOwner","type":"address"}],"name":"OwnershipTransferred","type":"event"},{"inputs":[],"name":"ADDRESSES_PROVIDER","outputs":[{"internalType":"contract ILendingPoolAddressesProviderV2","name":"","type":"address"}],"stateMutability":"view","type":"function"},{"inputs":[],"name":"LENDING_POOL","outputs":[{"internalType":"contract ILendingPoolV2","name":"","type":"address"}],"stateMutability":"view","type":"function"},{"inputs":[{"internalType":"address[]","name":"assets","type":"address[]"},{"internalType":"uint256[]","name":"amounts","type":"uint256[]"},{"internalType":"uint256[]","name":"premiums","type":"uint256[]"},{"internalType":"address","name":"","type":"address"},{"internalType":"bytes","name":"params","type":"bytes"}],"name":"executeOperation","outputs":[{"internalType":"bool","name":"","type":"bool"}],"stateMutability":"nonpayable","type":"function"},{"inputs":[],"name":"owner","outputs":[{"internalType":"address","name":"","type":"address"}],"stateMutability":"view","type":"function"},{"inputs":[{"internalType":"address","name":"_asset","type":"address"}],"name":"pullTokens","outputs":[],"stateMutability":"nonpayable","type":"function"},{"inputs":[],"name":"renounceOwnership","outputs":[],"stateMutability":"nonpayable","type":"function"},{"inputs":[{"internalType":"address","name":"_borrowAsset","type":"address"},{"internalType":"uint256","name":"_borrowAmount","type":"uint256"},{"internalType":"address","name":"_swappingPair","type":"address"},{"internalType":"address","name":"_factoryAddress","type":"address"}],"name":"startTransaction","outputs":[],"stateMutability":"nonpayable","type":"function"},{"inputs":[{"internalType":"address","name":"newOwner","type":"address"}],"name":"transferOwnership","outputs":[],"stateMutability":"nonpayable","type":"function"},{"inputs":[{"internalType":"address","name":"_assetAddress","type":"address"}],"name":"withdraw","outputs":[],"stateMutability":"nonpayable","type":"function"},{"stateMutability":"payable","type":"receive"}],"evm":{"bytecode":{"linkReferences":{},"object":"61010060405234801561001157600080fd5b5060405161270938038061270983398181016040528101906100339190610325565b33838073ffffffffffffffffffffffffffffffffffffffff1660808173ffffffffffffffffffffffffffffffffffffffff16815250508073ffffffffffffffffffffffffffffffffffffffff16630261bf8b6040518163ffffffff1660e01b8152600401602060405180830381865afa1580156100b4573d6000803e3d6000fd5b505050506040513d601f19601f820116820180604052508101906100d89190610378565b73ffffffffffffffffffffffffffffffffffffffff1660a08173ffffffffffffffffffffffffffffffffffffffff168152505050600073ffffffffffffffffffffffffffffffffffffffff168173ffffffffffffffffffffffffffffffffffffffff160361017e5760006040517f1e4fbdf700000000000000000000000000000000000000000000000000000000815260040161017591906103b4565b60405180910390fd5b61018d816101fe60201b60201c565b508173ffffffffffffffffffffffffffffffffffffffff1660c08173ffffffffffffffffffffffffffffffffffffffff16815250508073ffffffffffffffffffffffffffffffffffffffff1660e08173ffffffffffffffffffffffffffffffffffffffff16815250505050506103cf565b60008060009054906101000a900473ffffffffffffffffffffffffffffffffffffffff169050816000806101000a81548173ffffffffffffffffffffffffffffffffffffffff021916908373ffffffffffffffffffffffffffffffffffffffff1602179055508173ffffffffffffffffffffffffffffffffffffffff168173ffffffffffffffffffffffffffffffffffffffff167f8be0079c531659141344cd1fd0a4f28419497f9722a3daafe3b4186f6b6457e060405160405180910390a35050565b600080fd5b600073ffffffffffffffffffffffffffffffffffffffff82169050919050565b60006102f2826102c7565b9050919050565b610302816102e7565b811461030d57600080fd5b50565b60008151905061031f816102f9565b92915050565b60008060006060848603121561033e5761033d6102c2565b5b600061034c86828701610310565b935050602061035d86828701610310565b925050604061036e86828701610310565b9150509250925092565b60006020828403121561038e5761038d6102c2565b5b600061039c84828501610310565b91505092915050565b6103ae816102e7565b82525050565b60006020820190506103c960008301846103a5565b92915050565b60805160a05160c05160e0516122d061043960003960008181610b2e01528181610b900152610dfe015260008181610b0001528181610bbe0152610dce0152600081816105a9015281816106820152818161071b01526111dd0152600061021101526122d06000f3fe60806040526004361061008a5760003560e01c80638da5cb5b116100595780638da5cb5b1461012a578063920f5c8414610155578063b4dcfc7714610192578063f058fb1b146101bd578063f2fde38b146101e657610091565b80630542975c1461009657806342e9c6ce146100c157806351cff8d9146100ea578063715018a61461011357610091565b3661009157005b600080fd5b3480156100a257600080fd5b506100ab61020f565b6040516100b8919061150e565b60405180910390f35b3480156100cd57600080fd5b506100e860048036038101906100e3919061157b565b610233565b005b3480156100f657600080fd5b50610111600480360381019061010c919061157b565b610344565b005b34801561011f57600080fd5b506101286104fe565b005b34801561013657600080fd5b5061013f610512565b60405161014c91906115b7565b60405180910390f35b34801561016157600080fd5b5061017c600480360381019061017791906116e3565b61053b565b60405161018991906117fa565b60405180910390f35b34801561019e57600080fd5b506101a7610719565b6040516101b49190611836565b60405180910390f35b3480156101c957600080fd5b506101e460048036038101906101df9190611887565b61073d565b005b3480156101f257600080fd5b5061020d6004803603810190610208919061157b565b61086b565b005b7f000000000000000000000000000000000000000000000000000000000000000081565b61023b6108f1565b60008190508073ffffffffffffffffffffffffffffffffffffffff1663095ea7b333476040518363ffffffff1660e01b815260040161027b9291906118fd565b6020604051808303816000875af115801561029a573d6000803e3d6000fd5b505050506040513d601f19601f820116820180604052508101906102be9190611952565b508073ffffffffffffffffffffffffffffffffffffffff166323b872dd3033476040518463ffffffff1660e01b81526004016102fc9392919061197f565b6020604051808303816000875af115801561031b573d6000803e3d6000fd5b505050506040513d601f19601f8201168201806040525081019061033f9190611952565b505050565b61034c6108f1565b60008073ffffffffffffffffffffffffffffffffffffffff168273ffffffffffffffffffffffffffffffffffffffff16036103ed5760003090508073ffffffffffffffffffffffffffffffffffffffff163191503373ffffffffffffffffffffffffffffffffffffffff166108fc839081150290604051600060405180830381858888f193505050501580156103e6573d6000803e3d6000fd5b5050610495565b8173ffffffffffffffffffffffffffffffffffffffff166370a08231306040518263ffffffff1660e01b815260040161042691906115b7565b602060405180830381865afa158015610443573d6000803e3d6000fd5b505050506040513d601f19601f8201168201806040525081019061046791906119cb565b905061049433828473ffffffffffffffffffffffffffffffffffffffff166109789092919063ffffffff16565b5b8173ffffffffffffffffffffffffffffffffffffffff163373ffffffffffffffffffffffffffffffffffffffff167f9207361cc2a04b9c7a06691df1eb87c6a63957ae88bf01d0d18c81e3d1272099836040516104f291906119f8565b60405180910390a35050565b6105066108f1565b61051060006109f7565b565b60008060009054906101000a900473ffffffffffffffffffffffffffffffffffffffff16905090565b6000808a8a600081811061055257610551611a13565b5b9050602002016020810190610567919061157b565b905060008989600081811061057f5761057e611a13565b5b90506020020135905060008888600081811061059e5761059d611a13565b5b9050602002013590507f000000000000000000000000000000000000000000000000000000000000000073ffffffffffffffffffffffffffffffffffffffff163373ffffffffffffffffffffffffffffffffffffffff1614610635576040517f08c379a000000000000000000000000000000000000000000000000000000000815260040161062c90611a9f565b60405180910390fd5b600086868101906106469190611afd565b9050610653848483610abb565b50600082846106629190611b59565b90508473ffffffffffffffffffffffffffffffffffffffff1663095ea7b37f0000000000000000000000000000000000000000000000000000000000000000836040518363ffffffff1660e01b81526004016106bf9291906118fd565b6020604051808303816000875af11580156106de573d6000803e3d6000fd5b505050506040513d601f19601f820116820180604052508101906107029190611952565b506001955050505050509998505050505050505050565b7f000000000000000000000000000000000000000000000000000000000000000081565b6107456108f1565b60008173ffffffffffffffffffffffffffffffffffffffff1663e6a4390586856040518363ffffffff1660e01b8152600401610782929190611b8d565b602060405180830381865afa15801561079f573d6000803e3d6000fd5b505050506040513d601f19601f820116820180604052508101906107c39190611bcb565b9050600073ffffffffffffffffffffffffffffffffffffffff168173ffffffffffffffffffffffffffffffffffffffff1603610834576040517f08c379a000000000000000000000000000000000000000000000000000000000815260040161082b90611c44565b60405180910390fd5b60008360405160200161084791906115b7565b6040516020818303038152906040529050610863868683610bfe565b505050505050565b6108736108f1565b600073ffffffffffffffffffffffffffffffffffffffff168173ffffffffffffffffffffffffffffffffffffffff16036108e55760006040517f1e4fbdf70000000000000000000000000000000000000000000000000000000081526004016108dc91906115b7565b60405180910390fd5b6108ee816109f7565b50565b6108f9610d1c565b73ffffffffffffffffffffffffffffffffffffffff16610917610512565b73ffffffffffffffffffffffffffffffffffffffff16146109765761093a610d1c565b6040517f118cdaa700000000000000000000000000000000000000000000000000000000815260040161096d91906115b7565b60405180910390fd5b565b6109f2838473ffffffffffffffffffffffffffffffffffffffff1663a9059cbb85856040516024016109ab9291906118fd565b604051602081830303815290604052915060e01b6020820180517bffffffffffffffffffffffffffffffffffffffffffffffffffffffff8381831617835250505050610d24565b505050565b60008060009054906101000a900473ffffffffffffffffffffffffffffffffffffffff169050816000806101000a81548173ffffffffffffffffffffffffffffffffffffffff021916908373ffffffffffffffffffffffffffffffffffffffff1602179055508173ffffffffffffffffffffffffffffffffffffffff168173ffffffffffffffffffffffffffffffffffffffff167f8be0079c531659141344cd1fd0a4f28419497f9722a3daafe3b4186f6b6457e060405160405180910390a35050565b600080610ac9848685610dc6565b90506000806002811115610ae057610adf611c64565b5b826002811115610af357610af2611c64565b5b03610b5c576000610b26867f00000000000000000000000000000000000000000000000000000000000000008988610eef565b9050610b54817f0000000000000000000000000000000000000000000000000000000000000000878a610eef565b915050610bf2565b60016002811115610b7057610b6f611c64565b5b826002811115610b8357610b82611c64565b5b03610bec576000610bb6867f00000000000000000000000000000000000000000000000000000000000000008988610eef565b9050610be4817f0000000000000000000000000000000000000000000000000000000000000000878a610eef565b915050610bf1565b600080fd5b5b80925050509392505050565b6000600167ffffffffffffffff811115610c1b57610c1a611c93565b5b604051908082528060200260200182016040528015610c495781602001602082028036833780820191505090505b5090508381600081518110610c6157610c60611a13565b5b602002602001019073ffffffffffffffffffffffffffffffffffffffff16908173ffffffffffffffffffffffffffffffffffffffff16815250506000600167ffffffffffffffff811115610cb857610cb7611c93565b5b604051908082528060200260200182016040528015610ce65781602001602082028036833780820191505090505b5090508381600081518110610cfe57610cfd611a13565b5b602002602001018181525050610d15828285611147565b5050505050565b600033905090565b600080602060008451602086016000885af180610d47576040513d6000823e3d81fd5b3d925060005191505060008214610d62576001811415610d7e565b60008473ffffffffffffffffffffffffffffffffffffffff163b145b15610dc057836040517f5274afe7000000000000000000000000000000000000000000000000000000008152600401610db791906115b7565b60405180910390fd5b50505050565b600080610df57f000000000000000000000000000000000000000000000000000000000000000085858861127b565b90506000610e257f000000000000000000000000000000000000000000000000000000000000000086868961127b565b905080821115610e8457610e3a868383611415565b610e79576040517f08c379a0000000000000000000000000000000000000000000000000000000008152600401610e7090611d0e565b60405180910390fd5b600092505050610ee8565b80821015610ee157610e97868284611415565b610ed6576040517f08c379a0000000000000000000000000000000000000000000000000000000008152600401610ecd90611d0e565b60405180910390fd5b600192505050610ee8565b6002925050505b9392505050565b60008273ffffffffffffffffffffffffffffffffffffffff1663095ea7b385876040518363ffffffff1660e01b8152600401610f2c9291906118fd565b6020604051808303816000875af1158015610f4b573d6000803e3d6000fd5b505050506040513d601f19601f82011682018060405250810190610f6f9190611952565b5060006064605f610f828787878b61127b565b610f8c9190611d2e565b610f969190611d9f565b90506000600267ffffffffffffffff811115610fb557610fb4611c93565b5b604051908082528060200260200182016040528015610fe35781602001602082028036833780820191505090505b5090508481600081518110610ffb57610ffa611a13565b5b602002602001019073ffffffffffffffffffffffffffffffffffffffff16908173ffffffffffffffffffffffffffffffffffffffff1681525050838160018151811061104a57611049611a13565b5b602002602001019073ffffffffffffffffffffffffffffffffffffffff16908173ffffffffffffffffffffffffffffffffffffffff168152505060008673ffffffffffffffffffffffffffffffffffffffff166338ed17398985853061012c426110b49190611b59565b6040518663ffffffff1660e01b81526004016110d4959493929190611e8e565b6000604051808303816000875af11580156110f3573d6000803e3d6000fd5b505050506040513d6000823e3d601f19601f8201168201806040525081019061111c9190612008565b60018151811061112f5761112e611a13565b5b60200260200101519050809350505050949350505050565b60003090506000309050600080865167ffffffffffffffff81111561116f5761116e611c93565b5b60405190808252806020026020018201604052801561119d5781602001602082028036833780820191505090505b50905060005b87518110156111da5760008282815181106111c1576111c0611a13565b5b60200260200101818152505080806001019150506111a3565b507f000000000000000000000000000000000000000000000000000000000000000073ffffffffffffffffffffffffffffffffffffffff1663ab9c4b5d85898985888b896040518863ffffffff1660e01b815260040161124097969594939291906121ab565b600060405180830381600087803b15801561125a57600080fd5b505af115801561126e573d6000803e3d6000fd5b5050505050505050505050565b600080600267ffffffffffffffff81111561129957611298611c93565b5b6040519080825280602002602001820160405280156112c75781602001602082028036833780820191505090505b50905084816000815181106112df576112de611a13565b5b602002602001019073ffffffffffffffffffffffffffffffffffffffff16908173ffffffffffffffffffffffffffffffffffffffff1681525050838160018151811061132e5761132d611a13565b5b602002602001019073ffffffffffffffffffffffffffffffffffffffff16908173ffffffffffffffffffffffffffffffffffffffff168152505060008673ffffffffffffffffffffffffffffffffffffffff1663d06ca61f85846040518363ffffffff1660e01b81526004016113a5929190612236565b600060405180830381865afa1580156113c2573d6000803e3d6000fd5b505050506040513d6000823e3d601f19601f820116820180604052508101906113eb9190612008565b6001815181106113fe576113fd611a13565b5b602002602001015190508092505050949350505050565b60008083670de0b6b3a7640000848661142e9190612266565b6114389190611d2e565b6114429190611d9f565b905060006103e86003876114569190611d2e565b60026114629190611d2e565b61146c9190611d9f565b90508082111561148157600192505050611488565b6000925050505b9392505050565b600073ffffffffffffffffffffffffffffffffffffffff82169050919050565b6000819050919050565b60006114d46114cf6114ca8461148f565b6114af565b61148f565b9050919050565b60006114e6826114b9565b9050919050565b60006114f8826114db565b9050919050565b611508816114ed565b82525050565b600060208201905061152360008301846114ff565b92915050565b6000604051905090565b600080fd5b600080fd5b60006115488261148f565b9050919050565b6115588161153d565b811461156357600080fd5b50565b6000813590506115758161154f565b92915050565b60006020828403121561159157611590611533565b5b600061159f84828501611566565b91505092915050565b6115b18161153d565b82525050565b60006020820190506115cc60008301846115a8565b92915050565b600080fd5b600080fd5b600080fd5b60008083601f8401126115f7576115f66115d2565b5b8235905067ffffffffffffffff811115611614576116136115d7565b5b6020830191508360208202830111156116305761162f6115dc565b5b9250929050565b60008083601f84011261164d5761164c6115d2565b5b8235905067ffffffffffffffff81111561166a576116696115d7565b5b602083019150836020820283011115611686576116856115dc565b5b9250929050565b60008083601f8401126116a3576116a26115d2565b5b8235905067ffffffffffffffff8111156116c0576116bf6115d7565b5b6020830191508360018202830111156116dc576116db6115dc565b5b9250929050565b600080600080600080600080600060a08a8c03121561170557611704611533565b5b60008a013567ffffffffffffffff81111561172357611722611538565b5b61172f8c828d016115e1565b995099505060208a013567ffffffffffffffff81111561175257611751611538565b5b61175e8c828d01611637565b975097505060408a013567ffffffffffffffff81111561178157611780611538565b5b61178d8c828d01611637565b955095505060606117a08c828d01611566565b93505060808a013567ffffffffffffffff8111156117c1576117c0611538565b5b6117cd8c828d0161168d565b92509250509295985092959850929598565b60008115159050919050565b6117f4816117df565b82525050565b600060208201905061180f60008301846117eb565b92915050565b6000611820826114db565b9050919050565b61183081611815565b82525050565b600060208201905061184b6000830184611827565b92915050565b6000819050919050565b61186481611851565b811461186f57600080fd5b50565b6000813590506118818161185b565b92915050565b600080600080608085870312156118a1576118a0611533565b5b60006118af87828801611566565b94505060206118c087828801611872565b93505060406118d187828801611566565b92505060606118e287828801611566565b91505092959194509250565b6118f781611851565b82525050565b600060408201905061191260008301856115a8565b61191f60208301846118ee565b9392505050565b61192f816117df565b811461193a57600080fd5b50565b60008151905061194c81611926565b92915050565b60006020828403121561196857611967611533565b5b60006119768482850161193d565b91505092915050565b600060608201905061199460008301866115a8565b6119a160208301856115a8565b6119ae60408301846118ee565b949350505050565b6000815190506119c58161185b565b92915050565b6000602082840312156119e1576119e0611533565b5b60006119ef848285016119b6565b91505092915050565b6000602082019050611a0d60008301846118ee565b92915050565b7f4e487b7100000000000000000000000000000000000000000000000000000000600052603260045260246000fd5b600082825260208201905092915050565b7f4e6f7420706f6f6c000000000000000000000000000000000000000000000000600082015250565b6000611a89600883611a42565b9150611a9482611a53565b602082019050919050565b60006020820190508181036000830152611ab881611a7c565b9050919050565b6000611aca8261148f565b9050919050565b611ada81611abf565b8114611ae557600080fd5b50565b600081359050611af781611ad1565b92915050565b600060208284031215611b1357611b12611533565b5b6000611b2184828501611ae8565b91505092915050565b7f4e487b7100000000000000000000000000000000000000000000000000000000600052601160045260246000fd5b6000611b6482611851565b9150611b6f83611851565b9250828201905080821115611b8757611b86611b2a565b5b92915050565b6000604082019050611ba260008301856115a8565b611baf60208301846115a8565b9392505050565b600081519050611bc58161154f565b92915050565b600060208284031215611be157611be0611533565b5b6000611bef84828501611bb6565b91505092915050565b7f506169724164647265737320646f6573206e6f74206578697374210000000000600082015250565b6000611c2e601b83611a42565b9150611c3982611bf8565b602082019050919050565b60006020820190508181036000830152611c5d81611c21565b9050919050565b7f4e487b7100000000000000000000000000000000000000000000000000000000600052602160045260246000fd5b7f4e487b7100000000000000000000000000000000000000000000000000000000600052604160045260246000fd5b7f417262697472616765206e6f742070726f66697461626c650000000000000000600082015250565b6000611cf8601883611a42565b9150611d0382611cc2565b602082019050919050565b60006020820190508181036000830152611d2781611ceb565b9050919050565b6000611d3982611851565b9150611d4483611851565b9250828202611d5281611851565b91508282048414831517611d6957611d68611b2a565b5b5092915050565b7f4e487b7100000000000000000000000000000000000000000000000000000000600052601260045260246000fd5b6000611daa82611851565b9150611db583611851565b925082611dc557611dc4611d70565b5b828204905092915050565b600081519050919050565b600082825260208201905092915050565b6000819050602082019050919050565b611e058161153d565b82525050565b6000611e178383611dfc565b60208301905092915050565b6000602082019050919050565b6000611e3b82611dd0565b611e458185611ddb565b9350611e5083611dec565b8060005b83811015611e81578151611e688882611e0b565b9750611e7383611e23565b925050600181019050611e54565b5085935050505092915050565b600060a082019050611ea360008301886118ee565b611eb060208301876118ee565b8181036040830152611ec28186611e30565b9050611ed160608301856115a8565b611ede60808301846118ee565b9695505050505050565b6000601f19601f8301169050919050565b611f0282611ee8565b810181811067ffffffffffffffff82111715611f2157611f20611c93565b5b80604052505050565b6000611f34611529565b9050611f408282611ef9565b919050565b600067ffffffffffffffff821115611f6057611f5f611c93565b5b602082029050602081019050919050565b6000611f84611f7f84611f45565b611f2a565b90508083825260208201905060208402830185811115611fa757611fa66115dc565b5b835b81811015611fd05780611fbc88826119b6565b845260208401935050602081019050611fa9565b5050509392505050565b600082601f830112611fef57611fee6115d2565b5b8151611fff848260208601611f71565b91505092915050565b60006020828403121561201e5761201d611533565b5b600082015167ffffffffffffffff81111561203c5761203b611538565b5b61204884828501611fda565b91505092915050565b600081519050919050565b600082825260208201905092915050565b6000819050602082019050919050565b61208681611851565b82525050565b6000612098838361207d565b60208301905092915050565b6000602082019050919050565b60006120bc82612051565b6120c6818561205c565b93506120d18361206d565b8060005b838110156121025781516120e9888261208c565b97506120f4836120a4565b9250506001810190506120d5565b5085935050505092915050565b600081519050919050565b600082825260208201905092915050565b60005b8381101561214957808201518184015260208101905061212e565b60008484015250505050565b60006121608261210f565b61216a818561211a565b935061217a81856020860161212b565b61218381611ee8565b840191505092915050565b600061ffff82169050919050565b6121a58161218e565b82525050565b600060e0820190506121c0600083018a6115a8565b81810360208301526121d28189611e30565b905081810360408301526121e681886120b1565b905081810360608301526121fa81876120b1565b905061220960808301866115a8565b81810360a083015261221b8185612155565b905061222a60c083018461219c565b98975050505050505050565b600060408201905061224b60008301856118ee565b818103602083015261225d8184611e30565b90509392505050565b600061227182611851565b915061227c83611851565b925082820390508181111561229457612293611b2a565b5b9291505056fea26469706673582212202cd9e2d2e22848177e9ec61bc94ab756f248c934074625d74b74c6a7d4d418da64736f6c634300081c0033","opcodes":"PUSH2 0x100 PUSH1 0x40 MSTORE CALLVALUE DUP1 ISZERO PUSH2 0x11 JUMPI PUSH1 0x0 DUP1 REVERT JUMPDEST POP PUSH1 0x40 MLOAD PUSH2 0x2709 CODESIZE SUB DUP1 PUSH2 0x2709 DUP4 CODECOPY DUP2 DUP2 ADD PUSH1 0x40 MSTORE DUP2 ADD SWAP1 PUSH2 0x33 SWAP2 SWAP1 PUSH2 0x325 JUMP JUMPDEST CALLER DUP4 DUP1 PUSH20 0xFFFFFFFFFFFFFFFFFFFFFFFFFFFFFFFFFFFFFFFF AND PUSH1 0x80 DUP2 PUSH20 0xFFFFFFFFFFFFFFFFFFFFFFFFFFFFFFFFFFFFFFFF AND DUP2 MSTORE POP POP DUP1 PUSH20 0xFFFFFFFFFFFFFFFFFFFFFFFFFFFFFFFFFFFFFFFF AND PUSH4 0x261BF8B PUSH1 0x40 MLOAD DUP2 PUSH4 0xFFFFFFFF AND PUSH1 0xE0 SHL DUP2 MSTORE PUSH1 0x4 ADD PUSH1 0x20 PUSH1 0x40 MLOAD DUP1 DUP4 SUB DUP2 DUP7 GAS STATICCALL ISZERO DUP1 ISZERO PUSH2 0xB4 JUMPI RETURNDATASIZE PUSH1 0x0 DUP1 RETURNDATACOPY RETURNDATASIZE PUSH1 0x0 REVERT JUMPDEST POP POP POP POP PUSH1 0x40 MLOAD RETURNDATASIZE PUSH1 0x1F NOT PUSH1 0x1F DUP3 ADD AND DUP3 ADD DUP1 PUSH1 0x40 MSTORE POP DUP2 ADD SWAP1 PUSH2 0xD8 SWAP2 SWAP1 PUSH2 0x378 JUMP JUMPDEST PUSH20 0xFFFFFFFFFFFFFFFFFFFFFFFFFFFFFFFFFFFFFFFF AND PUSH1 0xA0 DUP2 PUSH20 0xFFFFFFFFFFFFFFFFFFFFFFFFFFFFFFFFFFFFFFFF AND DUP2 MSTORE POP POP POP PUSH1 0x0 PUSH20 0xFFFFFFFFFFFFFFFFFFFFFFFFFFFFFFFFFFFFFFFF AND DUP2 PUSH20 0xFFFFFFFFFFFFFFFFFFFFFFFFFFFFFFFFFFFFFFFF AND SUB PUSH2 0x17E JUMPI PUSH1 0x0 PUSH1 0x40 MLOAD PUSH32 0x1E4FBDF700000000000000000000000000000000000000000000000000000000 DUP2 MSTORE PUSH1 0x4 ADD PUSH2 0x175 SWAP2 SWAP1 PUSH2 0x3B4 JUMP JUMPDEST PUSH1 0x40 MLOAD DUP1 SWAP2 SUB SWAP1 REVERT JUMPDEST PUSH2 0x18D DUP2 PUSH2 0x1FE PUSH1 0x20 SHL PUSH1 0x20 SHR JUMP JUMPDEST POP DUP2 PUSH20 0xFFFFFFFFFFFFFFFFFFFFFFFFFFFFFFFFFFFFFFFF AND PUSH1 0xC0 DUP2 PUSH20 0xFFFFFFFFFFFFFFFFFFFFFFFFFFFFFFFFFFFFFFFF AND DUP2 MSTORE POP POP DUP1 PUSH20 0xFFFFFFFFFFFFFFFFFFFFFFFFFFFFFFFFFFFFFFFF AND PUSH1 0xE0 DUP2 PUSH20 0xFFFFFFFFFFFFFFFFFFFFFFFFFFFFFFFFFFFFFFFF AND DUP2 MSTORE POP POP POP POP POP PUSH2 0x3CF JUMP JUMPDEST PUSH1 0x0 DUP1 PUSH1 0x0 SWAP1 SLOAD SWAP1 PUSH2 0x100 EXP SWAP1 DIV PUSH20 0xFFFFFFFFFFFFFFFFFFFFFFFFFFFFFFFFFFFFFFFF AND SWAP1 POP DUP2 PUSH1 0x0 DUP1 PUSH2 0x100 EXP DUP2 SLOAD DUP2 PUSH20 0xFFFFFFFFFFFFFFFFFFFFFFFFFFFFFFFFFFFFFFFF MUL NOT AND SWAP1 DUP4 PUSH20 0xFFFFFFFFFFFFFFFFFFFFFFFFFFFFFFFFFFFFFFFF AND MUL OR SWAP1 SSTORE POP DUP2 PUSH20 0xFFFFFFFFFFFFFFFFFFFFFFFFFFFFFFFFFFFFFFFF AND DUP2 PUSH20 0xFFFFFFFFFFFFFFFFFFFFFFFFFFFFFFFFFFFFFFFF AND PUSH32 0x8BE0079C531659141344CD1FD0A4F28419497F9722A3DAAFE3B4186F6B6457E0 PUSH1 0x40 MLOAD PUSH1 0x40 MLOAD DUP1 SWAP2 SUB SWAP1 LOG3 POP POP JUMP JUMPDEST PUSH1 0x0 DUP1 REVERT JUMPDEST PUSH1 0x0 PUSH20 0xFFFFFFFFFFFFFFFFFFFFFFFFFFFFFFFFFFFFFFFF DUP3 AND SWAP1 POP SWAP2 SWAP1 POP JUMP JUMPDEST PUSH1 0x0 PUSH2 0x2F2 DUP3 PUSH2 0x2C7 JUMP JUMPDEST SWAP1 POP SWAP2 SWAP1 POP JUMP JUMPDEST PUSH2 0x302 DUP2 PUSH2 0x2E7 JUMP JUMPDEST DUP2 EQ PUSH2 0x30D JUMPI PUSH1 0x0 DUP1 REVERT JUMPDEST POP JUMP JUMPDEST PUSH1 0x0 DUP2 MLOAD SWAP1 POP PUSH2 0x31F DUP2 PUSH2 0x2F9 JUMP JUMPDEST SWAP3 SWAP2 POP POP JUMP JUMPDEST PUSH1 0x0 DUP1 PUSH1 0x0 PUSH1 0x60 DUP5 DUP7 SUB SLT ISZERO PUSH2 0x33E JUMPI PUSH2 0x33D PUSH2 0x2C2 JUMP JUMPDEST JUMPDEST PUSH1 0x0 PUSH2 0x34C DUP7 DUP3 DUP8 ADD PUSH2 0x310 JUMP JUMPDEST SWAP4 POP POP PUSH1 0x20 PUSH2 0x35D DUP7 DUP3 DUP8 ADD PUSH2 0x310 JUMP JUMPDEST SWAP3 POP POP PUSH1 0x40 PUSH2 0x36E DUP7 DUP3 DUP8 ADD PUSH2 0x310 JUMP JUMPDEST SWAP2 POP POP SWAP3 POP SWAP3 POP SWAP3 JUMP JUMPDEST PUSH1 0x0 PUSH1 0x20 DUP3 DUP5 SUB SLT ISZERO PUSH2 0x38E JUMPI PUSH2 0x38D PUSH2 0x2C2 JUMP JUMPDEST JUMPDEST PUSH1 0x0 PUSH2 0x39C DUP5 DUP3 DUP6 ADD PUSH2 0x310 JUMP JUMPDEST SWAP2 POP POP SWAP3 SWAP2 POP POP JUMP JUMPDEST PUSH2 0x3AE DUP2 PUSH2 0x2E7 JUMP JUMPDEST DUP3 MSTORE POP POP JUMP JUMPDEST PUSH1 0x0 PUSH1 0x20 DUP3 ADD SWAP1 POP PUSH2 0x3C9 PUSH1 0x0 DUP4 ADD DUP5 PUSH2 0x3A5 JUMP JUMPDEST SWAP3 SWAP2 POP POP JUMP JUMPDEST PUSH1 0x80 MLOAD PUSH1 0xA0 MLOAD PUSH1 0xC0 MLOAD PUSH1 0xE0 MLOAD PUSH2 0x22D0 PUSH2 0x439 PUSH1 0x0 CODECOPY PUSH1 0x0 DUP2 DUP2 PUSH2 0xB2E ADD MSTORE DUP2 DUP2 PUSH2 0xB90 ADD MSTORE PUSH2 0xDFE ADD MSTORE PUSH1 0x0 DUP2 DUP2 PUSH2 0xB00 ADD MSTORE DUP2 DUP2 PUSH2 0xBBE ADD MSTORE PUSH2 0xDCE ADD MSTORE PUSH1 0x0 DUP2 DUP2 PUSH2 0x5A9 ADD MSTORE DUP2 DUP2 PUSH2 0x682 ADD MSTORE DUP2 DUP2 PUSH2 0x71B ADD MSTORE PUSH2 0x11DD ADD MSTORE PUSH1 0x0 PUSH2 0x211 ADD MSTORE PUSH2 0x22D0 PUSH1 0x0 RETURN INVALID PUSH1 0x80 PUSH1 0x40 MSTORE PUSH1 0x4 CALLDATASIZE LT PUSH2 0x8A JUMPI PUSH1 0x0 CALLDATALOAD PUSH1 0xE0 SHR DUP1 PUSH4 0x8DA5CB5B GT PUSH2 0x59 JUMPI DUP1 PUSH4 0x8DA5CB5B EQ PUSH2 0x12A JUMPI DUP1 PUSH4 0x920F5C84 EQ PUSH2 0x155 JUMPI DUP1 PUSH4 0xB4DCFC77 EQ PUSH2 0x192 JUMPI DUP1 PUSH4 0xF058FB1B EQ PUSH2 0x1BD JUMPI DUP1 PUSH4 0xF2FDE38B EQ PUSH2 0x1E6 JUMPI PUSH2 0x91 JUMP JUMPDEST DUP1 PUSH4 0x542975C EQ PUSH2 0x96 JUMPI DUP1 PUSH4 0x42E9C6CE EQ PUSH2 0xC1 JUMPI DUP1 PUSH4 0x51CFF8D9 EQ PUSH2 0xEA JUMPI DUP1 PUSH4 0x715018A6 EQ PUSH2 0x113 JUMPI PUSH2 0x91 JUMP JUMPDEST CALLDATASIZE PUSH2 0x91 JUMPI STOP JUMPDEST PUSH1 0x0 DUP1 REVERT JUMPDEST CALLVALUE DUP1 ISZERO PUSH2 0xA2 JUMPI PUSH1 0x0 DUP1 REVERT JUMPDEST POP PUSH2 0xAB PUSH2 0x20F JUMP JUMPDEST PUSH1 0x40 MLOAD PUSH2 0xB8 SWAP2 SWAP1 PUSH2 0x150E JUMP JUMPDEST PUSH1 0x40 MLOAD DUP1 SWAP2 SUB SWAP1 RETURN JUMPDEST CALLVALUE DUP1 ISZERO PUSH2 0xCD JUMPI PUSH1 0x0 DUP1 REVERT JUMPDEST POP PUSH2 0xE8 PUSH1 0x4 DUP1 CALLDATASIZE SUB DUP2 ADD SWAP1 PUSH2 0xE3 SWAP2 SWAP1 PUSH2 0x157B JUMP JUMPDEST PUSH2 0x233 JUMP JUMPDEST STOP JUMPDEST CALLVALUE DUP1 ISZERO PUSH2 0xF6 JUMPI PUSH1 0x0 DUP1 REVERT JUMPDEST POP PUSH2 0x111 PUSH1 0x4 DUP1 CALLDATASIZE SUB DUP2 ADD SWAP1 PUSH2 0x10C SWAP2 SWAP1 PUSH2 0x157B JUMP JUMPDEST PUSH2 0x344 JUMP JUMPDEST STOP JUMPDEST CALLVALUE DUP1 ISZERO PUSH2 0x11F JUMPI PUSH1 0x0 DUP1 REVERT JUMPDEST POP PUSH2 0x128 PUSH2 0x4FE JUMP JUMPDEST STOP JUMPDEST CALLVALUE DUP1 ISZERO PUSH2 0x136 JUMPI PUSH1 0x0 DUP1 REVERT JUMPDEST POP PUSH2 0x13F PUSH2 0x512 JUMP JUMPDEST PUSH1 0x40 MLOAD PUSH2 0x14C SWAP2 SWAP1 PUSH2 0x15B7 JUMP JUMPDEST PUSH1 0x40 MLOAD DUP1 SWAP2 SUB SWAP1 RETURN JUMPDEST CALLVALUE DUP1 ISZERO PUSH2 0x161 JUMPI PUSH1 0x0 DUP1 REVERT JUMPDEST POP PUSH2 0x17C PUSH1 0x4 DUP1 CALLDATASIZE SUB DUP2 ADD SWAP1 PUSH2 0x177 SWAP2 SWAP1 PUSH2 0x16E3 JUMP JUMPDEST PUSH2 0x53B JUMP JUMPDEST PUSH1 0x40 MLOAD PUSH2 0x189 SWAP2 SWAP1 PUSH2 0x17FA JUMP JUMPDEST PUSH1 0x40 MLOAD DUP1 SWAP2 SUB SWAP1 RETURN JUMPDEST CALLVALUE DUP1 ISZERO PUSH2 0x19E JUMPI PUSH1 0x0 DUP1 REVERT JUMPDEST POP PUSH2 0x1A7 PUSH2 0x719 JUMP JUMPDEST PUSH1 0x40 MLOAD PUSH2 0x1B4 SWAP2 SWAP1 PUSH2 0x1836 JUMP JUMPDEST PUSH1 0x40 MLOAD DUP1 SWAP2 SUB SWAP1 RETURN JUMPDEST CALLVALUE DUP1 ISZERO PUSH2 0x1C9 JUMPI PUSH1 0x0 DUP1 REVERT JUMPDEST POP PUSH2 0x1E4 PUSH1 0x4 DUP1 CALLDATASIZE SUB DUP2 ADD SWAP1 PUSH2 0x1DF SWAP2 SWAP1 PUSH2 0x1887 JUMP JUMPDEST PUSH2 0x73D JUMP JUMPDEST STOP JUMPDEST CALLVALUE DUP1 ISZERO PUSH2 0x1F2 JUMPI PUSH1 0x0 DUP1 REVERT JUMPDEST POP PUSH2 0x20D PUSH1 0x4 DUP1 CALLDATASIZE SUB DUP2 ADD SWAP1 PUSH2 0x208 SWAP2 SWAP1 PUSH2 0x157B JUMP JUMPDEST PUSH2 0x86B JUMP JUMPDEST STOP JUMPDEST PUSH32 0x0 DUP2 JUMP JUMPDEST PUSH2 0x23B PUSH2 0x8F1 JUMP JUMPDEST PUSH1 0x0 DUP2 SWAP1 POP DUP1 PUSH20 0xFFFFFFFFFFFFFFFFFFFFFFFFFFFFFFFFFFFFFFFF AND PUSH4 0x95EA7B3 CALLER SELFBALANCE PUSH1 0x40 MLOAD DUP4 PUSH4 0xFFFFFFFF AND PUSH1 0xE0 SHL DUP2 MSTORE PUSH1 0x4 ADD PUSH2 0x27B SWAP3 SWAP2 SWAP1 PUSH2 0x18FD JUMP JUMPDEST PUSH1 0x20 PUSH1 0x40 MLOAD DUP1 DUP4 SUB DUP2 PUSH1 0x0 DUP8 GAS CALL ISZERO DUP1 ISZERO PUSH2 0x29A JUMPI RETURNDATASIZE PUSH1 0x0 DUP1 RETURNDATACOPY RETURNDATASIZE PUSH1 0x0 REVERT JUMPDEST POP POP POP POP PUSH1 0x40 MLOAD RETURNDATASIZE PUSH1 0x1F NOT PUSH1 0x1F DUP3 ADD AND DUP3 ADD DUP1 PUSH1 0x40 MSTORE POP DUP2 ADD SWAP1 PUSH2 0x2BE SWAP2 SWAP1 PUSH2 0x1952 JUMP JUMPDEST POP DUP1 PUSH20 0xFFFFFFFFFFFFFFFFFFFFFFFFFFFFFFFFFFFFFFFF AND PUSH4 0x23B872DD ADDRESS CALLER SELFBALANCE PUSH1 0x40 MLOAD DUP5 PUSH4 0xFFFFFFFF AND PUSH1 0xE0 SHL DUP2 MSTORE PUSH1 0x4 ADD PUSH2 0x2FC SWAP4 SWAP3 SWAP2 SWAP1 PUSH2 0x197F JUMP JUMPDEST PUSH1 0x20 PUSH1 0x40 MLOAD DUP1 DUP4 SUB DUP2 PUSH1 0x0 DUP8 GAS CALL ISZERO DUP1 ISZERO PUSH2 0x31B JUMPI RETURNDATASIZE PUSH1 0x0 DUP1 RETURNDATACOPY RETURNDATASIZE PUSH1 0x0 REVERT JUMPDEST POP POP POP POP PUSH1 0x40 MLOAD RETURNDATASIZE PUSH1 0x1F NOT PUSH1 0x1F DUP3 ADD AND DUP3 ADD DUP1 PUSH1 0x40 MSTORE POP DUP2 ADD SWAP1 PUSH2 0x33F SWAP2 SWAP1 PUSH2 0x1952 JUMP JUMPDEST POP POP POP JUMP JUMPDEST PUSH2 0x34C PUSH2 0x8F1 JUMP JUMPDEST PUSH1 0x0 DUP1 PUSH20 0xFFFFFFFFFFFFFFFFFFFFFFFFFFFFFFFFFFFFFFFF AND DUP3 PUSH20 0xFFFFFFFFFFFFFFFFFFFFFFFFFFFFFFFFFFFFFFFF AND SUB PUSH2 0x3ED JUMPI PUSH1 0x0 ADDRESS SWAP1 POP DUP1 PUSH20 0xFFFFFFFFFFFFFFFFFFFFFFFFFFFFFFFFFFFFFFFF AND BALANCE SWAP2 POP CALLER PUSH20 0xFFFFFFFFFFFFFFFFFFFFFFFFFFFFFFFFFFFFFFFF AND PUSH2 0x8FC DUP4 SWAP1 DUP2 ISZERO MUL SWAP1 PUSH1 0x40 MLOAD PUSH1 0x0 PUSH1 0x40 MLOAD DUP1 DUP4 SUB DUP2 DUP6 DUP9 DUP9 CALL SWAP4 POP POP POP POP ISZERO DUP1 ISZERO PUSH2 0x3E6 JUMPI RETURNDATASIZE PUSH1 0x0 DUP1 RETURNDATACOPY RETURNDATASIZE PUSH1 0x0 REVERT JUMPDEST POP POP PUSH2 0x495 JUMP JUMPDEST DUP2 PUSH20 0xFFFFFFFFFFFFFFFFFFFFFFFFFFFFFFFFFFFFFFFF AND PUSH4 0x70A08231 ADDRESS PUSH1 0x40 MLOAD DUP3 PUSH4 0xFFFFFFFF AND PUSH1 0xE0 SHL DUP2 MSTORE PUSH1 0x4 ADD PUSH2 0x426 SWAP2 SWAP1 PUSH2 0x15B7 JUMP JUMPDEST PUSH1 0x20 PUSH1 0x40 MLOAD DUP1 DUP4 SUB DUP2 DUP7 GAS STATICCALL ISZERO DUP1 ISZERO PUSH2 0x443 JUMPI RETURNDATASIZE PUSH1 0x0 DUP1 RETURNDATACOPY RETURNDATASIZE PUSH1 0x0 REVERT JUMPDEST POP POP POP POP PUSH1 0x40 MLOAD RETURNDATASIZE PUSH1 0x1F NOT PUSH1 0x1F DUP3 ADD AND DUP3 ADD DUP1 PUSH1 0x40 MSTORE POP DUP2 ADD SWAP1 PUSH2 0x467 SWAP2 SWAP1 PUSH2 0x19CB JUMP JUMPDEST SWAP1 POP PUSH2 0x494 CALLER DUP3 DUP5 PUSH20 0xFFFFFFFFFFFFFFFFFFFFFFFFFFFFFFFFFFFFFFFF AND PUSH2 0x978 SWAP1 SWAP3 SWAP2 SWAP1 PUSH4 0xFFFFFFFF AND JUMP JUMPDEST JUMPDEST DUP2 PUSH20 0xFFFFFFFFFFFFFFFFFFFFFFFFFFFFFFFFFFFFFFFF AND CALLER PUSH20 0xFFFFFFFFFFFFFFFFFFFFFFFFFFFFFFFFFFFFFFFF AND PUSH32 0x9207361CC2A04B9C7A06691DF1EB87C6A63957AE88BF01D0D18C81E3D1272099 DUP4 PUSH1 0x40 MLOAD PUSH2 0x4F2 SWAP2 SWAP1 PUSH2 0x19F8 JUMP JUMPDEST PUSH1 0x40 MLOAD DUP1 SWAP2 SUB SWAP1 LOG3 POP POP JUMP JUMPDEST PUSH2 0x506 PUSH2 0x8F1 JUMP JUMPDEST PUSH2 0x510 PUSH1 0x0 PUSH2 0x9F7 JUMP JUMPDEST JUMP JUMPDEST PUSH1 0x0 DUP1 PUSH1 0x0 SWAP1 SLOAD SWAP1 PUSH2 0x100 EXP SWAP1 DIV PUSH20 0xFFFFFFFFFFFFFFFFFFFFFFFFFFFFFFFFFFFFFFFF AND SWAP1 POP SWAP1 JUMP JUMPDEST PUSH1 0x0 DUP1 DUP11 DUP11 PUSH1 0x0 DUP2 DUP2 LT PUSH2 0x552 JUMPI PUSH2 0x551 PUSH2 0x1A13 JUMP JUMPDEST JUMPDEST SWAP1 POP PUSH1 0x20 MUL ADD PUSH1 0x20 DUP2 ADD SWAP1 PUSH2 0x567 SWAP2 SWAP1 PUSH2 0x157B JUMP JUMPDEST SWAP1 POP PUSH1 0x0 DUP10 DUP10 PUSH1 0x0 DUP2 DUP2 LT PUSH2 0x57F JUMPI PUSH2 0x57E PUSH2 0x1A13 JUMP JUMPDEST JUMPDEST SWAP1 POP PUSH1 0x20 MUL ADD CALLDATALOAD SWAP1 POP PUSH1 0x0 DUP9 DUP9 PUSH1 0x0 DUP2 DUP2 LT PUSH2 0x59E JUMPI PUSH2 0x59D PUSH2 0x1A13 JUMP JUMPDEST JUMPDEST SWAP1 POP PUSH1 0x20 MUL ADD CALLDATALOAD SWAP1 POP PUSH32 0x0 PUSH20 0xFFFFFFFFFFFFFFFFFFFFFFFFFFFFFFFFFFFFFFFF AND CALLER PUSH20 0xFFFFFFFFFFFFFFFFFFFFFFFFFFFFFFFFFFFFFFFF AND EQ PUSH2 0x635 JUMPI PUSH1 0x40 MLOAD PUSH32 0x8C379A000000000000000000000000000000000000000000000000000000000 DUP2 MSTORE PUSH1 0x4 ADD PUSH2 0x62C SWAP1 PUSH2 0x1A9F JUMP JUMPDEST PUSH1 0x40 MLOAD DUP1 SWAP2 SUB SWAP1 REVERT JUMPDEST PUSH1 0x0 DUP7 DUP7 DUP2 ADD SWAP1 PUSH2 0x646 SWAP2 SWAP1 PUSH2 0x1AFD JUMP JUMPDEST SWAP1 POP PUSH2 0x653 DUP5 DUP5 DUP4 PUSH2 0xABB JUMP JUMPDEST POP PUSH1 0x0 DUP3 DUP5 PUSH2 0x662 SWAP2 SWAP1 PUSH2 0x1B59 JUMP JUMPDEST SWAP1 POP DUP5 PUSH20 0xFFFFFFFFFFFFFFFFFFFFFFFFFFFFFFFFFFFFFFFF AND PUSH4 0x95EA7B3 PUSH32 0x0 DUP4 PUSH1 0x40 MLOAD DUP4 PUSH4 0xFFFFFFFF AND PUSH1 0xE0 SHL DUP2 MSTORE PUSH1 0x4 ADD PUSH2 0x6BF SWAP3 SWAP2 SWAP1 PUSH2 0x18FD JUMP JUMPDEST PUSH1 0x20 PUSH1 0x40 MLOAD DUP1 DUP4 SUB DUP2 PUSH1 0x0 DUP8 GAS CALL ISZERO DUP1 ISZERO PUSH2 0x6DE JUMPI RETURNDATASIZE PUSH1 0x0 DUP1 RETURNDATACOPY RETURNDATASIZE PUSH1 0x0 REVERT JUMPDEST POP POP POP POP PUSH1 0x40 MLOAD RETURNDATASIZE PUSH1 0x1F NOT PUSH1 0x1F DUP3 ADD AND DUP3 ADD DUP1 PUSH1 0x40 MSTORE POP DUP2 ADD SWAP1 PUSH2 0x702 SWAP2 SWAP1 PUSH2 0x1952 JUMP JUMPDEST POP PUSH1 0x1 SWAP6 POP POP POP POP POP POP SWAP10 SWAP9 POP POP POP POP POP POP POP POP POP JUMP JUMPDEST PUSH32 0x0 DUP2 JUMP JUMPDEST PUSH2 0x745 PUSH2 0x8F1 JUMP JUMPDEST PUSH1 0x0 DUP2 PUSH20 0xFFFFFFFFFFFFFFFFFFFFFFFFFFFFFFFFFFFFFFFF AND PUSH4 0xE6A43905 DUP7 DUP6 PUSH1 0x40 MLOAD DUP4 PUSH4 0xFFFFFFFF AND PUSH1 0xE0 SHL DUP2 MSTORE PUSH1 0x4 ADD PUSH2 0x782 SWAP3 SWAP2 SWAP1 PUSH2 0x1B8D JUMP JUMPDEST PUSH1 0x20 PUSH1 0x40 MLOAD DUP1 DUP4 SUB DUP2 DUP7 GAS STATICCALL ISZERO DUP1 ISZERO PUSH2 0x79F JUMPI RETURNDATASIZE PUSH1 0x0 DUP1 RETURNDATACOPY RETURNDATASIZE PUSH1 0x0 REVERT JUMPDEST POP POP POP POP PUSH1 0x40 MLOAD RETURNDATASIZE PUSH1 0x1F NOT PUSH1 0x1F DUP3 ADD AND DUP3 ADD DUP1 PUSH1 0x40 MSTORE POP DUP2 ADD SWAP1 PUSH2 0x7C3 SWAP2 SWAP1 PUSH2 0x1BCB JUMP JUMPDEST SWAP1 POP PUSH1 0x0 PUSH20 0xFFFFFFFFFFFFFFFFFFFFFFFFFFFFFFFFFFFFFFFF AND DUP2 PUSH20 0xFFFFFFFFFFFFFFFFFFFFFFFFFFFFFFFFFFFFFFFF AND SUB PUSH2 0x834 JUMPI PUSH1 0x40 MLOAD PUSH32 0x8C379A000000000000000000000000000000000000000000000000000000000 DUP2 MSTORE PUSH1 0x4 ADD PUSH2 0x82B SWAP1 PUSH2 0x1C44 JUMP JUMPDEST PUSH1 0x40 MLOAD DUP1 SWAP2 SUB SWAP1 REVERT JUMPDEST PUSH1 0x0 DUP4 PUSH1 0x40 MLOAD PUSH1 0x20 ADD PUSH2 0x847 SWAP2 SWAP1 PUSH2 0x15B7 JUMP JUMPDEST PUSH1 0x40 MLOAD PUSH1 0x20 DUP2 DUP4 SUB SUB DUP2 MSTORE SWAP1 PUSH1 0x40 MSTORE SWAP1 POP PUSH2 0x863 DUP7 DUP7 DUP4 PUSH2 0xBFE JUMP JUMPDEST POP POP POP POP POP POP JUMP JUMPDEST PUSH2 0x873 PUSH2 0x8F1 JUMP JUMPDEST PUSH1 0x0 PUSH20 0xFFFFFFFFFFFFFFFFFFFFFFFFFFFFFFFFFFFFFFFF AND DUP2 PUSH20 0xFFFFFFFFFFFFFFFFFFFFFFFFFFFFFFFFFFFFFFFF AND SUB PUSH2 0x8E5 JUMPI PUSH1 0x0 PUSH1 0x40 MLOAD PUSH32 0x1E4FBDF700000000000000000000000000000000000000000000000000000000 DUP2 MSTORE PUSH1 0x4 ADD PUSH2 0x8DC SWAP2 SWAP1 PUSH2 0x15B7 JUMP JUMPDEST PUSH1 0x40 MLOAD DUP1 SWAP2 SUB SWAP1 REVERT JUMPDEST PUSH2 0x8EE DUP2 PUSH2 0x9F7 JUMP JUMPDEST POP JUMP JUMPDEST PUSH2 0x8F9 PUSH2 0xD1C JUMP JUMPDEST PUSH20 0xFFFFFFFFFFFFFFFFFFFFFFFFFFFFFFFFFFFFFFFF AND PUSH2 0x917 PUSH2 0x512 JUMP JUMPDEST PUSH20 0xFFFFFFFFFFFFFFFFFFFFFFFFFFFFFFFFFFFFFFFF AND EQ PUSH2 0x976 JUMPI PUSH2 0x93A PUSH2 0xD1C JUMP JUMPDEST PUSH1 0x40 MLOAD PUSH32 0x118CDAA700000000000000000000000000000000000000000000000000000000 DUP2 MSTORE PUSH1 0x4 ADD PUSH2 0x96D SWAP2 SWAP1 PUSH2 0x15B7 JUMP JUMPDEST PUSH1 0x40 MLOAD DUP1 SWAP2 SUB SWAP1 REVERT JUMPDEST JUMP JUMPDEST PUSH2 0x9F2 DUP4 DUP5 PUSH20 0xFFFFFFFFFFFFFFFFFFFFFFFFFFFFFFFFFFFFFFFF AND PUSH4 0xA9059CBB DUP6 DUP6 PUSH1 0x40 MLOAD PUSH1 0x24 ADD PUSH2 0x9AB SWAP3 SWAP2 SWAP1 PUSH2 0x18FD JUMP JUMPDEST PUSH1 0x40 MLOAD PUSH1 0x20 DUP2 DUP4 SUB SUB DUP2 MSTORE SWAP1 PUSH1 0x40 MSTORE SWAP2 POP PUSH1 0xE0 SHL PUSH1 0x20 DUP3 ADD DUP1 MLOAD PUSH28 0xFFFFFFFFFFFFFFFFFFFFFFFFFFFFFFFFFFFFFFFFFFFFFFFFFFFFFFFF DUP4 DUP2 DUP4 AND OR DUP4 MSTORE POP POP POP POP PUSH2 0xD24 JUMP JUMPDEST POP POP POP JUMP JUMPDEST PUSH1 0x0 DUP1 PUSH1 0x0 SWAP1 SLOAD SWAP1 PUSH2 0x100 EXP SWAP1 DIV PUSH20 0xFFFFFFFFFFFFFFFFFFFFFFFFFFFFFFFFFFFFFFFF AND SWAP1 POP DUP2 PUSH1 0x0 DUP1 PUSH2 0x100 EXP DUP2 SLOAD DUP2 PUSH20 0xFFFFFFFFFFFFFFFFFFFFFFFFFFFFFFFFFFFFFFFF MUL NOT AND SWAP1 DUP4 PUSH20 0xFFFFFFFFFFFFFFFFFFFFFFFFFFFFFFFFFFFFFFFF AND MUL OR SWAP1 SSTORE POP DUP2 PUSH20 0xFFFFFFFFFFFFFFFFFFFFFFFFFFFFFFFFFFFFFFFF AND DUP2 PUSH20 0xFFFFFFFFFFFFFFFFFFFFFFFFFFFFFFFFFFFFFFFF AND PUSH32 0x8BE0079C531659141344CD1FD0A4F28419497F9722A3DAAFE3B4186F6B6457E0 PUSH1 0x40 MLOAD PUSH1 0x40 MLOAD DUP1 SWAP2 SUB SWAP1 LOG3 POP POP JUMP JUMPDEST PUSH1 0x0 DUP1 PUSH2 0xAC9 DUP5 DUP7 DUP6 PUSH2 0xDC6 JUMP JUMPDEST SWAP1 POP PUSH1 0x0 DUP1 PUSH1 0x2 DUP2 GT ISZERO PUSH2 0xAE0 JUMPI PUSH2 0xADF PUSH2 0x1C64 JUMP JUMPDEST JUMPDEST DUP3 PUSH1 0x2 DUP2 GT ISZERO PUSH2 0xAF3 JUMPI PUSH2 0xAF2 PUSH2 0x1C64 JUMP JUMPDEST JUMPDEST SUB PUSH2 0xB5C JUMPI PUSH1 0x0 PUSH2 0xB26 DUP7 PUSH32 0x0 DUP10 DUP9 PUSH2 0xEEF JUMP JUMPDEST SWAP1 POP PUSH2 0xB54 DUP2 PUSH32 0x0 DUP8 DUP11 PUSH2 0xEEF JUMP JUMPDEST SWAP2 POP POP PUSH2 0xBF2 JUMP JUMPDEST PUSH1 0x1 PUSH1 0x2 DUP2 GT ISZERO PUSH2 0xB70 JUMPI PUSH2 0xB6F PUSH2 0x1C64 JUMP JUMPDEST JUMPDEST DUP3 PUSH1 0x2 DUP2 GT ISZERO PUSH2 0xB83 JUMPI PUSH2 0xB82 PUSH2 0x1C64 JUMP JUMPDEST JUMPDEST SUB PUSH2 0xBEC JUMPI PUSH1 0x0 PUSH2 0xBB6 DUP7 PUSH32 0x0 DUP10 DUP9 PUSH2 0xEEF JUMP JUMPDEST SWAP1 POP PUSH2 0xBE4 DUP2 PUSH32 0x0 DUP8 DUP11 PUSH2 0xEEF JUMP JUMPDEST SWAP2 POP POP PUSH2 0xBF1 JUMP JUMPDEST PUSH1 0x0 DUP1 REVERT JUMPDEST JUMPDEST DUP1 SWAP3 POP POP POP SWAP4 SWAP3 POP POP POP JUMP JUMPDEST PUSH1 0x0 PUSH1 0x1 PUSH8 0xFFFFFFFFFFFFFFFF DUP2 GT ISZERO PUSH2 0xC1B JUMPI PUSH2 0xC1A PUSH2 0x1C93 JUMP JUMPDEST JUMPDEST PUSH1 0x40 MLOAD SWAP1 DUP1 DUP3 MSTORE DUP1 PUSH1 0x20 MUL PUSH1 0x20 ADD DUP3 ADD PUSH1 0x40 MSTORE DUP1 ISZERO PUSH2 0xC49 JUMPI DUP2 PUSH1 0x20 ADD PUSH1 0x20 DUP3 MUL DUP1 CALLDATASIZE DUP4 CALLDATACOPY DUP1 DUP3 ADD SWAP2 POP POP SWAP1 POP JUMPDEST POP SWAP1 POP DUP4 DUP2 PUSH1 0x0 DUP2 MLOAD DUP2 LT PUSH2 0xC61 JUMPI PUSH2 0xC60 PUSH2 0x1A13 JUMP JUMPDEST JUMPDEST PUSH1 0x20 MUL PUSH1 0x20 ADD ADD SWAP1 PUSH20 0xFFFFFFFFFFFFFFFFFFFFFFFFFFFFFFFFFFFFFFFF AND SWAP1 DUP2 PUSH20 0xFFFFFFFFFFFFFFFFFFFFFFFFFFFFFFFFFFFFFFFF AND DUP2 MSTORE POP POP PUSH1 0x0 PUSH1 0x1 PUSH8 0xFFFFFFFFFFFFFFFF DUP2 GT ISZERO PUSH2 0xCB8 JUMPI PUSH2 0xCB7 PUSH2 0x1C93 JUMP JUMPDEST JUMPDEST PUSH1 0x40 MLOAD SWAP1 DUP1 DUP3 MSTORE DUP1 PUSH1 0x20 MUL PUSH1 0x20 ADD DUP3 ADD PUSH1 0x40 MSTORE DUP1 ISZERO PUSH2 0xCE6 JUMPI DUP2 PUSH1 0x20 ADD PUSH1 0x20 DUP3 MUL DUP1 CALLDATASIZE DUP4 CALLDATACOPY DUP1 DUP3 ADD SWAP2 POP POP SWAP1 POP JUMPDEST POP SWAP1 POP DUP4 DUP2 PUSH1 0x0 DUP2 MLOAD DUP2 LT PUSH2 0xCFE JUMPI PUSH2 0xCFD PUSH2 0x1A13 JUMP JUMPDEST JUMPDEST PUSH1 0x20 MUL PUSH1 0x20 ADD ADD DUP2 DUP2 MSTORE POP POP PUSH2 0xD15 DUP3 DUP3 DUP6 PUSH2 0x1147 JUMP JUMPDEST POP POP POP POP POP JUMP JUMPDEST PUSH1 0x0 CALLER SWAP1 POP SWAP1 JUMP JUMPDEST PUSH1 0x0 DUP1 PUSH1 0x20 PUSH1 0x0 DUP5 MLOAD PUSH1 0x20 DUP7 ADD PUSH1 0x0 DUP9 GAS CALL DUP1 PUSH2 0xD47 JUMPI PUSH1 0x40 MLOAD RETURNDATASIZE PUSH1 0x0 DUP3 RETURNDATACOPY RETURNDATASIZE DUP2 REVERT JUMPDEST RETURNDATASIZE SWAP3 POP PUSH1 0x0 MLOAD SWAP2 POP POP PUSH1 0x0 DUP3 EQ PUSH2 0xD62 JUMPI PUSH1 0x1 DUP2 EQ ISZERO PUSH2 0xD7E JUMP JUMPDEST PUSH1 0x0 DUP5 PUSH20 0xFFFFFFFFFFFFFFFFFFFFFFFFFFFFFFFFFFFFFFFF AND EXTCODESIZE EQ JUMPDEST ISZERO PUSH2 0xDC0 JUMPI DUP4 PUSH1 0x40 MLOAD PUSH32 0x5274AFE700000000000000000000000000000000000000000000000000000000 DUP2 MSTORE PUSH1 0x4 ADD PUSH2 0xDB7 SWAP2 SWAP1 PUSH2 0x15B7 JUMP JUMPDEST PUSH1 0x40 MLOAD DUP1 SWAP2 SUB SWAP1 REVERT JUMPDEST POP POP POP POP JUMP JUMPDEST PUSH1 0x0 DUP1 PUSH2 0xDF5 PUSH32 0x0 DUP6 DUP6 DUP9 PUSH2 0x127B JUMP JUMPDEST SWAP1 POP PUSH1 0x0 PUSH2 0xE25 PUSH32 0x0 DUP7 DUP7 DUP10 PUSH2 0x127B JUMP JUMPDEST SWAP1 POP DUP1 DUP3 GT ISZERO PUSH2 0xE84 JUMPI PUSH2 0xE3A DUP7 DUP4 DUP4 PUSH2 0x1415 JUMP JUMPDEST PUSH2 0xE79 JUMPI PUSH1 0x40 MLOAD PUSH32 0x8C379A000000000000000000000000000000000000000000000000000000000 DUP2 MSTORE PUSH1 0x4 ADD PUSH2 0xE70 SWAP1 PUSH2 0x1D0E JUMP JUMPDEST PUSH1 0x40 MLOAD DUP1 SWAP2 SUB SWAP1 REVERT JUMPDEST PUSH1 0x0 SWAP3 POP POP POP PUSH2 0xEE8 JUMP JUMPDEST DUP1 DUP3 LT ISZERO PUSH2 0xEE1 JUMPI PUSH2 0xE97 DUP7 DUP3 DUP5 PUSH2 0x1415 JUMP JUMPDEST PUSH2 0xED6 JUMPI PUSH1 0x40 MLOAD PUSH32 0x8C379A000000000000000000000000000000000000000000000000000000000 DUP2 MSTORE PUSH1 0x4 ADD PUSH2 0xECD SWAP1 PUSH2 0x1D0E JUMP JUMPDEST PUSH1 0x40 MLOAD DUP1 SWAP2 SUB SWAP1 REVERT JUMPDEST PUSH1 0x1 SWAP3 POP POP POP PUSH2 0xEE8 JUMP JUMPDEST PUSH1 0x2 SWAP3 POP POP POP JUMPDEST SWAP4 SWAP3 POP POP POP JUMP JUMPDEST PUSH1 0x0 DUP3 PUSH20 0xFFFFFFFFFFFFFFFFFFFFFFFFFFFFFFFFFFFFFFFF AND PUSH4 0x95EA7B3 DUP6 DUP8 PUSH1 0x40 MLOAD DUP4 PUSH4 0xFFFFFFFF AND PUSH1 0xE0 SHL DUP2 MSTORE PUSH1 0x4 ADD PUSH2 0xF2C SWAP3 SWAP2 SWAP1 PUSH2 0x18FD JUMP JUMPDEST PUSH1 0x20 PUSH1 0x40 MLOAD DUP1 DUP4 SUB DUP2 PUSH1 0x0 DUP8 GAS CALL ISZERO DUP1 ISZERO PUSH2 0xF4B JUMPI RETURNDATASIZE PUSH1 0x0 DUP1 RETURNDATACOPY RETURNDATASIZE PUSH1 0x0 REVERT JUMPDEST POP POP POP POP PUSH1 0x40 MLOAD RETURNDATASIZE PUSH1 0x1F NOT PUSH1 0x1F DUP3 ADD AND DUP3 ADD DUP1 PUSH1 0x40 MSTORE POP DUP2 ADD SWAP1 PUSH2 0xF6F SWAP2 SWAP1 PUSH2 0x1952 JUMP JUMPDEST POP PUSH1 0x0 PUSH1 0x64 PUSH1 0x5F PUSH2 0xF82 DUP8 DUP8 DUP8 DUP12 PUSH2 0x127B JUMP JUMPDEST PUSH2 0xF8C SWAP2 SWAP1 PUSH2 0x1D2E JUMP JUMPDEST PUSH2 0xF96 SWAP2 SWAP1 PUSH2 0x1D9F JUMP JUMPDEST SWAP1 POP PUSH1 0x0 PUSH1 0x2 PUSH8 0xFFFFFFFFFFFFFFFF DUP2 GT ISZERO PUSH2 0xFB5 JUMPI PUSH2 0xFB4 PUSH2 0x1C93 JUMP JUMPDEST JUMPDEST PUSH1 0x40 MLOAD SWAP1 DUP1 DUP3 MSTORE DUP1 PUSH1 0x20 MUL PUSH1 0x20 ADD DUP3 ADD PUSH1 0x40 MSTORE DUP1 ISZERO PUSH2 0xFE3 JUMPI DUP2 PUSH1 0x20 ADD PUSH1 0x20 DUP3 MUL DUP1 CALLDATASIZE DUP4 CALLDATACOPY DUP1 DUP3 ADD SWAP2 POP POP SWAP1 POP JUMPDEST POP SWAP1 POP DUP5 DUP2 PUSH1 0x0 DUP2 MLOAD DUP2 LT PUSH2 0xFFB JUMPI PUSH2 0xFFA PUSH2 0x1A13 JUMP JUMPDEST JUMPDEST PUSH1 0x20 MUL PUSH1 0x20 ADD ADD SWAP1 PUSH20 0xFFFFFFFFFFFFFFFFFFFFFFFFFFFFFFFFFFFFFFFF AND SWAP1 DUP2 PUSH20 0xFFFFFFFFFFFFFFFFFFFFFFFFFFFFFFFFFFFFFFFF AND DUP2 MSTORE POP POP DUP4 DUP2 PUSH1 0x1 DUP2 MLOAD DUP2 LT PUSH2 0x104A JUMPI PUSH2 0x1049 PUSH2 0x1A13 JUMP JUMPDEST JUMPDEST PUSH1 0x20 MUL PUSH1 0x20 ADD ADD SWAP1 PUSH20 0xFFFFFFFFFFFFFFFFFFFFFFFFFFFFFFFFFFFFFFFF AND SWAP1 DUP2 PUSH20 0xFFFFFFFFFFFFFFFFFFFFFFFFFFFFFFFFFFFFFFFF AND DUP2 MSTORE POP POP PUSH1 0x0 DUP7 PUSH20 0xFFFFFFFFFFFFFFFFFFFFFFFFFFFFFFFFFFFFFFFF AND PUSH4 0x38ED1739 DUP10 DUP6 DUP6 ADDRESS PUSH2 0x12C TIMESTAMP PUSH2 0x10B4 SWAP2 SWAP1 PUSH2 0x1B59 JUMP JUMPDEST PUSH1 0x40 MLOAD DUP7 PUSH4 0xFFFFFFFF AND PUSH1 0xE0 SHL DUP2 MSTORE PUSH1 0x4 ADD PUSH2 0x10D4 SWAP6 SWAP5 SWAP4 SWAP3 SWAP2 SWAP1 PUSH2 0x1E8E JUMP JUMPDEST PUSH1 0x0 PUSH1 0x40 MLOAD DUP1 DUP4 SUB DUP2 PUSH1 0x0 DUP8 GAS CALL ISZERO DUP1 ISZERO PUSH2 0x10F3 JUMPI RETURNDATASIZE PUSH1 0x0 DUP1 RETURNDATACOPY RETURNDATASIZE PUSH1 0x0 REVERT JUMPDEST POP POP POP POP PUSH1 0x40 MLOAD RETURNDATASIZE PUSH1 0x0 DUP3 RETURNDATACOPY RETURNDATASIZE PUSH1 0x1F NOT PUSH1 0x1F DUP3 ADD AND DUP3 ADD DUP1 PUSH1 0x40 MSTORE POP DUP2 ADD SWAP1 PUSH2 0x111C SWAP2 SWAP1 PUSH2 0x2008 JUMP JUMPDEST PUSH1 0x1 DUP2 MLOAD DUP2 LT PUSH2 0x112F JUMPI PUSH2 0x112E PUSH2 0x1A13 JUMP JUMPDEST JUMPDEST PUSH1 0x20 MUL PUSH1 0x20 ADD ADD MLOAD SWAP1 POP DUP1 SWAP4 POP POP POP POP SWAP5 SWAP4 POP POP POP POP JUMP JUMPDEST PUSH1 0x0 ADDRESS SWAP1 POP PUSH1 0x0 ADDRESS SWAP1 POP PUSH1 0x0 DUP1 DUP7 MLOAD PUSH8 0xFFFFFFFFFFFFFFFF DUP2 GT ISZERO PUSH2 0x116F JUMPI PUSH2 0x116E PUSH2 0x1C93 JUMP JUMPDEST JUMPDEST PUSH1 0x40 MLOAD SWAP1 DUP1 DUP3 MSTORE DUP1 PUSH1 0x20 MUL PUSH1 0x20 ADD DUP3 ADD PUSH1 0x40 MSTORE DUP1 ISZERO PUSH2 0x119D JUMPI DUP2 PUSH1 0x20 ADD PUSH1 0x20 DUP3 MUL DUP1 CALLDATASIZE DUP4 CALLDATACOPY DUP1 DUP3 ADD SWAP2 POP POP SWAP1 POP JUMPDEST POP SWAP1 POP PUSH1 0x0 JUMPDEST DUP8 MLOAD DUP2 LT ISZERO PUSH2 0x11DA JUMPI PUSH1 0x0 DUP3 DUP3 DUP2 MLOAD DUP2 LT PUSH2 0x11C1 JUMPI PUSH2 0x11C0 PUSH2 0x1A13 JUMP JUMPDEST JUMPDEST PUSH1 0x20 MUL PUSH1 0x20 ADD ADD DUP2 DUP2 MSTORE POP POP DUP1 DUP1 PUSH1 0x1 ADD SWAP2 POP POP PUSH2 0x11A3 JUMP JUMPDEST POP PUSH32 0x0 PUSH20 0xFFFFFFFFFFFFFFFFFFFFFFFFFFFFFFFFFFFFFFFF AND PUSH4 0xAB9C4B5D DUP6 DUP10 DUP10 DUP6 DUP9 DUP12 DUP10 PUSH1 0x40 MLOAD DUP9 PUSH4 0xFFFFFFFF AND PUSH1 0xE0 SHL DUP2 MSTORE PUSH1 0x4 ADD PUSH2 0x1240 SWAP8 SWAP7 SWAP6 SWAP5 SWAP4 SWAP3 SWAP2 SWAP1 PUSH2 0x21AB JUMP JUMPDEST PUSH1 0x0 PUSH1 0x40 MLOAD DUP1 DUP4 SUB DUP2 PUSH1 0x0 DUP8 DUP1 EXTCODESIZE ISZERO DUP1 ISZERO PUSH2 0x125A JUMPI PUSH1 0x0 DUP1 REVERT JUMPDEST POP GAS CALL ISZERO DUP1 ISZERO PUSH2 0x126E JUMPI RETURNDATASIZE PUSH1 0x0 DUP1 RETURNDATACOPY RETURNDATASIZE PUSH1 0x0 REVERT JUMPDEST POP POP POP POP POP POP POP POP POP POP POP JUMP JUMPDEST PUSH1 0x0 DUP1 PUSH1 0x2 PUSH8 0xFFFFFFFFFFFFFFFF DUP2 GT ISZERO PUSH2 0x1299 JUMPI PUSH2 0x1298 PUSH2 0x1C93 JUMP JUMPDEST JUMPDEST PUSH1 0x40 MLOAD SWAP1 DUP1 DUP3 MSTORE DUP1 PUSH1 0x20 MUL PUSH1 0x20 ADD DUP3 ADD PUSH1 0x40 MSTORE DUP1 ISZERO PUSH2 0x12C7 JUMPI DUP2 PUSH1 0x20 ADD PUSH1 0x20 DUP3 MUL DUP1 CALLDATASIZE DUP4 CALLDATACOPY DUP1 DUP3 ADD SWAP2 POP POP SWAP1 POP JUMPDEST POP SWAP1 POP DUP5 DUP2 PUSH1 0x0 DUP2 MLOAD DUP2 LT PUSH2 0x12DF JUMPI PUSH2 0x12DE PUSH2 0x1A13 JUMP JUMPDEST JUMPDEST PUSH1 0x20 MUL PUSH1 0x20 ADD ADD SWAP1 PUSH20 0xFFFFFFFFFFFFFFFFFFFFFFFFFFFFFFFFFFFFFFFF AND SWAP1 DUP2 PUSH20 0xFFFFFFFFFFFFFFFFFFFFFFFFFFFFFFFFFFFFFFFF AND DUP2 MSTORE POP POP DUP4 DUP2 PUSH1 0x1 DUP2 MLOAD DUP2 LT PUSH2 0x132E JUMPI PUSH2 0x132D PUSH2 0x1A13 JUMP JUMPDEST JUMPDEST PUSH1 0x20 MUL PUSH1 0x20 ADD ADD SWAP1 PUSH20 0xFFFFFFFFFFFFFFFFFFFFFFFFFFFFFFFFFFFFFFFF AND SWAP1 DUP2 PUSH20 0xFFFFFFFFFFFFFFFFFFFFFFFFFFFFFFFFFFFFFFFF AND DUP2 MSTORE POP POP PUSH1 0x0 DUP7 PUSH20 0xFFFFFFFFFFFFFFFFFFFFFFFFFFFFFFFFFFFFFFFF AND PUSH4 0xD06CA61F DUP6 DUP5 PUSH1 0x40 MLOAD DUP4 PUSH4 0xFFFFFFFF AND PUSH1 0xE0 SHL DUP2 MSTORE PUSH1 0x4 ADD PUSH2 0x13A5 SWAP3 SWAP2 SWAP1 PUSH2 0x2236 JUMP JUMPDEST PUSH1 0x0 PUSH1 0x40 MLOAD DUP1 DUP4 SUB DUP2 DUP7 GAS STATICCALL ISZERO DUP1 ISZERO PUSH2 0x13C2 JUMPI RETURNDATASIZE PUSH1 0x0 DUP1 RETURNDATACOPY RETURNDATASIZE PUSH1 0x0 REVERT JUMPDEST POP POP POP POP PUSH1 0x40 MLOAD RETURNDATASIZE PUSH1 0x0 DUP3 RETURNDATACOPY RETURNDATASIZE PUSH1 0x1F NOT PUSH1 0x1F DUP3 ADD AND DUP3 ADD DUP1 PUSH1 0x40 MSTORE POP DUP2 ADD SWAP1 PUSH2 0x13EB SWAP2 SWAP1 PUSH2 0x2008 JUMP JUMPDEST PUSH1 0x1 DUP2 MLOAD DUP2 LT PUSH2 0x13FE JUMPI PUSH2 0x13FD PUSH2 0x1A13 JUMP JUMPDEST JUMPDEST PUSH1 0x20 MUL PUSH1 0x20 ADD ADD MLOAD SWAP1 POP DUP1 SWAP3 POP POP POP SWAP5 SWAP4 POP POP POP POP JUMP JUMPDEST PUSH1 0x0 DUP1 DUP4 PUSH8 0xDE0B6B3A7640000 DUP5 DUP7 PUSH2 0x142E SWAP2 SWAP1 PUSH2 0x2266 JUMP JUMPDEST PUSH2 0x1438 SWAP2 SWAP1 PUSH2 0x1D2E JUMP JUMPDEST PUSH2 0x1442 SWAP2 SWAP1 PUSH2 0x1D9F JUMP JUMPDEST SWAP1 POP PUSH1 0x0 PUSH2 0x3E8 PUSH1 0x3 DUP8 PUSH2 0x1456 SWAP2 SWAP1 PUSH2 0x1D2E JUMP JUMPDEST PUSH1 0x2 PUSH2 0x1462 SWAP2 SWAP1 PUSH2 0x1D2E JUMP JUMPDEST PUSH2 0x146C SWAP2 SWAP1 PUSH2 0x1D9F JUMP JUMPDEST SWAP1 POP DUP1 DUP3 GT ISZERO PUSH2 0x1481 JUMPI PUSH1 0x1 SWAP3 POP POP POP PUSH2 0x1488 JUMP JUMPDEST PUSH1 0x0 SWAP3 POP POP POP JUMPDEST SWAP4 SWAP3 POP POP POP JUMP JUMPDEST PUSH1 0x0 PUSH20 0xFFFFFFFFFFFFFFFFFFFFFFFFFFFFFFFFFFFFFFFF DUP3 AND SWAP1 POP SWAP2 SWAP1 POP JUMP JUMPDEST PUSH1 0x0 DUP2 SWAP1 POP SWAP2 SWAP1 POP JUMP JUMPDEST PUSH1 0x0 PUSH2 0x14D4 PUSH2 0x14CF PUSH2 0x14CA DUP5 PUSH2 0x148F JUMP JUMPDEST PUSH2 0x14AF JUMP JUMPDEST PUSH2 0x148F JUMP JUMPDEST SWAP1 POP SWAP2 SWAP1 POP JUMP JUMPDEST PUSH1 0x0 PUSH2 0x14E6 DUP3 PUSH2 0x14B9 JUMP JUMPDEST SWAP1 POP SWAP2 SWAP1 POP JUMP JUMPDEST PUSH1 0x0 PUSH2 0x14F8 DUP3 PUSH2 0x14DB JUMP JUMPDEST SWAP1 POP SWAP2 SWAP1 POP JUMP JUMPDEST PUSH2 0x1508 DUP2 PUSH2 0x14ED JUMP JUMPDEST DUP3 MSTORE POP POP JUMP JUMPDEST PUSH1 0x0 PUSH1 0x20 DUP3 ADD SWAP1 POP PUSH2 0x1523 PUSH1 0x0 DUP4 ADD DUP5 PUSH2 0x14FF JUMP JUMPDEST SWAP3 SWAP2 POP POP JUMP JUMPDEST PUSH1 0x0 PUSH1 0x40 MLOAD SWAP1 POP SWAP1 JUMP JUMPDEST PUSH1 0x0 DUP1 REVERT JUMPDEST PUSH1 0x0 DUP1 REVERT JUMPDEST PUSH1 0x0 PUSH2 0x1548 DUP3 PUSH2 0x148F JUMP JUMPDEST SWAP1 POP SWAP2 SWAP1 POP JUMP JUMPDEST PUSH2 0x1558 DUP2 PUSH2 0x153D JUMP JUMPDEST DUP2 EQ PUSH2 0x1563 JUMPI PUSH1 0x0 DUP1 REVERT JUMPDEST POP JUMP JUMPDEST PUSH1 0x0 DUP2 CALLDATALOAD SWAP1 POP PUSH2 0x1575 DUP2 PUSH2 0x154F JUMP JUMPDEST SWAP3 SWAP2 POP POP JUMP JUMPDEST PUSH1 0x0 PUSH1 0x20 DUP3 DUP5 SUB SLT ISZERO PUSH2 0x1591 JUMPI PUSH2 0x1590 PUSH2 0x1533 JUMP JUMPDEST JUMPDEST PUSH1 0x0 PUSH2 0x159F DUP5 DUP3 DUP6 ADD PUSH2 0x1566 JUMP JUMPDEST SWAP2 POP POP SWAP3 SWAP2 POP POP JUMP JUMPDEST PUSH2 0x15B1 DUP2 PUSH2 0x153D JUMP JUMPDEST DUP3 MSTORE POP POP JUMP JUMPDEST PUSH1 0x0 PUSH1 0x20 DUP3 ADD SWAP1 POP PUSH2 0x15CC PUSH1 0x0 DUP4 ADD DUP5 PUSH2 0x15A8 JUMP JUMPDEST SWAP3 SWAP2 POP POP JUMP JUMPDEST PUSH1 0x0 DUP1 REVERT JUMPDEST PUSH1 0x0 DUP1 REVERT JUMPDEST PUSH1 0x0 DUP1 REVERT JUMPDEST PUSH1 0x0 DUP1 DUP4 PUSH1 0x1F DUP5 ADD SLT PUSH2 0x15F7 JUMPI PUSH2 0x15F6 PUSH2 0x15D2 JUMP JUMPDEST JUMPDEST DUP3 CALLDATALOAD SWAP1 POP PUSH8 0xFFFFFFFFFFFFFFFF DUP2 GT ISZERO PUSH2 0x1614 JUMPI PUSH2 0x1613 PUSH2 0x15D7 JUMP JUMPDEST JUMPDEST PUSH1 0x20 DUP4 ADD SWAP2 POP DUP4 PUSH1 0x20 DUP3 MUL DUP4 ADD GT ISZERO PUSH2 0x1630 JUMPI PUSH2 0x162F PUSH2 0x15DC JUMP JUMPDEST JUMPDEST SWAP3 POP SWAP3 SWAP1 POP JUMP JUMPDEST PUSH1 0x0 DUP1 DUP4 PUSH1 0x1F DUP5 ADD SLT PUSH2 0x164D JUMPI PUSH2 0x164C PUSH2 0x15D2 JUMP JUMPDEST JUMPDEST DUP3 CALLDATALOAD SWAP1 POP PUSH8 0xFFFFFFFFFFFFFFFF DUP2 GT ISZERO PUSH2 0x166A JUMPI PUSH2 0x1669 PUSH2 0x15D7 JUMP JUMPDEST JUMPDEST PUSH1 0x20 DUP4 ADD SWAP2 POP DUP4 PUSH1 0x20 DUP3 MUL DUP4 ADD GT ISZERO PUSH2 0x1686 JUMPI PUSH2 0x1685 PUSH2 0x15DC JUMP JUMPDEST JUMPDEST SWAP3 POP SWAP3 SWAP1 POP JUMP JUMPDEST PUSH1 0x0 DUP1 DUP4 PUSH1 0x1F DUP5 ADD SLT PUSH2 0x16A3 JUMPI PUSH2 0x16A2 PUSH2 0x15D2 JUMP JUMPDEST JUMPDEST DUP3 CALLDATALOAD SWAP1 POP PUSH8 0xFFFFFFFFFFFFFFFF DUP2 GT ISZERO PUSH2 0x16C0 JUMPI PUSH2 0x16BF PUSH2 0x15D7 JUMP JUMPDEST JUMPDEST PUSH1 0x20 DUP4 ADD SWAP2 POP DUP4 PUSH1 0x1 DUP3 MUL DUP4 ADD GT ISZERO PUSH2 0x16DC JUMPI PUSH2 0x16DB PUSH2 0x15DC JUMP JUMPDEST JUMPDEST SWAP3 POP SWAP3 SWAP1 POP JUMP JUMPDEST PUSH1 0x0 DUP1 PUSH1 0x0 DUP1 PUSH1 0x0 DUP1 PUSH1 0x0 DUP1 PUSH1 0x0 PUSH1 0xA0 DUP11 DUP13 SUB SLT ISZERO PUSH2 0x1705 JUMPI PUSH2 0x1704 PUSH2 0x1533 JUMP JUMPDEST JUMPDEST PUSH1 0x0 DUP11 ADD CALLDATALOAD PUSH8 0xFFFFFFFFFFFFFFFF DUP2 GT ISZERO PUSH2 0x1723 JUMPI PUSH2 0x1722 PUSH2 0x1538 JUMP JUMPDEST JUMPDEST PUSH2 0x172F DUP13 DUP3 DUP14 ADD PUSH2 0x15E1 JUMP JUMPDEST SWAP10 POP SWAP10 POP POP PUSH1 0x20 DUP11 ADD CALLDATALOAD PUSH8 0xFFFFFFFFFFFFFFFF DUP2 GT ISZERO PUSH2 0x1752 JUMPI PUSH2 0x1751 PUSH2 0x1538 JUMP JUMPDEST JUMPDEST PUSH2 0x175E DUP13 DUP3 DUP14 ADD PUSH2 0x1637 JUMP JUMPDEST SWAP8 POP SWAP8 POP POP PUSH1 0x40 DUP11 ADD CALLDATALOAD PUSH8 0xFFFFFFFFFFFFFFFF DUP2 GT ISZERO PUSH2 0x1781 JUMPI PUSH2 0x1780 PUSH2 0x1538 JUMP JUMPDEST JUMPDEST PUSH2 0x178D DUP13 DUP3 DUP14 ADD PUSH2 0x1637 JUMP JUMPDEST SWAP6 POP SWAP6 POP POP PUSH1 0x60 PUSH2 0x17A0 DUP13 DUP3 DUP14 ADD PUSH2 0x1566 JUMP JUMPDEST SWAP4 POP POP PUSH1 0x80 DUP11 ADD CALLDATALOAD PUSH8 0xFFFFFFFFFFFFFFFF DUP2 GT ISZERO PUSH2 0x17C1 JUMPI PUSH2 0x17C0 PUSH2 0x1538 JUMP JUMPDEST JUMPDEST PUSH2 0x17CD DUP13 DUP3 DUP14 ADD PUSH2 0x168D JUMP JUMPDEST SWAP3 POP SWAP3 POP POP SWAP3 SWAP6 SWAP9 POP SWAP3 SWAP6 SWAP9 POP SWAP3 SWAP6 SWAP9 JUMP JUMPDEST PUSH1 0x0 DUP2 ISZERO ISZERO SWAP1 POP SWAP2 SWAP1 POP JUMP JUMPDEST PUSH2 0x17F4 DUP2 PUSH2 0x17DF JUMP JUMPDEST DUP3 MSTORE POP POP JUMP JUMPDEST PUSH1 0x0 PUSH1 0x20 DUP3 ADD SWAP1 POP PUSH2 0x180F PUSH1 0x0 DUP4 ADD DUP5 PUSH2 0x17EB JUMP JUMPDEST SWAP3 SWAP2 POP POP JUMP JUMPDEST PUSH1 0x0 PUSH2 0x1820 DUP3 PUSH2 0x14DB JUMP JUMPDEST SWAP1 POP SWAP2 SWAP1 POP JUMP JUMPDEST PUSH2 0x1830 DUP2 PUSH2 0x1815 JUMP JUMPDEST DUP3 MSTORE POP POP JUMP JUMPDEST PUSH1 0x0 PUSH1 0x20 DUP3 ADD SWAP1 POP PUSH2 0x184B PUSH1 0x0 DUP4 ADD DUP5 PUSH2 0x1827 JUMP JUMPDEST SWAP3 SWAP2 POP POP JUMP JUMPDEST PUSH1 0x0 DUP2 SWAP1 POP SWAP2 SWAP1 POP JUMP JUMPDEST PUSH2 0x1864 DUP2 PUSH2 0x1851 JUMP JUMPDEST DUP2 EQ PUSH2 0x186F JUMPI PUSH1 0x0 DUP1 REVERT JUMPDEST POP JUMP JUMPDEST PUSH1 0x0 DUP2 CALLDATALOAD SWAP1 POP PUSH2 0x1881 DUP2 PUSH2 0x185B JUMP JUMPDEST SWAP3 SWAP2 POP POP JUMP JUMPDEST PUSH1 0x0 DUP1 PUSH1 0x0 DUP1 PUSH1 0x80 DUP6 DUP8 SUB SLT ISZERO PUSH2 0x18A1 JUMPI PUSH2 0x18A0 PUSH2 0x1533 JUMP JUMPDEST JUMPDEST PUSH1 0x0 PUSH2 0x18AF DUP8 DUP3 DUP9 ADD PUSH2 0x1566 JUMP JUMPDEST SWAP5 POP POP PUSH1 0x20 PUSH2 0x18C0 DUP8 DUP3 DUP9 ADD PUSH2 0x1872 JUMP JUMPDEST SWAP4 POP POP PUSH1 0x40 PUSH2 0x18D1 DUP8 DUP3 DUP9 ADD PUSH2 0x1566 JUMP JUMPDEST SWAP3 POP POP PUSH1 0x60 PUSH2 0x18E2 DUP8 DUP3 DUP9 ADD PUSH2 0x1566 JUMP JUMPDEST SWAP2 POP POP SWAP3 SWAP6 SWAP2 SWAP5 POP SWAP3 POP JUMP JUMPDEST PUSH2 0x18F7 DUP2 PUSH2 0x1851 JUMP JUMPDEST DUP3 MSTORE POP POP JUMP JUMPDEST PUSH1 0x0 PUSH1 0x40 DUP3 ADD SWAP1 POP PUSH2 0x1912 PUSH1 0x0 DUP4 ADD DUP6 PUSH2 0x15A8 JUMP JUMPDEST PUSH2 0x191F PUSH1 0x20 DUP4 ADD DUP5 PUSH2 0x18EE JUMP JUMPDEST SWAP4 SWAP3 POP POP POP JUMP JUMPDEST PUSH2 0x192F DUP2 PUSH2 0x17DF JUMP JUMPDEST DUP2 EQ PUSH2 0x193A JUMPI PUSH1 0x0 DUP1 REVERT JUMPDEST POP JUMP JUMPDEST PUSH1 0x0 DUP2 MLOAD SWAP1 POP PUSH2 0x194C DUP2 PUSH2 0x1926 JUMP JUMPDEST SWAP3 SWAP2 POP POP JUMP JUMPDEST PUSH1 0x0 PUSH1 0x20 DUP3 DUP5 SUB SLT ISZERO PUSH2 0x1968 JUMPI PUSH2 0x1967 PUSH2 0x1533 JUMP JUMPDEST JUMPDEST PUSH1 0x0 PUSH2 0x1976 DUP5 DUP3 DUP6 ADD PUSH2 0x193D JUMP JUMPDEST SWAP2 POP POP SWAP3 SWAP2 POP POP JUMP JUMPDEST PUSH1 0x0 PUSH1 0x60 DUP3 ADD SWAP1 POP PUSH2 0x1994 PUSH1 0x0 DUP4 ADD DUP7 PUSH2 0x15A8 JUMP JUMPDEST PUSH2 0x19A1 PUSH1 0x20 DUP4 ADD DUP6 PUSH2 0x15A8 JUMP JUMPDEST PUSH2 0x19AE PUSH1 0x40 DUP4 ADD DUP5 PUSH2 0x18EE JUMP JUMPDEST SWAP5 SWAP4 POP POP POP POP JUMP JUMPDEST PUSH1 0x0 DUP2 MLOAD SWAP1 POP PUSH2 0x19C5 DUP2 PUSH2 0x185B JUMP JUMPDEST SWAP3 SWAP2 POP POP JUMP JUMPDEST PUSH1 0x0 PUSH1 0x20 DUP3 DUP5 SUB SLT ISZERO PUSH2 0x19E1 JUMPI PUSH2 0x19E0 PUSH2 0x1533 JUMP JUMPDEST JUMPDEST PUSH1 0x0 PUSH2 0x19EF DUP5 DUP3 DUP6 ADD PUSH2 0x19B6 JUMP JUMPDEST SWAP2 POP POP SWAP3 SWAP2 POP POP JUMP JUMPDEST PUSH1 0x0 PUSH1 0x20 DUP3 ADD SWAP1 POP PUSH2 0x1A0D PUSH1 0x0 DUP4 ADD DUP5 PUSH2 0x18EE JUMP JUMPDEST SWAP3 SWAP2 POP POP JUMP JUMPDEST PUSH32 0x4E487B7100000000000000000000000000000000000000000000000000000000 PUSH1 0x0 MSTORE PUSH1 0x32 PUSH1 0x4 MSTORE PUSH1 0x24 PUSH1 0x0 REVERT JUMPDEST PUSH1 0x0 DUP3 DUP3 MSTORE PUSH1 0x20 DUP3 ADD SWAP1 POP SWAP3 SWAP2 POP POP JUMP JUMPDEST PUSH32 0x4E6F7420706F6F6C000000000000000000000000000000000000000000000000 PUSH1 0x0 DUP3 ADD MSTORE POP JUMP JUMPDEST PUSH1 0x0 PUSH2 0x1A89 PUSH1 0x8 DUP4 PUSH2 0x1A42 JUMP JUMPDEST SWAP2 POP PUSH2 0x1A94 DUP3 PUSH2 0x1A53 JUMP JUMPDEST PUSH1 0x20 DUP3 ADD SWAP1 POP SWAP2 SWAP1 POP JUMP JUMPDEST PUSH1 0x0 PUSH1 0x20 DUP3 ADD SWAP1 POP DUP2 DUP2 SUB PUSH1 0x0 DUP4 ADD MSTORE PUSH2 0x1AB8 DUP2 PUSH2 0x1A7C JUMP JUMPDEST SWAP1 POP SWAP2 SWAP1 POP JUMP JUMPDEST PUSH1 0x0 PUSH2 0x1ACA DUP3 PUSH2 0x148F JUMP JUMPDEST SWAP1 POP SWAP2 SWAP1 POP JUMP JUMPDEST PUSH2 0x1ADA DUP2 PUSH2 0x1ABF JUMP JUMPDEST DUP2 EQ PUSH2 0x1AE5 JUMPI PUSH1 0x0 DUP1 REVERT JUMPDEST POP JUMP JUMPDEST PUSH1 0x0 DUP2 CALLDATALOAD SWAP1 POP PUSH2 0x1AF7 DUP2 PUSH2 0x1AD1 JUMP JUMPDEST SWAP3 SWAP2 POP POP JUMP JUMPDEST PUSH1 0x0 PUSH1 0x20 DUP3 DUP5 SUB SLT ISZERO PUSH2 0x1B13 JUMPI PUSH2 0x1B12 PUSH2 0x1533 JUMP JUMPDEST JUMPDEST PUSH1 0x0 PUSH2 0x1B21 DUP5 DUP3 DUP6 ADD PUSH2 0x1AE8 JUMP JUMPDEST SWAP2 POP POP SWAP3 SWAP2 POP POP JUMP JUMPDEST PUSH32 0x4E487B7100000000000000000000000000000000000000000000000000000000 PUSH1 0x0 MSTORE PUSH1 0x11 PUSH1 0x4 MSTORE PUSH1 0x24 PUSH1 0x0 REVERT JUMPDEST PUSH1 0x0 PUSH2 0x1B64 DUP3 PUSH2 0x1851 JUMP JUMPDEST SWAP2 POP PUSH2 0x1B6F DUP4 PUSH2 0x1851 JUMP JUMPDEST SWAP3 POP DUP3 DUP3 ADD SWAP1 POP DUP1 DUP3 GT ISZERO PUSH2 0x1B87 JUMPI PUSH2 0x1B86 PUSH2 0x1B2A JUMP JUMPDEST JUMPDEST SWAP3 SWAP2 POP POP JUMP JUMPDEST PUSH1 0x0 PUSH1 0x40 DUP3 ADD SWAP1 POP PUSH2 0x1BA2 PUSH1 0x0 DUP4 ADD DUP6 PUSH2 0x15A8 JUMP JUMPDEST PUSH2 0x1BAF PUSH1 0x20 DUP4 ADD DUP5 PUSH2 0x15A8 JUMP JUMPDEST SWAP4 SWAP3 POP POP POP JUMP JUMPDEST PUSH1 0x0 DUP2 MLOAD SWAP1 POP PUSH2 0x1BC5 DUP2 PUSH2 0x154F JUMP JUMPDEST SWAP3 SWAP2 POP POP JUMP JUMPDEST PUSH1 0x0 PUSH1 0x20 DUP3 DUP5 SUB SLT ISZERO PUSH2 0x1BE1 JUMPI PUSH2 0x1BE0 PUSH2 0x1533 JUMP JUMPDEST JUMPDEST PUSH1 0x0 PUSH2 0x1BEF DUP5 DUP3 DUP6 ADD PUSH2 0x1BB6 JUMP JUMPDEST SWAP2 POP POP SWAP3 SWAP2 POP POP JUMP JUMPDEST PUSH32 0x506169724164647265737320646F6573206E6F74206578697374210000000000 PUSH1 0x0 DUP3 ADD MSTORE POP JUMP JUMPDEST PUSH1 0x0 PUSH2 0x1C2E PUSH1 0x1B DUP4 PUSH2 0x1A42 JUMP JUMPDEST SWAP2 POP PUSH2 0x1C39 DUP3 PUSH2 0x1BF8 JUMP JUMPDEST PUSH1 0x20 DUP3 ADD SWAP1 POP SWAP2 SWAP1 POP JUMP JUMPDEST PUSH1 0x0 PUSH1 0x20 DUP3 ADD SWAP1 POP DUP2 DUP2 SUB PUSH1 0x0 DUP4 ADD MSTORE PUSH2 0x1C5D DUP2 PUSH2 0x1C21 JUMP JUMPDEST SWAP1 POP SWAP2 SWAP1 POP JUMP JUMPDEST PUSH32 0x4E487B7100000000000000000000000000000000000000000000000000000000 PUSH1 0x0 MSTORE PUSH1 0x21 PUSH1 0x4 MSTORE PUSH1 0x24 PUSH1 0x0 REVERT JUMPDEST PUSH32 0x4E487B7100000000000000000000000000000000000000000000000000000000 PUSH1 0x0 MSTORE PUSH1 0x41 PUSH1 0x4 MSTORE PUSH1 0x24 PUSH1 0x0 REVERT JUMPDEST PUSH32 0x417262697472616765206E6F742070726F66697461626C650000000000000000 PUSH1 0x0 DUP3 ADD MSTORE POP JUMP JUMPDEST PUSH1 0x0 PUSH2 0x1CF8 PUSH1 0x18 DUP4 PUSH2 0x1A42 JUMP JUMPDEST SWAP2 POP PUSH2 0x1D03 DUP3 PUSH2 0x1CC2 JUMP JUMPDEST PUSH1 0x20 DUP3 ADD SWAP1 POP SWAP2 SWAP1 POP JUMP JUMPDEST PUSH1 0x0 PUSH1 0x20 DUP3 ADD SWAP1 POP DUP2 DUP2 SUB PUSH1 0x0 DUP4 ADD MSTORE PUSH2 0x1D27 DUP2 PUSH2 0x1CEB JUMP JUMPDEST SWAP1 POP SWAP2 SWAP1 POP JUMP JUMPDEST PUSH1 0x0 PUSH2 0x1D39 DUP3 PUSH2 0x1851 JUMP JUMPDEST SWAP2 POP PUSH2 0x1D44 DUP4 PUSH2 0x1851 JUMP JUMPDEST SWAP3 POP DUP3 DUP3 MUL PUSH2 0x1D52 DUP2 PUSH2 0x1851 JUMP JUMPDEST SWAP2 POP DUP3 DUP3 DIV DUP5 EQ DUP4 ISZERO OR PUSH2 0x1D69 JUMPI PUSH2 0x1D68 PUSH2 0x1B2A JUMP JUMPDEST JUMPDEST POP SWAP3 SWAP2 POP POP JUMP JUMPDEST PUSH32 0x4E487B7100000000000000000000000000000000000000000000000000000000 PUSH1 0x0 MSTORE PUSH1 0x12 PUSH1 0x4 MSTORE PUSH1 0x24 PUSH1 0x0 REVERT JUMPDEST PUSH1 0x0 PUSH2 0x1DAA DUP3 PUSH2 0x1851 JUMP JUMPDEST SWAP2 POP PUSH2 0x1DB5 DUP4 PUSH2 0x1851 JUMP JUMPDEST SWAP3 POP DUP3 PUSH2 0x1DC5 JUMPI PUSH2 0x1DC4 PUSH2 0x1D70 JUMP JUMPDEST JUMPDEST DUP3 DUP3 DIV SWAP1 POP SWAP3 SWAP2 POP POP JUMP JUMPDEST PUSH1 0x0 DUP2 MLOAD SWAP1 POP SWAP2 SWAP1 POP JUMP JUMPDEST PUSH1 0x0 DUP3 DUP3 MSTORE PUSH1 0x20 DUP3 ADD SWAP1 POP SWAP3 SWAP2 POP POP JUMP JUMPDEST PUSH1 0x0 DUP2 SWAP1 POP PUSH1 0x20 DUP3 ADD SWAP1 POP SWAP2 SWAP1 POP JUMP JUMPDEST PUSH2 0x1E05 DUP2 PUSH2 0x153D JUMP JUMPDEST DUP3 MSTORE POP POP JUMP JUMPDEST PUSH1 0x0 PUSH2 0x1E17 DUP4 DUP4 PUSH2 0x1DFC JUMP JUMPDEST PUSH1 0x20 DUP4 ADD SWAP1 POP SWAP3 SWAP2 POP POP JUMP JUMPDEST PUSH1 0x0 PUSH1 0x20 DUP3 ADD SWAP1 POP SWAP2 SWAP1 POP JUMP JUMPDEST PUSH1 0x0 PUSH2 0x1E3B DUP3 PUSH2 0x1DD0 JUMP JUMPDEST PUSH2 0x1E45 DUP2 DUP6 PUSH2 0x1DDB JUMP JUMPDEST SWAP4 POP PUSH2 0x1E50 DUP4 PUSH2 0x1DEC JUMP JUMPDEST DUP1 PUSH1 0x0 JUMPDEST DUP4 DUP2 LT ISZERO PUSH2 0x1E81 JUMPI DUP2 MLOAD PUSH2 0x1E68 DUP9 DUP3 PUSH2 0x1E0B JUMP JUMPDEST SWAP8 POP PUSH2 0x1E73 DUP4 PUSH2 0x1E23 JUMP JUMPDEST SWAP3 POP POP PUSH1 0x1 DUP2 ADD SWAP1 POP PUSH2 0x1E54 JUMP JUMPDEST POP DUP6 SWAP4 POP POP POP POP SWAP3 SWAP2 POP POP JUMP JUMPDEST PUSH1 0x0 PUSH1 0xA0 DUP3 ADD SWAP1 POP PUSH2 0x1EA3 PUSH1 0x0 DUP4 ADD DUP9 PUSH2 0x18EE JUMP JUMPDEST PUSH2 0x1EB0 PUSH1 0x20 DUP4 ADD DUP8 PUSH2 0x18EE JUMP JUMPDEST DUP2 DUP2 SUB PUSH1 0x40 DUP4 ADD MSTORE PUSH2 0x1EC2 DUP2 DUP7 PUSH2 0x1E30 JUMP JUMPDEST SWAP1 POP PUSH2 0x1ED1 PUSH1 0x60 DUP4 ADD DUP6 PUSH2 0x15A8 JUMP JUMPDEST PUSH2 0x1EDE PUSH1 0x80 DUP4 ADD DUP5 PUSH2 0x18EE JUMP JUMPDEST SWAP7 SWAP6 POP POP POP POP POP POP JUMP JUMPDEST PUSH1 0x0 PUSH1 0x1F NOT PUSH1 0x1F DUP4 ADD AND SWAP1 POP SWAP2 SWAP1 POP JUMP JUMPDEST PUSH2 0x1F02 DUP3 PUSH2 0x1EE8 JUMP JUMPDEST DUP2 ADD DUP2 DUP2 LT PUSH8 0xFFFFFFFFFFFFFFFF DUP3 GT OR ISZERO PUSH2 0x1F21 JUMPI PUSH2 0x1F20 PUSH2 0x1C93 JUMP JUMPDEST JUMPDEST DUP1 PUSH1 0x40 MSTORE POP POP POP JUMP JUMPDEST PUSH1 0x0 PUSH2 0x1F34 PUSH2 0x1529 JUMP JUMPDEST SWAP1 POP PUSH2 0x1F40 DUP3 DUP3 PUSH2 0x1EF9 JUMP JUMPDEST SWAP2 SWAP1 POP JUMP JUMPDEST PUSH1 0x0 PUSH8 0xFFFFFFFFFFFFFFFF DUP3 GT ISZERO PUSH2 0x1F60 JUMPI PUSH2 0x1F5F PUSH2 0x1C93 JUMP JUMPDEST JUMPDEST PUSH1 0x20 DUP3 MUL SWAP1 POP PUSH1 0x20 DUP2 ADD SWAP1 POP SWAP2 SWAP1 POP JUMP JUMPDEST PUSH1 0x0 PUSH2 0x1F84 PUSH2 0x1F7F DUP5 PUSH2 0x1F45 JUMP JUMPDEST PUSH2 0x1F2A JUMP JUMPDEST SWAP1 POP DUP1 DUP4 DUP3 MSTORE PUSH1 0x20 DUP3 ADD SWAP1 POP PUSH1 0x20 DUP5 MUL DUP4 ADD DUP6 DUP2 GT ISZERO PUSH2 0x1FA7 JUMPI PUSH2 0x1FA6 PUSH2 0x15DC JUMP JUMPDEST JUMPDEST DUP4 JUMPDEST DUP2 DUP2 LT ISZERO PUSH2 0x1FD0 JUMPI DUP1 PUSH2 0x1FBC DUP9 DUP3 PUSH2 0x19B6 JUMP JUMPDEST DUP5 MSTORE PUSH1 0x20 DUP5 ADD SWAP4 POP POP PUSH1 0x20 DUP2 ADD SWAP1 POP PUSH2 0x1FA9 JUMP JUMPDEST POP POP POP SWAP4 SWAP3 POP POP POP JUMP JUMPDEST PUSH1 0x0 DUP3 PUSH1 0x1F DUP4 ADD SLT PUSH2 0x1FEF JUMPI PUSH2 0x1FEE PUSH2 0x15D2 JUMP JUMPDEST JUMPDEST DUP2 MLOAD PUSH2 0x1FFF DUP5 DUP3 PUSH1 0x20 DUP7 ADD PUSH2 0x1F71 JUMP JUMPDEST SWAP2 POP POP SWAP3 SWAP2 POP POP JUMP JUMPDEST PUSH1 0x0 PUSH1 0x20 DUP3 DUP5 SUB SLT ISZERO PUSH2 0x201E JUMPI PUSH2 0x201D PUSH2 0x1533 JUMP JUMPDEST JUMPDEST PUSH1 0x0 DUP3 ADD MLOAD PUSH8 0xFFFFFFFFFFFFFFFF DUP2 GT ISZERO PUSH2 0x203C JUMPI PUSH2 0x203B PUSH2 0x1538 JUMP JUMPDEST JUMPDEST PUSH2 0x2048 DUP5 DUP3 DUP6 ADD PUSH2 0x1FDA JUMP JUMPDEST SWAP2 POP POP SWAP3 SWAP2 POP POP JUMP JUMPDEST PUSH1 0x0 DUP2 MLOAD SWAP1 POP SWAP2 SWAP1 POP JUMP JUMPDEST PUSH1 0x0 DUP3 DUP3 MSTORE PUSH1 0x20 DUP3 ADD SWAP1 POP SWAP3 SWAP2 POP POP JUMP JUMPDEST PUSH1 0x0 DUP2 SWAP1 POP PUSH1 0x20 DUP3 ADD SWAP1 POP SWAP2 SWAP1 POP JUMP JUMPDEST PUSH2 0x2086 DUP2 PUSH2 0x1851 JUMP JUMPDEST DUP3 MSTORE POP POP JUMP JUMPDEST PUSH1 0x0 PUSH2 0x2098 DUP4 DUP4 PUSH2 0x207D JUMP JUMPDEST PUSH1 0x20 DUP4 ADD SWAP1 POP SWAP3 SWAP2 POP POP JUMP JUMPDEST PUSH1 0x0 PUSH1 0x20 DUP3 ADD SWAP1 POP SWAP2 SWAP1 POP JUMP JUMPDEST PUSH1 0x0 PUSH2 0x20BC DUP3 PUSH2 0x2051 JUMP JUMPDEST PUSH2 0x20C6 DUP2 DUP6 PUSH2 0x205C JUMP JUMPDEST SWAP4 POP PUSH2 0x20D1 DUP4 PUSH2 0x206D JUMP JUMPDEST DUP1 PUSH1 0x0 JUMPDEST DUP4 DUP2 LT ISZERO PUSH2 0x2102 JUMPI DUP2 MLOAD PUSH2 0x20E9 DUP9 DUP3 PUSH2 0x208C JUMP JUMPDEST SWAP8 POP PUSH2 0x20F4 DUP4 PUSH2 0x20A4 JUMP JUMPDEST SWAP3 POP POP PUSH1 0x1 DUP2 ADD SWAP1 POP PUSH2 0x20D5 JUMP JUMPDEST POP DUP6 SWAP4 POP POP POP POP SWAP3 SWAP2 POP POP JUMP JUMPDEST PUSH1 0x0 DUP2 MLOAD SWAP1 POP SWAP2 SWAP1 POP JUMP JUMPDEST PUSH1 0x0 DUP3 DUP3 MSTORE PUSH1 0x20 DUP3 ADD SWAP1 POP SWAP3 SWAP2 POP POP JUMP JUMPDEST PUSH1 0x0 JUMPDEST DUP4 DUP2 LT ISZERO PUSH2 0x2149 JUMPI DUP1 DUP3 ADD MLOAD DUP2 DUP5 ADD MSTORE PUSH1 0x20 DUP2 ADD SWAP1 POP PUSH2 0x212E JUMP JUMPDEST PUSH1 0x0 DUP5 DUP5 ADD MSTORE POP POP POP POP JUMP JUMPDEST PUSH1 0x0 PUSH2 0x2160 DUP3 PUSH2 0x210F JUMP JUMPDEST PUSH2 0x216A DUP2 DUP6 PUSH2 0x211A JUMP JUMPDEST SWAP4 POP PUSH2 0x217A DUP2 DUP6 PUSH1 0x20 DUP7 ADD PUSH2 0x212B JUMP JUMPDEST PUSH2 0x2183 DUP2 PUSH2 0x1EE8 JUMP JUMPDEST DUP5 ADD SWAP2 POP POP SWAP3 SWAP2 POP POP JUMP JUMPDEST PUSH1 0x0 PUSH2 0xFFFF DUP3 AND SWAP1 POP SWAP2 SWAP1 POP JUMP JUMPDEST PUSH2 0x21A5 DUP2 PUSH2 0x218E JUMP JUMPDEST DUP3 MSTORE POP POP JUMP JUMPDEST PUSH1 0x0 PUSH1 0xE0 DUP3 ADD SWAP1 POP PUSH2 0x21C0 PUSH1 0x0 DUP4 ADD DUP11 PUSH2 0x15A8 JUMP JUMPDEST DUP2 DUP2 SUB PUSH1 0x20 DUP4 ADD MSTORE PUSH2 0x21D2 DUP2 DUP10 PUSH2 0x1E30 JUMP JUMPDEST SWAP1 POP DUP2 DUP2 SUB PUSH1 0x40 DUP4 ADD MSTORE PUSH2 0x21E6 DUP2 DUP9 PUSH2 0x20B1 JUMP JUMPDEST SWAP1 POP DUP2 DUP2 SUB PUSH1 0x60 DUP4 ADD MSTORE PUSH2 0x21FA DUP2 DUP8 PUSH2 0x20B1 JUMP JUMPDEST SWAP1 POP PUSH2 0x2209 PUSH1 0x80 DUP4 ADD DUP7 PUSH2 0x15A8 JUMP JUMPDEST DUP2 DUP2 SUB PUSH1 0xA0 DUP4 ADD MSTORE PUSH2 0x221B DUP2 DUP6 PUSH2 0x2155 JUMP JUMPDEST SWAP1 POP PUSH2 0x222A PUSH1 0xC0 DUP4 ADD DUP5 PUSH2 0x219C JUMP JUMPDEST SWAP9 SWAP8 POP POP POP POP POP POP POP POP JUMP JUMPDEST PUSH1 0x0 PUSH1 0x40 DUP3 ADD SWAP1 POP PUSH2 0x224B PUSH1 0x0 DUP4 ADD DUP6 PUSH2 0x18EE JUMP JUMPDEST DUP2 DUP2 SUB PUSH1 0x20 DUP4 ADD MSTORE PUSH2 0x225D DUP2 DUP5 PUSH2 0x1E30 JUMP JUMPDEST SWAP1 POP SWAP4 SWAP3 POP POP POP JUMP JUMPDEST PUSH1 0x0 PUSH2 0x2271 DUP3 PUSH2 0x1851 JUMP JUMPDEST SWAP2 POP PUSH2 0x227C DUP4 PUSH2 0x1851 JUMP JUMPDEST SWAP3 POP DUP3 DUP3 SUB SWAP1 POP DUP2 DUP2 GT ISZERO PUSH2 0x2294 JUMPI PUSH2 0x2293 PUSH2 0x1B2A JUMP JUMPDEST JUMPDEST SWAP3 SWAP2 POP POP JUMP INVALID LOG2 PUSH5 0x6970667358 0x22 SLT KECCAK256 0x2C 0xD9 0xE2 0xD2 0xE2 0x28 BASEFEE OR PUSH31 0x9EC61BC94AB756F248C934074625D74B74C6A7D4D418DA64736F6C63430008 SHR STOP CALLER "},"methodIdentifiers":{"ADDRESSES_PROVIDER()":"0542975c","LENDING_POOL()":"b4dcfc77","executeOperation(address[],uint256[],uint256[],address,bytes)":"920f5c84","owner()":"8da5cb5b","pullTokens(address)":"42e9c6ce","renounceOwnership()":"715018a6","startTransaction(address,uint256,address,address)":"f058fb1b","transferOwnership(address)":"f2fde38b","withdraw(address)":"51cff8d9"}}}}}