{"contracts/flashloan/UniswapV4FlashArbitrage.sol":{"UniswapV4FlashArbitrage":{"abi":[{"inputs":[{"internalType":"address","name":"_poolManager","type":"address"},{"internalType":"address","name":"_sushiswapRouter","type":"address"},{"internalType":"uint256","name":"_minimumProfitThreshold","type":"uint256"}],"stateMutability":"nonpayable","type":"constructor"},{"inputs":[],"name":"InsufficientProfit","type":"error"},{"inputs":[{"internalType":"address","name":"owner","type":"address"}],"name":"OwnableInvalidOwner","type":"error"},{"inputs":[{"internalType":"address","name":"account","type":"address"}],"name":"OwnableUnauthorizedAccount","type":"error"},{"inputs":[],"name":"ReentrancyGuardReentrantCall","type":"error"},{"anonymous":false,"inputs":[{"indexed":true,"internalType":"address","name":"token0","type":"address"},{"indexed":true,"internalType":"address","name":"token1","type":"address"},{"indexed":false,"internalType":"uint256","name":"profit","type":"uint256"}],"name":"ArbitrageExecuted","type":"event"},{"anonymous":false,"inputs":[{"indexed":true,"internalType":"address","name":"token0","type":"address"},{"indexed":true,"internalType":"address","name":"token1","type":"address"},{"indexed":false,"internalType":"uint256","name":"amount0","type":"uint256"},{"indexed":false,"internalType":"uint256","name":"amount1","type":"uint256"}],"name":"FlashOperationStarted","type":"event"},{"anonymous":false,"inputs":[{"indexed":true,"internalType":"address","name":"previousOwner","type":"address"},{"indexed":true,"internalType":"address","name":"newOwner","type":"address"}],"name":"OwnershipTransferred","type":"event"},{"inputs":[{"internalType":"address","name":"token","type":"address"},{"internalType":"uint256","name":"amount","type":"uint256"},{"internalType":"address","name":"recipient","type":"address"}],"name":"emergencyWithdraw","outputs":[],"stateMutability":"nonpayable","type":"function"},{"inputs":[{"internalType":"address","name":"token0","type":"address"},{"internalType":"address","name":"token1","type":"address"},{"internalType":"uint256","name":"amount0","type":"uint256"},{"internalType":"uint256","name":"amount1","type":"uint256"},{"internalType":"bytes","name":"hookData","type":"bytes"}],"name":"executeArbitrage","outputs":[],"stateMutability":"nonpayable","type":"function"},{"inputs":[{"internalType":"address","name":"token0","type":"address"},{"internalType":"address","name":"token1","type":"address"},{"internalType":"uint256","name":"amount0","type":"uint256"},{"internalType":"uint256","name":"amount1","type":"uint256"},{"internalType":"bytes","name":"data","type":"bytes"}],"name":"flashCallback","outputs":[{"internalType":"bytes4","name":"","type":"bytes4"}],"stateMutability":"nonpayable","type":"function"},{"inputs":[],"name":"minimumProfitThreshold","outputs":[{"internalType":"uint256","name":"","type":"uint256"}],"stateMutability":"view","type":"function"},{"inputs":[],"name":"owner","outputs":[{"internalType":"address","name":"","type":"address"}],"stateMutability":"view","type":"function"},{"inputs":[],"name":"poolManager","outputs":[{"internalType":"contract IUniswapV4PoolManager","name":"","type":"address"}],"stateMutability":"view","type":"function"},{"inputs":[],"name":"renounceOwnership","outputs":[],"stateMutability":"nonpayable","type":"function"},{"inputs":[{"internalType":"uint256","name":"newThreshold","type":"uint256"}],"name":"setMinimumProfitThreshold","outputs":[],"stateMutability":"nonpayable","type":"function"},{"inputs":[],"name":"sushiswapRouter","outputs":[{"internalType":"address","name":"","type":"address"}],"stateMutability":"view","type":"function"},{"inputs":[{"internalType":"address","name":"newOwner","type":"address"}],"name":"transferOwnership","outputs":[],"stateMutability":"nonpayable","type":"function"}],"evm":{"bytecode":{"linkReferences":{},"object":"60c060405234801561001057600080fd5b5060405161176e38038061176e83398101604081905261002f91610197565b338061005657604051631e4fbdf760e01b8152600060048201526024015b60405180910390fd5b61005f8161012b565b50600180556001600160a01b0383166100ba5760405162461bcd60e51b815260206004820152601460248201527f496e76616c696420706f6f6c206d616e61676572000000000000000000000000604482015260640161004d565b6001600160a01b0382166101105760405162461bcd60e51b815260206004820152601860248201527f496e76616c69642053757368697377617020726f757465720000000000000000604482015260640161004d565b6001600160a01b03928316608052911660a0526002556101d3565b600080546001600160a01b038381166001600160a01b0319831681178455604051919092169283917f8be0079c531659141344cd1fd0a4f28419497f9722a3daafe3b4186f6b6457e09190a35050565b80516001600160a01b038116811461019257600080fd5b919050565b6000806000606084860312156101ac57600080fd5b6101b58461017b565b92506101c36020850161017b565b9150604084015190509250925092565b60805160a05161153061023e6000396000818161017f01528181610ba801528181610cc20152610d6b015260008181610145015281816101c1015281816102f40152818161031f015281816105ab015281816106ef015281816107fa0152610a5601526115306000f3fe608060405234801561001057600080fd5b506004361061009e5760003560e01c8063b5ffad4411610066578063b5ffad441461012d578063dc4c90d314610140578063e1ab1b1314610167578063e9240c2d1461017a578063f2fde38b146101a157600080fd5b80630a967eb2146100a357806351c469e2146100bf578063551512de146100eb578063715018a6146101005780638da5cb5b14610108575b600080fd5b6100ac60025481565b6040519081526020015b60405180910390f35b6100d26100cd366004610e51565b6101b4565b6040516001600160e01b031990911681526020016100b6565b6100fe6100f9366004610efe565b61035a565b005b6100fe610436565b6000546001600160a01b03165b6040516001600160a01b0390911681526020016100b6565b6100fe61013b366004610e51565b61044a565b6101157f000000000000000000000000000000000000000000000000000000000000000081565b6100fe610175366004610f40565b610667565b6101157f000000000000000000000000000000000000000000000000000000000000000081565b6100fe6101af366004610f59565b610674565b6000336001600160a01b037f0000000000000000000000000000000000000000000000000000000000000000161461022b5760405162461bcd60e51b8152602060048201526015602482015274556e617574686f72697a65642063616c6c6261636b60581b60448201526064015b60405180910390fd5b60008061023a8486018661106b565b9150915060008260800151156102665761025f836000015184602001518a8a866106b2565b905061027e565b61027b836000015184602001518a8a866107ac565b90505b6002548110156102a157604051632723fc7560e11b815260040160405180910390fd5b886001600160a01b03168a6001600160a01b03167f546205492ce144edebd2cc39035c50dbd9aebfec90cbcae9c9ae2914d1e130f7836040516102e691815260200190565b60405180910390a36103198a7f00000000000000000000000000000000000000000000000000000000000000008a61089f565b610344897f00000000000000000000000000000000000000000000000000000000000000008961089f565b506328e234f160e11b9998505050505050505050565b61036261098c565b61036a6109b9565b6001600160a01b0381166103b45760405162461bcd60e51b8152602060048201526011602482015270125b9d985b1a59081c9958da5c1a595b9d607a1b6044820152606401610222565b60405163a9059cbb60e01b81526001600160a01b0382811660048301526024820184905284169063a9059cbb906044016020604051808303816000875af1158015610403573d6000803e3d6000fd5b505050506040513d601f19601f82011682018060405250810190610427919061110f565b5061043160018055565b505050565b61043e61098c565b61044860006109e3565b565b61045261098c565b61045a6109b9565b6001600160a01b0386161580159061047a57506001600160a01b03851615155b6104b75760405162461bcd60e51b815260206004820152600e60248201526d496e76616c696420746f6b656e7360901b6044820152606401610222565b60008411806104c65750600083115b6105045760405162461bcd60e51b815260206004820152600f60248201526e496e76616c696420616d6f756e747360881b6044820152606401610222565b600061051287878787610a33565b905060006040518060a00160405280896001600160a01b03168152602001886001600160a01b031681526020018781526020018681526020018315158152509050866001600160a01b0316886001600160a01b03167ff2e147821beb8fb704fb5792949feff8c547cfc1cdbabc9a0d11479c8d33948988886040516105a1929190918252602082015260400190565b60405180910390a37f00000000000000000000000000000000000000000000000000000000000000006001600160a01b03166377991025308a8a8a8a878b8b6040516020016105f29392919061112c565b6040516020818303038152906040526040518763ffffffff1660e01b81526004016106229695949392919061119d565b600060405180830381600087803b15801561063c57600080fd5b505af1158015610650573d6000803e3d6000fd5b50505050505061065f60018055565b505050505050565b61066f61098c565b600255565b61067c61098c565b6001600160a01b0381166106a657604051631e4fbdf760e01b815260006004820152602401610222565b6106af816109e3565b50565b6000806106c0878785610c52565b60408051606081018252600181526020810188905260008183018190529151630f140bef60e11b8152929350917f00000000000000000000000000000000000000000000000000000000000000006001600160a01b031690631e2817de9061072e9086908690600401611262565b60408051808303816000875af115801561074c573d6000803e3d6000fd5b505050506040513d601f19601f82011682018060405250810190610770919061129e565b90506000610784898b84602001518b610cba565b905087811161079457600061079e565b61079e8882611305565b9a9950505050505050505050565b6000806107bc8787876000610cba565b905060006107cb878986610c52565b60408051606081018252600181526020810185905260008183018190529151630f140bef60e11b8152929350917f00000000000000000000000000000000000000000000000000000000000000006001600160a01b031690631e2817de906108399086908690600401611262565b60408051808303816000875af1158015610857573d6000803e3d6000fd5b505050506040513d601f19601f8201168201806040525081019061087b919061129e565b90508781602001511161088f57600061079e565b87816020015161079e9190611305565b60405163095ea7b360e01b81526001600160a01b0383811660048301526000602483015284169063095ea7b3906044016020604051808303816000875af11580156108ee573d6000803e3d6000fd5b505050506040513d601f19601f82011682018060405250810190610912919061110f565b5060405163095ea7b360e01b81526001600160a01b0383811660048301526024820183905284169063095ea7b3906044016020604051808303816000875af1158015610962573d6000803e3d6000fd5b505050506040513d601f19601f82011682018060405250810190610986919061110f565b50505050565b6000546001600160a01b031633146104485760405163118cdaa760e01b8152336004820152602401610222565b6002600154036109dc57604051633ee5aeb560e01b815260040160405180910390fd5b6002600155565b600080546001600160a01b038381166001600160a01b0319831681178455604051919092169283917f8be0079c531659141344cd1fd0a4f28419497f9722a3daafe3b4186f6b6457e09190a35050565b600080610a50868660405180602001604052806000815250610c52565b905060007f00000000000000000000000000000000000000000000000000000000000000006001600160a01b031663760f59d0836040518263ffffffff1660e01b8152600401610aa0919061131e565b602060405180830381865afa158015610abd573d6000803e3d6000fd5b505050506040513d601f19601f82011682018060405250810190610ae1919061132c565b90506000600160c01b86610afe6001600160a01b03851680611349565b610b089190611349565b610b129190611360565b60408051600280825260608201835292935060009290916020830190803683370190505090508881600081518110610b4c57610b4c611382565b60200260200101906001600160a01b031690816001600160a01b0316815250508781600181518110610b8057610b80611382565b6001600160a01b03928316602091820292909201015260405163d06ca61f60e01b81526000917f0000000000000000000000000000000000000000000000000000000000000000169063d06ca61f90610bdf908b9086906004016113dd565b600060405180830381865afa158015610bfc573d6000803e3d6000fd5b505050506040513d6000823e601f3d908101601f19168201604052610c2491908101906113fe565b600181518110610c3657610c36611382565b6020026020010151905080831195505050505050949350505050565b6040805160a08101825260008082526020820181905291810182905260608101829052608081019190915250506040805160a0810182526001600160a01b039384168152919092166020820152610bb891810191909152603c60608201526000608082015290565b6000610ce7857f00000000000000000000000000000000000000000000000000000000000000008561089f565b6040805160028082526060820183526000926020830190803683370190505090508581600081518110610d1c57610d1c611382565b60200260200101906001600160a01b031690816001600160a01b0316815250508481600181518110610d5057610d50611382565b6001600160a01b0392831660209182029290920101526000907f0000000000000000000000000000000000000000000000000000000000000000166338ed173986868530610da04261012c6114ab565b6040518663ffffffff1660e01b8152600401610dc09594939291906114be565b6000604051808303816000875af1158015610ddf573d6000803e3d6000fd5b505050506040513d6000823e601f3d908101601f19168201604052610e0791908101906113fe565b90508060018251610e189190611305565b81518110610e2857610e28611382565b602002602001015192505050949350505050565b6001600160a01b03811681146106af57600080fd5b60008060008060008060a08789031215610e6a57600080fd5b8635610e7581610e3c565b95506020870135610e8581610e3c565b94506040870135935060608701359250608087013567ffffffffffffffff811115610eaf57600080fd5b8701601f81018913610ec057600080fd5b803567ffffffffffffffff811115610ed757600080fd5b896020828401011115610ee957600080fd5b60208201935080925050509295509295509295565b600080600060608486031215610f1357600080fd5b8335610f1e81610e3c565b9250602084013591506040840135610f3581610e3c565b809150509250925092565b600060208284031215610f5257600080fd5b5035919050565b600060208284031215610f6b57600080fd5b8135610f7681610e3c565b9392505050565b634e487b7160e01b600052604160045260246000fd5b60405160a0810167ffffffffffffffff81118282101715610fb657610fb6610f7d565b60405290565b604051601f8201601f1916810167ffffffffffffffff81118282101715610fe557610fe5610f7d565b604052919050565b80151581146106af57600080fd5b600082601f83011261100c57600080fd5b813567ffffffffffffffff81111561102657611026610f7d565b611039601f8201601f1916602001610fbc565b81815284602083860101111561104e57600080fd5b816020850160208301376000918101602001919091529392505050565b60008082840360c081121561107f57600080fd5b60a081121561108d57600080fd5b50611096610f93565b83356110a181610e3c565b815260208401356110b181610e3c565b6020820152604084810135908201526060808501359082015260808401356110d881610fed565b6080820152915060a083013567ffffffffffffffff8111156110f957600080fd5b61110585828601610ffb565b9150509250929050565b60006020828403121561112157600080fd5b8151610f7681610fed565b60018060a01b03845116815260018060a01b036020850151166020820152604084015160408201526060840151606082015260808401511515608082015260c060a08201528160c0820152818360e0830137600081830160e090810191909152601f909201601f1916010192915050565b6001600160a01b038781168252868116602083015285166040820152606081018490526080810183905260c060a082018190528251908201819052600090815b818110156111fa57602081860181015160e08684010152016111dd565b50600060e0828501015260e0601f19601f830116840101915050979650505050505050565b80516001600160a01b03908116835260208083015182169084015260408083015162ffffff169084015260608083015160020b9084015260809182015116910152565b6101008101611271828561121f565b8251151560a0830152602083015160c08301526040909201516001600160a01b031660e090910152919050565b600060408284031280156112b157600080fd5b506040805190810167ffffffffffffffff811182821017156112d5576112d5610f7d565b604052825181526020928301519281019290925250919050565b634e487b7160e01b600052601160045260246000fd5b81810381811115611318576113186112ef565b92915050565b60a08101611318828461121f565b60006020828403121561133e57600080fd5b8151610f7681610e3c565b8082028115828204841417611318576113186112ef565b60008261137d57634e487b7160e01b600052601260045260246000fd5b500490565b634e487b7160e01b600052603260045260246000fd5b600081518084526020840193506020830160005b828110156113d35781516001600160a01b03168652602095860195909101906001016113ac565b5093949350505050565b8281526040602082015260006113f66040830184611398565b949350505050565b60006020828403121561141057600080fd5b815167ffffffffffffffff81111561142757600080fd5b8201601f8101841361143857600080fd5b805167ffffffffffffffff81111561145257611452610f7d565b8060051b61146260208201610fbc565b9182526020818401810192908101908784111561147e57600080fd5b6020850194505b838510156114a0578451825260209485019490910190611485565b979650505050505050565b80820180821115611318576113186112ef565b85815284602082015260a0604082015260006114dd60a0830186611398565b6001600160a01b039490941660608301525060800152939250505056fea26469706673582212205a074b089f0d41fb77f23cbeb86cd6f4ecf80bbdd68fec28ffce2a7d3978fb0d64736f6c634300081c0033","opcodes":"PUSH1 0xC0 PUSH1 0x40 MSTORE CALLVALUE DUP1 ISZERO PUSH2 0x10 JUMPI PUSH1 0x0 DUP1 REVERT JUMPDEST POP PUSH1 0x40 MLOAD PUSH2 0x176E CODESIZE SUB DUP1 PUSH2 0x176E DUP4 CODECOPY DUP2 ADD PUSH1 0x40 DUP2 SWAP1 MSTORE PUSH2 0x2F SWAP2 PUSH2 0x197 JUMP JUMPDEST CALLER DUP1 PUSH2 0x56 JUMPI PUSH1 0x40 MLOAD PUSH4 0x1E4FBDF7 PUSH1 0xE0 SHL DUP2 MSTORE PUSH1 0x0 PUSH1 0x4 DUP3 ADD MSTORE PUSH1 0x24 ADD JUMPDEST PUSH1 0x40 MLOAD DUP1 SWAP2 SUB SWAP1 REVERT JUMPDEST PUSH2 0x5F DUP2 PUSH2 0x12B JUMP JUMPDEST POP PUSH1 0x1 DUP1 SSTORE PUSH1 0x1 PUSH1 0x1 PUSH1 0xA0 SHL SUB DUP4 AND PUSH2 0xBA JUMPI PUSH1 0x40 MLOAD PUSH3 0x461BCD PUSH1 0xE5 SHL DUP2 MSTORE PUSH1 0x20 PUSH1 0x4 DUP3 ADD MSTORE PUSH1 0x14 PUSH1 0x24 DUP3 ADD MSTORE PUSH32 0x496E76616C696420706F6F6C206D616E61676572000000000000000000000000 PUSH1 0x44 DUP3 ADD MSTORE PUSH1 0x64 ADD PUSH2 0x4D JUMP JUMPDEST PUSH1 0x1 PUSH1 0x1 PUSH1 0xA0 SHL SUB DUP3 AND PUSH2 0x110 JUMPI PUSH1 0x40 MLOAD PUSH3 0x461BCD PUSH1 0xE5 SHL DUP2 MSTORE PUSH1 0x20 PUSH1 0x4 DUP3 ADD MSTORE PUSH1 0x18 PUSH1 0x24 DUP3 ADD MSTORE PUSH32 0x496E76616C69642053757368697377617020726F757465720000000000000000 PUSH1 0x44 DUP3 ADD MSTORE PUSH1 0x64 ADD PUSH2 0x4D JUMP JUMPDEST PUSH1 0x1 PUSH1 0x1 PUSH1 0xA0 SHL SUB SWAP3 DUP4 AND PUSH1 0x80 MSTORE SWAP2 AND PUSH1 0xA0 MSTORE PUSH1 0x2 SSTORE PUSH2 0x1D3 JUMP JUMPDEST PUSH1 0x0 DUP1 SLOAD PUSH1 0x1 PUSH1 0x1 PUSH1 0xA0 SHL SUB DUP4 DUP2 AND PUSH1 0x1 PUSH1 0x1 PUSH1 0xA0 SHL SUB NOT DUP4 AND DUP2 OR DUP5 SSTORE PUSH1 0x40 MLOAD SWAP2 SWAP1 SWAP3 AND SWAP3 DUP4 SWAP2 PUSH32 0x8BE0079C531659141344CD1FD0A4F28419497F9722A3DAAFE3B4186F6B6457E0 SWAP2 SWAP1 LOG3 POP POP JUMP JUMPDEST DUP1 MLOAD PUSH1 0x1 PUSH1 0x1 PUSH1 0xA0 SHL SUB DUP2 AND DUP2 EQ PUSH2 0x192 JUMPI PUSH1 0x0 DUP1 REVERT JUMPDEST SWAP2 SWAP1 POP JUMP JUMPDEST PUSH1 0x0 DUP1 PUSH1 0x0 PUSH1 0x60 DUP5 DUP7 SUB SLT ISZERO PUSH2 0x1AC JUMPI PUSH1 0x0 DUP1 REVERT JUMPDEST PUSH2 0x1B5 DUP5 PUSH2 0x17B JUMP JUMPDEST SWAP3 POP PUSH2 0x1C3 PUSH1 0x20 DUP6 ADD PUSH2 0x17B JUMP JUMPDEST SWAP2 POP PUSH1 0x40 DUP5 ADD MLOAD SWAP1 POP SWAP3 POP SWAP3 POP SWAP3 JUMP JUMPDEST PUSH1 0x80 MLOAD PUSH1 0xA0 MLOAD PUSH2 0x1530 PUSH2 0x23E PUSH1 0x0 CODECOPY PUSH1 0x0 DUP2 DUP2 PUSH2 0x17F ADD MSTORE DUP2 DUP2 PUSH2 0xBA8 ADD MSTORE DUP2 DUP2 PUSH2 0xCC2 ADD MSTORE PUSH2 0xD6B ADD MSTORE PUSH1 0x0 DUP2 DUP2 PUSH2 0x145 ADD MSTORE DUP2 DUP2 PUSH2 0x1C1 ADD MSTORE DUP2 DUP2 PUSH2 0x2F4 ADD MSTORE DUP2 DUP2 PUSH2 0x31F ADD MSTORE DUP2 DUP2 PUSH2 0x5AB ADD MSTORE DUP2 DUP2 PUSH2 0x6EF ADD MSTORE DUP2 DUP2 PUSH2 0x7FA ADD MSTORE PUSH2 0xA56 ADD MSTORE PUSH2 0x1530 PUSH1 0x0 RETURN INVALID PUSH1 0x80 PUSH1 0x40 MSTORE CALLVALUE DUP1 ISZERO PUSH2 0x10 JUMPI PUSH1 0x0 DUP1 REVERT JUMPDEST POP PUSH1 0x4 CALLDATASIZE LT PUSH2 0x9E JUMPI PUSH1 0x0 CALLDATALOAD PUSH1 0xE0 SHR DUP1 PUSH4 0xB5FFAD44 GT PUSH2 0x66 JUMPI DUP1 PUSH4 0xB5FFAD44 EQ PUSH2 0x12D JUMPI DUP1 PUSH4 0xDC4C90D3 EQ PUSH2 0x140 JUMPI DUP1 PUSH4 0xE1AB1B13 EQ PUSH2 0x167 JUMPI DUP1 PUSH4 0xE9240C2D EQ PUSH2 0x17A JUMPI DUP1 PUSH4 0xF2FDE38B EQ PUSH2 0x1A1 JUMPI PUSH1 0x0 DUP1 REVERT JUMPDEST DUP1 PUSH4 0xA967EB2 EQ PUSH2 0xA3 JUMPI DUP1 PUSH4 0x51C469E2 EQ PUSH2 0xBF JUMPI DUP1 PUSH4 0x551512DE EQ PUSH2 0xEB JUMPI DUP1 PUSH4 0x715018A6 EQ PUSH2 0x100 JUMPI DUP1 PUSH4 0x8DA5CB5B EQ PUSH2 0x108 JUMPI JUMPDEST PUSH1 0x0 DUP1 REVERT JUMPDEST PUSH2 0xAC PUSH1 0x2 SLOAD DUP2 JUMP JUMPDEST PUSH1 0x40 MLOAD SWAP1 DUP2 MSTORE PUSH1 0x20 ADD JUMPDEST PUSH1 0x40 MLOAD DUP1 SWAP2 SUB SWAP1 RETURN JUMPDEST PUSH2 0xD2 PUSH2 0xCD CALLDATASIZE PUSH1 0x4 PUSH2 0xE51 JUMP JUMPDEST PUSH2 0x1B4 JUMP JUMPDEST PUSH1 0x40 MLOAD PUSH1 0x1 PUSH1 0x1 PUSH1 0xE0 SHL SUB NOT SWAP1 SWAP2 AND DUP2 MSTORE PUSH1 0x20 ADD PUSH2 0xB6 JUMP JUMPDEST PUSH2 0xFE PUSH2 0xF9 CALLDATASIZE PUSH1 0x4 PUSH2 0xEFE JUMP JUMPDEST PUSH2 0x35A JUMP JUMPDEST STOP JUMPDEST PUSH2 0xFE PUSH2 0x436 JUMP JUMPDEST PUSH1 0x0 SLOAD PUSH1 0x1 PUSH1 0x1 PUSH1 0xA0 SHL SUB AND JUMPDEST PUSH1 0x40 MLOAD PUSH1 0x1 PUSH1 0x1 PUSH1 0xA0 SHL SUB SWAP1 SWAP2 AND DUP2 MSTORE PUSH1 0x20 ADD PUSH2 0xB6 JUMP JUMPDEST PUSH2 0xFE PUSH2 0x13B CALLDATASIZE PUSH1 0x4 PUSH2 0xE51 JUMP JUMPDEST PUSH2 0x44A JUMP JUMPDEST PUSH2 0x115 PUSH32 0x0 DUP2 JUMP JUMPDEST PUSH2 0xFE PUSH2 0x175 CALLDATASIZE PUSH1 0x4 PUSH2 0xF40 JUMP JUMPDEST PUSH2 0x667 JUMP JUMPDEST PUSH2 0x115 PUSH32 0x0 DUP2 JUMP JUMPDEST PUSH2 0xFE PUSH2 0x1AF CALLDATASIZE PUSH1 0x4 PUSH2 0xF59 JUMP JUMPDEST PUSH2 0x674 JUMP JUMPDEST PUSH1 0x0 CALLER PUSH1 0x1 PUSH1 0x1 PUSH1 0xA0 SHL SUB PUSH32 0x0 AND EQ PUSH2 0x22B JUMPI PUSH1 0x40 MLOAD PUSH3 0x461BCD PUSH1 0xE5 SHL DUP2 MSTORE PUSH1 0x20 PUSH1 0x4 DUP3 ADD MSTORE PUSH1 0x15 PUSH1 0x24 DUP3 ADD MSTORE PUSH21 0x556E617574686F72697A65642063616C6C6261636B PUSH1 0x58 SHL PUSH1 0x44 DUP3 ADD MSTORE PUSH1 0x64 ADD JUMPDEST PUSH1 0x40 MLOAD DUP1 SWAP2 SUB SWAP1 REVERT JUMPDEST PUSH1 0x0 DUP1 PUSH2 0x23A DUP5 DUP7 ADD DUP7 PUSH2 0x106B JUMP JUMPDEST SWAP2 POP SWAP2 POP PUSH1 0x0 DUP3 PUSH1 0x80 ADD MLOAD ISZERO PUSH2 0x266 JUMPI PUSH2 0x25F DUP4 PUSH1 0x0 ADD MLOAD DUP5 PUSH1 0x20 ADD MLOAD DUP11 DUP11 DUP7 PUSH2 0x6B2 JUMP JUMPDEST SWAP1 POP PUSH2 0x27E JUMP JUMPDEST PUSH2 0x27B DUP4 PUSH1 0x0 ADD MLOAD DUP5 PUSH1 0x20 ADD MLOAD DUP11 DUP11 DUP7 PUSH2 0x7AC JUMP JUMPDEST SWAP1 POP JUMPDEST PUSH1 0x2 SLOAD DUP2 LT ISZERO PUSH2 0x2A1 JUMPI PUSH1 0x40 MLOAD PUSH4 0x2723FC75 PUSH1 0xE1 SHL DUP2 MSTORE PUSH1 0x4 ADD PUSH1 0x40 MLOAD DUP1 SWAP2 SUB SWAP1 REVERT JUMPDEST DUP9 PUSH1 0x1 PUSH1 0x1 PUSH1 0xA0 SHL SUB AND DUP11 PUSH1 0x1 PUSH1 0x1 PUSH1 0xA0 SHL SUB AND PUSH32 0x546205492CE144EDEBD2CC39035C50DBD9AEBFEC90CBCAE9C9AE2914D1E130F7 DUP4 PUSH1 0x40 MLOAD PUSH2 0x2E6 SWAP2 DUP2 MSTORE PUSH1 0x20 ADD SWAP1 JUMP JUMPDEST PUSH1 0x40 MLOAD DUP1 SWAP2 SUB SWAP1 LOG3 PUSH2 0x319 DUP11 PUSH32 0x0 DUP11 PUSH2 0x89F JUMP JUMPDEST PUSH2 0x344 DUP10 PUSH32 0x0 DUP10 PUSH2 0x89F JUMP JUMPDEST POP PUSH4 0x28E234F1 PUSH1 0xE1 SHL SWAP10 SWAP9 POP POP POP POP POP POP POP POP POP JUMP JUMPDEST PUSH2 0x362 PUSH2 0x98C JUMP JUMPDEST PUSH2 0x36A PUSH2 0x9B9 JUMP JUMPDEST PUSH1 0x1 PUSH1 0x1 PUSH1 0xA0 SHL SUB DUP2 AND PUSH2 0x3B4 JUMPI PUSH1 0x40 MLOAD PUSH3 0x461BCD PUSH1 0xE5 SHL DUP2 MSTORE PUSH1 0x20 PUSH1 0x4 DUP3 ADD MSTORE PUSH1 0x11 PUSH1 0x24 DUP3 ADD MSTORE PUSH17 0x125B9D985B1A59081C9958DA5C1A595B9D PUSH1 0x7A SHL PUSH1 0x44 DUP3 ADD MSTORE PUSH1 0x64 ADD PUSH2 0x222 JUMP JUMPDEST PUSH1 0x40 MLOAD PUSH4 0xA9059CBB PUSH1 0xE0 SHL DUP2 MSTORE PUSH1 0x1 PUSH1 0x1 PUSH1 0xA0 SHL SUB DUP3 DUP2 AND PUSH1 0x4 DUP4 ADD MSTORE PUSH1 0x24 DUP3 ADD DUP5 SWAP1 MSTORE DUP5 AND SWAP1 PUSH4 0xA9059CBB SWAP1 PUSH1 0x44 ADD PUSH1 0x20 PUSH1 0x40 MLOAD DUP1 DUP4 SUB DUP2 PUSH1 0x0 DUP8 GAS CALL ISZERO DUP1 ISZERO PUSH2 0x403 JUMPI RETURNDATASIZE PUSH1 0x0 DUP1 RETURNDATACOPY RETURNDATASIZE PUSH1 0x0 REVERT JUMPDEST POP POP POP POP PUSH1 0x40 MLOAD RETURNDATASIZE PUSH1 0x1F NOT PUSH1 0x1F DUP3 ADD AND DUP3 ADD DUP1 PUSH1 0x40 MSTORE POP DUP2 ADD SWAP1 PUSH2 0x427 SWAP2 SWAP1 PUSH2 0x110F JUMP JUMPDEST POP PUSH2 0x431 PUSH1 0x1 DUP1 SSTORE JUMP JUMPDEST POP POP POP JUMP JUMPDEST PUSH2 0x43E PUSH2 0x98C JUMP JUMPDEST PUSH2 0x448 PUSH1 0x0 PUSH2 0x9E3 JUMP JUMPDEST JUMP JUMPDEST PUSH2 0x452 PUSH2 0x98C JUMP JUMPDEST PUSH2 0x45A PUSH2 0x9B9 JUMP JUMPDEST PUSH1 0x1 PUSH1 0x1 PUSH1 0xA0 SHL SUB DUP7 AND ISZERO DUP1 ISZERO SWAP1 PUSH2 0x47A JUMPI POP PUSH1 0x1 PUSH1 0x1 PUSH1 0xA0 SHL SUB DUP6 AND ISZERO ISZERO JUMPDEST PUSH2 0x4B7 JUMPI PUSH1 0x40 MLOAD PUSH3 0x461BCD PUSH1 0xE5 SHL DUP2 MSTORE PUSH1 0x20 PUSH1 0x4 DUP3 ADD MSTORE PUSH1 0xE PUSH1 0x24 DUP3 ADD MSTORE PUSH14 0x496E76616C696420746F6B656E73 PUSH1 0x90 SHL PUSH1 0x44 DUP3 ADD MSTORE PUSH1 0x64 ADD PUSH2 0x222 JUMP JUMPDEST PUSH1 0x0 DUP5 GT DUP1 PUSH2 0x4C6 JUMPI POP PUSH1 0x0 DUP4 GT JUMPDEST PUSH2 0x504 JUMPI PUSH1 0x40 MLOAD PUSH3 0x461BCD PUSH1 0xE5 SHL DUP2 MSTORE PUSH1 0x20 PUSH1 0x4 DUP3 ADD MSTORE PUSH1 0xF PUSH1 0x24 DUP3 ADD MSTORE PUSH15 0x496E76616C696420616D6F756E7473 PUSH1 0x88 SHL PUSH1 0x44 DUP3 ADD MSTORE PUSH1 0x64 ADD PUSH2 0x222 JUMP JUMPDEST PUSH1 0x0 PUSH2 0x512 DUP8 DUP8 DUP8 DUP8 PUSH2 0xA33 JUMP JUMPDEST SWAP1 POP PUSH1 0x0 PUSH1 0x40 MLOAD DUP1 PUSH1 0xA0 ADD PUSH1 0x40 MSTORE DUP1 DUP10 PUSH1 0x1 PUSH1 0x1 PUSH1 0xA0 SHL SUB AND DUP2 MSTORE PUSH1 0x20 ADD DUP9 PUSH1 0x1 PUSH1 0x1 PUSH1 0xA0 SHL SUB AND DUP2 MSTORE PUSH1 0x20 ADD DUP8 DUP2 MSTORE PUSH1 0x20 ADD DUP7 DUP2 MSTORE PUSH1 0x20 ADD DUP4 ISZERO ISZERO DUP2 MSTORE POP SWAP1 POP DUP7 PUSH1 0x1 PUSH1 0x1 PUSH1 0xA0 SHL SUB AND DUP9 PUSH1 0x1 PUSH1 0x1 PUSH1 0xA0 SHL SUB AND PUSH32 0xF2E147821BEB8FB704FB5792949FEFF8C547CFC1CDBABC9A0D11479C8D339489 DUP9 DUP9 PUSH1 0x40 MLOAD PUSH2 0x5A1 SWAP3 SWAP2 SWAP1 SWAP2 DUP3 MSTORE PUSH1 0x20 DUP3 ADD MSTORE PUSH1 0x40 ADD SWAP1 JUMP JUMPDEST PUSH1 0x40 MLOAD DUP1 SWAP2 SUB SWAP1 LOG3 PUSH32 0x0 PUSH1 0x1 PUSH1 0x1 PUSH1 0xA0 SHL SUB AND PUSH4 0x77991025 ADDRESS DUP11 DUP11 DUP11 DUP11 DUP8 DUP12 DUP12 PUSH1 0x40 MLOAD PUSH1 0x20 ADD PUSH2 0x5F2 SWAP4 SWAP3 SWAP2 SWAP1 PUSH2 0x112C JUMP JUMPDEST PUSH1 0x40 MLOAD PUSH1 0x20 DUP2 DUP4 SUB SUB DUP2 MSTORE SWAP1 PUSH1 0x40 MSTORE PUSH1 0x40 MLOAD DUP8 PUSH4 0xFFFFFFFF AND PUSH1 0xE0 SHL DUP2 MSTORE PUSH1 0x4 ADD PUSH2 0x622 SWAP7 SWAP6 SWAP5 SWAP4 SWAP3 SWAP2 SWAP1 PUSH2 0x119D JUMP JUMPDEST PUSH1 0x0 PUSH1 0x40 MLOAD DUP1 DUP4 SUB DUP2 PUSH1 0x0 DUP8 DUP1 EXTCODESIZE ISZERO DUP1 ISZERO PUSH2 0x63C JUMPI PUSH1 0x0 DUP1 REVERT JUMPDEST POP GAS CALL ISZERO DUP1 ISZERO PUSH2 0x650 JUMPI RETURNDATASIZE PUSH1 0x0 DUP1 RETURNDATACOPY RETURNDATASIZE PUSH1 0x0 REVERT JUMPDEST POP POP POP POP POP POP PUSH2 0x65F PUSH1 0x1 DUP1 SSTORE JUMP JUMPDEST POP POP POP POP POP POP JUMP JUMPDEST PUSH2 0x66F PUSH2 0x98C JUMP JUMPDEST PUSH1 0x2 SSTORE JUMP JUMPDEST PUSH2 0x67C PUSH2 0x98C JUMP JUMPDEST PUSH1 0x1 PUSH1 0x1 PUSH1 0xA0 SHL SUB DUP2 AND PUSH2 0x6A6 JUMPI PUSH1 0x40 MLOAD PUSH4 0x1E4FBDF7 PUSH1 0xE0 SHL DUP2 MSTORE PUSH1 0x0 PUSH1 0x4 DUP3 ADD MSTORE PUSH1 0x24 ADD PUSH2 0x222 JUMP JUMPDEST PUSH2 0x6AF DUP2 PUSH2 0x9E3 JUMP JUMPDEST POP JUMP JUMPDEST PUSH1 0x0 DUP1 PUSH2 0x6C0 DUP8 DUP8 DUP6 PUSH2 0xC52 JUMP JUMPDEST PUSH1 0x40 DUP1 MLOAD PUSH1 0x60 DUP2 ADD DUP3 MSTORE PUSH1 0x1 DUP2 MSTORE PUSH1 0x20 DUP2 ADD DUP9 SWAP1 MSTORE PUSH1 0x0 DUP2 DUP4 ADD DUP2 SWAP1 MSTORE SWAP2 MLOAD PUSH4 0xF140BEF PUSH1 0xE1 SHL DUP2 MSTORE SWAP3 SWAP4 POP SWAP2 PUSH32 0x0 PUSH1 0x1 PUSH1 0x1 PUSH1 0xA0 SHL SUB AND SWAP1 PUSH4 0x1E2817DE SWAP1 PUSH2 0x72E SWAP1 DUP7 SWAP1 DUP7 SWAP1 PUSH1 0x4 ADD PUSH2 0x1262 JUMP JUMPDEST PUSH1 0x40 DUP1 MLOAD DUP1 DUP4 SUB DUP2 PUSH1 0x0 DUP8 GAS CALL ISZERO DUP1 ISZERO PUSH2 0x74C JUMPI RETURNDATASIZE PUSH1 0x0 DUP1 RETURNDATACOPY RETURNDATASIZE PUSH1 0x0 REVERT JUMPDEST POP POP POP POP PUSH1 0x40 MLOAD RETURNDATASIZE PUSH1 0x1F NOT PUSH1 0x1F DUP3 ADD AND DUP3 ADD DUP1 PUSH1 0x40 MSTORE POP DUP2 ADD SWAP1 PUSH2 0x770 SWAP2 SWAP1 PUSH2 0x129E JUMP JUMPDEST SWAP1 POP PUSH1 0x0 PUSH2 0x784 DUP10 DUP12 DUP5 PUSH1 0x20 ADD MLOAD DUP12 PUSH2 0xCBA JUMP JUMPDEST SWAP1 POP DUP8 DUP2 GT PUSH2 0x794 JUMPI PUSH1 0x0 PUSH2 0x79E JUMP JUMPDEST PUSH2 0x79E DUP9 DUP3 PUSH2 0x1305 JUMP JUMPDEST SWAP11 SWAP10 POP POP POP POP POP POP POP POP POP POP JUMP JUMPDEST PUSH1 0x0 DUP1 PUSH2 0x7BC DUP8 DUP8 DUP8 PUSH1 0x0 PUSH2 0xCBA JUMP JUMPDEST SWAP1 POP PUSH1 0x0 PUSH2 0x7CB DUP8 DUP10 DUP7 PUSH2 0xC52 JUMP JUMPDEST PUSH1 0x40 DUP1 MLOAD PUSH1 0x60 DUP2 ADD DUP3 MSTORE PUSH1 0x1 DUP2 MSTORE PUSH1 0x20 DUP2 ADD DUP6 SWAP1 MSTORE PUSH1 0x0 DUP2 DUP4 ADD DUP2 SWAP1 MSTORE SWAP2 MLOAD PUSH4 0xF140BEF PUSH1 0xE1 SHL DUP2 MSTORE SWAP3 SWAP4 POP SWAP2 PUSH32 0x0 PUSH1 0x1 PUSH1 0x1 PUSH1 0xA0 SHL SUB AND SWAP1 PUSH4 0x1E2817DE SWAP1 PUSH2 0x839 SWAP1 DUP7 SWAP1 DUP7 SWAP1 PUSH1 0x4 ADD PUSH2 0x1262 JUMP JUMPDEST PUSH1 0x40 DUP1 MLOAD DUP1 DUP4 SUB DUP2 PUSH1 0x0 DUP8 GAS CALL ISZERO DUP1 ISZERO PUSH2 0x857 JUMPI RETURNDATASIZE PUSH1 0x0 DUP1 RETURNDATACOPY RETURNDATASIZE PUSH1 0x0 REVERT JUMPDEST POP POP POP POP PUSH1 0x40 MLOAD RETURNDATASIZE PUSH1 0x1F NOT PUSH1 0x1F DUP3 ADD AND DUP3 ADD DUP1 PUSH1 0x40 MSTORE POP DUP2 ADD SWAP1 PUSH2 0x87B SWAP2 SWAP1 PUSH2 0x129E JUMP JUMPDEST SWAP1 POP DUP8 DUP2 PUSH1 0x20 ADD MLOAD GT PUSH2 0x88F JUMPI PUSH1 0x0 PUSH2 0x79E JUMP JUMPDEST DUP8 DUP2 PUSH1 0x20 ADD MLOAD PUSH2 0x79E SWAP2 SWAP1 PUSH2 0x1305 JUMP JUMPDEST PUSH1 0x40 MLOAD PUSH4 0x95EA7B3 PUSH1 0xE0 SHL DUP2 MSTORE PUSH1 0x1 PUSH1 0x1 PUSH1 0xA0 SHL SUB DUP4 DUP2 AND PUSH1 0x4 DUP4 ADD MSTORE PUSH1 0x0 PUSH1 0x24 DUP4 ADD MSTORE DUP5 AND SWAP1 PUSH4 0x95EA7B3 SWAP1 PUSH1 0x44 ADD PUSH1 0x20 PUSH1 0x40 MLOAD DUP1 DUP4 SUB DUP2 PUSH1 0x0 DUP8 GAS CALL ISZERO DUP1 ISZERO PUSH2 0x8EE JUMPI RETURNDATASIZE PUSH1 0x0 DUP1 RETURNDATACOPY RETURNDATASIZE PUSH1 0x0 REVERT JUMPDEST POP POP POP POP PUSH1 0x40 MLOAD RETURNDATASIZE PUSH1 0x1F NOT PUSH1 0x1F DUP3 ADD AND DUP3 ADD DUP1 PUSH1 0x40 MSTORE POP DUP2 ADD SWAP1 PUSH2 0x912 SWAP2 SWAP1 PUSH2 0x110F JUMP JUMPDEST POP PUSH1 0x40 MLOAD PUSH4 0x95EA7B3 PUSH1 0xE0 SHL DUP2 MSTORE PUSH1 0x1 PUSH1 0x1 PUSH1 0xA0 SHL SUB DUP4 DUP2 AND PUSH1 0x4 DUP4 ADD MSTORE PUSH1 0x24 DUP3 ADD DUP4 SWAP1 MSTORE DUP5 AND SWAP1 PUSH4 0x95EA7B3 SWAP1 PUSH1 0x44 ADD PUSH1 0x20 PUSH1 0x40 MLOAD DUP1 DUP4 SUB DUP2 PUSH1 0x0 DUP8 GAS CALL ISZERO DUP1 ISZERO PUSH2 0x962 JUMPI RETURNDATASIZE PUSH1 0x0 DUP1 RETURNDATACOPY RETURNDATASIZE PUSH1 0x0 REVERT JUMPDEST POP POP POP POP PUSH1 0x40 MLOAD RETURNDATASIZE PUSH1 0x1F NOT PUSH1 0x1F DUP3 ADD AND DUP3 ADD DUP1 PUSH1 0x40 MSTORE POP DUP2 ADD SWAP1 PUSH2 0x986 SWAP2 SWAP1 PUSH2 0x110F JUMP JUMPDEST POP POP POP POP JUMP JUMPDEST PUSH1 0x0 SLOAD PUSH1 0x1 PUSH1 0x1 PUSH1 0xA0 SHL SUB AND CALLER EQ PUSH2 0x448 JUMPI PUSH1 0x40 MLOAD PUSH4 0x118CDAA7 PUSH1 0xE0 SHL DUP2 MSTORE CALLER PUSH1 0x4 DUP3 ADD MSTORE PUSH1 0x24 ADD PUSH2 0x222 JUMP JUMPDEST PUSH1 0x2 PUSH1 0x1 SLOAD SUB PUSH2 0x9DC JUMPI PUSH1 0x40 MLOAD PUSH4 0x3EE5AEB5 PUSH1 0xE0 SHL DUP2 MSTORE PUSH1 0x4 ADD PUSH1 0x40 MLOAD DUP1 SWAP2 SUB SWAP1 REVERT JUMPDEST PUSH1 0x2 PUSH1 0x1 SSTORE JUMP JUMPDEST PUSH1 0x0 DUP1 SLOAD PUSH1 0x1 PUSH1 0x1 PUSH1 0xA0 SHL SUB DUP4 DUP2 AND PUSH1 0x1 PUSH1 0x1 PUSH1 0xA0 SHL SUB NOT DUP4 AND DUP2 OR DUP5 SSTORE PUSH1 0x40 MLOAD SWAP2 SWAP1 SWAP3 AND SWAP3 DUP4 SWAP2 PUSH32 0x8BE0079C531659141344CD1FD0A4F28419497F9722A3DAAFE3B4186F6B6457E0 SWAP2 SWAP1 LOG3 POP POP JUMP JUMPDEST PUSH1 0x0 DUP1 PUSH2 0xA50 DUP7 DUP7 PUSH1 0x40 MLOAD DUP1 PUSH1 0x20 ADD PUSH1 0x40 MSTORE DUP1 PUSH1 0x0 DUP2 MSTORE POP PUSH2 0xC52 JUMP JUMPDEST SWAP1 POP PUSH1 0x0 PUSH32 0x0 PUSH1 0x1 PUSH1 0x1 PUSH1 0xA0 SHL SUB AND PUSH4 0x760F59D0 DUP4 PUSH1 0x40 MLOAD DUP3 PUSH4 0xFFFFFFFF AND PUSH1 0xE0 SHL DUP2 MSTORE PUSH1 0x4 ADD PUSH2 0xAA0 SWAP2 SWAP1 PUSH2 0x131E JUMP JUMPDEST PUSH1 0x20 PUSH1 0x40 MLOAD DUP1 DUP4 SUB DUP2 DUP7 GAS STATICCALL ISZERO DUP1 ISZERO PUSH2 0xABD JUMPI RETURNDATASIZE PUSH1 0x0 DUP1 RETURNDATACOPY RETURNDATASIZE PUSH1 0x0 REVERT JUMPDEST POP POP POP POP PUSH1 0x40 MLOAD RETURNDATASIZE PUSH1 0x1F NOT PUSH1 0x1F DUP3 ADD AND DUP3 ADD DUP1 PUSH1 0x40 MSTORE POP DUP2 ADD SWAP1 PUSH2 0xAE1 SWAP2 SWAP1 PUSH2 0x132C JUMP JUMPDEST SWAP1 POP PUSH1 0x0 PUSH1 0x1 PUSH1 0xC0 SHL DUP7 PUSH2 0xAFE PUSH1 0x1 PUSH1 0x1 PUSH1 0xA0 SHL SUB DUP6 AND DUP1 PUSH2 0x1349 JUMP JUMPDEST PUSH2 0xB08 SWAP2 SWAP1 PUSH2 0x1349 JUMP JUMPDEST PUSH2 0xB12 SWAP2 SWAP1 PUSH2 0x1360 JUMP JUMPDEST PUSH1 0x40 DUP1 MLOAD PUSH1 0x2 DUP1 DUP3 MSTORE PUSH1 0x60 DUP3 ADD DUP4 MSTORE SWAP3 SWAP4 POP PUSH1 0x0 SWAP3 SWAP1 SWAP2 PUSH1 0x20 DUP4 ADD SWAP1 DUP1 CALLDATASIZE DUP4 CALLDATACOPY ADD SWAP1 POP POP SWAP1 POP DUP9 DUP2 PUSH1 0x0 DUP2 MLOAD DUP2 LT PUSH2 0xB4C JUMPI PUSH2 0xB4C PUSH2 0x1382 JUMP JUMPDEST PUSH1 0x20 MUL PUSH1 0x20 ADD ADD SWAP1 PUSH1 0x1 PUSH1 0x1 PUSH1 0xA0 SHL SUB AND SWAP1 DUP2 PUSH1 0x1 PUSH1 0x1 PUSH1 0xA0 SHL SUB AND DUP2 MSTORE POP POP DUP8 DUP2 PUSH1 0x1 DUP2 MLOAD DUP2 LT PUSH2 0xB80 JUMPI PUSH2 0xB80 PUSH2 0x1382 JUMP JUMPDEST PUSH1 0x1 PUSH1 0x1 PUSH1 0xA0 SHL SUB SWAP3 DUP4 AND PUSH1 0x20 SWAP2 DUP3 MUL SWAP3 SWAP1 SWAP3 ADD ADD MSTORE PUSH1 0x40 MLOAD PUSH4 0xD06CA61F PUSH1 0xE0 SHL DUP2 MSTORE PUSH1 0x0 SWAP2 PUSH32 0x0 AND SWAP1 PUSH4 0xD06CA61F SWAP1 PUSH2 0xBDF SWAP1 DUP12 SWAP1 DUP7 SWAP1 PUSH1 0x4 ADD PUSH2 0x13DD JUMP JUMPDEST PUSH1 0x0 PUSH1 0x40 MLOAD DUP1 DUP4 SUB DUP2 DUP7 GAS STATICCALL ISZERO DUP1 ISZERO PUSH2 0xBFC JUMPI RETURNDATASIZE PUSH1 0x0 DUP1 RETURNDATACOPY RETURNDATASIZE PUSH1 0x0 REVERT JUMPDEST POP POP POP POP PUSH1 0x40 MLOAD RETURNDATASIZE PUSH1 0x0 DUP3 RETURNDATACOPY PUSH1 0x1F RETURNDATASIZE SWAP1 DUP2 ADD PUSH1 0x1F NOT AND DUP3 ADD PUSH1 0x40 MSTORE PUSH2 0xC24 SWAP2 SWAP1 DUP2 ADD SWAP1 PUSH2 0x13FE JUMP JUMPDEST PUSH1 0x1 DUP2 MLOAD DUP2 LT PUSH2 0xC36 JUMPI PUSH2 0xC36 PUSH2 0x1382 JUMP JUMPDEST PUSH1 0x20 MUL PUSH1 0x20 ADD ADD MLOAD SWAP1 POP DUP1 DUP4 GT SWAP6 POP POP POP POP POP POP SWAP5 SWAP4 POP POP POP POP JUMP JUMPDEST PUSH1 0x40 DUP1 MLOAD PUSH1 0xA0 DUP2 ADD DUP3 MSTORE PUSH1 0x0 DUP1 DUP3 MSTORE PUSH1 0x20 DUP3 ADD DUP2 SWAP1 MSTORE SWAP2 DUP2 ADD DUP3 SWAP1 MSTORE PUSH1 0x60 DUP2 ADD DUP3 SWAP1 MSTORE PUSH1 0x80 DUP2 ADD SWAP2 SWAP1 SWAP2 MSTORE POP POP PUSH1 0x40 DUP1 MLOAD PUSH1 0xA0 DUP2 ADD DUP3 MSTORE PUSH1 0x1 PUSH1 0x1 PUSH1 0xA0 SHL SUB SWAP4 DUP5 AND DUP2 MSTORE SWAP2 SWAP1 SWAP3 AND PUSH1 0x20 DUP3 ADD MSTORE PUSH2 0xBB8 SWAP2 DUP2 ADD SWAP2 SWAP1 SWAP2 MSTORE PUSH1 0x3C PUSH1 0x60 DUP3 ADD MSTORE PUSH1 0x0 PUSH1 0x80 DUP3 ADD MSTORE SWAP1 JUMP JUMPDEST PUSH1 0x0 PUSH2 0xCE7 DUP6 PUSH32 0x0 DUP6 PUSH2 0x89F JUMP JUMPDEST PUSH1 0x40 DUP1 MLOAD PUSH1 0x2 DUP1 DUP3 MSTORE PUSH1 0x60 DUP3 ADD DUP4 MSTORE PUSH1 0x0 SWAP3 PUSH1 0x20 DUP4 ADD SWAP1 DUP1 CALLDATASIZE DUP4 CALLDATACOPY ADD SWAP1 POP POP SWAP1 POP DUP6 DUP2 PUSH1 0x0 DUP2 MLOAD DUP2 LT PUSH2 0xD1C JUMPI PUSH2 0xD1C PUSH2 0x1382 JUMP JUMPDEST PUSH1 0x20 MUL PUSH1 0x20 ADD ADD SWAP1 PUSH1 0x1 PUSH1 0x1 PUSH1 0xA0 SHL SUB AND SWAP1 DUP2 PUSH1 0x1 PUSH1 0x1 PUSH1 0xA0 SHL SUB AND DUP2 MSTORE POP POP DUP5 DUP2 PUSH1 0x1 DUP2 MLOAD DUP2 LT PUSH2 0xD50 JUMPI PUSH2 0xD50 PUSH2 0x1382 JUMP JUMPDEST PUSH1 0x1 PUSH1 0x1 PUSH1 0xA0 SHL SUB SWAP3 DUP4 AND PUSH1 0x20 SWAP2 DUP3 MUL SWAP3 SWAP1 SWAP3 ADD ADD MSTORE PUSH1 0x0 SWAP1 PUSH32 0x0 AND PUSH4 0x38ED1739 DUP7 DUP7 DUP6 ADDRESS PUSH2 0xDA0 TIMESTAMP PUSH2 0x12C PUSH2 0x14AB JUMP JUMPDEST PUSH1 0x40 MLOAD DUP7 PUSH4 0xFFFFFFFF AND PUSH1 0xE0 SHL DUP2 MSTORE PUSH1 0x4 ADD PUSH2 0xDC0 SWAP6 SWAP5 SWAP4 SWAP3 SWAP2 SWAP1 PUSH2 0x14BE JUMP JUMPDEST PUSH1 0x0 PUSH1 0x40 MLOAD DUP1 DUP4 SUB DUP2 PUSH1 0x0 DUP8 GAS CALL ISZERO DUP1 ISZERO PUSH2 0xDDF JUMPI RETURNDATASIZE PUSH1 0x0 DUP1 RETURNDATACOPY RETURNDATASIZE PUSH1 0x0 REVERT JUMPDEST POP POP POP POP PUSH1 0x40 MLOAD RETURNDATASIZE PUSH1 0x0 DUP3 RETURNDATACOPY PUSH1 0x1F RETURNDATASIZE SWAP1 DUP2 ADD PUSH1 0x1F NOT AND DUP3 ADD PUSH1 0x40 MSTORE PUSH2 0xE07 SWAP2 SWAP1 DUP2 ADD SWAP1 PUSH2 0x13FE JUMP JUMPDEST SWAP1 POP DUP1 PUSH1 0x1 DUP3 MLOAD PUSH2 0xE18 SWAP2 SWAP1 PUSH2 0x1305 JUMP JUMPDEST DUP2 MLOAD DUP2 LT PUSH2 0xE28 JUMPI PUSH2 0xE28 PUSH2 0x1382 JUMP JUMPDEST PUSH1 0x20 MUL PUSH1 0x20 ADD ADD MLOAD SWAP3 POP POP POP SWAP5 SWAP4 POP POP POP POP JUMP JUMPDEST PUSH1 0x1 PUSH1 0x1 PUSH1 0xA0 SHL SUB DUP2 AND DUP2 EQ PUSH2 0x6AF JUMPI PUSH1 0x0 DUP1 REVERT JUMPDEST PUSH1 0x0 DUP1 PUSH1 0x0 DUP1 PUSH1 0x0 DUP1 PUSH1 0xA0 DUP8 DUP10 SUB SLT ISZERO PUSH2 0xE6A JUMPI PUSH1 0x0 DUP1 REVERT JUMPDEST DUP7 CALLDATALOAD PUSH2 0xE75 DUP2 PUSH2 0xE3C JUMP JUMPDEST SWAP6 POP PUSH1 0x20 DUP8 ADD CALLDATALOAD PUSH2 0xE85 DUP2 PUSH2 0xE3C JUMP JUMPDEST SWAP5 POP PUSH1 0x40 DUP8 ADD CALLDATALOAD SWAP4 POP PUSH1 0x60 DUP8 ADD CALLDATALOAD SWAP3 POP PUSH1 0x80 DUP8 ADD CALLDATALOAD PUSH8 0xFFFFFFFFFFFFFFFF DUP2 GT ISZERO PUSH2 0xEAF JUMPI PUSH1 0x0 DUP1 REVERT JUMPDEST DUP8 ADD PUSH1 0x1F DUP2 ADD DUP10 SGT PUSH2 0xEC0 JUMPI PUSH1 0x0 DUP1 REVERT JUMPDEST DUP1 CALLDATALOAD PUSH8 0xFFFFFFFFFFFFFFFF DUP2 GT ISZERO PUSH2 0xED7 JUMPI PUSH1 0x0 DUP1 REVERT JUMPDEST DUP10 PUSH1 0x20 DUP3 DUP5 ADD ADD GT ISZERO PUSH2 0xEE9 JUMPI PUSH1 0x0 DUP1 REVERT JUMPDEST PUSH1 0x20 DUP3 ADD SWAP4 POP DUP1 SWAP3 POP POP POP SWAP3 SWAP6 POP SWAP3 SWAP6 POP SWAP3 SWAP6 JUMP JUMPDEST PUSH1 0x0 DUP1 PUSH1 0x0 PUSH1 0x60 DUP5 DUP7 SUB SLT ISZERO PUSH2 0xF13 JUMPI PUSH1 0x0 DUP1 REVERT JUMPDEST DUP4 CALLDATALOAD PUSH2 0xF1E DUP2 PUSH2 0xE3C JUMP JUMPDEST SWAP3 POP PUSH1 0x20 DUP5 ADD CALLDATALOAD SWAP2 POP PUSH1 0x40 DUP5 ADD CALLDATALOAD PUSH2 0xF35 DUP2 PUSH2 0xE3C JUMP JUMPDEST DUP1 SWAP2 POP POP SWAP3 POP SWAP3 POP SWAP3 JUMP JUMPDEST PUSH1 0x0 PUSH1 0x20 DUP3 DUP5 SUB SLT ISZERO PUSH2 0xF52 JUMPI PUSH1 0x0 DUP1 REVERT JUMPDEST POP CALLDATALOAD SWAP2 SWAP1 POP JUMP JUMPDEST PUSH1 0x0 PUSH1 0x20 DUP3 DUP5 SUB SLT ISZERO PUSH2 0xF6B JUMPI PUSH1 0x0 DUP1 REVERT JUMPDEST DUP2 CALLDATALOAD PUSH2 0xF76 DUP2 PUSH2 0xE3C JUMP JUMPDEST SWAP4 SWAP3 POP POP POP JUMP JUMPDEST PUSH4 0x4E487B71 PUSH1 0xE0 SHL PUSH1 0x0 MSTORE PUSH1 0x41 PUSH1 0x4 MSTORE PUSH1 0x24 PUSH1 0x0 REVERT JUMPDEST PUSH1 0x40 MLOAD PUSH1 0xA0 DUP2 ADD PUSH8 0xFFFFFFFFFFFFFFFF DUP2 GT DUP3 DUP3 LT OR ISZERO PUSH2 0xFB6 JUMPI PUSH2 0xFB6 PUSH2 0xF7D JUMP JUMPDEST PUSH1 0x40 MSTORE SWAP1 JUMP JUMPDEST PUSH1 0x40 MLOAD PUSH1 0x1F DUP3 ADD PUSH1 0x1F NOT AND DUP2 ADD PUSH8 0xFFFFFFFFFFFFFFFF DUP2 GT DUP3 DUP3 LT OR ISZERO PUSH2 0xFE5 JUMPI PUSH2 0xFE5 PUSH2 0xF7D JUMP JUMPDEST PUSH1 0x40 MSTORE SWAP2 SWAP1 POP JUMP JUMPDEST DUP1 ISZERO ISZERO DUP2 EQ PUSH2 0x6AF JUMPI PUSH1 0x0 DUP1 REVERT JUMPDEST PUSH1 0x0 DUP3 PUSH1 0x1F DUP4 ADD SLT PUSH2 0x100C JUMPI PUSH1 0x0 DUP1 REVERT JUMPDEST DUP2 CALLDATALOAD PUSH8 0xFFFFFFFFFFFFFFFF DUP2 GT ISZERO PUSH2 0x1026 JUMPI PUSH2 0x1026 PUSH2 0xF7D JUMP JUMPDEST PUSH2 0x1039 PUSH1 0x1F DUP3 ADD PUSH1 0x1F NOT AND PUSH1 0x20 ADD PUSH2 0xFBC JUMP JUMPDEST DUP2 DUP2 MSTORE DUP5 PUSH1 0x20 DUP4 DUP7 ADD ADD GT ISZERO PUSH2 0x104E JUMPI PUSH1 0x0 DUP1 REVERT JUMPDEST DUP2 PUSH1 0x20 DUP6 ADD PUSH1 0x20 DUP4 ADD CALLDATACOPY PUSH1 0x0 SWAP2 DUP2 ADD PUSH1 0x20 ADD SWAP2 SWAP1 SWAP2 MSTORE SWAP4 SWAP3 POP POP POP JUMP JUMPDEST PUSH1 0x0 DUP1 DUP3 DUP5 SUB PUSH1 0xC0 DUP2 SLT ISZERO PUSH2 0x107F JUMPI PUSH1 0x0 DUP1 REVERT JUMPDEST PUSH1 0xA0 DUP2 SLT ISZERO PUSH2 0x108D JUMPI PUSH1 0x0 DUP1 REVERT JUMPDEST POP PUSH2 0x1096 PUSH2 0xF93 JUMP JUMPDEST DUP4 CALLDATALOAD PUSH2 0x10A1 DUP2 PUSH2 0xE3C JUMP JUMPDEST DUP2 MSTORE PUSH1 0x20 DUP5 ADD CALLDATALOAD PUSH2 0x10B1 DUP2 PUSH2 0xE3C JUMP JUMPDEST PUSH1 0x20 DUP3 ADD MSTORE PUSH1 0x40 DUP5 DUP2 ADD CALLDATALOAD SWAP1 DUP3 ADD MSTORE PUSH1 0x60 DUP1 DUP6 ADD CALLDATALOAD SWAP1 DUP3 ADD MSTORE PUSH1 0x80 DUP5 ADD CALLDATALOAD PUSH2 0x10D8 DUP2 PUSH2 0xFED JUMP JUMPDEST PUSH1 0x80 DUP3 ADD MSTORE SWAP2 POP PUSH1 0xA0 DUP4 ADD CALLDATALOAD PUSH8 0xFFFFFFFFFFFFFFFF DUP2 GT ISZERO PUSH2 0x10F9 JUMPI PUSH1 0x0 DUP1 REVERT JUMPDEST PUSH2 0x1105 DUP6 DUP3 DUP7 ADD PUSH2 0xFFB JUMP JUMPDEST SWAP2 POP POP SWAP3 POP SWAP3 SWAP1 POP JUMP JUMPDEST PUSH1 0x0 PUSH1 0x20 DUP3 DUP5 SUB SLT ISZERO PUSH2 0x1121 JUMPI PUSH1 0x0 DUP1 REVERT JUMPDEST DUP2 MLOAD PUSH2 0xF76 DUP2 PUSH2 0xFED JUMP JUMPDEST PUSH1 0x1 DUP1 PUSH1 0xA0 SHL SUB DUP5 MLOAD AND DUP2 MSTORE PUSH1 0x1 DUP1 PUSH1 0xA0 SHL SUB PUSH1 0x20 DUP6 ADD MLOAD AND PUSH1 0x20 DUP3 ADD MSTORE PUSH1 0x40 DUP5 ADD MLOAD PUSH1 0x40 DUP3 ADD MSTORE PUSH1 0x60 DUP5 ADD MLOAD PUSH1 0x60 DUP3 ADD MSTORE PUSH1 0x80 DUP5 ADD MLOAD ISZERO ISZERO PUSH1 0x80 DUP3 ADD MSTORE PUSH1 0xC0 PUSH1 0xA0 DUP3 ADD MSTORE DUP2 PUSH1 0xC0 DUP3 ADD MSTORE DUP2 DUP4 PUSH1 0xE0 DUP4 ADD CALLDATACOPY PUSH1 0x0 DUP2 DUP4 ADD PUSH1 0xE0 SWAP1 DUP2 ADD SWAP2 SWAP1 SWAP2 MSTORE PUSH1 0x1F SWAP1 SWAP3 ADD PUSH1 0x1F NOT AND ADD ADD SWAP3 SWAP2 POP POP JUMP JUMPDEST PUSH1 0x1 PUSH1 0x1 PUSH1 0xA0 SHL SUB DUP8 DUP2 AND DUP3 MSTORE DUP7 DUP2 AND PUSH1 0x20 DUP4 ADD MSTORE DUP6 AND PUSH1 0x40 DUP3 ADD MSTORE PUSH1 0x60 DUP2 ADD DUP5 SWAP1 MSTORE PUSH1 0x80 DUP2 ADD DUP4 SWAP1 MSTORE PUSH1 0xC0 PUSH1 0xA0 DUP3 ADD DUP2 SWAP1 MSTORE DUP3 MLOAD SWAP1 DUP3 ADD DUP2 SWAP1 MSTORE PUSH1 0x0 SWAP1 DUP2 JUMPDEST DUP2 DUP2 LT ISZERO PUSH2 0x11FA JUMPI PUSH1 0x20 DUP2 DUP7 ADD DUP2 ADD MLOAD PUSH1 0xE0 DUP7 DUP5 ADD ADD MSTORE ADD PUSH2 0x11DD JUMP JUMPDEST POP PUSH1 0x0 PUSH1 0xE0 DUP3 DUP6 ADD ADD MSTORE PUSH1 0xE0 PUSH1 0x1F NOT PUSH1 0x1F DUP4 ADD AND DUP5 ADD ADD SWAP2 POP POP SWAP8 SWAP7 POP POP POP POP POP POP POP JUMP JUMPDEST DUP1 MLOAD PUSH1 0x1 PUSH1 0x1 PUSH1 0xA0 SHL SUB SWAP1 DUP2 AND DUP4 MSTORE PUSH1 0x20 DUP1 DUP4 ADD MLOAD DUP3 AND SWAP1 DUP5 ADD MSTORE PUSH1 0x40 DUP1 DUP4 ADD MLOAD PUSH3 0xFFFFFF AND SWAP1 DUP5 ADD MSTORE PUSH1 0x60 DUP1 DUP4 ADD MLOAD PUSH1 0x2 SIGNEXTEND SWAP1 DUP5 ADD MSTORE PUSH1 0x80 SWAP2 DUP3 ADD MLOAD AND SWAP2 ADD MSTORE JUMP JUMPDEST PUSH2 0x100 DUP2 ADD PUSH2 0x1271 DUP3 DUP6 PUSH2 0x121F JUMP JUMPDEST DUP3 MLOAD ISZERO ISZERO PUSH1 0xA0 DUP4 ADD MSTORE PUSH1 0x20 DUP4 ADD MLOAD PUSH1 0xC0 DUP4 ADD MSTORE PUSH1 0x40 SWAP1 SWAP3 ADD MLOAD PUSH1 0x1 PUSH1 0x1 PUSH1 0xA0 SHL SUB AND PUSH1 0xE0 SWAP1 SWAP2 ADD MSTORE SWAP2 SWAP1 POP JUMP JUMPDEST PUSH1 0x0 PUSH1 0x40 DUP3 DUP5 SUB SLT DUP1 ISZERO PUSH2 0x12B1 JUMPI PUSH1 0x0 DUP1 REVERT JUMPDEST POP PUSH1 0x40 DUP1 MLOAD SWAP1 DUP2 ADD PUSH8 0xFFFFFFFFFFFFFFFF DUP2 GT DUP3 DUP3 LT OR ISZERO PUSH2 0x12D5 JUMPI PUSH2 0x12D5 PUSH2 0xF7D JUMP JUMPDEST PUSH1 0x40 MSTORE DUP3 MLOAD DUP2 MSTORE PUSH1 0x20 SWAP3 DUP4 ADD MLOAD SWAP3 DUP2 ADD SWAP3 SWAP1 SWAP3 MSTORE POP SWAP2 SWAP1 POP JUMP JUMPDEST PUSH4 0x4E487B71 PUSH1 0xE0 SHL PUSH1 0x0 MSTORE PUSH1 0x11 PUSH1 0x4 MSTORE PUSH1 0x24 PUSH1 0x0 REVERT JUMPDEST DUP2 DUP2 SUB DUP2 DUP2 GT ISZERO PUSH2 0x1318 JUMPI PUSH2 0x1318 PUSH2 0x12EF JUMP JUMPDEST SWAP3 SWAP2 POP POP JUMP JUMPDEST PUSH1 0xA0 DUP2 ADD PUSH2 0x1318 DUP3 DUP5 PUSH2 0x121F JUMP JUMPDEST PUSH1 0x0 PUSH1 0x20 DUP3 DUP5 SUB SLT ISZERO PUSH2 0x133E JUMPI PUSH1 0x0 DUP1 REVERT JUMPDEST DUP2 MLOAD PUSH2 0xF76 DUP2 PUSH2 0xE3C JUMP JUMPDEST DUP1 DUP3 MUL DUP2 ISZERO DUP3 DUP3 DIV DUP5 EQ OR PUSH2 0x1318 JUMPI PUSH2 0x1318 PUSH2 0x12EF JUMP JUMPDEST PUSH1 0x0 DUP3 PUSH2 0x137D JUMPI PUSH4 0x4E487B71 PUSH1 0xE0 SHL PUSH1 0x0 MSTORE PUSH1 0x12 PUSH1 0x4 MSTORE PUSH1 0x24 PUSH1 0x0 REVERT JUMPDEST POP DIV SWAP1 JUMP JUMPDEST PUSH4 0x4E487B71 PUSH1 0xE0 SHL PUSH1 0x0 MSTORE PUSH1 0x32 PUSH1 0x4 MSTORE PUSH1 0x24 PUSH1 0x0 REVERT JUMPDEST PUSH1 0x0 DUP2 MLOAD DUP1 DUP5 MSTORE PUSH1 0x20 DUP5 ADD SWAP4 POP PUSH1 0x20 DUP4 ADD PUSH1 0x0 JUMPDEST DUP3 DUP2 LT ISZERO PUSH2 0x13D3 JUMPI DUP2 MLOAD PUSH1 0x1 PUSH1 0x1 PUSH1 0xA0 SHL SUB AND DUP7 MSTORE PUSH1 0x20 SWAP6 DUP7 ADD SWAP6 SWAP1 SWAP2 ADD SWAP1 PUSH1 0x1 ADD PUSH2 0x13AC JUMP JUMPDEST POP SWAP4 SWAP5 SWAP4 POP POP POP POP JUMP JUMPDEST DUP3 DUP2 MSTORE PUSH1 0x40 PUSH1 0x20 DUP3 ADD MSTORE PUSH1 0x0 PUSH2 0x13F6 PUSH1 0x40 DUP4 ADD DUP5 PUSH2 0x1398 JUMP JUMPDEST SWAP5 SWAP4 POP POP POP POP JUMP JUMPDEST PUSH1 0x0 PUSH1 0x20 DUP3 DUP5 SUB SLT ISZERO PUSH2 0x1410 JUMPI PUSH1 0x0 DUP1 REVERT JUMPDEST DUP2 MLOAD PUSH8 0xFFFFFFFFFFFFFFFF DUP2 GT ISZERO PUSH2 0x1427 JUMPI PUSH1 0x0 DUP1 REVERT JUMPDEST DUP3 ADD PUSH1 0x1F DUP2 ADD DUP5 SGT PUSH2 0x1438 JUMPI PUSH1 0x0 DUP1 REVERT JUMPDEST DUP1 MLOAD PUSH8 0xFFFFFFFFFFFFFFFF DUP2 GT ISZERO PUSH2 0x1452 JUMPI PUSH2 0x1452 PUSH2 0xF7D JUMP JUMPDEST DUP1 PUSH1 0x5 SHL PUSH2 0x1462 PUSH1 0x20 DUP3 ADD PUSH2 0xFBC JUMP JUMPDEST SWAP2 DUP3 MSTORE PUSH1 0x20 DUP2 DUP5 ADD DUP2 ADD SWAP3 SWAP1 DUP2 ADD SWAP1 DUP8 DUP5 GT ISZERO PUSH2 0x147E JUMPI PUSH1 0x0 DUP1 REVERT JUMPDEST PUSH1 0x20 DUP6 ADD SWAP5 POP JUMPDEST DUP4 DUP6 LT ISZERO PUSH2 0x14A0 JUMPI DUP5 MLOAD DUP3 MSTORE PUSH1 0x20 SWAP5 DUP6 ADD SWAP5 SWAP1 SWAP2 ADD SWAP1 PUSH2 0x1485 JUMP JUMPDEST SWAP8 SWAP7 POP POP POP POP POP POP POP JUMP JUMPDEST DUP1 DUP3 ADD DUP1 DUP3 GT ISZERO PUSH2 0x1318 JUMPI PUSH2 0x1318 PUSH2 0x12EF JUMP JUMPDEST DUP6 DUP2 MSTORE DUP5 PUSH1 0x20 DUP3 ADD MSTORE PUSH1 0xA0 PUSH1 0x40 DUP3 ADD MSTORE PUSH1 0x0 PUSH2 0x14DD PUSH1 0xA0 DUP4 ADD DUP7 PUSH2 0x1398 JUMP JUMPDEST PUSH1 0x1 PUSH1 0x1 PUSH1 0xA0 SHL SUB SWAP5 SWAP1 SWAP5 AND PUSH1 0x60 DUP4 ADD MSTORE POP PUSH1 0x80 ADD MSTORE SWAP4 SWAP3 POP POP POP JUMP INVALID LOG2 PUSH5 0x6970667358 0x22 SLT KECCAK256 GAS SMOD 0x4B ADDMOD SWAP16 0xD COINBASE 0xFB PUSH24 0xF23CBEB86CD6F4ECF80BBDD68FEC28FFCE2A7D3978FB0D64 PUSH20 0x6F6C634300081C00330000000000000000000000 "},"methodIdentifiers":{"emergencyWithdraw(address,uint256,address)":"551512de","executeArbitrage(address,address,uint256,uint256,bytes)":"b5ffad44","flashCallback(address,address,uint256,uint256,bytes)":"51c469e2","minimumProfitThreshold()":"0a967eb2","owner()":"8da5cb5b","poolManager()":"dc4c90d3","renounceOwnership()":"715018a6","setMinimumProfitThreshold(uint256)":"e1ab1b13","sushiswapRouter()":"e9240c2d","transferOwnership(address)":"f2fde38b"}}}}}