{"contracts/flashloan/FlashloanArbitrage.sol":{"FlashloanArbitrage":{"abi":[{"inputs":[{"internalType":"address","name":"_addressProvider","type":"address"},{"internalType":"address","name":"_uniswapRouterAddress","type":"address"},{"internalType":"address","name":"_sushiswapRouterAddress","type":"address"}],"stateMutability":"nonpayable","type":"constructor"},{"inputs":[{"internalType":"address","name":"owner","type":"address"}],"name":"OwnableInvalidOwner","type":"error"},{"inputs":[{"internalType":"address","name":"account","type":"address"}],"name":"OwnableUnauthorizedAccount","type":"error"},{"inputs":[{"internalType":"address","name":"token","type":"address"}],"name":"SafeERC20FailedOperation","type":"error"},{"anonymous":false,"inputs":[{"indexed":true,"internalType":"address","name":"token0","type":"address"},{"indexed":true,"internalType":"address","name":"token1","type":"address"},{"indexed":false,"internalType":"uint256","name":"profit","type":"uint256"}],"name":"ArbitrageExecuted","type":"event"},{"anonymous":false,"inputs":[{"indexed":true,"internalType":"address","name":"_from","type":"address"},{"indexed":true,"internalType":"address","name":"_assetAddress","type":"address"},{"indexed":false,"internalType":"uint256","name":"amount","type":"uint256"}],"name":"LogWithdraw","type":"event"},{"anonymous":false,"inputs":[{"indexed":true,"internalType":"address","name":"previousOwner","type":"address"},{"indexed":true,"internalType":"address","name":"newOwner","type":"address"}],"name":"OwnershipTransferred","type":"event"},{"inputs":[],"name":"ADDRESSES_PROVIDER","outputs":[{"internalType":"contract ILendingPoolAddressesProviderV2","name":"","type":"address"}],"stateMutability":"view","type":"function"},{"inputs":[],"name":"LENDING_POOL","outputs":[{"internalType":"contract ILendingPoolV2","name":"","type":"address"}],"stateMutability":"view","type":"function"},{"inputs":[{"internalType":"uint256","name":"amount","type":"uint256"},{"internalType":"uint256","name":"uniswapPrice","type":"uint256"},{"internalType":"uint256","name":"sushiswapPrice","type":"uint256"}],"name":"calculateArbitrageProfitEstimate","outputs":[{"internalType":"uint256","name":"","type":"uint256"}],"stateMutability":"view","type":"function"},{"inputs":[{"internalType":"address","name":"token0","type":"address"},{"internalType":"address","name":"token1","type":"address"},{"internalType":"uint256","name":"amount","type":"uint256"}],"name":"executeArbitrage","outputs":[],"stateMutability":"nonpayable","type":"function"},{"inputs":[{"internalType":"address[]","name":"path","type":"address[]"},{"internalType":"uint256[]","name":"amounts","type":"uint256[]"}],"name":"executeComplexArbitrage","outputs":[],"stateMutability":"nonpayable","type":"function"},{"inputs":[{"internalType":"address","name":"baseToken","type":"address"},{"internalType":"address[]","name":"pairs","type":"address[]"},{"internalType":"uint256","name":"amount","type":"uint256"},{"internalType":"uint256[]","name":"prices","type":"uint256[]"}],"name":"executeMultiDexArbitrage","outputs":[],"stateMutability":"nonpayable","type":"function"},{"inputs":[{"internalType":"address[]","name":"assets","type":"address[]"},{"internalType":"uint256[]","name":"amounts","type":"uint256[]"},{"internalType":"uint256[]","name":"premiums","type":"uint256[]"},{"internalType":"address","name":"initiator","type":"address"},{"internalType":"bytes","name":"params","type":"bytes"}],"name":"executeOperation","outputs":[{"internalType":"bool","name":"","type":"bool"}],"stateMutability":"nonpayable","type":"function"},{"inputs":[{"internalType":"address","name":"_asset","type":"address"},{"internalType":"uint256","name":"_amount","type":"uint256"}],"name":"flashloan","outputs":[],"stateMutability":"nonpayable","type":"function"},{"inputs":[],"name":"owner","outputs":[{"internalType":"address","name":"","type":"address"}],"stateMutability":"view","type":"function"},{"inputs":[],"name":"renounceOwnership","outputs":[],"stateMutability":"nonpayable","type":"function"},{"inputs":[{"internalType":"uint256","name":"threshold","type":"uint256"}],"name":"setMinimumProfitThreshold","outputs":[],"stateMutability":"nonpayable","type":"function"},{"inputs":[{"internalType":"bool","name":"shouldFail","type":"bool"}],"name":"setSimulateFailure","outputs":[],"stateMutability":"nonpayable","type":"function"},{"inputs":[{"internalType":"address","name":"newOwner","type":"address"}],"name":"transferOwnership","outputs":[],"stateMutability":"nonpayable","type":"function"},{"inputs":[{"internalType":"address","name":"_assetAddress","type":"address"}],"name":"withdraw","outputs":[],"stateMutability":"nonpayable","type":"function"},{"stateMutability":"payable","type":"receive"}],"evm":{"bytecode":{"linkReferences":{},"object":"61010060405234801561001157600080fd5b5060405161303d38038061303d83398181016040528101906100339190610325565b33838073ffffffffffffffffffffffffffffffffffffffff1660808173ffffffffffffffffffffffffffffffffffffffff16815250508073ffffffffffffffffffffffffffffffffffffffff16630261bf8b6040518163ffffffff1660e01b8152600401602060405180830381865afa1580156100b4573d6000803e3d6000fd5b505050506040513d601f19601f820116820180604052508101906100d89190610378565b73ffffffffffffffffffffffffffffffffffffffff1660a08173ffffffffffffffffffffffffffffffffffffffff168152505050600073ffffffffffffffffffffffffffffffffffffffff168173ffffffffffffffffffffffffffffffffffffffff160361017e5760006040517f1e4fbdf700000000000000000000000000000000000000000000000000000000815260040161017591906103b4565b60405180910390fd5b61018d816101fe60201b60201c565b508173ffffffffffffffffffffffffffffffffffffffff1660c08173ffffffffffffffffffffffffffffffffffffffff16815250508073ffffffffffffffffffffffffffffffffffffffff1660e08173ffffffffffffffffffffffffffffffffffffffff16815250505050506103cf565b60008060009054906101000a900473ffffffffffffffffffffffffffffffffffffffff169050816000806101000a81548173ffffffffffffffffffffffffffffffffffffffff021916908373ffffffffffffffffffffffffffffffffffffffff1602179055508173ffffffffffffffffffffffffffffffffffffffff168173ffffffffffffffffffffffffffffffffffffffff167f8be0079c531659141344cd1fd0a4f28419497f9722a3daafe3b4186f6b6457e060405160405180910390a35050565b600080fd5b600073ffffffffffffffffffffffffffffffffffffffff82169050919050565b60006102f2826102c7565b9050919050565b610302816102e7565b811461030d57600080fd5b50565b60008151905061031f816102f9565b92915050565b60008060006060848603121561033e5761033d6102c2565b5b600061034c86828701610310565b935050602061035d86828701610310565b925050604061036e86828701610310565b9150509250925092565b60006020828403121561038e5761038d6102c2565b5b600061039c84828501610310565b91505092915050565b6103ae816102e7565b82525050565b60006020820190506103c960008301846103a5565b92915050565b60805160a05160c05160e051612c046104396000396000818161136b015281816113a1015261152901526000818161133d015281816113cf01526114f9015260008181610af901528181610cf501528181610d8f01526111f4015260006103490152612c046000f3fe6080604052600436106100e15760003560e01c8063715018a61161007f578063920f5c8411610059578063920f5c841461028d578063b4dcfc77146102ca578063e1ab1b13146102f5578063f2fde38b1461031e576100e8565b8063715018a6146102225780638da5cb5b146102395780638e5f5f5714610264576100e8565b806351cff8d9116100bb57806351cff8d91461017e578063650f84be146101a75780636b2eb2f9146101d057806370963235146101f9576100e8565b80630542975c146100ed57806308739f50146101185780632fa2093514610141576100e8565b366100e857005b600080fd5b3480156100f957600080fd5b50610102610347565b60405161010f9190611a8c565b60405180910390f35b34801561012457600080fd5b5061013f600480360381019061013a9190611bea565b61036b565b005b34801561014d57600080fd5b5061016860048036038101906101639190611c91565b61046e565b6040516101759190611cf3565b60405180910390f35b34801561018a57600080fd5b506101a560048036038101906101a09190611d0e565b6104d6565b005b3480156101b357600080fd5b506101ce60048036038101906101c99190611d3b565b610690565b005b3480156101dc57600080fd5b506101f760048036038101906101f29190611dc6565b6107b9565b005b34801561020557600080fd5b50610220600480360381019061021b9190611df3565b6107de565b005b34801561022e57600080fd5b5061023761093b565b005b34801561024557600080fd5b5061024e61094f565b60405161025b9190611e83565b60405180910390f35b34801561027057600080fd5b5061028b60048036038101906102869190611e9e565b610978565b005b34801561029957600080fd5b506102b460048036038101906102af9190611f34565b610af5565b6040516102c1919061203f565b60405180910390f35b3480156102d657600080fd5b506102df610d8d565b6040516102ec919061207b565b60405180910390f35b34801561030157600080fd5b5061031c60048036038101906103179190612096565b610db1565b005b34801561032a57600080fd5b5061034560048036038101906103409190611d0e565b610dc3565b005b7f000000000000000000000000000000000000000000000000000000000000000081565b610373610e49565b60008585905011801561038b57508484905082829050145b6103ca576040517f08c379a00000000000000000000000000000000000000000000000000000000081526004016103c190612120565b60405180910390fd5b600154831161040e576040517f08c379a00000000000000000000000000000000000000000000000000000000081526004016104059061218c565b60405180910390fd5b600085856000818110610424576104236121ac565b5b90506020020160208101906104399190611d0e565b6040516020016104499190611e83565b6040516020818303038152906040529050610465878583610ed0565b50505050505050565b60008084148061047e5750600083145b806104895750600082145b1561049757600090506104cf565b6000828411156104b3576104ac858585610fee565b90506104ca565b838311156104c9576104c6858486610fee565b90505b5b809150505b9392505050565b6104de610e49565b60008073ffffffffffffffffffffffffffffffffffffffff168273ffffffffffffffffffffffffffffffffffffffff160361057f5760003090508073ffffffffffffffffffffffffffffffffffffffff163191503373ffffffffffffffffffffffffffffffffffffffff166108fc839081150290604051600060405180830381858888f19350505050158015610578573d6000803e3d6000fd5b5050610627565b8173ffffffffffffffffffffffffffffffffffffffff166370a08231306040518263ffffffff1660e01b81526004016105b89190611e83565b602060405180830381865afa1580156105d5573d6000803e3d6000fd5b505050506040513d601f19601f820116820180604052508101906105f991906121f0565b905061062633828473ffffffffffffffffffffffffffffffffffffffff1661101b9092919063ffffffff16565b5b8173ffffffffffffffffffffffffffffffffffffffff163373ffffffffffffffffffffffffffffffffffffffff167f9207361cc2a04b9c7a06691df1eb87c6a63957ae88bf01d0d18c81e3d1272099836040516106849190611cf3565b60405180910390a35050565b610698610e49565b600081116106db576040517f08c379a00000000000000000000000000000000000000000000000000000000081526004016106d290612120565b60405180910390fd5b600073ffffffffffffffffffffffffffffffffffffffff168373ffffffffffffffffffffffffffffffffffffffff16141580156107455750600073ffffffffffffffffffffffffffffffffffffffff168273ffffffffffffffffffffffffffffffffffffffff1614155b610784576040517f08c379a000000000000000000000000000000000000000000000000000000000815260040161077b90612269565b60405180910390fd5b6000826040516020016107979190611e83565b60405160208183030381529060405290506107b3848383610ed0565b50505050565b6107c1610e49565b80600260006101000a81548160ff02191690831515021790555050565b6107e6610e49565b6001848490501180156107fe57508383905082829050145b61083d576040517f08c379a000000000000000000000000000000000000000000000000000000000815260040161083490612120565b60405180910390fd5b60015482826000818110610854576108536121ac565b5b905060200201351161089b576040517f08c379a00000000000000000000000000000000000000000000000000000000081526004016108929061218c565b60405180910390fd5b6000848460018181106108b1576108b06121ac565b5b90506020020160208101906108c69190611d0e565b6040516020016108d69190611e83565b6040516020818303038152906040529050610934858560008181106108fe576108fd6121ac565b5b90506020020160208101906109139190611d0e565b84846000818110610927576109266121ac565b5b9050602002013583610ed0565b5050505050565b610943610e49565b61094d600061109a565b565b60008060009054906101000a900473ffffffffffffffffffffffffffffffffffffffff16905090565b610980610e49565b600081116109c3576040517f08c379a00000000000000000000000000000000000000000000000000000000081526004016109ba906122d5565b60405180910390fd5b6000600167ffffffffffffffff8111156109e0576109df6122f5565b5b604051908082528060200260200182016040528015610a0e5781602001602082028036833780820191505090505b5090508281600081518110610a2657610a256121ac565b5b602002602001019073ffffffffffffffffffffffffffffffffffffffff16908173ffffffffffffffffffffffffffffffffffffffff16815250506000600167ffffffffffffffff811115610a7d57610a7c6122f5565b5b604051908082528060200260200182016040528015610aab5781602001602082028036833780820191505090505b5090508281600081518110610ac357610ac26121ac565b5b6020026020010181815250506000604051806020016040528060008152509050610aee83838361115e565b5050505050565b60007f000000000000000000000000000000000000000000000000000000000000000073ffffffffffffffffffffffffffffffffffffffff163373ffffffffffffffffffffffffffffffffffffffff1614610b85576040517f08c379a0000000000000000000000000000000000000000000000000000000008152600401610b7c90612370565b60405180910390fd5b600260009054906101000a900460ff1615610bd5576040517f08c379a0000000000000000000000000000000000000000000000000000000008152600401610bcc906123dc565b60405180910390fd5b60008a8a6000818110610beb57610bea6121ac565b5b9050602002016020810190610c009190611d0e565b9050600089896000818110610c1857610c176121ac565b5b905060200201359050600088886000818110610c3757610c366121ac565b5b90506020020135905060008686810190610c51919061243a565b90506000610c60858584611292565b90508173ffffffffffffffffffffffffffffffffffffffff168573ffffffffffffffffffffffffffffffffffffffff167f546205492ce144edebd2cc39035c50dbd9aebfec90cbcae9c9ae2914d1e130f783604051610cbf9190611cf3565b60405180910390a360008385610cd59190612496565b90508573ffffffffffffffffffffffffffffffffffffffff1663095ea7b37f0000000000000000000000000000000000000000000000000000000000000000836040518363ffffffff1660e01b8152600401610d329291906124ca565b6020604051808303816000875af1158015610d51573d6000803e3d6000fd5b505050506040513d601f19601f82011682018060405250810190610d759190612508565b50600196505050505050509998505050505050505050565b7f000000000000000000000000000000000000000000000000000000000000000081565b610db9610e49565b8060018190555050565b610dcb610e49565b600073ffffffffffffffffffffffffffffffffffffffff168173ffffffffffffffffffffffffffffffffffffffff1603610e3d5760006040517f1e4fbdf7000000000000000000000000000000000000000000000000000000008152600401610e349190611e83565b60405180910390fd5b610e468161109a565b50565b610e51611447565b73ffffffffffffffffffffffffffffffffffffffff16610e6f61094f565b73ffffffffffffffffffffffffffffffffffffffff1614610ece57610e92611447565b6040517f118cdaa7000000000000000000000000000000000000000000000000000000008152600401610ec59190611e83565b60405180910390fd5b565b6000600167ffffffffffffffff811115610eed57610eec6122f5565b5b604051908082528060200260200182016040528015610f1b5781602001602082028036833780820191505090505b5090508381600081518110610f3357610f326121ac565b5b602002602001019073ffffffffffffffffffffffffffffffffffffffff16908173ffffffffffffffffffffffffffffffffffffffff16815250506000600167ffffffffffffffff811115610f8a57610f896122f5565b5b604051908082528060200260200182016040528015610fb85781602001602082028036833780820191505090505b5090508381600081518110610fd057610fcf6121ac565b5b602002602001018181525050610fe782828561115e565b5050505050565b600082848385610ffe9190612535565b6110089190612569565b61101291906125da565b90509392505050565b611095838473ffffffffffffffffffffffffffffffffffffffff1663a9059cbb858560405160240161104e9291906124ca565b604051602081830303815290604052915060e01b6020820180517bffffffffffffffffffffffffffffffffffffffffffffffffffffffff838183161783525050505061144f565b505050565b60008060009054906101000a900473ffffffffffffffffffffffffffffffffffffffff169050816000806101000a81548173ffffffffffffffffffffffffffffffffffffffff021916908373ffffffffffffffffffffffffffffffffffffffff1602179055508173ffffffffffffffffffffffffffffffffffffffff168173ffffffffffffffffffffffffffffffffffffffff167f8be0079c531659141344cd1fd0a4f28419497f9722a3daafe3b4186f6b6457e060405160405180910390a35050565b60003090506000309050600080865167ffffffffffffffff811115611186576111856122f5565b5b6040519080825280602002602001820160405280156111b45781602001602082028036833780820191505090505b50905060005b87518110156111f15760008282815181106111d8576111d76121ac565b5b60200260200101818152505080806001019150506111ba565b507f000000000000000000000000000000000000000000000000000000000000000073ffffffffffffffffffffffffffffffffffffffff1663ab9c4b5d85898985888b896040518863ffffffff1660e01b81526004016112579796959493929190612834565b600060405180830381600087803b15801561127157600080fd5b505af1158015611285573d6000803e3d6000fd5b5050505050505050505050565b6000806112a08486856114f1565b90506002808111156112b5576112b46128bf565b5b8160028111156112c8576112c76128bf565b5b03611308576040517f08c379a00000000000000000000000000000000000000000000000000000000081526004016112ff90612960565b60405180910390fd5b600080600281111561131d5761131c6128bf565b5b8260028111156113305761132f6128bf565b5b03611399576000611363867f000000000000000000000000000000000000000000000000000000000000000089886115ad565b9050611391817f0000000000000000000000000000000000000000000000000000000000000000878a6115ad565b9150506113f9565b60006113c7867f000000000000000000000000000000000000000000000000000000000000000089886115ad565b90506113f5817f0000000000000000000000000000000000000000000000000000000000000000878a6115ad565b9150505b84811161143b576040517f08c379a0000000000000000000000000000000000000000000000000000000008152600401611432906129cc565b60405180910390fd5b80925050509392505050565b600033905090565b600080602060008451602086016000885af180611472576040513d6000823e3d81fd5b3d92506000519150506000821461148d5760018114156114a9565b60008473ffffffffffffffffffffffffffffffffffffffff163b145b156114eb57836040517f5274afe70000000000000000000000000000000000000000000000000000000081526004016114e29190611e83565b60405180910390fd5b50505050565b6000806115207f00000000000000000000000000000000000000000000000000000000000000008585886117ff565b905060006115507f00000000000000000000000000000000000000000000000000000000000000008686896117ff565b90508082111561157a57611565868383611999565b15611575576000925050506115a6565b61159f565b8181111561159e5761158d868284611999565b1561159d576001925050506115a6565b5b5b6002925050505b9392505050565b60008273ffffffffffffffffffffffffffffffffffffffff1663095ea7b385876040518363ffffffff1660e01b81526004016115ea9291906124ca565b6020604051808303816000875af1158015611609573d6000803e3d6000fd5b505050506040513d601f19601f8201168201806040525081019061162d9190612508565b5060006064605f6116408787878b6117ff565b61164a9190612569565b61165491906125da565b90506000600267ffffffffffffffff811115611673576116726122f5565b5b6040519080825280602002602001820160405280156116a15781602001602082028036833780820191505090505b50905084816000815181106116b9576116b86121ac565b5b602002602001019073ffffffffffffffffffffffffffffffffffffffff16908173ffffffffffffffffffffffffffffffffffffffff16815250508381600181518110611708576117076121ac565b5b602002602001019073ffffffffffffffffffffffffffffffffffffffff16908173ffffffffffffffffffffffffffffffffffffffff16815250508573ffffffffffffffffffffffffffffffffffffffff166338ed17398884843061012c426117709190612496565b6040518663ffffffff1660e01b81526004016117909594939291906129ec565b6000604051808303816000875af11580156117af573d6000803e3d6000fd5b505050506040513d6000823e3d601f19601f820116820180604052508101906117d89190612b55565b6001815181106117eb576117ea6121ac565b5b602002602001015192505050949350505050565b600080600267ffffffffffffffff81111561181d5761181c6122f5565b5b60405190808252806020026020018201604052801561184b5781602001602082028036833780820191505090505b5090508481600081518110611863576118626121ac565b5b602002602001019073ffffffffffffffffffffffffffffffffffffffff16908173ffffffffffffffffffffffffffffffffffffffff168152505083816001815181106118b2576118b16121ac565b5b602002602001019073ffffffffffffffffffffffffffffffffffffffff16908173ffffffffffffffffffffffffffffffffffffffff168152505060008673ffffffffffffffffffffffffffffffffffffffff1663d06ca61f85846040518363ffffffff1660e01b8152600401611929929190612b9e565b600060405180830381865afa158015611946573d6000803e3d6000fd5b505050506040513d6000823e3d601f19601f8201168201806040525081019061196f9190612b55565b905080600181518110611985576119846121ac565b5b602002602001015192505050949350505050565b60008083670de0b6b3a764000084866119b29190612535565b6119bc9190612569565b6119c691906125da565b905060006103e86003876119da9190612569565b60026119e69190612569565b6119f091906125da565b90508082118015611a02575060015482115b925050509392505050565b600073ffffffffffffffffffffffffffffffffffffffff82169050919050565b6000819050919050565b6000611a52611a4d611a4884611a0d565b611a2d565b611a0d565b9050919050565b6000611a6482611a37565b9050919050565b6000611a7682611a59565b9050919050565b611a8681611a6b565b82525050565b6000602082019050611aa16000830184611a7d565b92915050565b6000604051905090565b600080fd5b600080fd5b6000611ac682611a0d565b9050919050565b611ad681611abb565b8114611ae157600080fd5b50565b600081359050611af381611acd565b92915050565b600080fd5b600080fd5b600080fd5b60008083601f840112611b1e57611b1d611af9565b5b8235905067ffffffffffffffff811115611b3b57611b3a611afe565b5b602083019150836020820283011115611b5757611b56611b03565b5b9250929050565b6000819050919050565b611b7181611b5e565b8114611b7c57600080fd5b50565b600081359050611b8e81611b68565b92915050565b60008083601f840112611baa57611ba9611af9565b5b8235905067ffffffffffffffff811115611bc757611bc6611afe565b5b602083019150836020820283011115611be357611be2611b03565b5b9250929050565b60008060008060008060808789031215611c0757611c06611ab1565b5b6000611c1589828a01611ae4565b965050602087013567ffffffffffffffff811115611c3657611c35611ab6565b5b611c4289828a01611b08565b95509550506040611c5589828a01611b7f565b935050606087013567ffffffffffffffff811115611c7657611c75611ab6565b5b611c8289828a01611b94565b92509250509295509295509295565b600080600060608486031215611caa57611ca9611ab1565b5b6000611cb886828701611b7f565b9350506020611cc986828701611b7f565b9250506040611cda86828701611b7f565b9150509250925092565b611ced81611b5e565b82525050565b6000602082019050611d086000830184611ce4565b92915050565b600060208284031215611d2457611d23611ab1565b5b6000611d3284828501611ae4565b91505092915050565b600080600060608486031215611d5457611d53611ab1565b5b6000611d6286828701611ae4565b9350506020611d7386828701611ae4565b9250506040611d8486828701611b7f565b9150509250925092565b60008115159050919050565b611da381611d8e565b8114611dae57600080fd5b50565b600081359050611dc081611d9a565b92915050565b600060208284031215611ddc57611ddb611ab1565b5b6000611dea84828501611db1565b91505092915050565b60008060008060408587031215611e0d57611e0c611ab1565b5b600085013567ffffffffffffffff811115611e2b57611e2a611ab6565b5b611e3787828801611b08565b9450945050602085013567ffffffffffffffff811115611e5a57611e59611ab6565b5b611e6687828801611b94565b925092505092959194509250565b611e7d81611abb565b82525050565b6000602082019050611e986000830184611e74565b92915050565b60008060408385031215611eb557611eb4611ab1565b5b6000611ec385828601611ae4565b9250506020611ed485828601611b7f565b9150509250929050565b60008083601f840112611ef457611ef3611af9565b5b8235905067ffffffffffffffff811115611f1157611f10611afe565b5b602083019150836001820283011115611f2d57611f2c611b03565b5b9250929050565b600080600080600080600080600060a08a8c031215611f5657611f55611ab1565b5b60008a013567ffffffffffffffff811115611f7457611f73611ab6565b5b611f808c828d01611b08565b995099505060208a013567ffffffffffffffff811115611fa357611fa2611ab6565b5b611faf8c828d01611b94565b975097505060408a013567ffffffffffffffff811115611fd257611fd1611ab6565b5b611fde8c828d01611b94565b95509550506060611ff18c828d01611ae4565b93505060808a013567ffffffffffffffff81111561201257612011611ab6565b5b61201e8c828d01611ede565b92509250509295985092959850929598565b61203981611d8e565b82525050565b60006020820190506120546000830184612030565b92915050565b600061206582611a59565b9050919050565b6120758161205a565b82525050565b6000602082019050612090600083018461206c565b92915050565b6000602082840312156120ac576120ab611ab1565b5b60006120ba84828501611b7f565b91505092915050565b600082825260208201905092915050565b7f496e76616c696420706172616d65746572730000000000000000000000000000600082015250565b600061210a6012836120c3565b9150612115826120d4565b602082019050919050565b60006020820190508181036000830152612139816120fd565b9050919050565b7f416d6f756e742062656c6f77207468726573686f6c6400000000000000000000600082015250565b60006121766016836120c3565b915061218182612140565b602082019050919050565b600060208201905081810360008301526121a581612169565b9050919050565b7f4e487b7100000000000000000000000000000000000000000000000000000000600052603260045260246000fd5b6000815190506121ea81611b68565b92915050565b60006020828403121561220657612205611ab1565b5b6000612214848285016121db565b91505092915050565b7f496e76616c696420746f6b656e20616464726573736573000000000000000000600082015250565b60006122536017836120c3565b915061225e8261221d565b602082019050919050565b6000602082019050818103600083015261228281612246565b9050919050565b7f416d6f756e74206d7573742062652067726561746572207468616e2030000000600082015250565b60006122bf601d836120c3565b91506122ca82612289565b602082019050919050565b600060208201905081810360008301526122ee816122b2565b9050919050565b7f4e487b7100000000000000000000000000000000000000000000000000000000600052604160045260246000fd5b7f43616c6c6572206d757374206265206c656e64696e6720706f6f6c0000000000600082015250565b600061235a601b836120c3565b915061236582612324565b602082019050919050565b600060208201905081810360008301526123898161234d565b9050919050565b7f41726269747261676520657865637574696f6e206661696c6564000000000000600082015250565b60006123c6601a836120c3565b91506123d182612390565b602082019050919050565b600060208201905081810360008301526123f5816123b9565b9050919050565b600061240782611a0d565b9050919050565b612417816123fc565b811461242257600080fd5b50565b6000813590506124348161240e565b92915050565b6000602082840312156124505761244f611ab1565b5b600061245e84828501612425565b91505092915050565b7f4e487b7100000000000000000000000000000000000000000000000000000000600052601160045260246000fd5b60006124a182611b5e565b91506124ac83611b5e565b92508282019050808211156124c4576124c3612467565b5b92915050565b60006040820190506124df6000830185611e74565b6124ec6020830184611ce4565b9392505050565b60008151905061250281611d9a565b92915050565b60006020828403121561251e5761251d611ab1565b5b600061252c848285016124f3565b91505092915050565b600061254082611b5e565b915061254b83611b5e565b925082820390508181111561256357612562612467565b5b92915050565b600061257482611b5e565b915061257f83611b5e565b925082820261258d81611b5e565b915082820484148315176125a4576125a3612467565b5b5092915050565b7f4e487b7100000000000000000000000000000000000000000000000000000000600052601260045260246000fd5b60006125e582611b5e565b91506125f083611b5e565b925082612600576125ff6125ab565b5b828204905092915050565b600081519050919050565b600082825260208201905092915050565b6000819050602082019050919050565b61264081611abb565b82525050565b60006126528383612637565b60208301905092915050565b6000602082019050919050565b60006126768261260b565b6126808185612616565b935061268b83612627565b8060005b838110156126bc5781516126a38882612646565b97506126ae8361265e565b92505060018101905061268f565b5085935050505092915050565b600081519050919050565b600082825260208201905092915050565b6000819050602082019050919050565b6126fe81611b5e565b82525050565b600061271083836126f5565b60208301905092915050565b6000602082019050919050565b6000612734826126c9565b61273e81856126d4565b9350612749836126e5565b8060005b8381101561277a5781516127618882612704565b975061276c8361271c565b92505060018101905061274d565b5085935050505092915050565b600081519050919050565b600082825260208201905092915050565b60005b838110156127c15780820151818401526020810190506127a6565b60008484015250505050565b6000601f19601f8301169050919050565b60006127e982612787565b6127f38185612792565b93506128038185602086016127a3565b61280c816127cd565b840191505092915050565b600061ffff82169050919050565b61282e81612817565b82525050565b600060e082019050612849600083018a611e74565b818103602083015261285b818961266b565b9050818103604083015261286f8188612729565b905081810360608301526128838187612729565b90506128926080830186611e74565b81810360a08301526128a481856127de565b90506128b360c0830184612825565b98975050505050505050565b7f4e487b7100000000000000000000000000000000000000000000000000000000600052602160045260246000fd5b7f4e6f2070726f66697461626c6520617262697472616765206f70706f7274756e60008201527f6974790000000000000000000000000000000000000000000000000000000000602082015250565b600061294a6023836120c3565b9150612955826128ee565b604082019050919050565b600060208201905081810360008301526129798161293d565b9050919050565b7f496e73756666696369656e742070726f66697400000000000000000000000000600082015250565b60006129b66013836120c3565b91506129c182612980565b602082019050919050565b600060208201905081810360008301526129e5816129a9565b9050919050565b600060a082019050612a016000830188611ce4565b612a0e6020830187611ce4565b8181036040830152612a20818661266b565b9050612a2f6060830185611e74565b612a3c6080830184611ce4565b9695505050505050565b612a4f826127cd565b810181811067ffffffffffffffff82111715612a6e57612a6d6122f5565b5b80604052505050565b6000612a81611aa7565b9050612a8d8282612a46565b919050565b600067ffffffffffffffff821115612aad57612aac6122f5565b5b602082029050602081019050919050565b6000612ad1612acc84612a92565b612a77565b90508083825260208201905060208402830185811115612af457612af3611b03565b5b835b81811015612b1d5780612b0988826121db565b845260208401935050602081019050612af6565b5050509392505050565b600082601f830112612b3c57612b3b611af9565b5b8151612b4c848260208601612abe565b91505092915050565b600060208284031215612b6b57612b6a611ab1565b5b600082015167ffffffffffffffff811115612b8957612b88611ab6565b5b612b9584828501612b27565b91505092915050565b6000604082019050612bb36000830185611ce4565b8181036020830152612bc5818461266b565b9050939250505056fea2646970667358221220c9a58a39cfa993cdf98bebb64701e39144cc317b4df7349b6839e4ff0fc7ca7364736f6c634300081c0033","opcodes":"PUSH2 0x100 PUSH1 0x40 MSTORE CALLVALUE DUP1 ISZERO PUSH2 0x11 JUMPI PUSH1 0x0 DUP1 REVERT JUMPDEST POP PUSH1 0x40 MLOAD PUSH2 0x303D CODESIZE SUB DUP1 PUSH2 0x303D DUP4 CODECOPY DUP2 DUP2 ADD PUSH1 0x40 MSTORE DUP2 ADD SWAP1 PUSH2 0x33 SWAP2 SWAP1 PUSH2 0x325 JUMP JUMPDEST CALLER DUP4 DUP1 PUSH20 0xFFFFFFFFFFFFFFFFFFFFFFFFFFFFFFFFFFFFFFFF AND PUSH1 0x80 DUP2 PUSH20 0xFFFFFFFFFFFFFFFFFFFFFFFFFFFFFFFFFFFFFFFF AND DUP2 MSTORE POP POP DUP1 PUSH20 0xFFFFFFFFFFFFFFFFFFFFFFFFFFFFFFFFFFFFFFFF AND PUSH4 0x261BF8B PUSH1 0x40 MLOAD DUP2 PUSH4 0xFFFFFFFF AND PUSH1 0xE0 SHL DUP2 MSTORE PUSH1 0x4 ADD PUSH1 0x20 PUSH1 0x40 MLOAD DUP1 DUP4 SUB DUP2 DUP7 GAS STATICCALL ISZERO DUP1 ISZERO PUSH2 0xB4 JUMPI RETURNDATASIZE PUSH1 0x0 DUP1 RETURNDATACOPY RETURNDATASIZE PUSH1 0x0 REVERT JUMPDEST POP POP POP POP PUSH1 0x40 MLOAD RETURNDATASIZE PUSH1 0x1F NOT PUSH1 0x1F DUP3 ADD AND DUP3 ADD DUP1 PUSH1 0x40 MSTORE POP DUP2 ADD SWAP1 PUSH2 0xD8 SWAP2 SWAP1 PUSH2 0x378 JUMP JUMPDEST PUSH20 0xFFFFFFFFFFFFFFFFFFFFFFFFFFFFFFFFFFFFFFFF AND PUSH1 0xA0 DUP2 PUSH20 0xFFFFFFFFFFFFFFFFFFFFFFFFFFFFFFFFFFFFFFFF AND DUP2 MSTORE POP POP POP PUSH1 0x0 PUSH20 0xFFFFFFFFFFFFFFFFFFFFFFFFFFFFFFFFFFFFFFFF AND DUP2 PUSH20 0xFFFFFFFFFFFFFFFFFFFFFFFFFFFFFFFFFFFFFFFF AND SUB PUSH2 0x17E JUMPI PUSH1 0x0 PUSH1 0x40 MLOAD PUSH32 0x1E4FBDF700000000000000000000000000000000000000000000000000000000 DUP2 MSTORE PUSH1 0x4 ADD PUSH2 0x175 SWAP2 SWAP1 PUSH2 0x3B4 JUMP JUMPDEST PUSH1 0x40 MLOAD DUP1 SWAP2 SUB SWAP1 REVERT JUMPDEST PUSH2 0x18D DUP2 PUSH2 0x1FE PUSH1 0x20 SHL PUSH1 0x20 SHR JUMP JUMPDEST POP DUP2 PUSH20 0xFFFFFFFFFFFFFFFFFFFFFFFFFFFFFFFFFFFFFFFF AND PUSH1 0xC0 DUP2 PUSH20 0xFFFFFFFFFFFFFFFFFFFFFFFFFFFFFFFFFFFFFFFF AND DUP2 MSTORE POP POP DUP1 PUSH20 0xFFFFFFFFFFFFFFFFFFFFFFFFFFFFFFFFFFFFFFFF AND PUSH1 0xE0 DUP2 PUSH20 0xFFFFFFFFFFFFFFFFFFFFFFFFFFFFFFFFFFFFFFFF AND DUP2 MSTORE POP POP POP POP POP PUSH2 0x3CF JUMP JUMPDEST PUSH1 0x0 DUP1 PUSH1 0x0 SWAP1 SLOAD SWAP1 PUSH2 0x100 EXP SWAP1 DIV PUSH20 0xFFFFFFFFFFFFFFFFFFFFFFFFFFFFFFFFFFFFFFFF AND SWAP1 POP DUP2 PUSH1 0x0 DUP1 PUSH2 0x100 EXP DUP2 SLOAD DUP2 PUSH20 0xFFFFFFFFFFFFFFFFFFFFFFFFFFFFFFFFFFFFFFFF MUL NOT AND SWAP1 DUP4 PUSH20 0xFFFFFFFFFFFFFFFFFFFFFFFFFFFFFFFFFFFFFFFF AND MUL OR SWAP1 SSTORE POP DUP2 PUSH20 0xFFFFFFFFFFFFFFFFFFFFFFFFFFFFFFFFFFFFFFFF AND DUP2 PUSH20 0xFFFFFFFFFFFFFFFFFFFFFFFFFFFFFFFFFFFFFFFF AND PUSH32 0x8BE0079C531659141344CD1FD0A4F28419497F9722A3DAAFE3B4186F6B6457E0 PUSH1 0x40 MLOAD PUSH1 0x40 MLOAD DUP1 SWAP2 SUB SWAP1 LOG3 POP POP JUMP JUMPDEST PUSH1 0x0 DUP1 REVERT JUMPDEST PUSH1 0x0 PUSH20 0xFFFFFFFFFFFFFFFFFFFFFFFFFFFFFFFFFFFFFFFF DUP3 AND SWAP1 POP SWAP2 SWAP1 POP JUMP JUMPDEST PUSH1 0x0 PUSH2 0x2F2 DUP3 PUSH2 0x2C7 JUMP JUMPDEST SWAP1 POP SWAP2 SWAP1 POP JUMP JUMPDEST PUSH2 0x302 DUP2 PUSH2 0x2E7 JUMP JUMPDEST DUP2 EQ PUSH2 0x30D JUMPI PUSH1 0x0 DUP1 REVERT JUMPDEST POP JUMP JUMPDEST PUSH1 0x0 DUP2 MLOAD SWAP1 POP PUSH2 0x31F DUP2 PUSH2 0x2F9 JUMP JUMPDEST SWAP3 SWAP2 POP POP JUMP JUMPDEST PUSH1 0x0 DUP1 PUSH1 0x0 PUSH1 0x60 DUP5 DUP7 SUB SLT ISZERO PUSH2 0x33E JUMPI PUSH2 0x33D PUSH2 0x2C2 JUMP JUMPDEST JUMPDEST PUSH1 0x0 PUSH2 0x34C DUP7 DUP3 DUP8 ADD PUSH2 0x310 JUMP JUMPDEST SWAP4 POP POP PUSH1 0x20 PUSH2 0x35D DUP7 DUP3 DUP8 ADD PUSH2 0x310 JUMP JUMPDEST SWAP3 POP POP PUSH1 0x40 PUSH2 0x36E DUP7 DUP3 DUP8 ADD PUSH2 0x310 JUMP JUMPDEST SWAP2 POP POP SWAP3 POP SWAP3 POP SWAP3 JUMP JUMPDEST PUSH1 0x0 PUSH1 0x20 DUP3 DUP5 SUB SLT ISZERO PUSH2 0x38E JUMPI PUSH2 0x38D PUSH2 0x2C2 JUMP JUMPDEST JUMPDEST PUSH1 0x0 PUSH2 0x39C DUP5 DUP3 DUP6 ADD PUSH2 0x310 JUMP JUMPDEST SWAP2 POP POP SWAP3 SWAP2 POP POP JUMP JUMPDEST PUSH2 0x3AE DUP2 PUSH2 0x2E7 JUMP JUMPDEST DUP3 MSTORE POP POP JUMP JUMPDEST PUSH1 0x0 PUSH1 0x20 DUP3 ADD SWAP1 POP PUSH2 0x3C9 PUSH1 0x0 DUP4 ADD DUP5 PUSH2 0x3A5 JUMP JUMPDEST SWAP3 SWAP2 POP POP JUMP JUMPDEST PUSH1 0x80 MLOAD PUSH1 0xA0 MLOAD PUSH1 0xC0 MLOAD PUSH1 0xE0 MLOAD PUSH2 0x2C04 PUSH2 0x439 PUSH1 0x0 CODECOPY PUSH1 0x0 DUP2 DUP2 PUSH2 0x136B ADD MSTORE DUP2 DUP2 PUSH2 0x13A1 ADD MSTORE PUSH2 0x1529 ADD MSTORE PUSH1 0x0 DUP2 DUP2 PUSH2 0x133D ADD MSTORE DUP2 DUP2 PUSH2 0x13CF ADD MSTORE PUSH2 0x14F9 ADD MSTORE PUSH1 0x0 DUP2 DUP2 PUSH2 0xAF9 ADD MSTORE DUP2 DUP2 PUSH2 0xCF5 ADD MSTORE DUP2 DUP2 PUSH2 0xD8F ADD MSTORE PUSH2 0x11F4 ADD MSTORE PUSH1 0x0 PUSH2 0x349 ADD MSTORE PUSH2 0x2C04 PUSH1 0x0 RETURN INVALID PUSH1 0x80 PUSH1 0x40 MSTORE PUSH1 0x4 CALLDATASIZE LT PUSH2 0xE1 JUMPI PUSH1 0x0 CALLDATALOAD PUSH1 0xE0 SHR DUP1 PUSH4 0x715018A6 GT PUSH2 0x7F JUMPI DUP1 PUSH4 0x920F5C84 GT PUSH2 0x59 JUMPI DUP1 PUSH4 0x920F5C84 EQ PUSH2 0x28D JUMPI DUP1 PUSH4 0xB4DCFC77 EQ PUSH2 0x2CA JUMPI DUP1 PUSH4 0xE1AB1B13 EQ PUSH2 0x2F5 JUMPI DUP1 PUSH4 0xF2FDE38B EQ PUSH2 0x31E JUMPI PUSH2 0xE8 JUMP JUMPDEST DUP1 PUSH4 0x715018A6 EQ PUSH2 0x222 JUMPI DUP1 PUSH4 0x8DA5CB5B EQ PUSH2 0x239 JUMPI DUP1 PUSH4 0x8E5F5F57 EQ PUSH2 0x264 JUMPI PUSH2 0xE8 JUMP JUMPDEST DUP1 PUSH4 0x51CFF8D9 GT PUSH2 0xBB JUMPI DUP1 PUSH4 0x51CFF8D9 EQ PUSH2 0x17E JUMPI DUP1 PUSH4 0x650F84BE EQ PUSH2 0x1A7 JUMPI DUP1 PUSH4 0x6B2EB2F9 EQ PUSH2 0x1D0 JUMPI DUP1 PUSH4 0x70963235 EQ PUSH2 0x1F9 JUMPI PUSH2 0xE8 JUMP JUMPDEST DUP1 PUSH4 0x542975C EQ PUSH2 0xED JUMPI DUP1 PUSH4 0x8739F50 EQ PUSH2 0x118 JUMPI DUP1 PUSH4 0x2FA20935 EQ PUSH2 0x141 JUMPI PUSH2 0xE8 JUMP JUMPDEST CALLDATASIZE PUSH2 0xE8 JUMPI STOP JUMPDEST PUSH1 0x0 DUP1 REVERT JUMPDEST CALLVALUE DUP1 ISZERO PUSH2 0xF9 JUMPI PUSH1 0x0 DUP1 REVERT JUMPDEST POP PUSH2 0x102 PUSH2 0x347 JUMP JUMPDEST PUSH1 0x40 MLOAD PUSH2 0x10F SWAP2 SWAP1 PUSH2 0x1A8C JUMP JUMPDEST PUSH1 0x40 MLOAD DUP1 SWAP2 SUB SWAP1 RETURN JUMPDEST CALLVALUE DUP1 ISZERO PUSH2 0x124 JUMPI PUSH1 0x0 DUP1 REVERT JUMPDEST POP PUSH2 0x13F PUSH1 0x4 DUP1 CALLDATASIZE SUB DUP2 ADD SWAP1 PUSH2 0x13A SWAP2 SWAP1 PUSH2 0x1BEA JUMP JUMPDEST PUSH2 0x36B JUMP JUMPDEST STOP JUMPDEST CALLVALUE DUP1 ISZERO PUSH2 0x14D JUMPI PUSH1 0x0 DUP1 REVERT JUMPDEST POP PUSH2 0x168 PUSH1 0x4 DUP1 CALLDATASIZE SUB DUP2 ADD SWAP1 PUSH2 0x163 SWAP2 SWAP1 PUSH2 0x1C91 JUMP JUMPDEST PUSH2 0x46E JUMP JUMPDEST PUSH1 0x40 MLOAD PUSH2 0x175 SWAP2 SWAP1 PUSH2 0x1CF3 JUMP JUMPDEST PUSH1 0x40 MLOAD DUP1 SWAP2 SUB SWAP1 RETURN JUMPDEST CALLVALUE DUP1 ISZERO PUSH2 0x18A JUMPI PUSH1 0x0 DUP1 REVERT JUMPDEST POP PUSH2 0x1A5 PUSH1 0x4 DUP1 CALLDATASIZE SUB DUP2 ADD SWAP1 PUSH2 0x1A0 SWAP2 SWAP1 PUSH2 0x1D0E JUMP JUMPDEST PUSH2 0x4D6 JUMP JUMPDEST STOP JUMPDEST CALLVALUE DUP1 ISZERO PUSH2 0x1B3 JUMPI PUSH1 0x0 DUP1 REVERT JUMPDEST POP PUSH2 0x1CE PUSH1 0x4 DUP1 CALLDATASIZE SUB DUP2 ADD SWAP1 PUSH2 0x1C9 SWAP2 SWAP1 PUSH2 0x1D3B JUMP JUMPDEST PUSH2 0x690 JUMP JUMPDEST STOP JUMPDEST CALLVALUE DUP1 ISZERO PUSH2 0x1DC JUMPI PUSH1 0x0 DUP1 REVERT JUMPDEST POP PUSH2 0x1F7 PUSH1 0x4 DUP1 CALLDATASIZE SUB DUP2 ADD SWAP1 PUSH2 0x1F2 SWAP2 SWAP1 PUSH2 0x1DC6 JUMP JUMPDEST PUSH2 0x7B9 JUMP JUMPDEST STOP JUMPDEST CALLVALUE DUP1 ISZERO PUSH2 0x205 JUMPI PUSH1 0x0 DUP1 REVERT JUMPDEST POP PUSH2 0x220 PUSH1 0x4 DUP1 CALLDATASIZE SUB DUP2 ADD SWAP1 PUSH2 0x21B SWAP2 SWAP1 PUSH2 0x1DF3 JUMP JUMPDEST PUSH2 0x7DE JUMP JUMPDEST STOP JUMPDEST CALLVALUE DUP1 ISZERO PUSH2 0x22E JUMPI PUSH1 0x0 DUP1 REVERT JUMPDEST POP PUSH2 0x237 PUSH2 0x93B JUMP JUMPDEST STOP JUMPDEST CALLVALUE DUP1 ISZERO PUSH2 0x245 JUMPI PUSH1 0x0 DUP1 REVERT JUMPDEST POP PUSH2 0x24E PUSH2 0x94F JUMP JUMPDEST PUSH1 0x40 MLOAD PUSH2 0x25B SWAP2 SWAP1 PUSH2 0x1E83 JUMP JUMPDEST PUSH1 0x40 MLOAD DUP1 SWAP2 SUB SWAP1 RETURN JUMPDEST CALLVALUE DUP1 ISZERO PUSH2 0x270 JUMPI PUSH1 0x0 DUP1 REVERT JUMPDEST POP PUSH2 0x28B PUSH1 0x4 DUP1 CALLDATASIZE SUB DUP2 ADD SWAP1 PUSH2 0x286 SWAP2 SWAP1 PUSH2 0x1E9E JUMP JUMPDEST PUSH2 0x978 JUMP JUMPDEST STOP JUMPDEST CALLVALUE DUP1 ISZERO PUSH2 0x299 JUMPI PUSH1 0x0 DUP1 REVERT JUMPDEST POP PUSH2 0x2B4 PUSH1 0x4 DUP1 CALLDATASIZE SUB DUP2 ADD SWAP1 PUSH2 0x2AF SWAP2 SWAP1 PUSH2 0x1F34 JUMP JUMPDEST PUSH2 0xAF5 JUMP JUMPDEST PUSH1 0x40 MLOAD PUSH2 0x2C1 SWAP2 SWAP1 PUSH2 0x203F JUMP JUMPDEST PUSH1 0x40 MLOAD DUP1 SWAP2 SUB SWAP1 RETURN JUMPDEST CALLVALUE DUP1 ISZERO PUSH2 0x2D6 JUMPI PUSH1 0x0 DUP1 REVERT JUMPDEST POP PUSH2 0x2DF PUSH2 0xD8D JUMP JUMPDEST PUSH1 0x40 MLOAD PUSH2 0x2EC SWAP2 SWAP1 PUSH2 0x207B JUMP JUMPDEST PUSH1 0x40 MLOAD DUP1 SWAP2 SUB SWAP1 RETURN JUMPDEST CALLVALUE DUP1 ISZERO PUSH2 0x301 JUMPI PUSH1 0x0 DUP1 REVERT JUMPDEST POP PUSH2 0x31C PUSH1 0x4 DUP1 CALLDATASIZE SUB DUP2 ADD SWAP1 PUSH2 0x317 SWAP2 SWAP1 PUSH2 0x2096 JUMP JUMPDEST PUSH2 0xDB1 JUMP JUMPDEST STOP JUMPDEST CALLVALUE DUP1 ISZERO PUSH2 0x32A JUMPI PUSH1 0x0 DUP1 REVERT JUMPDEST POP PUSH2 0x345 PUSH1 0x4 DUP1 CALLDATASIZE SUB DUP2 ADD SWAP1 PUSH2 0x340 SWAP2 SWAP1 PUSH2 0x1D0E JUMP JUMPDEST PUSH2 0xDC3 JUMP JUMPDEST STOP JUMPDEST PUSH32 0x0 DUP2 JUMP JUMPDEST PUSH2 0x373 PUSH2 0xE49 JUMP JUMPDEST PUSH1 0x0 DUP6 DUP6 SWAP1 POP GT DUP1 ISZERO PUSH2 0x38B JUMPI POP DUP5 DUP5 SWAP1 POP DUP3 DUP3 SWAP1 POP EQ JUMPDEST PUSH2 0x3CA JUMPI PUSH1 0x40 MLOAD PUSH32 0x8C379A000000000000000000000000000000000000000000000000000000000 DUP2 MSTORE PUSH1 0x4 ADD PUSH2 0x3C1 SWAP1 PUSH2 0x2120 JUMP JUMPDEST PUSH1 0x40 MLOAD DUP1 SWAP2 SUB SWAP1 REVERT JUMPDEST PUSH1 0x1 SLOAD DUP4 GT PUSH2 0x40E JUMPI PUSH1 0x40 MLOAD PUSH32 0x8C379A000000000000000000000000000000000000000000000000000000000 DUP2 MSTORE PUSH1 0x4 ADD PUSH2 0x405 SWAP1 PUSH2 0x218C JUMP JUMPDEST PUSH1 0x40 MLOAD DUP1 SWAP2 SUB SWAP1 REVERT JUMPDEST PUSH1 0x0 DUP6 DUP6 PUSH1 0x0 DUP2 DUP2 LT PUSH2 0x424 JUMPI PUSH2 0x423 PUSH2 0x21AC JUMP JUMPDEST JUMPDEST SWAP1 POP PUSH1 0x20 MUL ADD PUSH1 0x20 DUP2 ADD SWAP1 PUSH2 0x439 SWAP2 SWAP1 PUSH2 0x1D0E JUMP JUMPDEST PUSH1 0x40 MLOAD PUSH1 0x20 ADD PUSH2 0x449 SWAP2 SWAP1 PUSH2 0x1E83 JUMP JUMPDEST PUSH1 0x40 MLOAD PUSH1 0x20 DUP2 DUP4 SUB SUB DUP2 MSTORE SWAP1 PUSH1 0x40 MSTORE SWAP1 POP PUSH2 0x465 DUP8 DUP6 DUP4 PUSH2 0xED0 JUMP JUMPDEST POP POP POP POP POP POP POP JUMP JUMPDEST PUSH1 0x0 DUP1 DUP5 EQ DUP1 PUSH2 0x47E JUMPI POP PUSH1 0x0 DUP4 EQ JUMPDEST DUP1 PUSH2 0x489 JUMPI POP PUSH1 0x0 DUP3 EQ JUMPDEST ISZERO PUSH2 0x497 JUMPI PUSH1 0x0 SWAP1 POP PUSH2 0x4CF JUMP JUMPDEST PUSH1 0x0 DUP3 DUP5 GT ISZERO PUSH2 0x4B3 JUMPI PUSH2 0x4AC DUP6 DUP6 DUP6 PUSH2 0xFEE JUMP JUMPDEST SWAP1 POP PUSH2 0x4CA JUMP JUMPDEST DUP4 DUP4 GT ISZERO PUSH2 0x4C9 JUMPI PUSH2 0x4C6 DUP6 DUP5 DUP7 PUSH2 0xFEE JUMP JUMPDEST SWAP1 POP JUMPDEST JUMPDEST DUP1 SWAP2 POP POP JUMPDEST SWAP4 SWAP3 POP POP POP JUMP JUMPDEST PUSH2 0x4DE PUSH2 0xE49 JUMP JUMPDEST PUSH1 0x0 DUP1 PUSH20 0xFFFFFFFFFFFFFFFFFFFFFFFFFFFFFFFFFFFFFFFF AND DUP3 PUSH20 0xFFFFFFFFFFFFFFFFFFFFFFFFFFFFFFFFFFFFFFFF AND SUB PUSH2 0x57F JUMPI PUSH1 0x0 ADDRESS SWAP1 POP DUP1 PUSH20 0xFFFFFFFFFFFFFFFFFFFFFFFFFFFFFFFFFFFFFFFF AND BALANCE SWAP2 POP CALLER PUSH20 0xFFFFFFFFFFFFFFFFFFFFFFFFFFFFFFFFFFFFFFFF AND PUSH2 0x8FC DUP4 SWAP1 DUP2 ISZERO MUL SWAP1 PUSH1 0x40 MLOAD PUSH1 0x0 PUSH1 0x40 MLOAD DUP1 DUP4 SUB DUP2 DUP6 DUP9 DUP9 CALL SWAP4 POP POP POP POP ISZERO DUP1 ISZERO PUSH2 0x578 JUMPI RETURNDATASIZE PUSH1 0x0 DUP1 RETURNDATACOPY RETURNDATASIZE PUSH1 0x0 REVERT JUMPDEST POP POP PUSH2 0x627 JUMP JUMPDEST DUP2 PUSH20 0xFFFFFFFFFFFFFFFFFFFFFFFFFFFFFFFFFFFFFFFF AND PUSH4 0x70A08231 ADDRESS PUSH1 0x40 MLOAD DUP3 PUSH4 0xFFFFFFFF AND PUSH1 0xE0 SHL DUP2 MSTORE PUSH1 0x4 ADD PUSH2 0x5B8 SWAP2 SWAP1 PUSH2 0x1E83 JUMP JUMPDEST PUSH1 0x20 PUSH1 0x40 MLOAD DUP1 DUP4 SUB DUP2 DUP7 GAS STATICCALL ISZERO DUP1 ISZERO PUSH2 0x5D5 JUMPI RETURNDATASIZE PUSH1 0x0 DUP1 RETURNDATACOPY RETURNDATASIZE PUSH1 0x0 REVERT JUMPDEST POP POP POP POP PUSH1 0x40 MLOAD RETURNDATASIZE PUSH1 0x1F NOT PUSH1 0x1F DUP3 ADD AND DUP3 ADD DUP1 PUSH1 0x40 MSTORE POP DUP2 ADD SWAP1 PUSH2 0x5F9 SWAP2 SWAP1 PUSH2 0x21F0 JUMP JUMPDEST SWAP1 POP PUSH2 0x626 CALLER DUP3 DUP5 PUSH20 0xFFFFFFFFFFFFFFFFFFFFFFFFFFFFFFFFFFFFFFFF AND PUSH2 0x101B SWAP1 SWAP3 SWAP2 SWAP1 PUSH4 0xFFFFFFFF AND JUMP JUMPDEST JUMPDEST DUP2 PUSH20 0xFFFFFFFFFFFFFFFFFFFFFFFFFFFFFFFFFFFFFFFF AND CALLER PUSH20 0xFFFFFFFFFFFFFFFFFFFFFFFFFFFFFFFFFFFFFFFF AND PUSH32 0x9207361CC2A04B9C7A06691DF1EB87C6A63957AE88BF01D0D18C81E3D1272099 DUP4 PUSH1 0x40 MLOAD PUSH2 0x684 SWAP2 SWAP1 PUSH2 0x1CF3 JUMP JUMPDEST PUSH1 0x40 MLOAD DUP1 SWAP2 SUB SWAP1 LOG3 POP POP JUMP JUMPDEST PUSH2 0x698 PUSH2 0xE49 JUMP JUMPDEST PUSH1 0x0 DUP2 GT PUSH2 0x6DB JUMPI PUSH1 0x40 MLOAD PUSH32 0x8C379A000000000000000000000000000000000000000000000000000000000 DUP2 MSTORE PUSH1 0x4 ADD PUSH2 0x6D2 SWAP1 PUSH2 0x2120 JUMP JUMPDEST PUSH1 0x40 MLOAD DUP1 SWAP2 SUB SWAP1 REVERT JUMPDEST PUSH1 0x0 PUSH20 0xFFFFFFFFFFFFFFFFFFFFFFFFFFFFFFFFFFFFFFFF AND DUP4 PUSH20 0xFFFFFFFFFFFFFFFFFFFFFFFFFFFFFFFFFFFFFFFF AND EQ ISZERO DUP1 ISZERO PUSH2 0x745 JUMPI POP PUSH1 0x0 PUSH20 0xFFFFFFFFFFFFFFFFFFFFFFFFFFFFFFFFFFFFFFFF AND DUP3 PUSH20 0xFFFFFFFFFFFFFFFFFFFFFFFFFFFFFFFFFFFFFFFF AND EQ ISZERO JUMPDEST PUSH2 0x784 JUMPI PUSH1 0x40 MLOAD PUSH32 0x8C379A000000000000000000000000000000000000000000000000000000000 DUP2 MSTORE PUSH1 0x4 ADD PUSH2 0x77B SWAP1 PUSH2 0x2269 JUMP JUMPDEST PUSH1 0x40 MLOAD DUP1 SWAP2 SUB SWAP1 REVERT JUMPDEST PUSH1 0x0 DUP3 PUSH1 0x40 MLOAD PUSH1 0x20 ADD PUSH2 0x797 SWAP2 SWAP1 PUSH2 0x1E83 JUMP JUMPDEST PUSH1 0x40 MLOAD PUSH1 0x20 DUP2 DUP4 SUB SUB DUP2 MSTORE SWAP1 PUSH1 0x40 MSTORE SWAP1 POP PUSH2 0x7B3 DUP5 DUP4 DUP4 PUSH2 0xED0 JUMP JUMPDEST POP POP POP POP JUMP JUMPDEST PUSH2 0x7C1 PUSH2 0xE49 JUMP JUMPDEST DUP1 PUSH1 0x2 PUSH1 0x0 PUSH2 0x100 EXP DUP2 SLOAD DUP2 PUSH1 0xFF MUL NOT AND SWAP1 DUP4 ISZERO ISZERO MUL OR SWAP1 SSTORE POP POP JUMP JUMPDEST PUSH2 0x7E6 PUSH2 0xE49 JUMP JUMPDEST PUSH1 0x1 DUP5 DUP5 SWAP1 POP GT DUP1 ISZERO PUSH2 0x7FE JUMPI POP DUP4 DUP4 SWAP1 POP DUP3 DUP3 SWAP1 POP EQ JUMPDEST PUSH2 0x83D JUMPI PUSH1 0x40 MLOAD PUSH32 0x8C379A000000000000000000000000000000000000000000000000000000000 DUP2 MSTORE PUSH1 0x4 ADD PUSH2 0x834 SWAP1 PUSH2 0x2120 JUMP JUMPDEST PUSH1 0x40 MLOAD DUP1 SWAP2 SUB SWAP1 REVERT JUMPDEST PUSH1 0x1 SLOAD DUP3 DUP3 PUSH1 0x0 DUP2 DUP2 LT PUSH2 0x854 JUMPI PUSH2 0x853 PUSH2 0x21AC JUMP JUMPDEST JUMPDEST SWAP1 POP PUSH1 0x20 MUL ADD CALLDATALOAD GT PUSH2 0x89B JUMPI PUSH1 0x40 MLOAD PUSH32 0x8C379A000000000000000000000000000000000000000000000000000000000 DUP2 MSTORE PUSH1 0x4 ADD PUSH2 0x892 SWAP1 PUSH2 0x218C JUMP JUMPDEST PUSH1 0x40 MLOAD DUP1 SWAP2 SUB SWAP1 REVERT JUMPDEST PUSH1 0x0 DUP5 DUP5 PUSH1 0x1 DUP2 DUP2 LT PUSH2 0x8B1 JUMPI PUSH2 0x8B0 PUSH2 0x21AC JUMP JUMPDEST JUMPDEST SWAP1 POP PUSH1 0x20 MUL ADD PUSH1 0x20 DUP2 ADD SWAP1 PUSH2 0x8C6 SWAP2 SWAP1 PUSH2 0x1D0E JUMP JUMPDEST PUSH1 0x40 MLOAD PUSH1 0x20 ADD PUSH2 0x8D6 SWAP2 SWAP1 PUSH2 0x1E83 JUMP JUMPDEST PUSH1 0x40 MLOAD PUSH1 0x20 DUP2 DUP4 SUB SUB DUP2 MSTORE SWAP1 PUSH1 0x40 MSTORE SWAP1 POP PUSH2 0x934 DUP6 DUP6 PUSH1 0x0 DUP2 DUP2 LT PUSH2 0x8FE JUMPI PUSH2 0x8FD PUSH2 0x21AC JUMP JUMPDEST JUMPDEST SWAP1 POP PUSH1 0x20 MUL ADD PUSH1 0x20 DUP2 ADD SWAP1 PUSH2 0x913 SWAP2 SWAP1 PUSH2 0x1D0E JUMP JUMPDEST DUP5 DUP5 PUSH1 0x0 DUP2 DUP2 LT PUSH2 0x927 JUMPI PUSH2 0x926 PUSH2 0x21AC JUMP JUMPDEST JUMPDEST SWAP1 POP PUSH1 0x20 MUL ADD CALLDATALOAD DUP4 PUSH2 0xED0 JUMP JUMPDEST POP POP POP POP POP JUMP JUMPDEST PUSH2 0x943 PUSH2 0xE49 JUMP JUMPDEST PUSH2 0x94D PUSH1 0x0 PUSH2 0x109A JUMP JUMPDEST JUMP JUMPDEST PUSH1 0x0 DUP1 PUSH1 0x0 SWAP1 SLOAD SWAP1 PUSH2 0x100 EXP SWAP1 DIV PUSH20 0xFFFFFFFFFFFFFFFFFFFFFFFFFFFFFFFFFFFFFFFF AND SWAP1 POP SWAP1 JUMP JUMPDEST PUSH2 0x980 PUSH2 0xE49 JUMP JUMPDEST PUSH1 0x0 DUP2 GT PUSH2 0x9C3 JUMPI PUSH1 0x40 MLOAD PUSH32 0x8C379A000000000000000000000000000000000000000000000000000000000 DUP2 MSTORE PUSH1 0x4 ADD PUSH2 0x9BA SWAP1 PUSH2 0x22D5 JUMP JUMPDEST PUSH1 0x40 MLOAD DUP1 SWAP2 SUB SWAP1 REVERT JUMPDEST PUSH1 0x0 PUSH1 0x1 PUSH8 0xFFFFFFFFFFFFFFFF DUP2 GT ISZERO PUSH2 0x9E0 JUMPI PUSH2 0x9DF PUSH2 0x22F5 JUMP JUMPDEST JUMPDEST PUSH1 0x40 MLOAD SWAP1 DUP1 DUP3 MSTORE DUP1 PUSH1 0x20 MUL PUSH1 0x20 ADD DUP3 ADD PUSH1 0x40 MSTORE DUP1 ISZERO PUSH2 0xA0E JUMPI DUP2 PUSH1 0x20 ADD PUSH1 0x20 DUP3 MUL DUP1 CALLDATASIZE DUP4 CALLDATACOPY DUP1 DUP3 ADD SWAP2 POP POP SWAP1 POP JUMPDEST POP SWAP1 POP DUP3 DUP2 PUSH1 0x0 DUP2 MLOAD DUP2 LT PUSH2 0xA26 JUMPI PUSH2 0xA25 PUSH2 0x21AC JUMP JUMPDEST JUMPDEST PUSH1 0x20 MUL PUSH1 0x20 ADD ADD SWAP1 PUSH20 0xFFFFFFFFFFFFFFFFFFFFFFFFFFFFFFFFFFFFFFFF AND SWAP1 DUP2 PUSH20 0xFFFFFFFFFFFFFFFFFFFFFFFFFFFFFFFFFFFFFFFF AND DUP2 MSTORE POP POP PUSH1 0x0 PUSH1 0x1 PUSH8 0xFFFFFFFFFFFFFFFF DUP2 GT ISZERO PUSH2 0xA7D JUMPI PUSH2 0xA7C PUSH2 0x22F5 JUMP JUMPDEST JUMPDEST PUSH1 0x40 MLOAD SWAP1 DUP1 DUP3 MSTORE DUP1 PUSH1 0x20 MUL PUSH1 0x20 ADD DUP3 ADD PUSH1 0x40 MSTORE DUP1 ISZERO PUSH2 0xAAB JUMPI DUP2 PUSH1 0x20 ADD PUSH1 0x20 DUP3 MUL DUP1 CALLDATASIZE DUP4 CALLDATACOPY DUP1 DUP3 ADD SWAP2 POP POP SWAP1 POP JUMPDEST POP SWAP1 POP DUP3 DUP2 PUSH1 0x0 DUP2 MLOAD DUP2 LT PUSH2 0xAC3 JUMPI PUSH2 0xAC2 PUSH2 0x21AC JUMP JUMPDEST JUMPDEST PUSH1 0x20 MUL PUSH1 0x20 ADD ADD DUP2 DUP2 MSTORE POP POP PUSH1 0x0 PUSH1 0x40 MLOAD DUP1 PUSH1 0x20 ADD PUSH1 0x40 MSTORE DUP1 PUSH1 0x0 DUP2 MSTORE POP SWAP1 POP PUSH2 0xAEE DUP4 DUP4 DUP4 PUSH2 0x115E JUMP JUMPDEST POP POP POP POP POP JUMP JUMPDEST PUSH1 0x0 PUSH32 0x0 PUSH20 0xFFFFFFFFFFFFFFFFFFFFFFFFFFFFFFFFFFFFFFFF AND CALLER PUSH20 0xFFFFFFFFFFFFFFFFFFFFFFFFFFFFFFFFFFFFFFFF AND EQ PUSH2 0xB85 JUMPI PUSH1 0x40 MLOAD PUSH32 0x8C379A000000000000000000000000000000000000000000000000000000000 DUP2 MSTORE PUSH1 0x4 ADD PUSH2 0xB7C SWAP1 PUSH2 0x2370 JUMP JUMPDEST PUSH1 0x40 MLOAD DUP1 SWAP2 SUB SWAP1 REVERT JUMPDEST PUSH1 0x2 PUSH1 0x0 SWAP1 SLOAD SWAP1 PUSH2 0x100 EXP SWAP1 DIV PUSH1 0xFF AND ISZERO PUSH2 0xBD5 JUMPI PUSH1 0x40 MLOAD PUSH32 0x8C379A000000000000000000000000000000000000000000000000000000000 DUP2 MSTORE PUSH1 0x4 ADD PUSH2 0xBCC SWAP1 PUSH2 0x23DC JUMP JUMPDEST PUSH1 0x40 MLOAD DUP1 SWAP2 SUB SWAP1 REVERT JUMPDEST PUSH1 0x0 DUP11 DUP11 PUSH1 0x0 DUP2 DUP2 LT PUSH2 0xBEB JUMPI PUSH2 0xBEA PUSH2 0x21AC JUMP JUMPDEST JUMPDEST SWAP1 POP PUSH1 0x20 MUL ADD PUSH1 0x20 DUP2 ADD SWAP1 PUSH2 0xC00 SWAP2 SWAP1 PUSH2 0x1D0E JUMP JUMPDEST SWAP1 POP PUSH1 0x0 DUP10 DUP10 PUSH1 0x0 DUP2 DUP2 LT PUSH2 0xC18 JUMPI PUSH2 0xC17 PUSH2 0x21AC JUMP JUMPDEST JUMPDEST SWAP1 POP PUSH1 0x20 MUL ADD CALLDATALOAD SWAP1 POP PUSH1 0x0 DUP9 DUP9 PUSH1 0x0 DUP2 DUP2 LT PUSH2 0xC37 JUMPI PUSH2 0xC36 PUSH2 0x21AC JUMP JUMPDEST JUMPDEST SWAP1 POP PUSH1 0x20 MUL ADD CALLDATALOAD SWAP1 POP PUSH1 0x0 DUP7 DUP7 DUP2 ADD SWAP1 PUSH2 0xC51 SWAP2 SWAP1 PUSH2 0x243A JUMP JUMPDEST SWAP1 POP PUSH1 0x0 PUSH2 0xC60 DUP6 DUP6 DUP5 PUSH2 0x1292 JUMP JUMPDEST SWAP1 POP DUP2 PUSH20 0xFFFFFFFFFFFFFFFFFFFFFFFFFFFFFFFFFFFFFFFF AND DUP6 PUSH20 0xFFFFFFFFFFFFFFFFFFFFFFFFFFFFFFFFFFFFFFFF AND PUSH32 0x546205492CE144EDEBD2CC39035C50DBD9AEBFEC90CBCAE9C9AE2914D1E130F7 DUP4 PUSH1 0x40 MLOAD PUSH2 0xCBF SWAP2 SWAP1 PUSH2 0x1CF3 JUMP JUMPDEST PUSH1 0x40 MLOAD DUP1 SWAP2 SUB SWAP1 LOG3 PUSH1 0x0 DUP4 DUP6 PUSH2 0xCD5 SWAP2 SWAP1 PUSH2 0x2496 JUMP JUMPDEST SWAP1 POP DUP6 PUSH20 0xFFFFFFFFFFFFFFFFFFFFFFFFFFFFFFFFFFFFFFFF AND PUSH4 0x95EA7B3 PUSH32 0x0 DUP4 PUSH1 0x40 MLOAD DUP4 PUSH4 0xFFFFFFFF AND PUSH1 0xE0 SHL DUP2 MSTORE PUSH1 0x4 ADD PUSH2 0xD32 SWAP3 SWAP2 SWAP1 PUSH2 0x24CA JUMP JUMPDEST PUSH1 0x20 PUSH1 0x40 MLOAD DUP1 DUP4 SUB DUP2 PUSH1 0x0 DUP8 GAS CALL ISZERO DUP1 ISZERO PUSH2 0xD51 JUMPI RETURNDATASIZE PUSH1 0x0 DUP1 RETURNDATACOPY RETURNDATASIZE PUSH1 0x0 REVERT JUMPDEST POP POP POP POP PUSH1 0x40 MLOAD RETURNDATASIZE PUSH1 0x1F NOT PUSH1 0x1F DUP3 ADD AND DUP3 ADD DUP1 PUSH1 0x40 MSTORE POP DUP2 ADD SWAP1 PUSH2 0xD75 SWAP2 SWAP1 PUSH2 0x2508 JUMP JUMPDEST POP PUSH1 0x1 SWAP7 POP POP POP POP POP POP POP SWAP10 SWAP9 POP POP POP POP POP POP POP POP POP JUMP JUMPDEST PUSH32 0x0 DUP2 JUMP JUMPDEST PUSH2 0xDB9 PUSH2 0xE49 JUMP JUMPDEST DUP1 PUSH1 0x1 DUP2 SWAP1 SSTORE POP POP JUMP JUMPDEST PUSH2 0xDCB PUSH2 0xE49 JUMP JUMPDEST PUSH1 0x0 PUSH20 0xFFFFFFFFFFFFFFFFFFFFFFFFFFFFFFFFFFFFFFFF AND DUP2 PUSH20 0xFFFFFFFFFFFFFFFFFFFFFFFFFFFFFFFFFFFFFFFF AND SUB PUSH2 0xE3D JUMPI PUSH1 0x0 PUSH1 0x40 MLOAD PUSH32 0x1E4FBDF700000000000000000000000000000000000000000000000000000000 DUP2 MSTORE PUSH1 0x4 ADD PUSH2 0xE34 SWAP2 SWAP1 PUSH2 0x1E83 JUMP JUMPDEST PUSH1 0x40 MLOAD DUP1 SWAP2 SUB SWAP1 REVERT JUMPDEST PUSH2 0xE46 DUP2 PUSH2 0x109A JUMP JUMPDEST POP JUMP JUMPDEST PUSH2 0xE51 PUSH2 0x1447 JUMP JUMPDEST PUSH20 0xFFFFFFFFFFFFFFFFFFFFFFFFFFFFFFFFFFFFFFFF AND PUSH2 0xE6F PUSH2 0x94F JUMP JUMPDEST PUSH20 0xFFFFFFFFFFFFFFFFFFFFFFFFFFFFFFFFFFFFFFFF AND EQ PUSH2 0xECE JUMPI PUSH2 0xE92 PUSH2 0x1447 JUMP JUMPDEST PUSH1 0x40 MLOAD PUSH32 0x118CDAA700000000000000000000000000000000000000000000000000000000 DUP2 MSTORE PUSH1 0x4 ADD PUSH2 0xEC5 SWAP2 SWAP1 PUSH2 0x1E83 JUMP JUMPDEST PUSH1 0x40 MLOAD DUP1 SWAP2 SUB SWAP1 REVERT JUMPDEST JUMP JUMPDEST PUSH1 0x0 PUSH1 0x1 PUSH8 0xFFFFFFFFFFFFFFFF DUP2 GT ISZERO PUSH2 0xEED JUMPI PUSH2 0xEEC PUSH2 0x22F5 JUMP JUMPDEST JUMPDEST PUSH1 0x40 MLOAD SWAP1 DUP1 DUP3 MSTORE DUP1 PUSH1 0x20 MUL PUSH1 0x20 ADD DUP3 ADD PUSH1 0x40 MSTORE DUP1 ISZERO PUSH2 0xF1B JUMPI DUP2 PUSH1 0x20 ADD PUSH1 0x20 DUP3 MUL DUP1 CALLDATASIZE DUP4 CALLDATACOPY DUP1 DUP3 ADD SWAP2 POP POP SWAP1 POP JUMPDEST POP SWAP1 POP DUP4 DUP2 PUSH1 0x0 DUP2 MLOAD DUP2 LT PUSH2 0xF33 JUMPI PUSH2 0xF32 PUSH2 0x21AC JUMP JUMPDEST JUMPDEST PUSH1 0x20 MUL PUSH1 0x20 ADD ADD SWAP1 PUSH20 0xFFFFFFFFFFFFFFFFFFFFFFFFFFFFFFFFFFFFFFFF AND SWAP1 DUP2 PUSH20 0xFFFFFFFFFFFFFFFFFFFFFFFFFFFFFFFFFFFFFFFF AND DUP2 MSTORE POP POP PUSH1 0x0 PUSH1 0x1 PUSH8 0xFFFFFFFFFFFFFFFF DUP2 GT ISZERO PUSH2 0xF8A JUMPI PUSH2 0xF89 PUSH2 0x22F5 JUMP JUMPDEST JUMPDEST PUSH1 0x40 MLOAD SWAP1 DUP1 DUP3 MSTORE DUP1 PUSH1 0x20 MUL PUSH1 0x20 ADD DUP3 ADD PUSH1 0x40 MSTORE DUP1 ISZERO PUSH2 0xFB8 JUMPI DUP2 PUSH1 0x20 ADD PUSH1 0x20 DUP3 MUL DUP1 CALLDATASIZE DUP4 CALLDATACOPY DUP1 DUP3 ADD SWAP2 POP POP SWAP1 POP JUMPDEST POP SWAP1 POP DUP4 DUP2 PUSH1 0x0 DUP2 MLOAD DUP2 LT PUSH2 0xFD0 JUMPI PUSH2 0xFCF PUSH2 0x21AC JUMP JUMPDEST JUMPDEST PUSH1 0x20 MUL PUSH1 0x20 ADD ADD DUP2 DUP2 MSTORE POP POP PUSH2 0xFE7 DUP3 DUP3 DUP6 PUSH2 0x115E JUMP JUMPDEST POP POP POP POP POP JUMP JUMPDEST PUSH1 0x0 DUP3 DUP5 DUP4 DUP6 PUSH2 0xFFE SWAP2 SWAP1 PUSH2 0x2535 JUMP JUMPDEST PUSH2 0x1008 SWAP2 SWAP1 PUSH2 0x2569 JUMP JUMPDEST PUSH2 0x1012 SWAP2 SWAP1 PUSH2 0x25DA JUMP JUMPDEST SWAP1 POP SWAP4 SWAP3 POP POP POP JUMP JUMPDEST PUSH2 0x1095 DUP4 DUP5 PUSH20 0xFFFFFFFFFFFFFFFFFFFFFFFFFFFFFFFFFFFFFFFF AND PUSH4 0xA9059CBB DUP6 DUP6 PUSH1 0x40 MLOAD PUSH1 0x24 ADD PUSH2 0x104E SWAP3 SWAP2 SWAP1 PUSH2 0x24CA JUMP JUMPDEST PUSH1 0x40 MLOAD PUSH1 0x20 DUP2 DUP4 SUB SUB DUP2 MSTORE SWAP1 PUSH1 0x40 MSTORE SWAP2 POP PUSH1 0xE0 SHL PUSH1 0x20 DUP3 ADD DUP1 MLOAD PUSH28 0xFFFFFFFFFFFFFFFFFFFFFFFFFFFFFFFFFFFFFFFFFFFFFFFFFFFFFFFF DUP4 DUP2 DUP4 AND OR DUP4 MSTORE POP POP POP POP PUSH2 0x144F JUMP JUMPDEST POP POP POP JUMP JUMPDEST PUSH1 0x0 DUP1 PUSH1 0x0 SWAP1 SLOAD SWAP1 PUSH2 0x100 EXP SWAP1 DIV PUSH20 0xFFFFFFFFFFFFFFFFFFFFFFFFFFFFFFFFFFFFFFFF AND SWAP1 POP DUP2 PUSH1 0x0 DUP1 PUSH2 0x100 EXP DUP2 SLOAD DUP2 PUSH20 0xFFFFFFFFFFFFFFFFFFFFFFFFFFFFFFFFFFFFFFFF MUL NOT AND SWAP1 DUP4 PUSH20 0xFFFFFFFFFFFFFFFFFFFFFFFFFFFFFFFFFFFFFFFF AND MUL OR SWAP1 SSTORE POP DUP2 PUSH20 0xFFFFFFFFFFFFFFFFFFFFFFFFFFFFFFFFFFFFFFFF AND DUP2 PUSH20 0xFFFFFFFFFFFFFFFFFFFFFFFFFFFFFFFFFFFFFFFF AND PUSH32 0x8BE0079C531659141344CD1FD0A4F28419497F9722A3DAAFE3B4186F6B6457E0 PUSH1 0x40 MLOAD PUSH1 0x40 MLOAD DUP1 SWAP2 SUB SWAP1 LOG3 POP POP JUMP JUMPDEST PUSH1 0x0 ADDRESS SWAP1 POP PUSH1 0x0 ADDRESS SWAP1 POP PUSH1 0x0 DUP1 DUP7 MLOAD PUSH8 0xFFFFFFFFFFFFFFFF DUP2 GT ISZERO PUSH2 0x1186 JUMPI PUSH2 0x1185 PUSH2 0x22F5 JUMP JUMPDEST JUMPDEST PUSH1 0x40 MLOAD SWAP1 DUP1 DUP3 MSTORE DUP1 PUSH1 0x20 MUL PUSH1 0x20 ADD DUP3 ADD PUSH1 0x40 MSTORE DUP1 ISZERO PUSH2 0x11B4 JUMPI DUP2 PUSH1 0x20 ADD PUSH1 0x20 DUP3 MUL DUP1 CALLDATASIZE DUP4 CALLDATACOPY DUP1 DUP3 ADD SWAP2 POP POP SWAP1 POP JUMPDEST POP SWAP1 POP PUSH1 0x0 JUMPDEST DUP8 MLOAD DUP2 LT ISZERO PUSH2 0x11F1 JUMPI PUSH1 0x0 DUP3 DUP3 DUP2 MLOAD DUP2 LT PUSH2 0x11D8 JUMPI PUSH2 0x11D7 PUSH2 0x21AC JUMP JUMPDEST JUMPDEST PUSH1 0x20 MUL PUSH1 0x20 ADD ADD DUP2 DUP2 MSTORE POP POP DUP1 DUP1 PUSH1 0x1 ADD SWAP2 POP POP PUSH2 0x11BA JUMP JUMPDEST POP PUSH32 0x0 PUSH20 0xFFFFFFFFFFFFFFFFFFFFFFFFFFFFFFFFFFFFFFFF AND PUSH4 0xAB9C4B5D DUP6 DUP10 DUP10 DUP6 DUP9 DUP12 DUP10 PUSH1 0x40 MLOAD DUP9 PUSH4 0xFFFFFFFF AND PUSH1 0xE0 SHL DUP2 MSTORE PUSH1 0x4 ADD PUSH2 0x1257 SWAP8 SWAP7 SWAP6 SWAP5 SWAP4 SWAP3 SWAP2 SWAP1 PUSH2 0x2834 JUMP JUMPDEST PUSH1 0x0 PUSH1 0x40 MLOAD DUP1 DUP4 SUB DUP2 PUSH1 0x0 DUP8 DUP1 EXTCODESIZE ISZERO DUP1 ISZERO PUSH2 0x1271 JUMPI PUSH1 0x0 DUP1 REVERT JUMPDEST POP GAS CALL ISZERO DUP1 ISZERO PUSH2 0x1285 JUMPI RETURNDATASIZE PUSH1 0x0 DUP1 RETURNDATACOPY RETURNDATASIZE PUSH1 0x0 REVERT JUMPDEST POP POP POP POP POP POP POP POP POP POP POP JUMP JUMPDEST PUSH1 0x0 DUP1 PUSH2 0x12A0 DUP5 DUP7 DUP6 PUSH2 0x14F1 JUMP JUMPDEST SWAP1 POP PUSH1 0x2 DUP1 DUP2 GT ISZERO PUSH2 0x12B5 JUMPI PUSH2 0x12B4 PUSH2 0x28BF JUMP JUMPDEST JUMPDEST DUP2 PUSH1 0x2 DUP2 GT ISZERO PUSH2 0x12C8 JUMPI PUSH2 0x12C7 PUSH2 0x28BF JUMP JUMPDEST JUMPDEST SUB PUSH2 0x1308 JUMPI PUSH1 0x40 MLOAD PUSH32 0x8C379A000000000000000000000000000000000000000000000000000000000 DUP2 MSTORE PUSH1 0x4 ADD PUSH2 0x12FF SWAP1 PUSH2 0x2960 JUMP JUMPDEST PUSH1 0x40 MLOAD DUP1 SWAP2 SUB SWAP1 REVERT JUMPDEST PUSH1 0x0 DUP1 PUSH1 0x2 DUP2 GT ISZERO PUSH2 0x131D JUMPI PUSH2 0x131C PUSH2 0x28BF JUMP JUMPDEST JUMPDEST DUP3 PUSH1 0x2 DUP2 GT ISZERO PUSH2 0x1330 JUMPI PUSH2 0x132F PUSH2 0x28BF JUMP JUMPDEST JUMPDEST SUB PUSH2 0x1399 JUMPI PUSH1 0x0 PUSH2 0x1363 DUP7 PUSH32 0x0 DUP10 DUP9 PUSH2 0x15AD JUMP JUMPDEST SWAP1 POP PUSH2 0x1391 DUP2 PUSH32 0x0 DUP8 DUP11 PUSH2 0x15AD JUMP JUMPDEST SWAP2 POP POP PUSH2 0x13F9 JUMP JUMPDEST PUSH1 0x0 PUSH2 0x13C7 DUP7 PUSH32 0x0 DUP10 DUP9 PUSH2 0x15AD JUMP JUMPDEST SWAP1 POP PUSH2 0x13F5 DUP2 PUSH32 0x0 DUP8 DUP11 PUSH2 0x15AD JUMP JUMPDEST SWAP2 POP POP JUMPDEST DUP5 DUP2 GT PUSH2 0x143B JUMPI PUSH1 0x40 MLOAD PUSH32 0x8C379A000000000000000000000000000000000000000000000000000000000 DUP2 MSTORE PUSH1 0x4 ADD PUSH2 0x1432 SWAP1 PUSH2 0x29CC JUMP JUMPDEST PUSH1 0x40 MLOAD DUP1 SWAP2 SUB SWAP1 REVERT JUMPDEST DUP1 SWAP3 POP POP POP SWAP4 SWAP3 POP POP POP JUMP JUMPDEST PUSH1 0x0 CALLER SWAP1 POP SWAP1 JUMP JUMPDEST PUSH1 0x0 DUP1 PUSH1 0x20 PUSH1 0x0 DUP5 MLOAD PUSH1 0x20 DUP7 ADD PUSH1 0x0 DUP9 GAS CALL DUP1 PUSH2 0x1472 JUMPI PUSH1 0x40 MLOAD RETURNDATASIZE PUSH1 0x0 DUP3 RETURNDATACOPY RETURNDATASIZE DUP2 REVERT JUMPDEST RETURNDATASIZE SWAP3 POP PUSH1 0x0 MLOAD SWAP2 POP POP PUSH1 0x0 DUP3 EQ PUSH2 0x148D JUMPI PUSH1 0x1 DUP2 EQ ISZERO PUSH2 0x14A9 JUMP JUMPDEST PUSH1 0x0 DUP5 PUSH20 0xFFFFFFFFFFFFFFFFFFFFFFFFFFFFFFFFFFFFFFFF AND EXTCODESIZE EQ JUMPDEST ISZERO PUSH2 0x14EB JUMPI DUP4 PUSH1 0x40 MLOAD PUSH32 0x5274AFE700000000000000000000000000000000000000000000000000000000 DUP2 MSTORE PUSH1 0x4 ADD PUSH2 0x14E2 SWAP2 SWAP1 PUSH2 0x1E83 JUMP JUMPDEST PUSH1 0x40 MLOAD DUP1 SWAP2 SUB SWAP1 REVERT JUMPDEST POP POP POP POP JUMP JUMPDEST PUSH1 0x0 DUP1 PUSH2 0x1520 PUSH32 0x0 DUP6 DUP6 DUP9 PUSH2 0x17FF JUMP JUMPDEST SWAP1 POP PUSH1 0x0 PUSH2 0x1550 PUSH32 0x0 DUP7 DUP7 DUP10 PUSH2 0x17FF JUMP JUMPDEST SWAP1 POP DUP1 DUP3 GT ISZERO PUSH2 0x157A JUMPI PUSH2 0x1565 DUP7 DUP4 DUP4 PUSH2 0x1999 JUMP JUMPDEST ISZERO PUSH2 0x1575 JUMPI PUSH1 0x0 SWAP3 POP POP POP PUSH2 0x15A6 JUMP JUMPDEST PUSH2 0x159F JUMP JUMPDEST DUP2 DUP2 GT ISZERO PUSH2 0x159E JUMPI PUSH2 0x158D DUP7 DUP3 DUP5 PUSH2 0x1999 JUMP JUMPDEST ISZERO PUSH2 0x159D JUMPI PUSH1 0x1 SWAP3 POP POP POP PUSH2 0x15A6 JUMP JUMPDEST JUMPDEST JUMPDEST PUSH1 0x2 SWAP3 POP POP POP JUMPDEST SWAP4 SWAP3 POP POP POP JUMP JUMPDEST PUSH1 0x0 DUP3 PUSH20 0xFFFFFFFFFFFFFFFFFFFFFFFFFFFFFFFFFFFFFFFF AND PUSH4 0x95EA7B3 DUP6 DUP8 PUSH1 0x40 MLOAD DUP4 PUSH4 0xFFFFFFFF AND PUSH1 0xE0 SHL DUP2 MSTORE PUSH1 0x4 ADD PUSH2 0x15EA SWAP3 SWAP2 SWAP1 PUSH2 0x24CA JUMP JUMPDEST PUSH1 0x20 PUSH1 0x40 MLOAD DUP1 DUP4 SUB DUP2 PUSH1 0x0 DUP8 GAS CALL ISZERO DUP1 ISZERO PUSH2 0x1609 JUMPI RETURNDATASIZE PUSH1 0x0 DUP1 RETURNDATACOPY RETURNDATASIZE PUSH1 0x0 REVERT JUMPDEST POP POP POP POP PUSH1 0x40 MLOAD RETURNDATASIZE PUSH1 0x1F NOT PUSH1 0x1F DUP3 ADD AND DUP3 ADD DUP1 PUSH1 0x40 MSTORE POP DUP2 ADD SWAP1 PUSH2 0x162D SWAP2 SWAP1 PUSH2 0x2508 JUMP JUMPDEST POP PUSH1 0x0 PUSH1 0x64 PUSH1 0x5F PUSH2 0x1640 DUP8 DUP8 DUP8 DUP12 PUSH2 0x17FF JUMP JUMPDEST PUSH2 0x164A SWAP2 SWAP1 PUSH2 0x2569 JUMP JUMPDEST PUSH2 0x1654 SWAP2 SWAP1 PUSH2 0x25DA JUMP JUMPDEST SWAP1 POP PUSH1 0x0 PUSH1 0x2 PUSH8 0xFFFFFFFFFFFFFFFF DUP2 GT ISZERO PUSH2 0x1673 JUMPI PUSH2 0x1672 PUSH2 0x22F5 JUMP JUMPDEST JUMPDEST PUSH1 0x40 MLOAD SWAP1 DUP1 DUP3 MSTORE DUP1 PUSH1 0x20 MUL PUSH1 0x20 ADD DUP3 ADD PUSH1 0x40 MSTORE DUP1 ISZERO PUSH2 0x16A1 JUMPI DUP2 PUSH1 0x20 ADD PUSH1 0x20 DUP3 MUL DUP1 CALLDATASIZE DUP4 CALLDATACOPY DUP1 DUP3 ADD SWAP2 POP POP SWAP1 POP JUMPDEST POP SWAP1 POP DUP5 DUP2 PUSH1 0x0 DUP2 MLOAD DUP2 LT PUSH2 0x16B9 JUMPI PUSH2 0x16B8 PUSH2 0x21AC JUMP JUMPDEST JUMPDEST PUSH1 0x20 MUL PUSH1 0x20 ADD ADD SWAP1 PUSH20 0xFFFFFFFFFFFFFFFFFFFFFFFFFFFFFFFFFFFFFFFF AND SWAP1 DUP2 PUSH20 0xFFFFFFFFFFFFFFFFFFFFFFFFFFFFFFFFFFFFFFFF AND DUP2 MSTORE POP POP DUP4 DUP2 PUSH1 0x1 DUP2 MLOAD DUP2 LT PUSH2 0x1708 JUMPI PUSH2 0x1707 PUSH2 0x21AC JUMP JUMPDEST JUMPDEST PUSH1 0x20 MUL PUSH1 0x20 ADD ADD SWAP1 PUSH20 0xFFFFFFFFFFFFFFFFFFFFFFFFFFFFFFFFFFFFFFFF AND SWAP1 DUP2 PUSH20 0xFFFFFFFFFFFFFFFFFFFFFFFFFFFFFFFFFFFFFFFF AND DUP2 MSTORE POP POP DUP6 PUSH20 0xFFFFFFFFFFFFFFFFFFFFFFFFFFFFFFFFFFFFFFFF AND PUSH4 0x38ED1739 DUP9 DUP5 DUP5 ADDRESS PUSH2 0x12C TIMESTAMP PUSH2 0x1770 SWAP2 SWAP1 PUSH2 0x2496 JUMP JUMPDEST PUSH1 0x40 MLOAD DUP7 PUSH4 0xFFFFFFFF AND PUSH1 0xE0 SHL DUP2 MSTORE PUSH1 0x4 ADD PUSH2 0x1790 SWAP6 SWAP5 SWAP4 SWAP3 SWAP2 SWAP1 PUSH2 0x29EC JUMP JUMPDEST PUSH1 0x0 PUSH1 0x40 MLOAD DUP1 DUP4 SUB DUP2 PUSH1 0x0 DUP8 GAS CALL ISZERO DUP1 ISZERO PUSH2 0x17AF JUMPI RETURNDATASIZE PUSH1 0x0 DUP1 RETURNDATACOPY RETURNDATASIZE PUSH1 0x0 REVERT JUMPDEST POP POP POP POP PUSH1 0x40 MLOAD RETURNDATASIZE PUSH1 0x0 DUP3 RETURNDATACOPY RETURNDATASIZE PUSH1 0x1F NOT PUSH1 0x1F DUP3 ADD AND DUP3 ADD DUP1 PUSH1 0x40 MSTORE POP DUP2 ADD SWAP1 PUSH2 0x17D8 SWAP2 SWAP1 PUSH2 0x2B55 JUMP JUMPDEST PUSH1 0x1 DUP2 MLOAD DUP2 LT PUSH2 0x17EB JUMPI PUSH2 0x17EA PUSH2 0x21AC JUMP JUMPDEST JUMPDEST PUSH1 0x20 MUL PUSH1 0x20 ADD ADD MLOAD SWAP3 POP POP POP SWAP5 SWAP4 POP POP POP POP JUMP JUMPDEST PUSH1 0x0 DUP1 PUSH1 0x2 PUSH8 0xFFFFFFFFFFFFFFFF DUP2 GT ISZERO PUSH2 0x181D JUMPI PUSH2 0x181C PUSH2 0x22F5 JUMP JUMPDEST JUMPDEST PUSH1 0x40 MLOAD SWAP1 DUP1 DUP3 MSTORE DUP1 PUSH1 0x20 MUL PUSH1 0x20 ADD DUP3 ADD PUSH1 0x40 MSTORE DUP1 ISZERO PUSH2 0x184B JUMPI DUP2 PUSH1 0x20 ADD PUSH1 0x20 DUP3 MUL DUP1 CALLDATASIZE DUP4 CALLDATACOPY DUP1 DUP3 ADD SWAP2 POP POP SWAP1 POP JUMPDEST POP SWAP1 POP DUP5 DUP2 PUSH1 0x0 DUP2 MLOAD DUP2 LT PUSH2 0x1863 JUMPI PUSH2 0x1862 PUSH2 0x21AC JUMP JUMPDEST JUMPDEST PUSH1 0x20 MUL PUSH1 0x20 ADD ADD SWAP1 PUSH20 0xFFFFFFFFFFFFFFFFFFFFFFFFFFFFFFFFFFFFFFFF AND SWAP1 DUP2 PUSH20 0xFFFFFFFFFFFFFFFFFFFFFFFFFFFFFFFFFFFFFFFF AND DUP2 MSTORE POP POP DUP4 DUP2 PUSH1 0x1 DUP2 MLOAD DUP2 LT PUSH2 0x18B2 JUMPI PUSH2 0x18B1 PUSH2 0x21AC JUMP JUMPDEST JUMPDEST PUSH1 0x20 MUL PUSH1 0x20 ADD ADD SWAP1 PUSH20 0xFFFFFFFFFFFFFFFFFFFFFFFFFFFFFFFFFFFFFFFF AND SWAP1 DUP2 PUSH20 0xFFFFFFFFFFFFFFFFFFFFFFFFFFFFFFFFFFFFFFFF AND DUP2 MSTORE POP POP PUSH1 0x0 DUP7 PUSH20 0xFFFFFFFFFFFFFFFFFFFFFFFFFFFFFFFFFFFFFFFF AND PUSH4 0xD06CA61F DUP6 DUP5 PUSH1 0x40 MLOAD DUP4 PUSH4 0xFFFFFFFF AND PUSH1 0xE0 SHL DUP2 MSTORE PUSH1 0x4 ADD PUSH2 0x1929 SWAP3 SWAP2 SWAP1 PUSH2 0x2B9E JUMP JUMPDEST PUSH1 0x0 PUSH1 0x40 MLOAD DUP1 DUP4 SUB DUP2 DUP7 GAS STATICCALL ISZERO DUP1 ISZERO PUSH2 0x1946 JUMPI RETURNDATASIZE PUSH1 0x0 DUP1 RETURNDATACOPY RETURNDATASIZE PUSH1 0x0 REVERT JUMPDEST POP POP POP POP PUSH1 0x40 MLOAD RETURNDATASIZE PUSH1 0x0 DUP3 RETURNDATACOPY RETURNDATASIZE PUSH1 0x1F NOT PUSH1 0x1F DUP3 ADD AND DUP3 ADD DUP1 PUSH1 0x40 MSTORE POP DUP2 ADD SWAP1 PUSH2 0x196F SWAP2 SWAP1 PUSH2 0x2B55 JUMP JUMPDEST SWAP1 POP DUP1 PUSH1 0x1 DUP2 MLOAD DUP2 LT PUSH2 0x1985 JUMPI PUSH2 0x1984 PUSH2 0x21AC JUMP JUMPDEST JUMPDEST PUSH1 0x20 MUL PUSH1 0x20 ADD ADD MLOAD SWAP3 POP POP POP SWAP5 SWAP4 POP POP POP POP JUMP JUMPDEST PUSH1 0x0 DUP1 DUP4 PUSH8 0xDE0B6B3A7640000 DUP5 DUP7 PUSH2 0x19B2 SWAP2 SWAP1 PUSH2 0x2535 JUMP JUMPDEST PUSH2 0x19BC SWAP2 SWAP1 PUSH2 0x2569 JUMP JUMPDEST PUSH2 0x19C6 SWAP2 SWAP1 PUSH2 0x25DA JUMP JUMPDEST SWAP1 POP PUSH1 0x0 PUSH2 0x3E8 PUSH1 0x3 DUP8 PUSH2 0x19DA SWAP2 SWAP1 PUSH2 0x2569 JUMP JUMPDEST PUSH1 0x2 PUSH2 0x19E6 SWAP2 SWAP1 PUSH2 0x2569 JUMP JUMPDEST PUSH2 0x19F0 SWAP2 SWAP1 PUSH2 0x25DA JUMP JUMPDEST SWAP1 POP DUP1 DUP3 GT DUP1 ISZERO PUSH2 0x1A02 JUMPI POP PUSH1 0x1 SLOAD DUP3 GT JUMPDEST SWAP3 POP POP POP SWAP4 SWAP3 POP POP POP JUMP JUMPDEST PUSH1 0x0 PUSH20 0xFFFFFFFFFFFFFFFFFFFFFFFFFFFFFFFFFFFFFFFF DUP3 AND SWAP1 POP SWAP2 SWAP1 POP JUMP JUMPDEST PUSH1 0x0 DUP2 SWAP1 POP SWAP2 SWAP1 POP JUMP JUMPDEST PUSH1 0x0 PUSH2 0x1A52 PUSH2 0x1A4D PUSH2 0x1A48 DUP5 PUSH2 0x1A0D JUMP JUMPDEST PUSH2 0x1A2D JUMP JUMPDEST PUSH2 0x1A0D JUMP JUMPDEST SWAP1 POP SWAP2 SWAP1 POP JUMP JUMPDEST PUSH1 0x0 PUSH2 0x1A64 DUP3 PUSH2 0x1A37 JUMP JUMPDEST SWAP1 POP SWAP2 SWAP1 POP JUMP JUMPDEST PUSH1 0x0 PUSH2 0x1A76 DUP3 PUSH2 0x1A59 JUMP JUMPDEST SWAP1 POP SWAP2 SWAP1 POP JUMP JUMPDEST PUSH2 0x1A86 DUP2 PUSH2 0x1A6B JUMP JUMPDEST DUP3 MSTORE POP POP JUMP JUMPDEST PUSH1 0x0 PUSH1 0x20 DUP3 ADD SWAP1 POP PUSH2 0x1AA1 PUSH1 0x0 DUP4 ADD DUP5 PUSH2 0x1A7D JUMP JUMPDEST SWAP3 SWAP2 POP POP JUMP JUMPDEST PUSH1 0x0 PUSH1 0x40 MLOAD SWAP1 POP SWAP1 JUMP JUMPDEST PUSH1 0x0 DUP1 REVERT JUMPDEST PUSH1 0x0 DUP1 REVERT JUMPDEST PUSH1 0x0 PUSH2 0x1AC6 DUP3 PUSH2 0x1A0D JUMP JUMPDEST SWAP1 POP SWAP2 SWAP1 POP JUMP JUMPDEST PUSH2 0x1AD6 DUP2 PUSH2 0x1ABB JUMP JUMPDEST DUP2 EQ PUSH2 0x1AE1 JUMPI PUSH1 0x0 DUP1 REVERT JUMPDEST POP JUMP JUMPDEST PUSH1 0x0 DUP2 CALLDATALOAD SWAP1 POP PUSH2 0x1AF3 DUP2 PUSH2 0x1ACD JUMP JUMPDEST SWAP3 SWAP2 POP POP JUMP JUMPDEST PUSH1 0x0 DUP1 REVERT JUMPDEST PUSH1 0x0 DUP1 REVERT JUMPDEST PUSH1 0x0 DUP1 REVERT JUMPDEST PUSH1 0x0 DUP1 DUP4 PUSH1 0x1F DUP5 ADD SLT PUSH2 0x1B1E JUMPI PUSH2 0x1B1D PUSH2 0x1AF9 JUMP JUMPDEST JUMPDEST DUP3 CALLDATALOAD SWAP1 POP PUSH8 0xFFFFFFFFFFFFFFFF DUP2 GT ISZERO PUSH2 0x1B3B JUMPI PUSH2 0x1B3A PUSH2 0x1AFE JUMP JUMPDEST JUMPDEST PUSH1 0x20 DUP4 ADD SWAP2 POP DUP4 PUSH1 0x20 DUP3 MUL DUP4 ADD GT ISZERO PUSH2 0x1B57 JUMPI PUSH2 0x1B56 PUSH2 0x1B03 JUMP JUMPDEST JUMPDEST SWAP3 POP SWAP3 SWAP1 POP JUMP JUMPDEST PUSH1 0x0 DUP2 SWAP1 POP SWAP2 SWAP1 POP JUMP JUMPDEST PUSH2 0x1B71 DUP2 PUSH2 0x1B5E JUMP JUMPDEST DUP2 EQ PUSH2 0x1B7C JUMPI PUSH1 0x0 DUP1 REVERT JUMPDEST POP JUMP JUMPDEST PUSH1 0x0 DUP2 CALLDATALOAD SWAP1 POP PUSH2 0x1B8E DUP2 PUSH2 0x1B68 JUMP JUMPDEST SWAP3 SWAP2 POP POP JUMP JUMPDEST PUSH1 0x0 DUP1 DUP4 PUSH1 0x1F DUP5 ADD SLT PUSH2 0x1BAA JUMPI PUSH2 0x1BA9 PUSH2 0x1AF9 JUMP JUMPDEST JUMPDEST DUP3 CALLDATALOAD SWAP1 POP PUSH8 0xFFFFFFFFFFFFFFFF DUP2 GT ISZERO PUSH2 0x1BC7 JUMPI PUSH2 0x1BC6 PUSH2 0x1AFE JUMP JUMPDEST JUMPDEST PUSH1 0x20 DUP4 ADD SWAP2 POP DUP4 PUSH1 0x20 DUP3 MUL DUP4 ADD GT ISZERO PUSH2 0x1BE3 JUMPI PUSH2 0x1BE2 PUSH2 0x1B03 JUMP JUMPDEST JUMPDEST SWAP3 POP SWAP3 SWAP1 POP JUMP JUMPDEST PUSH1 0x0 DUP1 PUSH1 0x0 DUP1 PUSH1 0x0 DUP1 PUSH1 0x80 DUP8 DUP10 SUB SLT ISZERO PUSH2 0x1C07 JUMPI PUSH2 0x1C06 PUSH2 0x1AB1 JUMP JUMPDEST JUMPDEST PUSH1 0x0 PUSH2 0x1C15 DUP10 DUP3 DUP11 ADD PUSH2 0x1AE4 JUMP JUMPDEST SWAP7 POP POP PUSH1 0x20 DUP8 ADD CALLDATALOAD PUSH8 0xFFFFFFFFFFFFFFFF DUP2 GT ISZERO PUSH2 0x1C36 JUMPI PUSH2 0x1C35 PUSH2 0x1AB6 JUMP JUMPDEST JUMPDEST PUSH2 0x1C42 DUP10 DUP3 DUP11 ADD PUSH2 0x1B08 JUMP JUMPDEST SWAP6 POP SWAP6 POP POP PUSH1 0x40 PUSH2 0x1C55 DUP10 DUP3 DUP11 ADD PUSH2 0x1B7F JUMP JUMPDEST SWAP4 POP POP PUSH1 0x60 DUP8 ADD CALLDATALOAD PUSH8 0xFFFFFFFFFFFFFFFF DUP2 GT ISZERO PUSH2 0x1C76 JUMPI PUSH2 0x1C75 PUSH2 0x1AB6 JUMP JUMPDEST JUMPDEST PUSH2 0x1C82 DUP10 DUP3 DUP11 ADD PUSH2 0x1B94 JUMP JUMPDEST SWAP3 POP SWAP3 POP POP SWAP3 SWAP6 POP SWAP3 SWAP6 POP SWAP3 SWAP6 JUMP JUMPDEST PUSH1 0x0 DUP1 PUSH1 0x0 PUSH1 0x60 DUP5 DUP7 SUB SLT ISZERO PUSH2 0x1CAA JUMPI PUSH2 0x1CA9 PUSH2 0x1AB1 JUMP JUMPDEST JUMPDEST PUSH1 0x0 PUSH2 0x1CB8 DUP7 DUP3 DUP8 ADD PUSH2 0x1B7F JUMP JUMPDEST SWAP4 POP POP PUSH1 0x20 PUSH2 0x1CC9 DUP7 DUP3 DUP8 ADD PUSH2 0x1B7F JUMP JUMPDEST SWAP3 POP POP PUSH1 0x40 PUSH2 0x1CDA DUP7 DUP3 DUP8 ADD PUSH2 0x1B7F JUMP JUMPDEST SWAP2 POP POP SWAP3 POP SWAP3 POP SWAP3 JUMP JUMPDEST PUSH2 0x1CED DUP2 PUSH2 0x1B5E JUMP JUMPDEST DUP3 MSTORE POP POP JUMP JUMPDEST PUSH1 0x0 PUSH1 0x20 DUP3 ADD SWAP1 POP PUSH2 0x1D08 PUSH1 0x0 DUP4 ADD DUP5 PUSH2 0x1CE4 JUMP JUMPDEST SWAP3 SWAP2 POP POP JUMP JUMPDEST PUSH1 0x0 PUSH1 0x20 DUP3 DUP5 SUB SLT ISZERO PUSH2 0x1D24 JUMPI PUSH2 0x1D23 PUSH2 0x1AB1 JUMP JUMPDEST JUMPDEST PUSH1 0x0 PUSH2 0x1D32 DUP5 DUP3 DUP6 ADD PUSH2 0x1AE4 JUMP JUMPDEST SWAP2 POP POP SWAP3 SWAP2 POP POP JUMP JUMPDEST PUSH1 0x0 DUP1 PUSH1 0x0 PUSH1 0x60 DUP5 DUP7 SUB SLT ISZERO PUSH2 0x1D54 JUMPI PUSH2 0x1D53 PUSH2 0x1AB1 JUMP JUMPDEST JUMPDEST PUSH1 0x0 PUSH2 0x1D62 DUP7 DUP3 DUP8 ADD PUSH2 0x1AE4 JUMP JUMPDEST SWAP4 POP POP PUSH1 0x20 PUSH2 0x1D73 DUP7 DUP3 DUP8 ADD PUSH2 0x1AE4 JUMP JUMPDEST SWAP3 POP POP PUSH1 0x40 PUSH2 0x1D84 DUP7 DUP3 DUP8 ADD PUSH2 0x1B7F JUMP JUMPDEST SWAP2 POP POP SWAP3 POP SWAP3 POP SWAP3 JUMP JUMPDEST PUSH1 0x0 DUP2 ISZERO ISZERO SWAP1 POP SWAP2 SWAP1 POP JUMP JUMPDEST PUSH2 0x1DA3 DUP2 PUSH2 0x1D8E JUMP JUMPDEST DUP2 EQ PUSH2 0x1DAE JUMPI PUSH1 0x0 DUP1 REVERT JUMPDEST POP JUMP JUMPDEST PUSH1 0x0 DUP2 CALLDATALOAD SWAP1 POP PUSH2 0x1DC0 DUP2 PUSH2 0x1D9A JUMP JUMPDEST SWAP3 SWAP2 POP POP JUMP JUMPDEST PUSH1 0x0 PUSH1 0x20 DUP3 DUP5 SUB SLT ISZERO PUSH2 0x1DDC JUMPI PUSH2 0x1DDB PUSH2 0x1AB1 JUMP JUMPDEST JUMPDEST PUSH1 0x0 PUSH2 0x1DEA DUP5 DUP3 DUP6 ADD PUSH2 0x1DB1 JUMP JUMPDEST SWAP2 POP POP SWAP3 SWAP2 POP POP JUMP JUMPDEST PUSH1 0x0 DUP1 PUSH1 0x0 DUP1 PUSH1 0x40 DUP6 DUP8 SUB SLT ISZERO PUSH2 0x1E0D JUMPI PUSH2 0x1E0C PUSH2 0x1AB1 JUMP JUMPDEST JUMPDEST PUSH1 0x0 DUP6 ADD CALLDATALOAD PUSH8 0xFFFFFFFFFFFFFFFF DUP2 GT ISZERO PUSH2 0x1E2B JUMPI PUSH2 0x1E2A PUSH2 0x1AB6 JUMP JUMPDEST JUMPDEST PUSH2 0x1E37 DUP8 DUP3 DUP9 ADD PUSH2 0x1B08 JUMP JUMPDEST SWAP5 POP SWAP5 POP POP PUSH1 0x20 DUP6 ADD CALLDATALOAD PUSH8 0xFFFFFFFFFFFFFFFF DUP2 GT ISZERO PUSH2 0x1E5A JUMPI PUSH2 0x1E59 PUSH2 0x1AB6 JUMP JUMPDEST JUMPDEST PUSH2 0x1E66 DUP8 DUP3 DUP9 ADD PUSH2 0x1B94 JUMP JUMPDEST SWAP3 POP SWAP3 POP POP SWAP3 SWAP6 SWAP2 SWAP5 POP SWAP3 POP JUMP JUMPDEST PUSH2 0x1E7D DUP2 PUSH2 0x1ABB JUMP JUMPDEST DUP3 MSTORE POP POP JUMP JUMPDEST PUSH1 0x0 PUSH1 0x20 DUP3 ADD SWAP1 POP PUSH2 0x1E98 PUSH1 0x0 DUP4 ADD DUP5 PUSH2 0x1E74 JUMP JUMPDEST SWAP3 SWAP2 POP POP JUMP JUMPDEST PUSH1 0x0 DUP1 PUSH1 0x40 DUP4 DUP6 SUB SLT ISZERO PUSH2 0x1EB5 JUMPI PUSH2 0x1EB4 PUSH2 0x1AB1 JUMP JUMPDEST JUMPDEST PUSH1 0x0 PUSH2 0x1EC3 DUP6 DUP3 DUP7 ADD PUSH2 0x1AE4 JUMP JUMPDEST SWAP3 POP POP PUSH1 0x20 PUSH2 0x1ED4 DUP6 DUP3 DUP7 ADD PUSH2 0x1B7F JUMP JUMPDEST SWAP2 POP POP SWAP3 POP SWAP3 SWAP1 POP JUMP JUMPDEST PUSH1 0x0 DUP1 DUP4 PUSH1 0x1F DUP5 ADD SLT PUSH2 0x1EF4 JUMPI PUSH2 0x1EF3 PUSH2 0x1AF9 JUMP JUMPDEST JUMPDEST DUP3 CALLDATALOAD SWAP1 POP PUSH8 0xFFFFFFFFFFFFFFFF DUP2 GT ISZERO PUSH2 0x1F11 JUMPI PUSH2 0x1F10 PUSH2 0x1AFE JUMP JUMPDEST JUMPDEST PUSH1 0x20 DUP4 ADD SWAP2 POP DUP4 PUSH1 0x1 DUP3 MUL DUP4 ADD GT ISZERO PUSH2 0x1F2D JUMPI PUSH2 0x1F2C PUSH2 0x1B03 JUMP JUMPDEST JUMPDEST SWAP3 POP SWAP3 SWAP1 POP JUMP JUMPDEST PUSH1 0x0 DUP1 PUSH1 0x0 DUP1 PUSH1 0x0 DUP1 PUSH1 0x0 DUP1 PUSH1 0x0 PUSH1 0xA0 DUP11 DUP13 SUB SLT ISZERO PUSH2 0x1F56 JUMPI PUSH2 0x1F55 PUSH2 0x1AB1 JUMP JUMPDEST JUMPDEST PUSH1 0x0 DUP11 ADD CALLDATALOAD PUSH8 0xFFFFFFFFFFFFFFFF DUP2 GT ISZERO PUSH2 0x1F74 JUMPI PUSH2 0x1F73 PUSH2 0x1AB6 JUMP JUMPDEST JUMPDEST PUSH2 0x1F80 DUP13 DUP3 DUP14 ADD PUSH2 0x1B08 JUMP JUMPDEST SWAP10 POP SWAP10 POP POP PUSH1 0x20 DUP11 ADD CALLDATALOAD PUSH8 0xFFFFFFFFFFFFFFFF DUP2 GT ISZERO PUSH2 0x1FA3 JUMPI PUSH2 0x1FA2 PUSH2 0x1AB6 JUMP JUMPDEST JUMPDEST PUSH2 0x1FAF DUP13 DUP3 DUP14 ADD PUSH2 0x1B94 JUMP JUMPDEST SWAP8 POP SWAP8 POP POP PUSH1 0x40 DUP11 ADD CALLDATALOAD PUSH8 0xFFFFFFFFFFFFFFFF DUP2 GT ISZERO PUSH2 0x1FD2 JUMPI PUSH2 0x1FD1 PUSH2 0x1AB6 JUMP JUMPDEST JUMPDEST PUSH2 0x1FDE DUP13 DUP3 DUP14 ADD PUSH2 0x1B94 JUMP JUMPDEST SWAP6 POP SWAP6 POP POP PUSH1 0x60 PUSH2 0x1FF1 DUP13 DUP3 DUP14 ADD PUSH2 0x1AE4 JUMP JUMPDEST SWAP4 POP POP PUSH1 0x80 DUP11 ADD CALLDATALOAD PUSH8 0xFFFFFFFFFFFFFFFF DUP2 GT ISZERO PUSH2 0x2012 JUMPI PUSH2 0x2011 PUSH2 0x1AB6 JUMP JUMPDEST JUMPDEST PUSH2 0x201E DUP13 DUP3 DUP14 ADD PUSH2 0x1EDE JUMP JUMPDEST SWAP3 POP SWAP3 POP POP SWAP3 SWAP6 SWAP9 POP SWAP3 SWAP6 SWAP9 POP SWAP3 SWAP6 SWAP9 JUMP JUMPDEST PUSH2 0x2039 DUP2 PUSH2 0x1D8E JUMP JUMPDEST DUP3 MSTORE POP POP JUMP JUMPDEST PUSH1 0x0 PUSH1 0x20 DUP3 ADD SWAP1 POP PUSH2 0x2054 PUSH1 0x0 DUP4 ADD DUP5 PUSH2 0x2030 JUMP JUMPDEST SWAP3 SWAP2 POP POP JUMP JUMPDEST PUSH1 0x0 PUSH2 0x2065 DUP3 PUSH2 0x1A59 JUMP JUMPDEST SWAP1 POP SWAP2 SWAP1 POP JUMP JUMPDEST PUSH2 0x2075 DUP2 PUSH2 0x205A JUMP JUMPDEST DUP3 MSTORE POP POP JUMP JUMPDEST PUSH1 0x0 PUSH1 0x20 DUP3 ADD SWAP1 POP PUSH2 0x2090 PUSH1 0x0 DUP4 ADD DUP5 PUSH2 0x206C JUMP JUMPDEST SWAP3 SWAP2 POP POP JUMP JUMPDEST PUSH1 0x0 PUSH1 0x20 DUP3 DUP5 SUB SLT ISZERO PUSH2 0x20AC JUMPI PUSH2 0x20AB PUSH2 0x1AB1 JUMP JUMPDEST JUMPDEST PUSH1 0x0 PUSH2 0x20BA DUP5 DUP3 DUP6 ADD PUSH2 0x1B7F JUMP JUMPDEST SWAP2 POP POP SWAP3 SWAP2 POP POP JUMP JUMPDEST PUSH1 0x0 DUP3 DUP3 MSTORE PUSH1 0x20 DUP3 ADD SWAP1 POP SWAP3 SWAP2 POP POP JUMP JUMPDEST PUSH32 0x496E76616C696420706172616D65746572730000000000000000000000000000 PUSH1 0x0 DUP3 ADD MSTORE POP JUMP JUMPDEST PUSH1 0x0 PUSH2 0x210A PUSH1 0x12 DUP4 PUSH2 0x20C3 JUMP JUMPDEST SWAP2 POP PUSH2 0x2115 DUP3 PUSH2 0x20D4 JUMP JUMPDEST PUSH1 0x20 DUP3 ADD SWAP1 POP SWAP2 SWAP1 POP JUMP JUMPDEST PUSH1 0x0 PUSH1 0x20 DUP3 ADD SWAP1 POP DUP2 DUP2 SUB PUSH1 0x0 DUP4 ADD MSTORE PUSH2 0x2139 DUP2 PUSH2 0x20FD JUMP JUMPDEST SWAP1 POP SWAP2 SWAP1 POP JUMP JUMPDEST PUSH32 0x416D6F756E742062656C6F77207468726573686F6C6400000000000000000000 PUSH1 0x0 DUP3 ADD MSTORE POP JUMP JUMPDEST PUSH1 0x0 PUSH2 0x2176 PUSH1 0x16 DUP4 PUSH2 0x20C3 JUMP JUMPDEST SWAP2 POP PUSH2 0x2181 DUP3 PUSH2 0x2140 JUMP JUMPDEST PUSH1 0x20 DUP3 ADD SWAP1 POP SWAP2 SWAP1 POP JUMP JUMPDEST PUSH1 0x0 PUSH1 0x20 DUP3 ADD SWAP1 POP DUP2 DUP2 SUB PUSH1 0x0 DUP4 ADD MSTORE PUSH2 0x21A5 DUP2 PUSH2 0x2169 JUMP JUMPDEST SWAP1 POP SWAP2 SWAP1 POP JUMP JUMPDEST PUSH32 0x4E487B7100000000000000000000000000000000000000000000000000000000 PUSH1 0x0 MSTORE PUSH1 0x32 PUSH1 0x4 MSTORE PUSH1 0x24 PUSH1 0x0 REVERT JUMPDEST PUSH1 0x0 DUP2 MLOAD SWAP1 POP PUSH2 0x21EA DUP2 PUSH2 0x1B68 JUMP JUMPDEST SWAP3 SWAP2 POP POP JUMP JUMPDEST PUSH1 0x0 PUSH1 0x20 DUP3 DUP5 SUB SLT ISZERO PUSH2 0x2206 JUMPI PUSH2 0x2205 PUSH2 0x1AB1 JUMP JUMPDEST JUMPDEST PUSH1 0x0 PUSH2 0x2214 DUP5 DUP3 DUP6 ADD PUSH2 0x21DB JUMP JUMPDEST SWAP2 POP POP SWAP3 SWAP2 POP POP JUMP JUMPDEST PUSH32 0x496E76616C696420746F6B656E20616464726573736573000000000000000000 PUSH1 0x0 DUP3 ADD MSTORE POP JUMP JUMPDEST PUSH1 0x0 PUSH2 0x2253 PUSH1 0x17 DUP4 PUSH2 0x20C3 JUMP JUMPDEST SWAP2 POP PUSH2 0x225E DUP3 PUSH2 0x221D JUMP JUMPDEST PUSH1 0x20 DUP3 ADD SWAP1 POP SWAP2 SWAP1 POP JUMP JUMPDEST PUSH1 0x0 PUSH1 0x20 DUP3 ADD SWAP1 POP DUP2 DUP2 SUB PUSH1 0x0 DUP4 ADD MSTORE PUSH2 0x2282 DUP2 PUSH2 0x2246 JUMP JUMPDEST SWAP1 POP SWAP2 SWAP1 POP JUMP JUMPDEST PUSH32 0x416D6F756E74206D7573742062652067726561746572207468616E2030000000 PUSH1 0x0 DUP3 ADD MSTORE POP JUMP JUMPDEST PUSH1 0x0 PUSH2 0x22BF PUSH1 0x1D DUP4 PUSH2 0x20C3 JUMP JUMPDEST SWAP2 POP PUSH2 0x22CA DUP3 PUSH2 0x2289 JUMP JUMPDEST PUSH1 0x20 DUP3 ADD SWAP1 POP SWAP2 SWAP1 POP JUMP JUMPDEST PUSH1 0x0 PUSH1 0x20 DUP3 ADD SWAP1 POP DUP2 DUP2 SUB PUSH1 0x0 DUP4 ADD MSTORE PUSH2 0x22EE DUP2 PUSH2 0x22B2 JUMP JUMPDEST SWAP1 POP SWAP2 SWAP1 POP JUMP JUMPDEST PUSH32 0x4E487B7100000000000000000000000000000000000000000000000000000000 PUSH1 0x0 MSTORE PUSH1 0x41 PUSH1 0x4 MSTORE PUSH1 0x24 PUSH1 0x0 REVERT JUMPDEST PUSH32 0x43616C6C6572206D757374206265206C656E64696E6720706F6F6C0000000000 PUSH1 0x0 DUP3 ADD MSTORE POP JUMP JUMPDEST PUSH1 0x0 PUSH2 0x235A PUSH1 0x1B DUP4 PUSH2 0x20C3 JUMP JUMPDEST SWAP2 POP PUSH2 0x2365 DUP3 PUSH2 0x2324 JUMP JUMPDEST PUSH1 0x20 DUP3 ADD SWAP1 POP SWAP2 SWAP1 POP JUMP JUMPDEST PUSH1 0x0 PUSH1 0x20 DUP3 ADD SWAP1 POP DUP2 DUP2 SUB PUSH1 0x0 DUP4 ADD MSTORE PUSH2 0x2389 DUP2 PUSH2 0x234D JUMP JUMPDEST SWAP1 POP SWAP2 SWAP1 POP JUMP JUMPDEST PUSH32 0x41726269747261676520657865637574696F6E206661696C6564000000000000 PUSH1 0x0 DUP3 ADD MSTORE POP JUMP JUMPDEST PUSH1 0x0 PUSH2 0x23C6 PUSH1 0x1A DUP4 PUSH2 0x20C3 JUMP JUMPDEST SWAP2 POP PUSH2 0x23D1 DUP3 PUSH2 0x2390 JUMP JUMPDEST PUSH1 0x20 DUP3 ADD SWAP1 POP SWAP2 SWAP1 POP JUMP JUMPDEST PUSH1 0x0 PUSH1 0x20 DUP3 ADD SWAP1 POP DUP2 DUP2 SUB PUSH1 0x0 DUP4 ADD MSTORE PUSH2 0x23F5 DUP2 PUSH2 0x23B9 JUMP JUMPDEST SWAP1 POP SWAP2 SWAP1 POP JUMP JUMPDEST PUSH1 0x0 PUSH2 0x2407 DUP3 PUSH2 0x1A0D JUMP JUMPDEST SWAP1 POP SWAP2 SWAP1 POP JUMP JUMPDEST PUSH2 0x2417 DUP2 PUSH2 0x23FC JUMP JUMPDEST DUP2 EQ PUSH2 0x2422 JUMPI PUSH1 0x0 DUP1 REVERT JUMPDEST POP JUMP JUMPDEST PUSH1 0x0 DUP2 CALLDATALOAD SWAP1 POP PUSH2 0x2434 DUP2 PUSH2 0x240E JUMP JUMPDEST SWAP3 SWAP2 POP POP JUMP JUMPDEST PUSH1 0x0 PUSH1 0x20 DUP3 DUP5 SUB SLT ISZERO PUSH2 0x2450 JUMPI PUSH2 0x244F PUSH2 0x1AB1 JUMP JUMPDEST JUMPDEST PUSH1 0x0 PUSH2 0x245E DUP5 DUP3 DUP6 ADD PUSH2 0x2425 JUMP JUMPDEST SWAP2 POP POP SWAP3 SWAP2 POP POP JUMP JUMPDEST PUSH32 0x4E487B7100000000000000000000000000000000000000000000000000000000 PUSH1 0x0 MSTORE PUSH1 0x11 PUSH1 0x4 MSTORE PUSH1 0x24 PUSH1 0x0 REVERT JUMPDEST PUSH1 0x0 PUSH2 0x24A1 DUP3 PUSH2 0x1B5E JUMP JUMPDEST SWAP2 POP PUSH2 0x24AC DUP4 PUSH2 0x1B5E JUMP JUMPDEST SWAP3 POP DUP3 DUP3 ADD SWAP1 POP DUP1 DUP3 GT ISZERO PUSH2 0x24C4 JUMPI PUSH2 0x24C3 PUSH2 0x2467 JUMP JUMPDEST JUMPDEST SWAP3 SWAP2 POP POP JUMP JUMPDEST PUSH1 0x0 PUSH1 0x40 DUP3 ADD SWAP1 POP PUSH2 0x24DF PUSH1 0x0 DUP4 ADD DUP6 PUSH2 0x1E74 JUMP JUMPDEST PUSH2 0x24EC PUSH1 0x20 DUP4 ADD DUP5 PUSH2 0x1CE4 JUMP JUMPDEST SWAP4 SWAP3 POP POP POP JUMP JUMPDEST PUSH1 0x0 DUP2 MLOAD SWAP1 POP PUSH2 0x2502 DUP2 PUSH2 0x1D9A JUMP JUMPDEST SWAP3 SWAP2 POP POP JUMP JUMPDEST PUSH1 0x0 PUSH1 0x20 DUP3 DUP5 SUB SLT ISZERO PUSH2 0x251E JUMPI PUSH2 0x251D PUSH2 0x1AB1 JUMP JUMPDEST JUMPDEST PUSH1 0x0 PUSH2 0x252C DUP5 DUP3 DUP6 ADD PUSH2 0x24F3 JUMP JUMPDEST SWAP2 POP POP SWAP3 SWAP2 POP POP JUMP JUMPDEST PUSH1 0x0 PUSH2 0x2540 DUP3 PUSH2 0x1B5E JUMP JUMPDEST SWAP2 POP PUSH2 0x254B DUP4 PUSH2 0x1B5E JUMP JUMPDEST SWAP3 POP DUP3 DUP3 SUB SWAP1 POP DUP2 DUP2 GT ISZERO PUSH2 0x2563 JUMPI PUSH2 0x2562 PUSH2 0x2467 JUMP JUMPDEST JUMPDEST SWAP3 SWAP2 POP POP JUMP JUMPDEST PUSH1 0x0 PUSH2 0x2574 DUP3 PUSH2 0x1B5E JUMP JUMPDEST SWAP2 POP PUSH2 0x257F DUP4 PUSH2 0x1B5E JUMP JUMPDEST SWAP3 POP DUP3 DUP3 MUL PUSH2 0x258D DUP2 PUSH2 0x1B5E JUMP JUMPDEST SWAP2 POP DUP3 DUP3 DIV DUP5 EQ DUP4 ISZERO OR PUSH2 0x25A4 JUMPI PUSH2 0x25A3 PUSH2 0x2467 JUMP JUMPDEST JUMPDEST POP SWAP3 SWAP2 POP POP JUMP JUMPDEST PUSH32 0x4E487B7100000000000000000000000000000000000000000000000000000000 PUSH1 0x0 MSTORE PUSH1 0x12 PUSH1 0x4 MSTORE PUSH1 0x24 PUSH1 0x0 REVERT JUMPDEST PUSH1 0x0 PUSH2 0x25E5 DUP3 PUSH2 0x1B5E JUMP JUMPDEST SWAP2 POP PUSH2 0x25F0 DUP4 PUSH2 0x1B5E JUMP JUMPDEST SWAP3 POP DUP3 PUSH2 0x2600 JUMPI PUSH2 0x25FF PUSH2 0x25AB JUMP JUMPDEST JUMPDEST DUP3 DUP3 DIV SWAP1 POP SWAP3 SWAP2 POP POP JUMP JUMPDEST PUSH1 0x0 DUP2 MLOAD SWAP1 POP SWAP2 SWAP1 POP JUMP JUMPDEST PUSH1 0x0 DUP3 DUP3 MSTORE PUSH1 0x20 DUP3 ADD SWAP1 POP SWAP3 SWAP2 POP POP JUMP JUMPDEST PUSH1 0x0 DUP2 SWAP1 POP PUSH1 0x20 DUP3 ADD SWAP1 POP SWAP2 SWAP1 POP JUMP JUMPDEST PUSH2 0x2640 DUP2 PUSH2 0x1ABB JUMP JUMPDEST DUP3 MSTORE POP POP JUMP JUMPDEST PUSH1 0x0 PUSH2 0x2652 DUP4 DUP4 PUSH2 0x2637 JUMP JUMPDEST PUSH1 0x20 DUP4 ADD SWAP1 POP SWAP3 SWAP2 POP POP JUMP JUMPDEST PUSH1 0x0 PUSH1 0x20 DUP3 ADD SWAP1 POP SWAP2 SWAP1 POP JUMP JUMPDEST PUSH1 0x0 PUSH2 0x2676 DUP3 PUSH2 0x260B JUMP JUMPDEST PUSH2 0x2680 DUP2 DUP6 PUSH2 0x2616 JUMP JUMPDEST SWAP4 POP PUSH2 0x268B DUP4 PUSH2 0x2627 JUMP JUMPDEST DUP1 PUSH1 0x0 JUMPDEST DUP4 DUP2 LT ISZERO PUSH2 0x26BC JUMPI DUP2 MLOAD PUSH2 0x26A3 DUP9 DUP3 PUSH2 0x2646 JUMP JUMPDEST SWAP8 POP PUSH2 0x26AE DUP4 PUSH2 0x265E JUMP JUMPDEST SWAP3 POP POP PUSH1 0x1 DUP2 ADD SWAP1 POP PUSH2 0x268F JUMP JUMPDEST POP DUP6 SWAP4 POP POP POP POP SWAP3 SWAP2 POP POP JUMP JUMPDEST PUSH1 0x0 DUP2 MLOAD SWAP1 POP SWAP2 SWAP1 POP JUMP JUMPDEST PUSH1 0x0 DUP3 DUP3 MSTORE PUSH1 0x20 DUP3 ADD SWAP1 POP SWAP3 SWAP2 POP POP JUMP JUMPDEST PUSH1 0x0 DUP2 SWAP1 POP PUSH1 0x20 DUP3 ADD SWAP1 POP SWAP2 SWAP1 POP JUMP JUMPDEST PUSH2 0x26FE DUP2 PUSH2 0x1B5E JUMP JUMPDEST DUP3 MSTORE POP POP JUMP JUMPDEST PUSH1 0x0 PUSH2 0x2710 DUP4 DUP4 PUSH2 0x26F5 JUMP JUMPDEST PUSH1 0x20 DUP4 ADD SWAP1 POP SWAP3 SWAP2 POP POP JUMP JUMPDEST PUSH1 0x0 PUSH1 0x20 DUP3 ADD SWAP1 POP SWAP2 SWAP1 POP JUMP JUMPDEST PUSH1 0x0 PUSH2 0x2734 DUP3 PUSH2 0x26C9 JUMP JUMPDEST PUSH2 0x273E DUP2 DUP6 PUSH2 0x26D4 JUMP JUMPDEST SWAP4 POP PUSH2 0x2749 DUP4 PUSH2 0x26E5 JUMP JUMPDEST DUP1 PUSH1 0x0 JUMPDEST DUP4 DUP2 LT ISZERO PUSH2 0x277A JUMPI DUP2 MLOAD PUSH2 0x2761 DUP9 DUP3 PUSH2 0x2704 JUMP JUMPDEST SWAP8 POP PUSH2 0x276C DUP4 PUSH2 0x271C JUMP JUMPDEST SWAP3 POP POP PUSH1 0x1 DUP2 ADD SWAP1 POP PUSH2 0x274D JUMP JUMPDEST POP DUP6 SWAP4 POP POP POP POP SWAP3 SWAP2 POP POP JUMP JUMPDEST PUSH1 0x0 DUP2 MLOAD SWAP1 POP SWAP2 SWAP1 POP JUMP JUMPDEST PUSH1 0x0 DUP3 DUP3 MSTORE PUSH1 0x20 DUP3 ADD SWAP1 POP SWAP3 SWAP2 POP POP JUMP JUMPDEST PUSH1 0x0 JUMPDEST DUP4 DUP2 LT ISZERO PUSH2 0x27C1 JUMPI DUP1 DUP3 ADD MLOAD DUP2 DUP5 ADD MSTORE PUSH1 0x20 DUP2 ADD SWAP1 POP PUSH2 0x27A6 JUMP JUMPDEST PUSH1 0x0 DUP5 DUP5 ADD MSTORE POP POP POP POP JUMP JUMPDEST PUSH1 0x0 PUSH1 0x1F NOT PUSH1 0x1F DUP4 ADD AND SWAP1 POP SWAP2 SWAP1 POP JUMP JUMPDEST PUSH1 0x0 PUSH2 0x27E9 DUP3 PUSH2 0x2787 JUMP JUMPDEST PUSH2 0x27F3 DUP2 DUP6 PUSH2 0x2792 JUMP JUMPDEST SWAP4 POP PUSH2 0x2803 DUP2 DUP6 PUSH1 0x20 DUP7 ADD PUSH2 0x27A3 JUMP JUMPDEST PUSH2 0x280C DUP2 PUSH2 0x27CD JUMP JUMPDEST DUP5 ADD SWAP2 POP POP SWAP3 SWAP2 POP POP JUMP JUMPDEST PUSH1 0x0 PUSH2 0xFFFF DUP3 AND SWAP1 POP SWAP2 SWAP1 POP JUMP JUMPDEST PUSH2 0x282E DUP2 PUSH2 0x2817 JUMP JUMPDEST DUP3 MSTORE POP POP JUMP JUMPDEST PUSH1 0x0 PUSH1 0xE0 DUP3 ADD SWAP1 POP PUSH2 0x2849 PUSH1 0x0 DUP4 ADD DUP11 PUSH2 0x1E74 JUMP JUMPDEST DUP2 DUP2 SUB PUSH1 0x20 DUP4 ADD MSTORE PUSH2 0x285B DUP2 DUP10 PUSH2 0x266B JUMP JUMPDEST SWAP1 POP DUP2 DUP2 SUB PUSH1 0x40 DUP4 ADD MSTORE PUSH2 0x286F DUP2 DUP9 PUSH2 0x2729 JUMP JUMPDEST SWAP1 POP DUP2 DUP2 SUB PUSH1 0x60 DUP4 ADD MSTORE PUSH2 0x2883 DUP2 DUP8 PUSH2 0x2729 JUMP JUMPDEST SWAP1 POP PUSH2 0x2892 PUSH1 0x80 DUP4 ADD DUP7 PUSH2 0x1E74 JUMP JUMPDEST DUP2 DUP2 SUB PUSH1 0xA0 DUP4 ADD MSTORE PUSH2 0x28A4 DUP2 DUP6 PUSH2 0x27DE JUMP JUMPDEST SWAP1 POP PUSH2 0x28B3 PUSH1 0xC0 DUP4 ADD DUP5 PUSH2 0x2825 JUMP JUMPDEST SWAP9 SWAP8 POP POP POP POP POP POP POP POP JUMP JUMPDEST PUSH32 0x4E487B7100000000000000000000000000000000000000000000000000000000 PUSH1 0x0 MSTORE PUSH1 0x21 PUSH1 0x4 MSTORE PUSH1 0x24 PUSH1 0x0 REVERT JUMPDEST PUSH32 0x4E6F2070726F66697461626C6520617262697472616765206F70706F7274756E PUSH1 0x0 DUP3 ADD MSTORE PUSH32 0x6974790000000000000000000000000000000000000000000000000000000000 PUSH1 0x20 DUP3 ADD MSTORE POP JUMP JUMPDEST PUSH1 0x0 PUSH2 0x294A PUSH1 0x23 DUP4 PUSH2 0x20C3 JUMP JUMPDEST SWAP2 POP PUSH2 0x2955 DUP3 PUSH2 0x28EE JUMP JUMPDEST PUSH1 0x40 DUP3 ADD SWAP1 POP SWAP2 SWAP1 POP JUMP JUMPDEST PUSH1 0x0 PUSH1 0x20 DUP3 ADD SWAP1 POP DUP2 DUP2 SUB PUSH1 0x0 DUP4 ADD MSTORE PUSH2 0x2979 DUP2 PUSH2 0x293D JUMP JUMPDEST SWAP1 POP SWAP2 SWAP1 POP JUMP JUMPDEST PUSH32 0x496E73756666696369656E742070726F66697400000000000000000000000000 PUSH1 0x0 DUP3 ADD MSTORE POP JUMP JUMPDEST PUSH1 0x0 PUSH2 0x29B6 PUSH1 0x13 DUP4 PUSH2 0x20C3 JUMP JUMPDEST SWAP2 POP PUSH2 0x29C1 DUP3 PUSH2 0x2980 JUMP JUMPDEST PUSH1 0x20 DUP3 ADD SWAP1 POP SWAP2 SWAP1 POP JUMP JUMPDEST PUSH1 0x0 PUSH1 0x20 DUP3 ADD SWAP1 POP DUP2 DUP2 SUB PUSH1 0x0 DUP4 ADD MSTORE PUSH2 0x29E5 DUP2 PUSH2 0x29A9 JUMP JUMPDEST SWAP1 POP SWAP2 SWAP1 POP JUMP JUMPDEST PUSH1 0x0 PUSH1 0xA0 DUP3 ADD SWAP1 POP PUSH2 0x2A01 PUSH1 0x0 DUP4 ADD DUP9 PUSH2 0x1CE4 JUMP JUMPDEST PUSH2 0x2A0E PUSH1 0x20 DUP4 ADD DUP8 PUSH2 0x1CE4 JUMP JUMPDEST DUP2 DUP2 SUB PUSH1 0x40 DUP4 ADD MSTORE PUSH2 0x2A20 DUP2 DUP7 PUSH2 0x266B JUMP JUMPDEST SWAP1 POP PUSH2 0x2A2F PUSH1 0x60 DUP4 ADD DUP6 PUSH2 0x1E74 JUMP JUMPDEST PUSH2 0x2A3C PUSH1 0x80 DUP4 ADD DUP5 PUSH2 0x1CE4 JUMP JUMPDEST SWAP7 SWAP6 POP POP POP POP POP POP JUMP JUMPDEST PUSH2 0x2A4F DUP3 PUSH2 0x27CD JUMP JUMPDEST DUP2 ADD DUP2 DUP2 LT PUSH8 0xFFFFFFFFFFFFFFFF DUP3 GT OR ISZERO PUSH2 0x2A6E JUMPI PUSH2 0x2A6D PUSH2 0x22F5 JUMP JUMPDEST JUMPDEST DUP1 PUSH1 0x40 MSTORE POP POP POP JUMP JUMPDEST PUSH1 0x0 PUSH2 0x2A81 PUSH2 0x1AA7 JUMP JUMPDEST SWAP1 POP PUSH2 0x2A8D DUP3 DUP3 PUSH2 0x2A46 JUMP JUMPDEST SWAP2 SWAP1 POP JUMP JUMPDEST PUSH1 0x0 PUSH8 0xFFFFFFFFFFFFFFFF DUP3 GT ISZERO PUSH2 0x2AAD JUMPI PUSH2 0x2AAC PUSH2 0x22F5 JUMP JUMPDEST JUMPDEST PUSH1 0x20 DUP3 MUL SWAP1 POP PUSH1 0x20 DUP2 ADD SWAP1 POP SWAP2 SWAP1 POP JUMP JUMPDEST PUSH1 0x0 PUSH2 0x2AD1 PUSH2 0x2ACC DUP5 PUSH2 0x2A92 JUMP JUMPDEST PUSH2 0x2A77 JUMP JUMPDEST SWAP1 POP DUP1 DUP4 DUP3 MSTORE PUSH1 0x20 DUP3 ADD SWAP1 POP PUSH1 0x20 DUP5 MUL DUP4 ADD DUP6 DUP2 GT ISZERO PUSH2 0x2AF4 JUMPI PUSH2 0x2AF3 PUSH2 0x1B03 JUMP JUMPDEST JUMPDEST DUP4 JUMPDEST DUP2 DUP2 LT ISZERO PUSH2 0x2B1D JUMPI DUP1 PUSH2 0x2B09 DUP9 DUP3 PUSH2 0x21DB JUMP JUMPDEST DUP5 MSTORE PUSH1 0x20 DUP5 ADD SWAP4 POP POP PUSH1 0x20 DUP2 ADD SWAP1 POP PUSH2 0x2AF6 JUMP JUMPDEST POP POP POP SWAP4 SWAP3 POP POP POP JUMP JUMPDEST PUSH1 0x0 DUP3 PUSH1 0x1F DUP4 ADD SLT PUSH2 0x2B3C JUMPI PUSH2 0x2B3B PUSH2 0x1AF9 JUMP JUMPDEST JUMPDEST DUP2 MLOAD PUSH2 0x2B4C DUP5 DUP3 PUSH1 0x20 DUP7 ADD PUSH2 0x2ABE JUMP JUMPDEST SWAP2 POP POP SWAP3 SWAP2 POP POP JUMP JUMPDEST PUSH1 0x0 PUSH1 0x20 DUP3 DUP5 SUB SLT ISZERO PUSH2 0x2B6B JUMPI PUSH2 0x2B6A PUSH2 0x1AB1 JUMP JUMPDEST JUMPDEST PUSH1 0x0 DUP3 ADD MLOAD PUSH8 0xFFFFFFFFFFFFFFFF DUP2 GT ISZERO PUSH2 0x2B89 JUMPI PUSH2 0x2B88 PUSH2 0x1AB6 JUMP JUMPDEST JUMPDEST PUSH2 0x2B95 DUP5 DUP3 DUP6 ADD PUSH2 0x2B27 JUMP JUMPDEST SWAP2 POP POP SWAP3 SWAP2 POP POP JUMP JUMPDEST PUSH1 0x0 PUSH1 0x40 DUP3 ADD SWAP1 POP PUSH2 0x2BB3 PUSH1 0x0 DUP4 ADD DUP6 PUSH2 0x1CE4 JUMP JUMPDEST DUP2 DUP2 SUB PUSH1 0x20 DUP4 ADD MSTORE PUSH2 0x2BC5 DUP2 DUP5 PUSH2 0x266B JUMP JUMPDEST SWAP1 POP SWAP4 SWAP3 POP POP POP JUMP INVALID LOG2 PUSH5 0x6970667358 0x22 SLT KECCAK256 0xC9 0xA5 DUP11 CODECOPY 0xCF 0xA9 SWAP4 0xCD 0xF9 DUP12 0xEB 0xB6 SELFBALANCE ADD 0xE3 SWAP2 PREVRANDAO 0xCC BALANCE PUSH28 0x4DF7349B6839E4FF0FC7CA7364736F6C634300081C00330000000000 "},"methodIdentifiers":{"ADDRESSES_PROVIDER()":"0542975c","LENDING_POOL()":"b4dcfc77","calculateArbitrageProfitEstimate(uint256,uint256,uint256)":"2fa20935","executeArbitrage(address,address,uint256)":"650f84be","executeComplexArbitrage(address[],uint256[])":"70963235","executeMultiDexArbitrage(address,address[],uint256,uint256[])":"08739f50","executeOperation(address[],uint256[],uint256[],address,bytes)":"920f5c84","flashloan(address,uint256)":"8e5f5f57","owner()":"8da5cb5b","renounceOwnership()":"715018a6","setMinimumProfitThreshold(uint256)":"e1ab1b13","setSimulateFailure(bool)":"6b2eb2f9","transferOwnership(address)":"f2fde38b","withdraw(address)":"51cff8d9"}}}}}