{"contracts/flashloan/FlashloanArbitrage.sol":{"FlashloanV2":{"abi":[{"inputs":[{"internalType":"address","name":"_addressProvider","type":"address"},{"internalType":"address","name":"_uniswapRouterAddress","type":"address"},{"internalType":"address","name":"_sushiswapRouterAddress","type":"address"}],"stateMutability":"nonpayable","type":"constructor"},{"inputs":[{"internalType":"address","name":"owner","type":"address"}],"name":"OwnableInvalidOwner","type":"error"},{"inputs":[{"internalType":"address","name":"account","type":"address"}],"name":"OwnableUnauthorizedAccount","type":"error"},{"inputs":[{"internalType":"address","name":"token","type":"address"}],"name":"SafeERC20FailedOperation","type":"error"},{"anonymous":false,"inputs":[{"indexed":true,"internalType":"address","name":"token0","type":"address"},{"indexed":true,"internalType":"address","name":"token1","type":"address"},{"indexed":false,"internalType":"uint256","name":"profit","type":"uint256"}],"name":"ArbitrageExecuted","type":"event"},{"anonymous":false,"inputs":[{"indexed":true,"internalType":"address","name":"_from","type":"address"},{"indexed":true,"internalType":"address","name":"_assetAddress","type":"address"},{"indexed":false,"internalType":"uint256","name":"amount","type":"uint256"}],"name":"LogWithdraw","type":"event"},{"anonymous":false,"inputs":[{"indexed":true,"internalType":"address","name":"previousOwner","type":"address"},{"indexed":true,"internalType":"address","name":"newOwner","type":"address"}],"name":"OwnershipTransferred","type":"event"},{"inputs":[],"name":"ADDRESSES_PROVIDER","outputs":[{"internalType":"contract ILendingPoolAddressesProviderV2","name":"","type":"address"}],"stateMutability":"view","type":"function"},{"inputs":[],"name":"LENDING_POOL","outputs":[{"internalType":"contract ILendingPoolV2","name":"","type":"address"}],"stateMutability":"view","type":"function"},{"inputs":[{"internalType":"address","name":"token0","type":"address"},{"internalType":"address","name":"token1","type":"address"},{"internalType":"uint256","name":"amount","type":"uint256"},{"internalType":"uint256","name":"uniswapPrice","type":"uint256"},{"internalType":"uint256","name":"sushiswapPrice","type":"uint256"}],"name":"calculateArbitrageProfitEstimate","outputs":[{"internalType":"uint256","name":"","type":"uint256"}],"stateMutability":"view","type":"function"},{"inputs":[{"internalType":"address","name":"token0","type":"address"},{"internalType":"address","name":"token1","type":"address"},{"internalType":"uint256","name":"amount","type":"uint256"},{"internalType":"uint256","name":"price0","type":"uint256"},{"internalType":"uint256","name":"price1","type":"uint256"}],"name":"executeArbitrage","outputs":[],"stateMutability":"nonpayable","type":"function"},{"inputs":[{"internalType":"address[]","name":"path","type":"address[]"},{"internalType":"uint256[]","name":"amounts","type":"uint256[]"}],"name":"executeComplexArbitrage","outputs":[],"stateMutability":"nonpayable","type":"function"},{"inputs":[{"internalType":"address","name":"baseToken","type":"address"},{"internalType":"address[]","name":"pairs","type":"address[]"},{"internalType":"uint256","name":"amount","type":"uint256"},{"internalType":"uint256[]","name":"prices","type":"uint256[]"}],"name":"executeMultiDexArbitrage","outputs":[],"stateMutability":"nonpayable","type":"function"},{"inputs":[{"internalType":"address[]","name":"assets","type":"address[]"},{"internalType":"uint256[]","name":"amounts","type":"uint256[]"},{"internalType":"uint256[]","name":"premiums","type":"uint256[]"},{"internalType":"address","name":"","type":"address"},{"internalType":"bytes","name":"params","type":"bytes"}],"name":"executeOperation","outputs":[{"internalType":"bool","name":"","type":"bool"}],"stateMutability":"nonpayable","type":"function"},{"inputs":[],"name":"owner","outputs":[{"internalType":"address","name":"","type":"address"}],"stateMutability":"view","type":"function"},{"inputs":[{"internalType":"address","name":"_asset","type":"address"}],"name":"pullTokens","outputs":[],"stateMutability":"nonpayable","type":"function"},{"inputs":[],"name":"renounceOwnership","outputs":[],"stateMutability":"nonpayable","type":"function"},{"inputs":[{"internalType":"uint256","name":"threshold","type":"uint256"}],"name":"setMinimumProfitThreshold","outputs":[],"stateMutability":"nonpayable","type":"function"},{"inputs":[{"internalType":"bool","name":"shouldFail","type":"bool"}],"name":"setSimulateFailure","outputs":[],"stateMutability":"nonpayable","type":"function"},{"inputs":[{"internalType":"address","name":"_borrowAsset","type":"address"},{"internalType":"uint256","name":"_borrowAmount","type":"uint256"},{"internalType":"address","name":"_swappingPair","type":"address"},{"internalType":"address","name":"_factoryAddress","type":"address"}],"name":"startTransaction","outputs":[],"stateMutability":"nonpayable","type":"function"},{"inputs":[{"internalType":"address","name":"newOwner","type":"address"}],"name":"transferOwnership","outputs":[],"stateMutability":"nonpayable","type":"function"},{"inputs":[{"internalType":"address","name":"_assetAddress","type":"address"}],"name":"withdraw","outputs":[],"stateMutability":"nonpayable","type":"function"}],"evm":{"bytecode":{"linkReferences":{},"object":"61010060405234801561001157600080fd5b50604051612def380380612def83398181016040528101906100339190610325565b33838073ffffffffffffffffffffffffffffffffffffffff1660808173ffffffffffffffffffffffffffffffffffffffff16815250508073ffffffffffffffffffffffffffffffffffffffff16630261bf8b6040518163ffffffff1660e01b8152600401602060405180830381865afa1580156100b4573d6000803e3d6000fd5b505050506040513d601f19601f820116820180604052508101906100d89190610378565b73ffffffffffffffffffffffffffffffffffffffff1660a08173ffffffffffffffffffffffffffffffffffffffff168152505050600073ffffffffffffffffffffffffffffffffffffffff168173ffffffffffffffffffffffffffffffffffffffff160361017e5760006040517f1e4fbdf700000000000000000000000000000000000000000000000000000000815260040161017591906103b4565b60405180910390fd5b61018d816101fe60201b60201c565b508173ffffffffffffffffffffffffffffffffffffffff1660c08173ffffffffffffffffffffffffffffffffffffffff16815250508073ffffffffffffffffffffffffffffffffffffffff1660e08173ffffffffffffffffffffffffffffffffffffffff16815250505050506103cf565b60008060009054906101000a900473ffffffffffffffffffffffffffffffffffffffff169050816000806101000a81548173ffffffffffffffffffffffffffffffffffffffff021916908373ffffffffffffffffffffffffffffffffffffffff1602179055508173ffffffffffffffffffffffffffffffffffffffff168173ffffffffffffffffffffffffffffffffffffffff167f8be0079c531659141344cd1fd0a4f28419497f9722a3daafe3b4186f6b6457e060405160405180910390a35050565b600080fd5b600073ffffffffffffffffffffffffffffffffffffffff82169050919050565b60006102f2826102c7565b9050919050565b610302816102e7565b811461030d57600080fd5b50565b60008151905061031f816102f9565b92915050565b60008060006060848603121561033e5761033d6102c2565b5b600061034c86828701610310565b935050602061035d86828701610310565b925050604061036e86828701610310565b9150509250925092565b60006020828403121561038e5761038d6102c2565b5b600061039c84828501610310565b91505092915050565b6103ae816102e7565b82525050565b60006020820190506103c960008301846103a5565b92915050565b60805160a05160c05160e0516129b661043960003960008181610ff5015281816110570152611308015260008181610fc70152818161108501526112d80152600081816108fb015281816109d401528181610a6d0152611190015260006102bc01526129b66000f3fe608060405234801561001057600080fd5b50600436106100f55760003560e01c80638da5cb5b11610097578063e1ab1b1311610066578063e1ab1b1314610236578063f058fb1b14610252578063f2fde38b1461026e578063fb247bc51461028a576100f5565b80638da5cb5b146101ae5780638ef41642146101cc578063920f5c84146101e8578063b4dcfc7714610218576100f5565b806351cff8d9116100d357806351cff8d9146101505780636b2eb2f91461016c5780637096323514610188578063715018a6146101a4576100f5565b80630542975c146100fa57806308739f501461011857806342e9c6ce14610134575b600080fd5b6101026102ba565b60405161010f91906118e4565b60405180910390f35b610132600480360381019061012d9190611a42565b6102de565b005b61014e60048036038101906101499190611ae9565b61039d565b005b61016a60048036038101906101659190611ae9565b6104ae565b005b61018660048036038101906101819190611b4e565b610668565b005b6101a2600480360381019061019d9190611b7b565b61068d565b005b6101ac61078c565b005b6101b66107a0565b6040516101c39190611c0b565b60405180910390f35b6101e660048036038101906101e19190611c26565b6107c9565b005b61020260048036038101906101fd9190611cf7565b61088d565b60405161020f9190611e02565b60405180910390f35b610220610a6b565b60405161022d9190611e3e565b60405180910390f35b610250600480360381019061024b9190611e59565b610a8f565b005b61026c60048036038101906102679190611e86565b610aa1565b005b61028860048036038101906102839190611ae9565b610bcf565b005b6102a4600480360381019061029f9190611c26565b610c55565b6040516102b19190611efc565b60405180910390f35b7f000000000000000000000000000000000000000000000000000000000000000081565b6102e6610c9a565b6000858590501180156102fe57508484905082829050145b61033d576040517f08c379a000000000000000000000000000000000000000000000000000000000815260040161033490611f74565b60405180910390fd5b60008585600081811061035357610352611f94565b5b90506020020160208101906103689190611ae9565b6040516020016103789190611c0b565b6040516020818303038152906040529050610394878583610d21565b50505050505050565b6103a5610c9a565b60008190508073ffffffffffffffffffffffffffffffffffffffff1663095ea7b333476040518363ffffffff1660e01b81526004016103e5929190611fc3565b6020604051808303816000875af1158015610404573d6000803e3d6000fd5b505050506040513d601f19601f820116820180604052508101906104289190612001565b508073ffffffffffffffffffffffffffffffffffffffff166323b872dd3033476040518463ffffffff1660e01b81526004016104669392919061202e565b6020604051808303816000875af1158015610485573d6000803e3d6000fd5b505050506040513d601f19601f820116820180604052508101906104a99190612001565b505050565b6104b6610c9a565b60008073ffffffffffffffffffffffffffffffffffffffff168273ffffffffffffffffffffffffffffffffffffffff16036105575760003090508073ffffffffffffffffffffffffffffffffffffffff163191503373ffffffffffffffffffffffffffffffffffffffff166108fc839081150290604051600060405180830381858888f19350505050158015610550573d6000803e3d6000fd5b50506105ff565b8173ffffffffffffffffffffffffffffffffffffffff166370a08231306040518263ffffffff1660e01b81526004016105909190611c0b565b602060405180830381865afa1580156105ad573d6000803e3d6000fd5b505050506040513d601f19601f820116820180604052508101906105d1919061207a565b90506105fe33828473ffffffffffffffffffffffffffffffffffffffff16610e3f9092919063ffffffff16565b5b8173ffffffffffffffffffffffffffffffffffffffff163373ffffffffffffffffffffffffffffffffffffffff167f9207361cc2a04b9c7a06691df1eb87c6a63957ae88bf01d0d18c81e3d12720998360405161065c9190611efc565b60405180910390a35050565b610670610c9a565b80600260006101000a81548160ff02191690831515021790555050565b610695610c9a565b6001848490501180156106ad57508383905082829050145b6106ec576040517f08c379a00000000000000000000000000000000000000000000000000000000081526004016106e390611f74565b60405180910390fd5b60008484600181811061070257610701611f94565b5b90506020020160208101906107179190611ae9565b6040516020016107279190611c0b565b60405160208183030381529060405290506107858585600081811061074f5761074e611f94565b5b90506020020160208101906107649190611ae9565b8484600081811061077857610777611f94565b5b9050602002013583610d21565b5050505050565b610794610c9a565b61079e6000610ebe565b565b60008060009054906101000a900473ffffffffffffffffffffffffffffffffffffffff16905090565b6107d1610c9a565b60008311610814576040517f08c379a000000000000000000000000000000000000000000000000000000000815260040161080b90611f74565b60405180910390fd5b808203610856576040517f08c379a000000000000000000000000000000000000000000000000000000000815260040161084d90612119565b60405180910390fd5b6000846040516020016108699190611c0b565b6040516020818303038152906040529050610885868583610d21565b505050505050565b6000808a8a60008181106108a4576108a3611f94565b5b90506020020160208101906108b99190611ae9565b90506000898960008181106108d1576108d0611f94565b5b9050602002013590506000888860008181106108f0576108ef611f94565b5b9050602002013590507f000000000000000000000000000000000000000000000000000000000000000073ffffffffffffffffffffffffffffffffffffffff163373ffffffffffffffffffffffffffffffffffffffff1614610987576040517f08c379a000000000000000000000000000000000000000000000000000000000815260040161097e90612185565b60405180910390fd5b6000868681019061099891906121e3565b90506109a5848483610f82565b50600082846109b4919061223f565b90508473ffffffffffffffffffffffffffffffffffffffff1663095ea7b37f0000000000000000000000000000000000000000000000000000000000000000836040518363ffffffff1660e01b8152600401610a11929190611fc3565b6020604051808303816000875af1158015610a30573d6000803e3d6000fd5b505050506040513d601f19601f82011682018060405250810190610a549190612001565b506001955050505050509998505050505050505050565b7f000000000000000000000000000000000000000000000000000000000000000081565b610a97610c9a565b8060018190555050565b610aa9610c9a565b60008173ffffffffffffffffffffffffffffffffffffffff1663e6a4390586856040518363ffffffff1660e01b8152600401610ae6929190612273565b602060405180830381865afa158015610b03573d6000803e3d6000fd5b505050506040513d601f19601f82011682018060405250810190610b2791906122b1565b9050600073ffffffffffffffffffffffffffffffffffffffff168173ffffffffffffffffffffffffffffffffffffffff1603610b98576040517f08c379a0000000000000000000000000000000000000000000000000000000008152600401610b8f9061232a565b60405180910390fd5b600083604051602001610bab9190611c0b565b6040516020818303038152906040529050610bc7868683610d21565b505050505050565b610bd7610c9a565b600073ffffffffffffffffffffffffffffffffffffffff168173ffffffffffffffffffffffffffffffffffffffff1603610c495760006040517f1e4fbdf7000000000000000000000000000000000000000000000000000000008152600401610c409190611c0b565b60405180910390fd5b610c5281610ebe565b50565b6000806000905082841115610c7657610c6f8585856110c5565b9050610c8d565b83831115610c8c57610c898584866110c5565b90505b5b8091505095945050505050565b610ca26110f2565b73ffffffffffffffffffffffffffffffffffffffff16610cc06107a0565b73ffffffffffffffffffffffffffffffffffffffff1614610d1f57610ce36110f2565b6040517f118cdaa7000000000000000000000000000000000000000000000000000000008152600401610d169190611c0b565b60405180910390fd5b565b6000600167ffffffffffffffff811115610d3e57610d3d61234a565b5b604051908082528060200260200182016040528015610d6c5781602001602082028036833780820191505090505b5090508381600081518110610d8457610d83611f94565b5b602002602001019073ffffffffffffffffffffffffffffffffffffffff16908173ffffffffffffffffffffffffffffffffffffffff16815250506000600167ffffffffffffffff811115610ddb57610dda61234a565b5b604051908082528060200260200182016040528015610e095781602001602082028036833780820191505090505b5090508381600081518110610e2157610e20611f94565b5b602002602001018181525050610e388282856110fa565b5050505050565b610eb9838473ffffffffffffffffffffffffffffffffffffffff1663a9059cbb8585604051602401610e72929190611fc3565b604051602081830303815290604052915060e01b6020820180517bffffffffffffffffffffffffffffffffffffffffffffffffffffffff838183161783525050505061122e565b505050565b60008060009054906101000a900473ffffffffffffffffffffffffffffffffffffffff169050816000806101000a81548173ffffffffffffffffffffffffffffffffffffffff021916908373ffffffffffffffffffffffffffffffffffffffff1602179055508173ffffffffffffffffffffffffffffffffffffffff168173ffffffffffffffffffffffffffffffffffffffff167f8be0079c531659141344cd1fd0a4f28419497f9722a3daafe3b4186f6b6457e060405160405180910390a35050565b600080610f908486856112d0565b90506000806002811115610fa757610fa6612379565b5b826002811115610fba57610fb9612379565b5b03611023576000610fed867f000000000000000000000000000000000000000000000000000000000000000089886113f9565b905061101b817f0000000000000000000000000000000000000000000000000000000000000000878a6113f9565b9150506110b9565b6001600281111561103757611036612379565b5b82600281111561104a57611049612379565b5b036110b357600061107d867f000000000000000000000000000000000000000000000000000000000000000089886113f9565b90506110ab817f0000000000000000000000000000000000000000000000000000000000000000878a6113f9565b9150506110b8565b600080fd5b5b80925050509392505050565b6000828483856110d591906123a8565b6110df91906123dc565b6110e9919061244d565b90509392505050565b600033905090565b60003090506000309050600080865167ffffffffffffffff8111156111225761112161234a565b5b6040519080825280602002602001820160405280156111505781602001602082028036833780820191505090505b50905060005b875181101561118d57600082828151811061117457611173611f94565b5b6020026020010181815250508080600101915050611156565b507f000000000000000000000000000000000000000000000000000000000000000073ffffffffffffffffffffffffffffffffffffffff1663ab9c4b5d85898985888b896040518863ffffffff1660e01b81526004016111f397969594939291906126a7565b600060405180830381600087803b15801561120d57600080fd5b505af1158015611221573d6000803e3d6000fd5b5050505050505050505050565b600080602060008451602086016000885af180611251576040513d6000823e3d81fd5b3d92506000519150506000821461126c576001811415611288565b60008473ffffffffffffffffffffffffffffffffffffffff163b145b156112ca57836040517f5274afe70000000000000000000000000000000000000000000000000000000081526004016112c19190611c0b565b60405180910390fd5b50505050565b6000806112ff7f0000000000000000000000000000000000000000000000000000000000000000858588611651565b9050600061132f7f0000000000000000000000000000000000000000000000000000000000000000868689611651565b90508082111561138e576113448683836117eb565b611383576040517f08c379a000000000000000000000000000000000000000000000000000000000815260040161137a9061277e565b60405180910390fd5b6000925050506113f2565b808210156113eb576113a18682846117eb565b6113e0576040517f08c379a00000000000000000000000000000000000000000000000000000000081526004016113d79061277e565b60405180910390fd5b6001925050506113f2565b6002925050505b9392505050565b60008273ffffffffffffffffffffffffffffffffffffffff1663095ea7b385876040518363ffffffff1660e01b8152600401611436929190611fc3565b6020604051808303816000875af1158015611455573d6000803e3d6000fd5b505050506040513d601f19601f820116820180604052508101906114799190612001565b5060006064605f61148c8787878b611651565b61149691906123dc565b6114a0919061244d565b90506000600267ffffffffffffffff8111156114bf576114be61234a565b5b6040519080825280602002602001820160405280156114ed5781602001602082028036833780820191505090505b509050848160008151811061150557611504611f94565b5b602002602001019073ffffffffffffffffffffffffffffffffffffffff16908173ffffffffffffffffffffffffffffffffffffffff1681525050838160018151811061155457611553611f94565b5b602002602001019073ffffffffffffffffffffffffffffffffffffffff16908173ffffffffffffffffffffffffffffffffffffffff168152505060008673ffffffffffffffffffffffffffffffffffffffff166338ed17398985853061012c426115be919061223f565b6040518663ffffffff1660e01b81526004016115de95949392919061279e565b6000604051808303816000875af11580156115fd573d6000803e3d6000fd5b505050506040513d6000823e3d601f19601f820116820180604052508101906116269190612907565b60018151811061163957611638611f94565b5b60200260200101519050809350505050949350505050565b600080600267ffffffffffffffff81111561166f5761166e61234a565b5b60405190808252806020026020018201604052801561169d5781602001602082028036833780820191505090505b50905084816000815181106116b5576116b4611f94565b5b602002602001019073ffffffffffffffffffffffffffffffffffffffff16908173ffffffffffffffffffffffffffffffffffffffff1681525050838160018151811061170457611703611f94565b5b602002602001019073ffffffffffffffffffffffffffffffffffffffff16908173ffffffffffffffffffffffffffffffffffffffff168152505060008673ffffffffffffffffffffffffffffffffffffffff1663d06ca61f85846040518363ffffffff1660e01b815260040161177b929190612950565b600060405180830381865afa158015611798573d6000803e3d6000fd5b505050506040513d6000823e3d601f19601f820116820180604052508101906117c19190612907565b6001815181106117d4576117d3611f94565b5b602002602001015190508092505050949350505050565b60008083670de0b6b3a7640000848661180491906123a8565b61180e91906123dc565b611818919061244d565b905060006103e860038761182c91906123dc565b600261183891906123dc565b611842919061244d565b9050808211156118575760019250505061185e565b6000925050505b9392505050565b600073ffffffffffffffffffffffffffffffffffffffff82169050919050565b6000819050919050565b60006118aa6118a56118a084611865565b611885565b611865565b9050919050565b60006118bc8261188f565b9050919050565b60006118ce826118b1565b9050919050565b6118de816118c3565b82525050565b60006020820190506118f960008301846118d5565b92915050565b6000604051905090565b600080fd5b600080fd5b600061191e82611865565b9050919050565b61192e81611913565b811461193957600080fd5b50565b60008135905061194b81611925565b92915050565b600080fd5b600080fd5b600080fd5b60008083601f84011261197657611975611951565b5b8235905067ffffffffffffffff81111561199357611992611956565b5b6020830191508360208202830111156119af576119ae61195b565b5b9250929050565b6000819050919050565b6119c9816119b6565b81146119d457600080fd5b50565b6000813590506119e6816119c0565b92915050565b60008083601f840112611a0257611a01611951565b5b8235905067ffffffffffffffff811115611a1f57611a1e611956565b5b602083019150836020820283011115611a3b57611a3a61195b565b5b9250929050565b60008060008060008060808789031215611a5f57611a5e611909565b5b6000611a6d89828a0161193c565b965050602087013567ffffffffffffffff811115611a8e57611a8d61190e565b5b611a9a89828a01611960565b95509550506040611aad89828a016119d7565b935050606087013567ffffffffffffffff811115611ace57611acd61190e565b5b611ada89828a016119ec565b92509250509295509295509295565b600060208284031215611aff57611afe611909565b5b6000611b0d8482850161193c565b91505092915050565b60008115159050919050565b611b2b81611b16565b8114611b3657600080fd5b50565b600081359050611b4881611b22565b92915050565b600060208284031215611b6457611b63611909565b5b6000611b7284828501611b39565b91505092915050565b60008060008060408587031215611b9557611b94611909565b5b600085013567ffffffffffffffff811115611bb357611bb261190e565b5b611bbf87828801611960565b9450945050602085013567ffffffffffffffff811115611be257611be161190e565b5b611bee878288016119ec565b925092505092959194509250565b611c0581611913565b82525050565b6000602082019050611c206000830184611bfc565b92915050565b600080600080600060a08688031215611c4257611c41611909565b5b6000611c508882890161193c565b9550506020611c618882890161193c565b9450506040611c72888289016119d7565b9350506060611c83888289016119d7565b9250506080611c94888289016119d7565b9150509295509295909350565b60008083601f840112611cb757611cb6611951565b5b8235905067ffffffffffffffff811115611cd457611cd3611956565b5b602083019150836001820283011115611cf057611cef61195b565b5b9250929050565b600080600080600080600080600060a08a8c031215611d1957611d18611909565b5b60008a013567ffffffffffffffff811115611d3757611d3661190e565b5b611d438c828d01611960565b995099505060208a013567ffffffffffffffff811115611d6657611d6561190e565b5b611d728c828d016119ec565b975097505060408a013567ffffffffffffffff811115611d9557611d9461190e565b5b611da18c828d016119ec565b95509550506060611db48c828d0161193c565b93505060808a013567ffffffffffffffff811115611dd557611dd461190e565b5b611de18c828d01611ca1565b92509250509295985092959850929598565b611dfc81611b16565b82525050565b6000602082019050611e176000830184611df3565b92915050565b6000611e28826118b1565b9050919050565b611e3881611e1d565b82525050565b6000602082019050611e536000830184611e2f565b92915050565b600060208284031215611e6f57611e6e611909565b5b6000611e7d848285016119d7565b91505092915050565b60008060008060808587031215611ea057611e9f611909565b5b6000611eae8782880161193c565b9450506020611ebf878288016119d7565b9350506040611ed08782880161193c565b9250506060611ee18782880161193c565b91505092959194509250565b611ef6816119b6565b82525050565b6000602082019050611f116000830184611eed565b92915050565b600082825260208201905092915050565b7f496e76616c696420706172616d65746572730000000000000000000000000000600082015250565b6000611f5e601283611f17565b9150611f6982611f28565b602082019050919050565b60006020820190508181036000830152611f8d81611f51565b9050919050565b7f4e487b7100000000000000000000000000000000000000000000000000000000600052603260045260246000fd5b6000604082019050611fd86000830185611bfc565b611fe56020830184611eed565b9392505050565b600081519050611ffb81611b22565b92915050565b60006020828403121561201757612016611909565b5b600061202584828501611fec565b91505092915050565b60006060820190506120436000830186611bfc565b6120506020830185611bfc565b61205d6040830184611eed565b949350505050565b600081519050612074816119c0565b92915050565b6000602082840312156120905761208f611909565b5b600061209e84828501612065565b91505092915050565b7f4e6f2070726f66697461626c6520617262697472616765206f70706f7274756e60008201527f6974790000000000000000000000000000000000000000000000000000000000602082015250565b6000612103602383611f17565b915061210e826120a7565b604082019050919050565b60006020820190508181036000830152612132816120f6565b9050919050565b7f4e6f7420706f6f6c000000000000000000000000000000000000000000000000600082015250565b600061216f600883611f17565b915061217a82612139565b602082019050919050565b6000602082019050818103600083015261219e81612162565b9050919050565b60006121b082611865565b9050919050565b6121c0816121a5565b81146121cb57600080fd5b50565b6000813590506121dd816121b7565b92915050565b6000602082840312156121f9576121f8611909565b5b6000612207848285016121ce565b91505092915050565b7f4e487b7100000000000000000000000000000000000000000000000000000000600052601160045260246000fd5b600061224a826119b6565b9150612255836119b6565b925082820190508082111561226d5761226c612210565b5b92915050565b60006040820190506122886000830185611bfc565b6122956020830184611bfc565b9392505050565b6000815190506122ab81611925565b92915050565b6000602082840312156122c7576122c6611909565b5b60006122d58482850161229c565b91505092915050565b7f506169724164647265737320646f6573206e6f74206578697374210000000000600082015250565b6000612314601b83611f17565b915061231f826122de565b602082019050919050565b6000602082019050818103600083015261234381612307565b9050919050565b7f4e487b7100000000000000000000000000000000000000000000000000000000600052604160045260246000fd5b7f4e487b7100000000000000000000000000000000000000000000000000000000600052602160045260246000fd5b60006123b3826119b6565b91506123be836119b6565b92508282039050818111156123d6576123d5612210565b5b92915050565b60006123e7826119b6565b91506123f2836119b6565b9250828202612400816119b6565b9150828204841483151761241757612416612210565b5b5092915050565b7f4e487b7100000000000000000000000000000000000000000000000000000000600052601260045260246000fd5b6000612458826119b6565b9150612463836119b6565b9250826124735761247261241e565b5b828204905092915050565b600081519050919050565b600082825260208201905092915050565b6000819050602082019050919050565b6124b381611913565b82525050565b60006124c583836124aa565b60208301905092915050565b6000602082019050919050565b60006124e98261247e565b6124f38185612489565b93506124fe8361249a565b8060005b8381101561252f57815161251688826124b9565b9750612521836124d1565b925050600181019050612502565b5085935050505092915050565b600081519050919050565b600082825260208201905092915050565b6000819050602082019050919050565b612571816119b6565b82525050565b60006125838383612568565b60208301905092915050565b6000602082019050919050565b60006125a78261253c565b6125b18185612547565b93506125bc83612558565b8060005b838110156125ed5781516125d48882612577565b97506125df8361258f565b9250506001810190506125c0565b5085935050505092915050565b600081519050919050565b600082825260208201905092915050565b60005b83811015612634578082015181840152602081019050612619565b60008484015250505050565b6000601f19601f8301169050919050565b600061265c826125fa565b6126668185612605565b9350612676818560208601612616565b61267f81612640565b840191505092915050565b600061ffff82169050919050565b6126a18161268a565b82525050565b600060e0820190506126bc600083018a611bfc565b81810360208301526126ce81896124de565b905081810360408301526126e2818861259c565b905081810360608301526126f6818761259c565b90506127056080830186611bfc565b81810360a08301526127178185612651565b905061272660c0830184612698565b98975050505050505050565b7f417262697472616765206e6f742070726f66697461626c650000000000000000600082015250565b6000612768601883611f17565b915061277382612732565b602082019050919050565b600060208201905081810360008301526127978161275b565b9050919050565b600060a0820190506127b36000830188611eed565b6127c06020830187611eed565b81810360408301526127d281866124de565b90506127e16060830185611bfc565b6127ee6080830184611eed565b9695505050505050565b61280182612640565b810181811067ffffffffffffffff821117156128205761281f61234a565b5b80604052505050565b60006128336118ff565b905061283f82826127f8565b919050565b600067ffffffffffffffff82111561285f5761285e61234a565b5b602082029050602081019050919050565b600061288361287e84612844565b612829565b905080838252602082019050602084028301858111156128a6576128a561195b565b5b835b818110156128cf57806128bb8882612065565b8452602084019350506020810190506128a8565b5050509392505050565b600082601f8301126128ee576128ed611951565b5b81516128fe848260208601612870565b91505092915050565b60006020828403121561291d5761291c611909565b5b600082015167ffffffffffffffff81111561293b5761293a61190e565b5b612947848285016128d9565b91505092915050565b60006040820190506129656000830185611eed565b818103602083015261297781846124de565b9050939250505056fea26469706673582212200e4ba89d7a56a3dcfed56ca913de9da13b6071302465eb77dcc9fba81b08c90a64736f6c634300081c0033","opcodes":"PUSH2 0x100 PUSH1 0x40 MSTORE CALLVALUE DUP1 ISZERO PUSH2 0x11 JUMPI PUSH1 0x0 DUP1 REVERT JUMPDEST POP PUSH1 0x40 MLOAD PUSH2 0x2DEF CODESIZE SUB DUP1 PUSH2 0x2DEF DUP4 CODECOPY DUP2 DUP2 ADD PUSH1 0x40 MSTORE DUP2 ADD SWAP1 PUSH2 0x33 SWAP2 SWAP1 PUSH2 0x325 JUMP JUMPDEST CALLER DUP4 DUP1 PUSH20 0xFFFFFFFFFFFFFFFFFFFFFFFFFFFFFFFFFFFFFFFF AND PUSH1 0x80 DUP2 PUSH20 0xFFFFFFFFFFFFFFFFFFFFFFFFFFFFFFFFFFFFFFFF AND DUP2 MSTORE POP POP DUP1 PUSH20 0xFFFFFFFFFFFFFFFFFFFFFFFFFFFFFFFFFFFFFFFF AND PUSH4 0x261BF8B PUSH1 0x40 MLOAD DUP2 PUSH4 0xFFFFFFFF AND PUSH1 0xE0 SHL DUP2 MSTORE PUSH1 0x4 ADD PUSH1 0x20 PUSH1 0x40 MLOAD DUP1 DUP4 SUB DUP2 DUP7 GAS STATICCALL ISZERO DUP1 ISZERO PUSH2 0xB4 JUMPI RETURNDATASIZE PUSH1 0x0 DUP1 RETURNDATACOPY RETURNDATASIZE PUSH1 0x0 REVERT JUMPDEST POP POP POP POP PUSH1 0x40 MLOAD RETURNDATASIZE PUSH1 0x1F NOT PUSH1 0x1F DUP3 ADD AND DUP3 ADD DUP1 PUSH1 0x40 MSTORE POP DUP2 ADD SWAP1 PUSH2 0xD8 SWAP2 SWAP1 PUSH2 0x378 JUMP JUMPDEST PUSH20 0xFFFFFFFFFFFFFFFFFFFFFFFFFFFFFFFFFFFFFFFF AND PUSH1 0xA0 DUP2 PUSH20 0xFFFFFFFFFFFFFFFFFFFFFFFFFFFFFFFFFFFFFFFF AND DUP2 MSTORE POP POP POP PUSH1 0x0 PUSH20 0xFFFFFFFFFFFFFFFFFFFFFFFFFFFFFFFFFFFFFFFF AND DUP2 PUSH20 0xFFFFFFFFFFFFFFFFFFFFFFFFFFFFFFFFFFFFFFFF AND SUB PUSH2 0x17E JUMPI PUSH1 0x0 PUSH1 0x40 MLOAD PUSH32 0x1E4FBDF700000000000000000000000000000000000000000000000000000000 DUP2 MSTORE PUSH1 0x4 ADD PUSH2 0x175 SWAP2 SWAP1 PUSH2 0x3B4 JUMP JUMPDEST PUSH1 0x40 MLOAD DUP1 SWAP2 SUB SWAP1 REVERT JUMPDEST PUSH2 0x18D DUP2 PUSH2 0x1FE PUSH1 0x20 SHL PUSH1 0x20 SHR JUMP JUMPDEST POP DUP2 PUSH20 0xFFFFFFFFFFFFFFFFFFFFFFFFFFFFFFFFFFFFFFFF AND PUSH1 0xC0 DUP2 PUSH20 0xFFFFFFFFFFFFFFFFFFFFFFFFFFFFFFFFFFFFFFFF AND DUP2 MSTORE POP POP DUP1 PUSH20 0xFFFFFFFFFFFFFFFFFFFFFFFFFFFFFFFFFFFFFFFF AND PUSH1 0xE0 DUP2 PUSH20 0xFFFFFFFFFFFFFFFFFFFFFFFFFFFFFFFFFFFFFFFF AND DUP2 MSTORE POP POP POP POP POP PUSH2 0x3CF JUMP JUMPDEST PUSH1 0x0 DUP1 PUSH1 0x0 SWAP1 SLOAD SWAP1 PUSH2 0x100 EXP SWAP1 DIV PUSH20 0xFFFFFFFFFFFFFFFFFFFFFFFFFFFFFFFFFFFFFFFF AND SWAP1 POP DUP2 PUSH1 0x0 DUP1 PUSH2 0x100 EXP DUP2 SLOAD DUP2 PUSH20 0xFFFFFFFFFFFFFFFFFFFFFFFFFFFFFFFFFFFFFFFF MUL NOT AND SWAP1 DUP4 PUSH20 0xFFFFFFFFFFFFFFFFFFFFFFFFFFFFFFFFFFFFFFFF AND MUL OR SWAP1 SSTORE POP DUP2 PUSH20 0xFFFFFFFFFFFFFFFFFFFFFFFFFFFFFFFFFFFFFFFF AND DUP2 PUSH20 0xFFFFFFFFFFFFFFFFFFFFFFFFFFFFFFFFFFFFFFFF AND PUSH32 0x8BE0079C531659141344CD1FD0A4F28419497F9722A3DAAFE3B4186F6B6457E0 PUSH1 0x40 MLOAD PUSH1 0x40 MLOAD DUP1 SWAP2 SUB SWAP1 LOG3 POP POP JUMP JUMPDEST PUSH1 0x0 DUP1 REVERT JUMPDEST PUSH1 0x0 PUSH20 0xFFFFFFFFFFFFFFFFFFFFFFFFFFFFFFFFFFFFFFFF DUP3 AND SWAP1 POP SWAP2 SWAP1 POP JUMP JUMPDEST PUSH1 0x0 PUSH2 0x2F2 DUP3 PUSH2 0x2C7 JUMP JUMPDEST SWAP1 POP SWAP2 SWAP1 POP JUMP JUMPDEST PUSH2 0x302 DUP2 PUSH2 0x2E7 JUMP JUMPDEST DUP2 EQ PUSH2 0x30D JUMPI PUSH1 0x0 DUP1 REVERT JUMPDEST POP JUMP JUMPDEST PUSH1 0x0 DUP2 MLOAD SWAP1 POP PUSH2 0x31F DUP2 PUSH2 0x2F9 JUMP JUMPDEST SWAP3 SWAP2 POP POP JUMP JUMPDEST PUSH1 0x0 DUP1 PUSH1 0x0 PUSH1 0x60 DUP5 DUP7 SUB SLT ISZERO PUSH2 0x33E JUMPI PUSH2 0x33D PUSH2 0x2C2 JUMP JUMPDEST JUMPDEST PUSH1 0x0 PUSH2 0x34C DUP7 DUP3 DUP8 ADD PUSH2 0x310 JUMP JUMPDEST SWAP4 POP POP PUSH1 0x20 PUSH2 0x35D DUP7 DUP3 DUP8 ADD PUSH2 0x310 JUMP JUMPDEST SWAP3 POP POP PUSH1 0x40 PUSH2 0x36E DUP7 DUP3 DUP8 ADD PUSH2 0x310 JUMP JUMPDEST SWAP2 POP POP SWAP3 POP SWAP3 POP SWAP3 JUMP JUMPDEST PUSH1 0x0 PUSH1 0x20 DUP3 DUP5 SUB SLT ISZERO PUSH2 0x38E JUMPI PUSH2 0x38D PUSH2 0x2C2 JUMP JUMPDEST JUMPDEST PUSH1 0x0 PUSH2 0x39C DUP5 DUP3 DUP6 ADD PUSH2 0x310 JUMP JUMPDEST SWAP2 POP POP SWAP3 SWAP2 POP POP JUMP JUMPDEST PUSH2 0x3AE DUP2 PUSH2 0x2E7 JUMP JUMPDEST DUP3 MSTORE POP POP JUMP JUMPDEST PUSH1 0x0 PUSH1 0x20 DUP3 ADD SWAP1 POP PUSH2 0x3C9 PUSH1 0x0 DUP4 ADD DUP5 PUSH2 0x3A5 JUMP JUMPDEST SWAP3 SWAP2 POP POP JUMP JUMPDEST PUSH1 0x80 MLOAD PUSH1 0xA0 MLOAD PUSH1 0xC0 MLOAD PUSH1 0xE0 MLOAD PUSH2 0x29B6 PUSH2 0x439 PUSH1 0x0 CODECOPY PUSH1 0x0 DUP2 DUP2 PUSH2 0xFF5 ADD MSTORE DUP2 DUP2 PUSH2 0x1057 ADD MSTORE PUSH2 0x1308 ADD MSTORE PUSH1 0x0 DUP2 DUP2 PUSH2 0xFC7 ADD MSTORE DUP2 DUP2 PUSH2 0x1085 ADD MSTORE PUSH2 0x12D8 ADD MSTORE PUSH1 0x0 DUP2 DUP2 PUSH2 0x8FB ADD MSTORE DUP2 DUP2 PUSH2 0x9D4 ADD MSTORE DUP2 DUP2 PUSH2 0xA6D ADD MSTORE PUSH2 0x1190 ADD MSTORE PUSH1 0x0 PUSH2 0x2BC ADD MSTORE PUSH2 0x29B6 PUSH1 0x0 RETURN INVALID PUSH1 0x80 PUSH1 0x40 MSTORE CALLVALUE DUP1 ISZERO PUSH2 0x10 JUMPI PUSH1 0x0 DUP1 REVERT JUMPDEST POP PUSH1 0x4 CALLDATASIZE LT PUSH2 0xF5 JUMPI PUSH1 0x0 CALLDATALOAD PUSH1 0xE0 SHR DUP1 PUSH4 0x8DA5CB5B GT PUSH2 0x97 JUMPI DUP1 PUSH4 0xE1AB1B13 GT PUSH2 0x66 JUMPI DUP1 PUSH4 0xE1AB1B13 EQ PUSH2 0x236 JUMPI DUP1 PUSH4 0xF058FB1B EQ PUSH2 0x252 JUMPI DUP1 PUSH4 0xF2FDE38B EQ PUSH2 0x26E JUMPI DUP1 PUSH4 0xFB247BC5 EQ PUSH2 0x28A JUMPI PUSH2 0xF5 JUMP JUMPDEST DUP1 PUSH4 0x8DA5CB5B EQ PUSH2 0x1AE JUMPI DUP1 PUSH4 0x8EF41642 EQ PUSH2 0x1CC JUMPI DUP1 PUSH4 0x920F5C84 EQ PUSH2 0x1E8 JUMPI DUP1 PUSH4 0xB4DCFC77 EQ PUSH2 0x218 JUMPI PUSH2 0xF5 JUMP JUMPDEST DUP1 PUSH4 0x51CFF8D9 GT PUSH2 0xD3 JUMPI DUP1 PUSH4 0x51CFF8D9 EQ PUSH2 0x150 JUMPI DUP1 PUSH4 0x6B2EB2F9 EQ PUSH2 0x16C JUMPI DUP1 PUSH4 0x70963235 EQ PUSH2 0x188 JUMPI DUP1 PUSH4 0x715018A6 EQ PUSH2 0x1A4 JUMPI PUSH2 0xF5 JUMP JUMPDEST DUP1 PUSH4 0x542975C EQ PUSH2 0xFA JUMPI DUP1 PUSH4 0x8739F50 EQ PUSH2 0x118 JUMPI DUP1 PUSH4 0x42E9C6CE EQ PUSH2 0x134 JUMPI JUMPDEST PUSH1 0x0 DUP1 REVERT JUMPDEST PUSH2 0x102 PUSH2 0x2BA JUMP JUMPDEST PUSH1 0x40 MLOAD PUSH2 0x10F SWAP2 SWAP1 PUSH2 0x18E4 JUMP JUMPDEST PUSH1 0x40 MLOAD DUP1 SWAP2 SUB SWAP1 RETURN JUMPDEST PUSH2 0x132 PUSH1 0x4 DUP1 CALLDATASIZE SUB DUP2 ADD SWAP1 PUSH2 0x12D SWAP2 SWAP1 PUSH2 0x1A42 JUMP JUMPDEST PUSH2 0x2DE JUMP JUMPDEST STOP JUMPDEST PUSH2 0x14E PUSH1 0x4 DUP1 CALLDATASIZE SUB DUP2 ADD SWAP1 PUSH2 0x149 SWAP2 SWAP1 PUSH2 0x1AE9 JUMP JUMPDEST PUSH2 0x39D JUMP JUMPDEST STOP JUMPDEST PUSH2 0x16A PUSH1 0x4 DUP1 CALLDATASIZE SUB DUP2 ADD SWAP1 PUSH2 0x165 SWAP2 SWAP1 PUSH2 0x1AE9 JUMP JUMPDEST PUSH2 0x4AE JUMP JUMPDEST STOP JUMPDEST PUSH2 0x186 PUSH1 0x4 DUP1 CALLDATASIZE SUB DUP2 ADD SWAP1 PUSH2 0x181 SWAP2 SWAP1 PUSH2 0x1B4E JUMP JUMPDEST PUSH2 0x668 JUMP JUMPDEST STOP JUMPDEST PUSH2 0x1A2 PUSH1 0x4 DUP1 CALLDATASIZE SUB DUP2 ADD SWAP1 PUSH2 0x19D SWAP2 SWAP1 PUSH2 0x1B7B JUMP JUMPDEST PUSH2 0x68D JUMP JUMPDEST STOP JUMPDEST PUSH2 0x1AC PUSH2 0x78C JUMP JUMPDEST STOP JUMPDEST PUSH2 0x1B6 PUSH2 0x7A0 JUMP JUMPDEST PUSH1 0x40 MLOAD PUSH2 0x1C3 SWAP2 SWAP1 PUSH2 0x1C0B JUMP JUMPDEST PUSH1 0x40 MLOAD DUP1 SWAP2 SUB SWAP1 RETURN JUMPDEST PUSH2 0x1E6 PUSH1 0x4 DUP1 CALLDATASIZE SUB DUP2 ADD SWAP1 PUSH2 0x1E1 SWAP2 SWAP1 PUSH2 0x1C26 JUMP JUMPDEST PUSH2 0x7C9 JUMP JUMPDEST STOP JUMPDEST PUSH2 0x202 PUSH1 0x4 DUP1 CALLDATASIZE SUB DUP2 ADD SWAP1 PUSH2 0x1FD SWAP2 SWAP1 PUSH2 0x1CF7 JUMP JUMPDEST PUSH2 0x88D JUMP JUMPDEST PUSH1 0x40 MLOAD PUSH2 0x20F SWAP2 SWAP1 PUSH2 0x1E02 JUMP JUMPDEST PUSH1 0x40 MLOAD DUP1 SWAP2 SUB SWAP1 RETURN JUMPDEST PUSH2 0x220 PUSH2 0xA6B JUMP JUMPDEST PUSH1 0x40 MLOAD PUSH2 0x22D SWAP2 SWAP1 PUSH2 0x1E3E JUMP JUMPDEST PUSH1 0x40 MLOAD DUP1 SWAP2 SUB SWAP1 RETURN JUMPDEST PUSH2 0x250 PUSH1 0x4 DUP1 CALLDATASIZE SUB DUP2 ADD SWAP1 PUSH2 0x24B SWAP2 SWAP1 PUSH2 0x1E59 JUMP JUMPDEST PUSH2 0xA8F JUMP JUMPDEST STOP JUMPDEST PUSH2 0x26C PUSH1 0x4 DUP1 CALLDATASIZE SUB DUP2 ADD SWAP1 PUSH2 0x267 SWAP2 SWAP1 PUSH2 0x1E86 JUMP JUMPDEST PUSH2 0xAA1 JUMP JUMPDEST STOP JUMPDEST PUSH2 0x288 PUSH1 0x4 DUP1 CALLDATASIZE SUB DUP2 ADD SWAP1 PUSH2 0x283 SWAP2 SWAP1 PUSH2 0x1AE9 JUMP JUMPDEST PUSH2 0xBCF JUMP JUMPDEST STOP JUMPDEST PUSH2 0x2A4 PUSH1 0x4 DUP1 CALLDATASIZE SUB DUP2 ADD SWAP1 PUSH2 0x29F SWAP2 SWAP1 PUSH2 0x1C26 JUMP JUMPDEST PUSH2 0xC55 JUMP JUMPDEST PUSH1 0x40 MLOAD PUSH2 0x2B1 SWAP2 SWAP1 PUSH2 0x1EFC JUMP JUMPDEST PUSH1 0x40 MLOAD DUP1 SWAP2 SUB SWAP1 RETURN JUMPDEST PUSH32 0x0 DUP2 JUMP JUMPDEST PUSH2 0x2E6 PUSH2 0xC9A JUMP JUMPDEST PUSH1 0x0 DUP6 DUP6 SWAP1 POP GT DUP1 ISZERO PUSH2 0x2FE JUMPI POP DUP5 DUP5 SWAP1 POP DUP3 DUP3 SWAP1 POP EQ JUMPDEST PUSH2 0x33D JUMPI PUSH1 0x40 MLOAD PUSH32 0x8C379A000000000000000000000000000000000000000000000000000000000 DUP2 MSTORE PUSH1 0x4 ADD PUSH2 0x334 SWAP1 PUSH2 0x1F74 JUMP JUMPDEST PUSH1 0x40 MLOAD DUP1 SWAP2 SUB SWAP1 REVERT JUMPDEST PUSH1 0x0 DUP6 DUP6 PUSH1 0x0 DUP2 DUP2 LT PUSH2 0x353 JUMPI PUSH2 0x352 PUSH2 0x1F94 JUMP JUMPDEST JUMPDEST SWAP1 POP PUSH1 0x20 MUL ADD PUSH1 0x20 DUP2 ADD SWAP1 PUSH2 0x368 SWAP2 SWAP1 PUSH2 0x1AE9 JUMP JUMPDEST PUSH1 0x40 MLOAD PUSH1 0x20 ADD PUSH2 0x378 SWAP2 SWAP1 PUSH2 0x1C0B JUMP JUMPDEST PUSH1 0x40 MLOAD PUSH1 0x20 DUP2 DUP4 SUB SUB DUP2 MSTORE SWAP1 PUSH1 0x40 MSTORE SWAP1 POP PUSH2 0x394 DUP8 DUP6 DUP4 PUSH2 0xD21 JUMP JUMPDEST POP POP POP POP POP POP POP JUMP JUMPDEST PUSH2 0x3A5 PUSH2 0xC9A JUMP JUMPDEST PUSH1 0x0 DUP2 SWAP1 POP DUP1 PUSH20 0xFFFFFFFFFFFFFFFFFFFFFFFFFFFFFFFFFFFFFFFF AND PUSH4 0x95EA7B3 CALLER SELFBALANCE PUSH1 0x40 MLOAD DUP4 PUSH4 0xFFFFFFFF AND PUSH1 0xE0 SHL DUP2 MSTORE PUSH1 0x4 ADD PUSH2 0x3E5 SWAP3 SWAP2 SWAP1 PUSH2 0x1FC3 JUMP JUMPDEST PUSH1 0x20 PUSH1 0x40 MLOAD DUP1 DUP4 SUB DUP2 PUSH1 0x0 DUP8 GAS CALL ISZERO DUP1 ISZERO PUSH2 0x404 JUMPI RETURNDATASIZE PUSH1 0x0 DUP1 RETURNDATACOPY RETURNDATASIZE PUSH1 0x0 REVERT JUMPDEST POP POP POP POP PUSH1 0x40 MLOAD RETURNDATASIZE PUSH1 0x1F NOT PUSH1 0x1F DUP3 ADD AND DUP3 ADD DUP1 PUSH1 0x40 MSTORE POP DUP2 ADD SWAP1 PUSH2 0x428 SWAP2 SWAP1 PUSH2 0x2001 JUMP JUMPDEST POP DUP1 PUSH20 0xFFFFFFFFFFFFFFFFFFFFFFFFFFFFFFFFFFFFFFFF AND PUSH4 0x23B872DD ADDRESS CALLER SELFBALANCE PUSH1 0x40 MLOAD DUP5 PUSH4 0xFFFFFFFF AND PUSH1 0xE0 SHL DUP2 MSTORE PUSH1 0x4 ADD PUSH2 0x466 SWAP4 SWAP3 SWAP2 SWAP1 PUSH2 0x202E JUMP JUMPDEST PUSH1 0x20 PUSH1 0x40 MLOAD DUP1 DUP4 SUB DUP2 PUSH1 0x0 DUP8 GAS CALL ISZERO DUP1 ISZERO PUSH2 0x485 JUMPI RETURNDATASIZE PUSH1 0x0 DUP1 RETURNDATACOPY RETURNDATASIZE PUSH1 0x0 REVERT JUMPDEST POP POP POP POP PUSH1 0x40 MLOAD RETURNDATASIZE PUSH1 0x1F NOT PUSH1 0x1F DUP3 ADD AND DUP3 ADD DUP1 PUSH1 0x40 MSTORE POP DUP2 ADD SWAP1 PUSH2 0x4A9 SWAP2 SWAP1 PUSH2 0x2001 JUMP JUMPDEST POP POP POP JUMP JUMPDEST PUSH2 0x4B6 PUSH2 0xC9A JUMP JUMPDEST PUSH1 0x0 DUP1 PUSH20 0xFFFFFFFFFFFFFFFFFFFFFFFFFFFFFFFFFFFFFFFF AND DUP3 PUSH20 0xFFFFFFFFFFFFFFFFFFFFFFFFFFFFFFFFFFFFFFFF AND SUB PUSH2 0x557 JUMPI PUSH1 0x0 ADDRESS SWAP1 POP DUP1 PUSH20 0xFFFFFFFFFFFFFFFFFFFFFFFFFFFFFFFFFFFFFFFF AND BALANCE SWAP2 POP CALLER PUSH20 0xFFFFFFFFFFFFFFFFFFFFFFFFFFFFFFFFFFFFFFFF AND PUSH2 0x8FC DUP4 SWAP1 DUP2 ISZERO MUL SWAP1 PUSH1 0x40 MLOAD PUSH1 0x0 PUSH1 0x40 MLOAD DUP1 DUP4 SUB DUP2 DUP6 DUP9 DUP9 CALL SWAP4 POP POP POP POP ISZERO DUP1 ISZERO PUSH2 0x550 JUMPI RETURNDATASIZE PUSH1 0x0 DUP1 RETURNDATACOPY RETURNDATASIZE PUSH1 0x0 REVERT JUMPDEST POP POP PUSH2 0x5FF JUMP JUMPDEST DUP2 PUSH20 0xFFFFFFFFFFFFFFFFFFFFFFFFFFFFFFFFFFFFFFFF AND PUSH4 0x70A08231 ADDRESS PUSH1 0x40 MLOAD DUP3 PUSH4 0xFFFFFFFF AND PUSH1 0xE0 SHL DUP2 MSTORE PUSH1 0x4 ADD PUSH2 0x590 SWAP2 SWAP1 PUSH2 0x1C0B JUMP JUMPDEST PUSH1 0x20 PUSH1 0x40 MLOAD DUP1 DUP4 SUB DUP2 DUP7 GAS STATICCALL ISZERO DUP1 ISZERO PUSH2 0x5AD JUMPI RETURNDATASIZE PUSH1 0x0 DUP1 RETURNDATACOPY RETURNDATASIZE PUSH1 0x0 REVERT JUMPDEST POP POP POP POP PUSH1 0x40 MLOAD RETURNDATASIZE PUSH1 0x1F NOT PUSH1 0x1F DUP3 ADD AND DUP3 ADD DUP1 PUSH1 0x40 MSTORE POP DUP2 ADD SWAP1 PUSH2 0x5D1 SWAP2 SWAP1 PUSH2 0x207A JUMP JUMPDEST SWAP1 POP PUSH2 0x5FE CALLER DUP3 DUP5 PUSH20 0xFFFFFFFFFFFFFFFFFFFFFFFFFFFFFFFFFFFFFFFF AND PUSH2 0xE3F SWAP1 SWAP3 SWAP2 SWAP1 PUSH4 0xFFFFFFFF AND JUMP JUMPDEST JUMPDEST DUP2 PUSH20 0xFFFFFFFFFFFFFFFFFFFFFFFFFFFFFFFFFFFFFFFF AND CALLER PUSH20 0xFFFFFFFFFFFFFFFFFFFFFFFFFFFFFFFFFFFFFFFF AND PUSH32 0x9207361CC2A04B9C7A06691DF1EB87C6A63957AE88BF01D0D18C81E3D1272099 DUP4 PUSH1 0x40 MLOAD PUSH2 0x65C SWAP2 SWAP1 PUSH2 0x1EFC JUMP JUMPDEST PUSH1 0x40 MLOAD DUP1 SWAP2 SUB SWAP1 LOG3 POP POP JUMP JUMPDEST PUSH2 0x670 PUSH2 0xC9A JUMP JUMPDEST DUP1 PUSH1 0x2 PUSH1 0x0 PUSH2 0x100 EXP DUP2 SLOAD DUP2 PUSH1 0xFF MUL NOT AND SWAP1 DUP4 ISZERO ISZERO MUL OR SWAP1 SSTORE POP POP JUMP JUMPDEST PUSH2 0x695 PUSH2 0xC9A JUMP JUMPDEST PUSH1 0x1 DUP5 DUP5 SWAP1 POP GT DUP1 ISZERO PUSH2 0x6AD JUMPI POP DUP4 DUP4 SWAP1 POP DUP3 DUP3 SWAP1 POP EQ JUMPDEST PUSH2 0x6EC JUMPI PUSH1 0x40 MLOAD PUSH32 0x8C379A000000000000000000000000000000000000000000000000000000000 DUP2 MSTORE PUSH1 0x4 ADD PUSH2 0x6E3 SWAP1 PUSH2 0x1F74 JUMP JUMPDEST PUSH1 0x40 MLOAD DUP1 SWAP2 SUB SWAP1 REVERT JUMPDEST PUSH1 0x0 DUP5 DUP5 PUSH1 0x1 DUP2 DUP2 LT PUSH2 0x702 JUMPI PUSH2 0x701 PUSH2 0x1F94 JUMP JUMPDEST JUMPDEST SWAP1 POP PUSH1 0x20 MUL ADD PUSH1 0x20 DUP2 ADD SWAP1 PUSH2 0x717 SWAP2 SWAP1 PUSH2 0x1AE9 JUMP JUMPDEST PUSH1 0x40 MLOAD PUSH1 0x20 ADD PUSH2 0x727 SWAP2 SWAP1 PUSH2 0x1C0B JUMP JUMPDEST PUSH1 0x40 MLOAD PUSH1 0x20 DUP2 DUP4 SUB SUB DUP2 MSTORE SWAP1 PUSH1 0x40 MSTORE SWAP1 POP PUSH2 0x785 DUP6 DUP6 PUSH1 0x0 DUP2 DUP2 LT PUSH2 0x74F JUMPI PUSH2 0x74E PUSH2 0x1F94 JUMP JUMPDEST JUMPDEST SWAP1 POP PUSH1 0x20 MUL ADD PUSH1 0x20 DUP2 ADD SWAP1 PUSH2 0x764 SWAP2 SWAP1 PUSH2 0x1AE9 JUMP JUMPDEST DUP5 DUP5 PUSH1 0x0 DUP2 DUP2 LT PUSH2 0x778 JUMPI PUSH2 0x777 PUSH2 0x1F94 JUMP JUMPDEST JUMPDEST SWAP1 POP PUSH1 0x20 MUL ADD CALLDATALOAD DUP4 PUSH2 0xD21 JUMP JUMPDEST POP POP POP POP POP JUMP JUMPDEST PUSH2 0x794 PUSH2 0xC9A JUMP JUMPDEST PUSH2 0x79E PUSH1 0x0 PUSH2 0xEBE JUMP JUMPDEST JUMP JUMPDEST PUSH1 0x0 DUP1 PUSH1 0x0 SWAP1 SLOAD SWAP1 PUSH2 0x100 EXP SWAP1 DIV PUSH20 0xFFFFFFFFFFFFFFFFFFFFFFFFFFFFFFFFFFFFFFFF AND SWAP1 POP SWAP1 JUMP JUMPDEST PUSH2 0x7D1 PUSH2 0xC9A JUMP JUMPDEST PUSH1 0x0 DUP4 GT PUSH2 0x814 JUMPI PUSH1 0x40 MLOAD PUSH32 0x8C379A000000000000000000000000000000000000000000000000000000000 DUP2 MSTORE PUSH1 0x4 ADD PUSH2 0x80B SWAP1 PUSH2 0x1F74 JUMP JUMPDEST PUSH1 0x40 MLOAD DUP1 SWAP2 SUB SWAP1 REVERT JUMPDEST DUP1 DUP3 SUB PUSH2 0x856 JUMPI PUSH1 0x40 MLOAD PUSH32 0x8C379A000000000000000000000000000000000000000000000000000000000 DUP2 MSTORE PUSH1 0x4 ADD PUSH2 0x84D SWAP1 PUSH2 0x2119 JUMP JUMPDEST PUSH1 0x40 MLOAD DUP1 SWAP2 SUB SWAP1 REVERT JUMPDEST PUSH1 0x0 DUP5 PUSH1 0x40 MLOAD PUSH1 0x20 ADD PUSH2 0x869 SWAP2 SWAP1 PUSH2 0x1C0B JUMP JUMPDEST PUSH1 0x40 MLOAD PUSH1 0x20 DUP2 DUP4 SUB SUB DUP2 MSTORE SWAP1 PUSH1 0x40 MSTORE SWAP1 POP PUSH2 0x885 DUP7 DUP6 DUP4 PUSH2 0xD21 JUMP JUMPDEST POP POP POP POP POP POP JUMP JUMPDEST PUSH1 0x0 DUP1 DUP11 DUP11 PUSH1 0x0 DUP2 DUP2 LT PUSH2 0x8A4 JUMPI PUSH2 0x8A3 PUSH2 0x1F94 JUMP JUMPDEST JUMPDEST SWAP1 POP PUSH1 0x20 MUL ADD PUSH1 0x20 DUP2 ADD SWAP1 PUSH2 0x8B9 SWAP2 SWAP1 PUSH2 0x1AE9 JUMP JUMPDEST SWAP1 POP PUSH1 0x0 DUP10 DUP10 PUSH1 0x0 DUP2 DUP2 LT PUSH2 0x8D1 JUMPI PUSH2 0x8D0 PUSH2 0x1F94 JUMP JUMPDEST JUMPDEST SWAP1 POP PUSH1 0x20 MUL ADD CALLDATALOAD SWAP1 POP PUSH1 0x0 DUP9 DUP9 PUSH1 0x0 DUP2 DUP2 LT PUSH2 0x8F0 JUMPI PUSH2 0x8EF PUSH2 0x1F94 JUMP JUMPDEST JUMPDEST SWAP1 POP PUSH1 0x20 MUL ADD CALLDATALOAD SWAP1 POP PUSH32 0x0 PUSH20 0xFFFFFFFFFFFFFFFFFFFFFFFFFFFFFFFFFFFFFFFF AND CALLER PUSH20 0xFFFFFFFFFFFFFFFFFFFFFFFFFFFFFFFFFFFFFFFF AND EQ PUSH2 0x987 JUMPI PUSH1 0x40 MLOAD PUSH32 0x8C379A000000000000000000000000000000000000000000000000000000000 DUP2 MSTORE PUSH1 0x4 ADD PUSH2 0x97E SWAP1 PUSH2 0x2185 JUMP JUMPDEST PUSH1 0x40 MLOAD DUP1 SWAP2 SUB SWAP1 REVERT JUMPDEST PUSH1 0x0 DUP7 DUP7 DUP2 ADD SWAP1 PUSH2 0x998 SWAP2 SWAP1 PUSH2 0x21E3 JUMP JUMPDEST SWAP1 POP PUSH2 0x9A5 DUP5 DUP5 DUP4 PUSH2 0xF82 JUMP JUMPDEST POP PUSH1 0x0 DUP3 DUP5 PUSH2 0x9B4 SWAP2 SWAP1 PUSH2 0x223F JUMP JUMPDEST SWAP1 POP DUP5 PUSH20 0xFFFFFFFFFFFFFFFFFFFFFFFFFFFFFFFFFFFFFFFF AND PUSH4 0x95EA7B3 PUSH32 0x0 DUP4 PUSH1 0x40 MLOAD DUP4 PUSH4 0xFFFFFFFF AND PUSH1 0xE0 SHL DUP2 MSTORE PUSH1 0x4 ADD PUSH2 0xA11 SWAP3 SWAP2 SWAP1 PUSH2 0x1FC3 JUMP JUMPDEST PUSH1 0x20 PUSH1 0x40 MLOAD DUP1 DUP4 SUB DUP2 PUSH1 0x0 DUP8 GAS CALL ISZERO DUP1 ISZERO PUSH2 0xA30 JUMPI RETURNDATASIZE PUSH1 0x0 DUP1 RETURNDATACOPY RETURNDATASIZE PUSH1 0x0 REVERT JUMPDEST POP POP POP POP PUSH1 0x40 MLOAD RETURNDATASIZE PUSH1 0x1F NOT PUSH1 0x1F DUP3 ADD AND DUP3 ADD DUP1 PUSH1 0x40 MSTORE POP DUP2 ADD SWAP1 PUSH2 0xA54 SWAP2 SWAP1 PUSH2 0x2001 JUMP JUMPDEST POP PUSH1 0x1 SWAP6 POP POP POP POP POP POP SWAP10 SWAP9 POP POP POP POP POP POP POP POP POP JUMP JUMPDEST PUSH32 0x0 DUP2 JUMP JUMPDEST PUSH2 0xA97 PUSH2 0xC9A JUMP JUMPDEST DUP1 PUSH1 0x1 DUP2 SWAP1 SSTORE POP POP JUMP JUMPDEST PUSH2 0xAA9 PUSH2 0xC9A JUMP JUMPDEST PUSH1 0x0 DUP2 PUSH20 0xFFFFFFFFFFFFFFFFFFFFFFFFFFFFFFFFFFFFFFFF AND PUSH4 0xE6A43905 DUP7 DUP6 PUSH1 0x40 MLOAD DUP4 PUSH4 0xFFFFFFFF AND PUSH1 0xE0 SHL DUP2 MSTORE PUSH1 0x4 ADD PUSH2 0xAE6 SWAP3 SWAP2 SWAP1 PUSH2 0x2273 JUMP JUMPDEST PUSH1 0x20 PUSH1 0x40 MLOAD DUP1 DUP4 SUB DUP2 DUP7 GAS STATICCALL ISZERO DUP1 ISZERO PUSH2 0xB03 JUMPI RETURNDATASIZE PUSH1 0x0 DUP1 RETURNDATACOPY RETURNDATASIZE PUSH1 0x0 REVERT JUMPDEST POP POP POP POP PUSH1 0x40 MLOAD RETURNDATASIZE PUSH1 0x1F NOT PUSH1 0x1F DUP3 ADD AND DUP3 ADD DUP1 PUSH1 0x40 MSTORE POP DUP2 ADD SWAP1 PUSH2 0xB27 SWAP2 SWAP1 PUSH2 0x22B1 JUMP JUMPDEST SWAP1 POP PUSH1 0x0 PUSH20 0xFFFFFFFFFFFFFFFFFFFFFFFFFFFFFFFFFFFFFFFF AND DUP2 PUSH20 0xFFFFFFFFFFFFFFFFFFFFFFFFFFFFFFFFFFFFFFFF AND SUB PUSH2 0xB98 JUMPI PUSH1 0x40 MLOAD PUSH32 0x8C379A000000000000000000000000000000000000000000000000000000000 DUP2 MSTORE PUSH1 0x4 ADD PUSH2 0xB8F SWAP1 PUSH2 0x232A JUMP JUMPDEST PUSH1 0x40 MLOAD DUP1 SWAP2 SUB SWAP1 REVERT JUMPDEST PUSH1 0x0 DUP4 PUSH1 0x40 MLOAD PUSH1 0x20 ADD PUSH2 0xBAB SWAP2 SWAP1 PUSH2 0x1C0B JUMP JUMPDEST PUSH1 0x40 MLOAD PUSH1 0x20 DUP2 DUP4 SUB SUB DUP2 MSTORE SWAP1 PUSH1 0x40 MSTORE SWAP1 POP PUSH2 0xBC7 DUP7 DUP7 DUP4 PUSH2 0xD21 JUMP JUMPDEST POP POP POP POP POP POP JUMP JUMPDEST PUSH2 0xBD7 PUSH2 0xC9A JUMP JUMPDEST PUSH1 0x0 PUSH20 0xFFFFFFFFFFFFFFFFFFFFFFFFFFFFFFFFFFFFFFFF AND DUP2 PUSH20 0xFFFFFFFFFFFFFFFFFFFFFFFFFFFFFFFFFFFFFFFF AND SUB PUSH2 0xC49 JUMPI PUSH1 0x0 PUSH1 0x40 MLOAD PUSH32 0x1E4FBDF700000000000000000000000000000000000000000000000000000000 DUP2 MSTORE PUSH1 0x4 ADD PUSH2 0xC40 SWAP2 SWAP1 PUSH2 0x1C0B JUMP JUMPDEST PUSH1 0x40 MLOAD DUP1 SWAP2 SUB SWAP1 REVERT JUMPDEST PUSH2 0xC52 DUP2 PUSH2 0xEBE JUMP JUMPDEST POP JUMP JUMPDEST PUSH1 0x0 DUP1 PUSH1 0x0 SWAP1 POP DUP3 DUP5 GT ISZERO PUSH2 0xC76 JUMPI PUSH2 0xC6F DUP6 DUP6 DUP6 PUSH2 0x10C5 JUMP JUMPDEST SWAP1 POP PUSH2 0xC8D JUMP JUMPDEST DUP4 DUP4 GT ISZERO PUSH2 0xC8C JUMPI PUSH2 0xC89 DUP6 DUP5 DUP7 PUSH2 0x10C5 JUMP JUMPDEST SWAP1 POP JUMPDEST JUMPDEST DUP1 SWAP2 POP POP SWAP6 SWAP5 POP POP POP POP POP JUMP JUMPDEST PUSH2 0xCA2 PUSH2 0x10F2 JUMP JUMPDEST PUSH20 0xFFFFFFFFFFFFFFFFFFFFFFFFFFFFFFFFFFFFFFFF AND PUSH2 0xCC0 PUSH2 0x7A0 JUMP JUMPDEST PUSH20 0xFFFFFFFFFFFFFFFFFFFFFFFFFFFFFFFFFFFFFFFF AND EQ PUSH2 0xD1F JUMPI PUSH2 0xCE3 PUSH2 0x10F2 JUMP JUMPDEST PUSH1 0x40 MLOAD PUSH32 0x118CDAA700000000000000000000000000000000000000000000000000000000 DUP2 MSTORE PUSH1 0x4 ADD PUSH2 0xD16 SWAP2 SWAP1 PUSH2 0x1C0B JUMP JUMPDEST PUSH1 0x40 MLOAD DUP1 SWAP2 SUB SWAP1 REVERT JUMPDEST JUMP JUMPDEST PUSH1 0x0 PUSH1 0x1 PUSH8 0xFFFFFFFFFFFFFFFF DUP2 GT ISZERO PUSH2 0xD3E JUMPI PUSH2 0xD3D PUSH2 0x234A JUMP JUMPDEST JUMPDEST PUSH1 0x40 MLOAD SWAP1 DUP1 DUP3 MSTORE DUP1 PUSH1 0x20 MUL PUSH1 0x20 ADD DUP3 ADD PUSH1 0x40 MSTORE DUP1 ISZERO PUSH2 0xD6C JUMPI DUP2 PUSH1 0x20 ADD PUSH1 0x20 DUP3 MUL DUP1 CALLDATASIZE DUP4 CALLDATACOPY DUP1 DUP3 ADD SWAP2 POP POP SWAP1 POP JUMPDEST POP SWAP1 POP DUP4 DUP2 PUSH1 0x0 DUP2 MLOAD DUP2 LT PUSH2 0xD84 JUMPI PUSH2 0xD83 PUSH2 0x1F94 JUMP JUMPDEST JUMPDEST PUSH1 0x20 MUL PUSH1 0x20 ADD ADD SWAP1 PUSH20 0xFFFFFFFFFFFFFFFFFFFFFFFFFFFFFFFFFFFFFFFF AND SWAP1 DUP2 PUSH20 0xFFFFFFFFFFFFFFFFFFFFFFFFFFFFFFFFFFFFFFFF AND DUP2 MSTORE POP POP PUSH1 0x0 PUSH1 0x1 PUSH8 0xFFFFFFFFFFFFFFFF DUP2 GT ISZERO PUSH2 0xDDB JUMPI PUSH2 0xDDA PUSH2 0x234A JUMP JUMPDEST JUMPDEST PUSH1 0x40 MLOAD SWAP1 DUP1 DUP3 MSTORE DUP1 PUSH1 0x20 MUL PUSH1 0x20 ADD DUP3 ADD PUSH1 0x40 MSTORE DUP1 ISZERO PUSH2 0xE09 JUMPI DUP2 PUSH1 0x20 ADD PUSH1 0x20 DUP3 MUL DUP1 CALLDATASIZE DUP4 CALLDATACOPY DUP1 DUP3 ADD SWAP2 POP POP SWAP1 POP JUMPDEST POP SWAP1 POP DUP4 DUP2 PUSH1 0x0 DUP2 MLOAD DUP2 LT PUSH2 0xE21 JUMPI PUSH2 0xE20 PUSH2 0x1F94 JUMP JUMPDEST JUMPDEST PUSH1 0x20 MUL PUSH1 0x20 ADD ADD DUP2 DUP2 MSTORE POP POP PUSH2 0xE38 DUP3 DUP3 DUP6 PUSH2 0x10FA JUMP JUMPDEST POP POP POP POP POP JUMP JUMPDEST PUSH2 0xEB9 DUP4 DUP5 PUSH20 0xFFFFFFFFFFFFFFFFFFFFFFFFFFFFFFFFFFFFFFFF AND PUSH4 0xA9059CBB DUP6 DUP6 PUSH1 0x40 MLOAD PUSH1 0x24 ADD PUSH2 0xE72 SWAP3 SWAP2 SWAP1 PUSH2 0x1FC3 JUMP JUMPDEST PUSH1 0x40 MLOAD PUSH1 0x20 DUP2 DUP4 SUB SUB DUP2 MSTORE SWAP1 PUSH1 0x40 MSTORE SWAP2 POP PUSH1 0xE0 SHL PUSH1 0x20 DUP3 ADD DUP1 MLOAD PUSH28 0xFFFFFFFFFFFFFFFFFFFFFFFFFFFFFFFFFFFFFFFFFFFFFFFFFFFFFFFF DUP4 DUP2 DUP4 AND OR DUP4 MSTORE POP POP POP POP PUSH2 0x122E JUMP JUMPDEST POP POP POP JUMP JUMPDEST PUSH1 0x0 DUP1 PUSH1 0x0 SWAP1 SLOAD SWAP1 PUSH2 0x100 EXP SWAP1 DIV PUSH20 0xFFFFFFFFFFFFFFFFFFFFFFFFFFFFFFFFFFFFFFFF AND SWAP1 POP DUP2 PUSH1 0x0 DUP1 PUSH2 0x100 EXP DUP2 SLOAD DUP2 PUSH20 0xFFFFFFFFFFFFFFFFFFFFFFFFFFFFFFFFFFFFFFFF MUL NOT AND SWAP1 DUP4 PUSH20 0xFFFFFFFFFFFFFFFFFFFFFFFFFFFFFFFFFFFFFFFF AND MUL OR SWAP1 SSTORE POP DUP2 PUSH20 0xFFFFFFFFFFFFFFFFFFFFFFFFFFFFFFFFFFFFFFFF AND DUP2 PUSH20 0xFFFFFFFFFFFFFFFFFFFFFFFFFFFFFFFFFFFFFFFF AND PUSH32 0x8BE0079C531659141344CD1FD0A4F28419497F9722A3DAAFE3B4186F6B6457E0 PUSH1 0x40 MLOAD PUSH1 0x40 MLOAD DUP1 SWAP2 SUB SWAP1 LOG3 POP POP JUMP JUMPDEST PUSH1 0x0 DUP1 PUSH2 0xF90 DUP5 DUP7 DUP6 PUSH2 0x12D0 JUMP JUMPDEST SWAP1 POP PUSH1 0x0 DUP1 PUSH1 0x2 DUP2 GT ISZERO PUSH2 0xFA7 JUMPI PUSH2 0xFA6 PUSH2 0x2379 JUMP JUMPDEST JUMPDEST DUP3 PUSH1 0x2 DUP2 GT ISZERO PUSH2 0xFBA JUMPI PUSH2 0xFB9 PUSH2 0x2379 JUMP JUMPDEST JUMPDEST SUB PUSH2 0x1023 JUMPI PUSH1 0x0 PUSH2 0xFED DUP7 PUSH32 0x0 DUP10 DUP9 PUSH2 0x13F9 JUMP JUMPDEST SWAP1 POP PUSH2 0x101B DUP2 PUSH32 0x0 DUP8 DUP11 PUSH2 0x13F9 JUMP JUMPDEST SWAP2 POP POP PUSH2 0x10B9 JUMP JUMPDEST PUSH1 0x1 PUSH1 0x2 DUP2 GT ISZERO PUSH2 0x1037 JUMPI PUSH2 0x1036 PUSH2 0x2379 JUMP JUMPDEST JUMPDEST DUP3 PUSH1 0x2 DUP2 GT ISZERO PUSH2 0x104A JUMPI PUSH2 0x1049 PUSH2 0x2379 JUMP JUMPDEST JUMPDEST SUB PUSH2 0x10B3 JUMPI PUSH1 0x0 PUSH2 0x107D DUP7 PUSH32 0x0 DUP10 DUP9 PUSH2 0x13F9 JUMP JUMPDEST SWAP1 POP PUSH2 0x10AB DUP2 PUSH32 0x0 DUP8 DUP11 PUSH2 0x13F9 JUMP JUMPDEST SWAP2 POP POP PUSH2 0x10B8 JUMP JUMPDEST PUSH1 0x0 DUP1 REVERT JUMPDEST JUMPDEST DUP1 SWAP3 POP POP POP SWAP4 SWAP3 POP POP POP JUMP JUMPDEST PUSH1 0x0 DUP3 DUP5 DUP4 DUP6 PUSH2 0x10D5 SWAP2 SWAP1 PUSH2 0x23A8 JUMP JUMPDEST PUSH2 0x10DF SWAP2 SWAP1 PUSH2 0x23DC JUMP JUMPDEST PUSH2 0x10E9 SWAP2 SWAP1 PUSH2 0x244D JUMP JUMPDEST SWAP1 POP SWAP4 SWAP3 POP POP POP JUMP JUMPDEST PUSH1 0x0 CALLER SWAP1 POP SWAP1 JUMP JUMPDEST PUSH1 0x0 ADDRESS SWAP1 POP PUSH1 0x0 ADDRESS SWAP1 POP PUSH1 0x0 DUP1 DUP7 MLOAD PUSH8 0xFFFFFFFFFFFFFFFF DUP2 GT ISZERO PUSH2 0x1122 JUMPI PUSH2 0x1121 PUSH2 0x234A JUMP JUMPDEST JUMPDEST PUSH1 0x40 MLOAD SWAP1 DUP1 DUP3 MSTORE DUP1 PUSH1 0x20 MUL PUSH1 0x20 ADD DUP3 ADD PUSH1 0x40 MSTORE DUP1 ISZERO PUSH2 0x1150 JUMPI DUP2 PUSH1 0x20 ADD PUSH1 0x20 DUP3 MUL DUP1 CALLDATASIZE DUP4 CALLDATACOPY DUP1 DUP3 ADD SWAP2 POP POP SWAP1 POP JUMPDEST POP SWAP1 POP PUSH1 0x0 JUMPDEST DUP8 MLOAD DUP2 LT ISZERO PUSH2 0x118D JUMPI PUSH1 0x0 DUP3 DUP3 DUP2 MLOAD DUP2 LT PUSH2 0x1174 JUMPI PUSH2 0x1173 PUSH2 0x1F94 JUMP JUMPDEST JUMPDEST PUSH1 0x20 MUL PUSH1 0x20 ADD ADD DUP2 DUP2 MSTORE POP POP DUP1 DUP1 PUSH1 0x1 ADD SWAP2 POP POP PUSH2 0x1156 JUMP JUMPDEST POP PUSH32 0x0 PUSH20 0xFFFFFFFFFFFFFFFFFFFFFFFFFFFFFFFFFFFFFFFF AND PUSH4 0xAB9C4B5D DUP6 DUP10 DUP10 DUP6 DUP9 DUP12 DUP10 PUSH1 0x40 MLOAD DUP9 PUSH4 0xFFFFFFFF AND PUSH1 0xE0 SHL DUP2 MSTORE PUSH1 0x4 ADD PUSH2 0x11F3 SWAP8 SWAP7 SWAP6 SWAP5 SWAP4 SWAP3 SWAP2 SWAP1 PUSH2 0x26A7 JUMP JUMPDEST PUSH1 0x0 PUSH1 0x40 MLOAD DUP1 DUP4 SUB DUP2 PUSH1 0x0 DUP8 DUP1 EXTCODESIZE ISZERO DUP1 ISZERO PUSH2 0x120D JUMPI PUSH1 0x0 DUP1 REVERT JUMPDEST POP GAS CALL ISZERO DUP1 ISZERO PUSH2 0x1221 JUMPI RETURNDATASIZE PUSH1 0x0 DUP1 RETURNDATACOPY RETURNDATASIZE PUSH1 0x0 REVERT JUMPDEST POP POP POP POP POP POP POP POP POP POP POP JUMP JUMPDEST PUSH1 0x0 DUP1 PUSH1 0x20 PUSH1 0x0 DUP5 MLOAD PUSH1 0x20 DUP7 ADD PUSH1 0x0 DUP9 GAS CALL DUP1 PUSH2 0x1251 JUMPI PUSH1 0x40 MLOAD RETURNDATASIZE PUSH1 0x0 DUP3 RETURNDATACOPY RETURNDATASIZE DUP2 REVERT JUMPDEST RETURNDATASIZE SWAP3 POP PUSH1 0x0 MLOAD SWAP2 POP POP PUSH1 0x0 DUP3 EQ PUSH2 0x126C JUMPI PUSH1 0x1 DUP2 EQ ISZERO PUSH2 0x1288 JUMP JUMPDEST PUSH1 0x0 DUP5 PUSH20 0xFFFFFFFFFFFFFFFFFFFFFFFFFFFFFFFFFFFFFFFF AND EXTCODESIZE EQ JUMPDEST ISZERO PUSH2 0x12CA JUMPI DUP4 PUSH1 0x40 MLOAD PUSH32 0x5274AFE700000000000000000000000000000000000000000000000000000000 DUP2 MSTORE PUSH1 0x4 ADD PUSH2 0x12C1 SWAP2 SWAP1 PUSH2 0x1C0B JUMP JUMPDEST PUSH1 0x40 MLOAD DUP1 SWAP2 SUB SWAP1 REVERT JUMPDEST POP POP POP POP JUMP JUMPDEST PUSH1 0x0 DUP1 PUSH2 0x12FF PUSH32 0x0 DUP6 DUP6 DUP9 PUSH2 0x1651 JUMP JUMPDEST SWAP1 POP PUSH1 0x0 PUSH2 0x132F PUSH32 0x0 DUP7 DUP7 DUP10 PUSH2 0x1651 JUMP JUMPDEST SWAP1 POP DUP1 DUP3 GT ISZERO PUSH2 0x138E JUMPI PUSH2 0x1344 DUP7 DUP4 DUP4 PUSH2 0x17EB JUMP JUMPDEST PUSH2 0x1383 JUMPI PUSH1 0x40 MLOAD PUSH32 0x8C379A000000000000000000000000000000000000000000000000000000000 DUP2 MSTORE PUSH1 0x4 ADD PUSH2 0x137A SWAP1 PUSH2 0x277E JUMP JUMPDEST PUSH1 0x40 MLOAD DUP1 SWAP2 SUB SWAP1 REVERT JUMPDEST PUSH1 0x0 SWAP3 POP POP POP PUSH2 0x13F2 JUMP JUMPDEST DUP1 DUP3 LT ISZERO PUSH2 0x13EB JUMPI PUSH2 0x13A1 DUP7 DUP3 DUP5 PUSH2 0x17EB JUMP JUMPDEST PUSH2 0x13E0 JUMPI PUSH1 0x40 MLOAD PUSH32 0x8C379A000000000000000000000000000000000000000000000000000000000 DUP2 MSTORE PUSH1 0x4 ADD PUSH2 0x13D7 SWAP1 PUSH2 0x277E JUMP JUMPDEST PUSH1 0x40 MLOAD DUP1 SWAP2 SUB SWAP1 REVERT JUMPDEST PUSH1 0x1 SWAP3 POP POP POP PUSH2 0x13F2 JUMP JUMPDEST PUSH1 0x2 SWAP3 POP POP POP JUMPDEST SWAP4 SWAP3 POP POP POP JUMP JUMPDEST PUSH1 0x0 DUP3 PUSH20 0xFFFFFFFFFFFFFFFFFFFFFFFFFFFFFFFFFFFFFFFF AND PUSH4 0x95EA7B3 DUP6 DUP8 PUSH1 0x40 MLOAD DUP4 PUSH4 0xFFFFFFFF AND PUSH1 0xE0 SHL DUP2 MSTORE PUSH1 0x4 ADD PUSH2 0x1436 SWAP3 SWAP2 SWAP1 PUSH2 0x1FC3 JUMP JUMPDEST PUSH1 0x20 PUSH1 0x40 MLOAD DUP1 DUP4 SUB DUP2 PUSH1 0x0 DUP8 GAS CALL ISZERO DUP1 ISZERO PUSH2 0x1455 JUMPI RETURNDATASIZE PUSH1 0x0 DUP1 RETURNDATACOPY RETURNDATASIZE PUSH1 0x0 REVERT JUMPDEST POP POP POP POP PUSH1 0x40 MLOAD RETURNDATASIZE PUSH1 0x1F NOT PUSH1 0x1F DUP3 ADD AND DUP3 ADD DUP1 PUSH1 0x40 MSTORE POP DUP2 ADD SWAP1 PUSH2 0x1479 SWAP2 SWAP1 PUSH2 0x2001 JUMP JUMPDEST POP PUSH1 0x0 PUSH1 0x64 PUSH1 0x5F PUSH2 0x148C DUP8 DUP8 DUP8 DUP12 PUSH2 0x1651 JUMP JUMPDEST PUSH2 0x1496 SWAP2 SWAP1 PUSH2 0x23DC JUMP JUMPDEST PUSH2 0x14A0 SWAP2 SWAP1 PUSH2 0x244D JUMP JUMPDEST SWAP1 POP PUSH1 0x0 PUSH1 0x2 PUSH8 0xFFFFFFFFFFFFFFFF DUP2 GT ISZERO PUSH2 0x14BF JUMPI PUSH2 0x14BE PUSH2 0x234A JUMP JUMPDEST JUMPDEST PUSH1 0x40 MLOAD SWAP1 DUP1 DUP3 MSTORE DUP1 PUSH1 0x20 MUL PUSH1 0x20 ADD DUP3 ADD PUSH1 0x40 MSTORE DUP1 ISZERO PUSH2 0x14ED JUMPI DUP2 PUSH1 0x20 ADD PUSH1 0x20 DUP3 MUL DUP1 CALLDATASIZE DUP4 CALLDATACOPY DUP1 DUP3 ADD SWAP2 POP POP SWAP1 POP JUMPDEST POP SWAP1 POP DUP5 DUP2 PUSH1 0x0 DUP2 MLOAD DUP2 LT PUSH2 0x1505 JUMPI PUSH2 0x1504 PUSH2 0x1F94 JUMP JUMPDEST JUMPDEST PUSH1 0x20 MUL PUSH1 0x20 ADD ADD SWAP1 PUSH20 0xFFFFFFFFFFFFFFFFFFFFFFFFFFFFFFFFFFFFFFFF AND SWAP1 DUP2 PUSH20 0xFFFFFFFFFFFFFFFFFFFFFFFFFFFFFFFFFFFFFFFF AND DUP2 MSTORE POP POP DUP4 DUP2 PUSH1 0x1 DUP2 MLOAD DUP2 LT PUSH2 0x1554 JUMPI PUSH2 0x1553 PUSH2 0x1F94 JUMP JUMPDEST JUMPDEST PUSH1 0x20 MUL PUSH1 0x20 ADD ADD SWAP1 PUSH20 0xFFFFFFFFFFFFFFFFFFFFFFFFFFFFFFFFFFFFFFFF AND SWAP1 DUP2 PUSH20 0xFFFFFFFFFFFFFFFFFFFFFFFFFFFFFFFFFFFFFFFF AND DUP2 MSTORE POP POP PUSH1 0x0 DUP7 PUSH20 0xFFFFFFFFFFFFFFFFFFFFFFFFFFFFFFFFFFFFFFFF AND PUSH4 0x38ED1739 DUP10 DUP6 DUP6 ADDRESS PUSH2 0x12C TIMESTAMP PUSH2 0x15BE SWAP2 SWAP1 PUSH2 0x223F JUMP JUMPDEST PUSH1 0x40 MLOAD DUP7 PUSH4 0xFFFFFFFF AND PUSH1 0xE0 SHL DUP2 MSTORE PUSH1 0x4 ADD PUSH2 0x15DE SWAP6 SWAP5 SWAP4 SWAP3 SWAP2 SWAP1 PUSH2 0x279E JUMP JUMPDEST PUSH1 0x0 PUSH1 0x40 MLOAD DUP1 DUP4 SUB DUP2 PUSH1 0x0 DUP8 GAS CALL ISZERO DUP1 ISZERO PUSH2 0x15FD JUMPI RETURNDATASIZE PUSH1 0x0 DUP1 RETURNDATACOPY RETURNDATASIZE PUSH1 0x0 REVERT JUMPDEST POP POP POP POP PUSH1 0x40 MLOAD RETURNDATASIZE PUSH1 0x0 DUP3 RETURNDATACOPY RETURNDATASIZE PUSH1 0x1F NOT PUSH1 0x1F DUP3 ADD AND DUP3 ADD DUP1 PUSH1 0x40 MSTORE POP DUP2 ADD SWAP1 PUSH2 0x1626 SWAP2 SWAP1 PUSH2 0x2907 JUMP JUMPDEST PUSH1 0x1 DUP2 MLOAD DUP2 LT PUSH2 0x1639 JUMPI PUSH2 0x1638 PUSH2 0x1F94 JUMP JUMPDEST JUMPDEST PUSH1 0x20 MUL PUSH1 0x20 ADD ADD MLOAD SWAP1 POP DUP1 SWAP4 POP POP POP POP SWAP5 SWAP4 POP POP POP POP JUMP JUMPDEST PUSH1 0x0 DUP1 PUSH1 0x2 PUSH8 0xFFFFFFFFFFFFFFFF DUP2 GT ISZERO PUSH2 0x166F JUMPI PUSH2 0x166E PUSH2 0x234A JUMP JUMPDEST JUMPDEST PUSH1 0x40 MLOAD SWAP1 DUP1 DUP3 MSTORE DUP1 PUSH1 0x20 MUL PUSH1 0x20 ADD DUP3 ADD PUSH1 0x40 MSTORE DUP1 ISZERO PUSH2 0x169D JUMPI DUP2 PUSH1 0x20 ADD PUSH1 0x20 DUP3 MUL DUP1 CALLDATASIZE DUP4 CALLDATACOPY DUP1 DUP3 ADD SWAP2 POP POP SWAP1 POP JUMPDEST POP SWAP1 POP DUP5 DUP2 PUSH1 0x0 DUP2 MLOAD DUP2 LT PUSH2 0x16B5 JUMPI PUSH2 0x16B4 PUSH2 0x1F94 JUMP JUMPDEST JUMPDEST PUSH1 0x20 MUL PUSH1 0x20 ADD ADD SWAP1 PUSH20 0xFFFFFFFFFFFFFFFFFFFFFFFFFFFFFFFFFFFFFFFF AND SWAP1 DUP2 PUSH20 0xFFFFFFFFFFFFFFFFFFFFFFFFFFFFFFFFFFFFFFFF AND DUP2 MSTORE POP POP DUP4 DUP2 PUSH1 0x1 DUP2 MLOAD DUP2 LT PUSH2 0x1704 JUMPI PUSH2 0x1703 PUSH2 0x1F94 JUMP JUMPDEST JUMPDEST PUSH1 0x20 MUL PUSH1 0x20 ADD ADD SWAP1 PUSH20 0xFFFFFFFFFFFFFFFFFFFFFFFFFFFFFFFFFFFFFFFF AND SWAP1 DUP2 PUSH20 0xFFFFFFFFFFFFFFFFFFFFFFFFFFFFFFFFFFFFFFFF AND DUP2 MSTORE POP POP PUSH1 0x0 DUP7 PUSH20 0xFFFFFFFFFFFFFFFFFFFFFFFFFFFFFFFFFFFFFFFF AND PUSH4 0xD06CA61F DUP6 DUP5 PUSH1 0x40 MLOAD DUP4 PUSH4 0xFFFFFFFF AND PUSH1 0xE0 SHL DUP2 MSTORE PUSH1 0x4 ADD PUSH2 0x177B SWAP3 SWAP2 SWAP1 PUSH2 0x2950 JUMP JUMPDEST PUSH1 0x0 PUSH1 0x40 MLOAD DUP1 DUP4 SUB DUP2 DUP7 GAS STATICCALL ISZERO DUP1 ISZERO PUSH2 0x1798 JUMPI RETURNDATASIZE PUSH1 0x0 DUP1 RETURNDATACOPY RETURNDATASIZE PUSH1 0x0 REVERT JUMPDEST POP POP POP POP PUSH1 0x40 MLOAD RETURNDATASIZE PUSH1 0x0 DUP3 RETURNDATACOPY RETURNDATASIZE PUSH1 0x1F NOT PUSH1 0x1F DUP3 ADD AND DUP3 ADD DUP1 PUSH1 0x40 MSTORE POP DUP2 ADD SWAP1 PUSH2 0x17C1 SWAP2 SWAP1 PUSH2 0x2907 JUMP JUMPDEST PUSH1 0x1 DUP2 MLOAD DUP2 LT PUSH2 0x17D4 JUMPI PUSH2 0x17D3 PUSH2 0x1F94 JUMP JUMPDEST JUMPDEST PUSH1 0x20 MUL PUSH1 0x20 ADD ADD MLOAD SWAP1 POP DUP1 SWAP3 POP POP POP SWAP5 SWAP4 POP POP POP POP JUMP JUMPDEST PUSH1 0x0 DUP1 DUP4 PUSH8 0xDE0B6B3A7640000 DUP5 DUP7 PUSH2 0x1804 SWAP2 SWAP1 PUSH2 0x23A8 JUMP JUMPDEST PUSH2 0x180E SWAP2 SWAP1 PUSH2 0x23DC JUMP JUMPDEST PUSH2 0x1818 SWAP2 SWAP1 PUSH2 0x244D JUMP JUMPDEST SWAP1 POP PUSH1 0x0 PUSH2 0x3E8 PUSH1 0x3 DUP8 PUSH2 0x182C SWAP2 SWAP1 PUSH2 0x23DC JUMP JUMPDEST PUSH1 0x2 PUSH2 0x1838 SWAP2 SWAP1 PUSH2 0x23DC JUMP JUMPDEST PUSH2 0x1842 SWAP2 SWAP1 PUSH2 0x244D JUMP JUMPDEST SWAP1 POP DUP1 DUP3 GT ISZERO PUSH2 0x1857 JUMPI PUSH1 0x1 SWAP3 POP POP POP PUSH2 0x185E JUMP JUMPDEST PUSH1 0x0 SWAP3 POP POP POP JUMPDEST SWAP4 SWAP3 POP POP POP JUMP JUMPDEST PUSH1 0x0 PUSH20 0xFFFFFFFFFFFFFFFFFFFFFFFFFFFFFFFFFFFFFFFF DUP3 AND SWAP1 POP SWAP2 SWAP1 POP JUMP JUMPDEST PUSH1 0x0 DUP2 SWAP1 POP SWAP2 SWAP1 POP JUMP JUMPDEST PUSH1 0x0 PUSH2 0x18AA PUSH2 0x18A5 PUSH2 0x18A0 DUP5 PUSH2 0x1865 JUMP JUMPDEST PUSH2 0x1885 JUMP JUMPDEST PUSH2 0x1865 JUMP JUMPDEST SWAP1 POP SWAP2 SWAP1 POP JUMP JUMPDEST PUSH1 0x0 PUSH2 0x18BC DUP3 PUSH2 0x188F JUMP JUMPDEST SWAP1 POP SWAP2 SWAP1 POP JUMP JUMPDEST PUSH1 0x0 PUSH2 0x18CE DUP3 PUSH2 0x18B1 JUMP JUMPDEST SWAP1 POP SWAP2 SWAP1 POP JUMP JUMPDEST PUSH2 0x18DE DUP2 PUSH2 0x18C3 JUMP JUMPDEST DUP3 MSTORE POP POP JUMP JUMPDEST PUSH1 0x0 PUSH1 0x20 DUP3 ADD SWAP1 POP PUSH2 0x18F9 PUSH1 0x0 DUP4 ADD DUP5 PUSH2 0x18D5 JUMP JUMPDEST SWAP3 SWAP2 POP POP JUMP JUMPDEST PUSH1 0x0 PUSH1 0x40 MLOAD SWAP1 POP SWAP1 JUMP JUMPDEST PUSH1 0x0 DUP1 REVERT JUMPDEST PUSH1 0x0 DUP1 REVERT JUMPDEST PUSH1 0x0 PUSH2 0x191E DUP3 PUSH2 0x1865 JUMP JUMPDEST SWAP1 POP SWAP2 SWAP1 POP JUMP JUMPDEST PUSH2 0x192E DUP2 PUSH2 0x1913 JUMP JUMPDEST DUP2 EQ PUSH2 0x1939 JUMPI PUSH1 0x0 DUP1 REVERT JUMPDEST POP JUMP JUMPDEST PUSH1 0x0 DUP2 CALLDATALOAD SWAP1 POP PUSH2 0x194B DUP2 PUSH2 0x1925 JUMP JUMPDEST SWAP3 SWAP2 POP POP JUMP JUMPDEST PUSH1 0x0 DUP1 REVERT JUMPDEST PUSH1 0x0 DUP1 REVERT JUMPDEST PUSH1 0x0 DUP1 REVERT JUMPDEST PUSH1 0x0 DUP1 DUP4 PUSH1 0x1F DUP5 ADD SLT PUSH2 0x1976 JUMPI PUSH2 0x1975 PUSH2 0x1951 JUMP JUMPDEST JUMPDEST DUP3 CALLDATALOAD SWAP1 POP PUSH8 0xFFFFFFFFFFFFFFFF DUP2 GT ISZERO PUSH2 0x1993 JUMPI PUSH2 0x1992 PUSH2 0x1956 JUMP JUMPDEST JUMPDEST PUSH1 0x20 DUP4 ADD SWAP2 POP DUP4 PUSH1 0x20 DUP3 MUL DUP4 ADD GT ISZERO PUSH2 0x19AF JUMPI PUSH2 0x19AE PUSH2 0x195B JUMP JUMPDEST JUMPDEST SWAP3 POP SWAP3 SWAP1 POP JUMP JUMPDEST PUSH1 0x0 DUP2 SWAP1 POP SWAP2 SWAP1 POP JUMP JUMPDEST PUSH2 0x19C9 DUP2 PUSH2 0x19B6 JUMP JUMPDEST DUP2 EQ PUSH2 0x19D4 JUMPI PUSH1 0x0 DUP1 REVERT JUMPDEST POP JUMP JUMPDEST PUSH1 0x0 DUP2 CALLDATALOAD SWAP1 POP PUSH2 0x19E6 DUP2 PUSH2 0x19C0 JUMP JUMPDEST SWAP3 SWAP2 POP POP JUMP JUMPDEST PUSH1 0x0 DUP1 DUP4 PUSH1 0x1F DUP5 ADD SLT PUSH2 0x1A02 JUMPI PUSH2 0x1A01 PUSH2 0x1951 JUMP JUMPDEST JUMPDEST DUP3 CALLDATALOAD SWAP1 POP PUSH8 0xFFFFFFFFFFFFFFFF DUP2 GT ISZERO PUSH2 0x1A1F JUMPI PUSH2 0x1A1E PUSH2 0x1956 JUMP JUMPDEST JUMPDEST PUSH1 0x20 DUP4 ADD SWAP2 POP DUP4 PUSH1 0x20 DUP3 MUL DUP4 ADD GT ISZERO PUSH2 0x1A3B JUMPI PUSH2 0x1A3A PUSH2 0x195B JUMP JUMPDEST JUMPDEST SWAP3 POP SWAP3 SWAP1 POP JUMP JUMPDEST PUSH1 0x0 DUP1 PUSH1 0x0 DUP1 PUSH1 0x0 DUP1 PUSH1 0x80 DUP8 DUP10 SUB SLT ISZERO PUSH2 0x1A5F JUMPI PUSH2 0x1A5E PUSH2 0x1909 JUMP JUMPDEST JUMPDEST PUSH1 0x0 PUSH2 0x1A6D DUP10 DUP3 DUP11 ADD PUSH2 0x193C JUMP JUMPDEST SWAP7 POP POP PUSH1 0x20 DUP8 ADD CALLDATALOAD PUSH8 0xFFFFFFFFFFFFFFFF DUP2 GT ISZERO PUSH2 0x1A8E JUMPI PUSH2 0x1A8D PUSH2 0x190E JUMP JUMPDEST JUMPDEST PUSH2 0x1A9A DUP10 DUP3 DUP11 ADD PUSH2 0x1960 JUMP JUMPDEST SWAP6 POP SWAP6 POP POP PUSH1 0x40 PUSH2 0x1AAD DUP10 DUP3 DUP11 ADD PUSH2 0x19D7 JUMP JUMPDEST SWAP4 POP POP PUSH1 0x60 DUP8 ADD CALLDATALOAD PUSH8 0xFFFFFFFFFFFFFFFF DUP2 GT ISZERO PUSH2 0x1ACE JUMPI PUSH2 0x1ACD PUSH2 0x190E JUMP JUMPDEST JUMPDEST PUSH2 0x1ADA DUP10 DUP3 DUP11 ADD PUSH2 0x19EC JUMP JUMPDEST SWAP3 POP SWAP3 POP POP SWAP3 SWAP6 POP SWAP3 SWAP6 POP SWAP3 SWAP6 JUMP JUMPDEST PUSH1 0x0 PUSH1 0x20 DUP3 DUP5 SUB SLT ISZERO PUSH2 0x1AFF JUMPI PUSH2 0x1AFE PUSH2 0x1909 JUMP JUMPDEST JUMPDEST PUSH1 0x0 PUSH2 0x1B0D DUP5 DUP3 DUP6 ADD PUSH2 0x193C JUMP JUMPDEST SWAP2 POP POP SWAP3 SWAP2 POP POP JUMP JUMPDEST PUSH1 0x0 DUP2 ISZERO ISZERO SWAP1 POP SWAP2 SWAP1 POP JUMP JUMPDEST PUSH2 0x1B2B DUP2 PUSH2 0x1B16 JUMP JUMPDEST DUP2 EQ PUSH2 0x1B36 JUMPI PUSH1 0x0 DUP1 REVERT JUMPDEST POP JUMP JUMPDEST PUSH1 0x0 DUP2 CALLDATALOAD SWAP1 POP PUSH2 0x1B48 DUP2 PUSH2 0x1B22 JUMP JUMPDEST SWAP3 SWAP2 POP POP JUMP JUMPDEST PUSH1 0x0 PUSH1 0x20 DUP3 DUP5 SUB SLT ISZERO PUSH2 0x1B64 JUMPI PUSH2 0x1B63 PUSH2 0x1909 JUMP JUMPDEST JUMPDEST PUSH1 0x0 PUSH2 0x1B72 DUP5 DUP3 DUP6 ADD PUSH2 0x1B39 JUMP JUMPDEST SWAP2 POP POP SWAP3 SWAP2 POP POP JUMP JUMPDEST PUSH1 0x0 DUP1 PUSH1 0x0 DUP1 PUSH1 0x40 DUP6 DUP8 SUB SLT ISZERO PUSH2 0x1B95 JUMPI PUSH2 0x1B94 PUSH2 0x1909 JUMP JUMPDEST JUMPDEST PUSH1 0x0 DUP6 ADD CALLDATALOAD PUSH8 0xFFFFFFFFFFFFFFFF DUP2 GT ISZERO PUSH2 0x1BB3 JUMPI PUSH2 0x1BB2 PUSH2 0x190E JUMP JUMPDEST JUMPDEST PUSH2 0x1BBF DUP8 DUP3 DUP9 ADD PUSH2 0x1960 JUMP JUMPDEST SWAP5 POP SWAP5 POP POP PUSH1 0x20 DUP6 ADD CALLDATALOAD PUSH8 0xFFFFFFFFFFFFFFFF DUP2 GT ISZERO PUSH2 0x1BE2 JUMPI PUSH2 0x1BE1 PUSH2 0x190E JUMP JUMPDEST JUMPDEST PUSH2 0x1BEE DUP8 DUP3 DUP9 ADD PUSH2 0x19EC JUMP JUMPDEST SWAP3 POP SWAP3 POP POP SWAP3 SWAP6 SWAP2 SWAP5 POP SWAP3 POP JUMP JUMPDEST PUSH2 0x1C05 DUP2 PUSH2 0x1913 JUMP JUMPDEST DUP3 MSTORE POP POP JUMP JUMPDEST PUSH1 0x0 PUSH1 0x20 DUP3 ADD SWAP1 POP PUSH2 0x1C20 PUSH1 0x0 DUP4 ADD DUP5 PUSH2 0x1BFC JUMP JUMPDEST SWAP3 SWAP2 POP POP JUMP JUMPDEST PUSH1 0x0 DUP1 PUSH1 0x0 DUP1 PUSH1 0x0 PUSH1 0xA0 DUP7 DUP9 SUB SLT ISZERO PUSH2 0x1C42 JUMPI PUSH2 0x1C41 PUSH2 0x1909 JUMP JUMPDEST JUMPDEST PUSH1 0x0 PUSH2 0x1C50 DUP9 DUP3 DUP10 ADD PUSH2 0x193C JUMP JUMPDEST SWAP6 POP POP PUSH1 0x20 PUSH2 0x1C61 DUP9 DUP3 DUP10 ADD PUSH2 0x193C JUMP JUMPDEST SWAP5 POP POP PUSH1 0x40 PUSH2 0x1C72 DUP9 DUP3 DUP10 ADD PUSH2 0x19D7 JUMP JUMPDEST SWAP4 POP POP PUSH1 0x60 PUSH2 0x1C83 DUP9 DUP3 DUP10 ADD PUSH2 0x19D7 JUMP JUMPDEST SWAP3 POP POP PUSH1 0x80 PUSH2 0x1C94 DUP9 DUP3 DUP10 ADD PUSH2 0x19D7 JUMP JUMPDEST SWAP2 POP POP SWAP3 SWAP6 POP SWAP3 SWAP6 SWAP1 SWAP4 POP JUMP JUMPDEST PUSH1 0x0 DUP1 DUP4 PUSH1 0x1F DUP5 ADD SLT PUSH2 0x1CB7 JUMPI PUSH2 0x1CB6 PUSH2 0x1951 JUMP JUMPDEST JUMPDEST DUP3 CALLDATALOAD SWAP1 POP PUSH8 0xFFFFFFFFFFFFFFFF DUP2 GT ISZERO PUSH2 0x1CD4 JUMPI PUSH2 0x1CD3 PUSH2 0x1956 JUMP JUMPDEST JUMPDEST PUSH1 0x20 DUP4 ADD SWAP2 POP DUP4 PUSH1 0x1 DUP3 MUL DUP4 ADD GT ISZERO PUSH2 0x1CF0 JUMPI PUSH2 0x1CEF PUSH2 0x195B JUMP JUMPDEST JUMPDEST SWAP3 POP SWAP3 SWAP1 POP JUMP JUMPDEST PUSH1 0x0 DUP1 PUSH1 0x0 DUP1 PUSH1 0x0 DUP1 PUSH1 0x0 DUP1 PUSH1 0x0 PUSH1 0xA0 DUP11 DUP13 SUB SLT ISZERO PUSH2 0x1D19 JUMPI PUSH2 0x1D18 PUSH2 0x1909 JUMP JUMPDEST JUMPDEST PUSH1 0x0 DUP11 ADD CALLDATALOAD PUSH8 0xFFFFFFFFFFFFFFFF DUP2 GT ISZERO PUSH2 0x1D37 JUMPI PUSH2 0x1D36 PUSH2 0x190E JUMP JUMPDEST JUMPDEST PUSH2 0x1D43 DUP13 DUP3 DUP14 ADD PUSH2 0x1960 JUMP JUMPDEST SWAP10 POP SWAP10 POP POP PUSH1 0x20 DUP11 ADD CALLDATALOAD PUSH8 0xFFFFFFFFFFFFFFFF DUP2 GT ISZERO PUSH2 0x1D66 JUMPI PUSH2 0x1D65 PUSH2 0x190E JUMP JUMPDEST JUMPDEST PUSH2 0x1D72 DUP13 DUP3 DUP14 ADD PUSH2 0x19EC JUMP JUMPDEST SWAP8 POP SWAP8 POP POP PUSH1 0x40 DUP11 ADD CALLDATALOAD PUSH8 0xFFFFFFFFFFFFFFFF DUP2 GT ISZERO PUSH2 0x1D95 JUMPI PUSH2 0x1D94 PUSH2 0x190E JUMP JUMPDEST JUMPDEST PUSH2 0x1DA1 DUP13 DUP3 DUP14 ADD PUSH2 0x19EC JUMP JUMPDEST SWAP6 POP SWAP6 POP POP PUSH1 0x60 PUSH2 0x1DB4 DUP13 DUP3 DUP14 ADD PUSH2 0x193C JUMP JUMPDEST SWAP4 POP POP PUSH1 0x80 DUP11 ADD CALLDATALOAD PUSH8 0xFFFFFFFFFFFFFFFF DUP2 GT ISZERO PUSH2 0x1DD5 JUMPI PUSH2 0x1DD4 PUSH2 0x190E JUMP JUMPDEST JUMPDEST PUSH2 0x1DE1 DUP13 DUP3 DUP14 ADD PUSH2 0x1CA1 JUMP JUMPDEST SWAP3 POP SWAP3 POP POP SWAP3 SWAP6 SWAP9 POP SWAP3 SWAP6 SWAP9 POP SWAP3 SWAP6 SWAP9 JUMP JUMPDEST PUSH2 0x1DFC DUP2 PUSH2 0x1B16 JUMP JUMPDEST DUP3 MSTORE POP POP JUMP JUMPDEST PUSH1 0x0 PUSH1 0x20 DUP3 ADD SWAP1 POP PUSH2 0x1E17 PUSH1 0x0 DUP4 ADD DUP5 PUSH2 0x1DF3 JUMP JUMPDEST SWAP3 SWAP2 POP POP JUMP JUMPDEST PUSH1 0x0 PUSH2 0x1E28 DUP3 PUSH2 0x18B1 JUMP JUMPDEST SWAP1 POP SWAP2 SWAP1 POP JUMP JUMPDEST PUSH2 0x1E38 DUP2 PUSH2 0x1E1D JUMP JUMPDEST DUP3 MSTORE POP POP JUMP JUMPDEST PUSH1 0x0 PUSH1 0x20 DUP3 ADD SWAP1 POP PUSH2 0x1E53 PUSH1 0x0 DUP4 ADD DUP5 PUSH2 0x1E2F JUMP JUMPDEST SWAP3 SWAP2 POP POP JUMP JUMPDEST PUSH1 0x0 PUSH1 0x20 DUP3 DUP5 SUB SLT ISZERO PUSH2 0x1E6F JUMPI PUSH2 0x1E6E PUSH2 0x1909 JUMP JUMPDEST JUMPDEST PUSH1 0x0 PUSH2 0x1E7D DUP5 DUP3 DUP6 ADD PUSH2 0x19D7 JUMP JUMPDEST SWAP2 POP POP SWAP3 SWAP2 POP POP JUMP JUMPDEST PUSH1 0x0 DUP1 PUSH1 0x0 DUP1 PUSH1 0x80 DUP6 DUP8 SUB SLT ISZERO PUSH2 0x1EA0 JUMPI PUSH2 0x1E9F PUSH2 0x1909 JUMP JUMPDEST JUMPDEST PUSH1 0x0 PUSH2 0x1EAE DUP8 DUP3 DUP9 ADD PUSH2 0x193C JUMP JUMPDEST SWAP5 POP POP PUSH1 0x20 PUSH2 0x1EBF DUP8 DUP3 DUP9 ADD PUSH2 0x19D7 JUMP JUMPDEST SWAP4 POP POP PUSH1 0x40 PUSH2 0x1ED0 DUP8 DUP3 DUP9 ADD PUSH2 0x193C JUMP JUMPDEST SWAP3 POP POP PUSH1 0x60 PUSH2 0x1EE1 DUP8 DUP3 DUP9 ADD PUSH2 0x193C JUMP JUMPDEST SWAP2 POP POP SWAP3 SWAP6 SWAP2 SWAP5 POP SWAP3 POP JUMP JUMPDEST PUSH2 0x1EF6 DUP2 PUSH2 0x19B6 JUMP JUMPDEST DUP3 MSTORE POP POP JUMP JUMPDEST PUSH1 0x0 PUSH1 0x20 DUP3 ADD SWAP1 POP PUSH2 0x1F11 PUSH1 0x0 DUP4 ADD DUP5 PUSH2 0x1EED JUMP JUMPDEST SWAP3 SWAP2 POP POP JUMP JUMPDEST PUSH1 0x0 DUP3 DUP3 MSTORE PUSH1 0x20 DUP3 ADD SWAP1 POP SWAP3 SWAP2 POP POP JUMP JUMPDEST PUSH32 0x496E76616C696420706172616D65746572730000000000000000000000000000 PUSH1 0x0 DUP3 ADD MSTORE POP JUMP JUMPDEST PUSH1 0x0 PUSH2 0x1F5E PUSH1 0x12 DUP4 PUSH2 0x1F17 JUMP JUMPDEST SWAP2 POP PUSH2 0x1F69 DUP3 PUSH2 0x1F28 JUMP JUMPDEST PUSH1 0x20 DUP3 ADD SWAP1 POP SWAP2 SWAP1 POP JUMP JUMPDEST PUSH1 0x0 PUSH1 0x20 DUP3 ADD SWAP1 POP DUP2 DUP2 SUB PUSH1 0x0 DUP4 ADD MSTORE PUSH2 0x1F8D DUP2 PUSH2 0x1F51 JUMP JUMPDEST SWAP1 POP SWAP2 SWAP1 POP JUMP JUMPDEST PUSH32 0x4E487B7100000000000000000000000000000000000000000000000000000000 PUSH1 0x0 MSTORE PUSH1 0x32 PUSH1 0x4 MSTORE PUSH1 0x24 PUSH1 0x0 REVERT JUMPDEST PUSH1 0x0 PUSH1 0x40 DUP3 ADD SWAP1 POP PUSH2 0x1FD8 PUSH1 0x0 DUP4 ADD DUP6 PUSH2 0x1BFC JUMP JUMPDEST PUSH2 0x1FE5 PUSH1 0x20 DUP4 ADD DUP5 PUSH2 0x1EED JUMP JUMPDEST SWAP4 SWAP3 POP POP POP JUMP JUMPDEST PUSH1 0x0 DUP2 MLOAD SWAP1 POP PUSH2 0x1FFB DUP2 PUSH2 0x1B22 JUMP JUMPDEST SWAP3 SWAP2 POP POP JUMP JUMPDEST PUSH1 0x0 PUSH1 0x20 DUP3 DUP5 SUB SLT ISZERO PUSH2 0x2017 JUMPI PUSH2 0x2016 PUSH2 0x1909 JUMP JUMPDEST JUMPDEST PUSH1 0x0 PUSH2 0x2025 DUP5 DUP3 DUP6 ADD PUSH2 0x1FEC JUMP JUMPDEST SWAP2 POP POP SWAP3 SWAP2 POP POP JUMP JUMPDEST PUSH1 0x0 PUSH1 0x60 DUP3 ADD SWAP1 POP PUSH2 0x2043 PUSH1 0x0 DUP4 ADD DUP7 PUSH2 0x1BFC JUMP JUMPDEST PUSH2 0x2050 PUSH1 0x20 DUP4 ADD DUP6 PUSH2 0x1BFC JUMP JUMPDEST PUSH2 0x205D PUSH1 0x40 DUP4 ADD DUP5 PUSH2 0x1EED JUMP JUMPDEST SWAP5 SWAP4 POP POP POP POP JUMP JUMPDEST PUSH1 0x0 DUP2 MLOAD SWAP1 POP PUSH2 0x2074 DUP2 PUSH2 0x19C0 JUMP JUMPDEST SWAP3 SWAP2 POP POP JUMP JUMPDEST PUSH1 0x0 PUSH1 0x20 DUP3 DUP5 SUB SLT ISZERO PUSH2 0x2090 JUMPI PUSH2 0x208F PUSH2 0x1909 JUMP JUMPDEST JUMPDEST PUSH1 0x0 PUSH2 0x209E DUP5 DUP3 DUP6 ADD PUSH2 0x2065 JUMP JUMPDEST SWAP2 POP POP SWAP3 SWAP2 POP POP JUMP JUMPDEST PUSH32 0x4E6F2070726F66697461626C6520617262697472616765206F70706F7274756E PUSH1 0x0 DUP3 ADD MSTORE PUSH32 0x6974790000000000000000000000000000000000000000000000000000000000 PUSH1 0x20 DUP3 ADD MSTORE POP JUMP JUMPDEST PUSH1 0x0 PUSH2 0x2103 PUSH1 0x23 DUP4 PUSH2 0x1F17 JUMP JUMPDEST SWAP2 POP PUSH2 0x210E DUP3 PUSH2 0x20A7 JUMP JUMPDEST PUSH1 0x40 DUP3 ADD SWAP1 POP SWAP2 SWAP1 POP JUMP JUMPDEST PUSH1 0x0 PUSH1 0x20 DUP3 ADD SWAP1 POP DUP2 DUP2 SUB PUSH1 0x0 DUP4 ADD MSTORE PUSH2 0x2132 DUP2 PUSH2 0x20F6 JUMP JUMPDEST SWAP1 POP SWAP2 SWAP1 POP JUMP JUMPDEST PUSH32 0x4E6F7420706F6F6C000000000000000000000000000000000000000000000000 PUSH1 0x0 DUP3 ADD MSTORE POP JUMP JUMPDEST PUSH1 0x0 PUSH2 0x216F PUSH1 0x8 DUP4 PUSH2 0x1F17 JUMP JUMPDEST SWAP2 POP PUSH2 0x217A DUP3 PUSH2 0x2139 JUMP JUMPDEST PUSH1 0x20 DUP3 ADD SWAP1 POP SWAP2 SWAP1 POP JUMP JUMPDEST PUSH1 0x0 PUSH1 0x20 DUP3 ADD SWAP1 POP DUP2 DUP2 SUB PUSH1 0x0 DUP4 ADD MSTORE PUSH2 0x219E DUP2 PUSH2 0x2162 JUMP JUMPDEST SWAP1 POP SWAP2 SWAP1 POP JUMP JUMPDEST PUSH1 0x0 PUSH2 0x21B0 DUP3 PUSH2 0x1865 JUMP JUMPDEST SWAP1 POP SWAP2 SWAP1 POP JUMP JUMPDEST PUSH2 0x21C0 DUP2 PUSH2 0x21A5 JUMP JUMPDEST DUP2 EQ PUSH2 0x21CB JUMPI PUSH1 0x0 DUP1 REVERT JUMPDEST POP JUMP JUMPDEST PUSH1 0x0 DUP2 CALLDATALOAD SWAP1 POP PUSH2 0x21DD DUP2 PUSH2 0x21B7 JUMP JUMPDEST SWAP3 SWAP2 POP POP JUMP JUMPDEST PUSH1 0x0 PUSH1 0x20 DUP3 DUP5 SUB SLT ISZERO PUSH2 0x21F9 JUMPI PUSH2 0x21F8 PUSH2 0x1909 JUMP JUMPDEST JUMPDEST PUSH1 0x0 PUSH2 0x2207 DUP5 DUP3 DUP6 ADD PUSH2 0x21CE JUMP JUMPDEST SWAP2 POP POP SWAP3 SWAP2 POP POP JUMP JUMPDEST PUSH32 0x4E487B7100000000000000000000000000000000000000000000000000000000 PUSH1 0x0 MSTORE PUSH1 0x11 PUSH1 0x4 MSTORE PUSH1 0x24 PUSH1 0x0 REVERT JUMPDEST PUSH1 0x0 PUSH2 0x224A DUP3 PUSH2 0x19B6 JUMP JUMPDEST SWAP2 POP PUSH2 0x2255 DUP4 PUSH2 0x19B6 JUMP JUMPDEST SWAP3 POP DUP3 DUP3 ADD SWAP1 POP DUP1 DUP3 GT ISZERO PUSH2 0x226D JUMPI PUSH2 0x226C PUSH2 0x2210 JUMP JUMPDEST JUMPDEST SWAP3 SWAP2 POP POP JUMP JUMPDEST PUSH1 0x0 PUSH1 0x40 DUP3 ADD SWAP1 POP PUSH2 0x2288 PUSH1 0x0 DUP4 ADD DUP6 PUSH2 0x1BFC JUMP JUMPDEST PUSH2 0x2295 PUSH1 0x20 DUP4 ADD DUP5 PUSH2 0x1BFC JUMP JUMPDEST SWAP4 SWAP3 POP POP POP JUMP JUMPDEST PUSH1 0x0 DUP2 MLOAD SWAP1 POP PUSH2 0x22AB DUP2 PUSH2 0x1925 JUMP JUMPDEST SWAP3 SWAP2 POP POP JUMP JUMPDEST PUSH1 0x0 PUSH1 0x20 DUP3 DUP5 SUB SLT ISZERO PUSH2 0x22C7 JUMPI PUSH2 0x22C6 PUSH2 0x1909 JUMP JUMPDEST JUMPDEST PUSH1 0x0 PUSH2 0x22D5 DUP5 DUP3 DUP6 ADD PUSH2 0x229C JUMP JUMPDEST SWAP2 POP POP SWAP3 SWAP2 POP POP JUMP JUMPDEST PUSH32 0x506169724164647265737320646F6573206E6F74206578697374210000000000 PUSH1 0x0 DUP3 ADD MSTORE POP JUMP JUMPDEST PUSH1 0x0 PUSH2 0x2314 PUSH1 0x1B DUP4 PUSH2 0x1F17 JUMP JUMPDEST SWAP2 POP PUSH2 0x231F DUP3 PUSH2 0x22DE JUMP JUMPDEST PUSH1 0x20 DUP3 ADD SWAP1 POP SWAP2 SWAP1 POP JUMP JUMPDEST PUSH1 0x0 PUSH1 0x20 DUP3 ADD SWAP1 POP DUP2 DUP2 SUB PUSH1 0x0 DUP4 ADD MSTORE PUSH2 0x2343 DUP2 PUSH2 0x2307 JUMP JUMPDEST SWAP1 POP SWAP2 SWAP1 POP JUMP JUMPDEST PUSH32 0x4E487B7100000000000000000000000000000000000000000000000000000000 PUSH1 0x0 MSTORE PUSH1 0x41 PUSH1 0x4 MSTORE PUSH1 0x24 PUSH1 0x0 REVERT JUMPDEST PUSH32 0x4E487B7100000000000000000000000000000000000000000000000000000000 PUSH1 0x0 MSTORE PUSH1 0x21 PUSH1 0x4 MSTORE PUSH1 0x24 PUSH1 0x0 REVERT JUMPDEST PUSH1 0x0 PUSH2 0x23B3 DUP3 PUSH2 0x19B6 JUMP JUMPDEST SWAP2 POP PUSH2 0x23BE DUP4 PUSH2 0x19B6 JUMP JUMPDEST SWAP3 POP DUP3 DUP3 SUB SWAP1 POP DUP2 DUP2 GT ISZERO PUSH2 0x23D6 JUMPI PUSH2 0x23D5 PUSH2 0x2210 JUMP JUMPDEST JUMPDEST SWAP3 SWAP2 POP POP JUMP JUMPDEST PUSH1 0x0 PUSH2 0x23E7 DUP3 PUSH2 0x19B6 JUMP JUMPDEST SWAP2 POP PUSH2 0x23F2 DUP4 PUSH2 0x19B6 JUMP JUMPDEST SWAP3 POP DUP3 DUP3 MUL PUSH2 0x2400 DUP2 PUSH2 0x19B6 JUMP JUMPDEST SWAP2 POP DUP3 DUP3 DIV DUP5 EQ DUP4 ISZERO OR PUSH2 0x2417 JUMPI PUSH2 0x2416 PUSH2 0x2210 JUMP JUMPDEST JUMPDEST POP SWAP3 SWAP2 POP POP JUMP JUMPDEST PUSH32 0x4E487B7100000000000000000000000000000000000000000000000000000000 PUSH1 0x0 MSTORE PUSH1 0x12 PUSH1 0x4 MSTORE PUSH1 0x24 PUSH1 0x0 REVERT JUMPDEST PUSH1 0x0 PUSH2 0x2458 DUP3 PUSH2 0x19B6 JUMP JUMPDEST SWAP2 POP PUSH2 0x2463 DUP4 PUSH2 0x19B6 JUMP JUMPDEST SWAP3 POP DUP3 PUSH2 0x2473 JUMPI PUSH2 0x2472 PUSH2 0x241E JUMP JUMPDEST JUMPDEST DUP3 DUP3 DIV SWAP1 POP SWAP3 SWAP2 POP POP JUMP JUMPDEST PUSH1 0x0 DUP2 MLOAD SWAP1 POP SWAP2 SWAP1 POP JUMP JUMPDEST PUSH1 0x0 DUP3 DUP3 MSTORE PUSH1 0x20 DUP3 ADD SWAP1 POP SWAP3 SWAP2 POP POP JUMP JUMPDEST PUSH1 0x0 DUP2 SWAP1 POP PUSH1 0x20 DUP3 ADD SWAP1 POP SWAP2 SWAP1 POP JUMP JUMPDEST PUSH2 0x24B3 DUP2 PUSH2 0x1913 JUMP JUMPDEST DUP3 MSTORE POP POP JUMP JUMPDEST PUSH1 0x0 PUSH2 0x24C5 DUP4 DUP4 PUSH2 0x24AA JUMP JUMPDEST PUSH1 0x20 DUP4 ADD SWAP1 POP SWAP3 SWAP2 POP POP JUMP JUMPDEST PUSH1 0x0 PUSH1 0x20 DUP3 ADD SWAP1 POP SWAP2 SWAP1 POP JUMP JUMPDEST PUSH1 0x0 PUSH2 0x24E9 DUP3 PUSH2 0x247E JUMP JUMPDEST PUSH2 0x24F3 DUP2 DUP6 PUSH2 0x2489 JUMP JUMPDEST SWAP4 POP PUSH2 0x24FE DUP4 PUSH2 0x249A JUMP JUMPDEST DUP1 PUSH1 0x0 JUMPDEST DUP4 DUP2 LT ISZERO PUSH2 0x252F JUMPI DUP2 MLOAD PUSH2 0x2516 DUP9 DUP3 PUSH2 0x24B9 JUMP JUMPDEST SWAP8 POP PUSH2 0x2521 DUP4 PUSH2 0x24D1 JUMP JUMPDEST SWAP3 POP POP PUSH1 0x1 DUP2 ADD SWAP1 POP PUSH2 0x2502 JUMP JUMPDEST POP DUP6 SWAP4 POP POP POP POP SWAP3 SWAP2 POP POP JUMP JUMPDEST PUSH1 0x0 DUP2 MLOAD SWAP1 POP SWAP2 SWAP1 POP JUMP JUMPDEST PUSH1 0x0 DUP3 DUP3 MSTORE PUSH1 0x20 DUP3 ADD SWAP1 POP SWAP3 SWAP2 POP POP JUMP JUMPDEST PUSH1 0x0 DUP2 SWAP1 POP PUSH1 0x20 DUP3 ADD SWAP1 POP SWAP2 SWAP1 POP JUMP JUMPDEST PUSH2 0x2571 DUP2 PUSH2 0x19B6 JUMP JUMPDEST DUP3 MSTORE POP POP JUMP JUMPDEST PUSH1 0x0 PUSH2 0x2583 DUP4 DUP4 PUSH2 0x2568 JUMP JUMPDEST PUSH1 0x20 DUP4 ADD SWAP1 POP SWAP3 SWAP2 POP POP JUMP JUMPDEST PUSH1 0x0 PUSH1 0x20 DUP3 ADD SWAP1 POP SWAP2 SWAP1 POP JUMP JUMPDEST PUSH1 0x0 PUSH2 0x25A7 DUP3 PUSH2 0x253C JUMP JUMPDEST PUSH2 0x25B1 DUP2 DUP6 PUSH2 0x2547 JUMP JUMPDEST SWAP4 POP PUSH2 0x25BC DUP4 PUSH2 0x2558 JUMP JUMPDEST DUP1 PUSH1 0x0 JUMPDEST DUP4 DUP2 LT ISZERO PUSH2 0x25ED JUMPI DUP2 MLOAD PUSH2 0x25D4 DUP9 DUP3 PUSH2 0x2577 JUMP JUMPDEST SWAP8 POP PUSH2 0x25DF DUP4 PUSH2 0x258F JUMP JUMPDEST SWAP3 POP POP PUSH1 0x1 DUP2 ADD SWAP1 POP PUSH2 0x25C0 JUMP JUMPDEST POP DUP6 SWAP4 POP POP POP POP SWAP3 SWAP2 POP POP JUMP JUMPDEST PUSH1 0x0 DUP2 MLOAD SWAP1 POP SWAP2 SWAP1 POP JUMP JUMPDEST PUSH1 0x0 DUP3 DUP3 MSTORE PUSH1 0x20 DUP3 ADD SWAP1 POP SWAP3 SWAP2 POP POP JUMP JUMPDEST PUSH1 0x0 JUMPDEST DUP4 DUP2 LT ISZERO PUSH2 0x2634 JUMPI DUP1 DUP3 ADD MLOAD DUP2 DUP5 ADD MSTORE PUSH1 0x20 DUP2 ADD SWAP1 POP PUSH2 0x2619 JUMP JUMPDEST PUSH1 0x0 DUP5 DUP5 ADD MSTORE POP POP POP POP JUMP JUMPDEST PUSH1 0x0 PUSH1 0x1F NOT PUSH1 0x1F DUP4 ADD AND SWAP1 POP SWAP2 SWAP1 POP JUMP JUMPDEST PUSH1 0x0 PUSH2 0x265C DUP3 PUSH2 0x25FA JUMP JUMPDEST PUSH2 0x2666 DUP2 DUP6 PUSH2 0x2605 JUMP JUMPDEST SWAP4 POP PUSH2 0x2676 DUP2 DUP6 PUSH1 0x20 DUP7 ADD PUSH2 0x2616 JUMP JUMPDEST PUSH2 0x267F DUP2 PUSH2 0x2640 JUMP JUMPDEST DUP5 ADD SWAP2 POP POP SWAP3 SWAP2 POP POP JUMP JUMPDEST PUSH1 0x0 PUSH2 0xFFFF DUP3 AND SWAP1 POP SWAP2 SWAP1 POP JUMP JUMPDEST PUSH2 0x26A1 DUP2 PUSH2 0x268A JUMP JUMPDEST DUP3 MSTORE POP POP JUMP JUMPDEST PUSH1 0x0 PUSH1 0xE0 DUP3 ADD SWAP1 POP PUSH2 0x26BC PUSH1 0x0 DUP4 ADD DUP11 PUSH2 0x1BFC JUMP JUMPDEST DUP2 DUP2 SUB PUSH1 0x20 DUP4 ADD MSTORE PUSH2 0x26CE DUP2 DUP10 PUSH2 0x24DE JUMP JUMPDEST SWAP1 POP DUP2 DUP2 SUB PUSH1 0x40 DUP4 ADD MSTORE PUSH2 0x26E2 DUP2 DUP9 PUSH2 0x259C JUMP JUMPDEST SWAP1 POP DUP2 DUP2 SUB PUSH1 0x60 DUP4 ADD MSTORE PUSH2 0x26F6 DUP2 DUP8 PUSH2 0x259C JUMP JUMPDEST SWAP1 POP PUSH2 0x2705 PUSH1 0x80 DUP4 ADD DUP7 PUSH2 0x1BFC JUMP JUMPDEST DUP2 DUP2 SUB PUSH1 0xA0 DUP4 ADD MSTORE PUSH2 0x2717 DUP2 DUP6 PUSH2 0x2651 JUMP JUMPDEST SWAP1 POP PUSH2 0x2726 PUSH1 0xC0 DUP4 ADD DUP5 PUSH2 0x2698 JUMP JUMPDEST SWAP9 SWAP8 POP POP POP POP POP POP POP POP JUMP JUMPDEST PUSH32 0x417262697472616765206E6F742070726F66697461626C650000000000000000 PUSH1 0x0 DUP3 ADD MSTORE POP JUMP JUMPDEST PUSH1 0x0 PUSH2 0x2768 PUSH1 0x18 DUP4 PUSH2 0x1F17 JUMP JUMPDEST SWAP2 POP PUSH2 0x2773 DUP3 PUSH2 0x2732 JUMP JUMPDEST PUSH1 0x20 DUP3 ADD SWAP1 POP SWAP2 SWAP1 POP JUMP JUMPDEST PUSH1 0x0 PUSH1 0x20 DUP3 ADD SWAP1 POP DUP2 DUP2 SUB PUSH1 0x0 DUP4 ADD MSTORE PUSH2 0x2797 DUP2 PUSH2 0x275B JUMP JUMPDEST SWAP1 POP SWAP2 SWAP1 POP JUMP JUMPDEST PUSH1 0x0 PUSH1 0xA0 DUP3 ADD SWAP1 POP PUSH2 0x27B3 PUSH1 0x0 DUP4 ADD DUP9 PUSH2 0x1EED JUMP JUMPDEST PUSH2 0x27C0 PUSH1 0x20 DUP4 ADD DUP8 PUSH2 0x1EED JUMP JUMPDEST DUP2 DUP2 SUB PUSH1 0x40 DUP4 ADD MSTORE PUSH2 0x27D2 DUP2 DUP7 PUSH2 0x24DE JUMP JUMPDEST SWAP1 POP PUSH2 0x27E1 PUSH1 0x60 DUP4 ADD DUP6 PUSH2 0x1BFC JUMP JUMPDEST PUSH2 0x27EE PUSH1 0x80 DUP4 ADD DUP5 PUSH2 0x1EED JUMP JUMPDEST SWAP7 SWAP6 POP POP POP POP POP POP JUMP JUMPDEST PUSH2 0x2801 DUP3 PUSH2 0x2640 JUMP JUMPDEST DUP2 ADD DUP2 DUP2 LT PUSH8 0xFFFFFFFFFFFFFFFF DUP3 GT OR ISZERO PUSH2 0x2820 JUMPI PUSH2 0x281F PUSH2 0x234A JUMP JUMPDEST JUMPDEST DUP1 PUSH1 0x40 MSTORE POP POP POP JUMP JUMPDEST PUSH1 0x0 PUSH2 0x2833 PUSH2 0x18FF JUMP JUMPDEST SWAP1 POP PUSH2 0x283F DUP3 DUP3 PUSH2 0x27F8 JUMP JUMPDEST SWAP2 SWAP1 POP JUMP JUMPDEST PUSH1 0x0 PUSH8 0xFFFFFFFFFFFFFFFF DUP3 GT ISZERO PUSH2 0x285F JUMPI PUSH2 0x285E PUSH2 0x234A JUMP JUMPDEST JUMPDEST PUSH1 0x20 DUP3 MUL SWAP1 POP PUSH1 0x20 DUP2 ADD SWAP1 POP SWAP2 SWAP1 POP JUMP JUMPDEST PUSH1 0x0 PUSH2 0x2883 PUSH2 0x287E DUP5 PUSH2 0x2844 JUMP JUMPDEST PUSH2 0x2829 JUMP JUMPDEST SWAP1 POP DUP1 DUP4 DUP3 MSTORE PUSH1 0x20 DUP3 ADD SWAP1 POP PUSH1 0x20 DUP5 MUL DUP4 ADD DUP6 DUP2 GT ISZERO PUSH2 0x28A6 JUMPI PUSH2 0x28A5 PUSH2 0x195B JUMP JUMPDEST JUMPDEST DUP4 JUMPDEST DUP2 DUP2 LT ISZERO PUSH2 0x28CF JUMPI DUP1 PUSH2 0x28BB DUP9 DUP3 PUSH2 0x2065 JUMP JUMPDEST DUP5 MSTORE PUSH1 0x20 DUP5 ADD SWAP4 POP POP PUSH1 0x20 DUP2 ADD SWAP1 POP PUSH2 0x28A8 JUMP JUMPDEST POP POP POP SWAP4 SWAP3 POP POP POP JUMP JUMPDEST PUSH1 0x0 DUP3 PUSH1 0x1F DUP4 ADD SLT PUSH2 0x28EE JUMPI PUSH2 0x28ED PUSH2 0x1951 JUMP JUMPDEST JUMPDEST DUP2 MLOAD PUSH2 0x28FE DUP5 DUP3 PUSH1 0x20 DUP7 ADD PUSH2 0x2870 JUMP JUMPDEST SWAP2 POP POP SWAP3 SWAP2 POP POP JUMP JUMPDEST PUSH1 0x0 PUSH1 0x20 DUP3 DUP5 SUB SLT ISZERO PUSH2 0x291D JUMPI PUSH2 0x291C PUSH2 0x1909 JUMP JUMPDEST JUMPDEST PUSH1 0x0 DUP3 ADD MLOAD PUSH8 0xFFFFFFFFFFFFFFFF DUP2 GT ISZERO PUSH2 0x293B JUMPI PUSH2 0x293A PUSH2 0x190E JUMP JUMPDEST JUMPDEST PUSH2 0x2947 DUP5 DUP3 DUP6 ADD PUSH2 0x28D9 JUMP JUMPDEST SWAP2 POP POP SWAP3 SWAP2 POP POP JUMP JUMPDEST PUSH1 0x0 PUSH1 0x40 DUP3 ADD SWAP1 POP PUSH2 0x2965 PUSH1 0x0 DUP4 ADD DUP6 PUSH2 0x1EED JUMP JUMPDEST DUP2 DUP2 SUB PUSH1 0x20 DUP4 ADD MSTORE PUSH2 0x2977 DUP2 DUP5 PUSH2 0x24DE JUMP JUMPDEST SWAP1 POP SWAP4 SWAP3 POP POP POP JUMP INVALID LOG2 PUSH5 0x6970667358 0x22 SLT KECCAK256 0xE 0x4B 0xA8 SWAP14 PUSH27 0x56A3DCFED56CA913DE9DA13B6071302465EB77DCC9FBA81B08C90A PUSH5 0x736F6C6343 STOP ADDMOD SHR STOP CALLER "},"methodIdentifiers":{"ADDRESSES_PROVIDER()":"0542975c","LENDING_POOL()":"b4dcfc77","calculateArbitrageProfitEstimate(address,address,uint256,uint256,uint256)":"fb247bc5","executeArbitrage(address,address,uint256,uint256,uint256)":"8ef41642","executeComplexArbitrage(address[],uint256[])":"70963235","executeMultiDexArbitrage(address,address[],uint256,uint256[])":"08739f50","executeOperation(address[],uint256[],uint256[],address,bytes)":"920f5c84","owner()":"8da5cb5b","pullTokens(address)":"42e9c6ce","renounceOwnership()":"715018a6","setMinimumProfitThreshold(uint256)":"e1ab1b13","setSimulateFailure(bool)":"6b2eb2f9","startTransaction(address,uint256,address,address)":"f058fb1b","transferOwnership(address)":"f2fde38b","withdraw(address)":"51cff8d9"}}}}}