{"contracts/mocks/MockLendingPoolAddressesProvider.sol":{"MockLendingPoolAddressesProvider":{"abi":[{"inputs":[{"internalType":"address","name":"lendingPool","type":"address"}],"stateMutability":"nonpayable","type":"constructor"},{"anonymous":false,"inputs":[{"indexed":false,"internalType":"bytes32","name":"id","type":"bytes32"},{"indexed":true,"internalType":"address","name":"newAddress","type":"address"},{"indexed":false,"internalType":"bool","name":"hasProxy","type":"bool"}],"name":"AddressSet","type":"event"},{"anonymous":false,"inputs":[{"indexed":true,"internalType":"address","name":"newAddress","type":"address"}],"name":"ConfigurationAdminUpdated","type":"event"},{"anonymous":false,"inputs":[{"indexed":true,"internalType":"address","name":"newAddress","type":"address"}],"name":"EmergencyAdminUpdated","type":"event"},{"anonymous":false,"inputs":[{"indexed":true,"internalType":"address","name":"newAddress","type":"address"}],"name":"LendingPoolCollateralManagerUpdated","type":"event"},{"anonymous":false,"inputs":[{"indexed":true,"internalType":"address","name":"newAddress","type":"address"}],"name":"LendingPoolConfiguratorUpdated","type":"event"},{"anonymous":false,"inputs":[{"indexed":true,"internalType":"address","name":"newAddress","type":"address"}],"name":"LendingPoolUpdated","type":"event"},{"anonymous":false,"inputs":[{"indexed":true,"internalType":"address","name":"newAddress","type":"address"}],"name":"LendingRateOracleUpdated","type":"event"},{"anonymous":false,"inputs":[{"indexed":false,"internalType":"string","name":"newMarketId","type":"string"}],"name":"MarketIdSet","type":"event"},{"anonymous":false,"inputs":[{"indexed":true,"internalType":"address","name":"newAddress","type":"address"}],"name":"PriceOracleUpdated","type":"event"},{"anonymous":false,"inputs":[{"indexed":false,"internalType":"bytes32","name":"id","type":"bytes32"},{"indexed":true,"internalType":"address","name":"newAddress","type":"address"}],"name":"ProxyCreated","type":"event"},{"inputs":[{"internalType":"bytes32","name":"id","type":"bytes32"}],"name":"getAddress","outputs":[{"internalType":"address","name":"","type":"address"}],"stateMutability":"view","type":"function"},{"inputs":[],"name":"getEmergencyAdmin","outputs":[{"internalType":"address","name":"","type":"address"}],"stateMutability":"view","type":"function"},{"inputs":[],"name":"getLendingPool","outputs":[{"internalType":"address","name":"","type":"address"}],"stateMutability":"view","type":"function"},{"inputs":[],"name":"getLendingPoolCollateralManager","outputs":[{"internalType":"address","name":"","type":"address"}],"stateMutability":"view","type":"function"},{"inputs":[],"name":"getLendingPoolConfigurator","outputs":[{"internalType":"address","name":"","type":"address"}],"stateMutability":"view","type":"function"},{"inputs":[],"name":"getLendingRateOracle","outputs":[{"internalType":"address","name":"","type":"address"}],"stateMutability":"view","type":"function"},{"inputs":[],"name":"getMarketId","outputs":[{"internalType":"string","name":"","type":"string"}],"stateMutability":"view","type":"function"},{"inputs":[],"name":"getPoolAdmin","outputs":[{"internalType":"address","name":"","type":"address"}],"stateMutability":"view","type":"function"},{"inputs":[],"name":"getPriceOracle","outputs":[{"internalType":"address","name":"","type":"address"}],"stateMutability":"view","type":"function"},{"inputs":[{"internalType":"bytes32","name":"id","type":"bytes32"},{"internalType":"address","name":"newAddress","type":"address"}],"name":"setAddress","outputs":[],"stateMutability":"nonpayable","type":"function"},{"inputs":[{"internalType":"bytes32","name":"id","type":"bytes32"},{"internalType":"address","name":"impl","type":"address"}],"name":"setAddressAsProxy","outputs":[],"stateMutability":"nonpayable","type":"function"},{"inputs":[{"internalType":"address","name":"admin","type":"address"}],"name":"setEmergencyAdmin","outputs":[],"stateMutability":"nonpayable","type":"function"},{"inputs":[{"internalType":"address","name":"manager","type":"address"}],"name":"setLendingPoolCollateralManager","outputs":[],"stateMutability":"nonpayable","type":"function"},{"inputs":[{"internalType":"address","name":"configurator","type":"address"}],"name":"setLendingPoolConfiguratorImpl","outputs":[],"stateMutability":"nonpayable","type":"function"},{"inputs":[{"internalType":"address","name":"pool","type":"address"}],"name":"setLendingPoolImpl","outputs":[],"stateMutability":"nonpayable","type":"function"},{"inputs":[{"internalType":"address","name":"lendingRateOracle","type":"address"}],"name":"setLendingRateOracle","outputs":[],"stateMutability":"nonpayable","type":"function"},{"inputs":[{"internalType":"string","name":"marketId","type":"string"}],"name":"setMarketId","outputs":[],"stateMutability":"nonpayable","type":"function"},{"inputs":[{"internalType":"address","name":"admin","type":"address"}],"name":"setPoolAdmin","outputs":[],"stateMutability":"nonpayable","type":"function"},{"inputs":[{"internalType":"address","name":"priceOracle","type":"address"}],"name":"setPriceOracle","outputs":[],"stateMutability":"nonpayable","type":"function"}],"evm":{"bytecode":{"linkReferences":{},"object":"608060405234801561001057600080fd5b50604051610f4b380380610f4b83398181016040528101906100329190610120565b806000806101000a81548173ffffffffffffffffffffffffffffffffffffffff021916908373ffffffffffffffffffffffffffffffffffffffff1602179055506040518060400160405280600b81526020017f4d4f434b5f4d41524b4554000000000000000000000000000000000000000000815250600190816100b6919061039d565b505061046f565b600080fd5b600073ffffffffffffffffffffffffffffffffffffffff82169050919050565b60006100ed826100c2565b9050919050565b6100fd816100e2565b811461010857600080fd5b50565b60008151905061011a816100f4565b92915050565b600060208284031215610136576101356100bd565b5b60006101448482850161010b565b91505092915050565b600081519050919050565b7f4e487b7100000000000000000000000000000000000000000000000000000000600052604160045260246000fd5b7f4e487b7100000000000000000000000000000000000000000000000000000000600052602260045260246000fd5b600060028204905060018216806101ce57607f821691505b6020821081036101e1576101e0610187565b5b50919050565b60008190508160005260206000209050919050565b60006020601f8301049050919050565b600082821b905092915050565b6000600883026102497fffffffffffffffffffffffffffffffffffffffffffffffffffffffffffffffff8261020c565b610253868361020c565b95508019841693508086168417925050509392505050565b6000819050919050565b6000819050919050565b600061029a6102956102908461026b565b610275565b61026b565b9050919050565b6000819050919050565b6102b48361027f565b6102c86102c0826102a1565b848454610219565b825550505050565b600090565b6102dd6102d0565b6102e88184846102ab565b505050565b5b8181101561030c576103016000826102d5565b6001810190506102ee565b5050565b601f82111561035157610322816101e7565b61032b846101fc565b8101602085101561033a578190505b61034e610346856101fc565b8301826102ed565b50505b505050565b600082821c905092915050565b600061037460001984600802610356565b1980831691505092915050565b600061038d8383610363565b9150826002028217905092915050565b6103a68261014d565b67ffffffffffffffff8111156103bf576103be610158565b5b6103c982546101b6565b6103d4828285610310565b600060209050601f83116001811461040757600084156103f5578287015190505b6103ff8582610381565b865550610467565b601f198416610415866101e7565b60005b8281101561043d57848901518255600182019150602085019450602081019050610418565b8683101561045a5784890151610456601f891682610363565b8355505b6001600288020188555050505b505050505050565b610acd8061047e6000396000f3fe608060405234801561001057600080fd5b50600436106101215760003560e01c80635dcc528c116100ad578063c12542df11610071578063c12542df146102ce578063ca446dd9146102ea578063ddcaa9ea14610306578063f67b184714610324578063fca513a81461034057610121565b80635dcc528c1461023c578063712d917114610258578063820d12741461027657806385c858b114610292578063aecda378146102b057610121565b80633618abba116100f45780633618abba146101ac578063398e5553146101ca578063530e784f146101e6578063568ef470146102025780635aef021f1461022057610121565b80630261bf8b1461012657806321f8a72114610144578063283d62ad1461017457806335da339414610190575b600080fd5b61012e61035e565b60405161013b91906104f2565b60405180910390f35b61015e6004803603810190610159919061054d565b610387565b60405161016b91906104f2565b60405180910390f35b61018e600480360381019061018991906105a6565b61038e565b005b6101aa60048036038101906101a591906105a6565b610391565b005b6101b4610394565b6040516101c191906104f2565b60405180910390f35b6101e460048036038101906101df91906105a6565b610399565b005b61020060048036038101906101fb91906105a6565b61039c565b005b61020a61039f565b6040516102179190610663565b60405180910390f35b61023a600480360381019061023591906105a6565b610431565b005b61025660048036038101906102519190610685565b610474565b005b610260610478565b60405161026d91906104f2565b60405180910390f35b610290600480360381019061028b91906105a6565b61047d565b005b61029a610480565b6040516102a791906104f2565b60405180910390f35b6102b8610485565b6040516102c591906104f2565b60405180910390f35b6102e860048036038101906102e391906105a6565b61048a565b005b61030460048036038101906102ff9190610685565b61048d565b005b61030e610491565b60405161031b91906104f2565b60405180910390f35b61033e6004803603810190610339919061072a565b610496565b005b6103486104ac565b60405161035591906104f2565b60405180910390f35b60008060009054906101000a900473ffffffffffffffffffffffffffffffffffffffff16905090565b6000919050565b50565b50565b600090565b50565b50565b6060600180546103ae906107a6565b80601f01602080910402602001604051908101604052809291908181526020018280546103da906107a6565b80156104275780601f106103fc57610100808354040283529160200191610427565b820191906000526020600020905b81548152906001019060200180831161040a57829003601f168201915b5050505050905090565b806000806101000a81548173ffffffffffffffffffffffffffffffffffffffff021916908373ffffffffffffffffffffffffffffffffffffffff16021790555050565b5050565b600090565b50565b600090565b600090565b50565b5050565b600090565b8181600191826104a79291906109c7565b505050565b600090565b600073ffffffffffffffffffffffffffffffffffffffff82169050919050565b60006104dc826104b1565b9050919050565b6104ec816104d1565b82525050565b600060208201905061050760008301846104e3565b92915050565b600080fd5b600080fd5b6000819050919050565b61052a81610517565b811461053557600080fd5b50565b60008135905061054781610521565b92915050565b6000602082840312156105635761056261050d565b5b600061057184828501610538565b91505092915050565b610583816104d1565b811461058e57600080fd5b50565b6000813590506105a08161057a565b92915050565b6000602082840312156105bc576105bb61050d565b5b60006105ca84828501610591565b91505092915050565b600081519050919050565b600082825260208201905092915050565b60005b8381101561060d5780820151818401526020810190506105f2565b60008484015250505050565b6000601f19601f8301169050919050565b6000610635826105d3565b61063f81856105de565b935061064f8185602086016105ef565b61065881610619565b840191505092915050565b6000602082019050818103600083015261067d818461062a565b905092915050565b6000806040838503121561069c5761069b61050d565b5b60006106aa85828601610538565b92505060206106bb85828601610591565b9150509250929050565b600080fd5b600080fd5b600080fd5b60008083601f8401126106ea576106e96106c5565b5b8235905067ffffffffffffffff811115610707576107066106ca565b5b602083019150836001820283011115610723576107226106cf565b5b9250929050565b600080602083850312156107415761074061050d565b5b600083013567ffffffffffffffff81111561075f5761075e610512565b5b61076b858286016106d4565b92509250509250929050565b7f4e487b7100000000000000000000000000000000000000000000000000000000600052602260045260246000fd5b600060028204905060018216806107be57607f821691505b6020821081036107d1576107d0610777565b5b50919050565b600082905092915050565b7f4e487b7100000000000000000000000000000000000000000000000000000000600052604160045260246000fd5b60008190508160005260206000209050919050565b60006020601f8301049050919050565b600082821b905092915050565b6000600883026108737fffffffffffffffffffffffffffffffffffffffffffffffffffffffffffffffff82610836565b61087d8683610836565b95508019841693508086168417925050509392505050565b6000819050919050565b6000819050919050565b60006108c46108bf6108ba84610895565b61089f565b610895565b9050919050565b6000819050919050565b6108de836108a9565b6108f26108ea826108cb565b848454610843565b825550505050565b600090565b6109076108fa565b6109128184846108d5565b505050565b5b818110156109365761092b6000826108ff565b600181019050610918565b5050565b601f82111561097b5761094c81610811565b61095584610826565b81016020851015610964578190505b61097861097085610826565b830182610917565b50505b505050565b600082821c905092915050565b600061099e60001984600802610980565b1980831691505092915050565b60006109b7838361098d565b9150826002028217905092915050565b6109d183836107d7565b67ffffffffffffffff8111156109ea576109e96107e2565b5b6109f482546107a6565b6109ff82828561093a565b6000601f831160018114610a2e5760008415610a1c578287013590505b610a2685826109ab565b865550610a8e565b601f198416610a3c86610811565b60005b82811015610a6457848901358255600182019150602085019450602081019050610a3f565b86831015610a815784890135610a7d601f89168261098d565b8355505b6001600288020188555050505b5050505050505056fea26469706673582212203fe3883a92cadaa347f4062f7a40506c2564edba4311cf39d0316645a533737264736f6c634300081c0033","opcodes":"PUSH1 0x80 PUSH1 0x40 MSTORE CALLVALUE DUP1 ISZERO PUSH2 0x10 JUMPI PUSH1 0x0 DUP1 REVERT JUMPDEST POP PUSH1 0x40 MLOAD PUSH2 0xF4B CODESIZE SUB DUP1 PUSH2 0xF4B DUP4 CODECOPY DUP2 DUP2 ADD PUSH1 0x40 MSTORE DUP2 ADD SWAP1 PUSH2 0x32 SWAP2 SWAP1 PUSH2 0x120 JUMP JUMPDEST DUP1 PUSH1 0x0 DUP1 PUSH2 0x100 EXP DUP2 SLOAD DUP2 PUSH20 0xFFFFFFFFFFFFFFFFFFFFFFFFFFFFFFFFFFFFFFFF MUL NOT AND SWAP1 DUP4 PUSH20 0xFFFFFFFFFFFFFFFFFFFFFFFFFFFFFFFFFFFFFFFF AND MUL OR SWAP1 SSTORE POP PUSH1 0x40 MLOAD DUP1 PUSH1 0x40 ADD PUSH1 0x40 MSTORE DUP1 PUSH1 0xB DUP2 MSTORE PUSH1 0x20 ADD PUSH32 0x4D4F434B5F4D41524B4554000000000000000000000000000000000000000000 DUP2 MSTORE POP PUSH1 0x1 SWAP1 DUP2 PUSH2 0xB6 SWAP2 SWAP1 PUSH2 0x39D JUMP JUMPDEST POP POP PUSH2 0x46F JUMP JUMPDEST PUSH1 0x0 DUP1 REVERT JUMPDEST PUSH1 0x0 PUSH20 0xFFFFFFFFFFFFFFFFFFFFFFFFFFFFFFFFFFFFFFFF DUP3 AND SWAP1 POP SWAP2 SWAP1 POP JUMP JUMPDEST PUSH1 0x0 PUSH2 0xED DUP3 PUSH2 0xC2 JUMP JUMPDEST SWAP1 POP SWAP2 SWAP1 POP JUMP JUMPDEST PUSH2 0xFD DUP2 PUSH2 0xE2 JUMP JUMPDEST DUP2 EQ PUSH2 0x108 JUMPI PUSH1 0x0 DUP1 REVERT JUMPDEST POP JUMP JUMPDEST PUSH1 0x0 DUP2 MLOAD SWAP1 POP PUSH2 0x11A DUP2 PUSH2 0xF4 JUMP JUMPDEST SWAP3 SWAP2 POP POP JUMP JUMPDEST PUSH1 0x0 PUSH1 0x20 DUP3 DUP5 SUB SLT ISZERO PUSH2 0x136 JUMPI PUSH2 0x135 PUSH2 0xBD JUMP JUMPDEST JUMPDEST PUSH1 0x0 PUSH2 0x144 DUP5 DUP3 DUP6 ADD PUSH2 0x10B JUMP JUMPDEST SWAP2 POP POP SWAP3 SWAP2 POP POP JUMP JUMPDEST PUSH1 0x0 DUP2 MLOAD SWAP1 POP SWAP2 SWAP1 POP JUMP JUMPDEST PUSH32 0x4E487B7100000000000000000000000000000000000000000000000000000000 PUSH1 0x0 MSTORE PUSH1 0x41 PUSH1 0x4 MSTORE PUSH1 0x24 PUSH1 0x0 REVERT JUMPDEST PUSH32 0x4E487B7100000000000000000000000000000000000000000000000000000000 PUSH1 0x0 MSTORE PUSH1 0x22 PUSH1 0x4 MSTORE PUSH1 0x24 PUSH1 0x0 REVERT JUMPDEST PUSH1 0x0 PUSH1 0x2 DUP3 DIV SWAP1 POP PUSH1 0x1 DUP3 AND DUP1 PUSH2 0x1CE JUMPI PUSH1 0x7F DUP3 AND SWAP2 POP JUMPDEST PUSH1 0x20 DUP3 LT DUP2 SUB PUSH2 0x1E1 JUMPI PUSH2 0x1E0 PUSH2 0x187 JUMP JUMPDEST JUMPDEST POP SWAP2 SWAP1 POP JUMP JUMPDEST PUSH1 0x0 DUP2 SWAP1 POP DUP2 PUSH1 0x0 MSTORE PUSH1 0x20 PUSH1 0x0 KECCAK256 SWAP1 POP SWAP2 SWAP1 POP JUMP JUMPDEST PUSH1 0x0 PUSH1 0x20 PUSH1 0x1F DUP4 ADD DIV SWAP1 POP SWAP2 SWAP1 POP JUMP JUMPDEST PUSH1 0x0 DUP3 DUP3 SHL SWAP1 POP SWAP3 SWAP2 POP POP JUMP JUMPDEST PUSH1 0x0 PUSH1 0x8 DUP4 MUL PUSH2 0x249 PUSH32 0xFFFFFFFFFFFFFFFFFFFFFFFFFFFFFFFFFFFFFFFFFFFFFFFFFFFFFFFFFFFFFFFF DUP3 PUSH2 0x20C JUMP JUMPDEST PUSH2 0x253 DUP7 DUP4 PUSH2 0x20C JUMP JUMPDEST SWAP6 POP DUP1 NOT DUP5 AND SWAP4 POP DUP1 DUP7 AND DUP5 OR SWAP3 POP POP POP SWAP4 SWAP3 POP POP POP JUMP JUMPDEST PUSH1 0x0 DUP2 SWAP1 POP SWAP2 SWAP1 POP JUMP JUMPDEST PUSH1 0x0 DUP2 SWAP1 POP SWAP2 SWAP1 POP JUMP JUMPDEST PUSH1 0x0 PUSH2 0x29A PUSH2 0x295 PUSH2 0x290 DUP5 PUSH2 0x26B JUMP JUMPDEST PUSH2 0x275 JUMP JUMPDEST PUSH2 0x26B JUMP JUMPDEST SWAP1 POP SWAP2 SWAP1 POP JUMP JUMPDEST PUSH1 0x0 DUP2 SWAP1 POP SWAP2 SWAP1 POP JUMP JUMPDEST PUSH2 0x2B4 DUP4 PUSH2 0x27F JUMP JUMPDEST PUSH2 0x2C8 PUSH2 0x2C0 DUP3 PUSH2 0x2A1 JUMP JUMPDEST DUP5 DUP5 SLOAD PUSH2 0x219 JUMP JUMPDEST DUP3 SSTORE POP POP POP POP JUMP JUMPDEST PUSH1 0x0 SWAP1 JUMP JUMPDEST PUSH2 0x2DD PUSH2 0x2D0 JUMP JUMPDEST PUSH2 0x2E8 DUP2 DUP5 DUP5 PUSH2 0x2AB JUMP JUMPDEST POP POP POP JUMP JUMPDEST JUMPDEST DUP2 DUP2 LT ISZERO PUSH2 0x30C JUMPI PUSH2 0x301 PUSH1 0x0 DUP3 PUSH2 0x2D5 JUMP JUMPDEST PUSH1 0x1 DUP2 ADD SWAP1 POP PUSH2 0x2EE JUMP JUMPDEST POP POP JUMP JUMPDEST PUSH1 0x1F DUP3 GT ISZERO PUSH2 0x351 JUMPI PUSH2 0x322 DUP2 PUSH2 0x1E7 JUMP JUMPDEST PUSH2 0x32B DUP5 PUSH2 0x1FC JUMP JUMPDEST DUP2 ADD PUSH1 0x20 DUP6 LT ISZERO PUSH2 0x33A JUMPI DUP2 SWAP1 POP JUMPDEST PUSH2 0x34E PUSH2 0x346 DUP6 PUSH2 0x1FC JUMP JUMPDEST DUP4 ADD DUP3 PUSH2 0x2ED JUMP JUMPDEST POP POP JUMPDEST POP POP POP JUMP JUMPDEST PUSH1 0x0 DUP3 DUP3 SHR SWAP1 POP SWAP3 SWAP2 POP POP JUMP JUMPDEST PUSH1 0x0 PUSH2 0x374 PUSH1 0x0 NOT DUP5 PUSH1 0x8 MUL PUSH2 0x356 JUMP JUMPDEST NOT DUP1 DUP4 AND SWAP2 POP POP SWAP3 SWAP2 POP POP JUMP JUMPDEST PUSH1 0x0 PUSH2 0x38D DUP4 DUP4 PUSH2 0x363 JUMP JUMPDEST SWAP2 POP DUP3 PUSH1 0x2 MUL DUP3 OR SWAP1 POP SWAP3 SWAP2 POP POP JUMP JUMPDEST PUSH2 0x3A6 DUP3 PUSH2 0x14D JUMP JUMPDEST PUSH8 0xFFFFFFFFFFFFFFFF DUP2 GT ISZERO PUSH2 0x3BF JUMPI PUSH2 0x3BE PUSH2 0x158 JUMP JUMPDEST JUMPDEST PUSH2 0x3C9 DUP3 SLOAD PUSH2 0x1B6 JUMP JUMPDEST PUSH2 0x3D4 DUP3 DUP3 DUP6 PUSH2 0x310 JUMP JUMPDEST PUSH1 0x0 PUSH1 0x20 SWAP1 POP PUSH1 0x1F DUP4 GT PUSH1 0x1 DUP2 EQ PUSH2 0x407 JUMPI PUSH1 0x0 DUP5 ISZERO PUSH2 0x3F5 JUMPI DUP3 DUP8 ADD MLOAD SWAP1 POP JUMPDEST PUSH2 0x3FF DUP6 DUP3 PUSH2 0x381 JUMP JUMPDEST DUP7 SSTORE POP PUSH2 0x467 JUMP JUMPDEST PUSH1 0x1F NOT DUP5 AND PUSH2 0x415 DUP7 PUSH2 0x1E7 JUMP JUMPDEST PUSH1 0x0 JUMPDEST DUP3 DUP2 LT ISZERO PUSH2 0x43D JUMPI DUP5 DUP10 ADD MLOAD DUP3 SSTORE PUSH1 0x1 DUP3 ADD SWAP2 POP PUSH1 0x20 DUP6 ADD SWAP5 POP PUSH1 0x20 DUP2 ADD SWAP1 POP PUSH2 0x418 JUMP JUMPDEST DUP7 DUP4 LT ISZERO PUSH2 0x45A JUMPI DUP5 DUP10 ADD MLOAD PUSH2 0x456 PUSH1 0x1F DUP10 AND DUP3 PUSH2 0x363 JUMP JUMPDEST DUP4 SSTORE POP JUMPDEST PUSH1 0x1 PUSH1 0x2 DUP9 MUL ADD DUP9 SSTORE POP POP POP JUMPDEST POP POP POP POP POP POP JUMP JUMPDEST PUSH2 0xACD DUP1 PUSH2 0x47E PUSH1 0x0 CODECOPY PUSH1 0x0 RETURN INVALID PUSH1 0x80 PUSH1 0x40 MSTORE CALLVALUE DUP1 ISZERO PUSH2 0x10 JUMPI PUSH1 0x0 DUP1 REVERT JUMPDEST POP PUSH1 0x4 CALLDATASIZE LT PUSH2 0x121 JUMPI PUSH1 0x0 CALLDATALOAD PUSH1 0xE0 SHR DUP1 PUSH4 0x5DCC528C GT PUSH2 0xAD JUMPI DUP1 PUSH4 0xC12542DF GT PUSH2 0x71 JUMPI DUP1 PUSH4 0xC12542DF EQ PUSH2 0x2CE JUMPI DUP1 PUSH4 0xCA446DD9 EQ PUSH2 0x2EA JUMPI DUP1 PUSH4 0xDDCAA9EA EQ PUSH2 0x306 JUMPI DUP1 PUSH4 0xF67B1847 EQ PUSH2 0x324 JUMPI DUP1 PUSH4 0xFCA513A8 EQ PUSH2 0x340 JUMPI PUSH2 0x121 JUMP JUMPDEST DUP1 PUSH4 0x5DCC528C EQ PUSH2 0x23C JUMPI DUP1 PUSH4 0x712D9171 EQ PUSH2 0x258 JUMPI DUP1 PUSH4 0x820D1274 EQ PUSH2 0x276 JUMPI DUP1 PUSH4 0x85C858B1 EQ PUSH2 0x292 JUMPI DUP1 PUSH4 0xAECDA378 EQ PUSH2 0x2B0 JUMPI PUSH2 0x121 JUMP JUMPDEST DUP1 PUSH4 0x3618ABBA GT PUSH2 0xF4 JUMPI DUP1 PUSH4 0x3618ABBA EQ PUSH2 0x1AC JUMPI DUP1 PUSH4 0x398E5553 EQ PUSH2 0x1CA JUMPI DUP1 PUSH4 0x530E784F EQ PUSH2 0x1E6 JUMPI DUP1 PUSH4 0x568EF470 EQ PUSH2 0x202 JUMPI DUP1 PUSH4 0x5AEF021F EQ PUSH2 0x220 JUMPI PUSH2 0x121 JUMP JUMPDEST DUP1 PUSH4 0x261BF8B EQ PUSH2 0x126 JUMPI DUP1 PUSH4 0x21F8A721 EQ PUSH2 0x144 JUMPI DUP1 PUSH4 0x283D62AD EQ PUSH2 0x174 JUMPI DUP1 PUSH4 0x35DA3394 EQ PUSH2 0x190 JUMPI JUMPDEST PUSH1 0x0 DUP1 REVERT JUMPDEST PUSH2 0x12E PUSH2 0x35E JUMP JUMPDEST PUSH1 0x40 MLOAD PUSH2 0x13B SWAP2 SWAP1 PUSH2 0x4F2 JUMP JUMPDEST PUSH1 0x40 MLOAD DUP1 SWAP2 SUB SWAP1 RETURN JUMPDEST PUSH2 0x15E PUSH1 0x4 DUP1 CALLDATASIZE SUB DUP2 ADD SWAP1 PUSH2 0x159 SWAP2 SWAP1 PUSH2 0x54D JUMP JUMPDEST PUSH2 0x387 JUMP JUMPDEST PUSH1 0x40 MLOAD PUSH2 0x16B SWAP2 SWAP1 PUSH2 0x4F2 JUMP JUMPDEST PUSH1 0x40 MLOAD DUP1 SWAP2 SUB SWAP1 RETURN JUMPDEST PUSH2 0x18E PUSH1 0x4 DUP1 CALLDATASIZE SUB DUP2 ADD SWAP1 PUSH2 0x189 SWAP2 SWAP1 PUSH2 0x5A6 JUMP JUMPDEST PUSH2 0x38E JUMP JUMPDEST STOP JUMPDEST PUSH2 0x1AA PUSH1 0x4 DUP1 CALLDATASIZE SUB DUP2 ADD SWAP1 PUSH2 0x1A5 SWAP2 SWAP1 PUSH2 0x5A6 JUMP JUMPDEST PUSH2 0x391 JUMP JUMPDEST STOP JUMPDEST PUSH2 0x1B4 PUSH2 0x394 JUMP JUMPDEST PUSH1 0x40 MLOAD PUSH2 0x1C1 SWAP2 SWAP1 PUSH2 0x4F2 JUMP JUMPDEST PUSH1 0x40 MLOAD DUP1 SWAP2 SUB SWAP1 RETURN JUMPDEST PUSH2 0x1E4 PUSH1 0x4 DUP1 CALLDATASIZE SUB DUP2 ADD SWAP1 PUSH2 0x1DF SWAP2 SWAP1 PUSH2 0x5A6 JUMP JUMPDEST PUSH2 0x399 JUMP JUMPDEST STOP JUMPDEST PUSH2 0x200 PUSH1 0x4 DUP1 CALLDATASIZE SUB DUP2 ADD SWAP1 PUSH2 0x1FB SWAP2 SWAP1 PUSH2 0x5A6 JUMP JUMPDEST PUSH2 0x39C JUMP JUMPDEST STOP JUMPDEST PUSH2 0x20A PUSH2 0x39F JUMP JUMPDEST PUSH1 0x40 MLOAD PUSH2 0x217 SWAP2 SWAP1 PUSH2 0x663 JUMP JUMPDEST PUSH1 0x40 MLOAD DUP1 SWAP2 SUB SWAP1 RETURN JUMPDEST PUSH2 0x23A PUSH1 0x4 DUP1 CALLDATASIZE SUB DUP2 ADD SWAP1 PUSH2 0x235 SWAP2 SWAP1 PUSH2 0x5A6 JUMP JUMPDEST PUSH2 0x431 JUMP JUMPDEST STOP JUMPDEST PUSH2 0x256 PUSH1 0x4 DUP1 CALLDATASIZE SUB DUP2 ADD SWAP1 PUSH2 0x251 SWAP2 SWAP1 PUSH2 0x685 JUMP JUMPDEST PUSH2 0x474 JUMP JUMPDEST STOP JUMPDEST PUSH2 0x260 PUSH2 0x478 JUMP JUMPDEST PUSH1 0x40 MLOAD PUSH2 0x26D SWAP2 SWAP1 PUSH2 0x4F2 JUMP JUMPDEST PUSH1 0x40 MLOAD DUP1 SWAP2 SUB SWAP1 RETURN JUMPDEST PUSH2 0x290 PUSH1 0x4 DUP1 CALLDATASIZE SUB DUP2 ADD SWAP1 PUSH2 0x28B SWAP2 SWAP1 PUSH2 0x5A6 JUMP JUMPDEST PUSH2 0x47D JUMP JUMPDEST STOP JUMPDEST PUSH2 0x29A PUSH2 0x480 JUMP JUMPDEST PUSH1 0x40 MLOAD PUSH2 0x2A7 SWAP2 SWAP1 PUSH2 0x4F2 JUMP JUMPDEST PUSH1 0x40 MLOAD DUP1 SWAP2 SUB SWAP1 RETURN JUMPDEST PUSH2 0x2B8 PUSH2 0x485 JUMP JUMPDEST PUSH1 0x40 MLOAD PUSH2 0x2C5 SWAP2 SWAP1 PUSH2 0x4F2 JUMP JUMPDEST PUSH1 0x40 MLOAD DUP1 SWAP2 SUB SWAP1 RETURN JUMPDEST PUSH2 0x2E8 PUSH1 0x4 DUP1 CALLDATASIZE SUB DUP2 ADD SWAP1 PUSH2 0x2E3 SWAP2 SWAP1 PUSH2 0x5A6 JUMP JUMPDEST PUSH2 0x48A JUMP JUMPDEST STOP JUMPDEST PUSH2 0x304 PUSH1 0x4 DUP1 CALLDATASIZE SUB DUP2 ADD SWAP1 PUSH2 0x2FF SWAP2 SWAP1 PUSH2 0x685 JUMP JUMPDEST PUSH2 0x48D JUMP JUMPDEST STOP JUMPDEST PUSH2 0x30E PUSH2 0x491 JUMP JUMPDEST PUSH1 0x40 MLOAD PUSH2 0x31B SWAP2 SWAP1 PUSH2 0x4F2 JUMP JUMPDEST PUSH1 0x40 MLOAD DUP1 SWAP2 SUB SWAP1 RETURN JUMPDEST PUSH2 0x33E PUSH1 0x4 DUP1 CALLDATASIZE SUB DUP2 ADD SWAP1 PUSH2 0x339 SWAP2 SWAP1 PUSH2 0x72A JUMP JUMPDEST PUSH2 0x496 JUMP JUMPDEST STOP JUMPDEST PUSH2 0x348 PUSH2 0x4AC JUMP JUMPDEST PUSH1 0x40 MLOAD PUSH2 0x355 SWAP2 SWAP1 PUSH2 0x4F2 JUMP JUMPDEST PUSH1 0x40 MLOAD DUP1 SWAP2 SUB SWAP1 RETURN JUMPDEST PUSH1 0x0 DUP1 PUSH1 0x0 SWAP1 SLOAD SWAP1 PUSH2 0x100 EXP SWAP1 DIV PUSH20 0xFFFFFFFFFFFFFFFFFFFFFFFFFFFFFFFFFFFFFFFF AND SWAP1 POP SWAP1 JUMP JUMPDEST PUSH1 0x0 SWAP2 SWAP1 POP JUMP JUMPDEST POP JUMP JUMPDEST POP JUMP JUMPDEST PUSH1 0x0 SWAP1 JUMP JUMPDEST POP JUMP JUMPDEST POP JUMP JUMPDEST PUSH1 0x60 PUSH1 0x1 DUP1 SLOAD PUSH2 0x3AE SWAP1 PUSH2 0x7A6 JUMP JUMPDEST DUP1 PUSH1 0x1F ADD PUSH1 0x20 DUP1 SWAP2 DIV MUL PUSH1 0x20 ADD PUSH1 0x40 MLOAD SWAP1 DUP2 ADD PUSH1 0x40 MSTORE DUP1 SWAP3 SWAP2 SWAP1 DUP2 DUP2 MSTORE PUSH1 0x20 ADD DUP3 DUP1 SLOAD PUSH2 0x3DA SWAP1 PUSH2 0x7A6 JUMP JUMPDEST DUP1 ISZERO PUSH2 0x427 JUMPI DUP1 PUSH1 0x1F LT PUSH2 0x3FC JUMPI PUSH2 0x100 DUP1 DUP4 SLOAD DIV MUL DUP4 MSTORE SWAP2 PUSH1 0x20 ADD SWAP2 PUSH2 0x427 JUMP JUMPDEST DUP3 ADD SWAP2 SWAP1 PUSH1 0x0 MSTORE PUSH1 0x20 PUSH1 0x0 KECCAK256 SWAP1 JUMPDEST DUP2 SLOAD DUP2 MSTORE SWAP1 PUSH1 0x1 ADD SWAP1 PUSH1 0x20 ADD DUP1 DUP4 GT PUSH2 0x40A JUMPI DUP3 SWAP1 SUB PUSH1 0x1F AND DUP3 ADD SWAP2 JUMPDEST POP POP POP POP POP SWAP1 POP SWAP1 JUMP JUMPDEST DUP1 PUSH1 0x0 DUP1 PUSH2 0x100 EXP DUP2 SLOAD DUP2 PUSH20 0xFFFFFFFFFFFFFFFFFFFFFFFFFFFFFFFFFFFFFFFF MUL NOT AND SWAP1 DUP4 PUSH20 0xFFFFFFFFFFFFFFFFFFFFFFFFFFFFFFFFFFFFFFFF AND MUL OR SWAP1 SSTORE POP POP JUMP JUMPDEST POP POP JUMP JUMPDEST PUSH1 0x0 SWAP1 JUMP JUMPDEST POP JUMP JUMPDEST PUSH1 0x0 SWAP1 JUMP JUMPDEST PUSH1 0x0 SWAP1 JUMP JUMPDEST POP JUMP JUMPDEST POP POP JUMP JUMPDEST PUSH1 0x0 SWAP1 JUMP JUMPDEST DUP2 DUP2 PUSH1 0x1 SWAP2 DUP3 PUSH2 0x4A7 SWAP3 SWAP2 SWAP1 PUSH2 0x9C7 JUMP JUMPDEST POP POP POP JUMP JUMPDEST PUSH1 0x0 SWAP1 JUMP JUMPDEST PUSH1 0x0 PUSH20 0xFFFFFFFFFFFFFFFFFFFFFFFFFFFFFFFFFFFFFFFF DUP3 AND SWAP1 POP SWAP2 SWAP1 POP JUMP JUMPDEST PUSH1 0x0 PUSH2 0x4DC DUP3 PUSH2 0x4B1 JUMP JUMPDEST SWAP1 POP SWAP2 SWAP1 POP JUMP JUMPDEST PUSH2 0x4EC DUP2 PUSH2 0x4D1 JUMP JUMPDEST DUP3 MSTORE POP POP JUMP JUMPDEST PUSH1 0x0 PUSH1 0x20 DUP3 ADD SWAP1 POP PUSH2 0x507 PUSH1 0x0 DUP4 ADD DUP5 PUSH2 0x4E3 JUMP JUMPDEST SWAP3 SWAP2 POP POP JUMP JUMPDEST PUSH1 0x0 DUP1 REVERT JUMPDEST PUSH1 0x0 DUP1 REVERT JUMPDEST PUSH1 0x0 DUP2 SWAP1 POP SWAP2 SWAP1 POP JUMP JUMPDEST PUSH2 0x52A DUP2 PUSH2 0x517 JUMP JUMPDEST DUP2 EQ PUSH2 0x535 JUMPI PUSH1 0x0 DUP1 REVERT JUMPDEST POP JUMP JUMPDEST PUSH1 0x0 DUP2 CALLDATALOAD SWAP1 POP PUSH2 0x547 DUP2 PUSH2 0x521 JUMP JUMPDEST SWAP3 SWAP2 POP POP JUMP JUMPDEST PUSH1 0x0 PUSH1 0x20 DUP3 DUP5 SUB SLT ISZERO PUSH2 0x563 JUMPI PUSH2 0x562 PUSH2 0x50D JUMP JUMPDEST JUMPDEST PUSH1 0x0 PUSH2 0x571 DUP5 DUP3 DUP6 ADD PUSH2 0x538 JUMP JUMPDEST SWAP2 POP POP SWAP3 SWAP2 POP POP JUMP JUMPDEST PUSH2 0x583 DUP2 PUSH2 0x4D1 JUMP JUMPDEST DUP2 EQ PUSH2 0x58E JUMPI PUSH1 0x0 DUP1 REVERT JUMPDEST POP JUMP JUMPDEST PUSH1 0x0 DUP2 CALLDATALOAD SWAP1 POP PUSH2 0x5A0 DUP2 PUSH2 0x57A JUMP JUMPDEST SWAP3 SWAP2 POP POP JUMP JUMPDEST PUSH1 0x0 PUSH1 0x20 DUP3 DUP5 SUB SLT ISZERO PUSH2 0x5BC JUMPI PUSH2 0x5BB PUSH2 0x50D JUMP JUMPDEST JUMPDEST PUSH1 0x0 PUSH2 0x5CA DUP5 DUP3 DUP6 ADD PUSH2 0x591 JUMP JUMPDEST SWAP2 POP POP SWAP3 SWAP2 POP POP JUMP JUMPDEST PUSH1 0x0 DUP2 MLOAD SWAP1 POP SWAP2 SWAP1 POP JUMP JUMPDEST PUSH1 0x0 DUP3 DUP3 MSTORE PUSH1 0x20 DUP3 ADD SWAP1 POP SWAP3 SWAP2 POP POP JUMP JUMPDEST PUSH1 0x0 JUMPDEST DUP4 DUP2 LT ISZERO PUSH2 0x60D JUMPI DUP1 DUP3 ADD MLOAD DUP2 DUP5 ADD MSTORE PUSH1 0x20 DUP2 ADD SWAP1 POP PUSH2 0x5F2 JUMP JUMPDEST PUSH1 0x0 DUP5 DUP5 ADD MSTORE POP POP POP POP JUMP JUMPDEST PUSH1 0x0 PUSH1 0x1F NOT PUSH1 0x1F DUP4 ADD AND SWAP1 POP SWAP2 SWAP1 POP JUMP JUMPDEST PUSH1 0x0 PUSH2 0x635 DUP3 PUSH2 0x5D3 JUMP JUMPDEST PUSH2 0x63F DUP2 DUP6 PUSH2 0x5DE JUMP JUMPDEST SWAP4 POP PUSH2 0x64F DUP2 DUP6 PUSH1 0x20 DUP7 ADD PUSH2 0x5EF JUMP JUMPDEST PUSH2 0x658 DUP2 PUSH2 0x619 JUMP JUMPDEST DUP5 ADD SWAP2 POP POP SWAP3 SWAP2 POP POP JUMP JUMPDEST PUSH1 0x0 PUSH1 0x20 DUP3 ADD SWAP1 POP DUP2 DUP2 SUB PUSH1 0x0 DUP4 ADD MSTORE PUSH2 0x67D DUP2 DUP5 PUSH2 0x62A JUMP JUMPDEST SWAP1 POP SWAP3 SWAP2 POP POP JUMP JUMPDEST PUSH1 0x0 DUP1 PUSH1 0x40 DUP4 DUP6 SUB SLT ISZERO PUSH2 0x69C JUMPI PUSH2 0x69B PUSH2 0x50D JUMP JUMPDEST JUMPDEST PUSH1 0x0 PUSH2 0x6AA DUP6 DUP3 DUP7 ADD PUSH2 0x538 JUMP JUMPDEST SWAP3 POP POP PUSH1 0x20 PUSH2 0x6BB DUP6 DUP3 DUP7 ADD PUSH2 0x591 JUMP JUMPDEST SWAP2 POP POP SWAP3 POP SWAP3 SWAP1 POP JUMP JUMPDEST PUSH1 0x0 DUP1 REVERT JUMPDEST PUSH1 0x0 DUP1 REVERT JUMPDEST PUSH1 0x0 DUP1 REVERT JUMPDEST PUSH1 0x0 DUP1 DUP4 PUSH1 0x1F DUP5 ADD SLT PUSH2 0x6EA JUMPI PUSH2 0x6E9 PUSH2 0x6C5 JUMP JUMPDEST JUMPDEST DUP3 CALLDATALOAD SWAP1 POP PUSH8 0xFFFFFFFFFFFFFFFF DUP2 GT ISZERO PUSH2 0x707 JUMPI PUSH2 0x706 PUSH2 0x6CA JUMP JUMPDEST JUMPDEST PUSH1 0x20 DUP4 ADD SWAP2 POP DUP4 PUSH1 0x1 DUP3 MUL DUP4 ADD GT ISZERO PUSH2 0x723 JUMPI PUSH2 0x722 PUSH2 0x6CF JUMP JUMPDEST JUMPDEST SWAP3 POP SWAP3 SWAP1 POP JUMP JUMPDEST PUSH1 0x0 DUP1 PUSH1 0x20 DUP4 DUP6 SUB SLT ISZERO PUSH2 0x741 JUMPI PUSH2 0x740 PUSH2 0x50D JUMP JUMPDEST JUMPDEST PUSH1 0x0 DUP4 ADD CALLDATALOAD PUSH8 0xFFFFFFFFFFFFFFFF DUP2 GT ISZERO PUSH2 0x75F JUMPI PUSH2 0x75E PUSH2 0x512 JUMP JUMPDEST JUMPDEST PUSH2 0x76B DUP6 DUP3 DUP7 ADD PUSH2 0x6D4 JUMP JUMPDEST SWAP3 POP SWAP3 POP POP SWAP3 POP SWAP3 SWAP1 POP JUMP JUMPDEST PUSH32 0x4E487B7100000000000000000000000000000000000000000000000000000000 PUSH1 0x0 MSTORE PUSH1 0x22 PUSH1 0x4 MSTORE PUSH1 0x24 PUSH1 0x0 REVERT JUMPDEST PUSH1 0x0 PUSH1 0x2 DUP3 DIV SWAP1 POP PUSH1 0x1 DUP3 AND DUP1 PUSH2 0x7BE JUMPI PUSH1 0x7F DUP3 AND SWAP2 POP JUMPDEST PUSH1 0x20 DUP3 LT DUP2 SUB PUSH2 0x7D1 JUMPI PUSH2 0x7D0 PUSH2 0x777 JUMP JUMPDEST JUMPDEST POP SWAP2 SWAP1 POP JUMP JUMPDEST PUSH1 0x0 DUP3 SWAP1 POP SWAP3 SWAP2 POP POP JUMP JUMPDEST PUSH32 0x4E487B7100000000000000000000000000000000000000000000000000000000 PUSH1 0x0 MSTORE PUSH1 0x41 PUSH1 0x4 MSTORE PUSH1 0x24 PUSH1 0x0 REVERT JUMPDEST PUSH1 0x0 DUP2 SWAP1 POP DUP2 PUSH1 0x0 MSTORE PUSH1 0x20 PUSH1 0x0 KECCAK256 SWAP1 POP SWAP2 SWAP1 POP JUMP JUMPDEST PUSH1 0x0 PUSH1 0x20 PUSH1 0x1F DUP4 ADD DIV SWAP1 POP SWAP2 SWAP1 POP JUMP JUMPDEST PUSH1 0x0 DUP3 DUP3 SHL SWAP1 POP SWAP3 SWAP2 POP POP JUMP JUMPDEST PUSH1 0x0 PUSH1 0x8 DUP4 MUL PUSH2 0x873 PUSH32 0xFFFFFFFFFFFFFFFFFFFFFFFFFFFFFFFFFFFFFFFFFFFFFFFFFFFFFFFFFFFFFFFF DUP3 PUSH2 0x836 JUMP JUMPDEST PUSH2 0x87D DUP7 DUP4 PUSH2 0x836 JUMP JUMPDEST SWAP6 POP DUP1 NOT DUP5 AND SWAP4 POP DUP1 DUP7 AND DUP5 OR SWAP3 POP POP POP SWAP4 SWAP3 POP POP POP JUMP JUMPDEST PUSH1 0x0 DUP2 SWAP1 POP SWAP2 SWAP1 POP JUMP JUMPDEST PUSH1 0x0 DUP2 SWAP1 POP SWAP2 SWAP1 POP JUMP JUMPDEST PUSH1 0x0 PUSH2 0x8C4 PUSH2 0x8BF PUSH2 0x8BA DUP5 PUSH2 0x895 JUMP JUMPDEST PUSH2 0x89F JUMP JUMPDEST PUSH2 0x895 JUMP JUMPDEST SWAP1 POP SWAP2 SWAP1 POP JUMP JUMPDEST PUSH1 0x0 DUP2 SWAP1 POP SWAP2 SWAP1 POP JUMP JUMPDEST PUSH2 0x8DE DUP4 PUSH2 0x8A9 JUMP JUMPDEST PUSH2 0x8F2 PUSH2 0x8EA DUP3 PUSH2 0x8CB JUMP JUMPDEST DUP5 DUP5 SLOAD PUSH2 0x843 JUMP JUMPDEST DUP3 SSTORE POP POP POP POP JUMP JUMPDEST PUSH1 0x0 SWAP1 JUMP JUMPDEST PUSH2 0x907 PUSH2 0x8FA JUMP JUMPDEST PUSH2 0x912 DUP2 DUP5 DUP5 PUSH2 0x8D5 JUMP JUMPDEST POP POP POP JUMP JUMPDEST JUMPDEST DUP2 DUP2 LT ISZERO PUSH2 0x936 JUMPI PUSH2 0x92B PUSH1 0x0 DUP3 PUSH2 0x8FF JUMP JUMPDEST PUSH1 0x1 DUP2 ADD SWAP1 POP PUSH2 0x918 JUMP JUMPDEST POP POP JUMP JUMPDEST PUSH1 0x1F DUP3 GT ISZERO PUSH2 0x97B JUMPI PUSH2 0x94C DUP2 PUSH2 0x811 JUMP JUMPDEST PUSH2 0x955 DUP5 PUSH2 0x826 JUMP JUMPDEST DUP2 ADD PUSH1 0x20 DUP6 LT ISZERO PUSH2 0x964 JUMPI DUP2 SWAP1 POP JUMPDEST PUSH2 0x978 PUSH2 0x970 DUP6 PUSH2 0x826 JUMP JUMPDEST DUP4 ADD DUP3 PUSH2 0x917 JUMP JUMPDEST POP POP JUMPDEST POP POP POP JUMP JUMPDEST PUSH1 0x0 DUP3 DUP3 SHR SWAP1 POP SWAP3 SWAP2 POP POP JUMP JUMPDEST PUSH1 0x0 PUSH2 0x99E PUSH1 0x0 NOT DUP5 PUSH1 0x8 MUL PUSH2 0x980 JUMP JUMPDEST NOT DUP1 DUP4 AND SWAP2 POP POP SWAP3 SWAP2 POP POP JUMP JUMPDEST PUSH1 0x0 PUSH2 0x9B7 DUP4 DUP4 PUSH2 0x98D JUMP JUMPDEST SWAP2 POP DUP3 PUSH1 0x2 MUL DUP3 OR SWAP1 POP SWAP3 SWAP2 POP POP JUMP JUMPDEST PUSH2 0x9D1 DUP4 DUP4 PUSH2 0x7D7 JUMP JUMPDEST PUSH8 0xFFFFFFFFFFFFFFFF DUP2 GT ISZERO PUSH2 0x9EA JUMPI PUSH2 0x9E9 PUSH2 0x7E2 JUMP JUMPDEST JUMPDEST PUSH2 0x9F4 DUP3 SLOAD PUSH2 0x7A6 JUMP JUMPDEST PUSH2 0x9FF DUP3 DUP3 DUP6 PUSH2 0x93A JUMP JUMPDEST PUSH1 0x0 PUSH1 0x1F DUP4 GT PUSH1 0x1 DUP2 EQ PUSH2 0xA2E JUMPI PUSH1 0x0 DUP5 ISZERO PUSH2 0xA1C JUMPI DUP3 DUP8 ADD CALLDATALOAD SWAP1 POP JUMPDEST PUSH2 0xA26 DUP6 DUP3 PUSH2 0x9AB JUMP JUMPDEST DUP7 SSTORE POP PUSH2 0xA8E JUMP JUMPDEST PUSH1 0x1F NOT DUP5 AND PUSH2 0xA3C DUP7 PUSH2 0x811 JUMP JUMPDEST PUSH1 0x0 JUMPDEST DUP3 DUP2 LT ISZERO PUSH2 0xA64 JUMPI DUP5 DUP10 ADD CALLDATALOAD DUP3 SSTORE PUSH1 0x1 DUP3 ADD SWAP2 POP PUSH1 0x20 DUP6 ADD SWAP5 POP PUSH1 0x20 DUP2 ADD SWAP1 POP PUSH2 0xA3F JUMP JUMPDEST DUP7 DUP4 LT ISZERO PUSH2 0xA81 JUMPI DUP5 DUP10 ADD CALLDATALOAD PUSH2 0xA7D PUSH1 0x1F DUP10 AND DUP3 PUSH2 0x98D JUMP JUMPDEST DUP4 SSTORE POP JUMPDEST PUSH1 0x1 PUSH1 0x2 DUP9 MUL ADD DUP9 SSTORE POP POP POP JUMPDEST POP POP POP POP POP POP POP JUMP INVALID LOG2 PUSH5 0x6970667358 0x22 SLT KECCAK256 EXTCODEHASH 0xE3 DUP9 GASPRICE SWAP3 0xCA 0xDA LOG3 SELFBALANCE DELEGATECALL MOD 0x2F PUSH27 0x40506C2564EDBA4311CF39D0316645A533737264736F6C63430008 SHR STOP CALLER "},"methodIdentifiers":{"getAddress(bytes32)":"21f8a721","getEmergencyAdmin()":"ddcaa9ea","getLendingPool()":"0261bf8b","getLendingPoolCollateralManager()":"712d9171","getLendingPoolConfigurator()":"85c858b1","getLendingRateOracle()":"3618abba","getMarketId()":"568ef470","getPoolAdmin()":"aecda378","getPriceOracle()":"fca513a8","setAddress(bytes32,address)":"ca446dd9","setAddressAsProxy(bytes32,address)":"5dcc528c","setEmergencyAdmin(address)":"35da3394","setLendingPoolCollateralManager(address)":"398e5553","setLendingPoolConfiguratorImpl(address)":"c12542df","setLendingPoolImpl(address)":"5aef021f","setLendingRateOracle(address)":"820d1274","setMarketId(string)":"f67b1847","setPoolAdmin(address)":"283d62ad","setPriceOracle(address)":"530e784f"}}}}}