{"contracts/mocks/MockPool.sol":{"MockPool":{"abi":[{"anonymous":false,"inputs":[{"indexed":true,"internalType":"address","name":"receiver","type":"address"},{"indexed":true,"internalType":"address","name":"asset","type":"address"},{"indexed":false,"internalType":"uint256","name":"amount","type":"uint256"},{"indexed":false,"internalType":"uint256","name":"premium","type":"uint256"}],"name":"FlashLoan","type":"event"},{"anonymous":false,"inputs":[{"indexed":true,"internalType":"address","name":"receiver","type":"address"},{"indexed":false,"internalType":"address[]","name":"assets","type":"address[]"},{"indexed":false,"internalType":"uint256[]","name":"amounts","type":"uint256[]"},{"indexed":false,"internalType":"uint256[]","name":"premiums","type":"uint256[]"}],"name":"FlashLoanMultiple","type":"event"},{"inputs":[],"name":"ETH_ADDRESS","outputs":[{"internalType":"address","name":"","type":"address"}],"stateMutability":"view","type":"function"},{"inputs":[{"internalType":"address","name":"receiverAddress","type":"address"},{"internalType":"address[]","name":"assets","type":"address[]"},{"internalType":"uint256[]","name":"amounts","type":"uint256[]"},{"internalType":"uint256[]","name":"modes","type":"uint256[]"},{"internalType":"address","name":"onBehalfOf","type":"address"},{"internalType":"bytes","name":"params","type":"bytes"},{"internalType":"uint16","name":"referralCode","type":"uint16"}],"name":"flashLoan","outputs":[],"stateMutability":"nonpayable","type":"function"},{"inputs":[{"internalType":"address","name":"receiverAddress","type":"address"},{"internalType":"address","name":"asset","type":"address"},{"internalType":"uint256","name":"amount","type":"uint256"},{"internalType":"bytes","name":"params","type":"bytes"},{"internalType":"uint16","name":"referralCode","type":"uint16"}],"name":"flashLoanSimple","outputs":[],"stateMutability":"nonpayable","type":"function"},{"stateMutability":"payable","type":"receive"}],"evm":{"bytecode":{"linkReferences":{},"object":"6080604052348015600f57600080fd5b506119268061001f6000396000f3fe6080604052600436106100385760003560e01c806342b0b77c14610044578063a734f06e1461006d578063ab9c4b5d146100985761003f565b3661003f57005b600080fd5b34801561005057600080fd5b5061006b60048036038101906100669190610e2d565b6100c1565b005b34801561007957600080fd5b50610082610588565b60405161008f9190610ed6565b60405180910390f35b3480156100a457600080fd5b506100bf60048036038101906100ba9190610f9d565b6105a0565b005b60006127106009866100d391906110f0565b6100dd9190611161565b905073eeeeeeeeeeeeeeeeeeeeeeeeeeeeeeeeeeeeeeee73ffffffffffffffffffffffffffffffffffffffff168673ffffffffffffffffffffffffffffffffffffffff16036101b55784471015610169576040517f08c379a0000000000000000000000000000000000000000000000000000000008152600401610160906111ef565b60405180910390fd5b8673ffffffffffffffffffffffffffffffffffffffff166108fc869081150290604051600060405180830381858888f193505050501580156101af573d6000803e3d6000fd5b506102f1565b848673ffffffffffffffffffffffffffffffffffffffff166370a08231306040518263ffffffff1660e01b81526004016101ef9190610ed6565b602060405180830381865afa15801561020c573d6000803e3d6000fd5b505050506040513d601f19601f820116820180604052508101906102309190611224565b1015610271576040517f08c379a00000000000000000000000000000000000000000000000000000000081526004016102689061129d565b60405180910390fd5b8573ffffffffffffffffffffffffffffffffffffffff1663a9059cbb88876040518363ffffffff1660e01b81526004016102ac9291906112cc565b6020604051808303816000875af11580156102cb573d6000803e3d6000fd5b505050506040513d601f19601f820116820180604052508101906102ef919061132d565b505b8673ffffffffffffffffffffffffffffffffffffffff16631b11d0ff8787843389896040518763ffffffff1660e01b8152600401610334969594939291906113b8565b6020604051808303816000875af1158015610353573d6000803e3d6000fd5b505050506040513d601f19601f82011682018060405250810190610377919061132d565b6103b6576040517f08c379a00000000000000000000000000000000000000000000000000000000081526004016103ad90611460565b60405180910390fd5b73eeeeeeeeeeeeeeeeeeeeeeeeeeeeeeeeeeeeeeee73ffffffffffffffffffffffffffffffffffffffff168673ffffffffffffffffffffffffffffffffffffffff16036104505780856104099190611480565b47101561044b576040517f08c379a000000000000000000000000000000000000000000000000000000000815260040161044290611500565b60405180910390fd5b610518565b808561045c9190611480565b8673ffffffffffffffffffffffffffffffffffffffff166370a08231306040518263ffffffff1660e01b81526004016104959190610ed6565b602060405180830381865afa1580156104b2573d6000803e3d6000fd5b505050506040513d601f19601f820116820180604052508101906104d69190611224565b1015610517576040517f08c379a000000000000000000000000000000000000000000000000000000000815260040161050e90611500565b60405180910390fd5b5b8573ffffffffffffffffffffffffffffffffffffffff168773ffffffffffffffffffffffffffffffffffffffff167f0d7d75e01ab95780d3cd1c8ec0dd6c2ce19e3a20427eec8bf53283b6fb8e95f08784604051610577929190611520565b60405180910390a350505050505050565b73eeeeeeeeeeeeeeeeeeeeeeeeeeeeeeeeeeeeeeee81565b878790508a8a9050146105e8576040517f08c379a00000000000000000000000000000000000000000000000000000000081526004016105df90611595565b60405180910390fd5b60008a8a905067ffffffffffffffff811115610607576106066115b5565b5b6040519080825280602002602001820160405280156106355781602001602082028036833780820191505090505b50905060005b8b8b90508110156109905761271060098b8b8481811061065e5761065d6115e4565b5b9050602002013561066f91906110f0565b6106799190611161565b82828151811061068c5761068b6115e4565b5b60200260200101818152505073eeeeeeeeeeeeeeeeeeeeeeeeeeeeeeeeeeeeeeee73ffffffffffffffffffffffffffffffffffffffff168c8c838181106106d6576106d56115e4565b5b90506020020160208101906106eb9190611613565b73ffffffffffffffffffffffffffffffffffffffff16036107c757898982818110610719576107186115e4565b5b90506020020135471015610762576040517f08c379a0000000000000000000000000000000000000000000000000000000008152600401610759906111ef565b60405180910390fd5b8c73ffffffffffffffffffffffffffffffffffffffff166108fc8b8b8481811061078f5761078e6115e4565b5b905060200201359081150290604051600060405180830381858888f193505050501580156107c1573d6000803e3d6000fd5b50610983565b8989828181106107da576107d96115e4565b5b905060200201358c8c838181106107f4576107f36115e4565b5b90506020020160208101906108099190611613565b73ffffffffffffffffffffffffffffffffffffffff166370a08231306040518263ffffffff1660e01b81526004016108419190610ed6565b602060405180830381865afa15801561085e573d6000803e3d6000fd5b505050506040513d601f19601f820116820180604052508101906108829190611224565b10156108c3576040517f08c379a00000000000000000000000000000000000000000000000000000000081526004016108ba9061129d565b60405180910390fd5b8b8b828181106108d6576108d56115e4565b5b90506020020160208101906108eb9190611613565b73ffffffffffffffffffffffffffffffffffffffff1663a9059cbb8e8c8c8581811061091a576109196115e4565b5b905060200201356040518363ffffffff1660e01b815260040161093e9291906112cc565b6020604051808303816000875af115801561095d573d6000803e3d6000fd5b505050506040513d601f19601f82011682018060405250810190610981919061132d565b505b808060010191505061063b565b508b73ffffffffffffffffffffffffffffffffffffffff1663920f5c848c8c8c8c86338b8b6040518963ffffffff1660e01b81526004016109d898979695949392919061182b565b6020604051808303816000875af11580156109f7573d6000803e3d6000fd5b505050506040513d601f19601f82011682018060405250810190610a1b919061132d565b610a5a576040517f08c379a0000000000000000000000000000000000000000000000000000000008152600401610a5190611460565b60405180910390fd5b60005b8b8b9050811015610c8b5773eeeeeeeeeeeeeeeeeeeeeeeeeeeeeeeeeeeeeeee73ffffffffffffffffffffffffffffffffffffffff168c8c83818110610aa657610aa56115e4565b5b9050602002016020810190610abb9190611613565b73ffffffffffffffffffffffffffffffffffffffff1603610b5c57818181518110610ae957610ae86115e4565b5b60200260200101518a8a83818110610b0457610b036115e4565b5b90506020020135610b159190611480565b471015610b57576040517f08c379a0000000000000000000000000000000000000000000000000000000008152600401610b4e90611500565b60405180910390fd5b610c7e565b818181518110610b6f57610b6e6115e4565b5b60200260200101518a8a83818110610b8a57610b896115e4565b5b90506020020135610b9b9190611480565b8c8c83818110610bae57610bad6115e4565b5b9050602002016020810190610bc39190611613565b73ffffffffffffffffffffffffffffffffffffffff166370a08231306040518263ffffffff1660e01b8152600401610bfb9190610ed6565b602060405180830381865afa158015610c18573d6000803e3d6000fd5b505050506040513d601f19601f82011682018060405250810190610c3c9190611224565b1015610c7d576040517f08c379a0000000000000000000000000000000000000000000000000000000008152600401610c7490611500565b60405180910390fd5b5b8080600101915050610a5d565b508b73ffffffffffffffffffffffffffffffffffffffff167fbda78dd5eb80b12c2e3c6ef3c60077f2de550858c6e2bfdc8ff2d83f343c64f48c8c8c8c86604051610cda9594939291906118a0565b60405180910390a2505050505050505050505050565b600080fd5b600080fd5b600073ffffffffffffffffffffffffffffffffffffffff82169050919050565b6000610d2582610cfa565b9050919050565b610d3581610d1a565b8114610d4057600080fd5b50565b600081359050610d5281610d2c565b92915050565b6000819050919050565b610d6b81610d58565b8114610d7657600080fd5b50565b600081359050610d8881610d62565b92915050565b600080fd5b600080fd5b600080fd5b60008083601f840112610db357610db2610d8e565b5b8235905067ffffffffffffffff811115610dd057610dcf610d93565b5b602083019150836001820283011115610dec57610deb610d98565b5b9250929050565b600061ffff82169050919050565b610e0a81610df3565b8114610e1557600080fd5b50565b600081359050610e2781610e01565b92915050565b60008060008060008060a08789031215610e4a57610e49610cf0565b5b6000610e5889828a01610d43565b9650506020610e6989828a01610d43565b9550506040610e7a89828a01610d79565b945050606087013567ffffffffffffffff811115610e9b57610e9a610cf5565b5b610ea789828a01610d9d565b93509350506080610eba89828a01610e18565b9150509295509295509295565b610ed081610d1a565b82525050565b6000602082019050610eeb6000830184610ec7565b92915050565b60008083601f840112610f0757610f06610d8e565b5b8235905067ffffffffffffffff811115610f2457610f23610d93565b5b602083019150836020820283011115610f4057610f3f610d98565b5b9250929050565b60008083601f840112610f5d57610f5c610d8e565b5b8235905067ffffffffffffffff811115610f7a57610f79610d93565b5b602083019150836020820283011115610f9657610f95610d98565b5b9250929050565b600080600080600080600080600080600060e08c8e031215610fc257610fc1610cf0565b5b6000610fd08e828f01610d43565b9b505060208c013567ffffffffffffffff811115610ff157610ff0610cf5565b5b610ffd8e828f01610ef1565b9a509a505060408c013567ffffffffffffffff8111156110205761101f610cf5565b5b61102c8e828f01610f47565b985098505060608c013567ffffffffffffffff81111561104f5761104e610cf5565b5b61105b8e828f01610f47565b9650965050608061106e8e828f01610d43565b94505060a08c013567ffffffffffffffff81111561108f5761108e610cf5565b5b61109b8e828f01610d9d565b935093505060c06110ae8e828f01610e18565b9150509295989b509295989b9093969950565b7f4e487b7100000000000000000000000000000000000000000000000000000000600052601160045260246000fd5b60006110fb82610d58565b915061110683610d58565b925082820261111481610d58565b9150828204841483151761112b5761112a6110c1565b5b5092915050565b7f4e487b7100000000000000000000000000000000000000000000000000000000600052601260045260246000fd5b600061116c82610d58565b915061117783610d58565b92508261118757611186611132565b5b828204905092915050565b600082825260208201905092915050565b7f496e73756666696369656e7420455448206c6971756964697479000000000000600082015250565b60006111d9601a83611192565b91506111e4826111a3565b602082019050919050565b60006020820190508181036000830152611208816111cc565b9050919050565b60008151905061121e81610d62565b92915050565b60006020828403121561123a57611239610cf0565b5b60006112488482850161120f565b91505092915050565b7f496e73756666696369656e7420746f6b656e206c697175696469747900000000600082015250565b6000611287601c83611192565b915061129282611251565b602082019050919050565b600060208201905081810360008301526112b68161127a565b9050919050565b6112c681610d58565b82525050565b60006040820190506112e16000830185610ec7565b6112ee60208301846112bd565b9392505050565b60008115159050919050565b61130a816112f5565b811461131557600080fd5b50565b60008151905061132781611301565b92915050565b60006020828403121561134357611342610cf0565b5b600061135184828501611318565b91505092915050565b600082825260208201905092915050565b82818337600083830152505050565b6000601f19601f8301169050919050565b6000611397838561135a565b93506113a483858461136b565b6113ad8361137a565b840190509392505050565b600060a0820190506113cd6000830189610ec7565b6113da60208301886112bd565b6113e760408301876112bd565b6113f46060830186610ec7565b818103608083015261140781848661138b565b9050979650505050505050565b7f466c617368206c6f616e20657865637574696f6e206661696c65640000000000600082015250565b600061144a601b83611192565b915061145582611414565b602082019050919050565b600060208201905081810360008301526114798161143d565b9050919050565b600061148b82610d58565b915061149683610d58565b92508282019050808211156114ae576114ad6110c1565b5b92915050565b7f466c617368206c6f616e2072657061796d656e74206661696c65640000000000600082015250565b60006114ea601b83611192565b91506114f5826114b4565b602082019050919050565b60006020820190508181036000830152611519816114dd565b9050919050565b600060408201905061153560008301856112bd565b61154260208301846112bd565b9392505050565b7f417272617973206c656e677468206d69736d6174636800000000000000000000600082015250565b600061157f601683611192565b915061158a82611549565b602082019050919050565b600060208201905081810360008301526115ae81611572565b9050919050565b7f4e487b7100000000000000000000000000000000000000000000000000000000600052604160045260246000fd5b7f4e487b7100000000000000000000000000000000000000000000000000000000600052603260045260246000fd5b60006020828403121561162957611628610cf0565b5b600061163784828501610d43565b91505092915050565b600082825260208201905092915050565b6000819050919050565b61166481610d1a565b82525050565b6000611676838361165b565b60208301905092915050565b60006116916020840184610d43565b905092915050565b6000602082019050919050565b60006116b28385611640565b93506116bd82611651565b8060005b858110156116f6576116d38284611682565b6116dd888261166a565b97506116e883611699565b9250506001810190506116c1565b5085925050509392505050565b600082825260208201905092915050565b600080fd5b82818337505050565b600061172e8385611703565b93507f07ffffffffffffffffffffffffffffffffffffffffffffffffffffffffffffff83111561176157611760611714565b5b602083029250611772838584611719565b82840190509392505050565b600081519050919050565b6000819050602082019050919050565b6117a281610d58565b82525050565b60006117b48383611799565b60208301905092915050565b6000602082019050919050565b60006117d88261177e565b6117e28185611703565b93506117ed83611789565b8060005b8381101561181e57815161180588826117a8565b9750611810836117c0565b9250506001810190506117f1565b5085935050505092915050565b600060a0820190508181036000830152611846818a8c6116a6565b9050818103602083015261185b81888a611722565b9050818103604083015261186f81876117cd565b905061187e6060830186610ec7565b818103608083015261189181848661138b565b90509998505050505050505050565b600060608201905081810360008301526118bb8187896116a6565b905081810360208301526118d0818587611722565b905081810360408301526118e481846117cd565b9050969550505050505056fea26469706673582212209b1be3b0173227ff9e3dabb12f815e09116f4760b7290a23ef6b3df13f5d00a364736f6c634300081c0033","opcodes":"PUSH1 0x80 PUSH1 0x40 MSTORE CALLVALUE DUP1 ISZERO PUSH1 0xF JUMPI PUSH1 0x0 DUP1 REVERT JUMPDEST POP PUSH2 0x1926 DUP1 PUSH2 0x1F PUSH1 0x0 CODECOPY PUSH1 0x0 RETURN INVALID PUSH1 0x80 PUSH1 0x40 MSTORE PUSH1 0x4 CALLDATASIZE LT PUSH2 0x38 JUMPI PUSH1 0x0 CALLDATALOAD PUSH1 0xE0 SHR DUP1 PUSH4 0x42B0B77C EQ PUSH2 0x44 JUMPI DUP1 PUSH4 0xA734F06E EQ PUSH2 0x6D JUMPI DUP1 PUSH4 0xAB9C4B5D EQ PUSH2 0x98 JUMPI PUSH2 0x3F JUMP JUMPDEST CALLDATASIZE PUSH2 0x3F JUMPI STOP JUMPDEST PUSH1 0x0 DUP1 REVERT JUMPDEST CALLVALUE DUP1 ISZERO PUSH2 0x50 JUMPI PUSH1 0x0 DUP1 REVERT JUMPDEST POP PUSH2 0x6B PUSH1 0x4 DUP1 CALLDATASIZE SUB DUP2 ADD SWAP1 PUSH2 0x66 SWAP2 SWAP1 PUSH2 0xE2D JUMP JUMPDEST PUSH2 0xC1 JUMP JUMPDEST STOP JUMPDEST CALLVALUE DUP1 ISZERO PUSH2 0x79 JUMPI PUSH1 0x0 DUP1 REVERT JUMPDEST POP PUSH2 0x82 PUSH2 0x588 JUMP JUMPDEST PUSH1 0x40 MLOAD PUSH2 0x8F SWAP2 SWAP1 PUSH2 0xED6 JUMP JUMPDEST PUSH1 0x40 MLOAD DUP1 SWAP2 SUB SWAP1 RETURN JUMPDEST CALLVALUE DUP1 ISZERO PUSH2 0xA4 JUMPI PUSH1 0x0 DUP1 REVERT JUMPDEST POP PUSH2 0xBF PUSH1 0x4 DUP1 CALLDATASIZE SUB DUP2 ADD SWAP1 PUSH2 0xBA SWAP2 SWAP1 PUSH2 0xF9D JUMP JUMPDEST PUSH2 0x5A0 JUMP JUMPDEST STOP JUMPDEST PUSH1 0x0 PUSH2 0x2710 PUSH1 0x9 DUP7 PUSH2 0xD3 SWAP2 SWAP1 PUSH2 0x10F0 JUMP JUMPDEST PUSH2 0xDD SWAP2 SWAP1 PUSH2 0x1161 JUMP JUMPDEST SWAP1 POP PUSH20 0xEEEEEEEEEEEEEEEEEEEEEEEEEEEEEEEEEEEEEEEE PUSH20 0xFFFFFFFFFFFFFFFFFFFFFFFFFFFFFFFFFFFFFFFF AND DUP7 PUSH20 0xFFFFFFFFFFFFFFFFFFFFFFFFFFFFFFFFFFFFFFFF AND SUB PUSH2 0x1B5 JUMPI DUP5 SELFBALANCE LT ISZERO PUSH2 0x169 JUMPI PUSH1 0x40 MLOAD PUSH32 0x8C379A000000000000000000000000000000000000000000000000000000000 DUP2 MSTORE PUSH1 0x4 ADD PUSH2 0x160 SWAP1 PUSH2 0x11EF JUMP JUMPDEST PUSH1 0x40 MLOAD DUP1 SWAP2 SUB SWAP1 REVERT JUMPDEST DUP7 PUSH20 0xFFFFFFFFFFFFFFFFFFFFFFFFFFFFFFFFFFFFFFFF AND PUSH2 0x8FC DUP7 SWAP1 DUP2 ISZERO MUL SWAP1 PUSH1 0x40 MLOAD PUSH1 0x0 PUSH1 0x40 MLOAD DUP1 DUP4 SUB DUP2 DUP6 DUP9 DUP9 CALL SWAP4 POP POP POP POP ISZERO DUP1 ISZERO PUSH2 0x1AF JUMPI RETURNDATASIZE PUSH1 0x0 DUP1 RETURNDATACOPY RETURNDATASIZE PUSH1 0x0 REVERT JUMPDEST POP PUSH2 0x2F1 JUMP JUMPDEST DUP5 DUP7 PUSH20 0xFFFFFFFFFFFFFFFFFFFFFFFFFFFFFFFFFFFFFFFF AND PUSH4 0x70A08231 ADDRESS PUSH1 0x40 MLOAD DUP3 PUSH4 0xFFFFFFFF AND PUSH1 0xE0 SHL DUP2 MSTORE PUSH1 0x4 ADD PUSH2 0x1EF SWAP2 SWAP1 PUSH2 0xED6 JUMP JUMPDEST PUSH1 0x20 PUSH1 0x40 MLOAD DUP1 DUP4 SUB DUP2 DUP7 GAS STATICCALL ISZERO DUP1 ISZERO PUSH2 0x20C JUMPI RETURNDATASIZE PUSH1 0x0 DUP1 RETURNDATACOPY RETURNDATASIZE PUSH1 0x0 REVERT JUMPDEST POP POP POP POP PUSH1 0x40 MLOAD RETURNDATASIZE PUSH1 0x1F NOT PUSH1 0x1F DUP3 ADD AND DUP3 ADD DUP1 PUSH1 0x40 MSTORE POP DUP2 ADD SWAP1 PUSH2 0x230 SWAP2 SWAP1 PUSH2 0x1224 JUMP JUMPDEST LT ISZERO PUSH2 0x271 JUMPI PUSH1 0x40 MLOAD PUSH32 0x8C379A000000000000000000000000000000000000000000000000000000000 DUP2 MSTORE PUSH1 0x4 ADD PUSH2 0x268 SWAP1 PUSH2 0x129D JUMP JUMPDEST PUSH1 0x40 MLOAD DUP1 SWAP2 SUB SWAP1 REVERT JUMPDEST DUP6 PUSH20 0xFFFFFFFFFFFFFFFFFFFFFFFFFFFFFFFFFFFFFFFF AND PUSH4 0xA9059CBB DUP9 DUP8 PUSH1 0x40 MLOAD DUP4 PUSH4 0xFFFFFFFF AND PUSH1 0xE0 SHL DUP2 MSTORE PUSH1 0x4 ADD PUSH2 0x2AC SWAP3 SWAP2 SWAP1 PUSH2 0x12CC JUMP JUMPDEST PUSH1 0x20 PUSH1 0x40 MLOAD DUP1 DUP4 SUB DUP2 PUSH1 0x0 DUP8 GAS CALL ISZERO DUP1 ISZERO PUSH2 0x2CB JUMPI RETURNDATASIZE PUSH1 0x0 DUP1 RETURNDATACOPY RETURNDATASIZE PUSH1 0x0 REVERT JUMPDEST POP POP POP POP PUSH1 0x40 MLOAD RETURNDATASIZE PUSH1 0x1F NOT PUSH1 0x1F DUP3 ADD AND DUP3 ADD DUP1 PUSH1 0x40 MSTORE POP DUP2 ADD SWAP1 PUSH2 0x2EF SWAP2 SWAP1 PUSH2 0x132D JUMP JUMPDEST POP JUMPDEST DUP7 PUSH20 0xFFFFFFFFFFFFFFFFFFFFFFFFFFFFFFFFFFFFFFFF AND PUSH4 0x1B11D0FF DUP8 DUP8 DUP5 CALLER DUP10 DUP10 PUSH1 0x40 MLOAD DUP8 PUSH4 0xFFFFFFFF AND PUSH1 0xE0 SHL DUP2 MSTORE PUSH1 0x4 ADD PUSH2 0x334 SWAP7 SWAP6 SWAP5 SWAP4 SWAP3 SWAP2 SWAP1 PUSH2 0x13B8 JUMP JUMPDEST PUSH1 0x20 PUSH1 0x40 MLOAD DUP1 DUP4 SUB DUP2 PUSH1 0x0 DUP8 GAS CALL ISZERO DUP1 ISZERO PUSH2 0x353 JUMPI RETURNDATASIZE PUSH1 0x0 DUP1 RETURNDATACOPY RETURNDATASIZE PUSH1 0x0 REVERT JUMPDEST POP POP POP POP PUSH1 0x40 MLOAD RETURNDATASIZE PUSH1 0x1F NOT PUSH1 0x1F DUP3 ADD AND DUP3 ADD DUP1 PUSH1 0x40 MSTORE POP DUP2 ADD SWAP1 PUSH2 0x377 SWAP2 SWAP1 PUSH2 0x132D JUMP JUMPDEST PUSH2 0x3B6 JUMPI PUSH1 0x40 MLOAD PUSH32 0x8C379A000000000000000000000000000000000000000000000000000000000 DUP2 MSTORE PUSH1 0x4 ADD PUSH2 0x3AD SWAP1 PUSH2 0x1460 JUMP JUMPDEST PUSH1 0x40 MLOAD DUP1 SWAP2 SUB SWAP1 REVERT JUMPDEST PUSH20 0xEEEEEEEEEEEEEEEEEEEEEEEEEEEEEEEEEEEEEEEE PUSH20 0xFFFFFFFFFFFFFFFFFFFFFFFFFFFFFFFFFFFFFFFF AND DUP7 PUSH20 0xFFFFFFFFFFFFFFFFFFFFFFFFFFFFFFFFFFFFFFFF AND SUB PUSH2 0x450 JUMPI DUP1 DUP6 PUSH2 0x409 SWAP2 SWAP1 PUSH2 0x1480 JUMP JUMPDEST SELFBALANCE LT ISZERO PUSH2 0x44B JUMPI PUSH1 0x40 MLOAD PUSH32 0x8C379A000000000000000000000000000000000000000000000000000000000 DUP2 MSTORE PUSH1 0x4 ADD PUSH2 0x442 SWAP1 PUSH2 0x1500 JUMP JUMPDEST PUSH1 0x40 MLOAD DUP1 SWAP2 SUB SWAP1 REVERT JUMPDEST PUSH2 0x518 JUMP JUMPDEST DUP1 DUP6 PUSH2 0x45C SWAP2 SWAP1 PUSH2 0x1480 JUMP JUMPDEST DUP7 PUSH20 0xFFFFFFFFFFFFFFFFFFFFFFFFFFFFFFFFFFFFFFFF AND PUSH4 0x70A08231 ADDRESS PUSH1 0x40 MLOAD DUP3 PUSH4 0xFFFFFFFF AND PUSH1 0xE0 SHL DUP2 MSTORE PUSH1 0x4 ADD PUSH2 0x495 SWAP2 SWAP1 PUSH2 0xED6 JUMP JUMPDEST PUSH1 0x20 PUSH1 0x40 MLOAD DUP1 DUP4 SUB DUP2 DUP7 GAS STATICCALL ISZERO DUP1 ISZERO PUSH2 0x4B2 JUMPI RETURNDATASIZE PUSH1 0x0 DUP1 RETURNDATACOPY RETURNDATASIZE PUSH1 0x0 REVERT JUMPDEST POP POP POP POP PUSH1 0x40 MLOAD RETURNDATASIZE PUSH1 0x1F NOT PUSH1 0x1F DUP3 ADD AND DUP3 ADD DUP1 PUSH1 0x40 MSTORE POP DUP2 ADD SWAP1 PUSH2 0x4D6 SWAP2 SWAP1 PUSH2 0x1224 JUMP JUMPDEST LT ISZERO PUSH2 0x517 JUMPI PUSH1 0x40 MLOAD PUSH32 0x8C379A000000000000000000000000000000000000000000000000000000000 DUP2 MSTORE PUSH1 0x4 ADD PUSH2 0x50E SWAP1 PUSH2 0x1500 JUMP JUMPDEST PUSH1 0x40 MLOAD DUP1 SWAP2 SUB SWAP1 REVERT JUMPDEST JUMPDEST DUP6 PUSH20 0xFFFFFFFFFFFFFFFFFFFFFFFFFFFFFFFFFFFFFFFF AND DUP8 PUSH20 0xFFFFFFFFFFFFFFFFFFFFFFFFFFFFFFFFFFFFFFFF AND PUSH32 0xD7D75E01AB95780D3CD1C8EC0DD6C2CE19E3A20427EEC8BF53283B6FB8E95F0 DUP8 DUP5 PUSH1 0x40 MLOAD PUSH2 0x577 SWAP3 SWAP2 SWAP1 PUSH2 0x1520 JUMP JUMPDEST PUSH1 0x40 MLOAD DUP1 SWAP2 SUB SWAP1 LOG3 POP POP POP POP POP POP POP JUMP JUMPDEST PUSH20 0xEEEEEEEEEEEEEEEEEEEEEEEEEEEEEEEEEEEEEEEE DUP2 JUMP JUMPDEST DUP8 DUP8 SWAP1 POP DUP11 DUP11 SWAP1 POP EQ PUSH2 0x5E8 JUMPI PUSH1 0x40 MLOAD PUSH32 0x8C379A000000000000000000000000000000000000000000000000000000000 DUP2 MSTORE PUSH1 0x4 ADD PUSH2 0x5DF SWAP1 PUSH2 0x1595 JUMP JUMPDEST PUSH1 0x40 MLOAD DUP1 SWAP2 SUB SWAP1 REVERT JUMPDEST PUSH1 0x0 DUP11 DUP11 SWAP1 POP PUSH8 0xFFFFFFFFFFFFFFFF DUP2 GT ISZERO PUSH2 0x607 JUMPI PUSH2 0x606 PUSH2 0x15B5 JUMP JUMPDEST JUMPDEST PUSH1 0x40 MLOAD SWAP1 DUP1 DUP3 MSTORE DUP1 PUSH1 0x20 MUL PUSH1 0x20 ADD DUP3 ADD PUSH1 0x40 MSTORE DUP1 ISZERO PUSH2 0x635 JUMPI DUP2 PUSH1 0x20 ADD PUSH1 0x20 DUP3 MUL DUP1 CALLDATASIZE DUP4 CALLDATACOPY DUP1 DUP3 ADD SWAP2 POP POP SWAP1 POP JUMPDEST POP SWAP1 POP PUSH1 0x0 JUMPDEST DUP12 DUP12 SWAP1 POP DUP2 LT ISZERO PUSH2 0x990 JUMPI PUSH2 0x2710 PUSH1 0x9 DUP12 DUP12 DUP5 DUP2 DUP2 LT PUSH2 0x65E JUMPI PUSH2 0x65D PUSH2 0x15E4 JUMP JUMPDEST JUMPDEST SWAP1 POP PUSH1 0x20 MUL ADD CALLDATALOAD PUSH2 0x66F SWAP2 SWAP1 PUSH2 0x10F0 JUMP JUMPDEST PUSH2 0x679 SWAP2 SWAP1 PUSH2 0x1161 JUMP JUMPDEST DUP3 DUP3 DUP2 MLOAD DUP2 LT PUSH2 0x68C JUMPI PUSH2 0x68B PUSH2 0x15E4 JUMP JUMPDEST JUMPDEST PUSH1 0x20 MUL PUSH1 0x20 ADD ADD DUP2 DUP2 MSTORE POP POP PUSH20 0xEEEEEEEEEEEEEEEEEEEEEEEEEEEEEEEEEEEEEEEE PUSH20 0xFFFFFFFFFFFFFFFFFFFFFFFFFFFFFFFFFFFFFFFF AND DUP13 DUP13 DUP4 DUP2 DUP2 LT PUSH2 0x6D6 JUMPI PUSH2 0x6D5 PUSH2 0x15E4 JUMP JUMPDEST JUMPDEST SWAP1 POP PUSH1 0x20 MUL ADD PUSH1 0x20 DUP2 ADD SWAP1 PUSH2 0x6EB SWAP2 SWAP1 PUSH2 0x1613 JUMP JUMPDEST PUSH20 0xFFFFFFFFFFFFFFFFFFFFFFFFFFFFFFFFFFFFFFFF AND SUB PUSH2 0x7C7 JUMPI DUP10 DUP10 DUP3 DUP2 DUP2 LT PUSH2 0x719 JUMPI PUSH2 0x718 PUSH2 0x15E4 JUMP JUMPDEST JUMPDEST SWAP1 POP PUSH1 0x20 MUL ADD CALLDATALOAD SELFBALANCE LT ISZERO PUSH2 0x762 JUMPI PUSH1 0x40 MLOAD PUSH32 0x8C379A000000000000000000000000000000000000000000000000000000000 DUP2 MSTORE PUSH1 0x4 ADD PUSH2 0x759 SWAP1 PUSH2 0x11EF JUMP JUMPDEST PUSH1 0x40 MLOAD DUP1 SWAP2 SUB SWAP1 REVERT JUMPDEST DUP13 PUSH20 0xFFFFFFFFFFFFFFFFFFFFFFFFFFFFFFFFFFFFFFFF AND PUSH2 0x8FC DUP12 DUP12 DUP5 DUP2 DUP2 LT PUSH2 0x78F JUMPI PUSH2 0x78E PUSH2 0x15E4 JUMP JUMPDEST JUMPDEST SWAP1 POP PUSH1 0x20 MUL ADD CALLDATALOAD SWAP1 DUP2 ISZERO MUL SWAP1 PUSH1 0x40 MLOAD PUSH1 0x0 PUSH1 0x40 MLOAD DUP1 DUP4 SUB DUP2 DUP6 DUP9 DUP9 CALL SWAP4 POP POP POP POP ISZERO DUP1 ISZERO PUSH2 0x7C1 JUMPI RETURNDATASIZE PUSH1 0x0 DUP1 RETURNDATACOPY RETURNDATASIZE PUSH1 0x0 REVERT JUMPDEST POP PUSH2 0x983 JUMP JUMPDEST DUP10 DUP10 DUP3 DUP2 DUP2 LT PUSH2 0x7DA JUMPI PUSH2 0x7D9 PUSH2 0x15E4 JUMP JUMPDEST JUMPDEST SWAP1 POP PUSH1 0x20 MUL ADD CALLDATALOAD DUP13 DUP13 DUP4 DUP2 DUP2 LT PUSH2 0x7F4 JUMPI PUSH2 0x7F3 PUSH2 0x15E4 JUMP JUMPDEST JUMPDEST SWAP1 POP PUSH1 0x20 MUL ADD PUSH1 0x20 DUP2 ADD SWAP1 PUSH2 0x809 SWAP2 SWAP1 PUSH2 0x1613 JUMP JUMPDEST PUSH20 0xFFFFFFFFFFFFFFFFFFFFFFFFFFFFFFFFFFFFFFFF AND PUSH4 0x70A08231 ADDRESS PUSH1 0x40 MLOAD DUP3 PUSH4 0xFFFFFFFF AND PUSH1 0xE0 SHL DUP2 MSTORE PUSH1 0x4 ADD PUSH2 0x841 SWAP2 SWAP1 PUSH2 0xED6 JUMP JUMPDEST PUSH1 0x20 PUSH1 0x40 MLOAD DUP1 DUP4 SUB DUP2 DUP7 GAS STATICCALL ISZERO DUP1 ISZERO PUSH2 0x85E JUMPI RETURNDATASIZE PUSH1 0x0 DUP1 RETURNDATACOPY RETURNDATASIZE PUSH1 0x0 REVERT JUMPDEST POP POP POP POP PUSH1 0x40 MLOAD RETURNDATASIZE PUSH1 0x1F NOT PUSH1 0x1F DUP3 ADD AND DUP3 ADD DUP1 PUSH1 0x40 MSTORE POP DUP2 ADD SWAP1 PUSH2 0x882 SWAP2 SWAP1 PUSH2 0x1224 JUMP JUMPDEST LT ISZERO PUSH2 0x8C3 JUMPI PUSH1 0x40 MLOAD PUSH32 0x8C379A000000000000000000000000000000000000000000000000000000000 DUP2 MSTORE PUSH1 0x4 ADD PUSH2 0x8BA SWAP1 PUSH2 0x129D JUMP JUMPDEST PUSH1 0x40 MLOAD DUP1 SWAP2 SUB SWAP1 REVERT JUMPDEST DUP12 DUP12 DUP3 DUP2 DUP2 LT PUSH2 0x8D6 JUMPI PUSH2 0x8D5 PUSH2 0x15E4 JUMP JUMPDEST JUMPDEST SWAP1 POP PUSH1 0x20 MUL ADD PUSH1 0x20 DUP2 ADD SWAP1 PUSH2 0x8EB SWAP2 SWAP1 PUSH2 0x1613 JUMP JUMPDEST PUSH20 0xFFFFFFFFFFFFFFFFFFFFFFFFFFFFFFFFFFFFFFFF AND PUSH4 0xA9059CBB DUP15 DUP13 DUP13 DUP6 DUP2 DUP2 LT PUSH2 0x91A JUMPI PUSH2 0x919 PUSH2 0x15E4 JUMP JUMPDEST JUMPDEST SWAP1 POP PUSH1 0x20 MUL ADD CALLDATALOAD PUSH1 0x40 MLOAD DUP4 PUSH4 0xFFFFFFFF AND PUSH1 0xE0 SHL DUP2 MSTORE PUSH1 0x4 ADD PUSH2 0x93E SWAP3 SWAP2 SWAP1 PUSH2 0x12CC JUMP JUMPDEST PUSH1 0x20 PUSH1 0x40 MLOAD DUP1 DUP4 SUB DUP2 PUSH1 0x0 DUP8 GAS CALL ISZERO DUP1 ISZERO PUSH2 0x95D JUMPI RETURNDATASIZE PUSH1 0x0 DUP1 RETURNDATACOPY RETURNDATASIZE PUSH1 0x0 REVERT JUMPDEST POP POP POP POP PUSH1 0x40 MLOAD RETURNDATASIZE PUSH1 0x1F NOT PUSH1 0x1F DUP3 ADD AND DUP3 ADD DUP1 PUSH1 0x40 MSTORE POP DUP2 ADD SWAP1 PUSH2 0x981 SWAP2 SWAP1 PUSH2 0x132D JUMP JUMPDEST POP JUMPDEST DUP1 DUP1 PUSH1 0x1 ADD SWAP2 POP POP PUSH2 0x63B JUMP JUMPDEST POP DUP12 PUSH20 0xFFFFFFFFFFFFFFFFFFFFFFFFFFFFFFFFFFFFFFFF AND PUSH4 0x920F5C84 DUP13 DUP13 DUP13 DUP13 DUP7 CALLER DUP12 DUP12 PUSH1 0x40 MLOAD DUP10 PUSH4 0xFFFFFFFF AND PUSH1 0xE0 SHL DUP2 MSTORE PUSH1 0x4 ADD PUSH2 0x9D8 SWAP9 SWAP8 SWAP7 SWAP6 SWAP5 SWAP4 SWAP3 SWAP2 SWAP1 PUSH2 0x182B JUMP JUMPDEST PUSH1 0x20 PUSH1 0x40 MLOAD DUP1 DUP4 SUB DUP2 PUSH1 0x0 DUP8 GAS CALL ISZERO DUP1 ISZERO PUSH2 0x9F7 JUMPI RETURNDATASIZE PUSH1 0x0 DUP1 RETURNDATACOPY RETURNDATASIZE PUSH1 0x0 REVERT JUMPDEST POP POP POP POP PUSH1 0x40 MLOAD RETURNDATASIZE PUSH1 0x1F NOT PUSH1 0x1F DUP3 ADD AND DUP3 ADD DUP1 PUSH1 0x40 MSTORE POP DUP2 ADD SWAP1 PUSH2 0xA1B SWAP2 SWAP1 PUSH2 0x132D JUMP JUMPDEST PUSH2 0xA5A JUMPI PUSH1 0x40 MLOAD PUSH32 0x8C379A000000000000000000000000000000000000000000000000000000000 DUP2 MSTORE PUSH1 0x4 ADD PUSH2 0xA51 SWAP1 PUSH2 0x1460 JUMP JUMPDEST PUSH1 0x40 MLOAD DUP1 SWAP2 SUB SWAP1 REVERT JUMPDEST PUSH1 0x0 JUMPDEST DUP12 DUP12 SWAP1 POP DUP2 LT ISZERO PUSH2 0xC8B JUMPI PUSH20 0xEEEEEEEEEEEEEEEEEEEEEEEEEEEEEEEEEEEEEEEE PUSH20 0xFFFFFFFFFFFFFFFFFFFFFFFFFFFFFFFFFFFFFFFF AND DUP13 DUP13 DUP4 DUP2 DUP2 LT PUSH2 0xAA6 JUMPI PUSH2 0xAA5 PUSH2 0x15E4 JUMP JUMPDEST JUMPDEST SWAP1 POP PUSH1 0x20 MUL ADD PUSH1 0x20 DUP2 ADD SWAP1 PUSH2 0xABB SWAP2 SWAP1 PUSH2 0x1613 JUMP JUMPDEST PUSH20 0xFFFFFFFFFFFFFFFFFFFFFFFFFFFFFFFFFFFFFFFF AND SUB PUSH2 0xB5C JUMPI DUP2 DUP2 DUP2 MLOAD DUP2 LT PUSH2 0xAE9 JUMPI PUSH2 0xAE8 PUSH2 0x15E4 JUMP JUMPDEST JUMPDEST PUSH1 0x20 MUL PUSH1 0x20 ADD ADD MLOAD DUP11 DUP11 DUP4 DUP2 DUP2 LT PUSH2 0xB04 JUMPI PUSH2 0xB03 PUSH2 0x15E4 JUMP JUMPDEST JUMPDEST SWAP1 POP PUSH1 0x20 MUL ADD CALLDATALOAD PUSH2 0xB15 SWAP2 SWAP1 PUSH2 0x1480 JUMP JUMPDEST SELFBALANCE LT ISZERO PUSH2 0xB57 JUMPI PUSH1 0x40 MLOAD PUSH32 0x8C379A000000000000000000000000000000000000000000000000000000000 DUP2 MSTORE PUSH1 0x4 ADD PUSH2 0xB4E SWAP1 PUSH2 0x1500 JUMP JUMPDEST PUSH1 0x40 MLOAD DUP1 SWAP2 SUB SWAP1 REVERT JUMPDEST PUSH2 0xC7E JUMP JUMPDEST DUP2 DUP2 DUP2 MLOAD DUP2 LT PUSH2 0xB6F JUMPI PUSH2 0xB6E PUSH2 0x15E4 JUMP JUMPDEST JUMPDEST PUSH1 0x20 MUL PUSH1 0x20 ADD ADD MLOAD DUP11 DUP11 DUP4 DUP2 DUP2 LT PUSH2 0xB8A JUMPI PUSH2 0xB89 PUSH2 0x15E4 JUMP JUMPDEST JUMPDEST SWAP1 POP PUSH1 0x20 MUL ADD CALLDATALOAD PUSH2 0xB9B SWAP2 SWAP1 PUSH2 0x1480 JUMP JUMPDEST DUP13 DUP13 DUP4 DUP2 DUP2 LT PUSH2 0xBAE JUMPI PUSH2 0xBAD PUSH2 0x15E4 JUMP JUMPDEST JUMPDEST SWAP1 POP PUSH1 0x20 MUL ADD PUSH1 0x20 DUP2 ADD SWAP1 PUSH2 0xBC3 SWAP2 SWAP1 PUSH2 0x1613 JUMP JUMPDEST PUSH20 0xFFFFFFFFFFFFFFFFFFFFFFFFFFFFFFFFFFFFFFFF AND PUSH4 0x70A08231 ADDRESS PUSH1 0x40 MLOAD DUP3 PUSH4 0xFFFFFFFF AND PUSH1 0xE0 SHL DUP2 MSTORE PUSH1 0x4 ADD PUSH2 0xBFB SWAP2 SWAP1 PUSH2 0xED6 JUMP JUMPDEST PUSH1 0x20 PUSH1 0x40 MLOAD DUP1 DUP4 SUB DUP2 DUP7 GAS STATICCALL ISZERO DUP1 ISZERO PUSH2 0xC18 JUMPI RETURNDATASIZE PUSH1 0x0 DUP1 RETURNDATACOPY RETURNDATASIZE PUSH1 0x0 REVERT JUMPDEST POP POP POP POP PUSH1 0x40 MLOAD RETURNDATASIZE PUSH1 0x1F NOT PUSH1 0x1F DUP3 ADD AND DUP3 ADD DUP1 PUSH1 0x40 MSTORE POP DUP2 ADD SWAP1 PUSH2 0xC3C SWAP2 SWAP1 PUSH2 0x1224 JUMP JUMPDEST LT ISZERO PUSH2 0xC7D JUMPI PUSH1 0x40 MLOAD PUSH32 0x8C379A000000000000000000000000000000000000000000000000000000000 DUP2 MSTORE PUSH1 0x4 ADD PUSH2 0xC74 SWAP1 PUSH2 0x1500 JUMP JUMPDEST PUSH1 0x40 MLOAD DUP1 SWAP2 SUB SWAP1 REVERT JUMPDEST JUMPDEST DUP1 DUP1 PUSH1 0x1 ADD SWAP2 POP POP PUSH2 0xA5D JUMP JUMPDEST POP DUP12 PUSH20 0xFFFFFFFFFFFFFFFFFFFFFFFFFFFFFFFFFFFFFFFF AND PUSH32 0xBDA78DD5EB80B12C2E3C6EF3C60077F2DE550858C6E2BFDC8FF2D83F343C64F4 DUP13 DUP13 DUP13 DUP13 DUP7 PUSH1 0x40 MLOAD PUSH2 0xCDA SWAP6 SWAP5 SWAP4 SWAP3 SWAP2 SWAP1 PUSH2 0x18A0 JUMP JUMPDEST PUSH1 0x40 MLOAD DUP1 SWAP2 SUB SWAP1 LOG2 POP POP POP POP POP POP POP POP POP POP POP POP JUMP JUMPDEST PUSH1 0x0 DUP1 REVERT JUMPDEST PUSH1 0x0 DUP1 REVERT JUMPDEST PUSH1 0x0 PUSH20 0xFFFFFFFFFFFFFFFFFFFFFFFFFFFFFFFFFFFFFFFF DUP3 AND SWAP1 POP SWAP2 SWAP1 POP JUMP JUMPDEST PUSH1 0x0 PUSH2 0xD25 DUP3 PUSH2 0xCFA JUMP JUMPDEST SWAP1 POP SWAP2 SWAP1 POP JUMP JUMPDEST PUSH2 0xD35 DUP2 PUSH2 0xD1A JUMP JUMPDEST DUP2 EQ PUSH2 0xD40 JUMPI PUSH1 0x0 DUP1 REVERT JUMPDEST POP JUMP JUMPDEST PUSH1 0x0 DUP2 CALLDATALOAD SWAP1 POP PUSH2 0xD52 DUP2 PUSH2 0xD2C JUMP JUMPDEST SWAP3 SWAP2 POP POP JUMP JUMPDEST PUSH1 0x0 DUP2 SWAP1 POP SWAP2 SWAP1 POP JUMP JUMPDEST PUSH2 0xD6B DUP2 PUSH2 0xD58 JUMP JUMPDEST DUP2 EQ PUSH2 0xD76 JUMPI PUSH1 0x0 DUP1 REVERT JUMPDEST POP JUMP JUMPDEST PUSH1 0x0 DUP2 CALLDATALOAD SWAP1 POP PUSH2 0xD88 DUP2 PUSH2 0xD62 JUMP JUMPDEST SWAP3 SWAP2 POP POP JUMP JUMPDEST PUSH1 0x0 DUP1 REVERT JUMPDEST PUSH1 0x0 DUP1 REVERT JUMPDEST PUSH1 0x0 DUP1 REVERT JUMPDEST PUSH1 0x0 DUP1 DUP4 PUSH1 0x1F DUP5 ADD SLT PUSH2 0xDB3 JUMPI PUSH2 0xDB2 PUSH2 0xD8E JUMP JUMPDEST JUMPDEST DUP3 CALLDATALOAD SWAP1 POP PUSH8 0xFFFFFFFFFFFFFFFF DUP2 GT ISZERO PUSH2 0xDD0 JUMPI PUSH2 0xDCF PUSH2 0xD93 JUMP JUMPDEST JUMPDEST PUSH1 0x20 DUP4 ADD SWAP2 POP DUP4 PUSH1 0x1 DUP3 MUL DUP4 ADD GT ISZERO PUSH2 0xDEC JUMPI PUSH2 0xDEB PUSH2 0xD98 JUMP JUMPDEST JUMPDEST SWAP3 POP SWAP3 SWAP1 POP JUMP JUMPDEST PUSH1 0x0 PUSH2 0xFFFF DUP3 AND SWAP1 POP SWAP2 SWAP1 POP JUMP JUMPDEST PUSH2 0xE0A DUP2 PUSH2 0xDF3 JUMP JUMPDEST DUP2 EQ PUSH2 0xE15 JUMPI PUSH1 0x0 DUP1 REVERT JUMPDEST POP JUMP JUMPDEST PUSH1 0x0 DUP2 CALLDATALOAD SWAP1 POP PUSH2 0xE27 DUP2 PUSH2 0xE01 JUMP JUMPDEST SWAP3 SWAP2 POP POP JUMP JUMPDEST PUSH1 0x0 DUP1 PUSH1 0x0 DUP1 PUSH1 0x0 DUP1 PUSH1 0xA0 DUP8 DUP10 SUB SLT ISZERO PUSH2 0xE4A JUMPI PUSH2 0xE49 PUSH2 0xCF0 JUMP JUMPDEST JUMPDEST PUSH1 0x0 PUSH2 0xE58 DUP10 DUP3 DUP11 ADD PUSH2 0xD43 JUMP JUMPDEST SWAP7 POP POP PUSH1 0x20 PUSH2 0xE69 DUP10 DUP3 DUP11 ADD PUSH2 0xD43 JUMP JUMPDEST SWAP6 POP POP PUSH1 0x40 PUSH2 0xE7A DUP10 DUP3 DUP11 ADD PUSH2 0xD79 JUMP JUMPDEST SWAP5 POP POP PUSH1 0x60 DUP8 ADD CALLDATALOAD PUSH8 0xFFFFFFFFFFFFFFFF DUP2 GT ISZERO PUSH2 0xE9B JUMPI PUSH2 0xE9A PUSH2 0xCF5 JUMP JUMPDEST JUMPDEST PUSH2 0xEA7 DUP10 DUP3 DUP11 ADD PUSH2 0xD9D JUMP JUMPDEST SWAP4 POP SWAP4 POP POP PUSH1 0x80 PUSH2 0xEBA DUP10 DUP3 DUP11 ADD PUSH2 0xE18 JUMP JUMPDEST SWAP2 POP POP SWAP3 SWAP6 POP SWAP3 SWAP6 POP SWAP3 SWAP6 JUMP JUMPDEST PUSH2 0xED0 DUP2 PUSH2 0xD1A JUMP JUMPDEST DUP3 MSTORE POP POP JUMP JUMPDEST PUSH1 0x0 PUSH1 0x20 DUP3 ADD SWAP1 POP PUSH2 0xEEB PUSH1 0x0 DUP4 ADD DUP5 PUSH2 0xEC7 JUMP JUMPDEST SWAP3 SWAP2 POP POP JUMP JUMPDEST PUSH1 0x0 DUP1 DUP4 PUSH1 0x1F DUP5 ADD SLT PUSH2 0xF07 JUMPI PUSH2 0xF06 PUSH2 0xD8E JUMP JUMPDEST JUMPDEST DUP3 CALLDATALOAD SWAP1 POP PUSH8 0xFFFFFFFFFFFFFFFF DUP2 GT ISZERO PUSH2 0xF24 JUMPI PUSH2 0xF23 PUSH2 0xD93 JUMP JUMPDEST JUMPDEST PUSH1 0x20 DUP4 ADD SWAP2 POP DUP4 PUSH1 0x20 DUP3 MUL DUP4 ADD GT ISZERO PUSH2 0xF40 JUMPI PUSH2 0xF3F PUSH2 0xD98 JUMP JUMPDEST JUMPDEST SWAP3 POP SWAP3 SWAP1 POP JUMP JUMPDEST PUSH1 0x0 DUP1 DUP4 PUSH1 0x1F DUP5 ADD SLT PUSH2 0xF5D JUMPI PUSH2 0xF5C PUSH2 0xD8E JUMP JUMPDEST JUMPDEST DUP3 CALLDATALOAD SWAP1 POP PUSH8 0xFFFFFFFFFFFFFFFF DUP2 GT ISZERO PUSH2 0xF7A JUMPI PUSH2 0xF79 PUSH2 0xD93 JUMP JUMPDEST JUMPDEST PUSH1 0x20 DUP4 ADD SWAP2 POP DUP4 PUSH1 0x20 DUP3 MUL DUP4 ADD GT ISZERO PUSH2 0xF96 JUMPI PUSH2 0xF95 PUSH2 0xD98 JUMP JUMPDEST JUMPDEST SWAP3 POP SWAP3 SWAP1 POP JUMP JUMPDEST PUSH1 0x0 DUP1 PUSH1 0x0 DUP1 PUSH1 0x0 DUP1 PUSH1 0x0 DUP1 PUSH1 0x0 DUP1 PUSH1 0x0 PUSH1 0xE0 DUP13 DUP15 SUB SLT ISZERO PUSH2 0xFC2 JUMPI PUSH2 0xFC1 PUSH2 0xCF0 JUMP JUMPDEST JUMPDEST PUSH1 0x0 PUSH2 0xFD0 DUP15 DUP3 DUP16 ADD PUSH2 0xD43 JUMP JUMPDEST SWAP12 POP POP PUSH1 0x20 DUP13 ADD CALLDATALOAD PUSH8 0xFFFFFFFFFFFFFFFF DUP2 GT ISZERO PUSH2 0xFF1 JUMPI PUSH2 0xFF0 PUSH2 0xCF5 JUMP JUMPDEST JUMPDEST PUSH2 0xFFD DUP15 DUP3 DUP16 ADD PUSH2 0xEF1 JUMP JUMPDEST SWAP11 POP SWAP11 POP POP PUSH1 0x40 DUP13 ADD CALLDATALOAD PUSH8 0xFFFFFFFFFFFFFFFF DUP2 GT ISZERO PUSH2 0x1020 JUMPI PUSH2 0x101F PUSH2 0xCF5 JUMP JUMPDEST JUMPDEST PUSH2 0x102C DUP15 DUP3 DUP16 ADD PUSH2 0xF47 JUMP JUMPDEST SWAP9 POP SWAP9 POP POP PUSH1 0x60 DUP13 ADD CALLDATALOAD PUSH8 0xFFFFFFFFFFFFFFFF DUP2 GT ISZERO PUSH2 0x104F JUMPI PUSH2 0x104E PUSH2 0xCF5 JUMP JUMPDEST JUMPDEST PUSH2 0x105B DUP15 DUP3 DUP16 ADD PUSH2 0xF47 JUMP JUMPDEST SWAP7 POP SWAP7 POP POP PUSH1 0x80 PUSH2 0x106E DUP15 DUP3 DUP16 ADD PUSH2 0xD43 JUMP JUMPDEST SWAP5 POP POP PUSH1 0xA0 DUP13 ADD CALLDATALOAD PUSH8 0xFFFFFFFFFFFFFFFF DUP2 GT ISZERO PUSH2 0x108F JUMPI PUSH2 0x108E PUSH2 0xCF5 JUMP JUMPDEST JUMPDEST PUSH2 0x109B DUP15 DUP3 DUP16 ADD PUSH2 0xD9D JUMP JUMPDEST SWAP4 POP SWAP4 POP POP PUSH1 0xC0 PUSH2 0x10AE DUP15 DUP3 DUP16 ADD PUSH2 0xE18 JUMP JUMPDEST SWAP2 POP POP SWAP3 SWAP6 SWAP9 SWAP12 POP SWAP3 SWAP6 SWAP9 SWAP12 SWAP1 SWAP4 SWAP7 SWAP10 POP JUMP JUMPDEST PUSH32 0x4E487B7100000000000000000000000000000000000000000000000000000000 PUSH1 0x0 MSTORE PUSH1 0x11 PUSH1 0x4 MSTORE PUSH1 0x24 PUSH1 0x0 REVERT JUMPDEST PUSH1 0x0 PUSH2 0x10FB DUP3 PUSH2 0xD58 JUMP JUMPDEST SWAP2 POP PUSH2 0x1106 DUP4 PUSH2 0xD58 JUMP JUMPDEST SWAP3 POP DUP3 DUP3 MUL PUSH2 0x1114 DUP2 PUSH2 0xD58 JUMP JUMPDEST SWAP2 POP DUP3 DUP3 DIV DUP5 EQ DUP4 ISZERO OR PUSH2 0x112B JUMPI PUSH2 0x112A PUSH2 0x10C1 JUMP JUMPDEST JUMPDEST POP SWAP3 SWAP2 POP POP JUMP JUMPDEST PUSH32 0x4E487B7100000000000000000000000000000000000000000000000000000000 PUSH1 0x0 MSTORE PUSH1 0x12 PUSH1 0x4 MSTORE PUSH1 0x24 PUSH1 0x0 REVERT JUMPDEST PUSH1 0x0 PUSH2 0x116C DUP3 PUSH2 0xD58 JUMP JUMPDEST SWAP2 POP PUSH2 0x1177 DUP4 PUSH2 0xD58 JUMP JUMPDEST SWAP3 POP DUP3 PUSH2 0x1187 JUMPI PUSH2 0x1186 PUSH2 0x1132 JUMP JUMPDEST JUMPDEST DUP3 DUP3 DIV SWAP1 POP SWAP3 SWAP2 POP POP JUMP JUMPDEST PUSH1 0x0 DUP3 DUP3 MSTORE PUSH1 0x20 DUP3 ADD SWAP1 POP SWAP3 SWAP2 POP POP JUMP JUMPDEST PUSH32 0x496E73756666696369656E7420455448206C6971756964697479000000000000 PUSH1 0x0 DUP3 ADD MSTORE POP JUMP JUMPDEST PUSH1 0x0 PUSH2 0x11D9 PUSH1 0x1A DUP4 PUSH2 0x1192 JUMP JUMPDEST SWAP2 POP PUSH2 0x11E4 DUP3 PUSH2 0x11A3 JUMP JUMPDEST PUSH1 0x20 DUP3 ADD SWAP1 POP SWAP2 SWAP1 POP JUMP JUMPDEST PUSH1 0x0 PUSH1 0x20 DUP3 ADD SWAP1 POP DUP2 DUP2 SUB PUSH1 0x0 DUP4 ADD MSTORE PUSH2 0x1208 DUP2 PUSH2 0x11CC JUMP JUMPDEST SWAP1 POP SWAP2 SWAP1 POP JUMP JUMPDEST PUSH1 0x0 DUP2 MLOAD SWAP1 POP PUSH2 0x121E DUP2 PUSH2 0xD62 JUMP JUMPDEST SWAP3 SWAP2 POP POP JUMP JUMPDEST PUSH1 0x0 PUSH1 0x20 DUP3 DUP5 SUB SLT ISZERO PUSH2 0x123A JUMPI PUSH2 0x1239 PUSH2 0xCF0 JUMP JUMPDEST JUMPDEST PUSH1 0x0 PUSH2 0x1248 DUP5 DUP3 DUP6 ADD PUSH2 0x120F JUMP JUMPDEST SWAP2 POP POP SWAP3 SWAP2 POP POP JUMP JUMPDEST PUSH32 0x496E73756666696369656E7420746F6B656E206C697175696469747900000000 PUSH1 0x0 DUP3 ADD MSTORE POP JUMP JUMPDEST PUSH1 0x0 PUSH2 0x1287 PUSH1 0x1C DUP4 PUSH2 0x1192 JUMP JUMPDEST SWAP2 POP PUSH2 0x1292 DUP3 PUSH2 0x1251 JUMP JUMPDEST PUSH1 0x20 DUP3 ADD SWAP1 POP SWAP2 SWAP1 POP JUMP JUMPDEST PUSH1 0x0 PUSH1 0x20 DUP3 ADD SWAP1 POP DUP2 DUP2 SUB PUSH1 0x0 DUP4 ADD MSTORE PUSH2 0x12B6 DUP2 PUSH2 0x127A JUMP JUMPDEST SWAP1 POP SWAP2 SWAP1 POP JUMP JUMPDEST PUSH2 0x12C6 DUP2 PUSH2 0xD58 JUMP JUMPDEST DUP3 MSTORE POP POP JUMP JUMPDEST PUSH1 0x0 PUSH1 0x40 DUP3 ADD SWAP1 POP PUSH2 0x12E1 PUSH1 0x0 DUP4 ADD DUP6 PUSH2 0xEC7 JUMP JUMPDEST PUSH2 0x12EE PUSH1 0x20 DUP4 ADD DUP5 PUSH2 0x12BD JUMP JUMPDEST SWAP4 SWAP3 POP POP POP JUMP JUMPDEST PUSH1 0x0 DUP2 ISZERO ISZERO SWAP1 POP SWAP2 SWAP1 POP JUMP JUMPDEST PUSH2 0x130A DUP2 PUSH2 0x12F5 JUMP JUMPDEST DUP2 EQ PUSH2 0x1315 JUMPI PUSH1 0x0 DUP1 REVERT JUMPDEST POP JUMP JUMPDEST PUSH1 0x0 DUP2 MLOAD SWAP1 POP PUSH2 0x1327 DUP2 PUSH2 0x1301 JUMP JUMPDEST SWAP3 SWAP2 POP POP JUMP JUMPDEST PUSH1 0x0 PUSH1 0x20 DUP3 DUP5 SUB SLT ISZERO PUSH2 0x1343 JUMPI PUSH2 0x1342 PUSH2 0xCF0 JUMP JUMPDEST JUMPDEST PUSH1 0x0 PUSH2 0x1351 DUP5 DUP3 DUP6 ADD PUSH2 0x1318 JUMP JUMPDEST SWAP2 POP POP SWAP3 SWAP2 POP POP JUMP JUMPDEST PUSH1 0x0 DUP3 DUP3 MSTORE PUSH1 0x20 DUP3 ADD SWAP1 POP SWAP3 SWAP2 POP POP JUMP JUMPDEST DUP3 DUP2 DUP4 CALLDATACOPY PUSH1 0x0 DUP4 DUP4 ADD MSTORE POP POP POP JUMP JUMPDEST PUSH1 0x0 PUSH1 0x1F NOT PUSH1 0x1F DUP4 ADD AND SWAP1 POP SWAP2 SWAP1 POP JUMP JUMPDEST PUSH1 0x0 PUSH2 0x1397 DUP4 DUP6 PUSH2 0x135A JUMP JUMPDEST SWAP4 POP PUSH2 0x13A4 DUP4 DUP6 DUP5 PUSH2 0x136B JUMP JUMPDEST PUSH2 0x13AD DUP4 PUSH2 0x137A JUMP JUMPDEST DUP5 ADD SWAP1 POP SWAP4 SWAP3 POP POP POP JUMP JUMPDEST PUSH1 0x0 PUSH1 0xA0 DUP3 ADD SWAP1 POP PUSH2 0x13CD PUSH1 0x0 DUP4 ADD DUP10 PUSH2 0xEC7 JUMP JUMPDEST PUSH2 0x13DA PUSH1 0x20 DUP4 ADD DUP9 PUSH2 0x12BD JUMP JUMPDEST PUSH2 0x13E7 PUSH1 0x40 DUP4 ADD DUP8 PUSH2 0x12BD JUMP JUMPDEST PUSH2 0x13F4 PUSH1 0x60 DUP4 ADD DUP7 PUSH2 0xEC7 JUMP JUMPDEST DUP2 DUP2 SUB PUSH1 0x80 DUP4 ADD MSTORE PUSH2 0x1407 DUP2 DUP5 DUP7 PUSH2 0x138B JUMP JUMPDEST SWAP1 POP SWAP8 SWAP7 POP POP POP POP POP POP POP JUMP JUMPDEST PUSH32 0x466C617368206C6F616E20657865637574696F6E206661696C65640000000000 PUSH1 0x0 DUP3 ADD MSTORE POP JUMP JUMPDEST PUSH1 0x0 PUSH2 0x144A PUSH1 0x1B DUP4 PUSH2 0x1192 JUMP JUMPDEST SWAP2 POP PUSH2 0x1455 DUP3 PUSH2 0x1414 JUMP JUMPDEST PUSH1 0x20 DUP3 ADD SWAP1 POP SWAP2 SWAP1 POP JUMP JUMPDEST PUSH1 0x0 PUSH1 0x20 DUP3 ADD SWAP1 POP DUP2 DUP2 SUB PUSH1 0x0 DUP4 ADD MSTORE PUSH2 0x1479 DUP2 PUSH2 0x143D JUMP JUMPDEST SWAP1 POP SWAP2 SWAP1 POP JUMP JUMPDEST PUSH1 0x0 PUSH2 0x148B DUP3 PUSH2 0xD58 JUMP JUMPDEST SWAP2 POP PUSH2 0x1496 DUP4 PUSH2 0xD58 JUMP JUMPDEST SWAP3 POP DUP3 DUP3 ADD SWAP1 POP DUP1 DUP3 GT ISZERO PUSH2 0x14AE JUMPI PUSH2 0x14AD PUSH2 0x10C1 JUMP JUMPDEST JUMPDEST SWAP3 SWAP2 POP POP JUMP JUMPDEST PUSH32 0x466C617368206C6F616E2072657061796D656E74206661696C65640000000000 PUSH1 0x0 DUP3 ADD MSTORE POP JUMP JUMPDEST PUSH1 0x0 PUSH2 0x14EA PUSH1 0x1B DUP4 PUSH2 0x1192 JUMP JUMPDEST SWAP2 POP PUSH2 0x14F5 DUP3 PUSH2 0x14B4 JUMP JUMPDEST PUSH1 0x20 DUP3 ADD SWAP1 POP SWAP2 SWAP1 POP JUMP JUMPDEST PUSH1 0x0 PUSH1 0x20 DUP3 ADD SWAP1 POP DUP2 DUP2 SUB PUSH1 0x0 DUP4 ADD MSTORE PUSH2 0x1519 DUP2 PUSH2 0x14DD JUMP JUMPDEST SWAP1 POP SWAP2 SWAP1 POP JUMP JUMPDEST PUSH1 0x0 PUSH1 0x40 DUP3 ADD SWAP1 POP PUSH2 0x1535 PUSH1 0x0 DUP4 ADD DUP6 PUSH2 0x12BD JUMP JUMPDEST PUSH2 0x1542 PUSH1 0x20 DUP4 ADD DUP5 PUSH2 0x12BD JUMP JUMPDEST SWAP4 SWAP3 POP POP POP JUMP JUMPDEST PUSH32 0x417272617973206C656E677468206D69736D6174636800000000000000000000 PUSH1 0x0 DUP3 ADD MSTORE POP JUMP JUMPDEST PUSH1 0x0 PUSH2 0x157F PUSH1 0x16 DUP4 PUSH2 0x1192 JUMP JUMPDEST SWAP2 POP PUSH2 0x158A DUP3 PUSH2 0x1549 JUMP JUMPDEST PUSH1 0x20 DUP3 ADD SWAP1 POP SWAP2 SWAP1 POP JUMP JUMPDEST PUSH1 0x0 PUSH1 0x20 DUP3 ADD SWAP1 POP DUP2 DUP2 SUB PUSH1 0x0 DUP4 ADD MSTORE PUSH2 0x15AE DUP2 PUSH2 0x1572 JUMP JUMPDEST SWAP1 POP SWAP2 SWAP1 POP JUMP JUMPDEST PUSH32 0x4E487B7100000000000000000000000000000000000000000000000000000000 PUSH1 0x0 MSTORE PUSH1 0x41 PUSH1 0x4 MSTORE PUSH1 0x24 PUSH1 0x0 REVERT JUMPDEST PUSH32 0x4E487B7100000000000000000000000000000000000000000000000000000000 PUSH1 0x0 MSTORE PUSH1 0x32 PUSH1 0x4 MSTORE PUSH1 0x24 PUSH1 0x0 REVERT JUMPDEST PUSH1 0x0 PUSH1 0x20 DUP3 DUP5 SUB SLT ISZERO PUSH2 0x1629 JUMPI PUSH2 0x1628 PUSH2 0xCF0 JUMP JUMPDEST JUMPDEST PUSH1 0x0 PUSH2 0x1637 DUP5 DUP3 DUP6 ADD PUSH2 0xD43 JUMP JUMPDEST SWAP2 POP POP SWAP3 SWAP2 POP POP JUMP JUMPDEST PUSH1 0x0 DUP3 DUP3 MSTORE PUSH1 0x20 DUP3 ADD SWAP1 POP SWAP3 SWAP2 POP POP JUMP JUMPDEST PUSH1 0x0 DUP2 SWAP1 POP SWAP2 SWAP1 POP JUMP JUMPDEST PUSH2 0x1664 DUP2 PUSH2 0xD1A JUMP JUMPDEST DUP3 MSTORE POP POP JUMP JUMPDEST PUSH1 0x0 PUSH2 0x1676 DUP4 DUP4 PUSH2 0x165B JUMP JUMPDEST PUSH1 0x20 DUP4 ADD SWAP1 POP SWAP3 SWAP2 POP POP JUMP JUMPDEST PUSH1 0x0 PUSH2 0x1691 PUSH1 0x20 DUP5 ADD DUP5 PUSH2 0xD43 JUMP JUMPDEST SWAP1 POP SWAP3 SWAP2 POP POP JUMP JUMPDEST PUSH1 0x0 PUSH1 0x20 DUP3 ADD SWAP1 POP SWAP2 SWAP1 POP JUMP JUMPDEST PUSH1 0x0 PUSH2 0x16B2 DUP4 DUP6 PUSH2 0x1640 JUMP JUMPDEST SWAP4 POP PUSH2 0x16BD DUP3 PUSH2 0x1651 JUMP JUMPDEST DUP1 PUSH1 0x0 JUMPDEST DUP6 DUP2 LT ISZERO PUSH2 0x16F6 JUMPI PUSH2 0x16D3 DUP3 DUP5 PUSH2 0x1682 JUMP JUMPDEST PUSH2 0x16DD DUP9 DUP3 PUSH2 0x166A JUMP JUMPDEST SWAP8 POP PUSH2 0x16E8 DUP4 PUSH2 0x1699 JUMP JUMPDEST SWAP3 POP POP PUSH1 0x1 DUP2 ADD SWAP1 POP PUSH2 0x16C1 JUMP JUMPDEST POP DUP6 SWAP3 POP POP POP SWAP4 SWAP3 POP POP POP JUMP JUMPDEST PUSH1 0x0 DUP3 DUP3 MSTORE PUSH1 0x20 DUP3 ADD SWAP1 POP SWAP3 SWAP2 POP POP JUMP JUMPDEST PUSH1 0x0 DUP1 REVERT JUMPDEST DUP3 DUP2 DUP4 CALLDATACOPY POP POP POP JUMP JUMPDEST PUSH1 0x0 PUSH2 0x172E DUP4 DUP6 PUSH2 0x1703 JUMP JUMPDEST SWAP4 POP PUSH32 0x7FFFFFFFFFFFFFFFFFFFFFFFFFFFFFFFFFFFFFFFFFFFFFFFFFFFFFFFFFFFFFF DUP4 GT ISZERO PUSH2 0x1761 JUMPI PUSH2 0x1760 PUSH2 0x1714 JUMP JUMPDEST JUMPDEST PUSH1 0x20 DUP4 MUL SWAP3 POP PUSH2 0x1772 DUP4 DUP6 DUP5 PUSH2 0x1719 JUMP JUMPDEST DUP3 DUP5 ADD SWAP1 POP SWAP4 SWAP3 POP POP POP JUMP JUMPDEST PUSH1 0x0 DUP2 MLOAD SWAP1 POP SWAP2 SWAP1 POP JUMP JUMPDEST PUSH1 0x0 DUP2 SWAP1 POP PUSH1 0x20 DUP3 ADD SWAP1 POP SWAP2 SWAP1 POP JUMP JUMPDEST PUSH2 0x17A2 DUP2 PUSH2 0xD58 JUMP JUMPDEST DUP3 MSTORE POP POP JUMP JUMPDEST PUSH1 0x0 PUSH2 0x17B4 DUP4 DUP4 PUSH2 0x1799 JUMP JUMPDEST PUSH1 0x20 DUP4 ADD SWAP1 POP SWAP3 SWAP2 POP POP JUMP JUMPDEST PUSH1 0x0 PUSH1 0x20 DUP3 ADD SWAP1 POP SWAP2 SWAP1 POP JUMP JUMPDEST PUSH1 0x0 PUSH2 0x17D8 DUP3 PUSH2 0x177E JUMP JUMPDEST PUSH2 0x17E2 DUP2 DUP6 PUSH2 0x1703 JUMP JUMPDEST SWAP4 POP PUSH2 0x17ED DUP4 PUSH2 0x1789 JUMP JUMPDEST DUP1 PUSH1 0x0 JUMPDEST DUP4 DUP2 LT ISZERO PUSH2 0x181E JUMPI DUP2 MLOAD PUSH2 0x1805 DUP9 DUP3 PUSH2 0x17A8 JUMP JUMPDEST SWAP8 POP PUSH2 0x1810 DUP4 PUSH2 0x17C0 JUMP JUMPDEST SWAP3 POP POP PUSH1 0x1 DUP2 ADD SWAP1 POP PUSH2 0x17F1 JUMP JUMPDEST POP DUP6 SWAP4 POP POP POP POP SWAP3 SWAP2 POP POP JUMP JUMPDEST PUSH1 0x0 PUSH1 0xA0 DUP3 ADD SWAP1 POP DUP2 DUP2 SUB PUSH1 0x0 DUP4 ADD MSTORE PUSH2 0x1846 DUP2 DUP11 DUP13 PUSH2 0x16A6 JUMP JUMPDEST SWAP1 POP DUP2 DUP2 SUB PUSH1 0x20 DUP4 ADD MSTORE PUSH2 0x185B DUP2 DUP9 DUP11 PUSH2 0x1722 JUMP JUMPDEST SWAP1 POP DUP2 DUP2 SUB PUSH1 0x40 DUP4 ADD MSTORE PUSH2 0x186F DUP2 DUP8 PUSH2 0x17CD JUMP JUMPDEST SWAP1 POP PUSH2 0x187E PUSH1 0x60 DUP4 ADD DUP7 PUSH2 0xEC7 JUMP JUMPDEST DUP2 DUP2 SUB PUSH1 0x80 DUP4 ADD MSTORE PUSH2 0x1891 DUP2 DUP5 DUP7 PUSH2 0x138B JUMP JUMPDEST SWAP1 POP SWAP10 SWAP9 POP POP POP POP POP POP POP POP POP JUMP JUMPDEST PUSH1 0x0 PUSH1 0x60 DUP3 ADD SWAP1 POP DUP2 DUP2 SUB PUSH1 0x0 DUP4 ADD MSTORE PUSH2 0x18BB DUP2 DUP8 DUP10 PUSH2 0x16A6 JUMP JUMPDEST SWAP1 POP DUP2 DUP2 SUB PUSH1 0x20 DUP4 ADD MSTORE PUSH2 0x18D0 DUP2 DUP6 DUP8 PUSH2 0x1722 JUMP JUMPDEST SWAP1 POP DUP2 DUP2 SUB PUSH1 0x40 DUP4 ADD MSTORE PUSH2 0x18E4 DUP2 DUP5 PUSH2 0x17CD JUMP JUMPDEST SWAP1 POP SWAP7 SWAP6 POP POP POP POP POP POP JUMP INVALID LOG2 PUSH5 0x6970667358 0x22 SLT KECCAK256 SWAP12 SHL 0xE3 0xB0 OR ORIGIN 0x27 SELFDESTRUCT SWAP15 RETURNDATASIZE 0xAB 0xB1 0x2F DUP2 MCOPY MULMOD GT PUSH16 0x4760B7290A23EF6B3DF13F5D00A36473 PUSH16 0x6C634300081C00330000000000000000 "},"methodIdentifiers":{"ETH_ADDRESS()":"a734f06e","flashLoan(address,address[],uint256[],uint256[],address,bytes,uint16)":"ab9c4b5d","flashLoanSimple(address,address,uint256,bytes,uint16)":"42b0b77c"}}}}}