{
  "_format": "hh-sol-artifact-1",
  "contractName": "MockLendingPool",
  "sourceName": "contracts/mocks/MockLendingPool.sol",
  "abi": [
    {
      "anonymous": false,
      "inputs": [
        {
          "indexed": true,
          "internalType": "address",
          "name": "reserve",
          "type": "address"
        },
        {
          "indexed": false,
          "internalType": "address",
          "name": "user",
          "type": "address"
        },
        {
          "indexed": true,
          "internalType": "address",
          "name": "onBehalfOf",
          "type": "address"
        },
        {
          "indexed": false,
          "internalType": "uint256",
          "name": "amount",
          "type": "uint256"
        },
        {
          "indexed": false,
          "internalType": "uint256",
          "name": "borrowRateMode",
          "type": "uint256"
        },
        {
          "indexed": false,
          "internalType": "uint256",
          "name": "borrowRate",
          "type": "uint256"
        },
        {
          "indexed": true,
          "internalType": "uint16",
          "name": "referral",
          "type": "uint16"
        }
      ],
      "name": "Borrow",
      "type": "event"
    },
    {
      "anonymous": false,
      "inputs": [
        {
          "indexed": true,
          "internalType": "address",
          "name": "reserve",
          "type": "address"
        },
        {
          "indexed": false,
          "internalType": "address",
          "name": "user",
          "type": "address"
        },
        {
          "indexed": true,
          "internalType": "address",
          "name": "onBehalfOf",
          "type": "address"
        },
        {
          "indexed": false,
          "internalType": "uint256",
          "name": "amount",
          "type": "uint256"
        },
        {
          "indexed": true,
          "internalType": "uint16",
          "name": "referral",
          "type": "uint16"
        }
      ],
      "name": "Deposit",
      "type": "event"
    },
    {
      "anonymous": false,
      "inputs": [
        {
          "indexed": true,
          "internalType": "address",
          "name": "target",
          "type": "address"
        },
        {
          "indexed": true,
          "internalType": "address",
          "name": "initiator",
          "type": "address"
        },
        {
          "indexed": true,
          "internalType": "address",
          "name": "asset",
          "type": "address"
        },
        {
          "indexed": false,
          "internalType": "uint256",
          "name": "amount",
          "type": "uint256"
        },
        {
          "indexed": false,
          "internalType": "uint256",
          "name": "premium",
          "type": "uint256"
        },
        {
          "indexed": false,
          "internalType": "uint16",
          "name": "referralCode",
          "type": "uint16"
        }
      ],
      "name": "FlashLoan",
      "type": "event"
    },
    {
      "anonymous": false,
      "inputs": [
        {
          "indexed": true,
          "internalType": "address",
          "name": "collateralAsset",
          "type": "address"
        },
        {
          "indexed": true,
          "internalType": "address",
          "name": "debtAsset",
          "type": "address"
        },
        {
          "indexed": true,
          "internalType": "address",
          "name": "user",
          "type": "address"
        },
        {
          "indexed": false,
          "internalType": "uint256",
          "name": "debtToCover",
          "type": "uint256"
        },
        {
          "indexed": false,
          "internalType": "uint256",
          "name": "liquidatedCollateralAmount",
          "type": "uint256"
        },
        {
          "indexed": false,
          "internalType": "address",
          "name": "liquidator",
          "type": "address"
        },
        {
          "indexed": false,
          "internalType": "bool",
          "name": "receiveAToken",
          "type": "bool"
        }
      ],
      "name": "LiquidationCall",
      "type": "event"
    },
    {
      "anonymous": false,
      "inputs": [],
      "name": "Paused",
      "type": "event"
    },
    {
      "anonymous": false,
      "inputs": [
        {
          "indexed": true,
          "internalType": "address",
          "name": "reserve",
          "type": "address"
        },
        {
          "indexed": true,
          "internalType": "address",
          "name": "user",
          "type": "address"
        }
      ],
      "name": "RebalanceStableBorrowRate",
      "type": "event"
    },
    {
      "anonymous": false,
      "inputs": [
        {
          "indexed": true,
          "internalType": "address",
          "name": "reserve",
          "type": "address"
        },
        {
          "indexed": true,
          "internalType": "address",
          "name": "user",
          "type": "address"
        },
        {
          "indexed": true,
          "internalType": "address",
          "name": "repayer",
          "type": "address"
        },
        {
          "indexed": false,
          "internalType": "uint256",
          "name": "amount",
          "type": "uint256"
        }
      ],
      "name": "Repay",
      "type": "event"
    },
    {
      "anonymous": false,
      "inputs": [
        {
          "indexed": true,
          "internalType": "address",
          "name": "reserve",
          "type": "address"
        },
        {
          "indexed": false,
          "internalType": "uint256",
          "name": "liquidityRate",
          "type": "uint256"
        },
        {
          "indexed": false,
          "internalType": "uint256",
          "name": "stableBorrowRate",
          "type": "uint256"
        },
        {
          "indexed": false,
          "internalType": "uint256",
          "name": "variableBorrowRate",
          "type": "uint256"
        },
        {
          "indexed": false,
          "internalType": "uint256",
          "name": "liquidityIndex",
          "type": "uint256"
        },
        {
          "indexed": false,
          "internalType": "uint256",
          "name": "variableBorrowIndex",
          "type": "uint256"
        }
      ],
      "name": "ReserveDataUpdated",
      "type": "event"
    },
    {
      "anonymous": false,
      "inputs": [
        {
          "indexed": true,
          "internalType": "address",
          "name": "reserve",
          "type": "address"
        },
        {
          "indexed": true,
          "internalType": "address",
          "name": "user",
          "type": "address"
        }
      ],
      "name": "ReserveUsedAsCollateralDisabled",
      "type": "event"
    },
    {
      "anonymous": false,
      "inputs": [
        {
          "indexed": true,
          "internalType": "address",
          "name": "reserve",
          "type": "address"
        },
        {
          "indexed": true,
          "internalType": "address",
          "name": "user",
          "type": "address"
        }
      ],
      "name": "ReserveUsedAsCollateralEnabled",
      "type": "event"
    },
    {
      "anonymous": false,
      "inputs": [
        {
          "indexed": true,
          "internalType": "address",
          "name": "reserve",
          "type": "address"
        },
        {
          "indexed": true,
          "internalType": "address",
          "name": "user",
          "type": "address"
        },
        {
          "indexed": false,
          "internalType": "uint256",
          "name": "rateMode",
          "type": "uint256"
        }
      ],
      "name": "Swap",
      "type": "event"
    },
    {
      "anonymous": false,
      "inputs": [],
      "name": "Unpaused",
      "type": "event"
    },
    {
      "anonymous": false,
      "inputs": [
        {
          "indexed": true,
          "internalType": "address",
          "name": "reserve",
          "type": "address"
        },
        {
          "indexed": true,
          "internalType": "address",
          "name": "user",
          "type": "address"
        },
        {
          "indexed": true,
          "internalType": "address",
          "name": "to",
          "type": "address"
        },
        {
          "indexed": false,
          "internalType": "uint256",
          "name": "amount",
          "type": "uint256"
        }
      ],
      "name": "Withdraw",
      "type": "event"
    },
    {
      "inputs": [
        {
          "internalType": "address",
          "name": "asset",
          "type": "address"
        },
        {
          "internalType": "uint256",
          "name": "amount",
          "type": "uint256"
        },
        {
          "internalType": "uint256",
          "name": "interestRateMode",
          "type": "uint256"
        },
        {
          "internalType": "uint16",
          "name": "referralCode",
          "type": "uint16"
        },
        {
          "internalType": "address",
          "name": "onBehalfOf",
          "type": "address"
        }
      ],
      "name": "borrow",
      "outputs": [],
      "stateMutability": "nonpayable",
      "type": "function"
    },
    {
      "inputs": [
        {
          "internalType": "address",
          "name": "asset",
          "type": "address"
        },
        {
          "internalType": "uint256",
          "name": "amount",
          "type": "uint256"
        },
        {
          "internalType": "address",
          "name": "onBehalfOf",
          "type": "address"
        },
        {
          "internalType": "uint16",
          "name": "referralCode",
          "type": "uint16"
        }
      ],
      "name": "deposit",
      "outputs": [],
      "stateMutability": "nonpayable",
      "type": "function"
    },
    {
      "inputs": [
        {
          "internalType": "address",
          "name": "asset",
          "type": "address"
        },
        {
          "internalType": "address",
          "name": "from",
          "type": "address"
        },
        {
          "internalType": "address",
          "name": "to",
          "type": "address"
        },
        {
          "internalType": "uint256",
          "name": "amount",
          "type": "uint256"
        },
        {
          "internalType": "uint256",
          "name": "balanceFromBefore",
          "type": "uint256"
        },
        {
          "internalType": "uint256",
          "name": "balanceToBefore",
          "type": "uint256"
        }
      ],
      "name": "finalizeTransfer",
      "outputs": [],
      "stateMutability": "nonpayable",
      "type": "function"
    },
    {
      "inputs": [
        {
          "internalType": "address",
          "name": "receiverAddress",
          "type": "address"
        },
        {
          "internalType": "address[]",
          "name": "assets",
          "type": "address[]"
        },
        {
          "internalType": "uint256[]",
          "name": "amounts",
          "type": "uint256[]"
        },
        {
          "internalType": "uint256[]",
          "name": "modes",
          "type": "uint256[]"
        },
        {
          "internalType": "address",
          "name": "onBehalfOf",
          "type": "address"
        },
        {
          "internalType": "bytes",
          "name": "params",
          "type": "bytes"
        },
        {
          "internalType": "uint16",
          "name": "referralCode",
          "type": "uint16"
        }
      ],
      "name": "flashLoan",
      "outputs": [],
      "stateMutability": "nonpayable",
      "type": "function"
    },
    {
      "inputs": [],
      "name": "getAddressesProvider",
      "outputs": [
        {
          "internalType": "contract ILendingPoolAddressesProviderV2",
          "name": "",
          "type": "address"
        }
      ],
      "stateMutability": "view",
      "type": "function"
    },
    {
      "inputs": [
        {
          "internalType": "address",
          "name": "asset",
          "type": "address"
        }
      ],
      "name": "getConfiguration",
      "outputs": [
        {
          "components": [
            {
              "internalType": "uint256",
              "name": "data",
              "type": "uint256"
            }
          ],
          "internalType": "struct DataTypes.ReserveConfigurationMap",
          "name": "",
          "type": "tuple"
        }
      ],
      "stateMutability": "view",
      "type": "function"
    },
    {
      "inputs": [
        {
          "internalType": "address",
          "name": "asset",
          "type": "address"
        }
      ],
      "name": "getReserveData",
      "outputs": [
        {
          "components": [
            {
              "components": [
                {
                  "internalType": "uint256",
                  "name": "data",
                  "type": "uint256"
                }
              ],
              "internalType": "struct DataTypes.ReserveConfigurationMap",
              "name": "configuration",
              "type": "tuple"
            },
            {
              "internalType": "uint128",
              "name": "liquidityIndex",
              "type": "uint128"
            },
            {
              "internalType": "uint128",
              "name": "variableBorrowIndex",
              "type": "uint128"
            },
            {
              "internalType": "uint128",
              "name": "currentLiquidityRate",
              "type": "uint128"
            },
            {
              "internalType": "uint128",
              "name": "currentVariableBorrowRate",
              "type": "uint128"
            },
            {
              "internalType": "uint128",
              "name": "currentStableBorrowRate",
              "type": "uint128"
            },
            {
              "internalType": "uint40",
              "name": "lastUpdateTimestamp",
              "type": "uint40"
            },
            {
              "internalType": "address",
              "name": "aTokenAddress",
              "type": "address"
            },
            {
              "internalType": "address",
              "name": "stableDebtTokenAddress",
              "type": "address"
            },
            {
              "internalType": "address",
              "name": "variableDebtTokenAddress",
              "type": "address"
            },
            {
              "internalType": "address",
              "name": "interestRateStrategyAddress",
              "type": "address"
            },
            {
              "internalType": "uint8",
              "name": "id",
              "type": "uint8"
            }
          ],
          "internalType": "struct DataTypes.ReserveData",
          "name": "",
          "type": "tuple"
        }
      ],
      "stateMutability": "view",
      "type": "function"
    },
    {
      "inputs": [
        {
          "internalType": "address",
          "name": "asset",
          "type": "address"
        }
      ],
      "name": "getReserveNormalizedIncome",
      "outputs": [
        {
          "internalType": "uint256",
          "name": "",
          "type": "uint256"
        }
      ],
      "stateMutability": "view",
      "type": "function"
    },
    {
      "inputs": [
        {
          "internalType": "address",
          "name": "asset",
          "type": "address"
        }
      ],
      "name": "getReserveNormalizedVariableDebt",
      "outputs": [
        {
          "internalType": "uint256",
          "name": "",
          "type": "uint256"
        }
      ],
      "stateMutability": "view",
      "type": "function"
    },
    {
      "inputs": [
        {
          "internalType": "address",
          "name": "asset",
          "type": "address"
        }
      ],
      "name": "getReserveTokensAddresses",
      "outputs": [
        {
          "internalType": "address",
          "name": "aTokenAddress",
          "type": "address"
        },
        {
          "internalType": "address",
          "name": "stableDebtTokenAddress",
          "type": "address"
        },
        {
          "internalType": "address",
          "name": "variableDebtTokenAddress",
          "type": "address"
        }
      ],
      "stateMutability": "view",
      "type": "function"
    },
    {
      "inputs": [],
      "name": "getReservesList",
      "outputs": [
        {
          "internalType": "address[]",
          "name": "",
          "type": "address[]"
        }
      ],
      "stateMutability": "view",
      "type": "function"
    },
    {
      "inputs": [
        {
          "internalType": "address",
          "name": "user",
          "type": "address"
        }
      ],
      "name": "getUserAccountData",
      "outputs": [
        {
          "internalType": "uint256",
          "name": "totalCollateralETH",
          "type": "uint256"
        },
        {
          "internalType": "uint256",
          "name": "totalDebtETH",
          "type": "uint256"
        },
        {
          "internalType": "uint256",
          "name": "availableBorrowsETH",
          "type": "uint256"
        },
        {
          "internalType": "uint256",
          "name": "currentLiquidationThreshold",
          "type": "uint256"
        },
        {
          "internalType": "uint256",
          "name": "ltv",
          "type": "uint256"
        },
        {
          "internalType": "uint256",
          "name": "healthFactor",
          "type": "uint256"
        }
      ],
      "stateMutability": "view",
      "type": "function"
    },
    {
      "inputs": [
        {
          "internalType": "address",
          "name": "user",
          "type": "address"
        }
      ],
      "name": "getUserConfiguration",
      "outputs": [
        {
          "components": [
            {
              "internalType": "uint256",
              "name": "data",
              "type": "uint256"
            }
          ],
          "internalType": "struct DataTypes.UserConfigurationMap",
          "name": "",
          "type": "tuple"
        }
      ],
      "stateMutability": "view",
      "type": "function"
    },
    {
      "inputs": [
        {
          "internalType": "address",
          "name": "asset",
          "type": "address"
        },
        {
          "internalType": "address",
          "name": "user",
          "type": "address"
        }
      ],
      "name": "getUserReserveData",
      "outputs": [
        {
          "internalType": "uint256",
          "name": "currentATokenBalance",
          "type": "uint256"
        },
        {
          "internalType": "uint256",
          "name": "currentStableDebt",
          "type": "uint256"
        },
        {
          "internalType": "uint256",
          "name": "currentVariableDebt",
          "type": "uint256"
        },
        {
          "internalType": "uint256",
          "name": "principalStableDebt",
          "type": "uint256"
        },
        {
          "internalType": "uint256",
          "name": "scaledVariableDebt",
          "type": "uint256"
        },
        {
          "internalType": "uint256",
          "name": "stableBorrowRate",
          "type": "uint256"
        },
        {
          "internalType": "uint256",
          "name": "liquidityRate",
          "type": "uint256"
        },
        {
          "internalType": "uint40",
          "name": "stableRateLastUpdated",
          "type": "uint40"
        },
        {
          "internalType": "bool",
          "name": "usageAsCollateralEnabled",
          "type": "bool"
        }
      ],
      "stateMutability": "view",
      "type": "function"
    },
    {
      "inputs": [
        {
          "internalType": "address",
          "name": "asset",
          "type": "address"
        },
        {
          "internalType": "address",
          "name": "aTokenAddress",
          "type": "address"
        },
        {
          "internalType": "address",
          "name": "stableDebtAddress",
          "type": "address"
        },
        {
          "internalType": "address",
          "name": "variableDebtAddress",
          "type": "address"
        },
        {
          "internalType": "address",
          "name": "interestRateStrategyAddress",
          "type": "address"
        }
      ],
      "name": "initReserve",
      "outputs": [],
      "stateMutability": "nonpayable",
      "type": "function"
    },
    {
      "inputs": [
        {
          "internalType": "address",
          "name": "collateralAsset",
          "type": "address"
        },
        {
          "internalType": "address",
          "name": "debtAsset",
          "type": "address"
        },
        {
          "internalType": "address",
          "name": "user",
          "type": "address"
        },
        {
          "internalType": "uint256",
          "name": "debtToCover",
          "type": "uint256"
        },
        {
          "internalType": "bool",
          "name": "receiveAToken",
          "type": "bool"
        }
      ],
      "name": "liquidationCall",
      "outputs": [],
      "stateMutability": "nonpayable",
      "type": "function"
    },
    {
      "inputs": [],
      "name": "paused",
      "outputs": [
        {
          "internalType": "bool",
          "name": "",
          "type": "bool"
        }
      ],
      "stateMutability": "view",
      "type": "function"
    },
    {
      "inputs": [
        {
          "internalType": "address",
          "name": "asset",
          "type": "address"
        },
        {
          "internalType": "address",
          "name": "user",
          "type": "address"
        }
      ],
      "name": "rebalanceStableBorrowRate",
      "outputs": [],
      "stateMutability": "nonpayable",
      "type": "function"
    },
    {
      "inputs": [
        {
          "internalType": "address",
          "name": "asset",
          "type": "address"
        },
        {
          "internalType": "uint256",
          "name": "amount",
          "type": "uint256"
        },
        {
          "internalType": "uint256",
          "name": "rateMode",
          "type": "uint256"
        },
        {
          "internalType": "address",
          "name": "onBehalfOf",
          "type": "address"
        }
      ],
      "name": "repay",
      "outputs": [
        {
          "internalType": "uint256",
          "name": "",
          "type": "uint256"
        }
      ],
      "stateMutability": "nonpayable",
      "type": "function"
    },
    {
      "inputs": [
        {
          "internalType": "address",
          "name": "asset",
          "type": "address"
        },
        {
          "internalType": "uint256",
          "name": "configuration",
          "type": "uint256"
        }
      ],
      "name": "setConfiguration",
      "outputs": [],
      "stateMutability": "nonpayable",
      "type": "function"
    },
    {
      "inputs": [
        {
          "internalType": "bool",
          "name": "val",
          "type": "bool"
        }
      ],
      "name": "setPause",
      "outputs": [],
      "stateMutability": "nonpayable",
      "type": "function"
    },
    {
      "inputs": [
        {
          "internalType": "address",
          "name": "asset",
          "type": "address"
        },
        {
          "internalType": "address",
          "name": "rateStrategyAddress",
          "type": "address"
        }
      ],
      "name": "setReserveInterestRateStrategyAddress",
      "outputs": [],
      "stateMutability": "nonpayable",
      "type": "function"
    },
    {
      "inputs": [
        {
          "internalType": "address",
          "name": "asset",
          "type": "address"
        },
        {
          "internalType": "bool",
          "name": "useAsCollateral",
          "type": "bool"
        }
      ],
      "name": "setUserUseReserveAsCollateral",
      "outputs": [],
      "stateMutability": "nonpayable",
      "type": "function"
    },
    {
      "inputs": [
        {
          "internalType": "address",
          "name": "asset",
          "type": "address"
        },
        {
          "internalType": "uint256",
          "name": "rateMode",
          "type": "uint256"
        }
      ],
      "name": "swapBorrowRateMode",
      "outputs": [],
      "stateMutability": "nonpayable",
      "type": "function"
    },
    {
      "inputs": [
        {
          "internalType": "address",
          "name": "asset",
          "type": "address"
        },
        {
          "internalType": "uint256",
          "name": "amount",
          "type": "uint256"
        },
        {
          "internalType": "address",
          "name": "to",
          "type": "address"
        }
      ],
      "name": "withdraw",
      "outputs": [
        {
          "internalType": "uint256",
          "name": "",
          "type": "uint256"
        }
      ],
      "stateMutability": "nonpayable",
      "type": "function"
    }
  ],
  "bytecode": "0x6080604052348015600f57600080fd5b50611af68061001f6000396000f3fe608060405234801561001057600080fd5b50600436106101725760003560e01c8063a415bcad116100de578063cd11238211610097578063d2493b6c11610071578063d2493b6c14610488578063d5ed3933146104ba578063e8eda9df146104d6578063fe65acfe146104f257610172565b8063cd1123821461041e578063d15e00531461043a578063d1946dbc1461046a57610172565b8063a415bcad14610349578063ab9c4b5d14610365578063b8d2927614610381578063bedb86fb1461039d578063bf92857c146103b9578063c44b11f7146103ee57610172565b8063573ade8111610130578063573ade81146102775780635a3b74b9146102a75780635c975abb146102c357806369328dec146102e15780637a708e921461031157806394ba89a21461032d57610172565b8062a718a9146101775780631d2118f91461019357806328dd2d01146101af57806335ea6a75146101e7578063386497fd146102175780634417a58314610247575b600080fd5b610191600480360381019061018c9190610b2d565b610510565b005b6101ad60048036038101906101a89190610ba8565b610517565b005b6101c960048036038101906101c49190610ba8565b61051b565b6040516101de99989796959493929190610c26565b60405180910390f35b61020160048036038101906101fc9190610cb3565b610555565b60405161020e9190610e66565b60405180910390f35b610231600480360381019061022c9190610cb3565b61068c565b60405161023e9190610e82565b60405180910390f35b610261600480360381019061025c9190610cb3565b610693565b60405161026e9190610eb9565b60405180910390f35b610291600480360381019061028c9190610ed4565b6106b2565b60405161029e9190610e82565b60405180910390f35b6102c160048036038101906102bc9190610f3b565b6106bc565b005b6102cb6106c0565b6040516102d89190610f7b565b60405180910390f35b6102fb60048036038101906102f69190610f96565b6106c5565b6040516103089190610e82565b60405180910390f35b61032b60048036038101906103269190610fe9565b6106ce565b005b61034760048036038101906103429190611064565b6106d5565b005b610363600480360381019061035e91906110de565b6106d9565b005b61037f600480360381019061037a919061126a565b6106e0565b005b61039b60048036038101906103969190611064565b610837565b005b6103b760048036038101906103b2919061138e565b61083b565b005b6103d360048036038101906103ce9190610cb3565b61083e565b6040516103e5969594939291906113bb565b60405180910390f35b61040860048036038101906104039190610cb3565b610865565b6040516104159190611438565b60405180910390f35b61043860048036038101906104339190610ba8565b610884565b005b610454600480360381019061044f9190610cb3565b610888565b6040516104619190610e82565b60405180910390f35b61047261088f565b60405161047f9190611502565b60405180910390f35b6104a2600480360381019061049d9190610cb3565b6108e5565b6040516104b193929190611533565b60405180910390f35b6104d460048036038101906104cf919061156a565b6108fb565b005b6104f060048036038101906104eb91906115f7565b610903565b005b6104fa610909565b60405161050791906116bd565b60405180910390f35b5050505050565b5050565b6000806000806000806000806000806000806000806000806000809850985098509850985098509850985098509295985092959850929598565b61055d61090e565b60405180610180016040528060405180602001604052806000815250815260200160006fffffffffffffffffffffffffffffffff16815260200160006fffffffffffffffffffffffffffffffff16815260200160006fffffffffffffffffffffffffffffffff16815260200160006fffffffffffffffffffffffffffffffff16815260200160006fffffffffffffffffffffffffffffffff168152602001600064ffffffffff168152602001600073ffffffffffffffffffffffffffffffffffffffff168152602001600073ffffffffffffffffffffffffffffffffffffffff168152602001600073ffffffffffffffffffffffffffffffffffffffff168152602001600073ffffffffffffffffffffffffffffffffffffffff168152602001600060ff168152509050919050565b6000919050565b61069b610a31565b604051806020016040528060008152509050919050565b6000949350505050565b5050565b600090565b60009392505050565b5050505050565b5050565b5050505050565b60008a8a905067ffffffffffffffff8111156106ff576106fe6116d8565b5b60405190808252806020026020018201604052801561072d5781602001602082028036833780820191505090505b50905060005b8b8b905081101561079d5761271060098b8b8481811061075657610755611707565b5b905060200201356107679190611765565b61077191906117d6565b82828151811061078457610783611707565b5b6020026020010181815250508080600101915050610733565b508b73ffffffffffffffffffffffffffffffffffffffff1663920f5c848c8c8c8c86308b8b6040518963ffffffff1660e01b81526004016107e5989796959493929190611a09565b6020604051808303816000875af1158015610804573d6000803e3d6000fd5b505050506040513d601f19601f820116820180604052508101906108289190611a93565b50505050505050505050505050565b5050565b50565b60008060008060008060008060008060008095509550955095509550955091939550919395565b61086d610a44565b604051806020016040528060008152509050919050565b5050565b6000919050565b606060008067ffffffffffffffff8111156108ad576108ac6116d8565b5b6040519080825280602002602001820160405280156108db5781602001602082028036833780820191505090505b5090508091505090565b6000806000806000809250925092509193909250565b505050505050565b50505050565b600090565b604051806101800160405280610922610a44565b815260200160006fffffffffffffffffffffffffffffffff16815260200160006fffffffffffffffffffffffffffffffff16815260200160006fffffffffffffffffffffffffffffffff16815260200160006fffffffffffffffffffffffffffffffff16815260200160006fffffffffffffffffffffffffffffffff168152602001600064ffffffffff168152602001600073ffffffffffffffffffffffffffffffffffffffff168152602001600073ffffffffffffffffffffffffffffffffffffffff168152602001600073ffffffffffffffffffffffffffffffffffffffff168152602001600073ffffffffffffffffffffffffffffffffffffffff168152602001600060ff1681525090565b6040518060200160405280600081525090565b6040518060200160405280600081525090565b600080fd5b600080fd5b600073ffffffffffffffffffffffffffffffffffffffff82169050919050565b6000610a8c82610a61565b9050919050565b610a9c81610a81565b8114610aa757600080fd5b50565b600081359050610ab981610a93565b92915050565b6000819050919050565b610ad281610abf565b8114610add57600080fd5b50565b600081359050610aef81610ac9565b92915050565b60008115159050919050565b610b0a81610af5565b8114610b1557600080fd5b50565b600081359050610b2781610b01565b92915050565b600080600080600060a08688031215610b4957610b48610a57565b5b6000610b5788828901610aaa565b9550506020610b6888828901610aaa565b9450506040610b7988828901610aaa565b9350506060610b8a88828901610ae0565b9250506080610b9b88828901610b18565b9150509295509295909350565b60008060408385031215610bbf57610bbe610a57565b5b6000610bcd85828601610aaa565b9250506020610bde85828601610aaa565b9150509250929050565b610bf181610abf565b82525050565b600064ffffffffff82169050919050565b610c1181610bf7565b82525050565b610c2081610af5565b82525050565b600061012082019050610c3c600083018c610be8565b610c49602083018b610be8565b610c56604083018a610be8565b610c636060830189610be8565b610c706080830188610be8565b610c7d60a0830187610be8565b610c8a60c0830186610be8565b610c9760e0830185610c08565b610ca5610100830184610c17565b9a9950505050505050505050565b600060208284031215610cc957610cc8610a57565b5b6000610cd784828501610aaa565b91505092915050565b610ce981610abf565b82525050565b602082016000820151610d056000850182610ce0565b50505050565b60006fffffffffffffffffffffffffffffffff82169050919050565b610d3081610d0b565b82525050565b610d3f81610bf7565b82525050565b610d4e81610a81565b82525050565b600060ff82169050919050565b610d6a81610d54565b82525050565b61018082016000820151610d876000850182610cef565b506020820151610d9a6020850182610d27565b506040820151610dad6040850182610d27565b506060820151610dc06060850182610d27565b506080820151610dd36080850182610d27565b5060a0820151610de660a0850182610d27565b5060c0820151610df960c0850182610d36565b5060e0820151610e0c60e0850182610d45565b50610100820151610e21610100850182610d45565b50610120820151610e36610120850182610d45565b50610140820151610e4b610140850182610d45565b50610160820151610e60610160850182610d61565b50505050565b600061018082019050610e7c6000830184610d70565b92915050565b6000602082019050610e976000830184610be8565b92915050565b602082016000820151610eb36000850182610ce0565b50505050565b6000602082019050610ece6000830184610e9d565b92915050565b60008060008060808587031215610eee57610eed610a57565b5b6000610efc87828801610aaa565b9450506020610f0d87828801610ae0565b9350506040610f1e87828801610ae0565b9250506060610f2f87828801610aaa565b91505092959194509250565b60008060408385031215610f5257610f51610a57565b5b6000610f6085828601610aaa565b9250506020610f7185828601610b18565b9150509250929050565b6000602082019050610f906000830184610c17565b92915050565b600080600060608486031215610faf57610fae610a57565b5b6000610fbd86828701610aaa565b9350506020610fce86828701610ae0565b9250506040610fdf86828701610aaa565b9150509250925092565b600080600080600060a0868803121561100557611004610a57565b5b600061101388828901610aaa565b955050602061102488828901610aaa565b945050604061103588828901610aaa565b935050606061104688828901610aaa565b925050608061105788828901610aaa565b9150509295509295909350565b6000806040838503121561107b5761107a610a57565b5b600061108985828601610aaa565b925050602061109a85828601610ae0565b9150509250929050565b600061ffff82169050919050565b6110bb816110a4565b81146110c657600080fd5b50565b6000813590506110d8816110b2565b92915050565b600080600080600060a086880312156110fa576110f9610a57565b5b600061110888828901610aaa565b955050602061111988828901610ae0565b945050604061112a88828901610ae0565b935050606061113b888289016110c9565b925050608061114c88828901610aaa565b9150509295509295909350565b600080fd5b600080fd5b600080fd5b60008083601f84011261117e5761117d611159565b5b8235905067ffffffffffffffff81111561119b5761119a61115e565b5b6020830191508360208202830111156111b7576111b6611163565b5b9250929050565b60008083601f8401126111d4576111d3611159565b5b8235905067ffffffffffffffff8111156111f1576111f061115e565b5b60208301915083602082028301111561120d5761120c611163565b5b9250929050565b60008083601f84011261122a57611229611159565b5b8235905067ffffffffffffffff8111156112475761124661115e565b5b60208301915083600182028301111561126357611262611163565b5b9250929050565b600080600080600080600080600080600060e08c8e03121561128f5761128e610a57565b5b600061129d8e828f01610aaa565b9b505060208c013567ffffffffffffffff8111156112be576112bd610a5c565b5b6112ca8e828f01611168565b9a509a505060408c013567ffffffffffffffff8111156112ed576112ec610a5c565b5b6112f98e828f016111be565b985098505060608c013567ffffffffffffffff81111561131c5761131b610a5c565b5b6113288e828f016111be565b9650965050608061133b8e828f01610aaa565b94505060a08c013567ffffffffffffffff81111561135c5761135b610a5c565b5b6113688e828f01611214565b935093505060c061137b8e828f016110c9565b9150509295989b509295989b9093969950565b6000602082840312156113a4576113a3610a57565b5b60006113b284828501610b18565b91505092915050565b600060c0820190506113d06000830189610be8565b6113dd6020830188610be8565b6113ea6040830187610be8565b6113f76060830186610be8565b6114046080830185610be8565b61141160a0830184610be8565b979650505050505050565b6020820160008201516114326000850182610ce0565b50505050565b600060208201905061144d600083018461141c565b92915050565b600081519050919050565b600082825260208201905092915050565b6000819050602082019050919050565b600061148b8383610d45565b60208301905092915050565b6000602082019050919050565b60006114af82611453565b6114b9818561145e565b93506114c48361146f565b8060005b838110156114f55781516114dc888261147f565b97506114e783611497565b9250506001810190506114c8565b5085935050505092915050565b6000602082019050818103600083015261151c81846114a4565b905092915050565b61152d81610a81565b82525050565b60006060820190506115486000830186611524565b6115556020830185611524565b6115626040830184611524565b949350505050565b60008060008060008060c0878903121561158757611586610a57565b5b600061159589828a01610aaa565b96505060206115a689828a01610aaa565b95505060406115b789828a01610aaa565b94505060606115c889828a01610ae0565b93505060806115d989828a01610ae0565b92505060a06115ea89828a01610ae0565b9150509295509295509295565b6000806000806080858703121561161157611610610a57565b5b600061161f87828801610aaa565b945050602061163087828801610ae0565b935050604061164187828801610aaa565b9250506060611652878288016110c9565b91505092959194509250565b6000819050919050565b600061168361167e61167984610a61565b61165e565b610a61565b9050919050565b600061169582611668565b9050919050565b60006116a78261168a565b9050919050565b6116b78161169c565b82525050565b60006020820190506116d260008301846116ae565b92915050565b7f4e487b7100000000000000000000000000000000000000000000000000000000600052604160045260246000fd5b7f4e487b7100000000000000000000000000000000000000000000000000000000600052603260045260246000fd5b7f4e487b7100000000000000000000000000000000000000000000000000000000600052601160045260246000fd5b600061177082610abf565b915061177b83610abf565b925082820261178981610abf565b915082820484148315176117a05761179f611736565b5b5092915050565b7f4e487b7100000000000000000000000000000000000000000000000000000000600052601260045260246000fd5b60006117e182610abf565b91506117ec83610abf565b9250826117fc576117fb6117a7565b5b828204905092915050565b6000819050919050565b60006118206020840184610aaa565b905092915050565b6000602082019050919050565b6000611841838561145e565b935061184c82611807565b8060005b85811015611885576118628284611811565b61186c888261147f565b975061187783611828565b925050600181019050611850565b5085925050509392505050565b600082825260208201905092915050565b600080fd5b82818337505050565b60006118bd8385611892565b93507f07ffffffffffffffffffffffffffffffffffffffffffffffffffffffffffffff8311156118f0576118ef6118a3565b5b6020830292506119018385846118a8565b82840190509392505050565b600081519050919050565b6000819050602082019050919050565b60006119348383610ce0565b60208301905092915050565b6000602082019050919050565b60006119588261190d565b6119628185611892565b935061196d83611918565b8060005b8381101561199e5781516119858882611928565b975061199083611940565b925050600181019050611971565b5085935050505092915050565b600082825260208201905092915050565b82818337600083830152505050565b6000601f19601f8301169050919050565b60006119e883856119ab565b93506119f58385846119bc565b6119fe836119cb565b840190509392505050565b600060a0820190508181036000830152611a24818a8c611835565b90508181036020830152611a3981888a6118b1565b90508181036040830152611a4d818761194d565b9050611a5c6060830186611524565b8181036080830152611a6f8184866119dc565b90509998505050505050505050565b600081519050611a8d81610b01565b92915050565b600060208284031215611aa957611aa8610a57565b5b6000611ab784828501611a7e565b9150509291505056fea26469706673582212203a36c81226fbe8be8a4a8194e3fd0241ce0ff6eba3a654e8198f6f5f19ca349364736f6c634300081c0033",
  "linkReferences": {},
  "deployedLinkReferences": {}
}