{
  "_format": "hh-sol-artifact-1",
  "contractName": "FlashloanV1",
  "sourceName": "contracts/flashloan/FlashloanV1.sol",
  "abi": [
    {
      "inputs": [
        {
          "internalType": "address",
          "name": "_lendingPool",
          "type": "address"
        }
      ],
      "stateMutability": "nonpayable",
      "type": "constructor"
    },
    {
      "inputs": [
        {
          "internalType": "address",
          "name": "owner",
          "type": "address"
        }
      ],
      "name": "OwnableInvalidOwner",
      "type": "error"
    },
    {
      "inputs": [
        {
          "internalType": "address",
          "name": "account",
          "type": "address"
        }
      ],
      "name": "OwnableUnauthorizedAccount",
      "type": "error"
    },
    {
      "inputs": [
        {
          "internalType": "address",
          "name": "token",
          "type": "address"
        }
      ],
      "name": "SafeERC20FailedOperation",
      "type": "error"
    },
    {
      "anonymous": false,
      "inputs": [
        {
          "indexed": false,
          "internalType": "address",
          "name": "token",
          "type": "address"
        },
        {
          "indexed": false,
          "internalType": "uint256",
          "name": "amount",
          "type": "uint256"
        }
      ],
      "name": "FlashLoanExecuted",
      "type": "event"
    },
    {
      "anonymous": false,
      "inputs": [
        {
          "indexed": true,
          "internalType": "address",
          "name": "previousOwner",
          "type": "address"
        },
        {
          "indexed": true,
          "internalType": "address",
          "name": "newOwner",
          "type": "address"
        }
      ],
      "name": "OwnershipTransferred",
      "type": "event"
    },
    {
      "inputs": [],
      "name": "LENDING_POOL",
      "outputs": [
        {
          "internalType": "contract ILendingPoolV1",
          "name": "",
          "type": "address"
        }
      ],
      "stateMutability": "view",
      "type": "function"
    },
    {
      "inputs": [
        {
          "internalType": "address",
          "name": "_token",
          "type": "address"
        }
      ],
      "name": "flashloan",
      "outputs": [],
      "stateMutability": "nonpayable",
      "type": "function"
    },
    {
      "inputs": [
        {
          "internalType": "address",
          "name": "_token",
          "type": "address"
        },
        {
          "internalType": "uint256",
          "name": "_amount",
          "type": "uint256"
        }
      ],
      "name": "flashloanWithAmount",
      "outputs": [],
      "stateMutability": "nonpayable",
      "type": "function"
    },
    {
      "inputs": [],
      "name": "owner",
      "outputs": [
        {
          "internalType": "address",
          "name": "",
          "type": "address"
        }
      ],
      "stateMutability": "view",
      "type": "function"
    },
    {
      "inputs": [],
      "name": "renounceOwnership",
      "outputs": [],
      "stateMutability": "nonpayable",
      "type": "function"
    },
    {
      "inputs": [
        {
          "internalType": "address",
          "name": "newOwner",
          "type": "address"
        }
      ],
      "name": "transferOwnership",
      "outputs": [],
      "stateMutability": "nonpayable",
      "type": "function"
    },
    {
      "inputs": [
        {
          "internalType": "address",
          "name": "_token",
          "type": "address"
        }
      ],
      "name": "withdrawToken",
      "outputs": [],
      "stateMutability": "nonpayable",
      "type": "function"
    },
    {
      "stateMutability": "payable",
      "type": "receive"
    }
  ],
  "bytecode": "0x60a060405234801561001057600080fd5b5060405161163d38038061163d83398181016040528101906100329190610216565b33600073ffffffffffffffffffffffffffffffffffffffff168173ffffffffffffffffffffffffffffffffffffffff16036100a55760006040517f1e4fbdf700000000000000000000000000000000000000000000000000000000815260040161009c9190610252565b60405180910390fd5b6100b4816100ef60201b60201c565b508073ffffffffffffffffffffffffffffffffffffffff1660808173ffffffffffffffffffffffffffffffffffffffff16815250505061026d565b60008060009054906101000a900473ffffffffffffffffffffffffffffffffffffffff169050816000806101000a81548173ffffffffffffffffffffffffffffffffffffffff021916908373ffffffffffffffffffffffffffffffffffffffff1602179055508173ffffffffffffffffffffffffffffffffffffffff168173ffffffffffffffffffffffffffffffffffffffff167f8be0079c531659141344cd1fd0a4f28419497f9722a3daafe3b4186f6b6457e060405160405180910390a35050565b600080fd5b600073ffffffffffffffffffffffffffffffffffffffff82169050919050565b60006101e3826101b8565b9050919050565b6101f3816101d8565b81146101fe57600080fd5b50565b600081519050610210816101ea565b92915050565b60006020828403121561022c5761022b6101b3565b5b600061023a84828501610201565b91505092915050565b61024c816101d8565b82525050565b60006020820190506102676000830184610243565b92915050565b6080516113ae61028f600039600081816104f8015261086f01526113ae6000f3fe6080604052600436106100745760003560e01c80638da5cb5b1161004e5780638da5cb5b146100e9578063b4dcfc7714610114578063c9d0aa6e1461013f578063f2fde38b146101685761007b565b806336c4047714610080578063715018a6146100a957806389476069146100c05761007b565b3661007b57005b600080fd5b34801561008c57600080fd5b506100a760048036038101906100a29190610b8d565b610191565b005b3480156100b557600080fd5b506100be6102fa565b005b3480156100cc57600080fd5b506100e760048036038101906100e29190610b8d565b61030e565b005b3480156100f557600080fd5b506100fe6104cd565b60405161010b9190610bc9565b60405180910390f35b34801561012057600080fd5b506101296104f6565b6040516101369190610c43565b60405180910390f35b34801561014b57600080fd5b5061016660048036038101906101619190610c94565b61051a565b005b34801561017457600080fd5b5061018f600480360381019061018a9190610b8d565b6105e2565b005b610199610668565b600073ffffffffffffffffffffffffffffffffffffffff168173ffffffffffffffffffffffffffffffffffffffff1603610208576040517f08c379a00000000000000000000000000000000000000000000000000000000081526004016101ff90610d31565b60405180910390fd5b600073eeeeeeeeeeeeeeeeeeeeeeeeeeeeeeeeeeeeeeee73ffffffffffffffffffffffffffffffffffffffff168273ffffffffffffffffffffffffffffffffffffffff160361026157670de0b6b3a764000090506102ec565b8173ffffffffffffffffffffffffffffffffffffffff1663313ce5676040518163ffffffff1660e01b8152600401602060405180830381865afa1580156102ac573d6000803e3d6000fd5b505050506040513d601f19601f820116820180604052508101906102d09190610d8a565b600a6102dc9190610f19565b6103e86102e99190610f64565b90505b6102f682826106ef565b5050565b610302610668565b61030c600061093d565b565b610316610668565b73eeeeeeeeeeeeeeeeeeeeeeeeeeeeeeeeeeeeeeee73ffffffffffffffffffffffffffffffffffffffff168173ffffffffffffffffffffffffffffffffffffffff160361040f5760003373ffffffffffffffffffffffffffffffffffffffff164760405161038390610fd7565b60006040518083038185875af1925050503d80600081146103c0576040519150601f19603f3d011682016040523d82523d6000602084013e6103c5565b606091505b5050905080610409576040517f08c379a000000000000000000000000000000000000000000000000000000000815260040161040090611038565b60405180910390fd5b506104ca565b600081905060008173ffffffffffffffffffffffffffffffffffffffff166370a08231306040518263ffffffff1660e01b815260040161044f9190610bc9565b602060405180830381865afa15801561046c573d6000803e3d6000fd5b505050506040513d601f19601f82011682018060405250810190610490919061106d565b905060008111156104c7576104c633828473ffffffffffffffffffffffffffffffffffffffff16610a019092919063ffffffff16565b5b50505b50565b60008060009054906101000a900473ffffffffffffffffffffffffffffffffffffffff16905090565b7f000000000000000000000000000000000000000000000000000000000000000081565b610522610668565b600073ffffffffffffffffffffffffffffffffffffffff168273ffffffffffffffffffffffffffffffffffffffff1603610591576040517f08c379a000000000000000000000000000000000000000000000000000000000815260040161058890610d31565b60405180910390fd5b600081116105d4576040517f08c379a00000000000000000000000000000000000000000000000000000000081526004016105cb906110e6565b60405180910390fd5b6105de82826106ef565b5050565b6105ea610668565b600073ffffffffffffffffffffffffffffffffffffffff168173ffffffffffffffffffffffffffffffffffffffff160361065c5760006040517f1e4fbdf70000000000000000000000000000000000000000000000000000000081526004016106539190610bc9565b60405180910390fd5b6106658161093d565b50565b610670610a80565b73ffffffffffffffffffffffffffffffffffffffff1661068e6104cd565b73ffffffffffffffffffffffffffffffffffffffff16146106ed576106b1610a80565b6040517f118cdaa70000000000000000000000000000000000000000000000000000000081526004016106e49190610bc9565b60405180910390fd5b565b60006127106009836107019190610f64565b61070b9190611135565b905073eeeeeeeeeeeeeeeeeeeeeeeeeeeeeeeeeeeeeeee73ffffffffffffffffffffffffffffffffffffffff168373ffffffffffffffffffffffffffffffffffffffff160361079c5780471015610797576040517f08c379a000000000000000000000000000000000000000000000000000000000815260040161078e906111b2565b60405180910390fd5b610859565b808373ffffffffffffffffffffffffffffffffffffffff166370a08231306040518263ffffffff1660e01b81526004016107d69190610bc9565b602060405180830381865afa1580156107f3573d6000803e3d6000fd5b505050506040513d601f19601f82011682018060405250810190610817919061106d565b1015610858576040517f08c379a000000000000000000000000000000000000000000000000000000000815260040161084f90611244565b60405180910390fd5b5b60006040518060200160405280600081525090507f000000000000000000000000000000000000000000000000000000000000000073ffffffffffffffffffffffffffffffffffffffff16635cffe9de308686856040518563ffffffff1660e01b81526004016108cc9493929190611303565b600060405180830381600087803b1580156108e657600080fd5b505af11580156108fa573d6000803e3d6000fd5b505050507f601a662d311cd4ce5f0345feba42cb1b573094143c46c6f5bb901d6e8578a23a848460405161092f92919061134f565b60405180910390a150505050565b60008060009054906101000a900473ffffffffffffffffffffffffffffffffffffffff169050816000806101000a81548173ffffffffffffffffffffffffffffffffffffffff021916908373ffffffffffffffffffffffffffffffffffffffff1602179055508173ffffffffffffffffffffffffffffffffffffffff168173ffffffffffffffffffffffffffffffffffffffff167f8be0079c531659141344cd1fd0a4f28419497f9722a3daafe3b4186f6b6457e060405160405180910390a35050565b610a7b838473ffffffffffffffffffffffffffffffffffffffff1663a9059cbb8585604051602401610a3492919061134f565b604051602081830303815290604052915060e01b6020820180517bffffffffffffffffffffffffffffffffffffffffffffffffffffffff8381831617835250505050610a88565b505050565b600033905090565b600080602060008451602086016000885af180610aab576040513d6000823e3d81fd5b3d925060005191505060008214610ac6576001811415610ae2565b60008473ffffffffffffffffffffffffffffffffffffffff163b145b15610b2457836040517f5274afe7000000000000000000000000000000000000000000000000000000008152600401610b1b9190610bc9565b60405180910390fd5b50505050565b600080fd5b600073ffffffffffffffffffffffffffffffffffffffff82169050919050565b6000610b5a82610b2f565b9050919050565b610b6a81610b4f565b8114610b7557600080fd5b50565b600081359050610b8781610b61565b92915050565b600060208284031215610ba357610ba2610b2a565b5b6000610bb184828501610b78565b91505092915050565b610bc381610b4f565b82525050565b6000602082019050610bde6000830184610bba565b92915050565b6000819050919050565b6000610c09610c04610bff84610b2f565b610be4565b610b2f565b9050919050565b6000610c1b82610bee565b9050919050565b6000610c2d82610c10565b9050919050565b610c3d81610c22565b82525050565b6000602082019050610c586000830184610c34565b92915050565b6000819050919050565b610c7181610c5e565b8114610c7c57600080fd5b50565b600081359050610c8e81610c68565b92915050565b60008060408385031215610cab57610caa610b2a565b5b6000610cb985828601610b78565b9250506020610cca85828601610c7f565b9150509250929050565b600082825260208201905092915050565b7f496e76616c696420746f6b656e20616464726573730000000000000000000000600082015250565b6000610d1b601583610cd4565b9150610d2682610ce5565b602082019050919050565b60006020820190508181036000830152610d4a81610d0e565b9050919050565b600060ff82169050919050565b610d6781610d51565b8114610d7257600080fd5b50565b600081519050610d8481610d5e565b92915050565b600060208284031215610da057610d9f610b2a565b5b6000610dae84828501610d75565b91505092915050565b7f4e487b7100000000000000000000000000000000000000000000000000000000600052601160045260246000fd5b60008160011c9050919050565b6000808291508390505b6001851115610e3d57808604811115610e1957610e18610db7565b5b6001851615610e285780820291505b8081029050610e3685610de6565b9450610dfd565b94509492505050565b600082610e565760019050610f12565b81610e645760009050610f12565b8160018114610e7a5760028114610e8457610eb3565b6001915050610f12565b60ff841115610e9657610e95610db7565b5b8360020a915084821115610ead57610eac610db7565b5b50610f12565b5060208310610133831016604e8410600b8410161715610ee85782820a905083811115610ee357610ee2610db7565b5b610f12565b610ef58484846001610df3565b92509050818404811115610f0c57610f0b610db7565b5b81810290505b9392505050565b6000610f2482610c5e565b9150610f2f83610d51565b9250610f5c7fffffffffffffffffffffffffffffffffffffffffffffffffffffffffffffffff8484610e46565b905092915050565b6000610f6f82610c5e565b9150610f7a83610c5e565b9250828202610f8881610c5e565b91508282048414831517610f9f57610f9e610db7565b5b5092915050565b600081905092915050565b50565b6000610fc1600083610fa6565b9150610fcc82610fb1565b600082019050919050565b6000610fe282610fb4565b9150819050919050565b7f455448207472616e73666572206661696c656400000000000000000000000000600082015250565b6000611022601383610cd4565b915061102d82610fec565b602082019050919050565b6000602082019050818103600083015261105181611015565b9050919050565b60008151905061106781610c68565b92915050565b60006020828403121561108357611082610b2a565b5b600061109184828501611058565b91505092915050565b7f416d6f756e74206d7573742062652067726561746572207468616e2030000000600082015250565b60006110d0601d83610cd4565b91506110db8261109a565b602082019050919050565b600060208201905081810360008301526110ff816110c3565b9050919050565b7f4e487b7100000000000000000000000000000000000000000000000000000000600052601260045260246000fd5b600061114082610c5e565b915061114b83610c5e565b92508261115b5761115a611106565b5b828204905092915050565b7f496e73756666696369656e742045544820666f72206665657300000000000000600082015250565b600061119c601983610cd4565b91506111a782611166565b602082019050919050565b600060208201905081810360008301526111cb8161118f565b9050919050565b7f496e73756666696369656e7420746f6b656e2062616c616e636520666f72206660008201527f6565730000000000000000000000000000000000000000000000000000000000602082015250565b600061122e602383610cd4565b9150611239826111d2565b604082019050919050565b6000602082019050818103600083015261125d81611221565b9050919050565b61126d81610c5e565b82525050565b600081519050919050565b600082825260208201905092915050565b60005b838110156112ad578082015181840152602081019050611292565b60008484015250505050565b6000601f19601f8301169050919050565b60006112d582611273565b6112df818561127e565b93506112ef81856020860161128f565b6112f8816112b9565b840191505092915050565b60006080820190506113186000830187610bba565b6113256020830186610bba565b6113326040830185611264565b818103606083015261134481846112ca565b905095945050505050565b60006040820190506113646000830185610bba565b6113716020830184611264565b939250505056fea264697066735822122017907a56257e30eb371d234bdfe6a533fece7b051aa084d2060a8270edcc9ca964736f6c634300081c0033",
  "linkReferences": {},
  "deployedLinkReferences": {}
}