{
  "_format": "hh-sol-artifact-1",
  "contractName": "FlashloanV1",
  "sourceName": "contracts/flashloan/FlashloanV1.sol",
  "abi": [
    {
      "inputs": [
        {
          "internalType": "address",
          "name": "_lendingPool",
          "type": "address"
        }
      ],
      "stateMutability": "nonpayable",
      "type": "constructor"
    },
    {
      "inputs": [
        {
          "internalType": "address",
          "name": "owner",
          "type": "address"
        }
      ],
      "name": "OwnableInvalidOwner",
      "type": "error"
    },
    {
      "inputs": [
        {
          "internalType": "address",
          "name": "account",
          "type": "address"
        }
      ],
      "name": "OwnableUnauthorizedAccount",
      "type": "error"
    },
    {
      "inputs": [
        {
          "internalType": "address",
          "name": "token",
          "type": "address"
        }
      ],
      "name": "SafeERC20FailedOperation",
      "type": "error"
    },
    {
      "anonymous": false,
      "inputs": [
        {
          "indexed": false,
          "internalType": "address",
          "name": "token",
          "type": "address"
        },
        {
          "indexed": false,
          "internalType": "uint256",
          "name": "amount",
          "type": "uint256"
        }
      ],
      "name": "FlashLoanExecuted",
      "type": "event"
    },
    {
      "anonymous": false,
      "inputs": [
        {
          "indexed": true,
          "internalType": "address",
          "name": "previousOwner",
          "type": "address"
        },
        {
          "indexed": true,
          "internalType": "address",
          "name": "newOwner",
          "type": "address"
        }
      ],
      "name": "OwnershipTransferred",
      "type": "event"
    },
    {
      "inputs": [],
      "name": "LENDING_POOL",
      "outputs": [
        {
          "internalType": "contract ILendingPoolV1",
          "name": "",
          "type": "address"
        }
      ],
      "stateMutability": "view",
      "type": "function"
    },
    {
      "inputs": [
        {
          "internalType": "address",
          "name": "_token",
          "type": "address"
        }
      ],
      "name": "flashloan",
      "outputs": [],
      "stateMutability": "nonpayable",
      "type": "function"
    },
    {
      "inputs": [
        {
          "internalType": "address",
          "name": "_token",
          "type": "address"
        },
        {
          "internalType": "uint256",
          "name": "_amount",
          "type": "uint256"
        }
      ],
      "name": "flashloanWithAmount",
      "outputs": [],
      "stateMutability": "nonpayable",
      "type": "function"
    },
    {
      "inputs": [],
      "name": "owner",
      "outputs": [
        {
          "internalType": "address",
          "name": "",
          "type": "address"
        }
      ],
      "stateMutability": "view",
      "type": "function"
    },
    {
      "inputs": [],
      "name": "renounceOwnership",
      "outputs": [],
      "stateMutability": "nonpayable",
      "type": "function"
    },
    {
      "inputs": [
        {
          "internalType": "address",
          "name": "newOwner",
          "type": "address"
        }
      ],
      "name": "transferOwnership",
      "outputs": [],
      "stateMutability": "nonpayable",
      "type": "function"
    },
    {
      "inputs": [
        {
          "internalType": "address",
          "name": "_token",
          "type": "address"
        }
      ],
      "name": "withdrawToken",
      "outputs": [],
      "stateMutability": "nonpayable",
      "type": "function"
    },
    {
      "stateMutability": "payable",
      "type": "receive"
    }
  ],
  "bytecode": "0x60a060405234801561001057600080fd5b50604051610bf4380380610bf483398101604081905261002f916100c0565b338061005557604051631e4fbdf760e01b81526000600482015260240160405180910390fd5b61005e81610070565b506001600160a01b03166080526100f0565b600080546001600160a01b038381166001600160a01b0319831681178455604051919092169283917f8be0079c531659141344cd1fd0a4f28419497f9722a3daafe3b4186f6b6457e09190a35050565b6000602082840312156100d257600080fd5b81516001600160a01b03811681146100e957600080fd5b9392505050565b608051610ae26101126000396000818161011f01526106860152610ae26000f3fe6080604052600436106100745760003560e01c80638da5cb5b1161004e5780638da5cb5b146100d7578063b4dcfc771461010d578063c9d0aa6e14610141578063f2fde38b1461016157600080fd5b806336c4047714610080578063715018a6146100a257806389476069146100b757600080fd5b3661007b57005b600080fd5b34801561008c57600080fd5b506100a061009b36600461086c565b610181565b005b3480156100ae57600080fd5b506100a061029c565b3480156100c357600080fd5b506100a06100d236600461086c565b6102b0565b3480156100e357600080fd5b506000546001600160a01b03165b6040516001600160a01b03909116815260200160405180910390f35b34801561011957600080fd5b506100f17f000000000000000000000000000000000000000000000000000000000000000081565b34801561014d57600080fd5b506100a061015c36600461088e565b6103fa565b34801561016d57600080fd5b506100a061017c36600461086c565b6104a0565b6101896104db565b6001600160a01b0381166101dc5760405162461bcd60e51b8152602060048201526015602482015274496e76616c696420746f6b656e206164647265737360581b60448201526064015b60405180910390fd5b600073eeeeeeeeeeeeeeeeeeeeeeeeeeeeeeeeeeeeeeed196001600160a01b038316016102125750670de0b6b3a764000061028e565b816001600160a01b031663313ce5676040518163ffffffff1660e01b8152600401602060405180830381865afa158015610250573d6000803e3d6000fd5b505050506040513d601f19601f8201168201806040525081019061027491906108b8565b61027f90600a6109da565b61028b906103e86109e9565b90505b6102988282610508565b5050565b6102a46104db565b6102ae600061073c565b565b6102b86104db565b73eeeeeeeeeeeeeeeeeeeeeeeeeeeeeeeeeeeeeeed196001600160a01b0382160161036b57604051600090339047908381818185875af1925050503d806000811461031f576040519150601f19603f3d011682016040523d82523d6000602084013e610324565b606091505b50509050806102985760405162461bcd60e51b8152602060048201526013602482015272115512081d1c985b9cd9995c8819985a5b1959606a1b60448201526064016101d3565b6040516370a0823160e01b815230600482015281906000906001600160a01b038316906370a0823190602401602060405180830381865afa1580156103b4573d6000803e3d6000fd5b505050506040513d601f19601f820116820180604052508101906103d89190610a00565b905080156103f4576103f46001600160a01b038316338361078c565b50505b50565b6104026104db565b6001600160a01b0382166104505760405162461bcd60e51b8152602060048201526015602482015274496e76616c696420746f6b656e206164647265737360581b60448201526064016101d3565b6000811161028e5760405162461bcd60e51b815260206004820152601d60248201527f416d6f756e74206d7573742062652067726561746572207468616e203000000060448201526064016101d3565b6104a86104db565b6001600160a01b0381166104d257604051631e4fbdf760e01b8152600060048201526024016101d3565b6103f78161073c565b6000546001600160a01b031633146102ae5760405163118cdaa760e01b81523360048201526024016101d3565b60006127106105186009846109e9565b6105229190610a19565b905073eeeeeeeeeeeeeeeeeeeeeeeeeeeeeeeeeeeeeeed196001600160a01b0384160161059e57804710156105995760405162461bcd60e51b815260206004820152601960248201527f496e73756666696369656e742045544820666f7220666565730000000000000060448201526064016101d3565b610662565b6040516370a0823160e01b815230600482015281906001600160a01b038516906370a0823190602401602060405180830381865afa1580156105e4573d6000803e3d6000fd5b505050506040513d601f19601f820116820180604052508101906106089190610a00565b10156106625760405162461bcd60e51b815260206004820152602360248201527f496e73756666696369656e7420746f6b656e2062616c616e636520666f72206660448201526265657360e81b60648201526084016101d3565b60408051602081018252600081529051632e7ff4ef60e11b81526001600160a01b037f00000000000000000000000000000000000000000000000000000000000000001690635cffe9de906106c1903090889088908790600401610a3b565b600060405180830381600087803b1580156106db57600080fd5b505af11580156106ef573d6000803e3d6000fd5b5050604080516001600160a01b0388168152602081018790527f601a662d311cd4ce5f0345feba42cb1b573094143c46c6f5bb901d6e8578a23a935001905060405180910390a150505050565b600080546001600160a01b038381166001600160a01b0319831681178455604051919092169283917f8be0079c531659141344cd1fd0a4f28419497f9722a3daafe3b4186f6b6457e09190a35050565b604080516001600160a01b03841660248201526044808201849052825180830390910181526064909101909152602080820180516001600160e01b031663a9059cbb60e01b17815282516103f4938793909260009283929183919082885af1806107fc576040513d6000823e3d81fd5b50506000513d91508115610814578060011415610821565b6001600160a01b0384163b155b1561084a57604051635274afe760e01b81526001600160a01b03851660048201526024016101d3565b50505050565b80356001600160a01b038116811461086757600080fd5b919050565b60006020828403121561087e57600080fd5b61088782610850565b9392505050565b600080604083850312156108a157600080fd5b6108aa83610850565b946020939093013593505050565b6000602082840312156108ca57600080fd5b815160ff8116811461088757600080fd5b634e487b7160e01b600052601160045260246000fd5b6001815b600184111561092c57808504811115610910576109106108db565b600184161561091e57908102905b60019390931c9280026108f5565b935093915050565b600082610943575060016109d4565b81610950575060006109d4565b816001811461096657600281146109705761098c565b60019150506109d4565b60ff841115610981576109816108db565b50506001821b6109d4565b5060208310610133831016604e8410600b84101617156109af575081810a6109d4565b6109bc60001984846108f1565b80600019048211156109d0576109d06108db565b0290505b92915050565b600061088760ff841683610934565b80820281158282048414176109d4576109d46108db565b600060208284031215610a1257600080fd5b5051919050565b600082610a3657634e487b7160e01b600052601260045260246000fd5b500490565b6001600160a01b03858116825284166020820152604081018390526080606082018190528251908201819052600090815b81811015610a8957602081860181015160a0868401015201610a6c565b50600060a0828501015260a0601f19601f8301168401019150509594505050505056fea2646970667358221220691cc9532fd76955f79dbdeaf3e0a4540621973165e666bf7a7d5a5517e4c3b364736f6c634300081c0033",
  "linkReferences": {},
  "deployedLinkReferences": {}
}