{
  "_format": "hh-sol-artifact-1",
  "contractName": "MockLendingPoolAddressesProvider",
  "sourceName": "contracts/mocks/MockLendingPoolAddressesProvider.sol",
  "abi": [
    {
      "inputs": [
        {
          "internalType": "address",
          "name": "lendingPool",
          "type": "address"
        }
      ],
      "stateMutability": "nonpayable",
      "type": "constructor"
    },
    {
      "anonymous": false,
      "inputs": [
        {
          "indexed": false,
          "internalType": "bytes32",
          "name": "id",
          "type": "bytes32"
        },
        {
          "indexed": true,
          "internalType": "address",
          "name": "newAddress",
          "type": "address"
        },
        {
          "indexed": false,
          "internalType": "bool",
          "name": "hasProxy",
          "type": "bool"
        }
      ],
      "name": "AddressSet",
      "type": "event"
    },
    {
      "anonymous": false,
      "inputs": [
        {
          "indexed": true,
          "internalType": "address",
          "name": "newAddress",
          "type": "address"
        }
      ],
      "name": "ConfigurationAdminUpdated",
      "type": "event"
    },
    {
      "anonymous": false,
      "inputs": [
        {
          "indexed": true,
          "internalType": "address",
          "name": "newAddress",
          "type": "address"
        }
      ],
      "name": "EmergencyAdminUpdated",
      "type": "event"
    },
    {
      "anonymous": false,
      "inputs": [
        {
          "indexed": true,
          "internalType": "address",
          "name": "newAddress",
          "type": "address"
        }
      ],
      "name": "LendingPoolCollateralManagerUpdated",
      "type": "event"
    },
    {
      "anonymous": false,
      "inputs": [
        {
          "indexed": true,
          "internalType": "address",
          "name": "newAddress",
          "type": "address"
        }
      ],
      "name": "LendingPoolConfiguratorUpdated",
      "type": "event"
    },
    {
      "anonymous": false,
      "inputs": [
        {
          "indexed": true,
          "internalType": "address",
          "name": "newAddress",
          "type": "address"
        }
      ],
      "name": "LendingPoolUpdated",
      "type": "event"
    },
    {
      "anonymous": false,
      "inputs": [
        {
          "indexed": true,
          "internalType": "address",
          "name": "newAddress",
          "type": "address"
        }
      ],
      "name": "LendingRateOracleUpdated",
      "type": "event"
    },
    {
      "anonymous": false,
      "inputs": [
        {
          "indexed": false,
          "internalType": "string",
          "name": "newMarketId",
          "type": "string"
        }
      ],
      "name": "MarketIdSet",
      "type": "event"
    },
    {
      "anonymous": false,
      "inputs": [
        {
          "indexed": true,
          "internalType": "address",
          "name": "newAddress",
          "type": "address"
        }
      ],
      "name": "PriceOracleUpdated",
      "type": "event"
    },
    {
      "anonymous": false,
      "inputs": [
        {
          "indexed": false,
          "internalType": "bytes32",
          "name": "id",
          "type": "bytes32"
        },
        {
          "indexed": true,
          "internalType": "address",
          "name": "newAddress",
          "type": "address"
        }
      ],
      "name": "ProxyCreated",
      "type": "event"
    },
    {
      "inputs": [
        {
          "internalType": "bytes32",
          "name": "id",
          "type": "bytes32"
        }
      ],
      "name": "getAddress",
      "outputs": [
        {
          "internalType": "address",
          "name": "",
          "type": "address"
        }
      ],
      "stateMutability": "view",
      "type": "function"
    },
    {
      "inputs": [],
      "name": "getEmergencyAdmin",
      "outputs": [
        {
          "internalType": "address",
          "name": "",
          "type": "address"
        }
      ],
      "stateMutability": "view",
      "type": "function"
    },
    {
      "inputs": [],
      "name": "getLendingPool",
      "outputs": [
        {
          "internalType": "address",
          "name": "",
          "type": "address"
        }
      ],
      "stateMutability": "view",
      "type": "function"
    },
    {
      "inputs": [],
      "name": "getLendingPoolCollateralManager",
      "outputs": [
        {
          "internalType": "address",
          "name": "",
          "type": "address"
        }
      ],
      "stateMutability": "view",
      "type": "function"
    },
    {
      "inputs": [],
      "name": "getLendingPoolConfigurator",
      "outputs": [
        {
          "internalType": "address",
          "name": "",
          "type": "address"
        }
      ],
      "stateMutability": "view",
      "type": "function"
    },
    {
      "inputs": [],
      "name": "getLendingRateOracle",
      "outputs": [
        {
          "internalType": "address",
          "name": "",
          "type": "address"
        }
      ],
      "stateMutability": "view",
      "type": "function"
    },
    {
      "inputs": [],
      "name": "getMarketId",
      "outputs": [
        {
          "internalType": "string",
          "name": "",
          "type": "string"
        }
      ],
      "stateMutability": "view",
      "type": "function"
    },
    {
      "inputs": [],
      "name": "getPoolAdmin",
      "outputs": [
        {
          "internalType": "address",
          "name": "",
          "type": "address"
        }
      ],
      "stateMutability": "view",
      "type": "function"
    },
    {
      "inputs": [],
      "name": "getPriceOracle",
      "outputs": [
        {
          "internalType": "address",
          "name": "",
          "type": "address"
        }
      ],
      "stateMutability": "view",
      "type": "function"
    },
    {
      "inputs": [
        {
          "internalType": "bytes32",
          "name": "id",
          "type": "bytes32"
        },
        {
          "internalType": "address",
          "name": "newAddress",
          "type": "address"
        }
      ],
      "name": "setAddress",
      "outputs": [],
      "stateMutability": "nonpayable",
      "type": "function"
    },
    {
      "inputs": [
        {
          "internalType": "bytes32",
          "name": "id",
          "type": "bytes32"
        },
        {
          "internalType": "address",
          "name": "impl",
          "type": "address"
        }
      ],
      "name": "setAddressAsProxy",
      "outputs": [],
      "stateMutability": "nonpayable",
      "type": "function"
    },
    {
      "inputs": [
        {
          "internalType": "address",
          "name": "admin",
          "type": "address"
        }
      ],
      "name": "setEmergencyAdmin",
      "outputs": [],
      "stateMutability": "nonpayable",
      "type": "function"
    },
    {
      "inputs": [
        {
          "internalType": "address",
          "name": "manager",
          "type": "address"
        }
      ],
      "name": "setLendingPoolCollateralManager",
      "outputs": [],
      "stateMutability": "nonpayable",
      "type": "function"
    },
    {
      "inputs": [
        {
          "internalType": "address",
          "name": "configurator",
          "type": "address"
        }
      ],
      "name": "setLendingPoolConfiguratorImpl",
      "outputs": [],
      "stateMutability": "nonpayable",
      "type": "function"
    },
    {
      "inputs": [
        {
          "internalType": "address",
          "name": "pool",
          "type": "address"
        }
      ],
      "name": "setLendingPoolImpl",
      "outputs": [],
      "stateMutability": "nonpayable",
      "type": "function"
    },
    {
      "inputs": [
        {
          "internalType": "address",
          "name": "lendingRateOracle",
          "type": "address"
        }
      ],
      "name": "setLendingRateOracle",
      "outputs": [],
      "stateMutability": "nonpayable",
      "type": "function"
    },
    {
      "inputs": [
        {
          "internalType": "string",
          "name": "marketId",
          "type": "string"
        }
      ],
      "name": "setMarketId",
      "outputs": [],
      "stateMutability": "nonpayable",
      "type": "function"
    },
    {
      "inputs": [
        {
          "internalType": "address",
          "name": "admin",
          "type": "address"
        }
      ],
      "name": "setPoolAdmin",
      "outputs": [],
      "stateMutability": "nonpayable",
      "type": "function"
    },
    {
      "inputs": [
        {
          "internalType": "address",
          "name": "priceOracle",
          "type": "address"
        }
      ],
      "name": "setPriceOracle",
      "outputs": [],
      "stateMutability": "nonpayable",
      "type": "function"
    }
  ],
  "bytecode": "0x608060405234801561001057600080fd5b50604051610f4b380380610f4b83398181016040528101906100329190610120565b806000806101000a81548173ffffffffffffffffffffffffffffffffffffffff021916908373ffffffffffffffffffffffffffffffffffffffff1602179055506040518060400160405280600b81526020017f4d4f434b5f4d41524b4554000000000000000000000000000000000000000000815250600190816100b6919061039d565b505061046f565b600080fd5b600073ffffffffffffffffffffffffffffffffffffffff82169050919050565b60006100ed826100c2565b9050919050565b6100fd816100e2565b811461010857600080fd5b50565b60008151905061011a816100f4565b92915050565b600060208284031215610136576101356100bd565b5b60006101448482850161010b565b91505092915050565b600081519050919050565b7f4e487b7100000000000000000000000000000000000000000000000000000000600052604160045260246000fd5b7f4e487b7100000000000000000000000000000000000000000000000000000000600052602260045260246000fd5b600060028204905060018216806101ce57607f821691505b6020821081036101e1576101e0610187565b5b50919050565b60008190508160005260206000209050919050565b60006020601f8301049050919050565b600082821b905092915050565b6000600883026102497fffffffffffffffffffffffffffffffffffffffffffffffffffffffffffffffff8261020c565b610253868361020c565b95508019841693508086168417925050509392505050565b6000819050919050565b6000819050919050565b600061029a6102956102908461026b565b610275565b61026b565b9050919050565b6000819050919050565b6102b48361027f565b6102c86102c0826102a1565b848454610219565b825550505050565b600090565b6102dd6102d0565b6102e88184846102ab565b505050565b5b8181101561030c576103016000826102d5565b6001810190506102ee565b5050565b601f82111561035157610322816101e7565b61032b846101fc565b8101602085101561033a578190505b61034e610346856101fc565b8301826102ed565b50505b505050565b600082821c905092915050565b600061037460001984600802610356565b1980831691505092915050565b600061038d8383610363565b9150826002028217905092915050565b6103a68261014d565b67ffffffffffffffff8111156103bf576103be610158565b5b6103c982546101b6565b6103d4828285610310565b600060209050601f83116001811461040757600084156103f5578287015190505b6103ff8582610381565b865550610467565b601f198416610415866101e7565b60005b8281101561043d57848901518255600182019150602085019450602081019050610418565b8683101561045a5784890151610456601f891682610363565b8355505b6001600288020188555050505b505050505050565b610acd8061047e6000396000f3fe608060405234801561001057600080fd5b50600436106101215760003560e01c80635dcc528c116100ad578063c12542df11610071578063c12542df146102ce578063ca446dd9146102ea578063ddcaa9ea14610306578063f67b184714610324578063fca513a81461034057610121565b80635dcc528c1461023c578063712d917114610258578063820d12741461027657806385c858b114610292578063aecda378146102b057610121565b80633618abba116100f45780633618abba146101ac578063398e5553146101ca578063530e784f146101e6578063568ef470146102025780635aef021f1461022057610121565b80630261bf8b1461012657806321f8a72114610144578063283d62ad1461017457806335da339414610190575b600080fd5b61012e61035e565b60405161013b91906104f2565b60405180910390f35b61015e6004803603810190610159919061054d565b610387565b60405161016b91906104f2565b60405180910390f35b61018e600480360381019061018991906105a6565b61038e565b005b6101aa60048036038101906101a591906105a6565b610391565b005b6101b4610394565b6040516101c191906104f2565b60405180910390f35b6101e460048036038101906101df91906105a6565b610399565b005b61020060048036038101906101fb91906105a6565b61039c565b005b61020a61039f565b6040516102179190610663565b60405180910390f35b61023a600480360381019061023591906105a6565b610431565b005b61025660048036038101906102519190610685565b610474565b005b610260610478565b60405161026d91906104f2565b60405180910390f35b610290600480360381019061028b91906105a6565b61047d565b005b61029a610480565b6040516102a791906104f2565b60405180910390f35b6102b8610485565b6040516102c591906104f2565b60405180910390f35b6102e860048036038101906102e391906105a6565b61048a565b005b61030460048036038101906102ff9190610685565b61048d565b005b61030e610491565b60405161031b91906104f2565b60405180910390f35b61033e6004803603810190610339919061072a565b610496565b005b6103486104ac565b60405161035591906104f2565b60405180910390f35b60008060009054906101000a900473ffffffffffffffffffffffffffffffffffffffff16905090565b6000919050565b50565b50565b600090565b50565b50565b6060600180546103ae906107a6565b80601f01602080910402602001604051908101604052809291908181526020018280546103da906107a6565b80156104275780601f106103fc57610100808354040283529160200191610427565b820191906000526020600020905b81548152906001019060200180831161040a57829003601f168201915b5050505050905090565b806000806101000a81548173ffffffffffffffffffffffffffffffffffffffff021916908373ffffffffffffffffffffffffffffffffffffffff16021790555050565b5050565b600090565b50565b600090565b600090565b50565b5050565b600090565b8181600191826104a79291906109c7565b505050565b600090565b600073ffffffffffffffffffffffffffffffffffffffff82169050919050565b60006104dc826104b1565b9050919050565b6104ec816104d1565b82525050565b600060208201905061050760008301846104e3565b92915050565b600080fd5b600080fd5b6000819050919050565b61052a81610517565b811461053557600080fd5b50565b60008135905061054781610521565b92915050565b6000602082840312156105635761056261050d565b5b600061057184828501610538565b91505092915050565b610583816104d1565b811461058e57600080fd5b50565b6000813590506105a08161057a565b92915050565b6000602082840312156105bc576105bb61050d565b5b60006105ca84828501610591565b91505092915050565b600081519050919050565b600082825260208201905092915050565b60005b8381101561060d5780820151818401526020810190506105f2565b60008484015250505050565b6000601f19601f8301169050919050565b6000610635826105d3565b61063f81856105de565b935061064f8185602086016105ef565b61065881610619565b840191505092915050565b6000602082019050818103600083015261067d818461062a565b905092915050565b6000806040838503121561069c5761069b61050d565b5b60006106aa85828601610538565b92505060206106bb85828601610591565b9150509250929050565b600080fd5b600080fd5b600080fd5b60008083601f8401126106ea576106e96106c5565b5b8235905067ffffffffffffffff811115610707576107066106ca565b5b602083019150836001820283011115610723576107226106cf565b5b9250929050565b600080602083850312156107415761074061050d565b5b600083013567ffffffffffffffff81111561075f5761075e610512565b5b61076b858286016106d4565b92509250509250929050565b7f4e487b7100000000000000000000000000000000000000000000000000000000600052602260045260246000fd5b600060028204905060018216806107be57607f821691505b6020821081036107d1576107d0610777565b5b50919050565b600082905092915050565b7f4e487b7100000000000000000000000000000000000000000000000000000000600052604160045260246000fd5b60008190508160005260206000209050919050565b60006020601f8301049050919050565b600082821b905092915050565b6000600883026108737fffffffffffffffffffffffffffffffffffffffffffffffffffffffffffffffff82610836565b61087d8683610836565b95508019841693508086168417925050509392505050565b6000819050919050565b6000819050919050565b60006108c46108bf6108ba84610895565b61089f565b610895565b9050919050565b6000819050919050565b6108de836108a9565b6108f26108ea826108cb565b848454610843565b825550505050565b600090565b6109076108fa565b6109128184846108d5565b505050565b5b818110156109365761092b6000826108ff565b600181019050610918565b5050565b601f82111561097b5761094c81610811565b61095584610826565b81016020851015610964578190505b61097861097085610826565b830182610917565b50505b505050565b600082821c905092915050565b600061099e60001984600802610980565b1980831691505092915050565b60006109b7838361098d565b9150826002028217905092915050565b6109d183836107d7565b67ffffffffffffffff8111156109ea576109e96107e2565b5b6109f482546107a6565b6109ff82828561093a565b6000601f831160018114610a2e5760008415610a1c578287013590505b610a2685826109ab565b865550610a8e565b601f198416610a3c86610811565b60005b82811015610a6457848901358255600182019150602085019450602081019050610a3f565b86831015610a815784890135610a7d601f89168261098d565b8355505b6001600288020188555050505b5050505050505056fea26469706673582212203fe3883a92cadaa347f4062f7a40506c2564edba4311cf39d0316645a533737264736f6c634300081c0033",
  "linkReferences": {},
  "deployedLinkReferences": {}
}