{
  "_format": "hh-sol-artifact-1",
  "contractName": "MockLendingPoolAddressesProvider",
  "sourceName": "contracts/mocks/MockLendingPoolAddressesProvider.sol",
  "abi": [
    {
      "inputs": [
        {
          "internalType": "address",
          "name": "lendingPool",
          "type": "address"
        }
      ],
      "stateMutability": "nonpayable",
      "type": "constructor"
    },
    {
      "anonymous": false,
      "inputs": [
        {
          "indexed": false,
          "internalType": "bytes32",
          "name": "id",
          "type": "bytes32"
        },
        {
          "indexed": true,
          "internalType": "address",
          "name": "newAddress",
          "type": "address"
        },
        {
          "indexed": false,
          "internalType": "bool",
          "name": "hasProxy",
          "type": "bool"
        }
      ],
      "name": "AddressSet",
      "type": "event"
    },
    {
      "anonymous": false,
      "inputs": [
        {
          "indexed": true,
          "internalType": "address",
          "name": "newAddress",
          "type": "address"
        }
      ],
      "name": "ConfigurationAdminUpdated",
      "type": "event"
    },
    {
      "anonymous": false,
      "inputs": [
        {
          "indexed": true,
          "internalType": "address",
          "name": "newAddress",
          "type": "address"
        }
      ],
      "name": "EmergencyAdminUpdated",
      "type": "event"
    },
    {
      "anonymous": false,
      "inputs": [
        {
          "indexed": true,
          "internalType": "address",
          "name": "newAddress",
          "type": "address"
        }
      ],
      "name": "LendingPoolCollateralManagerUpdated",
      "type": "event"
    },
    {
      "anonymous": false,
      "inputs": [
        {
          "indexed": true,
          "internalType": "address",
          "name": "newAddress",
          "type": "address"
        }
      ],
      "name": "LendingPoolConfiguratorUpdated",
      "type": "event"
    },
    {
      "anonymous": false,
      "inputs": [
        {
          "indexed": true,
          "internalType": "address",
          "name": "newAddress",
          "type": "address"
        }
      ],
      "name": "LendingPoolUpdated",
      "type": "event"
    },
    {
      "anonymous": false,
      "inputs": [
        {
          "indexed": true,
          "internalType": "address",
          "name": "newAddress",
          "type": "address"
        }
      ],
      "name": "LendingRateOracleUpdated",
      "type": "event"
    },
    {
      "anonymous": false,
      "inputs": [
        {
          "indexed": false,
          "internalType": "string",
          "name": "newMarketId",
          "type": "string"
        }
      ],
      "name": "MarketIdSet",
      "type": "event"
    },
    {
      "anonymous": false,
      "inputs": [
        {
          "indexed": true,
          "internalType": "address",
          "name": "newAddress",
          "type": "address"
        }
      ],
      "name": "PriceOracleUpdated",
      "type": "event"
    },
    {
      "anonymous": false,
      "inputs": [
        {
          "indexed": false,
          "internalType": "bytes32",
          "name": "id",
          "type": "bytes32"
        },
        {
          "indexed": true,
          "internalType": "address",
          "name": "newAddress",
          "type": "address"
        }
      ],
      "name": "ProxyCreated",
      "type": "event"
    },
    {
      "inputs": [
        {
          "internalType": "bytes32",
          "name": "id",
          "type": "bytes32"
        }
      ],
      "name": "getAddress",
      "outputs": [
        {
          "internalType": "address",
          "name": "",
          "type": "address"
        }
      ],
      "stateMutability": "view",
      "type": "function"
    },
    {
      "inputs": [],
      "name": "getEmergencyAdmin",
      "outputs": [
        {
          "internalType": "address",
          "name": "",
          "type": "address"
        }
      ],
      "stateMutability": "view",
      "type": "function"
    },
    {
      "inputs": [],
      "name": "getLendingPool",
      "outputs": [
        {
          "internalType": "address",
          "name": "",
          "type": "address"
        }
      ],
      "stateMutability": "view",
      "type": "function"
    },
    {
      "inputs": [],
      "name": "getLendingPoolCollateralManager",
      "outputs": [
        {
          "internalType": "address",
          "name": "",
          "type": "address"
        }
      ],
      "stateMutability": "view",
      "type": "function"
    },
    {
      "inputs": [],
      "name": "getLendingPoolConfigurator",
      "outputs": [
        {
          "internalType": "address",
          "name": "",
          "type": "address"
        }
      ],
      "stateMutability": "view",
      "type": "function"
    },
    {
      "inputs": [],
      "name": "getLendingRateOracle",
      "outputs": [
        {
          "internalType": "address",
          "name": "",
          "type": "address"
        }
      ],
      "stateMutability": "view",
      "type": "function"
    },
    {
      "inputs": [],
      "name": "getMarketId",
      "outputs": [
        {
          "internalType": "string",
          "name": "",
          "type": "string"
        }
      ],
      "stateMutability": "view",
      "type": "function"
    },
    {
      "inputs": [],
      "name": "getPoolAdmin",
      "outputs": [
        {
          "internalType": "address",
          "name": "",
          "type": "address"
        }
      ],
      "stateMutability": "view",
      "type": "function"
    },
    {
      "inputs": [],
      "name": "getPriceOracle",
      "outputs": [
        {
          "internalType": "address",
          "name": "",
          "type": "address"
        }
      ],
      "stateMutability": "view",
      "type": "function"
    },
    {
      "inputs": [
        {
          "internalType": "bytes32",
          "name": "id",
          "type": "bytes32"
        },
        {
          "internalType": "address",
          "name": "newAddress",
          "type": "address"
        }
      ],
      "name": "setAddress",
      "outputs": [],
      "stateMutability": "nonpayable",
      "type": "function"
    },
    {
      "inputs": [
        {
          "internalType": "bytes32",
          "name": "id",
          "type": "bytes32"
        },
        {
          "internalType": "address",
          "name": "impl",
          "type": "address"
        }
      ],
      "name": "setAddressAsProxy",
      "outputs": [],
      "stateMutability": "nonpayable",
      "type": "function"
    },
    {
      "inputs": [
        {
          "internalType": "address",
          "name": "admin",
          "type": "address"
        }
      ],
      "name": "setEmergencyAdmin",
      "outputs": [],
      "stateMutability": "nonpayable",
      "type": "function"
    },
    {
      "inputs": [
        {
          "internalType": "address",
          "name": "manager",
          "type": "address"
        }
      ],
      "name": "setLendingPoolCollateralManager",
      "outputs": [],
      "stateMutability": "nonpayable",
      "type": "function"
    },
    {
      "inputs": [
        {
          "internalType": "address",
          "name": "configurator",
          "type": "address"
        }
      ],
      "name": "setLendingPoolConfiguratorImpl",
      "outputs": [],
      "stateMutability": "nonpayable",
      "type": "function"
    },
    {
      "inputs": [
        {
          "internalType": "address",
          "name": "pool",
          "type": "address"
        }
      ],
      "name": "setLendingPoolImpl",
      "outputs": [],
      "stateMutability": "nonpayable",
      "type": "function"
    },
    {
      "inputs": [
        {
          "internalType": "address",
          "name": "lendingRateOracle",
          "type": "address"
        }
      ],
      "name": "setLendingRateOracle",
      "outputs": [],
      "stateMutability": "nonpayable",
      "type": "function"
    },
    {
      "inputs": [
        {
          "internalType": "string",
          "name": "marketId",
          "type": "string"
        }
      ],
      "name": "setMarketId",
      "outputs": [],
      "stateMutability": "nonpayable",
      "type": "function"
    },
    {
      "inputs": [
        {
          "internalType": "address",
          "name": "admin",
          "type": "address"
        }
      ],
      "name": "setPoolAdmin",
      "outputs": [],
      "stateMutability": "nonpayable",
      "type": "function"
    },
    {
      "inputs": [
        {
          "internalType": "address",
          "name": "priceOracle",
          "type": "address"
        }
      ],
      "name": "setPriceOracle",
      "outputs": [],
      "stateMutability": "nonpayable",
      "type": "function"
    }
  ],
  "bytecode": "0x608060405234801561001057600080fd5b5060405161078138038061078183398101604081905261002f91610080565b600080546001600160a01b0319166001600160a01b03831617905560408051808201909152600b81526a1353d0d2d7d3505492d15560aa1b6020820152600190610079908261014f565b505061020d565b60006020828403121561009257600080fd5b81516001600160a01b03811681146100a957600080fd5b9392505050565b634e487b7160e01b600052604160045260246000fd5b600181811c908216806100da57607f821691505b6020821081036100fa57634e487b7160e01b600052602260045260246000fd5b50919050565b601f82111561014a57806000526020600020601f840160051c810160208510156101275750805b601f840160051c820191505b818110156101475760008155600101610133565b50505b505050565b81516001600160401b03811115610168576101686100b0565b61017c8161017684546100c6565b84610100565b6020601f8211600181146101b057600083156101985750848201515b600019600385901b1c1916600184901b178455610147565b600084815260208120601f198516915b828110156101e057878501518255602094850194600190920191016101c0565b50848210156101fe5786840151600019600387901b60f8161c191681555b50505050600190811b01905550565b6105658061021c6000396000f3fe608060405234801561001057600080fd5b50600436106101215760003560e01c80635dcc528c116100ad578063c12542df11610071578063c12542df14610164578063ca446dd9146101c3578063ddcaa9ea14610177578063f67b1847146101d5578063fca513a81461017757600080fd5b80635dcc528c146101c3578063712d917114610177578063820d12741461016457806385c858b114610177578063aecda3781461017757600080fd5b80633618abba116100f45780633618abba14610177578063398e555314610164578063530e784f14610164578063568ef4701461017e5780635aef021f1461019357600080fd5b80630261bf8b1461012657806321f8a72114610150578063283d62ad1461016457806335da339414610164575b600080fd5b6000546001600160a01b03165b6040516001600160a01b0390911681526020015b60405180910390f35b61013361015e36600461028c565b50600090565b6101756101723660046102c1565b50565b005b6000610133565b6101866101e8565b60405161014791906102e3565b6101756101a13660046102c1565b600080546001600160a01b0319166001600160a01b0392909216919091179055565b6101756101d1366004610331565b5050565b6101756101e336600461035d565b61027a565b6060600180546101f7906103d1565b80601f0160208091040260200160405190810160405280929190818152602001828054610223906103d1565b80156102705780601f1061024557610100808354040283529160200191610270565b820191906000526020600020905b81548152906001019060200180831161025357829003601f168201915b5050505050905090565b600161028782848361046f565b505050565b60006020828403121561029e57600080fd5b5035919050565b80356001600160a01b03811681146102bc57600080fd5b919050565b6000602082840312156102d357600080fd5b6102dc826102a5565b9392505050565b602081526000825180602084015260005b8181101561031157602081860181015160408684010152016102f4565b506000604082850101526040601f19601f83011684010191505092915050565b6000806040838503121561034457600080fd5b82359150610354602084016102a5565b90509250929050565b6000806020838503121561037057600080fd5b823567ffffffffffffffff81111561038757600080fd5b8301601f8101851361039857600080fd5b803567ffffffffffffffff8111156103af57600080fd5b8560208284010111156103c157600080fd5b6020919091019590945092505050565b600181811c908216806103e557607f821691505b60208210810361040557634e487b7160e01b600052602260045260246000fd5b50919050565b634e487b7160e01b600052604160045260246000fd5b601f82111561028757806000526020600020601f840160051c810160208510156104485750805b601f840160051c820191505b818110156104685760008155600101610454565b5050505050565b67ffffffffffffffff8311156104875761048761040b565b61049b8361049583546103d1565b83610421565b6000601f8411600181146104cf57600085156104b75750838201355b600019600387901b1c1916600186901b178355610468565b600083815260209020601f19861690835b8281101561050057868501358255602094850194600190920191016104e0565b508682101561051d5760001960f88860031b161c19848701351681555b505060018560011b018355505050505056fea264697066735822122071df3cfcf34a17dd2c92080dfc4b62bab3d7f9de6e3375e4bbae29dee52e261564736f6c634300081c0033",
  "linkReferences": {},
  "deployedLinkReferences": {}
}