{
  "_format": "hh-sol-artifact-1",
  "contractName": "UniswapV4FlashArbitrage",
  "sourceName": "contracts/flashloan/UniswapV4FlashArbitrage.sol",
  "abi": [
    {
      "inputs": [
        {
          "internalType": "address",
          "name": "_poolManager",
          "type": "address"
        },
        {
          "internalType": "address",
          "name": "_sushiswapRouter",
          "type": "address"
        },
        {
          "internalType": "uint256",
          "name": "_minimumProfitThreshold",
          "type": "uint256"
        }
      ],
      "stateMutability": "nonpayable",
      "type": "constructor"
    },
    {
      "inputs": [],
      "name": "InsufficientProfit",
      "type": "error"
    },
    {
      "inputs": [
        {
          "internalType": "address",
          "name": "owner",
          "type": "address"
        }
      ],
      "name": "OwnableInvalidOwner",
      "type": "error"
    },
    {
      "inputs": [
        {
          "internalType": "address",
          "name": "account",
          "type": "address"
        }
      ],
      "name": "OwnableUnauthorizedAccount",
      "type": "error"
    },
    {
      "inputs": [],
      "name": "ReentrancyGuardReentrantCall",
      "type": "error"
    },
    {
      "anonymous": false,
      "inputs": [
        {
          "indexed": true,
          "internalType": "address",
          "name": "token0",
          "type": "address"
        },
        {
          "indexed": true,
          "internalType": "address",
          "name": "token1",
          "type": "address"
        },
        {
          "indexed": false,
          "internalType": "uint256",
          "name": "profit",
          "type": "uint256"
        }
      ],
      "name": "ArbitrageExecuted",
      "type": "event"
    },
    {
      "anonymous": false,
      "inputs": [
        {
          "indexed": false,
          "internalType": "string",
          "name": "message",
          "type": "string"
        },
        {
          "indexed": false,
          "internalType": "uint256",
          "name": "value",
          "type": "uint256"
        }
      ],
      "name": "Debug",
      "type": "event"
    },
    {
      "anonymous": false,
      "inputs": [
        {
          "indexed": false,
          "internalType": "string",
          "name": "message",
          "type": "string"
        },
        {
          "indexed": false,
          "internalType": "address",
          "name": "addr",
          "type": "address"
        }
      ],
      "name": "DebugAddr",
      "type": "event"
    },
    {
      "anonymous": false,
      "inputs": [
        {
          "indexed": false,
          "internalType": "string",
          "name": "message",
          "type": "string"
        },
        {
          "indexed": false,
          "internalType": "address",
          "name": "token",
          "type": "address"
        },
        {
          "indexed": false,
          "internalType": "uint256",
          "name": "balance",
          "type": "uint256"
        }
      ],
      "name": "DebugBalance",
      "type": "event"
    },
    {
      "anonymous": false,
      "inputs": [
        {
          "indexed": true,
          "internalType": "address",
          "name": "token0",
          "type": "address"
        },
        {
          "indexed": true,
          "internalType": "address",
          "name": "token1",
          "type": "address"
        },
        {
          "indexed": false,
          "internalType": "uint256",
          "name": "amount0",
          "type": "uint256"
        },
        {
          "indexed": false,
          "internalType": "uint256",
          "name": "amount1",
          "type": "uint256"
        }
      ],
      "name": "FlashOperationStarted",
      "type": "event"
    },
    {
      "anonymous": false,
      "inputs": [
        {
          "indexed": true,
          "internalType": "address",
          "name": "previousOwner",
          "type": "address"
        },
        {
          "indexed": true,
          "internalType": "address",
          "name": "newOwner",
          "type": "address"
        }
      ],
      "name": "OwnershipTransferred",
      "type": "event"
    },
    {
      "inputs": [
        {
          "internalType": "address",
          "name": "token",
          "type": "address"
        },
        {
          "internalType": "uint256",
          "name": "amount",
          "type": "uint256"
        },
        {
          "internalType": "address",
          "name": "recipient",
          "type": "address"
        }
      ],
      "name": "emergencyWithdraw",
      "outputs": [],
      "stateMutability": "nonpayable",
      "type": "function"
    },
    {
      "inputs": [
        {
          "internalType": "address",
          "name": "token0",
          "type": "address"
        },
        {
          "internalType": "address",
          "name": "token1",
          "type": "address"
        },
        {
          "internalType": "uint256",
          "name": "amount0",
          "type": "uint256"
        },
        {
          "internalType": "uint256",
          "name": "amount1",
          "type": "uint256"
        },
        {
          "internalType": "bytes",
          "name": "hookData",
          "type": "bytes"
        }
      ],
      "name": "executeArbitrage",
      "outputs": [],
      "stateMutability": "nonpayable",
      "type": "function"
    },
    {
      "inputs": [
        {
          "internalType": "address",
          "name": "token0",
          "type": "address"
        },
        {
          "internalType": "address",
          "name": "token1",
          "type": "address"
        },
        {
          "internalType": "uint256",
          "name": "amount0",
          "type": "uint256"
        },
        {
          "internalType": "uint256",
          "name": "amount1",
          "type": "uint256"
        },
        {
          "internalType": "bytes",
          "name": "data",
          "type": "bytes"
        }
      ],
      "name": "flashCallback",
      "outputs": [
        {
          "internalType": "bytes4",
          "name": "",
          "type": "bytes4"
        }
      ],
      "stateMutability": "nonpayable",
      "type": "function"
    },
    {
      "inputs": [],
      "name": "minimumProfitThreshold",
      "outputs": [
        {
          "internalType": "uint256",
          "name": "",
          "type": "uint256"
        }
      ],
      "stateMutability": "view",
      "type": "function"
    },
    {
      "inputs": [],
      "name": "owner",
      "outputs": [
        {
          "internalType": "address",
          "name": "",
          "type": "address"
        }
      ],
      "stateMutability": "view",
      "type": "function"
    },
    {
      "inputs": [],
      "name": "poolManager",
      "outputs": [
        {
          "internalType": "contract IUniswapV4PoolManager",
          "name": "",
          "type": "address"
        }
      ],
      "stateMutability": "view",
      "type": "function"
    },
    {
      "inputs": [],
      "name": "renounceOwnership",
      "outputs": [],
      "stateMutability": "nonpayable",
      "type": "function"
    },
    {
      "inputs": [
        {
          "internalType": "uint256",
          "name": "newThreshold",
          "type": "uint256"
        }
      ],
      "name": "setMinimumProfitThreshold",
      "outputs": [],
      "stateMutability": "nonpayable",
      "type": "function"
    },
    {
      "inputs": [],
      "name": "sushiswapRouter",
      "outputs": [
        {
          "internalType": "address",
          "name": "",
          "type": "address"
        }
      ],
      "stateMutability": "view",
      "type": "function"
    },
    {
      "inputs": [
        {
          "internalType": "address",
          "name": "newOwner",
          "type": "address"
        }
      ],
      "name": "transferOwnership",
      "outputs": [],
      "stateMutability": "nonpayable",
      "type": "function"
    }
  ],
  "bytecode": "0x60c060405234801561001057600080fd5b506040516131ba3803806131ba83398101604081905261002f91610197565b338061005657604051631e4fbdf760e01b8152600060048201526024015b60405180910390fd5b61005f8161012b565b50600180556001600160a01b0383166100ba5760405162461bcd60e51b815260206004820152601460248201527f496e76616c696420706f6f6c206d616e61676572000000000000000000000000604482015260640161004d565b6001600160a01b0382166101105760405162461bcd60e51b815260206004820152601860248201527f496e76616c69642053757368697377617020726f757465720000000000000000604482015260640161004d565b6001600160a01b03928316608052911660a0526002556101d3565b600080546001600160a01b038381166001600160a01b0319831681178455604051919092169283917f8be0079c531659141344cd1fd0a4f28419497f9722a3daafe3b4186f6b6457e09190a35050565b80516001600160a01b038116811461019257600080fd5b919050565b6000806000606084860312156101ac57600080fd5b6101b58461017b565b92506101c36020850161017b565b9150604084015190509250925092565b60805160a051612f6061025a6000396000818161017f01528181610538015281816105be015281816121750152818161243b0152612587015260008181610145015281816101c10152818161042c015281816104b201528181610a5101528181610c36015281816111680152818161162e01528181611dde01526120230152612f606000f3fe608060405234801561001057600080fd5b506004361061009e5760003560e01c8063b5ffad4411610066578063b5ffad441461012d578063dc4c90d314610140578063e1ab1b1314610167578063e9240c2d1461017a578063f2fde38b146101a157600080fd5b80630a967eb2146100a357806351c469e2146100bf578063551512de146100eb578063715018a6146101005780638da5cb5b14610108575b600080fd5b6100ac60025481565b6040519081526020015b60405180910390f35b6100d26100cd366004612808565b6101b4565b6040516001600160e01b031990911681526020016100b6565b6100fe6100f93660046128b5565b610eda565b005b6100fe610ff3565b6000546001600160a01b03165b6040516001600160a01b0390911681526020016100b6565b6100fe61013b366004612808565b611007565b6101157f000000000000000000000000000000000000000000000000000000000000000081565b6100fe6101753660046128f7565b611224565b6101157f000000000000000000000000000000000000000000000000000000000000000081565b6100fe6101af366004612910565b611231565b6000336001600160a01b037f0000000000000000000000000000000000000000000000000000000000000000161461022b5760405162461bcd60e51b8152602060048201526015602482015274556e617574686f72697a65642063616c6c6261636b60581b60448201526064015b60405180910390fd5b60408051818152600d818301526c43616c6c6261636b2066726f6d60981b606082015233602082015290517f619c62393708f63887b9ff82e481dbe31792a4445225c39a9d31d2144bccafb49181900360800190a16040516370a0823160e01b8152306004820152600080516020612f0b8339815191529088906001600160a01b038216906370a0823190602401602060405180830381865afa1580156102d6573d6000803e3d6000fd5b505050506040513d601f19601f820116820180604052508101906102fa9190612934565b60408051606080825260169082015275496e697469616c20746f6b656e302062616c616e636560501b60808201526001600160a01b03909316602084015282015260a00160405180910390a16040516370a0823160e01b8152306004820152600080516020612f0b8339815191529087906001600160a01b038216906370a0823190602401602060405180830381865afa15801561039c573d6000803e3d6000fd5b505050506040513d601f19601f820116820180604052508101906103c09190612934565b60408051606080825260169082015275496e697469616c20746f6b656e312062616c616e636560501b60808201526001600160a01b03909316602084015282015260a00160405180910390a160008061041b84860186612a3b565b909250905086156104a657610451897f00000000000000000000000000000000000000000000000000000000000000008961126f565b60408051818152601f818301527f417070726f76656420746f6b656e3020666f7220506f6f6c4d616e61676572006060820152602081018990529051600080516020612eeb8339815191529181900360800190a15b851561052c576104d7887f00000000000000000000000000000000000000000000000000000000000000008861126f565b60408051818152601f818301527f417070726f76656420746f6b656e3120666f7220506f6f6c4d616e61676572006060820152602081018890529051600080516020612eeb8339815191529181900360800190a15b86156105b25761055d897f00000000000000000000000000000000000000000000000000000000000000008961126f565b60408051818152601d818301527f417070726f76656420746f6b656e3020666f72205375736869737761700000006060820152602081018990529051600080516020612eeb8339815191529181900360800190a15b8515610638576105e3887f00000000000000000000000000000000000000000000000000000000000000008861126f565b60408051818152601d818301527f417070726f76656420746f6b656e3120666f72205375736869737761700000006060820152602081018890529051600080516020612eeb8339815191529181900360800190a15b60008260800151156106b457604080518181526017818301527f457865637574696e6720556e69737761702066697273740000000000000000006060820152600060208201529051600080516020612eeb8339815191529181900360800190a16106ad836000015184602001518a8a866113e1565b9050610720565b604080518181526019818301527f457865637574696e6720537573686973776170206669727374000000000000006060820152600060208201529051600080516020612eeb8339815191529181900360800190a161071d836000015184602001518a8a866119a2565b90505b6040805181815260118183015270141c9bd99a5d0818d85b18dd5b185d1959607a1b6060820152602081018390529051600080516020612eeb8339815191529181900360800190a160025481101561078b57604051632723fc7560e11b815260040160405180910390fd5b886001600160a01b03168a6001600160a01b03167f546205492ce144edebd2cc39035c50dbd9aebfec90cbcae9c9ae2914d1e130f7836040516107d091815260200190565b60405180910390a36040516370a0823160e01b8152306004820152600080516020612f0b833981519152908b906001600160a01b038216906370a0823190602401602060405180830381865afa15801561082e573d6000803e3d6000fd5b505050506040513d601f19601f820116820180604052508101906108529190612934565b6040805160608082526018908201527f5072652d726570617920746f6b656e302062616c616e6365000000000000000060808201526001600160a01b03909316602084015282015260a00160405180910390a16040516370a0823160e01b8152306004820152600080516020612f0b833981519152908a906001600160a01b038216906370a0823190602401602060405180830381865afa1580156108fb573d6000803e3d6000fd5b505050506040513d601f19601f8201168201806040525081019061091f9190612934565b6040805160608082526018908201527f5072652d726570617920746f6b656e312062616c616e6365000000000000000060808201526001600160a01b03909316602084015282015260a00160405180910390a18715610b57576040516370a0823160e01b815230600482015288906001600160a01b038c16906370a0823190602401602060405180830381865afa1580156109be573d6000803e3d6000fd5b505050506040513d601f19601f820116820180604052508101906109e29190612934565b1015610a3a5760405162461bcd60e51b815260206004820152602160248201527f496e73756666696369656e7420746f6b656e3020666f722072657061796d656e6044820152601d60fa1b6064820152608401610222565b60405163a9059cbb60e01b81526001600160a01b037f000000000000000000000000000000000000000000000000000000000000000081166004830152602482018a90528b169063a9059cbb906044016020604051808303816000875af1158015610aa9573d6000803e3d6000fd5b505050506040513d601f19601f82011682018060405250810190610acd9190612adf565b610b125760405162461bcd60e51b8152602060048201526016602482015275151bdad95b8c081d1c985b9cd9995c8819985a5b195960521b6044820152606401610222565b60408051818152600d818301526c052657061696420746f6b656e3609c1b6060820152602081018a90529051600080516020612eeb8339815191529181900360800190a15b8615610d3c576040516370a0823160e01b815230600482015287906001600160a01b038b16906370a0823190602401602060405180830381865afa158015610ba3573d6000803e3d6000fd5b505050506040513d601f19601f82011682018060405250810190610bc79190612934565b1015610c1f5760405162461bcd60e51b815260206004820152602160248201527f496e73756666696369656e7420746f6b656e3120666f722072657061796d656e6044820152601d60fa1b6064820152608401610222565b60405163a9059cbb60e01b81526001600160a01b037f000000000000000000000000000000000000000000000000000000000000000081166004830152602482018990528a169063a9059cbb906044016020604051808303816000875af1158015610c8e573d6000803e3d6000fd5b505050506040513d601f19601f82011682018060405250810190610cb29190612adf565b610cf75760405162461bcd60e51b8152602060048201526016602482015275151bdad95b8c481d1c985b9cd9995c8819985a5b195960521b6044820152606401610222565b60408051818152600d818301526c52657061696420746f6b656e3160981b6060820152602081018990529051600080516020612eeb8339815191529181900360800190a15b6040516370a0823160e01b8152306004820152600080516020612f0b833981519152908b906001600160a01b038216906370a0823190602401602060405180830381865afa158015610d92573d6000803e3d6000fd5b505050506040513d601f19601f82011682018060405250810190610db69190612934565b6040805160608082526014908201527346696e616c20746f6b656e302062616c616e636560601b60808201526001600160a01b03909316602084015282015260a00160405180910390a16040516370a0823160e01b8152306004820152600080516020612f0b833981519152908a906001600160a01b038216906370a0823190602401602060405180830381865afa158015610e56573d6000803e3d6000fd5b505050506040513d601f19601f82011682018060405250810190610e7a9190612934565b6040805160608082526014908201527346696e616c20746f6b656e312062616c616e636560601b60808201526001600160a01b03909316602084015282015260a00160405180910390a1506328e234f160e11b9998505050505050505050565b610ee2611f59565b610eea611f86565b6001600160a01b038116610f345760405162461bcd60e51b8152602060048201526011602482015270125b9d985b1a59081c9958da5c1a595b9d607a1b6044820152606401610222565b60405163a9059cbb60e01b81526001600160a01b0382811660048301526024820184905284169063a9059cbb906044016020604051808303816000875af1158015610f83573d6000803e3d6000fd5b505050506040513d601f19601f82011682018060405250810190610fa79190612adf565b610fe55760405162461bcd60e51b815260206004820152600f60248201526e151c985b9cd9995c8819985a5b1959608a1b6044820152606401610222565b610fee60018055565b505050565b610ffb611f59565b6110056000611fb0565b565b61100f611f59565b611017611f86565b6001600160a01b0386161580159061103757506001600160a01b03851615155b6110745760405162461bcd60e51b815260206004820152600e60248201526d496e76616c696420746f6b656e7360901b6044820152606401610222565b60008411806110835750600083115b6110c15760405162461bcd60e51b815260206004820152600f60248201526e496e76616c696420616d6f756e747360881b6044820152606401610222565b60006110cf87878787612000565b905060006040518060a00160405280896001600160a01b03168152602001886001600160a01b031681526020018781526020018681526020018315158152509050866001600160a01b0316886001600160a01b03167ff2e147821beb8fb704fb5792949feff8c547cfc1cdbabc9a0d11479c8d339489888860405161115e929190918252602082015260400190565b60405180910390a37f00000000000000000000000000000000000000000000000000000000000000006001600160a01b03166377991025308a8a8a8a878b8b6040516020016111af93929190612afc565b6040516020818303038152906040526040518763ffffffff1660e01b81526004016111df96959493929190612b6d565b600060405180830381600087803b1580156111f957600080fd5b505af115801561120d573d6000803e3d6000fd5b50505050505061121c60018055565b505050505050565b61122c611f59565b600255565b611239611f59565b6001600160a01b03811661126357604051631e4fbdf760e01b815260006004820152602401610222565b61126c81611fb0565b50565b60405163095ea7b360e01b81526001600160a01b0383811660048301526000602483015284169063095ea7b3906044016020604051808303816000875af11580156112be573d6000803e3d6000fd5b505050506040513d601f19601f820116820180604052508101906112e29190612adf565b61132e5760405162461bcd60e51b815260206004820152601860248201527f4661696c656420746f20636c65617220617070726f76616c00000000000000006044820152606401610222565b60405163095ea7b360e01b81526001600160a01b0383811660048301526024820183905284169063095ea7b3906044016020604051808303816000875af115801561137d573d6000803e3d6000fd5b505050506040513d601f19601f820116820180604052508101906113a19190612adf565b610fee5760405162461bcd60e51b81526020600482015260116024820152704661696c656420746f20617070726f766560781b6044820152606401610222565b6040516370a0823160e01b8152306004820152600090600080516020612f0b8339815191529087906001600160a01b038216906370a0823190602401602060405180830381865afa15801561143a573d6000803e3d6000fd5b505050506040513d601f19601f8201168201806040525081019061145e9190612934565b604080516060808252601a908201527f5072652d556e697377617020746f6b656e302062616c616e636500000000000060808201526001600160a01b03909316602084015282015260a00160405180910390a16040516370a0823160e01b8152306004820152600080516020612f0b8339815191529086906001600160a01b038216906370a0823190602401602060405180830381865afa158015611507573d6000803e3d6000fd5b505050506040513d601f19601f8201168201806040525081019061152b9190612934565b604080516060808252601a908201527f5072652d556e697377617020746f6b656e312062616c616e636500000000000060808201526001600160a01b03909316602084015282015260a00160405180910390a1600061158b87878561221f565b604080516060810182526001815260208101889052600081830152905191925090600080516020612eeb8339815191529061160c90889060408082526022908201527f457865637574696e6720556e69737761702073776170207769746820616d6f756060820152611b9d60f21b6080820152602081019190915260a00190565b60405180910390a1604051630f140bef60e11b81526000906001600160a01b037f00000000000000000000000000000000000000000000000000000000000000001690631e2817de906116659086908690600401612c32565b60408051808303816000875af1158015611683573d6000803e3d6000fd5b505050506040513d601f19601f820116820180604052508101906116a79190612c6e565b9050600080516020612eeb83398151915281600001516116c690612cd5565b60405161170391906040808252601390820152720556e697377617020737761702064656c74613606c1b6060820152602081019190915260800190565b60405180910390a1600080516020612eeb833981519152816020015161172890612cd5565b6040516117659190604080825260139082015272556e697377617020737761702064656c74613160681b6060820152602081019190915260800190565b60405180910390a16040516370a0823160e01b8152306004820152600080516020612f0b833981519152908a906001600160a01b038216906370a0823190602401602060405180830381865afa1580156117c3573d6000803e3d6000fd5b505050506040513d601f19601f820116820180604052508101906117e79190612934565b604080516060808252601b908201527f506f73742d556e697377617020746f6b656e302062616c616e6365000000000060808201526001600160a01b03909316602084015282015260a00160405180910390a16040516370a0823160e01b8152306004820152600080516020612f0b8339815191529089906001600160a01b038216906370a0823190602401602060405180830381865afa158015611890573d6000803e3d6000fd5b505050506040513d601f19601f820116820180604052508101906118b49190612934565b604080516060808252601b908201527f506f73742d556e697377617020746f6b656e312062616c616e6365000000000060808201526001600160a01b03909316602084015282015260a00160405180910390a16000611923898b846020015161191c90612cd5565b6000612287565b9050600080516020612eeb83398151915281604051611974919060408082526015908201527414dd5cda1a5cddd85c081cddd85c081c995cdd5b1d605a1b6060820152602081019190915260800190565b60405180910390a187811161198a576000611994565b6119948882612cf1565b9a9950505050505050505050565b6040516370a0823160e01b8152306004820152600090600080516020612f0b8339815191529087906001600160a01b038216906370a0823190602401602060405180830381865afa1580156119fb573d6000803e3d6000fd5b505050506040513d601f19601f82011682018060405250810190611a1f9190612934565b604080516060808252601c908201527f5072652d53757368697377617020746f6b656e302062616c616e63650000000060808201526001600160a01b03909316602084015282015260a00160405180910390a16040516370a0823160e01b8152306004820152600080516020612f0b8339815191529086906001600160a01b038216906370a0823190602401602060405180830381865afa158015611ac8573d6000803e3d6000fd5b505050506040513d601f19601f82011682018060405250810190611aec9190612934565b604080516060808252601c908201527f5072652d53757368697377617020746f6b656e312062616c616e63650000000060808201526001600160a01b03909316602084015282015260a00160405180910390a1604080518181526024818301527f457865637574696e67205375736869737761702073776170207769746820616d6060820152631bdd5b9d60e21b6080820152602081018690529051600080516020612eeb8339815191529181900360a00190a16000611baf8787876000612287565b9050600080516020612eeb83398151915281604051611c00919060408082526015908201527414dd5cda1a5cddd85c081cddd85c081c995cdd5b1d605a1b6060820152602081019190915260800190565b60405180910390a16040516370a0823160e01b8152306004820152600080516020612f0b8339815191529088906001600160a01b038216906370a0823190602401602060405180830381865afa158015611c5e573d6000803e3d6000fd5b505050506040513d601f19601f82011682018060405250810190611c829190612934565b604080516060808252601d908201527f506f73742d53757368697377617020746f6b656e302062616c616e636500000060808201526001600160a01b03909316602084015282015260a00160405180910390a16040516370a0823160e01b8152306004820152600080516020612f0b8339815191529087906001600160a01b038216906370a0823190602401602060405180830381865afa158015611d2b573d6000803e3d6000fd5b505050506040513d601f19601f82011682018060405250810190611d4f9190612934565b604080516060808252601d908201527f506f73742d53757368697377617020746f6b656e312062616c616e636500000060808201526001600160a01b03909316602084015282015260a00160405180910390a16000611daf87898661221f565b60408051606081018252600181526020810185905260008183018190529151630f140bef60e11b8152929350917f00000000000000000000000000000000000000000000000000000000000000006001600160a01b031690631e2817de90611e1d9086908690600401612c32565b60408051808303816000875af1158015611e3b573d6000803e3d6000fd5b505050506040513d601f19601f82011682018060405250810190611e5f9190612c6e565b9050600080516020612eeb8339815191528160000151611e7e90612cd5565b604051611ebb91906040808252601390820152720556e697377617020737761702064656c74613606c1b6060820152602081019190915260800190565b60405180910390a1600080516020612eeb8339815191528160200151611ee090612cd5565b604051611f1d9190604080825260139082015272556e697377617020737761702064656c74613160681b6060820152602081019190915260800190565b60405180910390a1878160200151611f3490612cd5565b11611f40576000611994565b878160200151611f4f90612cd5565b6119949190612cf1565b6000546001600160a01b031633146110055760405163118cdaa760e01b8152336004820152602401610222565b600260015403611fa957604051633ee5aeb560e01b815260040160405180910390fd5b6002600155565b600080546001600160a01b038381166001600160a01b0319831681178455604051919092169283917f8be0079c531659141344cd1fd0a4f28419497f9722a3daafe3b4186f6b6457e09190a35050565b60008061201d86866040518060200160405280600081525061221f565b905060007f00000000000000000000000000000000000000000000000000000000000000006001600160a01b031663760f59d0836040518263ffffffff1660e01b815260040161206d9190612d0a565b602060405180830381865afa15801561208a573d6000803e3d6000fd5b505050506040513d601f19601f820116820180604052508101906120ae9190612d18565b90506000600160c01b866120cb6001600160a01b03851680612d35565b6120d59190612d35565b6120df9190612d4c565b6040805160028082526060820183529293506000929091602083019080368337019050509050888160008151811061211957612119612d6e565b60200260200101906001600160a01b031690816001600160a01b031681525050878160018151811061214d5761214d612d6e565b6001600160a01b03928316602091820292909201015260405163d06ca61f60e01b81526000917f0000000000000000000000000000000000000000000000000000000000000000169063d06ca61f906121ac908b908690600401612dc9565b600060405180830381865afa1580156121c9573d6000803e3d6000fd5b505050506040513d6000823e601f3d908101601f191682016040526121f19190810190612dea565b60018151811061220357612203612d6e565b6020026020010151905080831195505050505050949350505050565b6040805160a08101825260008082526020820181905291810182905260608101829052608081019190915250506040805160a0810182526001600160a01b039384168152919092166020820152610bb891810191909152603c60608201526000608082015290565b6040516370a0823160e01b8152306004820152600090600080516020612f0b8339815191529086906001600160a01b038216906370a0823190602401602060405180830381865afa1580156122e0573d6000803e3d6000fd5b505050506040513d601f19601f820116820180604052508101906123049190612934565b604080516060808252601d908201527f5072652d53757368697377617020746f6b656e496e2062616c616e636500000060808201526001600160a01b03909316602084015282015260a00160405180910390a16040516370a0823160e01b8152306004820152600080516020612f0b8339815191529085906001600160a01b038216906370a0823190602401602060405180830381865afa1580156123ad573d6000803e3d6000fd5b505050506040513d601f19601f820116820180604052508101906123d19190612934565b604080516060808252601e908201527f5072652d53757368697377617020746f6b656e4f75742062616c616e6365000060808201526001600160a01b03909316602084015282015260a00160405180910390a160405163095ea7b360e01b81526001600160a01b037f0000000000000000000000000000000000000000000000000000000000000000811660048301526024820185905286169063095ea7b3906044016020604051808303816000875af1158015612493573d6000803e3d6000fd5b505050506040513d601f19601f820116820180604052508101906124b79190612adf565b6125035760405162461bcd60e51b815260206004820152601960248201527f53757368697377617020617070726f76616c206661696c6564000000000000006044820152606401610222565b604080516002808252606082018352600092602083019080368337019050509050858160008151811061253857612538612d6e565b60200260200101906001600160a01b031690816001600160a01b031681525050848160018151811061256c5761256c612d6e565b6001600160a01b0392831660209182029290920101526000907f0000000000000000000000000000000000000000000000000000000000000000166338ed1739868685306125bc4261012c612e9b565b6040518663ffffffff1660e01b81526004016125dc959493929190612eae565b6000604051808303816000875af11580156125fb573d6000803e3d6000fd5b505050506040513d6000823e601f3d908101601f191682016040526126239190810190612dea565b6040516370a0823160e01b8152306004820152909150600080516020612f0b8339815191529088906001600160a01b038216906370a0823190602401602060405180830381865afa15801561267c573d6000803e3d6000fd5b505050506040513d601f19601f820116820180604052508101906126a09190612934565b604080516060808252601e908201527f506f73742d53757368697377617020746f6b656e496e2062616c616e6365000060808201526001600160a01b03909316602084015282015260a00160405180910390a16040516370a0823160e01b8152306004820152600080516020612f0b8339815191529087906001600160a01b038216906370a0823190602401602060405180830381865afa158015612749573d6000803e3d6000fd5b505050506040513d601f19601f8201168201806040525081019061276d9190612934565b604080516060808252601f908201527f506f73742d53757368697377617020746f6b656e4f75742062616c616e63650060808201526001600160a01b03909316602084015282015260a00160405180910390a180600182516127cf9190612cf1565b815181106127df576127df612d6e565b602002602001015192505050949350505050565b6001600160a01b038116811461126c57600080fd5b60008060008060008060a0878903121561282157600080fd5b863561282c816127f3565b9550602087013561283c816127f3565b94506040870135935060608701359250608087013567ffffffffffffffff81111561286657600080fd5b8701601f8101891361287757600080fd5b803567ffffffffffffffff81111561288e57600080fd5b8960208284010111156128a057600080fd5b60208201935080925050509295509295509295565b6000806000606084860312156128ca57600080fd5b83356128d5816127f3565b92506020840135915060408401356128ec816127f3565b809150509250925092565b60006020828403121561290957600080fd5b5035919050565b60006020828403121561292257600080fd5b813561292d816127f3565b9392505050565b60006020828403121561294657600080fd5b5051919050565b634e487b7160e01b600052604160045260246000fd5b60405160a0810167ffffffffffffffff811182821017156129865761298661294d565b60405290565b604051601f8201601f1916810167ffffffffffffffff811182821017156129b5576129b561294d565b604052919050565b801515811461126c57600080fd5b600082601f8301126129dc57600080fd5b813567ffffffffffffffff8111156129f6576129f661294d565b612a09601f8201601f191660200161298c565b818152846020838601011115612a1e57600080fd5b816020850160208301376000918101602001919091529392505050565b60008082840360c0811215612a4f57600080fd5b60a0811215612a5d57600080fd5b50612a66612963565b8335612a71816127f3565b81526020840135612a81816127f3565b602082015260408481013590820152606080850135908201526080840135612aa8816129bd565b6080820152915060a083013567ffffffffffffffff811115612ac957600080fd5b612ad5858286016129cb565b9150509250929050565b600060208284031215612af157600080fd5b815161292d816129bd565b60018060a01b03845116815260018060a01b036020850151166020820152604084015160408201526060840151606082015260808401511515608082015260c060a08201528160c0820152818360e0830137600081830160e090810191909152601f909201601f1916010192915050565b6001600160a01b038781168252868116602083015285166040820152606081018490526080810183905260c060a082018190528251908201819052600090815b81811015612bca57602081860181015160e0868401015201612bad565b50600060e0828501015260e0601f19601f830116840101915050979650505050505050565b80516001600160a01b03908116835260208083015182169084015260408083015162ffffff169084015260608083015160020b9084015260809182015116910152565b6101008101612c418285612bef565b8251151560a0830152602083015160c08301526040909201516001600160a01b031660e090910152919050565b60006040828403128015612c8157600080fd5b506040805190810167ffffffffffffffff81118282101715612ca557612ca561294d565b604052825181526020928301519281019290925250919050565b634e487b7160e01b600052601160045260246000fd5b6000600160ff1b8201612cea57612cea612cbf565b5060000390565b81810381811115612d0457612d04612cbf565b92915050565b60a08101612d048284612bef565b600060208284031215612d2a57600080fd5b815161292d816127f3565b8082028115828204841417612d0457612d04612cbf565b600082612d6957634e487b7160e01b600052601260045260246000fd5b500490565b634e487b7160e01b600052603260045260246000fd5b600081518084526020840193506020830160005b82811015612dbf5781516001600160a01b0316865260209586019590910190600101612d98565b5093949350505050565b828152604060208201526000612de26040830184612d84565b949350505050565b600060208284031215612dfc57600080fd5b815167ffffffffffffffff811115612e1357600080fd5b8201601f81018413612e2457600080fd5b805167ffffffffffffffff811115612e3e57612e3e61294d565b8060051b612e4e6020820161298c565b91825260208184018101929081019087841115612e6a57600080fd5b6020850194505b83851015612e9057845180835260209586019590935090910190612e71565b979650505050505050565b80820180821115612d0457612d04612cbf565b85815284602082015260a060408201526000612ecd60a0830186612d84565b6001600160a01b039490941660608301525060800152939250505056fe3c5ad147104e56be34a9176a6692f7df8d2f4b29a5af06bc6b98970d329d657728d7b9b2f784cfd77a99878b6ee7ac54e22d1a1b3cd542a1992bc36993b213c1a26469706673582212203bd691af5f01b9821286b6e8b546b7dcebe977b8db8101ff9a7a01fdf98637d964736f6c634300081c0033",
  "linkReferences": {},
  "deployedLinkReferences": {}
}