{
  "_format": "hh-sol-artifact-1",
  "contractName": "UniswapV4ArbitrageHook",
  "sourceName": "contracts/flashloan/UniswapV4ArbitrageHook.sol",
  "abi": [
    {
      "inputs": [
        {
          "internalType": "address",
          "name": "_poolManager",
          "type": "address"
        },
        {
          "internalType": "uint256",
          "name": "_minProfitThreshold",
          "type": "uint256"
        }
      ],
      "stateMutability": "nonpayable",
      "type": "constructor"
    },
    {
      "inputs": [
        {
          "internalType": "address",
          "name": "owner",
          "type": "address"
        }
      ],
      "name": "OwnableInvalidOwner",
      "type": "error"
    },
    {
      "inputs": [
        {
          "internalType": "address",
          "name": "account",
          "type": "address"
        }
      ],
      "name": "OwnableUnauthorizedAccount",
      "type": "error"
    },
    {
      "inputs": [],
      "name": "ReentrancyGuardReentrantCall",
      "type": "error"
    },
    {
      "anonymous": false,
      "inputs": [
        {
          "indexed": true,
          "internalType": "address",
          "name": "sender",
          "type": "address"
        },
        {
          "indexed": false,
          "internalType": "address",
          "name": "token0",
          "type": "address"
        },
        {
          "indexed": false,
          "internalType": "address",
          "name": "token1",
          "type": "address"
        },
        {
          "indexed": false,
          "internalType": "int256",
          "name": "amount",
          "type": "int256"
        },
        {
          "indexed": false,
          "internalType": "bool",
          "name": "success",
          "type": "bool"
        }
      ],
      "name": "ArbitrageAttempted",
      "type": "event"
    },
    {
      "anonymous": false,
      "inputs": [
        {
          "indexed": true,
          "internalType": "address",
          "name": "previousOwner",
          "type": "address"
        },
        {
          "indexed": true,
          "internalType": "address",
          "name": "newOwner",
          "type": "address"
        }
      ],
      "name": "OwnershipTransferred",
      "type": "event"
    },
    {
      "anonymous": false,
      "inputs": [
        {
          "indexed": true,
          "internalType": "address",
          "name": "token",
          "type": "address"
        },
        {
          "indexed": false,
          "internalType": "uint256",
          "name": "amount",
          "type": "uint256"
        },
        {
          "indexed": false,
          "internalType": "address",
          "name": "recipient",
          "type": "address"
        }
      ],
      "name": "ProfitTaken",
      "type": "event"
    },
    {
      "inputs": [
        {
          "internalType": "address",
          "name": "sender",
          "type": "address"
        },
        {
          "components": [
            {
              "internalType": "Currency",
              "name": "currency0",
              "type": "address"
            },
            {
              "internalType": "Currency",
              "name": "currency1",
              "type": "address"
            },
            {
              "internalType": "uint24",
              "name": "fee",
              "type": "uint24"
            },
            {
              "internalType": "int24",
              "name": "tickSpacing",
              "type": "int24"
            },
            {
              "internalType": "contract IHooks",
              "name": "hooks",
              "type": "address"
            }
          ],
          "internalType": "struct PoolKey",
          "name": "key",
          "type": "tuple"
        },
        {
          "internalType": "uint160",
          "name": "sqrtPriceX96",
          "type": "uint160"
        },
        {
          "internalType": "int24",
          "name": "tick",
          "type": "int24"
        }
      ],
      "name": "afterInitialize",
      "outputs": [
        {
          "internalType": "bytes4",
          "name": "",
          "type": "bytes4"
        }
      ],
      "stateMutability": "nonpayable",
      "type": "function"
    },
    {
      "inputs": [
        {
          "internalType": "address",
          "name": "sender",
          "type": "address"
        },
        {
          "components": [
            {
              "internalType": "Currency",
              "name": "currency0",
              "type": "address"
            },
            {
              "internalType": "Currency",
              "name": "currency1",
              "type": "address"
            },
            {
              "internalType": "uint24",
              "name": "fee",
              "type": "uint24"
            },
            {
              "internalType": "int24",
              "name": "tickSpacing",
              "type": "int24"
            },
            {
              "internalType": "contract IHooks",
              "name": "hooks",
              "type": "address"
            }
          ],
          "internalType": "struct PoolKey",
          "name": "key",
          "type": "tuple"
        },
        {
          "components": [
            {
              "internalType": "int24",
              "name": "tickLower",
              "type": "int24"
            },
            {
              "internalType": "int24",
              "name": "tickUpper",
              "type": "int24"
            },
            {
              "internalType": "int256",
              "name": "liquidityDelta",
              "type": "int256"
            }
          ],
          "internalType": "struct ModifyPositionParams",
          "name": "params",
          "type": "tuple"
        },
        {
          "components": [
            {
              "internalType": "int256",
              "name": "amount0",
              "type": "int256"
            },
            {
              "internalType": "int256",
              "name": "amount1",
              "type": "int256"
            }
          ],
          "internalType": "struct BalanceDelta",
          "name": "delta",
          "type": "tuple"
        }
      ],
      "name": "afterModifyPosition",
      "outputs": [
        {
          "internalType": "bytes4",
          "name": "",
          "type": "bytes4"
        }
      ],
      "stateMutability": "nonpayable",
      "type": "function"
    },
    {
      "inputs": [
        {
          "internalType": "address",
          "name": "sender",
          "type": "address"
        },
        {
          "components": [
            {
              "internalType": "Currency",
              "name": "currency0",
              "type": "address"
            },
            {
              "internalType": "Currency",
              "name": "currency1",
              "type": "address"
            },
            {
              "internalType": "uint24",
              "name": "fee",
              "type": "uint24"
            },
            {
              "internalType": "int24",
              "name": "tickSpacing",
              "type": "int24"
            },
            {
              "internalType": "contract IHooks",
              "name": "hooks",
              "type": "address"
            }
          ],
          "internalType": "struct PoolKey",
          "name": "key",
          "type": "tuple"
        },
        {
          "components": [
            {
              "internalType": "bool",
              "name": "zeroForOne",
              "type": "bool"
            },
            {
              "internalType": "int256",
              "name": "amountSpecified",
              "type": "int256"
            },
            {
              "internalType": "uint160",
              "name": "sqrtPriceLimitX96",
              "type": "uint160"
            }
          ],
          "internalType": "struct SwapParams",
          "name": "params",
          "type": "tuple"
        },
        {
          "components": [
            {
              "internalType": "int256",
              "name": "amount0",
              "type": "int256"
            },
            {
              "internalType": "int256",
              "name": "amount1",
              "type": "int256"
            }
          ],
          "internalType": "struct BalanceDelta",
          "name": "delta",
          "type": "tuple"
        }
      ],
      "name": "afterSwap",
      "outputs": [
        {
          "internalType": "bytes4",
          "name": "",
          "type": "bytes4"
        }
      ],
      "stateMutability": "nonpayable",
      "type": "function"
    },
    {
      "inputs": [
        {
          "internalType": "address",
          "name": "",
          "type": "address"
        }
      ],
      "name": "authorizedCallers",
      "outputs": [
        {
          "internalType": "bool",
          "name": "",
          "type": "bool"
        }
      ],
      "stateMutability": "view",
      "type": "function"
    },
    {
      "inputs": [
        {
          "internalType": "address",
          "name": "sender",
          "type": "address"
        },
        {
          "components": [
            {
              "internalType": "Currency",
              "name": "currency0",
              "type": "address"
            },
            {
              "internalType": "Currency",
              "name": "currency1",
              "type": "address"
            },
            {
              "internalType": "uint24",
              "name": "fee",
              "type": "uint24"
            },
            {
              "internalType": "int24",
              "name": "tickSpacing",
              "type": "int24"
            },
            {
              "internalType": "contract IHooks",
              "name": "hooks",
              "type": "address"
            }
          ],
          "internalType": "struct PoolKey",
          "name": "key",
          "type": "tuple"
        },
        {
          "internalType": "uint160",
          "name": "sqrtPriceX96",
          "type": "uint160"
        }
      ],
      "name": "beforeInitialize",
      "outputs": [
        {
          "internalType": "bytes4",
          "name": "",
          "type": "bytes4"
        }
      ],
      "stateMutability": "nonpayable",
      "type": "function"
    },
    {
      "inputs": [
        {
          "internalType": "address",
          "name": "sender",
          "type": "address"
        },
        {
          "components": [
            {
              "internalType": "Currency",
              "name": "currency0",
              "type": "address"
            },
            {
              "internalType": "Currency",
              "name": "currency1",
              "type": "address"
            },
            {
              "internalType": "uint24",
              "name": "fee",
              "type": "uint24"
            },
            {
              "internalType": "int24",
              "name": "tickSpacing",
              "type": "int24"
            },
            {
              "internalType": "contract IHooks",
              "name": "hooks",
              "type": "address"
            }
          ],
          "internalType": "struct PoolKey",
          "name": "key",
          "type": "tuple"
        },
        {
          "components": [
            {
              "internalType": "int24",
              "name": "tickLower",
              "type": "int24"
            },
            {
              "internalType": "int24",
              "name": "tickUpper",
              "type": "int24"
            },
            {
              "internalType": "int256",
              "name": "liquidityDelta",
              "type": "int256"
            }
          ],
          "internalType": "struct ModifyPositionParams",
          "name": "params",
          "type": "tuple"
        }
      ],
      "name": "beforeModifyPosition",
      "outputs": [
        {
          "internalType": "bytes4",
          "name": "",
          "type": "bytes4"
        }
      ],
      "stateMutability": "nonpayable",
      "type": "function"
    },
    {
      "inputs": [
        {
          "internalType": "address",
          "name": "sender",
          "type": "address"
        },
        {
          "components": [
            {
              "internalType": "Currency",
              "name": "currency0",
              "type": "address"
            },
            {
              "internalType": "Currency",
              "name": "currency1",
              "type": "address"
            },
            {
              "internalType": "uint24",
              "name": "fee",
              "type": "uint24"
            },
            {
              "internalType": "int24",
              "name": "tickSpacing",
              "type": "int24"
            },
            {
              "internalType": "contract IHooks",
              "name": "hooks",
              "type": "address"
            }
          ],
          "internalType": "struct PoolKey",
          "name": "key",
          "type": "tuple"
        },
        {
          "components": [
            {
              "internalType": "bool",
              "name": "zeroForOne",
              "type": "bool"
            },
            {
              "internalType": "int256",
              "name": "amountSpecified",
              "type": "int256"
            },
            {
              "internalType": "uint160",
              "name": "sqrtPriceLimitX96",
              "type": "uint160"
            }
          ],
          "internalType": "struct SwapParams",
          "name": "params",
          "type": "tuple"
        }
      ],
      "name": "beforeSwap",
      "outputs": [
        {
          "internalType": "bytes4",
          "name": "",
          "type": "bytes4"
        }
      ],
      "stateMutability": "nonpayable",
      "type": "function"
    },
    {
      "inputs": [
        {
          "internalType": "address",
          "name": "token",
          "type": "address"
        },
        {
          "internalType": "uint256",
          "name": "amount",
          "type": "uint256"
        },
        {
          "internalType": "address",
          "name": "recipient",
          "type": "address"
        }
      ],
      "name": "emergencyWithdraw",
      "outputs": [],
      "stateMutability": "nonpayable",
      "type": "function"
    },
    {
      "inputs": [],
      "name": "minProfitThreshold",
      "outputs": [
        {
          "internalType": "uint256",
          "name": "",
          "type": "uint256"
        }
      ],
      "stateMutability": "view",
      "type": "function"
    },
    {
      "inputs": [],
      "name": "owner",
      "outputs": [
        {
          "internalType": "address",
          "name": "",
          "type": "address"
        }
      ],
      "stateMutability": "view",
      "type": "function"
    },
    {
      "inputs": [],
      "name": "poolManager",
      "outputs": [
        {
          "internalType": "contract IUniswapV4PoolManager",
          "name": "",
          "type": "address"
        }
      ],
      "stateMutability": "view",
      "type": "function"
    },
    {
      "inputs": [],
      "name": "renounceOwnership",
      "outputs": [],
      "stateMutability": "nonpayable",
      "type": "function"
    },
    {
      "inputs": [
        {
          "internalType": "address",
          "name": "caller",
          "type": "address"
        },
        {
          "internalType": "bool",
          "name": "authorized",
          "type": "bool"
        }
      ],
      "name": "setAuthorizedCaller",
      "outputs": [],
      "stateMutability": "nonpayable",
      "type": "function"
    },
    {
      "inputs": [
        {
          "internalType": "uint256",
          "name": "newThreshold",
          "type": "uint256"
        }
      ],
      "name": "setMinProfitThreshold",
      "outputs": [],
      "stateMutability": "nonpayable",
      "type": "function"
    },
    {
      "inputs": [
        {
          "internalType": "address",
          "name": "newOwner",
          "type": "address"
        }
      ],
      "name": "transferOwnership",
      "outputs": [],
      "stateMutability": "nonpayable",
      "type": "function"
    }
  ],
  "bytecode": "0x60a060405234801561001057600080fd5b50604051610b36380380610b3683398101604081905261002f91610123565b6001600055338061005b57604051631e4fbdf760e01b8152600060048201526024015b60405180910390fd5b610064816100d1565b506001600160a01b0382166100bb5760405162461bcd60e51b815260206004820152601460248201527f496e76616c696420706f6f6c206d616e616765720000000000000000000000006044820152606401610052565b6001600160a01b0390911660805260035561015d565b600180546001600160a01b038381166001600160a01b0319831681179093556040519116919082907f8be0079c531659141344cd1fd0a4f28419497f9722a3daafe3b4186f6b6457e090600090a35050565b6000806040838503121561013657600080fd5b82516001600160a01b038116811461014d57600080fd5b6020939093015192949293505050565b6080516109be610178600039600061024e01526109be6000f3fe608060405234801561001057600080fd5b50600436106100f55760003560e01c8063715018a611610097578063c028646511610066578063c028646514610236578063dc4c90d314610249578063dc98354e14610270578063f2fde38b1461028d57600080fd5b8063715018a6146101df5780637341ab8c146101e75780638da5cb5b146101fe578063b3f97f801461022357600080fd5b8063494cc556116100d3578063494cc5561461015d578063536fff6c1461017b578063551512de146101ae5780636fe7e6eb146101c157600080fd5b80630dbe5dbd146100fa57806331acc11414610135578063454bbd2914610148575b600080fd5b610117610108366004610712565b630dbe5dbd60e01b9392505050565b6040516001600160e01b031990911681526020015b60405180910390f35b61011761014336600461076c565b6102a0565b61015b6101563660046107c7565b610319565b005b61011761016b36600461076c565b6324a662ab60e11b949350505050565b61019e610189366004610805565b60026020526000908152604090205460ff1681565b604051901515815260200161012c565b61015b6101bc366004610829565b61034c565b6101176101cf36600461086b565b636fe7e6eb60e01b949350505050565b61015b6103ba565b6101f060035481565b60405190815260200161012c565b6001546001600160a01b03165b6040516001600160a01b03909116815260200161012c565b610117610231366004610712565b6103ce565b61015b6102443660046108ce565b6104d1565b61020b7f000000000000000000000000000000000000000000000000000000000000000081565b61011761027e3660046108e7565b636e4c1aa760e11b9392505050565b61015b61029b366004610805565b6104de565b6000806102ba6102b536859003850185610926565b61051c565b90506000811380156102ce57506003548110155b15610307576103076102e36020870187610805565b6102f36040880160208901610805565b61030236879003870187610926565b61053c565b50630c6b304560e21b95945050505050565b61032161062a565b6001600160a01b03919091166000908152600260205260409020805460ff1916911515919091179055565b61035461062a565b61035c610657565b6001600160a01b0381166103ab5760405162461bcd60e51b8152602060048201526011602482015270125b9d985b1a59081c9958da5c1a595b9d607a1b60448201526064015b60405180910390fd5b6103b56001600055565b505050565b6103c261062a565b6103cc6000610681565b565b6001600160a01b03831660009081526002602052604081205460ff168061040257506001546001600160a01b038581169116145b6104425760405162461bcd60e51b81526020600482015260116024820152700556e617574686f72697a6564207377617607c1b60448201526064016103a2565b6001600160a01b0384167fd014fbaf28e9b343b248fe4d6757b2f5e29b39d231b29787afa8e5130baaad0e61047a6020860186610805565b61048a6040870160208801610805565b604080516001600160a01b03938416815292909116602083810191909152860135908201526001606082015260800160405180910390a250630167f2ff60e71b9392505050565b6104d961062a565b600355565b6104e661062a565b6001600160a01b03811661051057604051631e4fbdf760e01b8152600060048201526024016103a2565b61051981610681565b50565b600080826000015113610533578160200151610536565b81515b92915050565b610544610657565b8051600012156105b157826001600160a01b03167fabeb1d53c8ae7f009f03634cc2bdaaadca3ab0f835d0db53f133f5fa36e843b182600001516105906001546001600160a01b031690565b604080519283526001600160a01b0390911660208301520160405180910390a25b6000816020015113156103ab57816001600160a01b03167fabeb1d53c8ae7f009f03634cc2bdaaadca3ab0f835d0db53f133f5fa36e843b182602001516106006001546001600160a01b031690565b604080519283526001600160a01b0390911660208301520160405180910390a26103b56001600055565b6001546001600160a01b031633146103cc5760405163118cdaa760e01b81523360048201526024016103a2565b60026000540361067a57604051633ee5aeb560e01b815260040160405180910390fd5b6002600055565b600180546001600160a01b038381166001600160a01b0319831681179093556040519116919082907f8be0079c531659141344cd1fd0a4f28419497f9722a3daafe3b4186f6b6457e090600090a35050565b6001600160a01b038116811461051957600080fd5b600060a082840312156106fa57600080fd5b50919050565b6000606082840312156106fa57600080fd5b6000806000610120848603121561072857600080fd5b8335610733816106d3565b925061074285602086016106e8565b91506107518560c08601610700565b90509250925092565b6000604082840312156106fa57600080fd5b600080600080610160858703121561078357600080fd5b843561078e816106d3565b935061079d86602087016106e8565b92506107ac8660c08701610700565b91506107bc86610120870161075a565b905092959194509250565b600080604083850312156107da57600080fd5b82356107e5816106d3565b9150602083013580151581146107fa57600080fd5b809150509250929050565b60006020828403121561081757600080fd5b8135610822816106d3565b9392505050565b60008060006060848603121561083e57600080fd5b8335610849816106d3565b9250602084013591506040840135610860816106d3565b809150509250925092565b600080600080610100858703121561088257600080fd5b843561088d816106d3565b935061089c86602087016106e8565b925060c08501356108ac816106d3565b915060e0850135600281900b81146108c357600080fd5b939692955090935050565b6000602082840312156108e057600080fd5b5035919050565b600080600060e084860312156108fc57600080fd5b8335610907816106d3565b925061091685602086016106e8565b915060c0840135610860816106d3565b6000604082840312801561093957600080fd5b600090506040516040810181811067ffffffffffffffff8211171561096c57634e487b7160e01b83526041600452602483fd5b604052833581526020938401359381019390935250909291505056fea2646970667358221220323ca0ed2d5780d8618bbdfff7e88971e222a01007e7f3f4d4a07bc7e47c6ed364736f6c634300081c0033",
  "linkReferences": {},
  "deployedLinkReferences": {}
}