{
  "_format": "hh-sol-artifact-1",
  "contractName": "FlashloanV3",
  "sourceName": "contracts/flashloan/FlashloanV3.sol",
  "abi": [
    {
      "inputs": [
        {
          "internalType": "address",
          "name": "_pool",
          "type": "address"
        }
      ],
      "stateMutability": "nonpayable",
      "type": "constructor"
    },
    {
      "inputs": [],
      "name": "AmountTooLarge",
      "type": "error"
    },
    {
      "inputs": [],
      "name": "ContractPaused",
      "type": "error"
    },
    {
      "inputs": [],
      "name": "InsufficientBalance",
      "type": "error"
    },
    {
      "inputs": [],
      "name": "InvalidAmount",
      "type": "error"
    },
    {
      "inputs": [],
      "name": "InvalidToken",
      "type": "error"
    },
    {
      "inputs": [
        {
          "internalType": "address",
          "name": "owner",
          "type": "address"
        }
      ],
      "name": "OwnableInvalidOwner",
      "type": "error"
    },
    {
      "inputs": [
        {
          "internalType": "address",
          "name": "account",
          "type": "address"
        }
      ],
      "name": "OwnableUnauthorizedAccount",
      "type": "error"
    },
    {
      "inputs": [],
      "name": "ReentrancyGuardReentrantCall",
      "type": "error"
    },
    {
      "inputs": [
        {
          "internalType": "address",
          "name": "token",
          "type": "address"
        }
      ],
      "name": "SafeERC20FailedOperation",
      "type": "error"
    },
    {
      "inputs": [],
      "name": "TransferFailed",
      "type": "error"
    },
    {
      "anonymous": false,
      "inputs": [
        {
          "indexed": true,
          "internalType": "address",
          "name": "operator",
          "type": "address"
        }
      ],
      "name": "EmergencyPaused",
      "type": "event"
    },
    {
      "anonymous": false,
      "inputs": [
        {
          "indexed": true,
          "internalType": "address",
          "name": "operator",
          "type": "address"
        }
      ],
      "name": "EmergencyUnpaused",
      "type": "event"
    },
    {
      "anonymous": false,
      "inputs": [
        {
          "indexed": true,
          "internalType": "address",
          "name": "token",
          "type": "address"
        },
        {
          "indexed": false,
          "internalType": "uint256",
          "name": "amount",
          "type": "uint256"
        },
        {
          "indexed": false,
          "internalType": "uint256",
          "name": "fee",
          "type": "uint256"
        }
      ],
      "name": "FlashLoanExecuted",
      "type": "event"
    },
    {
      "anonymous": false,
      "inputs": [
        {
          "indexed": true,
          "internalType": "address",
          "name": "previousOwner",
          "type": "address"
        },
        {
          "indexed": true,
          "internalType": "address",
          "name": "newOwner",
          "type": "address"
        }
      ],
      "name": "OwnershipTransferred",
      "type": "event"
    },
    {
      "inputs": [],
      "name": "POOL",
      "outputs": [
        {
          "internalType": "contract IPool",
          "name": "",
          "type": "address"
        }
      ],
      "stateMutability": "view",
      "type": "function"
    },
    {
      "inputs": [
        {
          "internalType": "address[]",
          "name": "assets",
          "type": "address[]"
        },
        {
          "internalType": "uint256[]",
          "name": "amounts",
          "type": "uint256[]"
        },
        {
          "internalType": "uint256[]",
          "name": "premiums",
          "type": "uint256[]"
        },
        {
          "internalType": "address",
          "name": "initiator",
          "type": "address"
        },
        {
          "internalType": "bytes",
          "name": "params",
          "type": "bytes"
        }
      ],
      "name": "executeOperation",
      "outputs": [
        {
          "internalType": "bool",
          "name": "",
          "type": "bool"
        }
      ],
      "stateMutability": "nonpayable",
      "type": "function"
    },
    {
      "inputs": [
        {
          "internalType": "address[]",
          "name": "tokens",
          "type": "address[]"
        },
        {
          "internalType": "uint256[]",
          "name": "amounts",
          "type": "uint256[]"
        }
      ],
      "name": "flashloanMultiple",
      "outputs": [],
      "stateMutability": "nonpayable",
      "type": "function"
    },
    {
      "inputs": [
        {
          "internalType": "address",
          "name": "token",
          "type": "address"
        },
        {
          "internalType": "uint256",
          "name": "amount",
          "type": "uint256"
        }
      ],
      "name": "flashloanSimple",
      "outputs": [],
      "stateMutability": "nonpayable",
      "type": "function"
    },
    {
      "inputs": [],
      "name": "owner",
      "outputs": [
        {
          "internalType": "address",
          "name": "",
          "type": "address"
        }
      ],
      "stateMutability": "view",
      "type": "function"
    },
    {
      "inputs": [],
      "name": "pause",
      "outputs": [],
      "stateMutability": "nonpayable",
      "type": "function"
    },
    {
      "inputs": [],
      "name": "paused",
      "outputs": [
        {
          "internalType": "bool",
          "name": "",
          "type": "bool"
        }
      ],
      "stateMutability": "view",
      "type": "function"
    },
    {
      "inputs": [],
      "name": "renounceOwnership",
      "outputs": [],
      "stateMutability": "nonpayable",
      "type": "function"
    },
    {
      "inputs": [
        {
          "internalType": "address",
          "name": "newOwner",
          "type": "address"
        }
      ],
      "name": "transferOwnership",
      "outputs": [],
      "stateMutability": "nonpayable",
      "type": "function"
    },
    {
      "inputs": [],
      "name": "unpause",
      "outputs": [],
      "stateMutability": "nonpayable",
      "type": "function"
    },
    {
      "inputs": [
        {
          "internalType": "address",
          "name": "token",
          "type": "address"
        }
      ],
      "name": "withdrawToken",
      "outputs": [],
      "stateMutability": "nonpayable",
      "type": "function"
    },
    {
      "stateMutability": "payable",
      "type": "receive"
    }
  ],
  "bytecode": "0x60a060405234801561001057600080fd5b50604051611f55380380611f5583398181016040528101906100329190610283565b33600073ffffffffffffffffffffffffffffffffffffffff168173ffffffffffffffffffffffffffffffffffffffff16036100a55760006040517f1e4fbdf700000000000000000000000000000000000000000000000000000000815260040161009c91906102bf565b60405180910390fd5b6100b48161015c60201b60201c565b5060018081905550600073ffffffffffffffffffffffffffffffffffffffff168173ffffffffffffffffffffffffffffffffffffffff1603610122576040517fc1ab6dc100000000000000000000000000000000000000000000000000000000815260040160405180910390fd5b8073ffffffffffffffffffffffffffffffffffffffff1660808173ffffffffffffffffffffffffffffffffffffffff1681525050506102da565b60008060009054906101000a900473ffffffffffffffffffffffffffffffffffffffff169050816000806101000a81548173ffffffffffffffffffffffffffffffffffffffff021916908373ffffffffffffffffffffffffffffffffffffffff1602179055508173ffffffffffffffffffffffffffffffffffffffff168173ffffffffffffffffffffffffffffffffffffffff167f8be0079c531659141344cd1fd0a4f28419497f9722a3daafe3b4186f6b6457e060405160405180910390a35050565b600080fd5b600073ffffffffffffffffffffffffffffffffffffffff82169050919050565b600061025082610225565b9050919050565b61026081610245565b811461026b57600080fd5b50565b60008151905061027d81610257565b92915050565b60006020828403121561029957610298610220565b5b60006102a78482850161026e565b91505092915050565b6102b981610245565b82525050565b60006020820190506102d460008301846102b0565b92915050565b608051611c44610311600039600081816104ac015281816105c201528181610845015281816109d90152610d550152611c446000f3fe6080604052600436106100a05760003560e01c80638456cb59116100645780638456cb591461015957806389476069146101705780638da5cb5b14610199578063920f5c84146101c4578063f2fde38b14610201578063fe55818c1461022a576100a7565b80633f4ba83a146100ac5780635175988d146100c35780635c975abb146100ec578063715018a6146101175780637535d2461461012e576100a7565b366100a757005b600080fd5b3480156100b857600080fd5b506100c1610253565b005b3480156100cf57600080fd5b506100ea60048036038101906100e591906111f1565b6102bb565b005b3480156100f857600080fd5b50610101610599565b60405161010e919061124c565b60405180910390f35b34801561012357600080fd5b5061012c6105ac565b005b34801561013a57600080fd5b506101436105c0565b60405161015091906112c6565b60405180910390f35b34801561016557600080fd5b5061016e6105e4565b005b34801561017c57600080fd5b50610197600480360381019061019291906112e1565b61064c565b005b3480156101a557600080fd5b506101ae610818565b6040516101bb919061131d565b60405180910390f35b3480156101d057600080fd5b506101eb60048036038101906101e69190611449565b610841565b6040516101f8919061124c565b60405180910390f35b34801561020d57600080fd5b50610228600480360381019061022391906112e1565b610a79565b005b34801561023657600080fd5b50610251600480360381019061024c9190611545565b610aff565b005b61025b610e90565b6000600260006101000a81548160ff0219169083151502179055503373ffffffffffffffffffffffffffffffffffffffff167ff5cbf596165cc457b2cd92e8d8450827ee314968160a5696402d75766fc52caf60405160405180910390a2565b6102c3610e90565b600260009054906101000a900460ff161561030a576040517fab35696f00000000000000000000000000000000000000000000000000000000815260040160405180910390fd5b610312610f17565b600073ffffffffffffffffffffffffffffffffffffffff168273ffffffffffffffffffffffffffffffffffffffff1603610378576040517fc1ab6dc100000000000000000000000000000000000000000000000000000000815260040160405180910390fd5b600081036103b2576040517f2c5211c600000000000000000000000000000000000000000000000000000000815260040160405180910390fd5b6b033b2e3c9fd0803ce80000008111156103f8576040517f0625040100000000000000000000000000000000000000000000000000000000815260040160405180910390fd5b80600360000160006101000a8154816fffffffffffffffffffffffffffffffff02191690836fffffffffffffffffffffffffffffffff16021790555042600360000160106101000a81548167ffffffffffffffff021916908367ffffffffffffffff1602179055506003600001601881819054906101000a900467ffffffffffffffff168092919060010191906101000a81548167ffffffffffffffff021916908367ffffffffffffffff160217905550507f000000000000000000000000000000000000000000000000000000000000000073ffffffffffffffffffffffffffffffffffffffff166342b0b77c30848460006040518563ffffffff1660e01b815260040161050a9493929190611629565b600060405180830381600087803b15801561052457600080fd5b505af1158015610538573d6000803e3d6000fd5b505050508173ffffffffffffffffffffffffffffffffffffffff167f61268d74931c41c9775dffb6169a5208aab1d09cb2eb6aabe8b97162801e5dfa8260006040516105859291906116bc565b60405180910390a2610595610f5d565b5050565b600260009054906101000a900460ff1681565b6105b4610e90565b6105be6000610f66565b565b7f000000000000000000000000000000000000000000000000000000000000000081565b6105ec610e90565b6001600260006101000a81548160ff0219169083151502179055503373ffffffffffffffffffffffffffffffffffffffff167fb8fad2fa0ed7a383e747c309ef2c4391d7b65592a48893e57ccc1fab7079145660405160405180910390a2565b610654610e90565b61065c610f17565b73eeeeeeeeeeeeeeeeeeeeeeeeeeeeeeeeeeeeeeee73ffffffffffffffffffffffffffffffffffffffff168173ffffffffffffffffffffffffffffffffffffffff160361075257600047905060003373ffffffffffffffffffffffffffffffffffffffff16826040516106ce90611713565b60006040518083038185875af1925050503d806000811461070b576040519150601f19603f3d011682016040523d82523d6000602084013e610710565b606091505b505090508061074b576040517f90b8ec1800000000000000000000000000000000000000000000000000000000815260040160405180910390fd5b505061080d565b600081905060008173ffffffffffffffffffffffffffffffffffffffff166370a08231306040518263ffffffff1660e01b8152600401610792919061131d565b602060405180830381865afa1580156107af573d6000803e3d6000fd5b505050506040513d601f19601f820116820180604052508101906107d3919061173d565b9050600081111561080a5761080933828473ffffffffffffffffffffffffffffffffffffffff1661102a9092919063ffffffff16565b5b50505b610815610f5d565b50565b60008060009054906101000a900473ffffffffffffffffffffffffffffffffffffffff16905090565b60007f000000000000000000000000000000000000000000000000000000000000000073ffffffffffffffffffffffffffffffffffffffff163373ffffffffffffffffffffffffffffffffffffffff16146108d1576040517f08c379a00000000000000000000000000000000000000000000000000000000081526004016108c8906117c7565b60405180910390fd5b3073ffffffffffffffffffffffffffffffffffffffff168473ffffffffffffffffffffffffffffffffffffffff161461093f576040517f08c379a000000000000000000000000000000000000000000000000000000000815260040161093690611833565b60405180910390fd5b60008a8a9050905060005b81811015610a6657600088888381811061096757610966611853565b5b905060200201358b8b8481811061098157610980611853565b5b9050602002013561099291906118b1565b90508c8c838181106109a7576109a6611853565b5b90506020020160208101906109bc91906112e1565b73ffffffffffffffffffffffffffffffffffffffff1663095ea7b37f0000000000000000000000000000000000000000000000000000000000000000836040518363ffffffff1660e01b8152600401610a169291906118e5565b6020604051808303816000875af1158015610a35573d6000803e3d6000fd5b505050506040513d601f19601f82011682018060405250810190610a59919061193a565b508160010191505061094a565b5060019150509998505050505050505050565b610a81610e90565b600073ffffffffffffffffffffffffffffffffffffffff168173ffffffffffffffffffffffffffffffffffffffff1603610af35760006040517f1e4fbdf7000000000000000000000000000000000000000000000000000000008152600401610aea919061131d565b60405180910390fd5b610afc81610f66565b50565b610b07610e90565b600260009054906101000a900460ff1615610b4e576040517fab35696f00000000000000000000000000000000000000000000000000000000815260040160405180910390fd5b610b56610f17565b6000848490501480610b6e5750818190508484905014155b15610ba5576040517f2c5211c600000000000000000000000000000000000000000000000000000000815260040160405180910390fd5b600084849050905060005b81811015610d0257600073ffffffffffffffffffffffffffffffffffffffff16868683818110610be357610be2611853565b5b9050602002016020810190610bf891906112e1565b73ffffffffffffffffffffffffffffffffffffffff1603610c45576040517fc1ab6dc100000000000000000000000000000000000000000000000000000000815260040160405180910390fd5b6000848483818110610c5a57610c59611853565b5b9050602002013503610c98576040517f2c5211c600000000000000000000000000000000000000000000000000000000815260040160405180910390fd5b6b033b2e3c9fd0803ce8000000848483818110610cb857610cb7611853565b5b905060200201351115610cf7576040517f0625040100000000000000000000000000000000000000000000000000000000815260040160405180910390fd5b806001019050610bb0565b5060008585905067ffffffffffffffff811115610d2257610d21611967565b5b604051908082528060200260200182016040528015610d505781602001602082028036833780820191505090505b5090507f000000000000000000000000000000000000000000000000000000000000000073ffffffffffffffffffffffffffffffffffffffff1663ab9c4b5d3088888888873060006040518963ffffffff1660e01b8152600401610dbb989796959493929190611b81565b600060405180830381600087803b158015610dd557600080fd5b505af1158015610de9573d6000803e3d6000fd5b5050505085856000818110610e0157610e00611853565b5b9050602002016020810190610e1691906112e1565b73ffffffffffffffffffffffffffffffffffffffff167f61268d74931c41c9775dffb6169a5208aab1d09cb2eb6aabe8b97162801e5dfa85856000818110610e6157610e60611853565b5b905060200201356000604051610e789291906116bc565b60405180910390a25050610e8a610f5d565b50505050565b610e986110a9565b73ffffffffffffffffffffffffffffffffffffffff16610eb6610818565b73ffffffffffffffffffffffffffffffffffffffff1614610f1557610ed96110a9565b6040517f118cdaa7000000000000000000000000000000000000000000000000000000008152600401610f0c919061131d565b60405180910390fd5b565b600260015403610f53576040517f3ee5aeb500000000000000000000000000000000000000000000000000000000815260040160405180910390fd5b6002600181905550565b60018081905550565b60008060009054906101000a900473ffffffffffffffffffffffffffffffffffffffff169050816000806101000a81548173ffffffffffffffffffffffffffffffffffffffff021916908373ffffffffffffffffffffffffffffffffffffffff1602179055508173ffffffffffffffffffffffffffffffffffffffff168173ffffffffffffffffffffffffffffffffffffffff167f8be0079c531659141344cd1fd0a4f28419497f9722a3daafe3b4186f6b6457e060405160405180910390a35050565b6110a4838473ffffffffffffffffffffffffffffffffffffffff1663a9059cbb858560405160240161105d9291906118e5565b604051602081830303815290604052915060e01b6020820180517bffffffffffffffffffffffffffffffffffffffffffffffffffffffff83818316178352505050506110b1565b505050565b600033905090565b600080602060008451602086016000885af1806110d4576040513d6000823e3d81fd5b3d9250600051915050600082146110ef57600181141561110b565b60008473ffffffffffffffffffffffffffffffffffffffff163b145b1561114d57836040517f5274afe7000000000000000000000000000000000000000000000000000000008152600401611144919061131d565b60405180910390fd5b50505050565b600080fd5b600080fd5b600073ffffffffffffffffffffffffffffffffffffffff82169050919050565b60006111888261115d565b9050919050565b6111988161117d565b81146111a357600080fd5b50565b6000813590506111b58161118f565b92915050565b6000819050919050565b6111ce816111bb565b81146111d957600080fd5b50565b6000813590506111eb816111c5565b92915050565b6000806040838503121561120857611207611153565b5b6000611216858286016111a6565b9250506020611227858286016111dc565b9150509250929050565b60008115159050919050565b61124681611231565b82525050565b6000602082019050611261600083018461123d565b92915050565b6000819050919050565b600061128c6112876112828461115d565b611267565b61115d565b9050919050565b600061129e82611271565b9050919050565b60006112b082611293565b9050919050565b6112c0816112a5565b82525050565b60006020820190506112db60008301846112b7565b92915050565b6000602082840312156112f7576112f6611153565b5b6000611305848285016111a6565b91505092915050565b6113178161117d565b82525050565b6000602082019050611332600083018461130e565b92915050565b600080fd5b600080fd5b600080fd5b60008083601f84011261135d5761135c611338565b5b8235905067ffffffffffffffff81111561137a5761137961133d565b5b60208301915083602082028301111561139657611395611342565b5b9250929050565b60008083601f8401126113b3576113b2611338565b5b8235905067ffffffffffffffff8111156113d0576113cf61133d565b5b6020830191508360208202830111156113ec576113eb611342565b5b9250929050565b60008083601f84011261140957611408611338565b5b8235905067ffffffffffffffff8111156114265761142561133d565b5b60208301915083600182028301111561144257611441611342565b5b9250929050565b600080600080600080600080600060a08a8c03121561146b5761146a611153565b5b60008a013567ffffffffffffffff81111561148957611488611158565b5b6114958c828d01611347565b995099505060208a013567ffffffffffffffff8111156114b8576114b7611158565b5b6114c48c828d0161139d565b975097505060408a013567ffffffffffffffff8111156114e7576114e6611158565b5b6114f38c828d0161139d565b955095505060606115068c828d016111a6565b93505060808a013567ffffffffffffffff81111561152757611526611158565b5b6115338c828d016113f3565b92509250509295985092959850929598565b6000806000806040858703121561155f5761155e611153565b5b600085013567ffffffffffffffff81111561157d5761157c611158565b5b61158987828801611347565b9450945050602085013567ffffffffffffffff8111156115ac576115ab611158565b5b6115b88782880161139d565b925092505092959194509250565b6115cf816111bb565b82525050565b600082825260208201905092915050565b50565b60006115f66000836115d5565b9150611601826115e6565b600082019050919050565b600061ffff82169050919050565b6116238161160c565b82525050565b600060a08201905061163e600083018761130e565b61164b602083018661130e565b61165860408301856115c6565b8181036060830152611669816115e9565b9050611678608083018461161a565b95945050505050565b6000819050919050565b60006116a66116a161169c84611681565b611267565b6111bb565b9050919050565b6116b68161168b565b82525050565b60006040820190506116d160008301856115c6565b6116de60208301846116ad565b9392505050565b600081905092915050565b60006116fd6000836116e5565b9150611708826115e6565b600082019050919050565b600061171e826116f0565b9150819050919050565b600081519050611737816111c5565b92915050565b60006020828403121561175357611752611153565b5b600061176184828501611728565b91505092915050565b600082825260208201905092915050565b7f43616c6c6261636b206f6e6c792066726f6d20504f4f4c000000000000000000600082015250565b60006117b160178361176a565b91506117bc8261177b565b602082019050919050565b600060208201905081810360008301526117e0816117a4565b9050919050565b7f43616c6c6261636b206f6e6c792066726f6d207468697320636f6e7472616374600082015250565b600061181d60208361176a565b9150611828826117e7565b602082019050919050565b6000602082019050818103600083015261184c81611810565b9050919050565b7f4e487b7100000000000000000000000000000000000000000000000000000000600052603260045260246000fd5b7f4e487b7100000000000000000000000000000000000000000000000000000000600052601160045260246000fd5b60006118bc826111bb565b91506118c7836111bb565b92508282019050808211156118df576118de611882565b5b92915050565b60006040820190506118fa600083018561130e565b61190760208301846115c6565b9392505050565b61191781611231565b811461192257600080fd5b50565b6000815190506119348161190e565b92915050565b6000602082840312156119505761194f611153565b5b600061195e84828501611925565b91505092915050565b7f4e487b7100000000000000000000000000000000000000000000000000000000600052604160045260246000fd5b600082825260208201905092915050565b6000819050919050565b6119ba8161117d565b82525050565b60006119cc83836119b1565b60208301905092915050565b60006119e760208401846111a6565b905092915050565b6000602082019050919050565b6000611a088385611996565b9350611a13826119a7565b8060005b85811015611a4c57611a2982846119d8565b611a3388826119c0565b9750611a3e836119ef565b925050600181019050611a17565b5085925050509392505050565b600082825260208201905092915050565b600080fd5b82818337505050565b6000611a848385611a59565b93507f07ffffffffffffffffffffffffffffffffffffffffffffffffffffffffffffff831115611ab757611ab6611a6a565b5b602083029250611ac8838584611a6f565b82840190509392505050565b600081519050919050565b6000819050602082019050919050565b611af8816111bb565b82525050565b6000611b0a8383611aef565b60208301905092915050565b6000602082019050919050565b6000611b2e82611ad4565b611b388185611a59565b9350611b4383611adf565b8060005b83811015611b74578151611b5b8882611afe565b9750611b6683611b16565b925050600181019050611b47565b5085935050505092915050565b600060e082019050611b96600083018b61130e565b8181036020830152611ba981898b6119fc565b90508181036040830152611bbe818789611a78565b90508181036060830152611bd28186611b23565b9050611be1608083018561130e565b81810360a0830152611bf2816115e9565b9050611c0160c083018461161a565b999850505050505050505056fea2646970667358221220fb3205a9e0c5945a60f4119af64119f89ea6518cd2b8eed2076d6a048785e25b64736f6c634300081c0033",
  "linkReferences": {},
  "deployedLinkReferences": {}
}