{
  "_format": "hh-sol-artifact-1",
  "contractName": "FlashloanV3",
  "sourceName": "contracts/flashloan/FlashloanV3.sol",
  "abi": [
    {
      "inputs": [
        {
          "internalType": "address",
          "name": "_pool",
          "type": "address"
        }
      ],
      "stateMutability": "nonpayable",
      "type": "constructor"
    },
    {
      "inputs": [],
      "name": "AmountTooLarge",
      "type": "error"
    },
    {
      "inputs": [],
      "name": "ContractPaused",
      "type": "error"
    },
    {
      "inputs": [],
      "name": "InsufficientBalance",
      "type": "error"
    },
    {
      "inputs": [],
      "name": "InvalidAmount",
      "type": "error"
    },
    {
      "inputs": [],
      "name": "InvalidToken",
      "type": "error"
    },
    {
      "inputs": [
        {
          "internalType": "address",
          "name": "owner",
          "type": "address"
        }
      ],
      "name": "OwnableInvalidOwner",
      "type": "error"
    },
    {
      "inputs": [
        {
          "internalType": "address",
          "name": "account",
          "type": "address"
        }
      ],
      "name": "OwnableUnauthorizedAccount",
      "type": "error"
    },
    {
      "inputs": [],
      "name": "ReentrancyGuardReentrantCall",
      "type": "error"
    },
    {
      "inputs": [
        {
          "internalType": "address",
          "name": "token",
          "type": "address"
        }
      ],
      "name": "SafeERC20FailedOperation",
      "type": "error"
    },
    {
      "inputs": [],
      "name": "TransferFailed",
      "type": "error"
    },
    {
      "anonymous": false,
      "inputs": [
        {
          "indexed": true,
          "internalType": "address",
          "name": "operator",
          "type": "address"
        }
      ],
      "name": "EmergencyPaused",
      "type": "event"
    },
    {
      "anonymous": false,
      "inputs": [
        {
          "indexed": true,
          "internalType": "address",
          "name": "operator",
          "type": "address"
        }
      ],
      "name": "EmergencyUnpaused",
      "type": "event"
    },
    {
      "anonymous": false,
      "inputs": [
        {
          "indexed": true,
          "internalType": "address",
          "name": "token",
          "type": "address"
        },
        {
          "indexed": false,
          "internalType": "uint256",
          "name": "amount",
          "type": "uint256"
        },
        {
          "indexed": false,
          "internalType": "uint256",
          "name": "fee",
          "type": "uint256"
        }
      ],
      "name": "FlashLoanExecuted",
      "type": "event"
    },
    {
      "anonymous": false,
      "inputs": [
        {
          "indexed": true,
          "internalType": "address",
          "name": "previousOwner",
          "type": "address"
        },
        {
          "indexed": true,
          "internalType": "address",
          "name": "newOwner",
          "type": "address"
        }
      ],
      "name": "OwnershipTransferred",
      "type": "event"
    },
    {
      "inputs": [],
      "name": "POOL",
      "outputs": [
        {
          "internalType": "contract IPool",
          "name": "",
          "type": "address"
        }
      ],
      "stateMutability": "view",
      "type": "function"
    },
    {
      "inputs": [
        {
          "internalType": "address",
          "name": "asset",
          "type": "address"
        },
        {
          "internalType": "uint256",
          "name": "amount",
          "type": "uint256"
        },
        {
          "internalType": "uint256",
          "name": "premium",
          "type": "uint256"
        },
        {
          "internalType": "address",
          "name": "initiator",
          "type": "address"
        },
        {
          "internalType": "bytes",
          "name": "params",
          "type": "bytes"
        }
      ],
      "name": "executeOperation",
      "outputs": [
        {
          "internalType": "bool",
          "name": "",
          "type": "bool"
        }
      ],
      "stateMutability": "nonpayable",
      "type": "function"
    },
    {
      "inputs": [
        {
          "internalType": "address[]",
          "name": "assets",
          "type": "address[]"
        },
        {
          "internalType": "uint256[]",
          "name": "amounts",
          "type": "uint256[]"
        },
        {
          "internalType": "uint256[]",
          "name": "premiums",
          "type": "uint256[]"
        },
        {
          "internalType": "address",
          "name": "initiator",
          "type": "address"
        },
        {
          "internalType": "bytes",
          "name": "params",
          "type": "bytes"
        }
      ],
      "name": "executeOperation",
      "outputs": [
        {
          "internalType": "bool",
          "name": "",
          "type": "bool"
        }
      ],
      "stateMutability": "nonpayable",
      "type": "function"
    },
    {
      "inputs": [
        {
          "internalType": "address[]",
          "name": "tokens",
          "type": "address[]"
        },
        {
          "internalType": "uint256[]",
          "name": "amounts",
          "type": "uint256[]"
        }
      ],
      "name": "flashloanMultiple",
      "outputs": [],
      "stateMutability": "nonpayable",
      "type": "function"
    },
    {
      "inputs": [
        {
          "internalType": "address",
          "name": "token",
          "type": "address"
        },
        {
          "internalType": "uint256",
          "name": "amount",
          "type": "uint256"
        }
      ],
      "name": "flashloanSimple",
      "outputs": [],
      "stateMutability": "nonpayable",
      "type": "function"
    },
    {
      "inputs": [],
      "name": "owner",
      "outputs": [
        {
          "internalType": "address",
          "name": "",
          "type": "address"
        }
      ],
      "stateMutability": "view",
      "type": "function"
    },
    {
      "inputs": [],
      "name": "pause",
      "outputs": [],
      "stateMutability": "nonpayable",
      "type": "function"
    },
    {
      "inputs": [],
      "name": "paused",
      "outputs": [
        {
          "internalType": "bool",
          "name": "",
          "type": "bool"
        }
      ],
      "stateMutability": "view",
      "type": "function"
    },
    {
      "inputs": [],
      "name": "renounceOwnership",
      "outputs": [],
      "stateMutability": "nonpayable",
      "type": "function"
    },
    {
      "inputs": [
        {
          "internalType": "address",
          "name": "newOwner",
          "type": "address"
        }
      ],
      "name": "transferOwnership",
      "outputs": [],
      "stateMutability": "nonpayable",
      "type": "function"
    },
    {
      "inputs": [],
      "name": "unpause",
      "outputs": [],
      "stateMutability": "nonpayable",
      "type": "function"
    },
    {
      "inputs": [
        {
          "internalType": "address",
          "name": "token",
          "type": "address"
        }
      ],
      "name": "withdrawToken",
      "outputs": [],
      "stateMutability": "nonpayable",
      "type": "function"
    },
    {
      "stateMutability": "payable",
      "type": "receive"
    }
  ],
  "bytecode": "0x60a060405234801561001057600080fd5b506040516113f23803806113f283398101604081905261002f916100eb565b338061005557604051631e4fbdf760e01b81526000600482015260240160405180910390fd5b61005e8161009b565b50600180556001600160a01b03811661008a5760405163c1ab6dc160e01b815260040160405180910390fd5b6001600160a01b031660805261011b565b600080546001600160a01b038381166001600160a01b0319831681178455604051919092169283917f8be0079c531659141344cd1fd0a4f28419497f9722a3daafe3b4186f6b6457e09190a35050565b6000602082840312156100fd57600080fd5b81516001600160a01b038116811461011457600080fd5b9392505050565b608051611292610160600039600081816101640152818161025e0152818161034501528181610557015281816107a6015281816108ef0152610b6701526112926000f3fe6080604052600436106100ab5760003560e01c80638456cb59116100645780638456cb591461019e57806389476069146101b35780638da5cb5b146101d3578063920f5c84146101f1578063f2fde38b14610211578063fe55818c1461023157600080fd5b80631b11d0ff146100b75780633f4ba83a146100ec5780635175988d146101035780635c975abb14610123578063715018a61461013d5780637535d2461461015257600080fd5b366100b257005b600080fd5b3480156100c357600080fd5b506100d76100d2366004610e4f565b610251565b60405190151581526020015b60405180910390f35b3480156100f857600080fd5b506101016103d4565b005b34801561010f57600080fd5b5061010161011e366004610ec7565b610413565b34801561012f57600080fd5b506002546100d79060ff1681565b34801561014957600080fd5b50610101610604565b34801561015e57600080fd5b506101867f000000000000000000000000000000000000000000000000000000000000000081565b6040516001600160a01b0390911681526020016100e3565b3480156101aa57600080fd5b50610101610618565b3480156101bf57600080fd5b506101016101ce366004610ef1565b61065a565b3480156101df57600080fd5b506000546001600160a01b0316610186565b3480156101fd57600080fd5b506100d761020c366004610f58565b610799565b34801561021d57600080fd5b5061010161022c366004610ef1565b61098b565b34801561023d57600080fd5b5061010161024c366004611043565b6109c6565b6000336001600160a01b037f000000000000000000000000000000000000000000000000000000000000000016146102ca5760405162461bcd60e51b815260206004820152601760248201527610d85b1b189858dac81bdb9b1e48199c9bdb481413d3d3604a1b60448201526064015b60405180910390fd5b6001600160a01b03841630146103225760405162461bcd60e51b815260206004820181905260248201527f43616c6c6261636b206f6e6c792066726f6d207468697320636f6e747261637460448201526064016102c1565b600061032e86886110b4565b60405163095ea7b360e01b81526001600160a01b037f000000000000000000000000000000000000000000000000000000000000000081166004830152602482018390529192509089169063095ea7b3906044016020604051808303816000875af11580156103a1573d6000803e3d6000fd5b505050506040513d601f19601f820116820180604052508101906103c591906110db565b50600198975050505050505050565b6103dc610c7b565b6002805460ff1916905560405133907ff5cbf596165cc457b2cd92e8d8450827ee314968160a5696402d75766fc52caf90600090a2565b61041b610c7b565b60025460ff161561043f5760405163ab35696f60e01b815260040160405180910390fd5b610447610ca8565b6001600160a01b03821661046e5760405163c1ab6dc160e01b815260040160405180910390fd5b8060000361048f5760405163162908e360e11b815260040160405180910390fd5b6b033b2e3c9fd0803ce80000008111156104bc57604051630625040160e01b815260040160405180910390fd5b60038054600160c01b67ffffffffffffffff428116600160801b026001600160c01b03199093166fffffffffffffffffffffffffffffffff861617929092178181048316600101909216026001600160c01b03919091161790556040516310ac2ddf60e21b81523060048201526001600160a01b0383811660248301526044820183905260a06064830152600060a4830181905260848301527f000000000000000000000000000000000000000000000000000000000000000016906342b0b77c9060c401600060405180830381600087803b15801561059b57600080fd5b505af11580156105af573d6000803e3d6000fd5b505060408051848152600060208201526001600160a01b03861693507f61268d74931c41c9775dffb6169a5208aab1d09cb2eb6aabe8b97162801e5dfa92500160405180910390a261060060018055565b5050565b61060c610c7b565b6106166000610cd2565b565b610620610c7b565b6002805460ff1916600117905560405133907fb8fad2fa0ed7a383e747c309ef2c4391d7b65592a48893e57ccc1fab7079145690600090a2565b610662610c7b565b61066a610ca8565b73eeeeeeeeeeeeeeeeeeeeeeeeeeeeeeeeeeeeeeed196001600160a01b03821601610701576040514790600090339083908381818185875af1925050503d80600081146106d3576040519150601f19603f3d011682016040523d82523d6000602084013e6106d8565b606091505b50509050806106fa576040516312171d8360e31b815260040160405180910390fd5b505061078d565b6040516370a0823160e01b815230600482015281906000906001600160a01b038316906370a0823190602401602060405180830381865afa15801561074a573d6000803e3d6000fd5b505050506040513d601f19601f8201168201806040525081019061076e91906110fd565b9050801561078a5761078a6001600160a01b0383163383610d22565b50505b61079660018055565b50565b6000336001600160a01b037f0000000000000000000000000000000000000000000000000000000000000000161461080d5760405162461bcd60e51b815260206004820152601760248201527610d85b1b189858dac81bdb9b1e48199c9bdb481413d3d3604a1b60448201526064016102c1565b6001600160a01b03841630146108655760405162461bcd60e51b815260206004820181905260248201527f43616c6c6261636b206f6e6c792066726f6d207468697320636f6e747261637460448201526064016102c1565b8860005b8181101561097757600088888381811061088557610885611116565b905060200201358b8b8481811061089e5761089e611116565b905060200201356108af91906110b4565b90508c8c838181106108c3576108c3611116565b90506020020160208101906108d89190610ef1565b60405163095ea7b360e01b81526001600160a01b037f00000000000000000000000000000000000000000000000000000000000000008116600483015260248201849052919091169063095ea7b3906044016020604051808303816000875af1158015610949573d6000803e3d6000fd5b505050506040513d601f19601f8201168201806040525081019061096d91906110db565b5050600101610869565b5060019150505b9998505050505050505050565b610993610c7b565b6001600160a01b0381166109bd57604051631e4fbdf760e01b8152600060048201526024016102c1565b61079681610cd2565b6109ce610c7b565b60025460ff16156109f25760405163ab35696f60e01b815260040160405180910390fd5b6109fa610ca8565b821580610a075750828114155b15610a255760405163162908e360e11b815260040160405180910390fd5b8260005b81811015610b07576000868683818110610a4557610a45611116565b9050602002016020810190610a5a9190610ef1565b6001600160a01b031603610a815760405163c1ab6dc160e01b815260040160405180910390fd5b838382818110610a9357610a93611116565b90506020020135600003610aba5760405163162908e360e11b815260040160405180910390fd5b6b033b2e3c9fd0803ce8000000848483818110610ad957610ad9611116565b905060200201351115610aff57604051630625040160e01b815260040160405180910390fd5b600101610a29565b5060008467ffffffffffffffff811115610b2357610b2361112c565b604051908082528060200260200182016040528015610b4c578160200160208202803683370190505b5060405163ab9c4b5d60e01b81529091506001600160a01b037f0000000000000000000000000000000000000000000000000000000000000000169063ab9c4b5d90610bab9030908a908a908a908a90899086906000906004016111b0565b600060405180830381600087803b158015610bc557600080fd5b505af1158015610bd9573d6000803e3d6000fd5b5050505085856000818110610bf057610bf0611116565b9050602002016020810190610c059190610ef1565b6001600160a01b03167f61268d74931c41c9775dffb6169a5208aab1d09cb2eb6aabe8b97162801e5dfa85856000818110610c4257610c42611116565b905060200201356000604051610c62929190918252602082015260400190565b60405180910390a25050610c7560018055565b50505050565b6000546001600160a01b031633146106165760405163118cdaa760e01b81523360048201526024016102c1565b600260015403610ccb57604051633ee5aeb560e01b815260040160405180910390fd5b6002600155565b600080546001600160a01b038381166001600160a01b0319831681178455604051919092169283917f8be0079c531659141344cd1fd0a4f28419497f9722a3daafe3b4186f6b6457e09190a35050565b604080516001600160a01b038416602482015260448082018490528251808303909101815260649091019091526020810180516001600160e01b031663a9059cbb60e01b179052610d74908490610d79565b505050565b600080602060008451602086016000885af180610d9c576040513d6000823e3d81fd5b50506000513d91508115610db4578060011415610dc1565b6001600160a01b0384163b155b15610c7557604051635274afe760e01b81526001600160a01b03851660048201526024016102c1565b80356001600160a01b0381168114610e0157600080fd5b919050565b60008083601f840112610e1857600080fd5b50813567ffffffffffffffff811115610e3057600080fd5b602083019150836020828501011115610e4857600080fd5b9250929050565b60008060008060008060a08789031215610e6857600080fd5b610e7187610dea565b95506020870135945060408701359350610e8d60608801610dea565b9250608087013567ffffffffffffffff811115610ea957600080fd5b610eb589828a01610e06565b979a9699509497509295939492505050565b60008060408385031215610eda57600080fd5b610ee383610dea565b946020939093013593505050565b600060208284031215610f0357600080fd5b610f0c82610dea565b9392505050565b60008083601f840112610f2557600080fd5b50813567ffffffffffffffff811115610f3d57600080fd5b6020830191508360208260051b8501011115610e4857600080fd5b600080600080600080600080600060a08a8c031215610f7657600080fd5b893567ffffffffffffffff811115610f8d57600080fd5b610f998c828d01610f13565b909a5098505060208a013567ffffffffffffffff811115610fb957600080fd5b610fc58c828d01610f13565b90985096505060408a013567ffffffffffffffff811115610fe557600080fd5b610ff18c828d01610f13565b9096509450611004905060608b01610dea565b925060808a013567ffffffffffffffff81111561102057600080fd5b61102c8c828d01610e06565b915080935050809150509295985092959850929598565b6000806000806040858703121561105957600080fd5b843567ffffffffffffffff81111561107057600080fd5b61107c87828801610f13565b909550935050602085013567ffffffffffffffff81111561109c57600080fd5b6110a887828801610f13565b95989497509550505050565b808201808211156110d557634e487b7160e01b600052601160045260246000fd5b92915050565b6000602082840312156110ed57600080fd5b81518015158114610f0c57600080fd5b60006020828403121561110f57600080fd5b5051919050565b634e487b7160e01b600052603260045260246000fd5b634e487b7160e01b600052604160045260246000fd5b81835260006001600160fb1b0383111561115b57600080fd5b8260051b80836020870137939093016020019392505050565b600081518084526020840193506020830160005b828110156111a6578151865260209586019590910190600101611188565b5093949350505050565b6001600160a01b038916815260e06020820181905281018790526000886101008301825b8a811015611202576001600160a01b036111ed84610dea565b168252602092830192909101906001016111d4565b50838103604085015261121681898b611142565b915050828103606084015261122b8187611174565b6001600160a01b038616608085015283810360a08501526000815261ffff851660c0850152602001915061097e905056fea2646970667358221220a5c9c47d63c53dad1dd77c42310631b8a22cf15ef643a4aea8f05b5f9c1dc91464736f6c634300081c0033",
  "linkReferences": {},
  "deployedLinkReferences": {}
}