{
  "_format": "hh-sol-artifact-1",
  "contractName": "FlashloanV3",
  "sourceName": "contracts/flashloan/FlashloanV3.sol",
  "abi": [
    {
      "inputs": [
        {
          "internalType": "address",
          "name": "_pool",
          "type": "address"
        }
      ],
      "stateMutability": "nonpayable",
      "type": "constructor"
    },
    {
      "inputs": [],
      "name": "AmountTooLarge",
      "type": "error"
    },
    {
      "inputs": [],
      "name": "ContractPaused",
      "type": "error"
    },
    {
      "inputs": [],
      "name": "InsufficientBalance",
      "type": "error"
    },
    {
      "inputs": [],
      "name": "InvalidAmount",
      "type": "error"
    },
    {
      "inputs": [],
      "name": "InvalidToken",
      "type": "error"
    },
    {
      "inputs": [
        {
          "internalType": "address",
          "name": "owner",
          "type": "address"
        }
      ],
      "name": "OwnableInvalidOwner",
      "type": "error"
    },
    {
      "inputs": [
        {
          "internalType": "address",
          "name": "account",
          "type": "address"
        }
      ],
      "name": "OwnableUnauthorizedAccount",
      "type": "error"
    },
    {
      "inputs": [],
      "name": "ReentrancyGuardReentrantCall",
      "type": "error"
    },
    {
      "inputs": [
        {
          "internalType": "address",
          "name": "token",
          "type": "address"
        }
      ],
      "name": "SafeERC20FailedOperation",
      "type": "error"
    },
    {
      "inputs": [],
      "name": "TransferFailed",
      "type": "error"
    },
    {
      "anonymous": false,
      "inputs": [
        {
          "indexed": true,
          "internalType": "address",
          "name": "operator",
          "type": "address"
        }
      ],
      "name": "EmergencyPaused",
      "type": "event"
    },
    {
      "anonymous": false,
      "inputs": [
        {
          "indexed": true,
          "internalType": "address",
          "name": "operator",
          "type": "address"
        }
      ],
      "name": "EmergencyUnpaused",
      "type": "event"
    },
    {
      "anonymous": false,
      "inputs": [
        {
          "indexed": true,
          "internalType": "address",
          "name": "token",
          "type": "address"
        },
        {
          "indexed": false,
          "internalType": "uint256",
          "name": "amount",
          "type": "uint256"
        },
        {
          "indexed": false,
          "internalType": "uint256",
          "name": "fee",
          "type": "uint256"
        }
      ],
      "name": "FlashLoanExecuted",
      "type": "event"
    },
    {
      "anonymous": false,
      "inputs": [
        {
          "indexed": true,
          "internalType": "address",
          "name": "previousOwner",
          "type": "address"
        },
        {
          "indexed": true,
          "internalType": "address",
          "name": "newOwner",
          "type": "address"
        }
      ],
      "name": "OwnershipTransferred",
      "type": "event"
    },
    {
      "inputs": [],
      "name": "POOL",
      "outputs": [
        {
          "internalType": "contract IPool",
          "name": "",
          "type": "address"
        }
      ],
      "stateMutability": "view",
      "type": "function"
    },
    {
      "inputs": [
        {
          "internalType": "address",
          "name": "asset",
          "type": "address"
        },
        {
          "internalType": "uint256",
          "name": "amount",
          "type": "uint256"
        },
        {
          "internalType": "uint256",
          "name": "premium",
          "type": "uint256"
        },
        {
          "internalType": "address",
          "name": "initiator",
          "type": "address"
        },
        {
          "internalType": "bytes",
          "name": "params",
          "type": "bytes"
        }
      ],
      "name": "executeOperation",
      "outputs": [
        {
          "internalType": "bool",
          "name": "",
          "type": "bool"
        }
      ],
      "stateMutability": "nonpayable",
      "type": "function"
    },
    {
      "inputs": [
        {
          "internalType": "address[]",
          "name": "assets",
          "type": "address[]"
        },
        {
          "internalType": "uint256[]",
          "name": "amounts",
          "type": "uint256[]"
        },
        {
          "internalType": "uint256[]",
          "name": "premiums",
          "type": "uint256[]"
        },
        {
          "internalType": "address",
          "name": "initiator",
          "type": "address"
        },
        {
          "internalType": "bytes",
          "name": "params",
          "type": "bytes"
        }
      ],
      "name": "executeOperation",
      "outputs": [
        {
          "internalType": "bool",
          "name": "",
          "type": "bool"
        }
      ],
      "stateMutability": "nonpayable",
      "type": "function"
    },
    {
      "inputs": [
        {
          "internalType": "address[]",
          "name": "tokens",
          "type": "address[]"
        },
        {
          "internalType": "uint256[]",
          "name": "amounts",
          "type": "uint256[]"
        }
      ],
      "name": "flashloanMultiple",
      "outputs": [],
      "stateMutability": "nonpayable",
      "type": "function"
    },
    {
      "inputs": [
        {
          "internalType": "address",
          "name": "token",
          "type": "address"
        },
        {
          "internalType": "uint256",
          "name": "amount",
          "type": "uint256"
        }
      ],
      "name": "flashloanSimple",
      "outputs": [],
      "stateMutability": "nonpayable",
      "type": "function"
    },
    {
      "inputs": [],
      "name": "owner",
      "outputs": [
        {
          "internalType": "address",
          "name": "",
          "type": "address"
        }
      ],
      "stateMutability": "view",
      "type": "function"
    },
    {
      "inputs": [],
      "name": "pause",
      "outputs": [],
      "stateMutability": "nonpayable",
      "type": "function"
    },
    {
      "inputs": [],
      "name": "paused",
      "outputs": [
        {
          "internalType": "bool",
          "name": "",
          "type": "bool"
        }
      ],
      "stateMutability": "view",
      "type": "function"
    },
    {
      "inputs": [],
      "name": "renounceOwnership",
      "outputs": [],
      "stateMutability": "nonpayable",
      "type": "function"
    },
    {
      "inputs": [
        {
          "internalType": "address",
          "name": "newOwner",
          "type": "address"
        }
      ],
      "name": "transferOwnership",
      "outputs": [],
      "stateMutability": "nonpayable",
      "type": "function"
    },
    {
      "inputs": [],
      "name": "unpause",
      "outputs": [],
      "stateMutability": "nonpayable",
      "type": "function"
    },
    {
      "inputs": [
        {
          "internalType": "address",
          "name": "token",
          "type": "address"
        }
      ],
      "name": "withdrawToken",
      "outputs": [],
      "stateMutability": "nonpayable",
      "type": "function"
    },
    {
      "stateMutability": "payable",
      "type": "receive"
    }
  ],
  "bytecode": "0x60a060405234801561001057600080fd5b5060405161220138038061220183398181016040528101906100329190610283565b33600073ffffffffffffffffffffffffffffffffffffffff168173ffffffffffffffffffffffffffffffffffffffff16036100a55760006040517f1e4fbdf700000000000000000000000000000000000000000000000000000000815260040161009c91906102bf565b60405180910390fd5b6100b48161015c60201b60201c565b5060018081905550600073ffffffffffffffffffffffffffffffffffffffff168173ffffffffffffffffffffffffffffffffffffffff1603610122576040517fc1ab6dc100000000000000000000000000000000000000000000000000000000815260040160405180910390fd5b8073ffffffffffffffffffffffffffffffffffffffff1660808173ffffffffffffffffffffffffffffffffffffffff1681525050506102da565b60008060009054906101000a900473ffffffffffffffffffffffffffffffffffffffff169050816000806101000a81548173ffffffffffffffffffffffffffffffffffffffff021916908373ffffffffffffffffffffffffffffffffffffffff1602179055508173ffffffffffffffffffffffffffffffffffffffff168173ffffffffffffffffffffffffffffffffffffffff167f8be0079c531659141344cd1fd0a4f28419497f9722a3daafe3b4186f6b6457e060405160405180910390a35050565b600080fd5b600073ffffffffffffffffffffffffffffffffffffffff82169050919050565b600061025082610225565b9050919050565b61026081610245565b811461026b57600080fd5b50565b60008151905061027d81610257565b92915050565b60006020828403121561029957610298610220565b5b60006102a78482850161026e565b91505092915050565b6102b981610245565b82525050565b60006020820190506102d460008301846102b0565b92915050565b608051611ee261031f6000396000818161029f015281816103c7015281816106b0015281816107c601528181610a4901528181610bdd0152610f590152611ee26000f3fe6080604052600436106100ab5760003560e01c80638456cb59116100645780638456cb59146101a157806389476069146101b85780638da5cb5b146101e1578063920f5c841461020c578063f2fde38b14610249578063fe55818c14610272576100b2565b80631b11d0ff146100b75780633f4ba83a146100f45780635175988d1461010b5780635c975abb14610134578063715018a61461015f5780637535d24614610176576100b2565b366100b257005b600080fd5b3480156100c357600080fd5b506100de60048036038101906100d9919061145a565b61029b565b6040516100eb919061150f565b60405180910390f35b34801561010057600080fd5b50610109610457565b005b34801561011757600080fd5b50610132600480360381019061012d919061152a565b6104bf565b005b34801561014057600080fd5b5061014961079d565b604051610156919061150f565b60405180910390f35b34801561016b57600080fd5b506101746107b0565b005b34801561018257600080fd5b5061018b6107c4565b60405161019891906115c9565b60405180910390f35b3480156101ad57600080fd5b506101b66107e8565b005b3480156101c457600080fd5b506101df60048036038101906101da91906115e4565b610850565b005b3480156101ed57600080fd5b506101f6610a1c565b6040516102039190611620565b60405180910390f35b34801561021857600080fd5b50610233600480360381019061022e91906116e7565b610a45565b604051610240919061150f565b60405180910390f35b34801561025557600080fd5b50610270600480360381019061026b91906115e4565b610c7d565b005b34801561027e57600080fd5b50610299600480360381019061029491906117e3565b610d03565b005b60007f000000000000000000000000000000000000000000000000000000000000000073ffffffffffffffffffffffffffffffffffffffff163373ffffffffffffffffffffffffffffffffffffffff161461032b576040517f08c379a0000000000000000000000000000000000000000000000000000000008152600401610322906118c1565b60405180910390fd5b3073ffffffffffffffffffffffffffffffffffffffff168473ffffffffffffffffffffffffffffffffffffffff1614610399576040517f08c379a00000000000000000000000000000000000000000000000000000000081526004016103909061192d565b60405180910390fd5b600085876103a7919061197c565b90508773ffffffffffffffffffffffffffffffffffffffff1663095ea7b37f0000000000000000000000000000000000000000000000000000000000000000836040518363ffffffff1660e01b81526004016104049291906119bf565b6020604051808303816000875af1158015610423573d6000803e3d6000fd5b505050506040513d601f19601f820116820180604052508101906104479190611a14565b5060019150509695505050505050565b61045f611094565b6000600260006101000a81548160ff0219169083151502179055503373ffffffffffffffffffffffffffffffffffffffff167ff5cbf596165cc457b2cd92e8d8450827ee314968160a5696402d75766fc52caf60405160405180910390a2565b6104c7611094565b600260009054906101000a900460ff161561050e576040517fab35696f00000000000000000000000000000000000000000000000000000000815260040160405180910390fd5b61051661111b565b600073ffffffffffffffffffffffffffffffffffffffff168273ffffffffffffffffffffffffffffffffffffffff160361057c576040517fc1ab6dc100000000000000000000000000000000000000000000000000000000815260040160405180910390fd5b600081036105b6576040517f2c5211c600000000000000000000000000000000000000000000000000000000815260040160405180910390fd5b6b033b2e3c9fd0803ce80000008111156105fc576040517f0625040100000000000000000000000000000000000000000000000000000000815260040160405180910390fd5b80600360000160006101000a8154816fffffffffffffffffffffffffffffffff02191690836fffffffffffffffffffffffffffffffff16021790555042600360000160106101000a81548167ffffffffffffffff021916908367ffffffffffffffff1602179055506003600001601881819054906101000a900467ffffffffffffffff168092919060010191906101000a81548167ffffffffffffffff021916908367ffffffffffffffff160217905550507f000000000000000000000000000000000000000000000000000000000000000073ffffffffffffffffffffffffffffffffffffffff166342b0b77c30848460006040518563ffffffff1660e01b815260040161070e9493929190611a95565b600060405180830381600087803b15801561072857600080fd5b505af115801561073c573d6000803e3d6000fd5b505050508173ffffffffffffffffffffffffffffffffffffffff167f61268d74931c41c9775dffb6169a5208aab1d09cb2eb6aabe8b97162801e5dfa826000604051610789929190611b28565b60405180910390a2610799611161565b5050565b600260009054906101000a900460ff1681565b6107b8611094565b6107c2600061116a565b565b7f000000000000000000000000000000000000000000000000000000000000000081565b6107f0611094565b6001600260006101000a81548160ff0219169083151502179055503373ffffffffffffffffffffffffffffffffffffffff167fb8fad2fa0ed7a383e747c309ef2c4391d7b65592a48893e57ccc1fab7079145660405160405180910390a2565b610858611094565b61086061111b565b73eeeeeeeeeeeeeeeeeeeeeeeeeeeeeeeeeeeeeeee73ffffffffffffffffffffffffffffffffffffffff168173ffffffffffffffffffffffffffffffffffffffff160361095657600047905060003373ffffffffffffffffffffffffffffffffffffffff16826040516108d290611b7f565b60006040518083038185875af1925050503d806000811461090f576040519150601f19603f3d011682016040523d82523d6000602084013e610914565b606091505b505090508061094f576040517f90b8ec1800000000000000000000000000000000000000000000000000000000815260040160405180910390fd5b5050610a11565b600081905060008173ffffffffffffffffffffffffffffffffffffffff166370a08231306040518263ffffffff1660e01b81526004016109969190611620565b602060405180830381865afa1580156109b3573d6000803e3d6000fd5b505050506040513d601f19601f820116820180604052508101906109d79190611ba9565b90506000811115610a0e57610a0d33828473ffffffffffffffffffffffffffffffffffffffff1661122e9092919063ffffffff16565b5b50505b610a19611161565b50565b60008060009054906101000a900473ffffffffffffffffffffffffffffffffffffffff16905090565b60007f000000000000000000000000000000000000000000000000000000000000000073ffffffffffffffffffffffffffffffffffffffff163373ffffffffffffffffffffffffffffffffffffffff1614610ad5576040517f08c379a0000000000000000000000000000000000000000000000000000000008152600401610acc906118c1565b60405180910390fd5b3073ffffffffffffffffffffffffffffffffffffffff168473ffffffffffffffffffffffffffffffffffffffff1614610b43576040517f08c379a0000000000000000000000000000000000000000000000000000000008152600401610b3a9061192d565b60405180910390fd5b60008a8a9050905060005b81811015610c6a576000888883818110610b6b57610b6a611bd6565b5b905060200201358b8b84818110610b8557610b84611bd6565b5b90506020020135610b96919061197c565b90508c8c83818110610bab57610baa611bd6565b5b9050602002016020810190610bc091906115e4565b73ffffffffffffffffffffffffffffffffffffffff1663095ea7b37f0000000000000000000000000000000000000000000000000000000000000000836040518363ffffffff1660e01b8152600401610c1a9291906119bf565b6020604051808303816000875af1158015610c39573d6000803e3d6000fd5b505050506040513d601f19601f82011682018060405250810190610c5d9190611a14565b5081600101915050610b4e565b5060019150509998505050505050505050565b610c85611094565b600073ffffffffffffffffffffffffffffffffffffffff168173ffffffffffffffffffffffffffffffffffffffff1603610cf75760006040517f1e4fbdf7000000000000000000000000000000000000000000000000000000008152600401610cee9190611620565b60405180910390fd5b610d008161116a565b50565b610d0b611094565b600260009054906101000a900460ff1615610d52576040517fab35696f00000000000000000000000000000000000000000000000000000000815260040160405180910390fd5b610d5a61111b565b6000848490501480610d725750818190508484905014155b15610da9576040517f2c5211c600000000000000000000000000000000000000000000000000000000815260040160405180910390fd5b600084849050905060005b81811015610f0657600073ffffffffffffffffffffffffffffffffffffffff16868683818110610de757610de6611bd6565b5b9050602002016020810190610dfc91906115e4565b73ffffffffffffffffffffffffffffffffffffffff1603610e49576040517fc1ab6dc100000000000000000000000000000000000000000000000000000000815260040160405180910390fd5b6000848483818110610e5e57610e5d611bd6565b5b9050602002013503610e9c576040517f2c5211c600000000000000000000000000000000000000000000000000000000815260040160405180910390fd5b6b033b2e3c9fd0803ce8000000848483818110610ebc57610ebb611bd6565b5b905060200201351115610efb576040517f0625040100000000000000000000000000000000000000000000000000000000815260040160405180910390fd5b806001019050610db4565b5060008585905067ffffffffffffffff811115610f2657610f25611c05565b5b604051908082528060200260200182016040528015610f545781602001602082028036833780820191505090505b5090507f000000000000000000000000000000000000000000000000000000000000000073ffffffffffffffffffffffffffffffffffffffff1663ab9c4b5d3088888888873060006040518963ffffffff1660e01b8152600401610fbf989796959493929190611e1f565b600060405180830381600087803b158015610fd957600080fd5b505af1158015610fed573d6000803e3d6000fd5b505050508585600081811061100557611004611bd6565b5b905060200201602081019061101a91906115e4565b73ffffffffffffffffffffffffffffffffffffffff167f61268d74931c41c9775dffb6169a5208aab1d09cb2eb6aabe8b97162801e5dfa8585600081811061106557611064611bd6565b5b90506020020135600060405161107c929190611b28565b60405180910390a2505061108e611161565b50505050565b61109c6112ad565b73ffffffffffffffffffffffffffffffffffffffff166110ba610a1c565b73ffffffffffffffffffffffffffffffffffffffff1614611119576110dd6112ad565b6040517f118cdaa70000000000000000000000000000000000000000000000000000000081526004016111109190611620565b60405180910390fd5b565b600260015403611157576040517f3ee5aeb500000000000000000000000000000000000000000000000000000000815260040160405180910390fd5b6002600181905550565b60018081905550565b60008060009054906101000a900473ffffffffffffffffffffffffffffffffffffffff169050816000806101000a81548173ffffffffffffffffffffffffffffffffffffffff021916908373ffffffffffffffffffffffffffffffffffffffff1602179055508173ffffffffffffffffffffffffffffffffffffffff168173ffffffffffffffffffffffffffffffffffffffff167f8be0079c531659141344cd1fd0a4f28419497f9722a3daafe3b4186f6b6457e060405160405180910390a35050565b6112a8838473ffffffffffffffffffffffffffffffffffffffff1663a9059cbb85856040516024016112619291906119bf565b604051602081830303815290604052915060e01b6020820180517bffffffffffffffffffffffffffffffffffffffffffffffffffffffff83818316178352505050506112b5565b505050565b600033905090565b600080602060008451602086016000885af1806112d8576040513d6000823e3d81fd5b3d9250600051915050600082146112f357600181141561130f565b60008473ffffffffffffffffffffffffffffffffffffffff163b145b1561135157836040517f5274afe70000000000000000000000000000000000000000000000000000000081526004016113489190611620565b60405180910390fd5b50505050565b600080fd5b600080fd5b600073ffffffffffffffffffffffffffffffffffffffff82169050919050565b600061138c82611361565b9050919050565b61139c81611381565b81146113a757600080fd5b50565b6000813590506113b981611393565b92915050565b6000819050919050565b6113d2816113bf565b81146113dd57600080fd5b50565b6000813590506113ef816113c9565b92915050565b600080fd5b600080fd5b600080fd5b60008083601f84011261141a576114196113f5565b5b8235905067ffffffffffffffff811115611437576114366113fa565b5b602083019150836001820283011115611453576114526113ff565b5b9250929050565b60008060008060008060a0878903121561147757611476611357565b5b600061148589828a016113aa565b965050602061149689828a016113e0565b95505060406114a789828a016113e0565b94505060606114b889828a016113aa565b935050608087013567ffffffffffffffff8111156114d9576114d861135c565b5b6114e589828a01611404565b92509250509295509295509295565b60008115159050919050565b611509816114f4565b82525050565b60006020820190506115246000830184611500565b92915050565b6000806040838503121561154157611540611357565b5b600061154f858286016113aa565b9250506020611560858286016113e0565b9150509250929050565b6000819050919050565b600061158f61158a61158584611361565b61156a565b611361565b9050919050565b60006115a182611574565b9050919050565b60006115b382611596565b9050919050565b6115c3816115a8565b82525050565b60006020820190506115de60008301846115ba565b92915050565b6000602082840312156115fa576115f9611357565b5b6000611608848285016113aa565b91505092915050565b61161a81611381565b82525050565b60006020820190506116356000830184611611565b92915050565b60008083601f840112611651576116506113f5565b5b8235905067ffffffffffffffff81111561166e5761166d6113fa565b5b60208301915083602082028301111561168a576116896113ff565b5b9250929050565b60008083601f8401126116a7576116a66113f5565b5b8235905067ffffffffffffffff8111156116c4576116c36113fa565b5b6020830191508360208202830111156116e0576116df6113ff565b5b9250929050565b600080600080600080600080600060a08a8c03121561170957611708611357565b5b60008a013567ffffffffffffffff8111156117275761172661135c565b5b6117338c828d0161163b565b995099505060208a013567ffffffffffffffff8111156117565761175561135c565b5b6117628c828d01611691565b975097505060408a013567ffffffffffffffff8111156117855761178461135c565b5b6117918c828d01611691565b955095505060606117a48c828d016113aa565b93505060808a013567ffffffffffffffff8111156117c5576117c461135c565b5b6117d18c828d01611404565b92509250509295985092959850929598565b600080600080604085870312156117fd576117fc611357565b5b600085013567ffffffffffffffff81111561181b5761181a61135c565b5b6118278782880161163b565b9450945050602085013567ffffffffffffffff81111561184a5761184961135c565b5b61185687828801611691565b925092505092959194509250565b600082825260208201905092915050565b7f43616c6c6261636b206f6e6c792066726f6d20504f4f4c000000000000000000600082015250565b60006118ab601783611864565b91506118b682611875565b602082019050919050565b600060208201905081810360008301526118da8161189e565b9050919050565b7f43616c6c6261636b206f6e6c792066726f6d207468697320636f6e7472616374600082015250565b6000611917602083611864565b9150611922826118e1565b602082019050919050565b600060208201905081810360008301526119468161190a565b9050919050565b7f4e487b7100000000000000000000000000000000000000000000000000000000600052601160045260246000fd5b6000611987826113bf565b9150611992836113bf565b92508282019050808211156119aa576119a961194d565b5b92915050565b6119b9816113bf565b82525050565b60006040820190506119d46000830185611611565b6119e160208301846119b0565b9392505050565b6119f1816114f4565b81146119fc57600080fd5b50565b600081519050611a0e816119e8565b92915050565b600060208284031215611a2a57611a29611357565b5b6000611a38848285016119ff565b91505092915050565b600082825260208201905092915050565b50565b6000611a62600083611a41565b9150611a6d82611a52565b600082019050919050565b600061ffff82169050919050565b611a8f81611a78565b82525050565b600060a082019050611aaa6000830187611611565b611ab76020830186611611565b611ac460408301856119b0565b8181036060830152611ad581611a55565b9050611ae46080830184611a86565b95945050505050565b6000819050919050565b6000611b12611b0d611b0884611aed565b61156a565b6113bf565b9050919050565b611b2281611af7565b82525050565b6000604082019050611b3d60008301856119b0565b611b4a6020830184611b19565b9392505050565b600081905092915050565b6000611b69600083611b51565b9150611b7482611a52565b600082019050919050565b6000611b8a82611b5c565b9150819050919050565b600081519050611ba3816113c9565b92915050565b600060208284031215611bbf57611bbe611357565b5b6000611bcd84828501611b94565b91505092915050565b7f4e487b7100000000000000000000000000000000000000000000000000000000600052603260045260246000fd5b7f4e487b7100000000000000000000000000000000000000000000000000000000600052604160045260246000fd5b600082825260208201905092915050565b6000819050919050565b611c5881611381565b82525050565b6000611c6a8383611c4f565b60208301905092915050565b6000611c8560208401846113aa565b905092915050565b6000602082019050919050565b6000611ca68385611c34565b9350611cb182611c45565b8060005b85811015611cea57611cc78284611c76565b611cd18882611c5e565b9750611cdc83611c8d565b925050600181019050611cb5565b5085925050509392505050565b600082825260208201905092915050565b600080fd5b82818337505050565b6000611d228385611cf7565b93507f07ffffffffffffffffffffffffffffffffffffffffffffffffffffffffffffff831115611d5557611d54611d08565b5b602083029250611d66838584611d0d565b82840190509392505050565b600081519050919050565b6000819050602082019050919050565b611d96816113bf565b82525050565b6000611da88383611d8d565b60208301905092915050565b6000602082019050919050565b6000611dcc82611d72565b611dd68185611cf7565b9350611de183611d7d565b8060005b83811015611e12578151611df98882611d9c565b9750611e0483611db4565b925050600181019050611de5565b5085935050505092915050565b600060e082019050611e34600083018b611611565b8181036020830152611e4781898b611c9a565b90508181036040830152611e5c818789611d16565b90508181036060830152611e708186611dc1565b9050611e7f6080830185611611565b81810360a0830152611e9081611a55565b9050611e9f60c0830184611a86565b999850505050505050505056fea26469706673582212204fcdb41b5ed248c2cd8b70cfb89cdcb802f38f64a407e31d81d2d8d21e9063c564736f6c634300081c0033",
  "linkReferences": {},
  "deployedLinkReferences": {}
}