{
  "_format": "hh-sol-artifact-1",
  "contractName": "MockUniswapV1Router",
  "sourceName": "contracts/mocks/MockUniswapV1Router.sol",
  "abi": [
    {
      "inputs": [
        {
          "internalType": "address",
          "name": "_token",
          "type": "address"
        }
      ],
      "stateMutability": "nonpayable",
      "type": "constructor"
    },
    {
      "inputs": [
        {
          "internalType": "uint256",
          "name": "minTokens",
          "type": "uint256"
        },
        {
          "internalType": "uint256",
          "name": "",
          "type": "uint256"
        }
      ],
      "name": "ethToTokenSwapInput",
      "outputs": [
        {
          "internalType": "uint256",
          "name": "",
          "type": "uint256"
        }
      ],
      "stateMutability": "payable",
      "type": "function"
    },
    {
      "inputs": [],
      "name": "token",
      "outputs": [
        {
          "internalType": "contract IERC20",
          "name": "",
          "type": "address"
        }
      ],
      "stateMutability": "view",
      "type": "function"
    },
    {
      "stateMutability": "payable",
      "type": "receive"
    }
  ],
  "bytecode": "0x6080604052348015600f57600080fd5b506040516102e53803806102e5833981016040819052602c916050565b600080546001600160a01b0319166001600160a01b0392909216919091179055607e565b600060208284031215606157600080fd5b81516001600160a01b0381168114607757600080fd5b9392505050565b6102588061008d6000396000f3fe60806040526004361061002d5760003560e01c8063f39b5b9b14610039578063fc0c546a1461005f57600080fd5b3661003457005b600080fd5b61004c6100473660046101b9565b610097565b6040519081526020015b60405180910390f35b34801561006b57600080fd5b5060005461007f906001600160a01b031681565b6040516001600160a01b039091168152602001610056565b6000806100a6346103e86101db565b9050838110156100fd5760405162461bcd60e51b815260206004820152601a60248201527f496e73756666696369656e74206f757470757420616d6f756e7400000000000060448201526064015b60405180910390fd5b60005460405163a9059cbb60e01b8152336004820152602481018390526001600160a01b039091169063a9059cbb906044016020604051808303816000875af115801561014e573d6000803e3d6000fd5b505050506040513d601f19601f820116820180604052508101906101729190610200565b6101b05760405162461bcd60e51b815260206004820152600f60248201526e151c985b9cd9995c8819985a5b1959608a1b60448201526064016100f4565b90505b92915050565b600080604083850312156101cc57600080fd5b50508035926020909101359150565b80820281158282048414176101b357634e487b7160e01b600052601160045260246000fd5b60006020828403121561021257600080fd5b815180151581146101b057600080fdfea264697066735822122006c2510be27abf4b93a9fae33162bfbe06d1b0c76adadfe51cee83dfe83db3de64736f6c634300081c0033",
  "linkReferences": {},
  "deployedLinkReferences": {}
}