{
  "_format": "hh-sol-artifact-1",
  "contractName": "MockUniswapV1Router",
  "sourceName": "contracts/mocks/MockUniswapV1Router.sol",
  "abi": [
    {
      "inputs": [
        {
          "internalType": "address",
          "name": "_token",
          "type": "address"
        }
      ],
      "stateMutability": "nonpayable",
      "type": "constructor"
    },
    {
      "inputs": [
        {
          "internalType": "uint256",
          "name": "minTokens",
          "type": "uint256"
        },
        {
          "internalType": "uint256",
          "name": "",
          "type": "uint256"
        }
      ],
      "name": "ethToTokenSwapInput",
      "outputs": [
        {
          "internalType": "uint256",
          "name": "",
          "type": "uint256"
        }
      ],
      "stateMutability": "payable",
      "type": "function"
    },
    {
      "inputs": [],
      "name": "token",
      "outputs": [
        {
          "internalType": "contract IERC20",
          "name": "",
          "type": "address"
        }
      ],
      "stateMutability": "view",
      "type": "function"
    },
    {
      "stateMutability": "payable",
      "type": "receive"
    }
  ],
  "bytecode": "0x608060405234801561001057600080fd5b5060405161068a38038061068a833981810160405281019061003291906100db565b806000806101000a81548173ffffffffffffffffffffffffffffffffffffffff021916908373ffffffffffffffffffffffffffffffffffffffff16021790555050610108565b600080fd5b600073ffffffffffffffffffffffffffffffffffffffff82169050919050565b60006100a88261007d565b9050919050565b6100b88161009d565b81146100c357600080fd5b50565b6000815190506100d5816100af565b92915050565b6000602082840312156100f1576100f0610078565b5b60006100ff848285016100c6565b91505092915050565b610573806101176000396000f3fe60806040526004361061002d5760003560e01c8063f39b5b9b14610039578063fc0c546a1461006957610034565b3661003457005b600080fd5b610053600480360381019061004e9190610230565b610094565b604051610060919061027f565b60405180910390f35b34801561007557600080fd5b5061007e6101d1565b60405161008b9190610319565b60405180910390f35b6000806103e8346100a59190610363565b9050838110156100ea576040517f08c379a00000000000000000000000000000000000000000000000000000000081526004016100e190610402565b60405180910390fd5b60008054906101000a900473ffffffffffffffffffffffffffffffffffffffff1673ffffffffffffffffffffffffffffffffffffffff1663a9059cbb33836040518363ffffffff1660e01b8152600401610145929190610443565b6020604051808303816000875af1158015610164573d6000803e3d6000fd5b505050506040513d601f19601f8201168201806040525081019061018891906104a4565b6101c7576040517f08c379a00000000000000000000000000000000000000000000000000000000081526004016101be9061051d565b60405180910390fd5b8091505092915050565b60008054906101000a900473ffffffffffffffffffffffffffffffffffffffff1681565b600080fd5b6000819050919050565b61020d816101fa565b811461021857600080fd5b50565b60008135905061022a81610204565b92915050565b60008060408385031215610247576102466101f5565b5b60006102558582860161021b565b92505060206102668582860161021b565b9150509250929050565b610279816101fa565b82525050565b60006020820190506102946000830184610270565b92915050565b600073ffffffffffffffffffffffffffffffffffffffff82169050919050565b6000819050919050565b60006102df6102da6102d58461029a565b6102ba565b61029a565b9050919050565b60006102f1826102c4565b9050919050565b6000610303826102e6565b9050919050565b610313816102f8565b82525050565b600060208201905061032e600083018461030a565b92915050565b7f4e487b7100000000000000000000000000000000000000000000000000000000600052601160045260246000fd5b600061036e826101fa565b9150610379836101fa565b9250828202610387816101fa565b9150828204841483151761039e5761039d610334565b5b5092915050565b600082825260208201905092915050565b7f496e73756666696369656e74206f757470757420616d6f756e74000000000000600082015250565b60006103ec601a836103a5565b91506103f7826103b6565b602082019050919050565b6000602082019050818103600083015261041b816103df565b9050919050565b600061042d8261029a565b9050919050565b61043d81610422565b82525050565b60006040820190506104586000830185610434565b6104656020830184610270565b9392505050565b60008115159050919050565b6104818161046c565b811461048c57600080fd5b50565b60008151905061049e81610478565b92915050565b6000602082840312156104ba576104b96101f5565b5b60006104c88482850161048f565b91505092915050565b7f5472616e73666572206661696c65640000000000000000000000000000000000600082015250565b6000610507600f836103a5565b9150610512826104d1565b602082019050919050565b60006020820190508181036000830152610536816104fa565b905091905056fea2646970667358221220b58837b74d41b9cb52af10d596be052fef2f728753daf5266c3fbc3d663c998c64736f6c634300081c0033",
  "linkReferences": {},
  "deployedLinkReferences": {}
}