{
  "_format": "hh-sol-artifact-1",
  "contractName": "MockLendingPoolV1",
  "sourceName": "contracts/mocks/MockLendingPoolV1.sol",
  "abi": [
    {
      "inputs": [
        {
          "internalType": "address",
          "name": "_reserve",
          "type": "address"
        },
        {
          "internalType": "uint256",
          "name": "_amount",
          "type": "uint256"
        },
        {
          "internalType": "uint16",
          "name": "",
          "type": "uint16"
        }
      ],
      "name": "deposit",
      "outputs": [],
      "stateMutability": "payable",
      "type": "function"
    },
    {
      "inputs": [
        {
          "internalType": "address",
          "name": "_receiver",
          "type": "address"
        },
        {
          "internalType": "address",
          "name": "_reserve",
          "type": "address"
        },
        {
          "internalType": "uint256",
          "name": "_amount",
          "type": "uint256"
        },
        {
          "internalType": "bytes",
          "name": "",
          "type": "bytes"
        }
      ],
      "name": "flashLoan",
      "outputs": [],
      "stateMutability": "nonpayable",
      "type": "function"
    },
    {
      "inputs": [
        {
          "internalType": "address",
          "name": "_reserve",
          "type": "address"
        },
        {
          "internalType": "address",
          "name": "_user",
          "type": "address"
        },
        {
          "internalType": "uint256",
          "name": "_amount",
          "type": "uint256"
        }
      ],
      "name": "redeemUnderlying",
      "outputs": [],
      "stateMutability": "nonpayable",
      "type": "function"
    },
    {
      "stateMutability": "payable",
      "type": "receive"
    }
  ],
  "bytecode": "0x6080604052348015600f57600080fd5b506107038061001f6000396000f3fe6080604052600436106100385760003560e01c80635cffe9de14610044578063935642cf14610066578063d2d0e0661461008657600080fd5b3661003f57005b600080fd5b34801561005057600080fd5b5061006461005f36600461056a565b610099565b005b34801561007257600080fd5b50610064610081366004610607565b61032c565b610064610094366004610644565b6104a5565b73eeeeeeeeeeeeeeeeeeeeeeeeeeeeeeeeeeeeeeed196001600160a01b038516016101b257824710156101135760405162461bcd60e51b815260206004820152601860248201527f496e73756666696369656e74204554482062616c616e6365000000000000000060448201526064015b60405180910390fd5b6000856001600160a01b03168460405160006040518083038185875af1925050503d8060008114610160576040519150601f19603f3d011682016040523d82523d6000602084013e610165565b606091505b50509050806101ac5760405162461bcd60e51b8152602060048201526013602482015272115512081d1c985b9cd9995c8819985a5b1959606a1b604482015260640161010a565b50610325565b6040516370a0823160e01b8152306004820152849084906001600160a01b038316906370a0823190602401602060405180830381865afa1580156101fa573d6000803e3d6000fd5b505050506040513d601f19601f8201168201806040525081019061021e919061068b565b101561026c5760405162461bcd60e51b815260206004820152601a60248201527f496e73756666696369656e7420746f6b656e2062616c616e6365000000000000604482015260640161010a565b60405163a9059cbb60e01b81526001600160a01b0387811660048301526024820186905282169063a9059cbb906044016020604051808303816000875af11580156102bb573d6000803e3d6000fd5b505050506040513d601f19601f820116820180604052508101906102df91906106a4565b6103235760405162461bcd60e51b8152602060048201526015602482015274151bdad95b881d1c985b9cd9995c8819985a5b1959605a1b604482015260640161010a565b505b5050505050565b73eeeeeeeeeeeeeeeeeeeeeeeeeeeeeeeeeeeeeeed196001600160a01b038416016103f0576000826001600160a01b03168260405160006040518083038185875af1925050503d806000811461039e576040519150601f19603f3d011682016040523d82523d6000602084013e6103a3565b606091505b50509050806103ea5760405162461bcd60e51b8152602060048201526013602482015272115512081d1c985b9cd9995c8819985a5b1959606a1b604482015260640161010a565b50505050565b60405163a9059cbb60e01b81526001600160a01b0383811660048301526024820183905284919082169063a9059cbb906044015b6020604051808303816000875af1158015610443573d6000803e3d6000fd5b505050506040513d601f19601f8201168201806040525081019061046791906106a4565b6103ea5760405162461bcd60e51b815260206004820152600f60248201526e151c985b9cd9995c8819985a5b1959608a1b604482015260640161010a565b73eeeeeeeeeeeeeeeeeeeeeeeeeeeeeeeeeeeeeeed196001600160a01b038416016105135781341461050e5760405162461bcd60e51b8152602060048201526012602482015271125b9d985b1a590811551208185b5bdd5b9d60721b604482015260640161010a565b505050565b6040516323b872dd60e01b81523360048201523060248201526044810183905283906001600160a01b038216906323b872dd90606401610424565b80356001600160a01b038116811461056557600080fd5b919050565b60008060008060006080868803121561058257600080fd5b61058b8661054e565b94506105996020870161054e565b935060408601359250606086013567ffffffffffffffff8111156105bc57600080fd5b8601601f810188136105cd57600080fd5b803567ffffffffffffffff8111156105e457600080fd5b8860208284010111156105f657600080fd5b959894975092955050506020019190565b60008060006060848603121561061c57600080fd5b6106258461054e565b92506106336020850161054e565b929592945050506040919091013590565b60008060006060848603121561065957600080fd5b6106628461054e565b925060208401359150604084013561ffff8116811461068057600080fd5b809150509250925092565b60006020828403121561069d57600080fd5b5051919050565b6000602082840312156106b657600080fd5b815180151581146106c657600080fd5b939250505056fea2646970667358221220d3109ff27fd5ea43f97d5458b41c129bc629f26e875df5c21c34954dd5e1f86964736f6c634300081c0033",
  "linkReferences": {},
  "deployedLinkReferences": {}
}