{
  "_format": "hh-sol-artifact-1",
  "contractName": "MockLendingPoolV1",
  "sourceName": "contracts/mocks/MockLendingPoolV1.sol",
  "abi": [
    {
      "inputs": [
        {
          "internalType": "address",
          "name": "_reserve",
          "type": "address"
        },
        {
          "internalType": "uint256",
          "name": "_amount",
          "type": "uint256"
        },
        {
          "internalType": "uint16",
          "name": "",
          "type": "uint16"
        }
      ],
      "name": "deposit",
      "outputs": [],
      "stateMutability": "payable",
      "type": "function"
    },
    {
      "inputs": [
        {
          "internalType": "address",
          "name": "_receiver",
          "type": "address"
        },
        {
          "internalType": "address",
          "name": "_reserve",
          "type": "address"
        },
        {
          "internalType": "uint256",
          "name": "_amount",
          "type": "uint256"
        },
        {
          "internalType": "bytes",
          "name": "",
          "type": "bytes"
        }
      ],
      "name": "flashLoan",
      "outputs": [],
      "stateMutability": "nonpayable",
      "type": "function"
    },
    {
      "inputs": [
        {
          "internalType": "address",
          "name": "_reserve",
          "type": "address"
        },
        {
          "internalType": "address",
          "name": "_user",
          "type": "address"
        },
        {
          "internalType": "uint256",
          "name": "_amount",
          "type": "uint256"
        }
      ],
      "name": "redeemUnderlying",
      "outputs": [],
      "stateMutability": "nonpayable",
      "type": "function"
    },
    {
      "stateMutability": "payable",
      "type": "receive"
    }
  ],
  "bytecode": "0x6080604052348015600f57600080fd5b50610d508061001f6000396000f3fe6080604052600436106100385760003560e01c80635cffe9de14610044578063935642cf1461006d578063d2d0e066146100965761003f565b3661003f57005b600080fd5b34801561005057600080fd5b5061006b60048036038101906100669190610793565b6100b2565b005b34801561007957600080fd5b50610094600480360381019061008f919061081b565b610375565b005b6100b060048036038101906100ab91906108a8565b610537565b005b73eeeeeeeeeeeeeeeeeeeeeeeeeeeeeeeeeeeeeeee73ffffffffffffffffffffffffffffffffffffffff168473ffffffffffffffffffffffffffffffffffffffff16036101ee578247101561013c576040517f08c379a000000000000000000000000000000000000000000000000000000000815260040161013390610958565b60405180910390fd5b60008573ffffffffffffffffffffffffffffffffffffffff1684604051610162906109a9565b60006040518083038185875af1925050503d806000811461019f576040519150601f19603f3d011682016040523d82523d6000602084013e6101a4565b606091505b50509050806101e8576040517f08c379a00000000000000000000000000000000000000000000000000000000081526004016101df90610a0a565b60405180910390fd5b5061036e565b6000849050838173ffffffffffffffffffffffffffffffffffffffff166370a08231306040518263ffffffff1660e01b815260040161022d9190610a39565b602060405180830381865afa15801561024a573d6000803e3d6000fd5b505050506040513d601f19601f8201168201806040525081019061026e9190610a69565b10156102af576040517f08c379a00000000000000000000000000000000000000000000000000000000081526004016102a690610ae2565b60405180910390fd5b8073ffffffffffffffffffffffffffffffffffffffff1663a9059cbb87866040518363ffffffff1660e01b81526004016102ea929190610b11565b6020604051808303816000875af1158015610309573d6000803e3d6000fd5b505050506040513d601f19601f8201168201806040525081019061032d9190610b72565b61036c576040517f08c379a000000000000000000000000000000000000000000000000000000000815260040161036390610beb565b60405180910390fd5b505b5050505050565b73eeeeeeeeeeeeeeeeeeeeeeeeeeeeeeeeeeeeeeee73ffffffffffffffffffffffffffffffffffffffff168373ffffffffffffffffffffffffffffffffffffffff160361046e5760008273ffffffffffffffffffffffffffffffffffffffff16826040516103e2906109a9565b60006040518083038185875af1925050503d806000811461041f576040519150601f19603f3d011682016040523d82523d6000602084013e610424565b606091505b5050905080610468576040517f08c379a000000000000000000000000000000000000000000000000000000000815260040161045f90610a0a565b60405180910390fd5b50610532565b60008390508073ffffffffffffffffffffffffffffffffffffffff1663a9059cbb84846040518363ffffffff1660e01b81526004016104ae929190610b11565b6020604051808303816000875af11580156104cd573d6000803e3d6000fd5b505050506040513d601f19601f820116820180604052508101906104f19190610b72565b610530576040517f08c379a000000000000000000000000000000000000000000000000000000000815260040161052790610c57565b60405180910390fd5b505b505050565b73eeeeeeeeeeeeeeeeeeeeeeeeeeeeeeeeeeeeeeee73ffffffffffffffffffffffffffffffffffffffff168373ffffffffffffffffffffffffffffffffffffffff16036105c5578134146105c0576040517f08c379a00000000000000000000000000000000000000000000000000000000081526004016105b790610cc3565b60405180910390fd5b61068b565b60008390508073ffffffffffffffffffffffffffffffffffffffff166323b872dd3330866040518463ffffffff1660e01b815260040161060793929190610ce3565b6020604051808303816000875af1158015610626573d6000803e3d6000fd5b505050506040513d601f19601f8201168201806040525081019061064a9190610b72565b610689576040517f08c379a000000000000000000000000000000000000000000000000000000000815260040161068090610c57565b60405180910390fd5b505b505050565b600080fd5b600080fd5b600073ffffffffffffffffffffffffffffffffffffffff82169050919050565b60006106c58261069a565b9050919050565b6106d5816106ba565b81146106e057600080fd5b50565b6000813590506106f2816106cc565b92915050565b6000819050919050565b61070b816106f8565b811461071657600080fd5b50565b60008135905061072881610702565b92915050565b600080fd5b600080fd5b600080fd5b60008083601f8401126107535761075261072e565b5b8235905067ffffffffffffffff8111156107705761076f610733565b5b60208301915083600182028301111561078c5761078b610738565b5b9250929050565b6000806000806000608086880312156107af576107ae610690565b5b60006107bd888289016106e3565b95505060206107ce888289016106e3565b94505060406107df88828901610719565b935050606086013567ffffffffffffffff811115610800576107ff610695565b5b61080c8882890161073d565b92509250509295509295909350565b60008060006060848603121561083457610833610690565b5b6000610842868287016106e3565b9350506020610853868287016106e3565b925050604061086486828701610719565b9150509250925092565b600061ffff82169050919050565b6108858161086e565b811461089057600080fd5b50565b6000813590506108a28161087c565b92915050565b6000806000606084860312156108c1576108c0610690565b5b60006108cf868287016106e3565b93505060206108e086828701610719565b92505060406108f186828701610893565b9150509250925092565b600082825260208201905092915050565b7f496e73756666696369656e74204554482062616c616e63650000000000000000600082015250565b60006109426018836108fb565b915061094d8261090c565b602082019050919050565b6000602082019050818103600083015261097181610935565b9050919050565b600081905092915050565b50565b6000610993600083610978565b915061099e82610983565b600082019050919050565b60006109b482610986565b9150819050919050565b7f455448207472616e73666572206661696c656400000000000000000000000000600082015250565b60006109f46013836108fb565b91506109ff826109be565b602082019050919050565b60006020820190508181036000830152610a23816109e7565b9050919050565b610a33816106ba565b82525050565b6000602082019050610a4e6000830184610a2a565b92915050565b600081519050610a6381610702565b92915050565b600060208284031215610a7f57610a7e610690565b5b6000610a8d84828501610a54565b91505092915050565b7f496e73756666696369656e7420746f6b656e2062616c616e6365000000000000600082015250565b6000610acc601a836108fb565b9150610ad782610a96565b602082019050919050565b60006020820190508181036000830152610afb81610abf565b9050919050565b610b0b816106f8565b82525050565b6000604082019050610b266000830185610a2a565b610b336020830184610b02565b9392505050565b60008115159050919050565b610b4f81610b3a565b8114610b5a57600080fd5b50565b600081519050610b6c81610b46565b92915050565b600060208284031215610b8857610b87610690565b5b6000610b9684828501610b5d565b91505092915050565b7f546f6b656e207472616e73666572206661696c65640000000000000000000000600082015250565b6000610bd56015836108fb565b9150610be082610b9f565b602082019050919050565b60006020820190508181036000830152610c0481610bc8565b9050919050565b7f5472616e73666572206661696c65640000000000000000000000000000000000600082015250565b6000610c41600f836108fb565b9150610c4c82610c0b565b602082019050919050565b60006020820190508181036000830152610c7081610c34565b9050919050565b7f496e76616c69642045544820616d6f756e740000000000000000000000000000600082015250565b6000610cad6012836108fb565b9150610cb882610c77565b602082019050919050565b60006020820190508181036000830152610cdc81610ca0565b9050919050565b6000606082019050610cf86000830186610a2a565b610d056020830185610a2a565b610d126040830184610b02565b94935050505056fea26469706673582212208900a08953bfadf672c7368291d7b0880da9806679058a17ce0cf703f6977f5964736f6c634300081c0033",
  "linkReferences": {},
  "deployedLinkReferences": {}
}