{
  "_format": "hh-sol-artifact-1",
  "contractName": "MockPoolManager",
  "sourceName": "contracts/mocks/MockPoolManager.sol",
  "abi": [
    {
      "anonymous": false,
      "inputs": [
        {
          "indexed": false,
          "internalType": "string",
          "name": "message",
          "type": "string"
        },
        {
          "indexed": false,
          "internalType": "uint256",
          "name": "value",
          "type": "uint256"
        }
      ],
      "name": "Debug",
      "type": "event"
    },
    {
      "anonymous": false,
      "inputs": [
        {
          "indexed": false,
          "internalType": "string",
          "name": "message",
          "type": "string"
        },
        {
          "indexed": false,
          "internalType": "address",
          "name": "addr",
          "type": "address"
        }
      ],
      "name": "DebugAddr",
      "type": "event"
    },
    {
      "anonymous": false,
      "inputs": [
        {
          "indexed": false,
          "internalType": "string",
          "name": "message",
          "type": "string"
        },
        {
          "indexed": false,
          "internalType": "address",
          "name": "token",
          "type": "address"
        },
        {
          "indexed": false,
          "internalType": "uint256",
          "name": "balance",
          "type": "uint256"
        }
      ],
      "name": "DebugBalance",
      "type": "event"
    },
    {
      "inputs": [
        {
          "internalType": "address",
          "name": "recipient",
          "type": "address"
        },
        {
          "internalType": "address",
          "name": "token0",
          "type": "address"
        },
        {
          "internalType": "address",
          "name": "token1",
          "type": "address"
        },
        {
          "internalType": "uint256",
          "name": "amount0",
          "type": "uint256"
        },
        {
          "internalType": "uint256",
          "name": "amount1",
          "type": "uint256"
        },
        {
          "internalType": "bytes",
          "name": "data",
          "type": "bytes"
        }
      ],
      "name": "flash",
      "outputs": [],
      "stateMutability": "nonpayable",
      "type": "function"
    },
    {
      "inputs": [
        {
          "components": [
            {
              "internalType": "Currency",
              "name": "currency0",
              "type": "address"
            },
            {
              "internalType": "Currency",
              "name": "currency1",
              "type": "address"
            },
            {
              "internalType": "uint24",
              "name": "fee",
              "type": "uint24"
            },
            {
              "internalType": "int24",
              "name": "tickSpacing",
              "type": "int24"
            },
            {
              "internalType": "contract IHooks",
              "name": "hooks",
              "type": "address"
            }
          ],
          "internalType": "struct PoolKey",
          "name": "key",
          "type": "tuple"
        }
      ],
      "name": "getSqrtPriceX96",
      "outputs": [
        {
          "internalType": "uint160",
          "name": "",
          "type": "uint160"
        }
      ],
      "stateMutability": "view",
      "type": "function"
    },
    {
      "inputs": [
        {
          "components": [
            {
              "internalType": "Currency",
              "name": "currency0",
              "type": "address"
            },
            {
              "internalType": "Currency",
              "name": "currency1",
              "type": "address"
            },
            {
              "internalType": "uint24",
              "name": "fee",
              "type": "uint24"
            },
            {
              "internalType": "int24",
              "name": "tickSpacing",
              "type": "int24"
            },
            {
              "internalType": "contract IHooks",
              "name": "hooks",
              "type": "address"
            }
          ],
          "internalType": "struct PoolKey",
          "name": "key",
          "type": "tuple"
        },
        {
          "internalType": "uint160",
          "name": "sqrtPriceX96",
          "type": "uint160"
        }
      ],
      "name": "initialize",
      "outputs": [
        {
          "internalType": "int24",
          "name": "tick",
          "type": "int24"
        }
      ],
      "stateMutability": "nonpayable",
      "type": "function"
    },
    {
      "inputs": [
        {
          "internalType": "bytes32",
          "name": "",
          "type": "bytes32"
        }
      ],
      "name": "initializedPools",
      "outputs": [
        {
          "internalType": "bool",
          "name": "",
          "type": "bool"
        }
      ],
      "stateMutability": "view",
      "type": "function"
    },
    {
      "inputs": [
        {
          "components": [
            {
              "internalType": "Currency",
              "name": "currency0",
              "type": "address"
            },
            {
              "internalType": "Currency",
              "name": "currency1",
              "type": "address"
            },
            {
              "internalType": "uint24",
              "name": "fee",
              "type": "uint24"
            },
            {
              "internalType": "int24",
              "name": "tickSpacing",
              "type": "int24"
            },
            {
              "internalType": "contract IHooks",
              "name": "hooks",
              "type": "address"
            }
          ],
          "internalType": "struct PoolKey",
          "name": "key",
          "type": "tuple"
        },
        {
          "components": [
            {
              "internalType": "int24",
              "name": "tickLower",
              "type": "int24"
            },
            {
              "internalType": "int24",
              "name": "tickUpper",
              "type": "int24"
            },
            {
              "internalType": "int256",
              "name": "liquidityDelta",
              "type": "int256"
            }
          ],
          "internalType": "struct ModifyPositionParams",
          "name": "params",
          "type": "tuple"
        }
      ],
      "name": "modifyPosition",
      "outputs": [
        {
          "components": [
            {
              "internalType": "int256",
              "name": "amount0",
              "type": "int256"
            },
            {
              "internalType": "int256",
              "name": "amount1",
              "type": "int256"
            }
          ],
          "internalType": "struct BalanceDelta",
          "name": "delta",
          "type": "tuple"
        }
      ],
      "stateMutability": "nonpayable",
      "type": "function"
    },
    {
      "inputs": [
        {
          "internalType": "bytes32",
          "name": "",
          "type": "bytes32"
        }
      ],
      "name": "poolPrices",
      "outputs": [
        {
          "internalType": "uint160",
          "name": "",
          "type": "uint160"
        }
      ],
      "stateMutability": "view",
      "type": "function"
    },
    {
      "inputs": [
        {
          "internalType": "bytes32",
          "name": "",
          "type": "bytes32"
        }
      ],
      "name": "pools",
      "outputs": [
        {
          "internalType": "uint256",
          "name": "liquidity",
          "type": "uint256"
        },
        {
          "internalType": "uint160",
          "name": "sqrtPriceX96",
          "type": "uint160"
        },
        {
          "internalType": "int24",
          "name": "tick",
          "type": "int24"
        }
      ],
      "stateMutability": "view",
      "type": "function"
    },
    {
      "inputs": [
        {
          "components": [
            {
              "internalType": "Currency",
              "name": "currency0",
              "type": "address"
            },
            {
              "internalType": "Currency",
              "name": "currency1",
              "type": "address"
            },
            {
              "internalType": "uint24",
              "name": "fee",
              "type": "uint24"
            },
            {
              "internalType": "int24",
              "name": "tickSpacing",
              "type": "int24"
            },
            {
              "internalType": "contract IHooks",
              "name": "hooks",
              "type": "address"
            }
          ],
          "internalType": "struct PoolKey",
          "name": "key",
          "type": "tuple"
        },
        {
          "components": [
            {
              "internalType": "bool",
              "name": "zeroForOne",
              "type": "bool"
            },
            {
              "internalType": "int256",
              "name": "amountSpecified",
              "type": "int256"
            },
            {
              "internalType": "uint160",
              "name": "sqrtPriceLimitX96",
              "type": "uint160"
            }
          ],
          "internalType": "struct SwapParams",
          "name": "params",
          "type": "tuple"
        }
      ],
      "name": "swap",
      "outputs": [
        {
          "components": [
            {
              "internalType": "int256",
              "name": "amount0",
              "type": "int256"
            },
            {
              "internalType": "int256",
              "name": "amount1",
              "type": "int256"
            }
          ],
          "internalType": "struct BalanceDelta",
          "name": "delta",
          "type": "tuple"
        }
      ],
      "stateMutability": "nonpayable",
      "type": "function"
    }
  ],
  "bytecode": "0x6080604052348015600f57600080fd5b506119a68061001f6000396000f3fe608060405234801561001057600080fd5b50600436106100885760003560e01c806368167b341161005b57806368167b3414610122578063760f59d0146101635780637799102514610176578063b5217bb41461018b57600080fd5b80631e2817de1461008d5780634f990315146100b6578063555a4733146100e95780636276cbbe146100fc575b600080fd5b6100a061009b3660046113df565b6101f1565b6040516100ad9190611453565b60405180910390f35b6100d96100c436600461146a565b60016020526000908152604090205460ff1681565b60405190151581526020016100ad565b6100a06100f7366004611483565b610453565b61010f61010a3660046114f1565b610650565b60405160029190910b81526020016100ad565b61014b61013036600461146a565b6000602081905290815260409020546001600160a01b031681565b6040516001600160a01b0390911681526020016100ad565b61014b610171366004611529565b610854565b61018961018436600461154c565b610882565b005b6101cb61019936600461146a565b6002602081905260009182526040909120805460019091015490916001600160a01b03821691600160a01b9004900b83565b604080519384526001600160a01b03909216602084015260020b908201526060016100ad565b6040805180820190915260008082526020820152600061021084611240565b60008181526001602052604090205490915060ff1661026d5760405162461bcd60e51b8152602060048201526014602482015273141bdbdb081b9bdd081a5b9a5d1a585b1a5e995960621b60448201526064015b60405180910390fd5b60808401516001600160a01b0316156102f95783608001516001600160a01b031663b3f97f803386866040518463ffffffff1660e01b81526004016102b493929190611650565b6020604051808303816000875af11580156102d3573d6000803e3d6000fd5b505050506040513d601f19601f820116820180604052508101906102f7919061169e565b505b8251600090610309576000610317565b8360200151610317906116de565b905060008460000151610337578460200151610332906116de565b61033a565b60005b9050604051806040016040528083815260200182815250935060006001600160a01b031686608001516001600160a01b0316146103ec5785608001516001600160a01b03166331acc114338888886040518563ffffffff1660e01b81526004016103a794939291906116fa565b6020604051808303816000875af11580156103c6573d6000803e3d6000fd5b505050506040513d601f19601f820116820180604052508101906103ea919061169e565b505b60008381526002602052604090819020908601516001600160a01b03166104205760018101546001600160a01b0316610426565b85604001515b60019190910180546001600160a01b0319166001600160a01b039092169190911790555050505b92915050565b6040805180820190915260008082526020820152600061047284611240565b60008181526001602052604090205490915060ff166104ca5760405162461bcd60e51b8152602060048201526014602482015273141bdbdb081b9bdd081a5b9a5d1a585b1a5e995960621b6044820152606401610264565b60808401516001600160a01b0316156105565783608001516001600160a01b0316630dbe5dbd3386866040518463ffffffff1660e01b81526004016105119392919061175c565b6020604051808303816000875af1158015610530573d6000803e3d6000fd5b505050506040513d601f19601f82011682018060405250810190610554919061169e565b505b6000818152600260205260408082209085015190911261058357836040015161057e906116de565b610589565b83604001515b81600001600082825461059c91906117a2565b90915550506040805180820182529085018051825251602082015260808601519093506001600160a01b0316156106485784608001516001600160a01b031663494cc556338787876040518563ffffffff1660e01b815260040161060394939291906117b5565b6020604051808303816000875af1158015610622573d6000803e3d6000fd5b505050506040513d601f19601f82011682018060405250810190610646919061169e565b505b505092915050565b60008061065c84611240565b60008181526001602052604090205490915060ff16156106be5760405162461bcd60e51b815260206004820152601860248201527f506f6f6c20616c726561647920696e697469616c697a656400000000000000006044820152606401610264565b6000818152600160208181526040808420805460ff19168417905583825280842080546001600160a01b0319166001600160a01b03898116918217909255825160608101845286815280850191825260028a810b82860190815289895295529290952091518255935192018054915162ffffff16600160a01b026001600160b81b0319909216928416929092171790556080850151849350161561084d5783608001516001600160a01b031663dc98354e3386866040518463ffffffff1660e01b8152600401610790939291906117fb565b6020604051808303816000875af11580156107af573d6000803e3d6000fd5b505050506040513d601f19601f820116820180604052508101906107d3919061169e565b5083608001516001600160a01b0316636fe7e6eb338686866040518563ffffffff1660e01b815260040161080a9493929190611831565b6020604051808303816000875af1158015610829573d6000803e3d6000fd5b505050506040513d601f19601f82011682018060405250810190610648919061169e565b5092915050565b60008061086083611240565b6000908152600260205260409020600101546001600160a01b03169392505050565b60408051818152600f818301526e466c6173682063616c6c656420627960881b606082015233602082015290517f619c62393708f63887b9ff82e481dbe31792a4445225c39a9d31d2144bccafb49181900360800190a16040805181815260098183015268149958da5c1a595b9d60ba1b60608201526001600160a01b038916602082015290517f619c62393708f63887b9ff82e481dbe31792a4445225c39a9d31d2144bccafb49181900360800190a16040516370a0823160e01b81523060048201526000805160206119518339815191529087906001600160a01b038216906370a0823190602401602060405180830381865afa158015610989573d6000803e3d6000fd5b505050506040513d601f19601f820116820180604052508101906109ad9190611872565b60408051606080825260169082015275496e697469616c20746f6b656e302062616c616e636560501b60808201526001600160a01b03909316602084015282015260a00160405180910390a16040516370a0823160e01b81523060048201526000805160206119518339815191529086906001600160a01b038216906370a0823190602401602060405180830381865afa158015610a4f573d6000803e3d6000fd5b505050506040513d601f19601f82011682018060405250810190610a739190611872565b60408051606080825260169082015275496e697469616c20746f6b656e312062616c616e636560501b60808201526001600160a01b03909316602084015282015260a00160405180910390a16040516370a0823160e01b81523060048201526000906001600160a01b038816906370a0823190602401602060405180830381865afa158015610b06573d6000803e3d6000fd5b505050506040513d601f19601f82011682018060405250810190610b2a9190611872565b6040516370a0823160e01b81523060048201529091506000906001600160a01b038816906370a0823190602401602060405180830381865afa158015610b74573d6000803e3d6000fd5b505050506040513d601f19601f82011682018060405250810190610b989190611872565b90508515610c9b5760405163a9059cbb60e01b81526001600160a01b038a811660048301526024820188905289169063a9059cbb906044016020604051808303816000875af1158015610bef573d6000803e3d6000fd5b505050506040513d601f19601f82011682018060405250810190610c13919061188b565b610c515760405162461bcd60e51b815260206004820152600f60248201526e151c985b9cd9995c8819985a5b1959608a1b6044820152606401610264565b604080518181526012818301527105472616e7366657272656420746f6b656e360741b60608201526020810188905290516000805160206119318339815191529181900360800190a15b8415610d9c5760405163a9059cbb60e01b81526001600160a01b038a811660048301526024820187905288169063a9059cbb906044016020604051808303816000875af1158015610cf0573d6000803e3d6000fd5b505050506040513d601f19601f82011682018060405250810190610d14919061188b565b610d525760405162461bcd60e51b815260206004820152600f60248201526e151c985b9cd9995c8819985a5b1959608a1b6044820152606401610264565b60408051818152601281830152715472616e7366657272656420746f6b656e3160701b60608201526020810187905290516000805160206119318339815191529181900360800190a15b6000888888888888604051602401610db9969594939291906118a8565b60408051601f198184030181529181526020820180516001600160e01b03166328e234f160e11b179052519091506000906001600160a01b038c1690610e00908490611901565b6000604051808303816000865af19150503d8060008114610e3d576040519150601f19603f3d011682016040523d82523d6000602084013e610e42565b606091505b5050905080610e8b5760405162461bcd60e51b8152602060048201526015602482015274119b185cda0818d85b1b189858dac819985a5b1959605a1b6044820152606401610264565b8715610f9b576040516323b872dd60e01b81526001600160a01b038c81166004830152306024830152604482018a90528b16906323b872dd906064016020604051808303816000875af1158015610ee6573d6000803e3d6000fd5b505050506040513d601f19601f82011682018060405250810190610f0a919061188b565b610f565760405162461bcd60e51b815260206004820152601760248201527f466c617368206c6f616e2030206e6f74207265706169640000000000000000006044820152606401610264565b60408051818152600d818301526c052657061696420746f6b656e3609c1b6060820152602081018a905290516000805160206119318339815191529181900360800190a15b86156110ab576040516323b872dd60e01b81526001600160a01b038c81166004830152306024830152604482018990528a16906323b872dd906064016020604051808303816000875af1158015610ff6573d6000803e3d6000fd5b505050506040513d601f19601f8201168201806040525081019061101a919061188b565b6110665760405162461bcd60e51b815260206004820152601760248201527f466c617368206c6f616e2031206e6f74207265706169640000000000000000006044820152606401610264565b60408051818152600d818301526c52657061696420746f6b656e3160981b60608201526020810189905290516000805160206119318339815191529181900360800190a15b6040516370a0823160e01b8152306004820152600080516020611951833981519152908b906001600160a01b038216906370a0823190602401602060405180830381865afa158015611101573d6000803e3d6000fd5b505050506040513d601f19601f820116820180604052508101906111259190611872565b6040805160608082526014908201527346696e616c20746f6b656e302062616c616e636560601b60808201526001600160a01b03909316602084015282015260a00160405180910390a16040516370a0823160e01b8152306004820152600080516020611951833981519152908a906001600160a01b038216906370a0823190602401602060405180830381865afa1580156111c5573d6000803e3d6000fd5b505050506040513d601f19601f820116820180604052508101906111e99190611872565b6040805160608082526014908201527346696e616c20746f6b656e312062616c616e636560601b60808201526001600160a01b03909316602084015282015260a00160405180910390a15050505050505050505050565b805160208083015160408085015160608601516080870151925160009661129e9690959491016001600160a01b039586168152938516602085015262ffffff92909216604084015260020b6060830152909116608082015260a00190565b604051602081830303815290604052805190602001209050919050565b6040516060810167ffffffffffffffff811182821017156112ec57634e487b7160e01b600052604160045260246000fd5b60405290565b6001600160a01b038116811461130757600080fd5b50565b8035600281900b811461131c57600080fd5b919050565b600060a0828403121561133357600080fd5b60405160a0810167ffffffffffffffff8111828210171561136457634e487b7160e01b600052604160045260246000fd5b6040529050808235611375816112f2565b81526020830135611385816112f2565b6020820152604083013562ffffff811681146113a057600080fd5b60408201526113b16060840161130a565b606082015260808301356113c4816112f2565b6080919091015292915050565b801515811461130757600080fd5b6000808284036101008112156113f457600080fd5b6113fe8585611321565b92506060609f198201121561141257600080fd5b5061141b6112bb565b60a0840135611429816113d1565b815260c0840135602082015260e0840135611443816112f2565b6040820152919491935090915050565b81518152602080830151908201526040810161044d565b60006020828403121561147c57600080fd5b5035919050565b60008082840361010081121561149857600080fd5b6114a28585611321565b92506060609f19820112156114b657600080fd5b506114bf6112bb565b6114cb60a0850161130a565b81526114d960c0850161130a565b602082015260e0939093013560408401525092909150565b60008060c0838503121561150457600080fd5b61150e8484611321565b915060a083013561151e816112f2565b809150509250929050565b600060a0828403121561153b57600080fd5b6115458383611321565b9392505050565b600080600080600080600060c0888a03121561156757600080fd5b8735611572816112f2565b96506020880135611582816112f2565b95506040880135611592816112f2565b9450606088013593506080880135925060a088013567ffffffffffffffff8111156115bc57600080fd5b8801601f81018a136115cd57600080fd5b803567ffffffffffffffff8111156115e457600080fd5b8a60208284010111156115f657600080fd5b602082019350809250505092959891949750929550565b80516001600160a01b03908116835260208083015182169084015260408083015162ffffff169084015260608083015160020b9084015260809182015116910152565b6001600160a01b0384168152610120810161166e602083018561160d565b8251151560c0830152602083015160e083015260408301516001600160a01b03166101008301525b949350505050565b6000602082840312156116b057600080fd5b81516001600160e01b03198116811461154557600080fd5b634e487b7160e01b600052601160045260246000fd5b6000600160ff1b82016116f3576116f36116c8565b5060000390565b6001600160a01b03851681526101608101611718602083018661160d565b8351151560c0830152602084015160e083015260408401516001600160a01b03166101008301525b8251610120830152602083015161014083015295945050505050565b6001600160a01b0384168152610120810161177a602083018561160d565b8251600290810b60c08401526020840151900b60e08301526040830151610100830152611696565b8082018082111561044d5761044d6116c8565b6001600160a01b038516815261016081016117d3602083018661160d565b8351600290810b60c08401526020850151900b60e08301526040840151610100830152611740565b6001600160a01b038416815260e08101611818602083018561160d565b6001600160a01b039290921660c0919091015292915050565b6001600160a01b0385168152610100810161184f602083018661160d565b6001600160a01b039390931660c082015260029190910b60e09091015292915050565b60006020828403121561188457600080fd5b5051919050565b60006020828403121561189d57600080fd5b8151611545816113d1565b6001600160a01b03878116825286166020820152604081018590526060810184905260a0608082018190528101829052818360c0830137600081830160c090810191909152601f909201601f1916010195945050505050565b6000825160005b818110156119225760208186018101518583015201611908565b50600092019182525091905056fe3c5ad147104e56be34a9176a6692f7df8d2f4b29a5af06bc6b98970d329d657728d7b9b2f784cfd77a99878b6ee7ac54e22d1a1b3cd542a1992bc36993b213c1a26469706673582212206da942cb40e5a281dac62cc00fbd3791970a000f9f7c877304d27b0bafeaa02a64736f6c634300081c0033",
  "linkReferences": {},
  "deployedLinkReferences": {}
}