{
  "_format": "hh-sol-artifact-1",
  "contractName": "MockPool",
  "sourceName": "contracts/mocks/MockPool.sol",
  "abi": [
    {
      "anonymous": false,
      "inputs": [
        {
          "indexed": true,
          "internalType": "address",
          "name": "receiver",
          "type": "address"
        },
        {
          "indexed": true,
          "internalType": "address",
          "name": "asset",
          "type": "address"
        },
        {
          "indexed": false,
          "internalType": "uint256",
          "name": "amount",
          "type": "uint256"
        },
        {
          "indexed": false,
          "internalType": "uint256",
          "name": "premium",
          "type": "uint256"
        }
      ],
      "name": "FlashLoan",
      "type": "event"
    },
    {
      "anonymous": false,
      "inputs": [
        {
          "indexed": true,
          "internalType": "address",
          "name": "receiver",
          "type": "address"
        },
        {
          "indexed": false,
          "internalType": "address[]",
          "name": "assets",
          "type": "address[]"
        },
        {
          "indexed": false,
          "internalType": "uint256[]",
          "name": "amounts",
          "type": "uint256[]"
        },
        {
          "indexed": false,
          "internalType": "uint256[]",
          "name": "premiums",
          "type": "uint256[]"
        }
      ],
      "name": "FlashLoanMultiple",
      "type": "event"
    },
    {
      "inputs": [],
      "name": "ETH_ADDRESS",
      "outputs": [
        {
          "internalType": "address",
          "name": "",
          "type": "address"
        }
      ],
      "stateMutability": "view",
      "type": "function"
    },
    {
      "inputs": [
        {
          "internalType": "address",
          "name": "receiverAddress",
          "type": "address"
        },
        {
          "internalType": "address[]",
          "name": "assets",
          "type": "address[]"
        },
        {
          "internalType": "uint256[]",
          "name": "amounts",
          "type": "uint256[]"
        },
        {
          "internalType": "uint256[]",
          "name": "modes",
          "type": "uint256[]"
        },
        {
          "internalType": "address",
          "name": "onBehalfOf",
          "type": "address"
        },
        {
          "internalType": "bytes",
          "name": "params",
          "type": "bytes"
        },
        {
          "internalType": "uint16",
          "name": "referralCode",
          "type": "uint16"
        }
      ],
      "name": "flashLoan",
      "outputs": [],
      "stateMutability": "nonpayable",
      "type": "function"
    },
    {
      "inputs": [
        {
          "internalType": "address",
          "name": "receiverAddress",
          "type": "address"
        },
        {
          "internalType": "address",
          "name": "asset",
          "type": "address"
        },
        {
          "internalType": "uint256",
          "name": "amount",
          "type": "uint256"
        },
        {
          "internalType": "bytes",
          "name": "params",
          "type": "bytes"
        },
        {
          "internalType": "uint16",
          "name": "referralCode",
          "type": "uint16"
        }
      ],
      "name": "flashLoanSimple",
      "outputs": [],
      "stateMutability": "nonpayable",
      "type": "function"
    },
    {
      "stateMutability": "payable",
      "type": "receive"
    }
  ],
  "bytecode": "0x6080604052348015600f57600080fd5b506119268061001f6000396000f3fe6080604052600436106100385760003560e01c806342b0b77c14610044578063a734f06e1461006d578063ab9c4b5d146100985761003f565b3661003f57005b600080fd5b34801561005057600080fd5b5061006b60048036038101906100669190610e2d565b6100c1565b005b34801561007957600080fd5b50610082610588565b60405161008f9190610ed6565b60405180910390f35b3480156100a457600080fd5b506100bf60048036038101906100ba9190610f9d565b6105a0565b005b60006127106009866100d391906110f0565b6100dd9190611161565b905073eeeeeeeeeeeeeeeeeeeeeeeeeeeeeeeeeeeeeeee73ffffffffffffffffffffffffffffffffffffffff168673ffffffffffffffffffffffffffffffffffffffff16036101b55784471015610169576040517f08c379a0000000000000000000000000000000000000000000000000000000008152600401610160906111ef565b60405180910390fd5b8673ffffffffffffffffffffffffffffffffffffffff166108fc869081150290604051600060405180830381858888f193505050501580156101af573d6000803e3d6000fd5b506102f1565b848673ffffffffffffffffffffffffffffffffffffffff166370a08231306040518263ffffffff1660e01b81526004016101ef9190610ed6565b602060405180830381865afa15801561020c573d6000803e3d6000fd5b505050506040513d601f19601f820116820180604052508101906102309190611224565b1015610271576040517f08c379a00000000000000000000000000000000000000000000000000000000081526004016102689061129d565b60405180910390fd5b8573ffffffffffffffffffffffffffffffffffffffff1663a9059cbb88876040518363ffffffff1660e01b81526004016102ac9291906112cc565b6020604051808303816000875af11580156102cb573d6000803e3d6000fd5b505050506040513d601f19601f820116820180604052508101906102ef919061132d565b505b8673ffffffffffffffffffffffffffffffffffffffff16631b11d0ff8787843389896040518763ffffffff1660e01b8152600401610334969594939291906113b8565b6020604051808303816000875af1158015610353573d6000803e3d6000fd5b505050506040513d601f19601f82011682018060405250810190610377919061132d565b6103b6576040517f08c379a00000000000000000000000000000000000000000000000000000000081526004016103ad90611460565b60405180910390fd5b73eeeeeeeeeeeeeeeeeeeeeeeeeeeeeeeeeeeeeeee73ffffffffffffffffffffffffffffffffffffffff168673ffffffffffffffffffffffffffffffffffffffff16036104505780856104099190611480565b47101561044b576040517f08c379a000000000000000000000000000000000000000000000000000000000815260040161044290611500565b60405180910390fd5b610518565b808561045c9190611480565b8673ffffffffffffffffffffffffffffffffffffffff166370a08231306040518263ffffffff1660e01b81526004016104959190610ed6565b602060405180830381865afa1580156104b2573d6000803e3d6000fd5b505050506040513d601f19601f820116820180604052508101906104d69190611224565b1015610517576040517f08c379a000000000000000000000000000000000000000000000000000000000815260040161050e90611500565b60405180910390fd5b5b8573ffffffffffffffffffffffffffffffffffffffff168773ffffffffffffffffffffffffffffffffffffffff167f0d7d75e01ab95780d3cd1c8ec0dd6c2ce19e3a20427eec8bf53283b6fb8e95f08784604051610577929190611520565b60405180910390a350505050505050565b73eeeeeeeeeeeeeeeeeeeeeeeeeeeeeeeeeeeeeeee81565b878790508a8a9050146105e8576040517f08c379a00000000000000000000000000000000000000000000000000000000081526004016105df90611595565b60405180910390fd5b60008a8a905067ffffffffffffffff811115610607576106066115b5565b5b6040519080825280602002602001820160405280156106355781602001602082028036833780820191505090505b50905060005b8b8b90508110156109905761271060098b8b8481811061065e5761065d6115e4565b5b9050602002013561066f91906110f0565b6106799190611161565b82828151811061068c5761068b6115e4565b5b60200260200101818152505073eeeeeeeeeeeeeeeeeeeeeeeeeeeeeeeeeeeeeeee73ffffffffffffffffffffffffffffffffffffffff168c8c838181106106d6576106d56115e4565b5b90506020020160208101906106eb9190611613565b73ffffffffffffffffffffffffffffffffffffffff16036107c757898982818110610719576107186115e4565b5b90506020020135471015610762576040517f08c379a0000000000000000000000000000000000000000000000000000000008152600401610759906111ef565b60405180910390fd5b8c73ffffffffffffffffffffffffffffffffffffffff166108fc8b8b8481811061078f5761078e6115e4565b5b905060200201359081150290604051600060405180830381858888f193505050501580156107c1573d6000803e3d6000fd5b50610983565b8989828181106107da576107d96115e4565b5b905060200201358c8c838181106107f4576107f36115e4565b5b90506020020160208101906108099190611613565b73ffffffffffffffffffffffffffffffffffffffff166370a08231306040518263ffffffff1660e01b81526004016108419190610ed6565b602060405180830381865afa15801561085e573d6000803e3d6000fd5b505050506040513d601f19601f820116820180604052508101906108829190611224565b10156108c3576040517f08c379a00000000000000000000000000000000000000000000000000000000081526004016108ba9061129d565b60405180910390fd5b8b8b828181106108d6576108d56115e4565b5b90506020020160208101906108eb9190611613565b73ffffffffffffffffffffffffffffffffffffffff1663a9059cbb8e8c8c8581811061091a576109196115e4565b5b905060200201356040518363ffffffff1660e01b815260040161093e9291906112cc565b6020604051808303816000875af115801561095d573d6000803e3d6000fd5b505050506040513d601f19601f82011682018060405250810190610981919061132d565b505b808060010191505061063b565b508b73ffffffffffffffffffffffffffffffffffffffff1663920f5c848c8c8c8c86338b8b6040518963ffffffff1660e01b81526004016109d898979695949392919061182b565b6020604051808303816000875af11580156109f7573d6000803e3d6000fd5b505050506040513d601f19601f82011682018060405250810190610a1b919061132d565b610a5a576040517f08c379a0000000000000000000000000000000000000000000000000000000008152600401610a5190611460565b60405180910390fd5b60005b8b8b9050811015610c8b5773eeeeeeeeeeeeeeeeeeeeeeeeeeeeeeeeeeeeeeee73ffffffffffffffffffffffffffffffffffffffff168c8c83818110610aa657610aa56115e4565b5b9050602002016020810190610abb9190611613565b73ffffffffffffffffffffffffffffffffffffffff1603610b5c57818181518110610ae957610ae86115e4565b5b60200260200101518a8a83818110610b0457610b036115e4565b5b90506020020135610b159190611480565b471015610b57576040517f08c379a0000000000000000000000000000000000000000000000000000000008152600401610b4e90611500565b60405180910390fd5b610c7e565b818181518110610b6f57610b6e6115e4565b5b60200260200101518a8a83818110610b8a57610b896115e4565b5b90506020020135610b9b9190611480565b8c8c83818110610bae57610bad6115e4565b5b9050602002016020810190610bc39190611613565b73ffffffffffffffffffffffffffffffffffffffff166370a08231306040518263ffffffff1660e01b8152600401610bfb9190610ed6565b602060405180830381865afa158015610c18573d6000803e3d6000fd5b505050506040513d601f19601f82011682018060405250810190610c3c9190611224565b1015610c7d576040517f08c379a0000000000000000000000000000000000000000000000000000000008152600401610c7490611500565b60405180910390fd5b5b8080600101915050610a5d565b508b73ffffffffffffffffffffffffffffffffffffffff167fbda78dd5eb80b12c2e3c6ef3c60077f2de550858c6e2bfdc8ff2d83f343c64f48c8c8c8c86604051610cda9594939291906118a0565b60405180910390a2505050505050505050505050565b600080fd5b600080fd5b600073ffffffffffffffffffffffffffffffffffffffff82169050919050565b6000610d2582610cfa565b9050919050565b610d3581610d1a565b8114610d4057600080fd5b50565b600081359050610d5281610d2c565b92915050565b6000819050919050565b610d6b81610d58565b8114610d7657600080fd5b50565b600081359050610d8881610d62565b92915050565b600080fd5b600080fd5b600080fd5b60008083601f840112610db357610db2610d8e565b5b8235905067ffffffffffffffff811115610dd057610dcf610d93565b5b602083019150836001820283011115610dec57610deb610d98565b5b9250929050565b600061ffff82169050919050565b610e0a81610df3565b8114610e1557600080fd5b50565b600081359050610e2781610e01565b92915050565b60008060008060008060a08789031215610e4a57610e49610cf0565b5b6000610e5889828a01610d43565b9650506020610e6989828a01610d43565b9550506040610e7a89828a01610d79565b945050606087013567ffffffffffffffff811115610e9b57610e9a610cf5565b5b610ea789828a01610d9d565b93509350506080610eba89828a01610e18565b9150509295509295509295565b610ed081610d1a565b82525050565b6000602082019050610eeb6000830184610ec7565b92915050565b60008083601f840112610f0757610f06610d8e565b5b8235905067ffffffffffffffff811115610f2457610f23610d93565b5b602083019150836020820283011115610f4057610f3f610d98565b5b9250929050565b60008083601f840112610f5d57610f5c610d8e565b5b8235905067ffffffffffffffff811115610f7a57610f79610d93565b5b602083019150836020820283011115610f9657610f95610d98565b5b9250929050565b600080600080600080600080600080600060e08c8e031215610fc257610fc1610cf0565b5b6000610fd08e828f01610d43565b9b505060208c013567ffffffffffffffff811115610ff157610ff0610cf5565b5b610ffd8e828f01610ef1565b9a509a505060408c013567ffffffffffffffff8111156110205761101f610cf5565b5b61102c8e828f01610f47565b985098505060608c013567ffffffffffffffff81111561104f5761104e610cf5565b5b61105b8e828f01610f47565b9650965050608061106e8e828f01610d43565b94505060a08c013567ffffffffffffffff81111561108f5761108e610cf5565b5b61109b8e828f01610d9d565b935093505060c06110ae8e828f01610e18565b9150509295989b509295989b9093969950565b7f4e487b7100000000000000000000000000000000000000000000000000000000600052601160045260246000fd5b60006110fb82610d58565b915061110683610d58565b925082820261111481610d58565b9150828204841483151761112b5761112a6110c1565b5b5092915050565b7f4e487b7100000000000000000000000000000000000000000000000000000000600052601260045260246000fd5b600061116c82610d58565b915061117783610d58565b92508261118757611186611132565b5b828204905092915050565b600082825260208201905092915050565b7f496e73756666696369656e7420455448206c6971756964697479000000000000600082015250565b60006111d9601a83611192565b91506111e4826111a3565b602082019050919050565b60006020820190508181036000830152611208816111cc565b9050919050565b60008151905061121e81610d62565b92915050565b60006020828403121561123a57611239610cf0565b5b60006112488482850161120f565b91505092915050565b7f496e73756666696369656e7420746f6b656e206c697175696469747900000000600082015250565b6000611287601c83611192565b915061129282611251565b602082019050919050565b600060208201905081810360008301526112b68161127a565b9050919050565b6112c681610d58565b82525050565b60006040820190506112e16000830185610ec7565b6112ee60208301846112bd565b9392505050565b60008115159050919050565b61130a816112f5565b811461131557600080fd5b50565b60008151905061132781611301565b92915050565b60006020828403121561134357611342610cf0565b5b600061135184828501611318565b91505092915050565b600082825260208201905092915050565b82818337600083830152505050565b6000601f19601f8301169050919050565b6000611397838561135a565b93506113a483858461136b565b6113ad8361137a565b840190509392505050565b600060a0820190506113cd6000830189610ec7565b6113da60208301886112bd565b6113e760408301876112bd565b6113f46060830186610ec7565b818103608083015261140781848661138b565b9050979650505050505050565b7f466c617368206c6f616e20657865637574696f6e206661696c65640000000000600082015250565b600061144a601b83611192565b915061145582611414565b602082019050919050565b600060208201905081810360008301526114798161143d565b9050919050565b600061148b82610d58565b915061149683610d58565b92508282019050808211156114ae576114ad6110c1565b5b92915050565b7f466c617368206c6f616e2072657061796d656e74206661696c65640000000000600082015250565b60006114ea601b83611192565b91506114f5826114b4565b602082019050919050565b60006020820190508181036000830152611519816114dd565b9050919050565b600060408201905061153560008301856112bd565b61154260208301846112bd565b9392505050565b7f417272617973206c656e677468206d69736d6174636800000000000000000000600082015250565b600061157f601683611192565b915061158a82611549565b602082019050919050565b600060208201905081810360008301526115ae81611572565b9050919050565b7f4e487b7100000000000000000000000000000000000000000000000000000000600052604160045260246000fd5b7f4e487b7100000000000000000000000000000000000000000000000000000000600052603260045260246000fd5b60006020828403121561162957611628610cf0565b5b600061163784828501610d43565b91505092915050565b600082825260208201905092915050565b6000819050919050565b61166481610d1a565b82525050565b6000611676838361165b565b60208301905092915050565b60006116916020840184610d43565b905092915050565b6000602082019050919050565b60006116b28385611640565b93506116bd82611651565b8060005b858110156116f6576116d38284611682565b6116dd888261166a565b97506116e883611699565b9250506001810190506116c1565b5085925050509392505050565b600082825260208201905092915050565b600080fd5b82818337505050565b600061172e8385611703565b93507f07ffffffffffffffffffffffffffffffffffffffffffffffffffffffffffffff83111561176157611760611714565b5b602083029250611772838584611719565b82840190509392505050565b600081519050919050565b6000819050602082019050919050565b6117a281610d58565b82525050565b60006117b48383611799565b60208301905092915050565b6000602082019050919050565b60006117d88261177e565b6117e28185611703565b93506117ed83611789565b8060005b8381101561181e57815161180588826117a8565b9750611810836117c0565b9250506001810190506117f1565b5085935050505092915050565b600060a0820190508181036000830152611846818a8c6116a6565b9050818103602083015261185b81888a611722565b9050818103604083015261186f81876117cd565b905061187e6060830186610ec7565b818103608083015261189181848661138b565b90509998505050505050505050565b600060608201905081810360008301526118bb8187896116a6565b905081810360208301526118d0818587611722565b905081810360408301526118e481846117cd565b9050969550505050505056fea26469706673582212209b1be3b0173227ff9e3dabb12f815e09116f4760b7290a23ef6b3df13f5d00a364736f6c634300081c0033",
  "linkReferences": {},
  "deployedLinkReferences": {}
}