{
  "_format": "hh-sol-artifact-1",
  "contractName": "MockPool",
  "sourceName": "contracts/mocks/MockPool.sol",
  "abi": [
    {
      "anonymous": false,
      "inputs": [
        {
          "indexed": true,
          "internalType": "address",
          "name": "receiver",
          "type": "address"
        },
        {
          "indexed": true,
          "internalType": "address",
          "name": "asset",
          "type": "address"
        },
        {
          "indexed": false,
          "internalType": "uint256",
          "name": "amount",
          "type": "uint256"
        },
        {
          "indexed": false,
          "internalType": "uint256",
          "name": "premium",
          "type": "uint256"
        }
      ],
      "name": "FlashLoan",
      "type": "event"
    },
    {
      "anonymous": false,
      "inputs": [
        {
          "indexed": true,
          "internalType": "address",
          "name": "receiver",
          "type": "address"
        },
        {
          "indexed": false,
          "internalType": "address[]",
          "name": "assets",
          "type": "address[]"
        },
        {
          "indexed": false,
          "internalType": "uint256[]",
          "name": "amounts",
          "type": "uint256[]"
        },
        {
          "indexed": false,
          "internalType": "uint256[]",
          "name": "premiums",
          "type": "uint256[]"
        }
      ],
      "name": "FlashLoanMultiple",
      "type": "event"
    },
    {
      "inputs": [],
      "name": "ETH_ADDRESS",
      "outputs": [
        {
          "internalType": "address",
          "name": "",
          "type": "address"
        }
      ],
      "stateMutability": "view",
      "type": "function"
    },
    {
      "inputs": [
        {
          "internalType": "address",
          "name": "receiverAddress",
          "type": "address"
        },
        {
          "internalType": "address[]",
          "name": "assets",
          "type": "address[]"
        },
        {
          "internalType": "uint256[]",
          "name": "amounts",
          "type": "uint256[]"
        },
        {
          "internalType": "uint256[]",
          "name": "modes",
          "type": "uint256[]"
        },
        {
          "internalType": "address",
          "name": "onBehalfOf",
          "type": "address"
        },
        {
          "internalType": "bytes",
          "name": "params",
          "type": "bytes"
        },
        {
          "internalType": "uint16",
          "name": "referralCode",
          "type": "uint16"
        }
      ],
      "name": "flashLoan",
      "outputs": [],
      "stateMutability": "nonpayable",
      "type": "function"
    },
    {
      "inputs": [
        {
          "internalType": "address",
          "name": "receiverAddress",
          "type": "address"
        },
        {
          "internalType": "address",
          "name": "asset",
          "type": "address"
        },
        {
          "internalType": "uint256",
          "name": "amount",
          "type": "uint256"
        },
        {
          "internalType": "bytes",
          "name": "params",
          "type": "bytes"
        },
        {
          "internalType": "uint16",
          "name": "referralCode",
          "type": "uint16"
        }
      ],
      "name": "flashLoanSimple",
      "outputs": [],
      "stateMutability": "nonpayable",
      "type": "function"
    },
    {
      "stateMutability": "payable",
      "type": "receive"
    }
  ],
  "bytecode": "0x6080604052348015600f57600080fd5b506110b78061001f6000396000f3fe6080604052600436106100385760003560e01c806342b0b77c14610044578063a734f06e14610066578063ab9c4b5d146100aa57600080fd5b3661003f57005b600080fd5b34801561005057600080fd5b5061006461005f366004610bc7565b6100ca565b005b34801561007257600080fd5b5061008e73eeeeeeeeeeeeeeeeeeeeeeeeeeeeeeeeeeeeeeee81565b6040516001600160a01b03909116815260200160405180910390f35b3480156100b657600080fd5b506100646100c5366004610c8a565b6104d0565b60006127106100da866009610daa565b6100e49190610dc7565b905073eeeeeeeeeeeeeeeeeeeeeeeeeeeeeeeeeeeeeeed196001600160a01b0387160161019c57844710156101605760405162461bcd60e51b815260206004820152601a60248201527f496e73756666696369656e7420455448206c697175696469747900000000000060448201526064015b60405180910390fd5b6040516001600160a01b0388169086156108fc029087906000818181858888f19350505050158015610196573d6000803e3d6000fd5b506102c9565b6040516370a0823160e01b815230600482015285906001600160a01b038816906370a0823190602401602060405180830381865afa1580156101e2573d6000803e3d6000fd5b505050506040513d601f19601f820116820180604052508101906102069190610de9565b10156102545760405162461bcd60e51b815260206004820152601c60248201527f496e73756666696369656e7420746f6b656e206c6971756964697479000000006044820152606401610157565b60405163a9059cbb60e01b81526001600160a01b0388811660048301526024820187905287169063a9059cbb906044016020604051808303816000875af11580156102a3573d6000803e3d6000fd5b505050506040513d601f19601f820116820180604052508101906102c79190610e02565b505b604051631b11d0ff60e01b81526001600160a01b03881690631b11d0ff906102ff9089908990869033908b908b90600401610e54565b6020604051808303816000875af115801561031e573d6000803e3d6000fd5b505050506040513d601f19601f820116820180604052508101906103429190610e02565b61038e5760405162461bcd60e51b815260206004820152601b60248201527f466c617368206c6f616e20657865637574696f6e206661696c656400000000006044820152606401610157565b73eeeeeeeeeeeeeeeeeeeeeeeeeeeeeeeeeeeeeeed196001600160a01b038716016103e1576103bd8186610e9b565b4710156103dc5760405162461bcd60e51b815260040161015790610eae565b610471565b6103eb8186610e9b565b6040516370a0823160e01b81523060048201526001600160a01b038816906370a0823190602401602060405180830381865afa15801561042f573d6000803e3d6000fd5b505050506040513d601f19601f820116820180604052508101906104539190610de9565b10156104715760405162461bcd60e51b815260040161015790610eae565b856001600160a01b0316876001600160a01b03167f0d7d75e01ab95780d3cd1c8ec0dd6c2ce19e3a20427eec8bf53283b6fb8e95f087846040516104bf929190918252602082015260400190565b60405180910390a350505050505050565b8887146105185760405162461bcd60e51b8152602060048201526016602482015275082e4e4c2f2e640d8cadccee8d040dad2e6dac2e8c6d60531b6044820152606401610157565b60008967ffffffffffffffff81111561053357610533610ee5565b60405190808252806020026020018201604052801561055c578160200160208202803683370190505b50905060005b8a811015610884576127108a8a8381811061057f5761057f610efb565b9050602002013560096105929190610daa565b61059c9190610dc7565b8282815181106105ae576105ae610efb565b602090810291909101015273eeeeeeeeeeeeeeeeeeeeeeeeeeeeeeeeeeeeeeee8c8c838181106105e0576105e0610efb565b90506020020160208101906105f59190610f11565b6001600160a01b0316036106c25789898281811061061557610615610efb565b9050602002013547101561066b5760405162461bcd60e51b815260206004820152601a60248201527f496e73756666696369656e7420455448206c69717569646974790000000000006044820152606401610157565b8c6001600160a01b03166108fc8b8b8481811061068a5761068a610efb565b905060200201359081150290604051600060405180830381858888f193505050501580156106bc573d6000803e3d6000fd5b5061087c565b8989828181106106d4576106d4610efb565b905060200201358c8c838181106106ed576106ed610efb565b90506020020160208101906107029190610f11565b6040516370a0823160e01b81523060048201526001600160a01b0391909116906370a0823190602401602060405180830381865afa158015610748573d6000803e3d6000fd5b505050506040513d601f19601f8201168201806040525081019061076c9190610de9565b10156107ba5760405162461bcd60e51b815260206004820152601c60248201527f496e73756666696369656e7420746f6b656e206c6971756964697479000000006044820152606401610157565b8b8b828181106107cc576107cc610efb565b90506020020160208101906107e19190610f11565b6001600160a01b031663a9059cbb8e8c8c8581811061080257610802610efb565b6040516001600160e01b031960e087901b1681526001600160a01b03909416600485015260200291909101356024830152506044016020604051808303816000875af1158015610856573d6000803e3d6000fd5b505050506040513d601f19601f8201168201806040525081019061087a9190610e02565b505b600101610562565b50604051632483d72160e21b81526001600160a01b038d169063920f5c84906108bf908e908e908e908e90889033908d908d90600401610fd8565b6020604051808303816000875af11580156108de573d6000803e3d6000fd5b505050506040513d601f19601f820116820180604052508101906109029190610e02565b61094e5760405162461bcd60e51b815260206004820152601b60248201527f466c617368206c6f616e20657865637574696f6e206661696c656400000000006044820152606401610157565b60005b8a811015610af85773eeeeeeeeeeeeeeeeeeeeeeeeeeeeeeeeeeeeeeee8c8c8381811061098057610980610efb565b90506020020160208101906109959190610f11565b6001600160a01b031603610a04578181815181106109b5576109b5610efb565b60200260200101518a8a838181106109cf576109cf610efb565b905060200201356109e09190610e9b565b4710156109ff5760405162461bcd60e51b815260040161015790610eae565b610af0565b818181518110610a1657610a16610efb565b60200260200101518a8a83818110610a3057610a30610efb565b90506020020135610a419190610e9b565b8c8c83818110610a5357610a53610efb565b9050602002016020810190610a689190610f11565b6040516370a0823160e01b81523060048201526001600160a01b0391909116906370a0823190602401602060405180830381865afa158015610aae573d6000803e3d6000fd5b505050506040513d601f19601f82011682018060405250810190610ad29190610de9565b1015610af05760405162461bcd60e51b815260040161015790610eae565b600101610951565b508b6001600160a01b03167fbda78dd5eb80b12c2e3c6ef3c60077f2de550858c6e2bfdc8ff2d83f343c64f48c8c8c8c86604051610b3a959493929190611046565b60405180910390a2505050505050505050505050565b80356001600160a01b0381168114610b6757600080fd5b919050565b60008083601f840112610b7e57600080fd5b50813567ffffffffffffffff811115610b9657600080fd5b602083019150836020828501011115610bae57600080fd5b9250929050565b803561ffff81168114610b6757600080fd5b60008060008060008060a08789031215610be057600080fd5b610be987610b50565b9550610bf760208801610b50565b945060408701359350606087013567ffffffffffffffff811115610c1a57600080fd5b610c2689828a01610b6c565b9094509250610c39905060808801610bb5565b90509295509295509295565b60008083601f840112610c5757600080fd5b50813567ffffffffffffffff811115610c6f57600080fd5b6020830191508360208260051b8501011115610bae57600080fd5b600080600080600080600080600080600060e08c8e031215610cab57600080fd5b610cb48c610b50565b9a5060208c013567ffffffffffffffff811115610cd057600080fd5b610cdc8e828f01610c45565b909b5099505060408c013567ffffffffffffffff811115610cfc57600080fd5b610d088e828f01610c45565b90995097505060608c013567ffffffffffffffff811115610d2857600080fd5b610d348e828f01610c45565b9097509550610d47905060808d01610b50565b935060a08c013567ffffffffffffffff811115610d6357600080fd5b610d6f8e828f01610b6c565b9094509250610d82905060c08d01610bb5565b90509295989b509295989b9093969950565b634e487b7160e01b600052601160045260246000fd5b8082028115828204841417610dc157610dc1610d94565b92915050565b600082610de457634e487b7160e01b600052601260045260246000fd5b500490565b600060208284031215610dfb57600080fd5b5051919050565b600060208284031215610e1457600080fd5b81518015158114610e2457600080fd5b9392505050565b81835281816020850137506000828201602090810191909152601f909101601f19169091010190565b6001600160a01b03878116825260208201879052604082018690528416606082015260a060808201819052600090610e8f9083018486610e2b565b98975050505050505050565b80820180821115610dc157610dc1610d94565b6020808252601b908201527f466c617368206c6f616e2072657061796d656e74206661696c65640000000000604082015260600190565b634e487b7160e01b600052604160045260246000fd5b634e487b7160e01b600052603260045260246000fd5b600060208284031215610f2357600080fd5b610e2482610b50565b81835260208301925060008160005b84811015610f6a576001600160a01b03610f5483610b50565b1686526020958601959190910190600101610f3b565b5093949350505050565b81835260006001600160fb1b03831115610f8d57600080fd5b8260051b80836020870137939093016020019392505050565b600081518084526020840193506020830160005b82811015610f6a578151865260209586019590910190600101610fba565b60a081526000610fec60a083018a8c610f2c565b8281036020840152610fff81898b610f74565b905082810360408401526110138188610fa6565b6001600160a01b038716606085015283810360808501529050611037818587610e2b565b9b9a5050505050505050505050565b60608152600061105a606083018789610f2c565b828103602084015261106d818688610f74565b90508281036040840152610e8f8185610fa656fea2646970667358221220e6b91c00a320c1e52e84df973a33825141d3b86c1271686bbb44bed9ebe6171864736f6c634300081c0033",
  "linkReferences": {},
  "deployedLinkReferences": {}
}