{
  "_format": "hh-sol-artifact-1",
  "contractName": "MockUniswapV2Router",
  "sourceName": "contracts/mocks/MockUniswapV2Router.sol",
  "abi": [
    {
      "inputs": [],
      "name": "PRECISION",
      "outputs": [
        {
          "internalType": "uint256",
          "name": "",
          "type": "uint256"
        }
      ],
      "stateMutability": "view",
      "type": "function"
    },
    {
      "inputs": [],
      "name": "WETH",
      "outputs": [
        {
          "internalType": "address",
          "name": "",
          "type": "address"
        }
      ],
      "stateMutability": "pure",
      "type": "function"
    },
    {
      "inputs": [
        {
          "internalType": "address",
          "name": "",
          "type": "address"
        },
        {
          "internalType": "address",
          "name": "",
          "type": "address"
        },
        {
          "internalType": "uint256",
          "name": "",
          "type": "uint256"
        },
        {
          "internalType": "uint256",
          "name": "",
          "type": "uint256"
        },
        {
          "internalType": "uint256",
          "name": "",
          "type": "uint256"
        },
        {
          "internalType": "uint256",
          "name": "",
          "type": "uint256"
        },
        {
          "internalType": "address",
          "name": "",
          "type": "address"
        },
        {
          "internalType": "uint256",
          "name": "",
          "type": "uint256"
        }
      ],
      "name": "addLiquidity",
      "outputs": [
        {
          "internalType": "uint256",
          "name": "amountA",
          "type": "uint256"
        },
        {
          "internalType": "uint256",
          "name": "amountB",
          "type": "uint256"
        },
        {
          "internalType": "uint256",
          "name": "liquidity",
          "type": "uint256"
        }
      ],
      "stateMutability": "nonpayable",
      "type": "function"
    },
    {
      "inputs": [
        {
          "internalType": "address",
          "name": "",
          "type": "address"
        },
        {
          "internalType": "uint256",
          "name": "",
          "type": "uint256"
        },
        {
          "internalType": "uint256",
          "name": "",
          "type": "uint256"
        },
        {
          "internalType": "uint256",
          "name": "",
          "type": "uint256"
        },
        {
          "internalType": "address",
          "name": "",
          "type": "address"
        },
        {
          "internalType": "uint256",
          "name": "",
          "type": "uint256"
        }
      ],
      "name": "addLiquidityETH",
      "outputs": [
        {
          "internalType": "uint256",
          "name": "amountToken",
          "type": "uint256"
        },
        {
          "internalType": "uint256",
          "name": "amountETH",
          "type": "uint256"
        },
        {
          "internalType": "uint256",
          "name": "liquidity",
          "type": "uint256"
        }
      ],
      "stateMutability": "payable",
      "type": "function"
    },
    {
      "inputs": [],
      "name": "factory",
      "outputs": [
        {
          "internalType": "address",
          "name": "",
          "type": "address"
        }
      ],
      "stateMutability": "pure",
      "type": "function"
    },
    {
      "inputs": [
        {
          "internalType": "uint256",
          "name": "",
          "type": "uint256"
        },
        {
          "internalType": "uint256",
          "name": "",
          "type": "uint256"
        },
        {
          "internalType": "uint256",
          "name": "",
          "type": "uint256"
        }
      ],
      "name": "getAmountIn",
      "outputs": [
        {
          "internalType": "uint256",
          "name": "amountIn",
          "type": "uint256"
        }
      ],
      "stateMutability": "pure",
      "type": "function"
    },
    {
      "inputs": [
        {
          "internalType": "uint256",
          "name": "",
          "type": "uint256"
        },
        {
          "internalType": "uint256",
          "name": "",
          "type": "uint256"
        },
        {
          "internalType": "uint256",
          "name": "",
          "type": "uint256"
        }
      ],
      "name": "getAmountOut",
      "outputs": [
        {
          "internalType": "uint256",
          "name": "amountOut",
          "type": "uint256"
        }
      ],
      "stateMutability": "pure",
      "type": "function"
    },
    {
      "inputs": [
        {
          "internalType": "uint256",
          "name": "",
          "type": "uint256"
        },
        {
          "internalType": "address[]",
          "name": "",
          "type": "address[]"
        }
      ],
      "name": "getAmountsIn",
      "outputs": [
        {
          "internalType": "uint256[]",
          "name": "amounts",
          "type": "uint256[]"
        }
      ],
      "stateMutability": "view",
      "type": "function"
    },
    {
      "inputs": [
        {
          "internalType": "uint256",
          "name": "amountIn",
          "type": "uint256"
        },
        {
          "internalType": "address[]",
          "name": "path",
          "type": "address[]"
        }
      ],
      "name": "getAmountsOut",
      "outputs": [
        {
          "internalType": "uint256[]",
          "name": "",
          "type": "uint256[]"
        }
      ],
      "stateMutability": "view",
      "type": "function"
    },
    {
      "inputs": [
        {
          "internalType": "address",
          "name": "",
          "type": "address"
        },
        {
          "internalType": "address",
          "name": "",
          "type": "address"
        }
      ],
      "name": "prices",
      "outputs": [
        {
          "internalType": "uint256",
          "name": "",
          "type": "uint256"
        }
      ],
      "stateMutability": "view",
      "type": "function"
    },
    {
      "inputs": [
        {
          "internalType": "uint256",
          "name": "",
          "type": "uint256"
        },
        {
          "internalType": "uint256",
          "name": "",
          "type": "uint256"
        },
        {
          "internalType": "uint256",
          "name": "",
          "type": "uint256"
        }
      ],
      "name": "quote",
      "outputs": [
        {
          "internalType": "uint256",
          "name": "amountB",
          "type": "uint256"
        }
      ],
      "stateMutability": "pure",
      "type": "function"
    },
    {
      "inputs": [
        {
          "internalType": "address",
          "name": "",
          "type": "address"
        },
        {
          "internalType": "address",
          "name": "",
          "type": "address"
        },
        {
          "internalType": "uint256",
          "name": "",
          "type": "uint256"
        },
        {
          "internalType": "uint256",
          "name": "",
          "type": "uint256"
        },
        {
          "internalType": "uint256",
          "name": "",
          "type": "uint256"
        },
        {
          "internalType": "address",
          "name": "",
          "type": "address"
        },
        {
          "internalType": "uint256",
          "name": "",
          "type": "uint256"
        }
      ],
      "name": "removeLiquidity",
      "outputs": [
        {
          "internalType": "uint256",
          "name": "amountA",
          "type": "uint256"
        },
        {
          "internalType": "uint256",
          "name": "amountB",
          "type": "uint256"
        }
      ],
      "stateMutability": "nonpayable",
      "type": "function"
    },
    {
      "inputs": [
        {
          "internalType": "address",
          "name": "",
          "type": "address"
        },
        {
          "internalType": "uint256",
          "name": "",
          "type": "uint256"
        },
        {
          "internalType": "uint256",
          "name": "",
          "type": "uint256"
        },
        {
          "internalType": "uint256",
          "name": "",
          "type": "uint256"
        },
        {
          "internalType": "address",
          "name": "",
          "type": "address"
        },
        {
          "internalType": "uint256",
          "name": "",
          "type": "uint256"
        }
      ],
      "name": "removeLiquidityETH",
      "outputs": [
        {
          "internalType": "uint256",
          "name": "amountToken",
          "type": "uint256"
        },
        {
          "internalType": "uint256",
          "name": "amountETH",
          "type": "uint256"
        }
      ],
      "stateMutability": "nonpayable",
      "type": "function"
    },
    {
      "inputs": [
        {
          "internalType": "address",
          "name": "",
          "type": "address"
        },
        {
          "internalType": "uint256",
          "name": "",
          "type": "uint256"
        },
        {
          "internalType": "uint256",
          "name": "",
          "type": "uint256"
        },
        {
          "internalType": "uint256",
          "name": "",
          "type": "uint256"
        },
        {
          "internalType": "address",
          "name": "",
          "type": "address"
        },
        {
          "internalType": "uint256",
          "name": "",
          "type": "uint256"
        }
      ],
      "name": "removeLiquidityETHSupportingFeeOnTransferTokens",
      "outputs": [
        {
          "internalType": "uint256",
          "name": "amountETH",
          "type": "uint256"
        }
      ],
      "stateMutability": "nonpayable",
      "type": "function"
    },
    {
      "inputs": [
        {
          "internalType": "address",
          "name": "",
          "type": "address"
        },
        {
          "internalType": "uint256",
          "name": "",
          "type": "uint256"
        },
        {
          "internalType": "uint256",
          "name": "",
          "type": "uint256"
        },
        {
          "internalType": "uint256",
          "name": "",
          "type": "uint256"
        },
        {
          "internalType": "address",
          "name": "",
          "type": "address"
        },
        {
          "internalType": "uint256",
          "name": "",
          "type": "uint256"
        },
        {
          "internalType": "bool",
          "name": "",
          "type": "bool"
        },
        {
          "internalType": "uint8",
          "name": "",
          "type": "uint8"
        },
        {
          "internalType": "bytes32",
          "name": "",
          "type": "bytes32"
        },
        {
          "internalType": "bytes32",
          "name": "",
          "type": "bytes32"
        }
      ],
      "name": "removeLiquidityETHWithPermit",
      "outputs": [
        {
          "internalType": "uint256",
          "name": "amountToken",
          "type": "uint256"
        },
        {
          "internalType": "uint256",
          "name": "amountETH",
          "type": "uint256"
        }
      ],
      "stateMutability": "nonpayable",
      "type": "function"
    },
    {
      "inputs": [
        {
          "internalType": "address",
          "name": "",
          "type": "address"
        },
        {
          "internalType": "uint256",
          "name": "",
          "type": "uint256"
        },
        {
          "internalType": "uint256",
          "name": "",
          "type": "uint256"
        },
        {
          "internalType": "uint256",
          "name": "",
          "type": "uint256"
        },
        {
          "internalType": "address",
          "name": "",
          "type": "address"
        },
        {
          "internalType": "uint256",
          "name": "",
          "type": "uint256"
        },
        {
          "internalType": "bool",
          "name": "",
          "type": "bool"
        },
        {
          "internalType": "uint8",
          "name": "",
          "type": "uint8"
        },
        {
          "internalType": "bytes32",
          "name": "",
          "type": "bytes32"
        },
        {
          "internalType": "bytes32",
          "name": "",
          "type": "bytes32"
        }
      ],
      "name": "removeLiquidityETHWithPermitSupportingFeeOnTransferTokens",
      "outputs": [
        {
          "internalType": "uint256",
          "name": "amountETH",
          "type": "uint256"
        }
      ],
      "stateMutability": "nonpayable",
      "type": "function"
    },
    {
      "inputs": [
        {
          "internalType": "address",
          "name": "",
          "type": "address"
        },
        {
          "internalType": "address",
          "name": "",
          "type": "address"
        },
        {
          "internalType": "uint256",
          "name": "",
          "type": "uint256"
        },
        {
          "internalType": "uint256",
          "name": "",
          "type": "uint256"
        },
        {
          "internalType": "uint256",
          "name": "",
          "type": "uint256"
        },
        {
          "internalType": "address",
          "name": "",
          "type": "address"
        },
        {
          "internalType": "uint256",
          "name": "",
          "type": "uint256"
        },
        {
          "internalType": "bool",
          "name": "",
          "type": "bool"
        },
        {
          "internalType": "uint8",
          "name": "",
          "type": "uint8"
        },
        {
          "internalType": "bytes32",
          "name": "",
          "type": "bytes32"
        },
        {
          "internalType": "bytes32",
          "name": "",
          "type": "bytes32"
        }
      ],
      "name": "removeLiquidityWithPermit",
      "outputs": [
        {
          "internalType": "uint256",
          "name": "amountA",
          "type": "uint256"
        },
        {
          "internalType": "uint256",
          "name": "amountB",
          "type": "uint256"
        }
      ],
      "stateMutability": "nonpayable",
      "type": "function"
    },
    {
      "inputs": [
        {
          "internalType": "address",
          "name": "tokenIn",
          "type": "address"
        },
        {
          "internalType": "address",
          "name": "tokenOut",
          "type": "address"
        },
        {
          "internalType": "uint256",
          "name": "price",
          "type": "uint256"
        }
      ],
      "name": "setPrice",
      "outputs": [],
      "stateMutability": "nonpayable",
      "type": "function"
    },
    {
      "inputs": [
        {
          "internalType": "uint256",
          "name": "amountOut",
          "type": "uint256"
        },
        {
          "internalType": "address[]",
          "name": "path",
          "type": "address[]"
        },
        {
          "internalType": "address",
          "name": "to",
          "type": "address"
        },
        {
          "internalType": "uint256",
          "name": "deadline",
          "type": "uint256"
        }
      ],
      "name": "swapETHForExactTokens",
      "outputs": [
        {
          "internalType": "uint256[]",
          "name": "amounts",
          "type": "uint256[]"
        }
      ],
      "stateMutability": "payable",
      "type": "function"
    },
    {
      "inputs": [
        {
          "internalType": "uint256",
          "name": "",
          "type": "uint256"
        },
        {
          "internalType": "address[]",
          "name": "",
          "type": "address[]"
        },
        {
          "internalType": "address",
          "name": "",
          "type": "address"
        },
        {
          "internalType": "uint256",
          "name": "",
          "type": "uint256"
        }
      ],
      "name": "swapExactETHForTokens",
      "outputs": [
        {
          "internalType": "uint256[]",
          "name": "amounts",
          "type": "uint256[]"
        }
      ],
      "stateMutability": "payable",
      "type": "function"
    },
    {
      "inputs": [
        {
          "internalType": "uint256",
          "name": "amountOutMin",
          "type": "uint256"
        },
        {
          "internalType": "address[]",
          "name": "path",
          "type": "address[]"
        },
        {
          "internalType": "address",
          "name": "to",
          "type": "address"
        },
        {
          "internalType": "uint256",
          "name": "deadline",
          "type": "uint256"
        }
      ],
      "name": "swapExactETHForTokensSupportingFeeOnTransferTokens",
      "outputs": [],
      "stateMutability": "payable",
      "type": "function"
    },
    {
      "inputs": [
        {
          "internalType": "uint256",
          "name": "",
          "type": "uint256"
        },
        {
          "internalType": "uint256",
          "name": "",
          "type": "uint256"
        },
        {
          "internalType": "address[]",
          "name": "",
          "type": "address[]"
        },
        {
          "internalType": "address",
          "name": "",
          "type": "address"
        },
        {
          "internalType": "uint256",
          "name": "",
          "type": "uint256"
        }
      ],
      "name": "swapExactTokensForETH",
      "outputs": [
        {
          "internalType": "uint256[]",
          "name": "amounts",
          "type": "uint256[]"
        }
      ],
      "stateMutability": "nonpayable",
      "type": "function"
    },
    {
      "inputs": [
        {
          "internalType": "uint256",
          "name": "amountIn",
          "type": "uint256"
        },
        {
          "internalType": "uint256",
          "name": "amountOutMin",
          "type": "uint256"
        },
        {
          "internalType": "address[]",
          "name": "path",
          "type": "address[]"
        },
        {
          "internalType": "address",
          "name": "to",
          "type": "address"
        },
        {
          "internalType": "uint256",
          "name": "deadline",
          "type": "uint256"
        }
      ],
      "name": "swapExactTokensForETHSupportingFeeOnTransferTokens",
      "outputs": [],
      "stateMutability": "nonpayable",
      "type": "function"
    },
    {
      "inputs": [
        {
          "internalType": "uint256",
          "name": "amountIn",
          "type": "uint256"
        },
        {
          "internalType": "uint256",
          "name": "amountOutMin",
          "type": "uint256"
        },
        {
          "internalType": "address[]",
          "name": "path",
          "type": "address[]"
        },
        {
          "internalType": "address",
          "name": "to",
          "type": "address"
        },
        {
          "internalType": "uint256",
          "name": "deadline",
          "type": "uint256"
        }
      ],
      "name": "swapExactTokensForTokens",
      "outputs": [
        {
          "internalType": "uint256[]",
          "name": "amounts",
          "type": "uint256[]"
        }
      ],
      "stateMutability": "nonpayable",
      "type": "function"
    },
    {
      "inputs": [
        {
          "internalType": "uint256",
          "name": "amountIn",
          "type": "uint256"
        },
        {
          "internalType": "uint256",
          "name": "amountOutMin",
          "type": "uint256"
        },
        {
          "internalType": "address[]",
          "name": "path",
          "type": "address[]"
        },
        {
          "internalType": "address",
          "name": "to",
          "type": "address"
        },
        {
          "internalType": "uint256",
          "name": "deadline",
          "type": "uint256"
        }
      ],
      "name": "swapExactTokensForTokensSupportingFeeOnTransferTokens",
      "outputs": [],
      "stateMutability": "nonpayable",
      "type": "function"
    },
    {
      "inputs": [
        {
          "internalType": "uint256",
          "name": "",
          "type": "uint256"
        },
        {
          "internalType": "uint256",
          "name": "",
          "type": "uint256"
        },
        {
          "internalType": "address[]",
          "name": "",
          "type": "address[]"
        },
        {
          "internalType": "address",
          "name": "",
          "type": "address"
        },
        {
          "internalType": "uint256",
          "name": "",
          "type": "uint256"
        }
      ],
      "name": "swapTokensForExactETH",
      "outputs": [
        {
          "internalType": "uint256[]",
          "name": "amounts",
          "type": "uint256[]"
        }
      ],
      "stateMutability": "nonpayable",
      "type": "function"
    },
    {
      "inputs": [
        {
          "internalType": "uint256",
          "name": "",
          "type": "uint256"
        },
        {
          "internalType": "uint256",
          "name": "",
          "type": "uint256"
        },
        {
          "internalType": "address[]",
          "name": "",
          "type": "address[]"
        },
        {
          "internalType": "address",
          "name": "",
          "type": "address"
        },
        {
          "internalType": "uint256",
          "name": "",
          "type": "uint256"
        }
      ],
      "name": "swapTokensForExactTokens",
      "outputs": [
        {
          "internalType": "uint256[]",
          "name": "amounts",
          "type": "uint256[]"
        }
      ],
      "stateMutability": "nonpayable",
      "type": "function"
    }
  ],
  "bytecode": "0x6080604052348015600f57600080fd5b50611fdc8061001f6000396000f3fe60806040526004361061019c5760003560e01c806385f8c259116100ec578063baa2abde1161008a578063ded9382a11610064578063ded9382a1461067f578063e8e33700146106bd578063f305d719146106fc578063fb3bdb411461072e5761019c565b8063baa2abde146105d9578063c45a015514610617578063d06ca61f146106425761019c565b8063ad5c4648116100c6578063ad5c464814610518578063ad615dec14610543578063af2979eb14610580578063b6f9de95146105bd5761019c565b806385f8c259146104735780638803dbee146104b0578063aaf5eb68146104ed5761019c565b806338ed1739116101595780635c11d795116101335780635c11d795146103c8578063791ac947146103f1578063792eb7911461041a5780637ff36ab5146104435761019c565b806338ed1739146103115780634a25d94a1461034e5780635b0d59841461038b5761019c565b806302751cec146101a1578063054d50d4146101df57806318cbafe51461021c5780631f00ca74146102595780631f312404146102965780632195995c146102d3575b600080fd5b3480156101ad57600080fd5b506101c860048036038101906101c391906110b8565b61075e565b6040516101d6929190611154565b60405180910390f35b3480156101eb57600080fd5b506102066004803603810190610201919061117d565b610773565b60405161021391906111d0565b60405180910390f35b34801561022857600080fd5b50610243600480360381019061023e9190611250565b61077c565b60405161025091906113a8565b60405180910390f35b34801561026557600080fd5b50610280600480360381019061027b91906113ca565b6107d4565b60405161028d91906113a8565b60405180910390f35b3480156102a257600080fd5b506102bd60048036038101906102b8919061142a565b610829565b6040516102ca91906111d0565b60405180910390f35b3480156102df57600080fd5b506102fa60048036038101906102f59190611511565b61084e565b604051610308929190611154565b60405180910390f35b34801561031d57600080fd5b5061033860048036038101906103339190611250565b610868565b60405161034591906113a8565b60405180910390f35b34801561035a57600080fd5b5061037560048036038101906103709190611250565b610b2b565b60405161038291906113a8565b60405180910390f35b34801561039757600080fd5b506103b260048036038101906103ad9190611605565b610b83565b6040516103bf91906111d0565b60405180910390f35b3480156103d457600080fd5b506103ef60048036038101906103ea9190611250565b610b93565b005b3480156103fd57600080fd5b5061041860048036038101906104139190611250565b610b9b565b005b34801561042657600080fd5b50610441600480360381019061043c91906116e4565b610ba3565b005b61045d60048036038101906104589190611737565b610c28565b60405161046a91906113a8565b60405180910390f35b34801561047f57600080fd5b5061049a6004803603810190610495919061117d565b610c7f565b6040516104a791906111d0565b60405180910390f35b3480156104bc57600080fd5b506104d760048036038101906104d29190611250565b610c88565b6040516104e491906113a8565b60405180910390f35b3480156104f957600080fd5b50610502610ce0565b60405161050f91906111d0565b60405180910390f35b34801561052457600080fd5b5061052d610cec565b60405161053a91906117ce565b60405180910390f35b34801561054f57600080fd5b5061056a6004803603810190610565919061117d565b610cf1565b60405161057791906111d0565b60405180910390f35b34801561058c57600080fd5b506105a760048036038101906105a291906110b8565b610cfa565b6040516105b491906111d0565b60405180910390f35b6105d760048036038101906105d29190611737565b610d06565b005b3480156105e557600080fd5b5061060060048036038101906105fb91906117e9565b610d0d565b60405161060e929190611154565b60405180910390f35b34801561062357600080fd5b5061062c610d23565b60405161063991906117ce565b60405180910390f35b34801561064e57600080fd5b50610669600480360381019061066491906113ca565b610d28565b60405161067691906113a8565b60405180910390f35b34801561068b57600080fd5b506106a660048036038101906106a19190611605565b610f68565b6040516106b4929190611154565b60405180910390f35b3480156106c957600080fd5b506106e460048036038101906106df919061188b565b610f81565b6040516106f393929190611941565b60405180910390f35b610716600480360381019061071191906110b8565b610f9e565b60405161072593929190611941565b60405180910390f35b61074860048036038101906107439190611737565b610fb9565b60405161075591906113a8565b60405180910390f35b60008060008091509150965096945050505050565b60009392505050565b6060600067ffffffffffffffff81111561079957610798611978565b5b6040519080825280602002602001820160405280156107c75781602001602082028036833780820191505090505b5090509695505050505050565b6060600067ffffffffffffffff8111156107f1576107f0611978565b5b60405190808252806020026020018201604052801561081f5781602001602082028036833780820191505090505b5090509392505050565b6000602052816000526040600020602052806000526040600020600091509150505481565b600080600080915091509b509b9950505050505050505050565b6060428210156108ad576040517f08c379a00000000000000000000000000000000000000000000000000000000081526004016108a490611a04565b60405180910390fd5b3073ffffffffffffffffffffffffffffffffffffffff1663d06ca61f8887876040518463ffffffff1660e01b81526004016108ea93929190611ae7565b600060405180830381865afa158015610907573d6000803e3d6000fd5b505050506040513d6000823e3d601f19601f820116820180604052508101906109309190611c4e565b90508581600183516109429190611cc6565b8151811061095357610952611cfa565b5b6020026020010151101561099c576040517f08c379a000000000000000000000000000000000000000000000000000000000815260040161099390611d75565b60405180910390fd5b848460008181106109b0576109af611cfa565b5b90506020020160208101906109c59190611d95565b73ffffffffffffffffffffffffffffffffffffffff166323b872dd33308a6040518463ffffffff1660e01b8152600401610a0193929190611dc2565b6020604051808303816000875af1158015610a20573d6000803e3d6000fd5b505050506040513d601f19601f82011682018060405250810190610a449190611e0e565b508484600187879050610a579190611cc6565b818110610a6757610a66611cfa565b5b9050602002016020810190610a7c9190611d95565b73ffffffffffffffffffffffffffffffffffffffff1663a9059cbb848360018551610aa79190611cc6565b81518110610ab857610ab7611cfa565b5b60200260200101516040518363ffffffff1660e01b8152600401610add929190611e3b565b6020604051808303816000875af1158015610afc573d6000803e3d6000fd5b505050506040513d601f19601f82011682018060405250810190610b209190611e0e565b509695505050505050565b6060600067ffffffffffffffff811115610b4857610b47611978565b5b604051908082528060200260200182016040528015610b765781602001602082028036833780820191505090505b5090509695505050505050565b60009a9950505050505050505050565b505050505050565b505050505050565b806000808573ffffffffffffffffffffffffffffffffffffffff1673ffffffffffffffffffffffffffffffffffffffff16815260200190815260200160002060008473ffffffffffffffffffffffffffffffffffffffff1673ffffffffffffffffffffffffffffffffffffffff16815260200190815260200160002081905550505050565b6060600067ffffffffffffffff811115610c4557610c44611978565b5b604051908082528060200260200182016040528015610c735781602001602082028036833780820191505090505b50905095945050505050565b60009392505050565b6060600067ffffffffffffffff811115610ca557610ca4611978565b5b604051908082528060200260200182016040528015610cd35781602001602082028036833780820191505090505b5090509695505050505050565b670de0b6b3a764000081565b600090565b60009392505050565b60009695505050505050565b5050505050565b6000806000809150915097509795505050505050565b600090565b60606002838390501015610d71576040517f08c379a0000000000000000000000000000000000000000000000000000000008152600401610d6890611eb0565b60405180910390fd5b60008383905067ffffffffffffffff811115610d9057610d8f611978565b5b604051908082528060200260200182016040528015610dbe5781602001602082028036833780820191505090505b5090508481600081518110610dd657610dd5611cfa565b5b60200260200101818152505060005b600185859050610df59190611cc6565b811015610f5c576000806000878785818110610e1457610e13611cfa565b5b9050602002016020810190610e299190611d95565b73ffffffffffffffffffffffffffffffffffffffff1673ffffffffffffffffffffffffffffffffffffffff16815260200190815260200160002060008787600186610e749190611ed0565b818110610e8457610e83611cfa565b5b9050602002016020810190610e999190611d95565b73ffffffffffffffffffffffffffffffffffffffff1673ffffffffffffffffffffffffffffffffffffffff16815260200190815260200160002054905060008103610eea57670de0b6b3a764000090505b670de0b6b3a764000081848481518110610f0757610f06611cfa565b5b6020026020010151610f199190611f04565b610f239190611f75565b83600184610f319190611ed0565b81518110610f4257610f41611cfa565b5b602002602001018181525050508080600101915050610de5565b50809150509392505050565b600080600080915091509a509a98505050505050505050565b600080600080600080925092509250985098509895505050505050565b60008060008060008092509250925096509650969350505050565b6060600067ffffffffffffffff811115610fd657610fd5611978565b5b6040519080825280602002602001820160405280156110045781602001602082028036833780820191505090505b50905095945050505050565b6000604051905090565b600080fd5b600080fd5b600073ffffffffffffffffffffffffffffffffffffffff82169050919050565b600061104f82611024565b9050919050565b61105f81611044565b811461106a57600080fd5b50565b60008135905061107c81611056565b92915050565b6000819050919050565b61109581611082565b81146110a057600080fd5b50565b6000813590506110b28161108c565b92915050565b60008060008060008060c087890312156110d5576110d461101a565b5b60006110e389828a0161106d565b96505060206110f489828a016110a3565b955050604061110589828a016110a3565b945050606061111689828a016110a3565b935050608061112789828a0161106d565b92505060a061113889828a016110a3565b9150509295509295509295565b61114e81611082565b82525050565b60006040820190506111696000830185611145565b6111766020830184611145565b9392505050565b6000806000606084860312156111965761119561101a565b5b60006111a4868287016110a3565b93505060206111b5868287016110a3565b92505060406111c6868287016110a3565b9150509250925092565b60006020820190506111e56000830184611145565b92915050565b600080fd5b600080fd5b600080fd5b60008083601f8401126112105761120f6111eb565b5b8235905067ffffffffffffffff81111561122d5761122c6111f0565b5b602083019150836020820283011115611249576112486111f5565b5b9250929050565b60008060008060008060a0878903121561126d5761126c61101a565b5b600061127b89828a016110a3565b965050602061128c89828a016110a3565b955050604087013567ffffffffffffffff8111156112ad576112ac61101f565b5b6112b989828a016111fa565b945094505060606112cc89828a0161106d565b92505060806112dd89828a016110a3565b9150509295509295509295565b600081519050919050565b600082825260208201905092915050565b6000819050602082019050919050565b61131f81611082565b82525050565b60006113318383611316565b60208301905092915050565b6000602082019050919050565b6000611355826112ea565b61135f81856112f5565b935061136a83611306565b8060005b8381101561139b5781516113828882611325565b975061138d8361133d565b92505060018101905061136e565b5085935050505092915050565b600060208201905081810360008301526113c2818461134a565b905092915050565b6000806000604084860312156113e3576113e261101a565b5b60006113f1868287016110a3565b935050602084013567ffffffffffffffff8111156114125761141161101f565b5b61141e868287016111fa565b92509250509250925092565b600080604083850312156114415761144061101a565b5b600061144f8582860161106d565b92505060206114608582860161106d565b9150509250929050565b60008115159050919050565b61147f8161146a565b811461148a57600080fd5b50565b60008135905061149c81611476565b92915050565b600060ff82169050919050565b6114b8816114a2565b81146114c357600080fd5b50565b6000813590506114d5816114af565b92915050565b6000819050919050565b6114ee816114db565b81146114f957600080fd5b50565b60008135905061150b816114e5565b92915050565b60008060008060008060008060008060006101608c8e0312156115375761153661101a565b5b60006115458e828f0161106d565b9b505060206115568e828f0161106d565b9a505060406115678e828f016110a3565b99505060606115788e828f016110a3565b98505060806115898e828f016110a3565b97505060a061159a8e828f0161106d565b96505060c06115ab8e828f016110a3565b95505060e06115bc8e828f0161148d565b9450506101006115ce8e828f016114c6565b9350506101206115e08e828f016114fc565b9250506101406115f28e828f016114fc565b9150509295989b509295989b9093969950565b6000806000806000806000806000806101408b8d0312156116295761162861101a565b5b60006116378d828e0161106d565b9a505060206116488d828e016110a3565b99505060406116598d828e016110a3565b985050606061166a8d828e016110a3565b975050608061167b8d828e0161106d565b96505060a061168c8d828e016110a3565b95505060c061169d8d828e0161148d565b94505060e06116ae8d828e016114c6565b9350506101006116c08d828e016114fc565b9250506101206116d28d828e016114fc565b9150509295989b9194979a5092959850565b6000806000606084860312156116fd576116fc61101a565b5b600061170b8682870161106d565b935050602061171c8682870161106d565b925050604061172d868287016110a3565b9150509250925092565b6000806000806000608086880312156117535761175261101a565b5b6000611761888289016110a3565b955050602086013567ffffffffffffffff8111156117825761178161101f565b5b61178e888289016111fa565b945094505060406117a18882890161106d565b92505060606117b2888289016110a3565b9150509295509295909350565b6117c881611044565b82525050565b60006020820190506117e360008301846117bf565b92915050565b600080600080600080600060e0888a0312156118085761180761101a565b5b60006118168a828b0161106d565b97505060206118278a828b0161106d565b96505060406118388a828b016110a3565b95505060606118498a828b016110a3565b945050608061185a8a828b016110a3565b93505060a061186b8a828b0161106d565b92505060c061187c8a828b016110a3565b91505092959891949750929550565b600080600080600080600080610100898b0312156118ac576118ab61101a565b5b60006118ba8b828c0161106d565b98505060206118cb8b828c0161106d565b97505060406118dc8b828c016110a3565b96505060606118ed8b828c016110a3565b95505060806118fe8b828c016110a3565b94505060a061190f8b828c016110a3565b93505060c06119208b828c0161106d565b92505060e06119318b828c016110a3565b9150509295985092959890939650565b60006060820190506119566000830186611145565b6119636020830185611145565b6119706040830184611145565b949350505050565b7f4e487b7100000000000000000000000000000000000000000000000000000000600052604160045260246000fd5b600082825260208201905092915050565b7f4578706972656400000000000000000000000000000000000000000000000000600082015250565b60006119ee6007836119a7565b91506119f9826119b8565b602082019050919050565b60006020820190508181036000830152611a1d816119e1565b9050919050565b600082825260208201905092915050565b6000819050919050565b611a4881611044565b82525050565b6000611a5a8383611a3f565b60208301905092915050565b6000611a75602084018461106d565b905092915050565b6000602082019050919050565b6000611a968385611a24565b9350611aa182611a35565b8060005b85811015611ada57611ab78284611a66565b611ac18882611a4e565b9750611acc83611a7d565b925050600181019050611aa5565b5085925050509392505050565b6000604082019050611afc6000830186611145565b8181036020830152611b0f818486611a8a565b9050949350505050565b6000601f19601f8301169050919050565b611b3382611b19565b810181811067ffffffffffffffff82111715611b5257611b51611978565b5b80604052505050565b6000611b65611010565b9050611b718282611b2a565b919050565b600067ffffffffffffffff821115611b9157611b90611978565b5b602082029050602081019050919050565b600081519050611bb18161108c565b92915050565b6000611bca611bc584611b76565b611b5b565b90508083825260208201905060208402830185811115611bed57611bec6111f5565b5b835b81811015611c165780611c028882611ba2565b845260208401935050602081019050611bef565b5050509392505050565b600082601f830112611c3557611c346111eb565b5b8151611c45848260208601611bb7565b91505092915050565b600060208284031215611c6457611c6361101a565b5b600082015167ffffffffffffffff811115611c8257611c8161101f565b5b611c8e84828501611c20565b91505092915050565b7f4e487b7100000000000000000000000000000000000000000000000000000000600052601160045260246000fd5b6000611cd182611082565b9150611cdc83611082565b9250828203905081811115611cf457611cf3611c97565b5b92915050565b7f4e487b7100000000000000000000000000000000000000000000000000000000600052603260045260246000fd5b7f496e73756666696369656e74206f757470757420616d6f756e74000000000000600082015250565b6000611d5f601a836119a7565b9150611d6a82611d29565b602082019050919050565b60006020820190508181036000830152611d8e81611d52565b9050919050565b600060208284031215611dab57611daa61101a565b5b6000611db98482850161106d565b91505092915050565b6000606082019050611dd760008301866117bf565b611de460208301856117bf565b611df16040830184611145565b949350505050565b600081519050611e0881611476565b92915050565b600060208284031215611e2457611e2361101a565b5b6000611e3284828501611df9565b91505092915050565b6000604082019050611e5060008301856117bf565b611e5d6020830184611145565b9392505050565b7f496e76616c696420706174680000000000000000000000000000000000000000600082015250565b6000611e9a600c836119a7565b9150611ea582611e64565b602082019050919050565b60006020820190508181036000830152611ec981611e8d565b9050919050565b6000611edb82611082565b9150611ee683611082565b9250828201905080821115611efe57611efd611c97565b5b92915050565b6000611f0f82611082565b9150611f1a83611082565b9250828202611f2881611082565b91508282048414831517611f3f57611f3e611c97565b5b5092915050565b7f4e487b7100000000000000000000000000000000000000000000000000000000600052601260045260246000fd5b6000611f8082611082565b9150611f8b83611082565b925082611f9b57611f9a611f46565b5b82820490509291505056fea26469706673582212201da0156687fe3d5e12310f9fb286bd506d23c312b991b22497496c98172033a164736f6c634300081c0033",
  "linkReferences": {},
  "deployedLinkReferences": {}
}