{
  "_format": "hh-sol-artifact-1",
  "contractName": "MockUniswapV2Router",
  "sourceName": "contracts/mocks/MockUniswapV2Router.sol",
  "abi": [
    {
      "inputs": [],
      "name": "WETH",
      "outputs": [
        {
          "internalType": "address",
          "name": "",
          "type": "address"
        }
      ],
      "stateMutability": "pure",
      "type": "function"
    },
    {
      "inputs": [
        {
          "internalType": "address",
          "name": "tokenA",
          "type": "address"
        },
        {
          "internalType": "address",
          "name": "tokenB",
          "type": "address"
        },
        {
          "internalType": "uint256",
          "name": "amountADesired",
          "type": "uint256"
        },
        {
          "internalType": "uint256",
          "name": "amountBDesired",
          "type": "uint256"
        },
        {
          "internalType": "uint256",
          "name": "amountAMin",
          "type": "uint256"
        },
        {
          "internalType": "uint256",
          "name": "amountBMin",
          "type": "uint256"
        },
        {
          "internalType": "address",
          "name": "to",
          "type": "address"
        },
        {
          "internalType": "uint256",
          "name": "deadline",
          "type": "uint256"
        }
      ],
      "name": "addLiquidity",
      "outputs": [
        {
          "internalType": "uint256",
          "name": "amountA",
          "type": "uint256"
        },
        {
          "internalType": "uint256",
          "name": "amountB",
          "type": "uint256"
        },
        {
          "internalType": "uint256",
          "name": "liquidity",
          "type": "uint256"
        }
      ],
      "stateMutability": "nonpayable",
      "type": "function"
    },
    {
      "inputs": [
        {
          "internalType": "address",
          "name": "token",
          "type": "address"
        },
        {
          "internalType": "uint256",
          "name": "amountTokenDesired",
          "type": "uint256"
        },
        {
          "internalType": "uint256",
          "name": "amountTokenMin",
          "type": "uint256"
        },
        {
          "internalType": "uint256",
          "name": "amountETHMin",
          "type": "uint256"
        },
        {
          "internalType": "address",
          "name": "to",
          "type": "address"
        },
        {
          "internalType": "uint256",
          "name": "deadline",
          "type": "uint256"
        }
      ],
      "name": "addLiquidityETH",
      "outputs": [
        {
          "internalType": "uint256",
          "name": "amountToken",
          "type": "uint256"
        },
        {
          "internalType": "uint256",
          "name": "amountETH",
          "type": "uint256"
        },
        {
          "internalType": "uint256",
          "name": "liquidity",
          "type": "uint256"
        }
      ],
      "stateMutability": "payable",
      "type": "function"
    },
    {
      "inputs": [],
      "name": "factory",
      "outputs": [
        {
          "internalType": "address",
          "name": "",
          "type": "address"
        }
      ],
      "stateMutability": "pure",
      "type": "function"
    },
    {
      "inputs": [
        {
          "internalType": "uint256",
          "name": "amountOut",
          "type": "uint256"
        },
        {
          "internalType": "uint256",
          "name": "reserveIn",
          "type": "uint256"
        },
        {
          "internalType": "uint256",
          "name": "reserveOut",
          "type": "uint256"
        }
      ],
      "name": "getAmountIn",
      "outputs": [
        {
          "internalType": "uint256",
          "name": "amountIn",
          "type": "uint256"
        }
      ],
      "stateMutability": "pure",
      "type": "function"
    },
    {
      "inputs": [
        {
          "internalType": "uint256",
          "name": "amountIn",
          "type": "uint256"
        },
        {
          "internalType": "uint256",
          "name": "reserveIn",
          "type": "uint256"
        },
        {
          "internalType": "uint256",
          "name": "reserveOut",
          "type": "uint256"
        }
      ],
      "name": "getAmountOut",
      "outputs": [
        {
          "internalType": "uint256",
          "name": "amountOut",
          "type": "uint256"
        }
      ],
      "stateMutability": "pure",
      "type": "function"
    },
    {
      "inputs": [
        {
          "internalType": "uint256",
          "name": "amountOut",
          "type": "uint256"
        },
        {
          "internalType": "address[]",
          "name": "path",
          "type": "address[]"
        }
      ],
      "name": "getAmountsIn",
      "outputs": [
        {
          "internalType": "uint256[]",
          "name": "amounts",
          "type": "uint256[]"
        }
      ],
      "stateMutability": "view",
      "type": "function"
    },
    {
      "inputs": [
        {
          "internalType": "uint256",
          "name": "amountIn",
          "type": "uint256"
        },
        {
          "internalType": "address[]",
          "name": "path",
          "type": "address[]"
        }
      ],
      "name": "getAmountsOut",
      "outputs": [
        {
          "internalType": "uint256[]",
          "name": "amounts",
          "type": "uint256[]"
        }
      ],
      "stateMutability": "view",
      "type": "function"
    },
    {
      "inputs": [
        {
          "internalType": "address",
          "name": "",
          "type": "address"
        },
        {
          "internalType": "address",
          "name": "",
          "type": "address"
        }
      ],
      "name": "prices",
      "outputs": [
        {
          "internalType": "uint256",
          "name": "",
          "type": "uint256"
        }
      ],
      "stateMutability": "view",
      "type": "function"
    },
    {
      "inputs": [
        {
          "internalType": "uint256",
          "name": "amountA",
          "type": "uint256"
        },
        {
          "internalType": "uint256",
          "name": "reserveA",
          "type": "uint256"
        },
        {
          "internalType": "uint256",
          "name": "reserveB",
          "type": "uint256"
        }
      ],
      "name": "quote",
      "outputs": [
        {
          "internalType": "uint256",
          "name": "amountB",
          "type": "uint256"
        }
      ],
      "stateMutability": "pure",
      "type": "function"
    },
    {
      "inputs": [
        {
          "internalType": "address",
          "name": "tokenA",
          "type": "address"
        },
        {
          "internalType": "address",
          "name": "tokenB",
          "type": "address"
        },
        {
          "internalType": "uint256",
          "name": "liquidity",
          "type": "uint256"
        },
        {
          "internalType": "uint256",
          "name": "amountAMin",
          "type": "uint256"
        },
        {
          "internalType": "uint256",
          "name": "amountBMin",
          "type": "uint256"
        },
        {
          "internalType": "address",
          "name": "to",
          "type": "address"
        },
        {
          "internalType": "uint256",
          "name": "deadline",
          "type": "uint256"
        }
      ],
      "name": "removeLiquidity",
      "outputs": [
        {
          "internalType": "uint256",
          "name": "amountA",
          "type": "uint256"
        },
        {
          "internalType": "uint256",
          "name": "amountB",
          "type": "uint256"
        }
      ],
      "stateMutability": "nonpayable",
      "type": "function"
    },
    {
      "inputs": [
        {
          "internalType": "address",
          "name": "token",
          "type": "address"
        },
        {
          "internalType": "uint256",
          "name": "liquidity",
          "type": "uint256"
        },
        {
          "internalType": "uint256",
          "name": "amountTokenMin",
          "type": "uint256"
        },
        {
          "internalType": "uint256",
          "name": "amountETHMin",
          "type": "uint256"
        },
        {
          "internalType": "address",
          "name": "to",
          "type": "address"
        },
        {
          "internalType": "uint256",
          "name": "deadline",
          "type": "uint256"
        }
      ],
      "name": "removeLiquidityETH",
      "outputs": [
        {
          "internalType": "uint256",
          "name": "amountToken",
          "type": "uint256"
        },
        {
          "internalType": "uint256",
          "name": "amountETH",
          "type": "uint256"
        }
      ],
      "stateMutability": "nonpayable",
      "type": "function"
    },
    {
      "inputs": [
        {
          "internalType": "address",
          "name": "token",
          "type": "address"
        },
        {
          "internalType": "uint256",
          "name": "liquidity",
          "type": "uint256"
        },
        {
          "internalType": "uint256",
          "name": "amountTokenMin",
          "type": "uint256"
        },
        {
          "internalType": "uint256",
          "name": "amountETHMin",
          "type": "uint256"
        },
        {
          "internalType": "address",
          "name": "to",
          "type": "address"
        },
        {
          "internalType": "uint256",
          "name": "deadline",
          "type": "uint256"
        }
      ],
      "name": "removeLiquidityETHSupportingFeeOnTransferTokens",
      "outputs": [
        {
          "internalType": "uint256",
          "name": "amountETH",
          "type": "uint256"
        }
      ],
      "stateMutability": "nonpayable",
      "type": "function"
    },
    {
      "inputs": [
        {
          "internalType": "address",
          "name": "token",
          "type": "address"
        },
        {
          "internalType": "uint256",
          "name": "liquidity",
          "type": "uint256"
        },
        {
          "internalType": "uint256",
          "name": "amountTokenMin",
          "type": "uint256"
        },
        {
          "internalType": "uint256",
          "name": "amountETHMin",
          "type": "uint256"
        },
        {
          "internalType": "address",
          "name": "to",
          "type": "address"
        },
        {
          "internalType": "uint256",
          "name": "deadline",
          "type": "uint256"
        },
        {
          "internalType": "bool",
          "name": "approveMax",
          "type": "bool"
        },
        {
          "internalType": "uint8",
          "name": "v",
          "type": "uint8"
        },
        {
          "internalType": "bytes32",
          "name": "r",
          "type": "bytes32"
        },
        {
          "internalType": "bytes32",
          "name": "s",
          "type": "bytes32"
        }
      ],
      "name": "removeLiquidityETHWithPermit",
      "outputs": [
        {
          "internalType": "uint256",
          "name": "amountToken",
          "type": "uint256"
        },
        {
          "internalType": "uint256",
          "name": "amountETH",
          "type": "uint256"
        }
      ],
      "stateMutability": "nonpayable",
      "type": "function"
    },
    {
      "inputs": [
        {
          "internalType": "address",
          "name": "token",
          "type": "address"
        },
        {
          "internalType": "uint256",
          "name": "liquidity",
          "type": "uint256"
        },
        {
          "internalType": "uint256",
          "name": "amountTokenMin",
          "type": "uint256"
        },
        {
          "internalType": "uint256",
          "name": "amountETHMin",
          "type": "uint256"
        },
        {
          "internalType": "address",
          "name": "to",
          "type": "address"
        },
        {
          "internalType": "uint256",
          "name": "deadline",
          "type": "uint256"
        },
        {
          "internalType": "bool",
          "name": "approveMax",
          "type": "bool"
        },
        {
          "internalType": "uint8",
          "name": "v",
          "type": "uint8"
        },
        {
          "internalType": "bytes32",
          "name": "r",
          "type": "bytes32"
        },
        {
          "internalType": "bytes32",
          "name": "s",
          "type": "bytes32"
        }
      ],
      "name": "removeLiquidityETHWithPermitSupportingFeeOnTransferTokens",
      "outputs": [
        {
          "internalType": "uint256",
          "name": "amountETH",
          "type": "uint256"
        }
      ],
      "stateMutability": "nonpayable",
      "type": "function"
    },
    {
      "inputs": [
        {
          "internalType": "address",
          "name": "tokenA",
          "type": "address"
        },
        {
          "internalType": "address",
          "name": "tokenB",
          "type": "address"
        },
        {
          "internalType": "uint256",
          "name": "liquidity",
          "type": "uint256"
        },
        {
          "internalType": "uint256",
          "name": "amountAMin",
          "type": "uint256"
        },
        {
          "internalType": "uint256",
          "name": "amountBMin",
          "type": "uint256"
        },
        {
          "internalType": "address",
          "name": "to",
          "type": "address"
        },
        {
          "internalType": "uint256",
          "name": "deadline",
          "type": "uint256"
        },
        {
          "internalType": "bool",
          "name": "approveMax",
          "type": "bool"
        },
        {
          "internalType": "uint8",
          "name": "v",
          "type": "uint8"
        },
        {
          "internalType": "bytes32",
          "name": "r",
          "type": "bytes32"
        },
        {
          "internalType": "bytes32",
          "name": "s",
          "type": "bytes32"
        }
      ],
      "name": "removeLiquidityWithPermit",
      "outputs": [
        {
          "internalType": "uint256",
          "name": "amountA",
          "type": "uint256"
        },
        {
          "internalType": "uint256",
          "name": "amountB",
          "type": "uint256"
        }
      ],
      "stateMutability": "nonpayable",
      "type": "function"
    },
    {
      "inputs": [
        {
          "internalType": "address",
          "name": "tokenIn",
          "type": "address"
        },
        {
          "internalType": "address",
          "name": "tokenOut",
          "type": "address"
        },
        {
          "internalType": "uint256",
          "name": "price",
          "type": "uint256"
        }
      ],
      "name": "setPrice",
      "outputs": [],
      "stateMutability": "nonpayable",
      "type": "function"
    },
    {
      "inputs": [
        {
          "internalType": "uint256",
          "name": "amountOut",
          "type": "uint256"
        },
        {
          "internalType": "address[]",
          "name": "path",
          "type": "address[]"
        },
        {
          "internalType": "address",
          "name": "to",
          "type": "address"
        },
        {
          "internalType": "uint256",
          "name": "deadline",
          "type": "uint256"
        }
      ],
      "name": "swapETHForExactTokens",
      "outputs": [
        {
          "internalType": "uint256[]",
          "name": "amounts",
          "type": "uint256[]"
        }
      ],
      "stateMutability": "payable",
      "type": "function"
    },
    {
      "inputs": [
        {
          "internalType": "uint256",
          "name": "amountOutMin",
          "type": "uint256"
        },
        {
          "internalType": "address[]",
          "name": "path",
          "type": "address[]"
        },
        {
          "internalType": "address",
          "name": "to",
          "type": "address"
        },
        {
          "internalType": "uint256",
          "name": "deadline",
          "type": "uint256"
        }
      ],
      "name": "swapExactETHForTokens",
      "outputs": [
        {
          "internalType": "uint256[]",
          "name": "amounts",
          "type": "uint256[]"
        }
      ],
      "stateMutability": "payable",
      "type": "function"
    },
    {
      "inputs": [
        {
          "internalType": "uint256",
          "name": "amountOutMin",
          "type": "uint256"
        },
        {
          "internalType": "address[]",
          "name": "path",
          "type": "address[]"
        },
        {
          "internalType": "address",
          "name": "to",
          "type": "address"
        },
        {
          "internalType": "uint256",
          "name": "deadline",
          "type": "uint256"
        }
      ],
      "name": "swapExactETHForTokensSupportingFeeOnTransferTokens",
      "outputs": [],
      "stateMutability": "payable",
      "type": "function"
    },
    {
      "inputs": [
        {
          "internalType": "uint256",
          "name": "amountIn",
          "type": "uint256"
        },
        {
          "internalType": "uint256",
          "name": "amountOutMin",
          "type": "uint256"
        },
        {
          "internalType": "address[]",
          "name": "path",
          "type": "address[]"
        },
        {
          "internalType": "address",
          "name": "to",
          "type": "address"
        },
        {
          "internalType": "uint256",
          "name": "deadline",
          "type": "uint256"
        }
      ],
      "name": "swapExactTokensForETH",
      "outputs": [
        {
          "internalType": "uint256[]",
          "name": "amounts",
          "type": "uint256[]"
        }
      ],
      "stateMutability": "nonpayable",
      "type": "function"
    },
    {
      "inputs": [
        {
          "internalType": "uint256",
          "name": "amountIn",
          "type": "uint256"
        },
        {
          "internalType": "uint256",
          "name": "amountOutMin",
          "type": "uint256"
        },
        {
          "internalType": "address[]",
          "name": "path",
          "type": "address[]"
        },
        {
          "internalType": "address",
          "name": "to",
          "type": "address"
        },
        {
          "internalType": "uint256",
          "name": "deadline",
          "type": "uint256"
        }
      ],
      "name": "swapExactTokensForETHSupportingFeeOnTransferTokens",
      "outputs": [],
      "stateMutability": "nonpayable",
      "type": "function"
    },
    {
      "inputs": [
        {
          "internalType": "uint256",
          "name": "amountIn",
          "type": "uint256"
        },
        {
          "internalType": "uint256",
          "name": "amountOutMin",
          "type": "uint256"
        },
        {
          "internalType": "address[]",
          "name": "path",
          "type": "address[]"
        },
        {
          "internalType": "address",
          "name": "to",
          "type": "address"
        },
        {
          "internalType": "uint256",
          "name": "deadline",
          "type": "uint256"
        }
      ],
      "name": "swapExactTokensForTokens",
      "outputs": [
        {
          "internalType": "uint256[]",
          "name": "amounts",
          "type": "uint256[]"
        }
      ],
      "stateMutability": "nonpayable",
      "type": "function"
    },
    {
      "inputs": [
        {
          "internalType": "uint256",
          "name": "amountIn",
          "type": "uint256"
        },
        {
          "internalType": "uint256",
          "name": "amountOutMin",
          "type": "uint256"
        },
        {
          "internalType": "address[]",
          "name": "path",
          "type": "address[]"
        },
        {
          "internalType": "address",
          "name": "to",
          "type": "address"
        },
        {
          "internalType": "uint256",
          "name": "deadline",
          "type": "uint256"
        }
      ],
      "name": "swapExactTokensForTokensSupportingFeeOnTransferTokens",
      "outputs": [],
      "stateMutability": "nonpayable",
      "type": "function"
    },
    {
      "inputs": [
        {
          "internalType": "uint256",
          "name": "amountOut",
          "type": "uint256"
        },
        {
          "internalType": "uint256",
          "name": "amountInMax",
          "type": "uint256"
        },
        {
          "internalType": "address[]",
          "name": "path",
          "type": "address[]"
        },
        {
          "internalType": "address",
          "name": "to",
          "type": "address"
        },
        {
          "internalType": "uint256",
          "name": "deadline",
          "type": "uint256"
        }
      ],
      "name": "swapTokensForExactETH",
      "outputs": [
        {
          "internalType": "uint256[]",
          "name": "amounts",
          "type": "uint256[]"
        }
      ],
      "stateMutability": "nonpayable",
      "type": "function"
    },
    {
      "inputs": [
        {
          "internalType": "uint256",
          "name": "amountOut",
          "type": "uint256"
        },
        {
          "internalType": "uint256",
          "name": "amountInMax",
          "type": "uint256"
        },
        {
          "internalType": "address[]",
          "name": "path",
          "type": "address[]"
        },
        {
          "internalType": "address",
          "name": "to",
          "type": "address"
        },
        {
          "internalType": "uint256",
          "name": "deadline",
          "type": "uint256"
        }
      ],
      "name": "swapTokensForExactTokens",
      "outputs": [
        {
          "internalType": "uint256[]",
          "name": "amounts",
          "type": "uint256[]"
        }
      ],
      "stateMutability": "nonpayable",
      "type": "function"
    },
    {
      "inputs": [
        {
          "internalType": "address",
          "name": "",
          "type": "address"
        }
      ],
      "name": "tokenBalances",
      "outputs": [
        {
          "internalType": "uint256",
          "name": "",
          "type": "uint256"
        }
      ],
      "stateMutability": "view",
      "type": "function"
    }
  ],
  "bytecode": "0x6080604052348015600f57600080fd5b506110f38061001f6000396000f3fe60806040526004361061019c5760003560e01c80637ff36ab5116100ec578063baa2abde1161008a578063ded9382a11610064578063ded9382a1461045d578063e8e337001461048a578063f305d719146104d2578063fb3bdb41146103a857600080fd5b8063baa2abde14610413578063c45a0155146103bb578063d06ca61f1461043d57600080fd5b8063ad5c4648116100c6578063ad5c4648146103bb578063ad615dec146101e4578063af2979eb146103d7578063b6f9de95146103fe57600080fd5b80637ff36ab5146103a857806385f8c259146101e45780638803dbee1461021657600080fd5b806338ed1739116101595780635b0d5984116101335780635b0d5984146103135780635c11d7951461033e578063791ac9471461033e578063792eb7911461036357600080fd5b806338ed1739146102c65780634a25d94a14610216578063523fba7f146102e657600080fd5b806302751cec146101a1578063054d50d4146101e457806318cbafe5146102165780631f00ca74146102435780631f312404146102635780632195995c14610298575b600080fd5b3480156101ad57600080fd5b506101ca6101bc366004610afe565b600080965096945050505050565b604080519283526020830191909152015b60405180910390f35b3480156101f057600080fd5b506102086101ff366004610b58565b60009392505050565b6040519081526020016101db565b34801561022257600080fd5b50610236610231366004610bd0565b6104f0565b6040516101db9190610c42565b34801561024f57600080fd5b5061023661025e366004610c85565b610540565b34801561026f57600080fd5b5061020861027e366004610cd1565b600060208181529281526040808220909352908152205481565b3480156102a457600080fd5b506101ca6102b3366004610d26565b6000809b509b9950505050505050505050565b3480156102d257600080fd5b506102366102e1366004610bd0565b61058d565b3480156102f257600080fd5b50610208610301366004610dcf565b60016020526000908152604090205481565b34801561031f57600080fd5b5061020861032e366004610df1565b60009a9950505050505050505050565b34801561034a57600080fd5b50610361610359366004610bd0565b505050505050565b005b34801561036f57600080fd5b5061036161037e366004610e86565b6001600160a01b039283166000908152602081815260408083209490951682529290925291902055565b6102366103b6366004610ec3565b610912565b3480156103c757600080fd5b50604051600081526020016101db565b3480156103e357600080fd5b506102086103f2366004610afe565b60009695505050505050565b61036161040c366004610ec3565b5050505050565b34801561041f57600080fd5b506101ca61042e366004610f29565b60008097509795505050505050565b34801561044957600080fd5b50610236610458366004610c85565b610961565b34801561046957600080fd5b506101ca610478366004610df1565b6000809a509a98505050505050505050565b34801561049657600080fd5b506104b76104a5366004610f96565b60008080985098509895505050505050565b604080519384526020840192909252908201526060016101db565b6104b76104e0366004610afe565b6000808096509650969350505050565b60608367ffffffffffffffff81111561050b5761050b61100c565b604051908082528060200260200182016040528015610534578160200160208202803683370190505b50979650505050505050565b60608167ffffffffffffffff81111561055b5761055b61100c565b604051908082528060200260200182016040528015610584578160200160208202803683370190505b50949350505050565b606060028410156105d45760405162461bcd60e51b815260206004820152600c60248201526b092dcecc2d8d2c840e0c2e8d60a31b60448201526064015b60405180910390fd5b4282101561060e5760405162461bcd60e51b8152602060048201526007602482015266115e1c1a5c995960ca1b60448201526064016105cb565b60008585600081811061062357610623611022565b90506020020160208101906106389190610dcf565b90506000868661064960018261104e565b81811061065857610658611022565b905060200201602081019061066d9190610dcf565b6001600160a01b0380841660009081526020818152604080832093851683529290529081205491925090670de0b6b3a7640000906106ab908c611067565b6106b5919061107e565b9050888110156107075760405162461bcd60e51b815260206004820152601a60248201527f496e73756666696369656e74206f757470757420616d6f756e7400000000000060448201526064016105cb565b6040516323b872dd60e01b8152336004820152306024820152604481018b90526001600160a01b038416906323b872dd906064016020604051808303816000875af115801561075a573d6000803e3d6000fd5b505050506040513d601f19601f8201168201806040525081019061077e91906110a0565b6107bf5760405162461bcd60e51b8152602060048201526012602482015271151c985b9cd9995c881a5b8819985a5b195960721b60448201526064016105cb565b60405163a9059cbb60e01b81526001600160a01b0387811660048301526024820183905283169063a9059cbb906044016020604051808303816000875af115801561080e573d6000803e3d6000fd5b505050506040513d601f19601f8201168201806040525081019061083291906110a0565b6108745760405162461bcd60e51b8152602060048201526013602482015272151c985b9cd9995c881bdd5d0819985a5b1959606a1b60448201526064016105cb565b8667ffffffffffffffff81111561088d5761088d61100c565b6040519080825280602002602001820160405280156108b6578160200160208202803683370190505b50935089846000815181106108cd576108cd611022565b6020026020010181815250508084600186516108e9919061104e565b815181106108f9576108f9611022565b6020026020010181815250505050509695505050505050565b60608367ffffffffffffffff81111561092d5761092d61100c565b604051908082528060200260200182016040528015610956578160200160208202803683370190505b509695505050505050565b606060028210156109a35760405162461bcd60e51b815260206004820152600c60248201526b092dcecc2d8d2c840e0c2e8d60a31b60448201526064016105cb565b6000838360008181106109b8576109b8611022565b90506020020160208101906109cd9190610dcf565b9050600084846109de60018261104e565b8181106109ed576109ed611022565b9050602002016020810190610a029190610dcf565b90508367ffffffffffffffff811115610a1d57610a1d61100c565b604051908082528060200260200182016040528015610a46578160200160208202803683370190505b5092508583600081518110610a5d57610a5d611022565b6020908102919091018101919091526001600160a01b0380841660009081528083526040808220928516825291909252902054670de0b6b3a764000090610aa49088611067565b610aae919061107e565b8360018551610abd919061104e565b81518110610acd57610acd611022565b60200260200101818152505050509392505050565b80356001600160a01b0381168114610af957600080fd5b919050565b60008060008060008060c08789031215610b1757600080fd5b610b2087610ae2565b9550602087013594506040870135935060608701359250610b4360808801610ae2565b9598949750929591949360a090920135925050565b600080600060608486031215610b6d57600080fd5b505081359360208301359350604090920135919050565b60008083601f840112610b9657600080fd5b50813567ffffffffffffffff811115610bae57600080fd5b6020830191508360208260051b8501011115610bc957600080fd5b9250929050565b60008060008060008060a08789031215610be957600080fd5b8635955060208701359450604087013567ffffffffffffffff811115610c0e57600080fd5b610c1a89828a01610b84565b9095509350610c2d905060608801610ae2565b95989497509295919493608090920135925050565b602080825282518282018190526000918401906040840190835b81811015610c7a578351835260209384019390920191600101610c5c565b509095945050505050565b600080600060408486031215610c9a57600080fd5b83359250602084013567ffffffffffffffff811115610cb857600080fd5b610cc486828701610b84565b9497909650939450505050565b60008060408385031215610ce457600080fd5b610ced83610ae2565b9150610cfb60208401610ae2565b90509250929050565b8015158114610d1257600080fd5b50565b803560ff81168114610af957600080fd5b60008060008060008060008060008060006101608c8e031215610d4857600080fd5b610d518c610ae2565b9a50610d5f60208d01610ae2565b995060408c0135985060608c0135975060808c01359650610d8260a08d01610ae2565b955060c08c0135945060e08c0135610d9981610d04565b9350610da86101008d01610d15565b9a9d999c50979a969995989497509295919493610120830135935061014090920135919050565b600060208284031215610de157600080fd5b610dea82610ae2565b9392505050565b6000806000806000806000806000806101408b8d031215610e1157600080fd5b610e1a8b610ae2565b995060208b0135985060408b0135975060608b01359650610e3d60808c01610ae2565b955060a08b0135945060c08b0135610e5481610d04565b9350610e6260e08c01610d15565b999c989b509699959894979396509194610100810135936101209091013592509050565b600080600060608486031215610e9b57600080fd5b610ea484610ae2565b9250610eb260208501610ae2565b929592945050506040919091013590565b600080600080600060808688031215610edb57600080fd5b85359450602086013567ffffffffffffffff811115610ef957600080fd5b610f0588828901610b84565b9095509350610f18905060408701610ae2565b949793965091946060013592915050565b600080600080600080600060e0888a031215610f4457600080fd5b610f4d88610ae2565b9650610f5b60208901610ae2565b9550604088013594506060880135935060808801359250610f7e60a08901610ae2565b96999598509396929591949193505060c09091013590565b600080600080600080600080610100898b031215610fb357600080fd5b610fbc89610ae2565b9750610fca60208a01610ae2565b965060408901359550606089013594506080890135935060a08901359250610ff460c08a01610ae2565b979a969950949793969295919450919260e001359150565b634e487b7160e01b600052604160045260246000fd5b634e487b7160e01b600052603260045260246000fd5b634e487b7160e01b600052601160045260246000fd5b8181038181111561106157611061611038565b92915050565b808202811582820484141761106157611061611038565b60008261109b57634e487b7160e01b600052601260045260246000fd5b500490565b6000602082840312156110b257600080fd5b8151610dea81610d0456fea2646970667358221220b2c9679d413c7c151518d84b56d8565593634d610549b16004099fa645d7091b64736f6c634300081c0033",
  "linkReferences": {},
  "deployedLinkReferences": {}
}