{
  "_format": "hh-sol-artifact-1",
  "contractName": "MockUniswapV2Router",
  "sourceName": "contracts/mocks/MockUniswapV2Router.sol",
  "abi": [
    {
      "anonymous": false,
      "inputs": [
        {
          "indexed": false,
          "internalType": "string",
          "name": "message",
          "type": "string"
        },
        {
          "indexed": false,
          "internalType": "uint256",
          "name": "value",
          "type": "uint256"
        }
      ],
      "name": "Debug",
      "type": "event"
    },
    {
      "anonymous": false,
      "inputs": [
        {
          "indexed": false,
          "internalType": "string",
          "name": "message",
          "type": "string"
        },
        {
          "indexed": false,
          "internalType": "address",
          "name": "addr",
          "type": "address"
        }
      ],
      "name": "DebugAddr",
      "type": "event"
    },
    {
      "anonymous": false,
      "inputs": [
        {
          "indexed": false,
          "internalType": "string",
          "name": "message",
          "type": "string"
        },
        {
          "indexed": false,
          "internalType": "address",
          "name": "token",
          "type": "address"
        },
        {
          "indexed": false,
          "internalType": "uint256",
          "name": "balance",
          "type": "uint256"
        }
      ],
      "name": "DebugBalance",
      "type": "event"
    },
    {
      "inputs": [],
      "name": "WETH",
      "outputs": [
        {
          "internalType": "address",
          "name": "",
          "type": "address"
        }
      ],
      "stateMutability": "pure",
      "type": "function"
    },
    {
      "inputs": [
        {
          "internalType": "address",
          "name": "tokenA",
          "type": "address"
        },
        {
          "internalType": "address",
          "name": "tokenB",
          "type": "address"
        },
        {
          "internalType": "uint256",
          "name": "amountADesired",
          "type": "uint256"
        },
        {
          "internalType": "uint256",
          "name": "amountBDesired",
          "type": "uint256"
        },
        {
          "internalType": "uint256",
          "name": "amountAMin",
          "type": "uint256"
        },
        {
          "internalType": "uint256",
          "name": "amountBMin",
          "type": "uint256"
        },
        {
          "internalType": "address",
          "name": "to",
          "type": "address"
        },
        {
          "internalType": "uint256",
          "name": "deadline",
          "type": "uint256"
        }
      ],
      "name": "addLiquidity",
      "outputs": [
        {
          "internalType": "uint256",
          "name": "amountA",
          "type": "uint256"
        },
        {
          "internalType": "uint256",
          "name": "amountB",
          "type": "uint256"
        },
        {
          "internalType": "uint256",
          "name": "liquidity",
          "type": "uint256"
        }
      ],
      "stateMutability": "nonpayable",
      "type": "function"
    },
    {
      "inputs": [
        {
          "internalType": "address",
          "name": "token",
          "type": "address"
        },
        {
          "internalType": "uint256",
          "name": "amountTokenDesired",
          "type": "uint256"
        },
        {
          "internalType": "uint256",
          "name": "amountTokenMin",
          "type": "uint256"
        },
        {
          "internalType": "uint256",
          "name": "amountETHMin",
          "type": "uint256"
        },
        {
          "internalType": "address",
          "name": "to",
          "type": "address"
        },
        {
          "internalType": "uint256",
          "name": "deadline",
          "type": "uint256"
        }
      ],
      "name": "addLiquidityETH",
      "outputs": [
        {
          "internalType": "uint256",
          "name": "amountToken",
          "type": "uint256"
        },
        {
          "internalType": "uint256",
          "name": "amountETH",
          "type": "uint256"
        },
        {
          "internalType": "uint256",
          "name": "liquidity",
          "type": "uint256"
        }
      ],
      "stateMutability": "payable",
      "type": "function"
    },
    {
      "inputs": [],
      "name": "factory",
      "outputs": [
        {
          "internalType": "address",
          "name": "",
          "type": "address"
        }
      ],
      "stateMutability": "pure",
      "type": "function"
    },
    {
      "inputs": [
        {
          "internalType": "uint256",
          "name": "amountOut",
          "type": "uint256"
        },
        {
          "internalType": "uint256",
          "name": "reserveIn",
          "type": "uint256"
        },
        {
          "internalType": "uint256",
          "name": "reserveOut",
          "type": "uint256"
        }
      ],
      "name": "getAmountIn",
      "outputs": [
        {
          "internalType": "uint256",
          "name": "amountIn",
          "type": "uint256"
        }
      ],
      "stateMutability": "pure",
      "type": "function"
    },
    {
      "inputs": [
        {
          "internalType": "uint256",
          "name": "amountIn",
          "type": "uint256"
        },
        {
          "internalType": "uint256",
          "name": "reserveIn",
          "type": "uint256"
        },
        {
          "internalType": "uint256",
          "name": "reserveOut",
          "type": "uint256"
        }
      ],
      "name": "getAmountOut",
      "outputs": [
        {
          "internalType": "uint256",
          "name": "amountOut",
          "type": "uint256"
        }
      ],
      "stateMutability": "pure",
      "type": "function"
    },
    {
      "inputs": [
        {
          "internalType": "uint256",
          "name": "amountOut",
          "type": "uint256"
        },
        {
          "internalType": "address[]",
          "name": "path",
          "type": "address[]"
        }
      ],
      "name": "getAmountsIn",
      "outputs": [
        {
          "internalType": "uint256[]",
          "name": "amounts",
          "type": "uint256[]"
        }
      ],
      "stateMutability": "view",
      "type": "function"
    },
    {
      "inputs": [
        {
          "internalType": "uint256",
          "name": "amountIn",
          "type": "uint256"
        },
        {
          "internalType": "address[]",
          "name": "path",
          "type": "address[]"
        }
      ],
      "name": "getAmountsOut",
      "outputs": [
        {
          "internalType": "uint256[]",
          "name": "amounts",
          "type": "uint256[]"
        }
      ],
      "stateMutability": "view",
      "type": "function"
    },
    {
      "inputs": [
        {
          "internalType": "address",
          "name": "",
          "type": "address"
        },
        {
          "internalType": "address",
          "name": "",
          "type": "address"
        }
      ],
      "name": "prices",
      "outputs": [
        {
          "internalType": "uint256",
          "name": "",
          "type": "uint256"
        }
      ],
      "stateMutability": "view",
      "type": "function"
    },
    {
      "inputs": [
        {
          "internalType": "uint256",
          "name": "amountA",
          "type": "uint256"
        },
        {
          "internalType": "uint256",
          "name": "reserveA",
          "type": "uint256"
        },
        {
          "internalType": "uint256",
          "name": "reserveB",
          "type": "uint256"
        }
      ],
      "name": "quote",
      "outputs": [
        {
          "internalType": "uint256",
          "name": "amountB",
          "type": "uint256"
        }
      ],
      "stateMutability": "pure",
      "type": "function"
    },
    {
      "inputs": [
        {
          "internalType": "address",
          "name": "tokenA",
          "type": "address"
        },
        {
          "internalType": "address",
          "name": "tokenB",
          "type": "address"
        },
        {
          "internalType": "uint256",
          "name": "liquidity",
          "type": "uint256"
        },
        {
          "internalType": "uint256",
          "name": "amountAMin",
          "type": "uint256"
        },
        {
          "internalType": "uint256",
          "name": "amountBMin",
          "type": "uint256"
        },
        {
          "internalType": "address",
          "name": "to",
          "type": "address"
        },
        {
          "internalType": "uint256",
          "name": "deadline",
          "type": "uint256"
        }
      ],
      "name": "removeLiquidity",
      "outputs": [
        {
          "internalType": "uint256",
          "name": "amountA",
          "type": "uint256"
        },
        {
          "internalType": "uint256",
          "name": "amountB",
          "type": "uint256"
        }
      ],
      "stateMutability": "nonpayable",
      "type": "function"
    },
    {
      "inputs": [
        {
          "internalType": "address",
          "name": "token",
          "type": "address"
        },
        {
          "internalType": "uint256",
          "name": "liquidity",
          "type": "uint256"
        },
        {
          "internalType": "uint256",
          "name": "amountTokenMin",
          "type": "uint256"
        },
        {
          "internalType": "uint256",
          "name": "amountETHMin",
          "type": "uint256"
        },
        {
          "internalType": "address",
          "name": "to",
          "type": "address"
        },
        {
          "internalType": "uint256",
          "name": "deadline",
          "type": "uint256"
        }
      ],
      "name": "removeLiquidityETH",
      "outputs": [
        {
          "internalType": "uint256",
          "name": "amountToken",
          "type": "uint256"
        },
        {
          "internalType": "uint256",
          "name": "amountETH",
          "type": "uint256"
        }
      ],
      "stateMutability": "nonpayable",
      "type": "function"
    },
    {
      "inputs": [
        {
          "internalType": "address",
          "name": "token",
          "type": "address"
        },
        {
          "internalType": "uint256",
          "name": "liquidity",
          "type": "uint256"
        },
        {
          "internalType": "uint256",
          "name": "amountTokenMin",
          "type": "uint256"
        },
        {
          "internalType": "uint256",
          "name": "amountETHMin",
          "type": "uint256"
        },
        {
          "internalType": "address",
          "name": "to",
          "type": "address"
        },
        {
          "internalType": "uint256",
          "name": "deadline",
          "type": "uint256"
        }
      ],
      "name": "removeLiquidityETHSupportingFeeOnTransferTokens",
      "outputs": [
        {
          "internalType": "uint256",
          "name": "amountETH",
          "type": "uint256"
        }
      ],
      "stateMutability": "nonpayable",
      "type": "function"
    },
    {
      "inputs": [
        {
          "internalType": "address",
          "name": "token",
          "type": "address"
        },
        {
          "internalType": "uint256",
          "name": "liquidity",
          "type": "uint256"
        },
        {
          "internalType": "uint256",
          "name": "amountTokenMin",
          "type": "uint256"
        },
        {
          "internalType": "uint256",
          "name": "amountETHMin",
          "type": "uint256"
        },
        {
          "internalType": "address",
          "name": "to",
          "type": "address"
        },
        {
          "internalType": "uint256",
          "name": "deadline",
          "type": "uint256"
        },
        {
          "internalType": "bool",
          "name": "approveMax",
          "type": "bool"
        },
        {
          "internalType": "uint8",
          "name": "v",
          "type": "uint8"
        },
        {
          "internalType": "bytes32",
          "name": "r",
          "type": "bytes32"
        },
        {
          "internalType": "bytes32",
          "name": "s",
          "type": "bytes32"
        }
      ],
      "name": "removeLiquidityETHWithPermit",
      "outputs": [
        {
          "internalType": "uint256",
          "name": "amountToken",
          "type": "uint256"
        },
        {
          "internalType": "uint256",
          "name": "amountETH",
          "type": "uint256"
        }
      ],
      "stateMutability": "nonpayable",
      "type": "function"
    },
    {
      "inputs": [
        {
          "internalType": "address",
          "name": "token",
          "type": "address"
        },
        {
          "internalType": "uint256",
          "name": "liquidity",
          "type": "uint256"
        },
        {
          "internalType": "uint256",
          "name": "amountTokenMin",
          "type": "uint256"
        },
        {
          "internalType": "uint256",
          "name": "amountETHMin",
          "type": "uint256"
        },
        {
          "internalType": "address",
          "name": "to",
          "type": "address"
        },
        {
          "internalType": "uint256",
          "name": "deadline",
          "type": "uint256"
        },
        {
          "internalType": "bool",
          "name": "approveMax",
          "type": "bool"
        },
        {
          "internalType": "uint8",
          "name": "v",
          "type": "uint8"
        },
        {
          "internalType": "bytes32",
          "name": "r",
          "type": "bytes32"
        },
        {
          "internalType": "bytes32",
          "name": "s",
          "type": "bytes32"
        }
      ],
      "name": "removeLiquidityETHWithPermitSupportingFeeOnTransferTokens",
      "outputs": [
        {
          "internalType": "uint256",
          "name": "amountETH",
          "type": "uint256"
        }
      ],
      "stateMutability": "nonpayable",
      "type": "function"
    },
    {
      "inputs": [
        {
          "internalType": "address",
          "name": "tokenA",
          "type": "address"
        },
        {
          "internalType": "address",
          "name": "tokenB",
          "type": "address"
        },
        {
          "internalType": "uint256",
          "name": "liquidity",
          "type": "uint256"
        },
        {
          "internalType": "uint256",
          "name": "amountAMin",
          "type": "uint256"
        },
        {
          "internalType": "uint256",
          "name": "amountBMin",
          "type": "uint256"
        },
        {
          "internalType": "address",
          "name": "to",
          "type": "address"
        },
        {
          "internalType": "uint256",
          "name": "deadline",
          "type": "uint256"
        },
        {
          "internalType": "bool",
          "name": "approveMax",
          "type": "bool"
        },
        {
          "internalType": "uint8",
          "name": "v",
          "type": "uint8"
        },
        {
          "internalType": "bytes32",
          "name": "r",
          "type": "bytes32"
        },
        {
          "internalType": "bytes32",
          "name": "s",
          "type": "bytes32"
        }
      ],
      "name": "removeLiquidityWithPermit",
      "outputs": [
        {
          "internalType": "uint256",
          "name": "amountA",
          "type": "uint256"
        },
        {
          "internalType": "uint256",
          "name": "amountB",
          "type": "uint256"
        }
      ],
      "stateMutability": "nonpayable",
      "type": "function"
    },
    {
      "inputs": [
        {
          "internalType": "address",
          "name": "tokenIn",
          "type": "address"
        },
        {
          "internalType": "address",
          "name": "tokenOut",
          "type": "address"
        },
        {
          "internalType": "uint256",
          "name": "price",
          "type": "uint256"
        }
      ],
      "name": "setPrice",
      "outputs": [],
      "stateMutability": "nonpayable",
      "type": "function"
    },
    {
      "inputs": [
        {
          "internalType": "uint256",
          "name": "amountOut",
          "type": "uint256"
        },
        {
          "internalType": "address[]",
          "name": "path",
          "type": "address[]"
        },
        {
          "internalType": "address",
          "name": "to",
          "type": "address"
        },
        {
          "internalType": "uint256",
          "name": "deadline",
          "type": "uint256"
        }
      ],
      "name": "swapETHForExactTokens",
      "outputs": [
        {
          "internalType": "uint256[]",
          "name": "amounts",
          "type": "uint256[]"
        }
      ],
      "stateMutability": "payable",
      "type": "function"
    },
    {
      "inputs": [
        {
          "internalType": "uint256",
          "name": "amountOutMin",
          "type": "uint256"
        },
        {
          "internalType": "address[]",
          "name": "path",
          "type": "address[]"
        },
        {
          "internalType": "address",
          "name": "to",
          "type": "address"
        },
        {
          "internalType": "uint256",
          "name": "deadline",
          "type": "uint256"
        }
      ],
      "name": "swapExactETHForTokens",
      "outputs": [
        {
          "internalType": "uint256[]",
          "name": "amounts",
          "type": "uint256[]"
        }
      ],
      "stateMutability": "payable",
      "type": "function"
    },
    {
      "inputs": [
        {
          "internalType": "uint256",
          "name": "amountOutMin",
          "type": "uint256"
        },
        {
          "internalType": "address[]",
          "name": "path",
          "type": "address[]"
        },
        {
          "internalType": "address",
          "name": "to",
          "type": "address"
        },
        {
          "internalType": "uint256",
          "name": "deadline",
          "type": "uint256"
        }
      ],
      "name": "swapExactETHForTokensSupportingFeeOnTransferTokens",
      "outputs": [],
      "stateMutability": "payable",
      "type": "function"
    },
    {
      "inputs": [
        {
          "internalType": "uint256",
          "name": "amountIn",
          "type": "uint256"
        },
        {
          "internalType": "uint256",
          "name": "amountOutMin",
          "type": "uint256"
        },
        {
          "internalType": "address[]",
          "name": "path",
          "type": "address[]"
        },
        {
          "internalType": "address",
          "name": "to",
          "type": "address"
        },
        {
          "internalType": "uint256",
          "name": "deadline",
          "type": "uint256"
        }
      ],
      "name": "swapExactTokensForETH",
      "outputs": [
        {
          "internalType": "uint256[]",
          "name": "amounts",
          "type": "uint256[]"
        }
      ],
      "stateMutability": "nonpayable",
      "type": "function"
    },
    {
      "inputs": [
        {
          "internalType": "uint256",
          "name": "amountIn",
          "type": "uint256"
        },
        {
          "internalType": "uint256",
          "name": "amountOutMin",
          "type": "uint256"
        },
        {
          "internalType": "address[]",
          "name": "path",
          "type": "address[]"
        },
        {
          "internalType": "address",
          "name": "to",
          "type": "address"
        },
        {
          "internalType": "uint256",
          "name": "deadline",
          "type": "uint256"
        }
      ],
      "name": "swapExactTokensForETHSupportingFeeOnTransferTokens",
      "outputs": [],
      "stateMutability": "nonpayable",
      "type": "function"
    },
    {
      "inputs": [
        {
          "internalType": "uint256",
          "name": "amountIn",
          "type": "uint256"
        },
        {
          "internalType": "uint256",
          "name": "amountOutMin",
          "type": "uint256"
        },
        {
          "internalType": "address[]",
          "name": "path",
          "type": "address[]"
        },
        {
          "internalType": "address",
          "name": "to",
          "type": "address"
        },
        {
          "internalType": "uint256",
          "name": "deadline",
          "type": "uint256"
        }
      ],
      "name": "swapExactTokensForTokens",
      "outputs": [
        {
          "internalType": "uint256[]",
          "name": "amounts",
          "type": "uint256[]"
        }
      ],
      "stateMutability": "nonpayable",
      "type": "function"
    },
    {
      "inputs": [
        {
          "internalType": "uint256",
          "name": "amountIn",
          "type": "uint256"
        },
        {
          "internalType": "uint256",
          "name": "amountOutMin",
          "type": "uint256"
        },
        {
          "internalType": "address[]",
          "name": "path",
          "type": "address[]"
        },
        {
          "internalType": "address",
          "name": "to",
          "type": "address"
        },
        {
          "internalType": "uint256",
          "name": "deadline",
          "type": "uint256"
        }
      ],
      "name": "swapExactTokensForTokensSupportingFeeOnTransferTokens",
      "outputs": [],
      "stateMutability": "nonpayable",
      "type": "function"
    },
    {
      "inputs": [
        {
          "internalType": "uint256",
          "name": "amountOut",
          "type": "uint256"
        },
        {
          "internalType": "uint256",
          "name": "amountInMax",
          "type": "uint256"
        },
        {
          "internalType": "address[]",
          "name": "path",
          "type": "address[]"
        },
        {
          "internalType": "address",
          "name": "to",
          "type": "address"
        },
        {
          "internalType": "uint256",
          "name": "deadline",
          "type": "uint256"
        }
      ],
      "name": "swapTokensForExactETH",
      "outputs": [
        {
          "internalType": "uint256[]",
          "name": "amounts",
          "type": "uint256[]"
        }
      ],
      "stateMutability": "nonpayable",
      "type": "function"
    },
    {
      "inputs": [
        {
          "internalType": "uint256",
          "name": "amountOut",
          "type": "uint256"
        },
        {
          "internalType": "uint256",
          "name": "amountInMax",
          "type": "uint256"
        },
        {
          "internalType": "address[]",
          "name": "path",
          "type": "address[]"
        },
        {
          "internalType": "address",
          "name": "to",
          "type": "address"
        },
        {
          "internalType": "uint256",
          "name": "deadline",
          "type": "uint256"
        }
      ],
      "name": "swapTokensForExactTokens",
      "outputs": [
        {
          "internalType": "uint256[]",
          "name": "amounts",
          "type": "uint256[]"
        }
      ],
      "stateMutability": "nonpayable",
      "type": "function"
    },
    {
      "inputs": [
        {
          "internalType": "address",
          "name": "",
          "type": "address"
        }
      ],
      "name": "tokenBalances",
      "outputs": [
        {
          "internalType": "uint256",
          "name": "",
          "type": "uint256"
        }
      ],
      "stateMutability": "view",
      "type": "function"
    }
  ],
  "bytecode": "0x6080604052348015600f57600080fd5b506116178061001f6000396000f3fe60806040526004361061019c5760003560e01c80637ff36ab5116100ec578063baa2abde1161008a578063ded9382a11610064578063ded9382a14610438578063e8e3370014610465578063f305d719146104ad578063fb3bdb411461038357600080fd5b8063baa2abde146103ee578063c45a015514610396578063d06ca61f1461041857600080fd5b8063ad5c4648116100c6578063ad5c464814610396578063ad615dec146101e4578063af2979eb146103b2578063b6f9de95146103d957600080fd5b80637ff36ab51461038357806385f8c259146101e45780638803dbee1461021657600080fd5b806338ed1739116101595780635b0d5984116101335780635b0d5984146103135780635c11d7951461033e578063791ac9471461033e578063792eb7911461036357600080fd5b806338ed1739146102c65780634a25d94a14610216578063523fba7f146102e657600080fd5b806302751cec146101a1578063054d50d4146101e457806318cbafe5146102165780631f00ca74146102435780631f312404146102635780632195995c14610298575b600080fd5b3480156101ad57600080fd5b506101ca6101bc366004610fe9565b600080965096945050505050565b604080519283526020830191909152015b60405180910390f35b3480156101f057600080fd5b506102086101ff366004611043565b60009392505050565b6040519081526020016101db565b34801561022257600080fd5b506102366102313660046110bb565b6104cb565b6040516101db919061112d565b34801561024f57600080fd5b5061023661025e366004611170565b61051b565b34801561026f57600080fd5b5061020861027e3660046111bc565b600060208181529281526040808220909352908152205481565b3480156102a457600080fd5b506101ca6102b3366004611211565b6000809b509b9950505050505050505050565b3480156102d257600080fd5b506102366102e13660046110bb565b610568565b3480156102f257600080fd5b506102086103013660046112ba565b60016020526000908152604090205481565b34801561031f57600080fd5b5061020861032e3660046112dc565b60009a9950505050505050505050565b34801561034a57600080fd5b506103616103593660046110bb565b505050505050565b005b34801561036f57600080fd5b5061036161037e366004611371565b610d80565b6102366103913660046113ae565b610dfd565b3480156103a257600080fd5b50604051600081526020016101db565b3480156103be57600080fd5b506102086103cd366004610fe9565b60009695505050505050565b6103616103e73660046113ae565b5050505050565b3480156103fa57600080fd5b506101ca610409366004611414565b60008097509795505050505050565b34801561042457600080fd5b50610236610433366004611170565b610e4c565b34801561044457600080fd5b506101ca6104533660046112dc565b6000809a509a98505050505050505050565b34801561047157600080fd5b50610492610480366004611481565b60008080985098509895505050505050565b604080519384526020840192909252908201526060016101db565b6104926104bb366004610fe9565b6000808096509650969350505050565b60608367ffffffffffffffff8111156104e6576104e66114f7565b60405190808252806020026020018201604052801561050f578160200160208202803683370190505b50979650505050505050565b60608167ffffffffffffffff811115610536576105366114f7565b60405190808252806020026020018201604052801561055f578160200160208202803683370190505b50949350505050565b606060028410156105af5760405162461bcd60e51b815260206004820152600c60248201526b092dcecc2d8d2c840e0c2e8d60a31b60448201526064015b60405180910390fd5b428210156105e95760405162461bcd60e51b8152602060048201526007602482015266115e1c1a5c995960ca1b60448201526064016105a6565b6000858560008181106105fe576105fe61150d565b905060200201602081019061061391906112ba565b905060008686610624600182611539565b8181106106335761063361150d565b905060200201602081019061064891906112ba565b60408051818152600d818301526c5377617070696e672066726f6d60981b60608201526001600160a01b038516602082015290519192507f619c62393708f63887b9ff82e481dbe31792a4445225c39a9d31d2144bccafb4919081900360800190a160408051818152600b818301526a5377617070696e6720746f60a81b60608201526001600160a01b038316602082015290517f619c62393708f63887b9ff82e481dbe31792a4445225c39a9d31d2144bccafb49181900360800190a1604080518181526009818301526820b6b7bab73a1034b760b91b6060820152602081018b905290517f3c5ad147104e56be34a9176a6692f7df8d2f4b29a5af06bc6b98970d329d65779181900360800190a16040516370a0823160e01b81523060048201526000805160206115c28339815191529083906001600160a01b038216906370a0823190602401602060405180830381865afa1580156107ae573d6000803e3d6000fd5b505050506040513d601f19601f820116820180604052508101906107d29190611552565b6040805160608082526018908201527f5072652d7377617020746f6b656e496e2062616c616e6365000000000000000060808201526001600160a01b03909316602084015282015260a00160405180910390a16040516370a0823160e01b81523060048201526000805160206115c28339815191529082906001600160a01b038216906370a0823190602401602060405180830381865afa15801561087b573d6000803e3d6000fd5b505050506040513d601f19601f8201168201806040525081019061089f9190611552565b6040805160608082526019908201527f5072652d7377617020746f6b656e4f75742062616c616e63650000000000000060808201526001600160a01b03909316602084015282015260a00160405180910390a16001600160a01b03808316600090815260208181526040808320938516835292905290812054670de0b6b3a76400009061092c908c61156b565b6109369190611582565b9050888110156109885760405162461bcd60e51b815260206004820152601a60248201527f496e73756666696369656e74206f757470757420616d6f756e7400000000000060448201526064016105a6565b6040516323b872dd60e01b8152336004820152306024820152604481018b90526001600160a01b038416906323b872dd906064016020604051808303816000875af11580156109db573d6000803e3d6000fd5b505050506040513d601f19601f820116820180604052508101906109ff91906115a4565b610a405760405162461bcd60e51b8152602060048201526012602482015271151c985b9cd9995c881a5b8819985a5b195960721b60448201526064016105a6565b60405163a9059cbb60e01b81526001600160a01b0387811660048301526024820183905283169063a9059cbb906044016020604051808303816000875af1158015610a8f573d6000803e3d6000fd5b505050506040513d601f19601f82011682018060405250810190610ab391906115a4565b610af55760405162461bcd60e51b8152602060048201526013602482015272151c985b9cd9995c881bdd5d0819985a5b1959606a1b60448201526064016105a6565b60408051818152600a8183015269105b5bdd5b9d081bdd5d60b21b60608201526020810183905290517f3c5ad147104e56be34a9176a6692f7df8d2f4b29a5af06bc6b98970d329d65779181900360800190a16040516370a0823160e01b81523060048201526000805160206115c28339815191529084906001600160a01b038216906370a0823190602401602060405180830381865afa158015610b9e573d6000803e3d6000fd5b505050506040513d601f19601f82011682018060405250810190610bc29190611552565b6040805160608082526019908201527f506f73742d7377617020746f6b656e496e2062616c616e63650000000000000060808201526001600160a01b03909316602084015282015260a00160405180910390a16040516370a0823160e01b81523060048201526000805160206115c28339815191529083906001600160a01b038216906370a0823190602401602060405180830381865afa158015610c6b573d6000803e3d6000fd5b505050506040513d601f19601f82011682018060405250810190610c8f9190611552565b604080516060808252601a908201527f506f73742d7377617020746f6b656e4f75742062616c616e636500000000000060808201526001600160a01b03909316602084015282015260a00160405180910390a18667ffffffffffffffff811115610cfb57610cfb6114f7565b604051908082528060200260200182016040528015610d24578160200160208202803683370190505b5093508984600081518110610d3b57610d3b61150d565b602002602001018181525050808460018651610d579190611539565b81518110610d6757610d6761150d565b6020026020010181815250505050509695505050505050565b6001600160a01b03838116600090815260208181526040808320938616835292815290829020839055815182815260098184015268141c9a58d9481cd95d60ba1b606082015290810183905290517f3c5ad147104e56be34a9176a6692f7df8d2f4b29a5af06bc6b98970d329d65779181900360800190a1505050565b60608367ffffffffffffffff811115610e1857610e186114f7565b604051908082528060200260200182016040528015610e41578160200160208202803683370190505b509695505050505050565b60606002821015610e8e5760405162461bcd60e51b815260206004820152600c60248201526b092dcecc2d8d2c840e0c2e8d60a31b60448201526064016105a6565b600083836000818110610ea357610ea361150d565b9050602002016020810190610eb891906112ba565b905060008484610ec9600182611539565b818110610ed857610ed861150d565b9050602002016020810190610eed91906112ba565b90508367ffffffffffffffff811115610f0857610f086114f7565b604051908082528060200260200182016040528015610f31578160200160208202803683370190505b5092508583600081518110610f4857610f4861150d565b6020908102919091018101919091526001600160a01b0380841660009081528083526040808220928516825291909252902054670de0b6b3a764000090610f8f908861156b565b610f999190611582565b8360018551610fa89190611539565b81518110610fb857610fb861150d565b60200260200101818152505050509392505050565b80356001600160a01b0381168114610fe457600080fd5b919050565b60008060008060008060c0878903121561100257600080fd5b61100b87610fcd565b955060208701359450604087013593506060870135925061102e60808801610fcd565b9598949750929591949360a090920135925050565b60008060006060848603121561105857600080fd5b505081359360208301359350604090920135919050565b60008083601f84011261108157600080fd5b50813567ffffffffffffffff81111561109957600080fd5b6020830191508360208260051b85010111156110b457600080fd5b9250929050565b60008060008060008060a087890312156110d457600080fd5b8635955060208701359450604087013567ffffffffffffffff8111156110f957600080fd5b61110589828a0161106f565b9095509350611118905060608801610fcd565b95989497509295919493608090920135925050565b602080825282518282018190526000918401906040840190835b81811015611165578351835260209384019390920191600101611147565b509095945050505050565b60008060006040848603121561118557600080fd5b83359250602084013567ffffffffffffffff8111156111a357600080fd5b6111af8682870161106f565b9497909650939450505050565b600080604083850312156111cf57600080fd5b6111d883610fcd565b91506111e660208401610fcd565b90509250929050565b80151581146111fd57600080fd5b50565b803560ff81168114610fe457600080fd5b60008060008060008060008060008060006101608c8e03121561123357600080fd5b61123c8c610fcd565b9a5061124a60208d01610fcd565b995060408c0135985060608c0135975060808c0135965061126d60a08d01610fcd565b955060c08c0135945060e08c0135611284816111ef565b93506112936101008d01611200565b9a9d999c50979a969995989497509295919493610120830135935061014090920135919050565b6000602082840312156112cc57600080fd5b6112d582610fcd565b9392505050565b6000806000806000806000806000806101408b8d0312156112fc57600080fd5b6113058b610fcd565b995060208b0135985060408b0135975060608b0135965061132860808c01610fcd565b955060a08b0135945060c08b013561133f816111ef565b935061134d60e08c01611200565b999c989b509699959894979396509194610100810135936101209091013592509050565b60008060006060848603121561138657600080fd5b61138f84610fcd565b925061139d60208501610fcd565b929592945050506040919091013590565b6000806000806000608086880312156113c657600080fd5b85359450602086013567ffffffffffffffff8111156113e457600080fd5b6113f08882890161106f565b9095509350611403905060408701610fcd565b949793965091946060013592915050565b600080600080600080600060e0888a03121561142f57600080fd5b61143888610fcd565b965061144660208901610fcd565b955060408801359450606088013593506080880135925061146960a08901610fcd565b96999598509396929591949193505060c09091013590565b600080600080600080600080610100898b03121561149e57600080fd5b6114a789610fcd565b97506114b560208a01610fcd565b965060408901359550606089013594506080890135935060a089013592506114df60c08a01610fcd565b979a969950949793969295919450919260e001359150565b634e487b7160e01b600052604160045260246000fd5b634e487b7160e01b600052603260045260246000fd5b634e487b7160e01b600052601160045260246000fd5b8181038181111561154c5761154c611523565b92915050565b60006020828403121561156457600080fd5b5051919050565b808202811582820484141761154c5761154c611523565b60008261159f57634e487b7160e01b600052601260045260246000fd5b500490565b6000602082840312156115b657600080fd5b81516112d5816111ef56fe28d7b9b2f784cfd77a99878b6ee7ac54e22d1a1b3cd542a1992bc36993b213c1a2646970667358221220f7211c4eaf854374de4843fe3a96091d294beb9344b810d604785d630ed0a82764736f6c634300081c0033",
  "linkReferences": {},
  "deployedLinkReferences": {}
}