{
  "_format": "hh-sol-artifact-1",
  "contractName": "PoolManager",
  "sourceName": "contracts/core/PoolManager.sol",
  "abi": [
    {
      "inputs": [],
      "name": "ReentrancyGuardReentrantCall",
      "type": "error"
    },
    {
      "anonymous": false,
      "inputs": [
        {
          "indexed": false,
          "internalType": "string",
          "name": "message",
          "type": "string"
        },
        {
          "indexed": false,
          "internalType": "uint256",
          "name": "value",
          "type": "uint256"
        }
      ],
      "name": "Debug",
      "type": "event"
    },
    {
      "anonymous": false,
      "inputs": [
        {
          "indexed": false,
          "internalType": "string",
          "name": "message",
          "type": "string"
        },
        {
          "indexed": false,
          "internalType": "address",
          "name": "addr",
          "type": "address"
        }
      ],
      "name": "DebugAddr",
      "type": "event"
    },
    {
      "anonymous": false,
      "inputs": [
        {
          "indexed": false,
          "internalType": "string",
          "name": "message",
          "type": "string"
        },
        {
          "indexed": false,
          "internalType": "address",
          "name": "token",
          "type": "address"
        },
        {
          "indexed": false,
          "internalType": "uint256",
          "name": "balance",
          "type": "uint256"
        }
      ],
      "name": "DebugBalance",
      "type": "event"
    },
    {
      "inputs": [
        {
          "internalType": "address",
          "name": "recipient",
          "type": "address"
        },
        {
          "internalType": "address",
          "name": "token0",
          "type": "address"
        },
        {
          "internalType": "address",
          "name": "token1",
          "type": "address"
        },
        {
          "internalType": "uint256",
          "name": "amount0",
          "type": "uint256"
        },
        {
          "internalType": "uint256",
          "name": "amount1",
          "type": "uint256"
        },
        {
          "internalType": "bytes",
          "name": "data",
          "type": "bytes"
        }
      ],
      "name": "flash",
      "outputs": [],
      "stateMutability": "nonpayable",
      "type": "function"
    },
    {
      "inputs": [
        {
          "components": [
            {
              "internalType": "Currency",
              "name": "currency0",
              "type": "address"
            },
            {
              "internalType": "Currency",
              "name": "currency1",
              "type": "address"
            },
            {
              "internalType": "uint24",
              "name": "fee",
              "type": "uint24"
            },
            {
              "internalType": "int24",
              "name": "tickSpacing",
              "type": "int24"
            },
            {
              "internalType": "contract IHooks",
              "name": "hooks",
              "type": "address"
            }
          ],
          "internalType": "struct PoolKey",
          "name": "key",
          "type": "tuple"
        }
      ],
      "name": "getSqrtPriceX96",
      "outputs": [
        {
          "internalType": "uint160",
          "name": "",
          "type": "uint160"
        }
      ],
      "stateMutability": "view",
      "type": "function"
    },
    {
      "inputs": [
        {
          "components": [
            {
              "internalType": "Currency",
              "name": "currency0",
              "type": "address"
            },
            {
              "internalType": "Currency",
              "name": "currency1",
              "type": "address"
            },
            {
              "internalType": "uint24",
              "name": "fee",
              "type": "uint24"
            },
            {
              "internalType": "int24",
              "name": "tickSpacing",
              "type": "int24"
            },
            {
              "internalType": "contract IHooks",
              "name": "hooks",
              "type": "address"
            }
          ],
          "internalType": "struct PoolKey",
          "name": "key",
          "type": "tuple"
        },
        {
          "internalType": "uint160",
          "name": "sqrtPriceX96",
          "type": "uint160"
        }
      ],
      "name": "initialize",
      "outputs": [
        {
          "internalType": "int24",
          "name": "tick",
          "type": "int24"
        }
      ],
      "stateMutability": "nonpayable",
      "type": "function"
    },
    {
      "inputs": [
        {
          "internalType": "bytes32",
          "name": "",
          "type": "bytes32"
        }
      ],
      "name": "initializedPools",
      "outputs": [
        {
          "internalType": "bool",
          "name": "",
          "type": "bool"
        }
      ],
      "stateMutability": "view",
      "type": "function"
    },
    {
      "inputs": [
        {
          "components": [
            {
              "internalType": "Currency",
              "name": "currency0",
              "type": "address"
            },
            {
              "internalType": "Currency",
              "name": "currency1",
              "type": "address"
            },
            {
              "internalType": "uint24",
              "name": "fee",
              "type": "uint24"
            },
            {
              "internalType": "int24",
              "name": "tickSpacing",
              "type": "int24"
            },
            {
              "internalType": "contract IHooks",
              "name": "hooks",
              "type": "address"
            }
          ],
          "internalType": "struct PoolKey",
          "name": "key",
          "type": "tuple"
        },
        {
          "components": [
            {
              "internalType": "int24",
              "name": "tickLower",
              "type": "int24"
            },
            {
              "internalType": "int24",
              "name": "tickUpper",
              "type": "int24"
            },
            {
              "internalType": "int256",
              "name": "liquidityDelta",
              "type": "int256"
            }
          ],
          "internalType": "struct ModifyPositionParams",
          "name": "params",
          "type": "tuple"
        }
      ],
      "name": "modifyPosition",
      "outputs": [
        {
          "components": [
            {
              "internalType": "int256",
              "name": "amount0",
              "type": "int256"
            },
            {
              "internalType": "int256",
              "name": "amount1",
              "type": "int256"
            }
          ],
          "internalType": "struct BalanceDelta",
          "name": "delta",
          "type": "tuple"
        }
      ],
      "stateMutability": "nonpayable",
      "type": "function"
    },
    {
      "inputs": [
        {
          "internalType": "bytes32",
          "name": "",
          "type": "bytes32"
        }
      ],
      "name": "poolPrices",
      "outputs": [
        {
          "internalType": "uint160",
          "name": "",
          "type": "uint160"
        }
      ],
      "stateMutability": "view",
      "type": "function"
    },
    {
      "inputs": [
        {
          "internalType": "bytes32",
          "name": "",
          "type": "bytes32"
        }
      ],
      "name": "poolTicks",
      "outputs": [
        {
          "internalType": "int24",
          "name": "",
          "type": "int24"
        }
      ],
      "stateMutability": "view",
      "type": "function"
    },
    {
      "inputs": [
        {
          "internalType": "bytes32",
          "name": "",
          "type": "bytes32"
        }
      ],
      "name": "pools",
      "outputs": [
        {
          "internalType": "uint256",
          "name": "liquidity",
          "type": "uint256"
        },
        {
          "internalType": "uint160",
          "name": "sqrtPriceX96",
          "type": "uint160"
        },
        {
          "internalType": "int24",
          "name": "tick",
          "type": "int24"
        }
      ],
      "stateMutability": "view",
      "type": "function"
    },
    {
      "inputs": [
        {
          "components": [
            {
              "internalType": "Currency",
              "name": "currency0",
              "type": "address"
            },
            {
              "internalType": "Currency",
              "name": "currency1",
              "type": "address"
            },
            {
              "internalType": "uint24",
              "name": "fee",
              "type": "uint24"
            },
            {
              "internalType": "int24",
              "name": "tickSpacing",
              "type": "int24"
            },
            {
              "internalType": "contract IHooks",
              "name": "hooks",
              "type": "address"
            }
          ],
          "internalType": "struct PoolKey",
          "name": "key",
          "type": "tuple"
        },
        {
          "components": [
            {
              "internalType": "bool",
              "name": "zeroForOne",
              "type": "bool"
            },
            {
              "internalType": "int256",
              "name": "amountSpecified",
              "type": "int256"
            },
            {
              "internalType": "uint160",
              "name": "sqrtPriceLimitX96",
              "type": "uint160"
            }
          ],
          "internalType": "struct SwapParams",
          "name": "params",
          "type": "tuple"
        }
      ],
      "name": "swap",
      "outputs": [
        {
          "components": [
            {
              "internalType": "int256",
              "name": "amount0",
              "type": "int256"
            },
            {
              "internalType": "int256",
              "name": "amount1",
              "type": "int256"
            }
          ],
          "internalType": "struct BalanceDelta",
          "name": "delta",
          "type": "tuple"
        }
      ],
      "stateMutability": "nonpayable",
      "type": "function"
    }
  ],
  "bytecode": "0x6080604052348015600f57600080fd5b50600160005561142a806100246000396000f3fe608060405234801561001057600080fd5b50600436106100935760003560e01c806368167b341161006657806368167b341461012d578063760f59d01461016e57806377991025146101815780638eb2da4b14610196578063b5217bb4146101b957600080fd5b80631e2817de146100985780634f990315146100c1578063555a4733146100f45780636276cbbe14610107575b600080fd5b6100ab6100a6366004610ea3565b61021b565b6040516100b89190610f17565b60405180910390f35b6100e46100cf366004610f2e565b60016020526000908152604090205460ff1681565b60405190151581526020016100b8565b6100ab610102366004610f47565b6104a1565b61011a610115366004610fb5565b6106aa565b60405160029190910b81526020016100b8565b61015661013b366004610f2e565b6002602052600090815260409020546001600160a01b031681565b6040516001600160a01b0390911681526020016100b8565b61015661017c366004610fed565b6108d2565b61019461018f366004611010565b610900565b005b61011a6101a4366004610f2e565b60036020526000908152604090205460020b81565b6101f56101c7366004610f2e565b600460205260009081526040902080546001909101546001600160a01b03811690600160a01b900460020b83565b604080519384526001600160a01b03909216602084015260020b908201526060016100b8565b6040805180820190915260008082526020820152610237610cda565b600061024284610d04565b60008181526001602052604090205490915060ff1661029f5760405162461bcd60e51b8152602060048201526014602482015273141bdbdb081b9bdd081a5b9a5d1a585b1a5e995960621b60448201526064015b60405180910390fd5b60808401516001600160a01b03161561032b5783608001516001600160a01b031663b3f97f803386866040518463ffffffff1660e01b81526004016102e693929190611114565b6020604051808303816000875af1158015610305573d6000803e3d6000fd5b505050506040513d601f19601f820116820180604052508101906103299190611162565b505b60008181526004602052604081208451909190610349576000610357565b8460200151610357906111a2565b905060008560000151610377578560200151610372906111a2565b61037a565b60005b9050600086604001516001600160a01b0316116103a45760018301546001600160a01b03166103aa565b85604001515b6001840180546001600160a01b0319166001600160a01b03929092169190911790556020860151835484906000906103e39084906111be565b9091555050604080518082019091528281526020810182905260808801519095506001600160a01b03161561048d5786608001516001600160a01b03166331acc114338989896040518563ffffffff1660e01b815260040161044894939291906111d1565b6020604051808303816000875af1158015610467573d6000803e3d6000fd5b505050506040513d601f19601f8201168201806040525081019061048b9190611162565b505b5050505061049b6001600055565b92915050565b60408051808201909152600080825260208201526104bd610cda565b60006104c884610d04565b60008181526001602052604090205490915060ff166105205760405162461bcd60e51b8152602060048201526014602482015273141bdbdb081b9bdd081a5b9a5d1a585b1a5e995960621b6044820152606401610296565b60808401516001600160a01b0316156105ac5783608001516001600160a01b0316630dbe5dbd3386866040518463ffffffff1660e01b815260040161056793929190611233565b6020604051808303816000875af1158015610586573d6000803e3d6000fd5b505050506040513d601f19601f820116820180604052508101906105aa9190611162565b505b600081815260046020526040808220908501519091126105d95783604001516105d4906111a2565b6105df565b83604001515b8160000160008282546105f291906111be565b90915550506040805180820182529085018051825251602082015260808601519093506001600160a01b03161561069e5784608001516001600160a01b031663494cc556338787876040518563ffffffff1660e01b81526004016106599493929190611279565b6020604051808303816000875af1158015610678573d6000803e3d6000fd5b505050506040513d601f19601f8201168201806040525081019061069c9190611162565b505b505061049b6001600055565b6000806106b684610d04565b60008181526001602052604090205490915060ff16156107185760405162461bcd60e51b815260206004820152601860248201527f506f6f6c20616c726561647920696e697469616c697a656400000000000000006044820152606401610296565b6000818152600160208181526040808420805460ff191684179055600280835281852080546001600160a01b038a81166001600160a01b0319909216821790925560038552838720805462ffffff808d1662ffffff19909216919091179091558451606081018652888152808701928352938b900b848601908152898952600490965293909620915182559451930180549251909116600160a01b026001600160b81b031990921692841692909217179055608085015184935016156108cb5783608001516001600160a01b031663dc98354e3386866040518463ffffffff1660e01b815260040161080c939291906112bf565b6020604051808303816000875af115801561082b573d6000803e3d6000fd5b505050506040513d601f19601f8201168201806040525081019061084f9190611162565b5083608001516001600160a01b0316636fe7e6eb338686866040518563ffffffff1660e01b815260040161088694939291906112f5565b6020604051808303816000875af11580156108a5573d6000803e3d6000fd5b505050506040513d601f19601f820116820180604052508101906108c99190611162565b505b5092915050565b6000806108de83610d04565b6000908152600460205260409020600101546001600160a01b03169392505050565b83156109bd576040516323b872dd60e01b81523360048201526001600160a01b038881166024830152604482018690528716906323b872dd906064016020604051808303816000875af115801561095b573d6000803e3d6000fd5b505050506040513d601f19601f8201168201806040525081019061097f9190611336565b6109bd5760405162461bcd60e51b815260206004820152600f60248201526e151c985b9cd9995c8819985a5b1959608a1b6044820152606401610296565b8215610a7a576040516323b872dd60e01b81523360048201526001600160a01b038881166024830152604482018590528616906323b872dd906064016020604051808303816000875af1158015610a18573d6000803e3d6000fd5b505050506040513d601f19601f82011682018060405250810190610a3c9190611336565b610a7a5760405162461bcd60e51b815260206004820152600f60248201526e151c985b9cd9995c8819985a5b1959608a1b6044820152606401610296565b600080886001600160a01b0316888888888888604051602401610aa296959493929190611353565b60408051601f198184030181529181526020820180516001600160e01b03166328e234f160e11b17905251610ad791906113ac565b6000604051808303816000865af19150503d8060008114610b14576040519150601f19603f3d011682016040523d82523d6000602084013e610b19565b606091505b509150915081610b635760405162461bcd60e51b8152602060048201526015602482015274119b185cda0818d85b1b189858dac819985a5b1959605a1b6044820152606401610296565b8515610c19576040516370a0823160e01b815230600482015286906001600160a01b038a16906370a0823190602401602060405180830381865afa158015610baf573d6000803e3d6000fd5b505050506040513d601f19601f82011682018060405250810190610bd391906113db565b1015610c195760405162461bcd60e51b8152602060048201526015602482015274119b185cda081b1bd85b881b9bdd081c995c185a59605a1b6044820152606401610296565b8415610ccf576040516370a0823160e01b815230600482015285906001600160a01b038916906370a0823190602401602060405180830381865afa158015610c65573d6000803e3d6000fd5b505050506040513d601f19601f82011682018060405250810190610c8991906113db565b1015610ccf5760405162461bcd60e51b8152602060048201526015602482015274119b185cda081b1bd85b881b9bdd081c995c185a59605a1b6044820152606401610296565b505050505050505050565b600260005403610cfd57604051633ee5aeb560e01b815260040160405180910390fd5b6002600055565b8051602080830151604080850151606086015160808701519251600096610d629690959491016001600160a01b039586168152938516602085015262ffffff92909216604084015260020b6060830152909116608082015260a00190565b604051602081830303815290604052805190602001209050919050565b6040516060810167ffffffffffffffff81118282101715610db057634e487b7160e01b600052604160045260246000fd5b60405290565b6001600160a01b0381168114610dcb57600080fd5b50565b8035600281900b8114610de057600080fd5b919050565b600060a08284031215610df757600080fd5b60405160a0810167ffffffffffffffff81118282101715610e2857634e487b7160e01b600052604160045260246000fd5b6040529050808235610e3981610db6565b81526020830135610e4981610db6565b6020820152604083013562ffffff81168114610e6457600080fd5b6040820152610e7560608401610dce565b60608201526080830135610e8881610db6565b6080919091015292915050565b8015158114610dcb57600080fd5b600080828403610100811215610eb857600080fd5b610ec28585610de5565b92506060609f1982011215610ed657600080fd5b50610edf610d7f565b60a0840135610eed81610e95565b815260c0840135602082015260e0840135610f0781610db6565b6040820152919491935090915050565b81518152602080830151908201526040810161049b565b600060208284031215610f4057600080fd5b5035919050565b600080828403610100811215610f5c57600080fd5b610f668585610de5565b92506060609f1982011215610f7a57600080fd5b50610f83610d7f565b610f8f60a08501610dce565b8152610f9d60c08501610dce565b602082015260e0939093013560408401525092909150565b60008060c08385031215610fc857600080fd5b610fd28484610de5565b915060a0830135610fe281610db6565b809150509250929050565b600060a08284031215610fff57600080fd5b6110098383610de5565b9392505050565b600080600080600080600060c0888a03121561102b57600080fd5b873561103681610db6565b9650602088013561104681610db6565b9550604088013561105681610db6565b9450606088013593506080880135925060a088013567ffffffffffffffff81111561108057600080fd5b8801601f81018a1361109157600080fd5b803567ffffffffffffffff8111156110a857600080fd5b8a60208284010111156110ba57600080fd5b602082019350809250505092959891949750929550565b80516001600160a01b03908116835260208083015182169084015260408083015162ffffff169084015260608083015160020b9084015260809182015116910152565b6001600160a01b0384168152610120810161113260208301856110d1565b8251151560c0830152602083015160e083015260408301516001600160a01b03166101008301525b949350505050565b60006020828403121561117457600080fd5b81516001600160e01b03198116811461100957600080fd5b634e487b7160e01b600052601160045260246000fd5b6000600160ff1b82016111b7576111b761118c565b5060000390565b8082018082111561049b5761049b61118c565b6001600160a01b038516815261016081016111ef60208301866110d1565b8351151560c0830152602084015160e083015260408401516001600160a01b03166101008301525b8251610120830152602083015161014083015295945050505050565b6001600160a01b0384168152610120810161125160208301856110d1565b8251600290810b60c08401526020840151900b60e0830152604083015161010083015261115a565b6001600160a01b0385168152610160810161129760208301866110d1565b8351600290810b60c08401526020850151900b60e08301526040840151610100830152611217565b6001600160a01b038416815260e081016112dc60208301856110d1565b6001600160a01b039290921660c0919091015292915050565b6001600160a01b0385168152610100810161131360208301866110d1565b6001600160a01b039390931660c082015260029190910b60e09091015292915050565b60006020828403121561134857600080fd5b815161100981610e95565b6001600160a01b03878116825286166020820152604081018590526060810184905260a0608082018190528101829052818360c0830137600081830160c090810191909152601f909201601f1916010195945050505050565b6000825160005b818110156113cd57602081860181015185830152016113b3565b506000920191825250919050565b6000602082840312156113ed57600080fd5b505191905056fea264697066735822122030b068e8a94a8d28645a5bdfe55f45dd1952de0bc87cb0f5d384844696ec3d8464736f6c634300081c0033",
  "linkReferences": {},
  "deployedLinkReferences": {}
}