{
  "_format": "hh-sol-artifact-1",
  "contractName": "PoolManager",
  "sourceName": "contracts/core/PoolManager.sol",
  "abi": [
    {
      "inputs": [],
      "name": "ReentrancyGuardReentrantCall",
      "type": "error"
    },
    {
      "inputs": [
        {
          "internalType": "address",
          "name": "recipient",
          "type": "address"
        },
        {
          "internalType": "address",
          "name": "token0",
          "type": "address"
        },
        {
          "internalType": "address",
          "name": "token1",
          "type": "address"
        },
        {
          "internalType": "uint256",
          "name": "amount0",
          "type": "uint256"
        },
        {
          "internalType": "uint256",
          "name": "amount1",
          "type": "uint256"
        },
        {
          "internalType": "bytes",
          "name": "data",
          "type": "bytes"
        }
      ],
      "name": "flash",
      "outputs": [],
      "stateMutability": "nonpayable",
      "type": "function"
    },
    {
      "inputs": [
        {
          "components": [
            {
              "internalType": "Currency",
              "name": "currency0",
              "type": "address"
            },
            {
              "internalType": "Currency",
              "name": "currency1",
              "type": "address"
            },
            {
              "internalType": "uint24",
              "name": "fee",
              "type": "uint24"
            },
            {
              "internalType": "int24",
              "name": "tickSpacing",
              "type": "int24"
            },
            {
              "internalType": "contract IHooks",
              "name": "hooks",
              "type": "address"
            }
          ],
          "internalType": "struct PoolKey",
          "name": "key",
          "type": "tuple"
        }
      ],
      "name": "getSqrtPriceX96",
      "outputs": [
        {
          "internalType": "uint160",
          "name": "",
          "type": "uint160"
        }
      ],
      "stateMutability": "view",
      "type": "function"
    },
    {
      "inputs": [
        {
          "components": [
            {
              "internalType": "Currency",
              "name": "currency0",
              "type": "address"
            },
            {
              "internalType": "Currency",
              "name": "currency1",
              "type": "address"
            },
            {
              "internalType": "uint24",
              "name": "fee",
              "type": "uint24"
            },
            {
              "internalType": "int24",
              "name": "tickSpacing",
              "type": "int24"
            },
            {
              "internalType": "contract IHooks",
              "name": "hooks",
              "type": "address"
            }
          ],
          "internalType": "struct PoolKey",
          "name": "key",
          "type": "tuple"
        },
        {
          "internalType": "uint160",
          "name": "sqrtPriceX96",
          "type": "uint160"
        }
      ],
      "name": "initialize",
      "outputs": [
        {
          "internalType": "int24",
          "name": "tick",
          "type": "int24"
        }
      ],
      "stateMutability": "nonpayable",
      "type": "function"
    },
    {
      "inputs": [
        {
          "internalType": "bytes32",
          "name": "",
          "type": "bytes32"
        }
      ],
      "name": "initializedPools",
      "outputs": [
        {
          "internalType": "bool",
          "name": "",
          "type": "bool"
        }
      ],
      "stateMutability": "view",
      "type": "function"
    },
    {
      "inputs": [
        {
          "components": [
            {
              "internalType": "Currency",
              "name": "currency0",
              "type": "address"
            },
            {
              "internalType": "Currency",
              "name": "currency1",
              "type": "address"
            },
            {
              "internalType": "uint24",
              "name": "fee",
              "type": "uint24"
            },
            {
              "internalType": "int24",
              "name": "tickSpacing",
              "type": "int24"
            },
            {
              "internalType": "contract IHooks",
              "name": "hooks",
              "type": "address"
            }
          ],
          "internalType": "struct PoolKey",
          "name": "key",
          "type": "tuple"
        },
        {
          "components": [
            {
              "internalType": "int24",
              "name": "tickLower",
              "type": "int24"
            },
            {
              "internalType": "int24",
              "name": "tickUpper",
              "type": "int24"
            },
            {
              "internalType": "int256",
              "name": "liquidityDelta",
              "type": "int256"
            }
          ],
          "internalType": "struct ModifyPositionParams",
          "name": "params",
          "type": "tuple"
        }
      ],
      "name": "modifyPosition",
      "outputs": [
        {
          "components": [
            {
              "internalType": "int256",
              "name": "amount0",
              "type": "int256"
            },
            {
              "internalType": "int256",
              "name": "amount1",
              "type": "int256"
            }
          ],
          "internalType": "struct BalanceDelta",
          "name": "delta",
          "type": "tuple"
        }
      ],
      "stateMutability": "nonpayable",
      "type": "function"
    },
    {
      "inputs": [
        {
          "internalType": "bytes32",
          "name": "",
          "type": "bytes32"
        }
      ],
      "name": "poolPrices",
      "outputs": [
        {
          "internalType": "uint160",
          "name": "",
          "type": "uint160"
        }
      ],
      "stateMutability": "view",
      "type": "function"
    },
    {
      "inputs": [
        {
          "internalType": "bytes32",
          "name": "",
          "type": "bytes32"
        }
      ],
      "name": "poolTicks",
      "outputs": [
        {
          "internalType": "int24",
          "name": "",
          "type": "int24"
        }
      ],
      "stateMutability": "view",
      "type": "function"
    },
    {
      "inputs": [
        {
          "internalType": "bytes32",
          "name": "",
          "type": "bytes32"
        }
      ],
      "name": "pools",
      "outputs": [
        {
          "internalType": "uint256",
          "name": "liquidity",
          "type": "uint256"
        },
        {
          "internalType": "uint160",
          "name": "sqrtPriceX96",
          "type": "uint160"
        },
        {
          "internalType": "int24",
          "name": "tick",
          "type": "int24"
        }
      ],
      "stateMutability": "view",
      "type": "function"
    },
    {
      "inputs": [
        {
          "components": [
            {
              "internalType": "Currency",
              "name": "currency0",
              "type": "address"
            },
            {
              "internalType": "Currency",
              "name": "currency1",
              "type": "address"
            },
            {
              "internalType": "uint24",
              "name": "fee",
              "type": "uint24"
            },
            {
              "internalType": "int24",
              "name": "tickSpacing",
              "type": "int24"
            },
            {
              "internalType": "contract IHooks",
              "name": "hooks",
              "type": "address"
            }
          ],
          "internalType": "struct PoolKey",
          "name": "key",
          "type": "tuple"
        },
        {
          "components": [
            {
              "internalType": "bool",
              "name": "zeroForOne",
              "type": "bool"
            },
            {
              "internalType": "int256",
              "name": "amountSpecified",
              "type": "int256"
            },
            {
              "internalType": "uint160",
              "name": "sqrtPriceLimitX96",
              "type": "uint160"
            }
          ],
          "internalType": "struct SwapParams",
          "name": "params",
          "type": "tuple"
        }
      ],
      "name": "swap",
      "outputs": [
        {
          "components": [
            {
              "internalType": "int256",
              "name": "amount0",
              "type": "int256"
            },
            {
              "internalType": "int256",
              "name": "amount1",
              "type": "int256"
            }
          ],
          "internalType": "struct BalanceDelta",
          "name": "delta",
          "type": "tuple"
        }
      ],
      "stateMutability": "nonpayable",
      "type": "function"
    }
  ],
  "bytecode": "0x6080604052348015600f57600080fd5b5060016000556113a3806100246000396000f3fe608060405234801561001057600080fd5b50600436106100935760003560e01c806368167b341161006657806368167b341461012d578063760f59d01461016e57806377991025146101815780638eb2da4b14610196578063b5217bb4146101b957600080fd5b80631e2817de146100985780634f990315146100c1578063555a4733146100f45780636276cbbe14610107575b600080fd5b6100ab6100a6366004610e1c565b61021b565b6040516100b89190610e90565b60405180910390f35b6100e46100cf366004610ea7565b60016020526000908152604090205460ff1681565b60405190151581526020016100b8565b6100ab610102366004610ec0565b61048c565b61011a610115366004610f2e565b610695565b60405160029190910b81526020016100b8565b61015661013b366004610ea7565b6002602052600090815260409020546001600160a01b031681565b6040516001600160a01b0390911681526020016100b8565b61015661017c366004610f66565b6108bd565b61019461018f366004610f89565b6108eb565b005b61011a6101a4366004610ea7565b60036020526000908152604090205460020b81565b6101f56101c7366004610ea7565b600460205260009081526040902080546001909101546001600160a01b03811690600160a01b900460020b83565b604080519384526001600160a01b03909216602084015260020b908201526060016100b8565b6040805180820190915260008082526020820152610237610c53565b600061024284610c7d565b60008181526001602052604090205490915060ff1661029f5760405162461bcd60e51b8152602060048201526014602482015273141bdbdb081b9bdd081a5b9a5d1a585b1a5e995960621b60448201526064015b60405180910390fd5b60808401516001600160a01b03161561032b5783608001516001600160a01b031663b3f97f803386866040518463ffffffff1660e01b81526004016102e69392919061108d565b6020604051808303816000875af1158015610305573d6000803e3d6000fd5b505050506040513d601f19601f8201168201806040525081019061032991906110db565b505b825160009061033b576000610349565b83602001516103499061111b565b9050600084600001516103695784602001516103649061111b565b61036c565b60005b9050604051806040016040528083815260200182815250935060006001600160a01b031686608001516001600160a01b03161461041e5785608001516001600160a01b03166331acc114338888886040518563ffffffff1660e01b81526004016103d99493929190611137565b6020604051808303816000875af11580156103f8573d6000803e3d6000fd5b505050506040513d601f19601f8201168201806040525081019061041c91906110db565b505b60008381526004602052604090819020908601516001600160a01b03166104525760018101546001600160a01b0316610458565b85604001515b600191820180546001600160a01b0319166001600160a01b0390921691909117905560005550610486915050565b92915050565b60408051808201909152600080825260208201526104a8610c53565b60006104b384610c7d565b60008181526001602052604090205490915060ff1661050b5760405162461bcd60e51b8152602060048201526014602482015273141bdbdb081b9bdd081a5b9a5d1a585b1a5e995960621b6044820152606401610296565b60808401516001600160a01b0316156105975783608001516001600160a01b0316630dbe5dbd3386866040518463ffffffff1660e01b815260040161055293929190611199565b6020604051808303816000875af1158015610571573d6000803e3d6000fd5b505050506040513d601f19601f8201168201806040525081019061059591906110db565b505b600081815260046020526040808220908501519091126105c45783604001516105bf9061111b565b6105ca565b83604001515b8160000160008282546105dd91906111df565b90915550506040805180820182529085018051825251602082015260808601519093506001600160a01b0316156106895784608001516001600160a01b031663494cc556338787876040518563ffffffff1660e01b815260040161064494939291906111f2565b6020604051808303816000875af1158015610663573d6000803e3d6000fd5b505050506040513d601f19601f8201168201806040525081019061068791906110db565b505b50506104866001600055565b6000806106a184610c7d565b60008181526001602052604090205490915060ff16156107035760405162461bcd60e51b815260206004820152601860248201527f506f6f6c20616c726561647920696e697469616c697a656400000000000000006044820152606401610296565b6000818152600160208181526040808420805460ff191684179055600280835281852080546001600160a01b038a81166001600160a01b0319909216821790925560038552838720805462ffffff808d1662ffffff19909216919091179091558451606081018652888152808701928352938b900b848601908152898952600490965293909620915182559451930180549251909116600160a01b026001600160b81b031990921692841692909217179055608085015184935016156108b65783608001516001600160a01b031663dc98354e3386866040518463ffffffff1660e01b81526004016107f793929190611238565b6020604051808303816000875af1158015610816573d6000803e3d6000fd5b505050506040513d601f19601f8201168201806040525081019061083a91906110db565b5083608001516001600160a01b0316636fe7e6eb338686866040518563ffffffff1660e01b8152600401610871949392919061126e565b6020604051808303816000875af1158015610890573d6000803e3d6000fd5b505050506040513d601f19601f820116820180604052508101906108b491906110db565b505b5092915050565b6000806108c983610c7d565b6000908152600460205260409020600101546001600160a01b03169392505050565b6108f3610c53565b831561096e5760405163a9059cbb60e01b81526001600160a01b0388811660048301526024820186905287169063a9059cbb906044016020604051808303816000875af1158015610948573d6000803e3d6000fd5b505050506040513d601f19601f8201168201806040525081019061096c91906112af565b505b82156109e95760405163a9059cbb60e01b81526001600160a01b0388811660048301526024820185905286169063a9059cbb906044016020604051808303816000875af11580156109c3573d6000803e3d6000fd5b505050506040513d601f19601f820116820180604052508101906109e791906112af565b505b600080886001600160a01b0316888888888888604051602401610a11969594939291906112cc565b60408051601f198184030181529181526020820180516001600160e01b03166328e234f160e11b17905251610a469190611325565b6000604051808303816000865af19150503d8060008114610a83576040519150601f19603f3d011682016040523d82523d6000602084013e610a88565b606091505b509150915081610ad25760405162461bcd60e51b8152602060048201526015602482015274119b185cda0818d85b1b189858dac819985a5b1959605a1b6044820152606401610296565b8515610b88576040516370a0823160e01b815230600482015286906001600160a01b038a16906370a0823190602401602060405180830381865afa158015610b1e573d6000803e3d6000fd5b505050506040513d601f19601f82011682018060405250810190610b429190611354565b1015610b885760405162461bcd60e51b8152602060048201526015602482015274119b185cda081b1bd85b881b9bdd081c995c185a59605a1b6044820152606401610296565b8415610c3e576040516370a0823160e01b815230600482015285906001600160a01b038916906370a0823190602401602060405180830381865afa158015610bd4573d6000803e3d6000fd5b505050506040513d601f19601f82011682018060405250810190610bf89190611354565b1015610c3e5760405162461bcd60e51b8152602060048201526015602482015274119b185cda081b1bd85b881b9bdd081c995c185a59605a1b6044820152606401610296565b5050610c4a6001600055565b50505050505050565b600260005403610c7657604051633ee5aeb560e01b815260040160405180910390fd5b6002600055565b8051602080830151604080850151606086015160808701519251600096610cdb9690959491016001600160a01b039586168152938516602085015262ffffff92909216604084015260020b6060830152909116608082015260a00190565b604051602081830303815290604052805190602001209050919050565b6040516060810167ffffffffffffffff81118282101715610d2957634e487b7160e01b600052604160045260246000fd5b60405290565b6001600160a01b0381168114610d4457600080fd5b50565b8035600281900b8114610d5957600080fd5b919050565b600060a08284031215610d7057600080fd5b60405160a0810167ffffffffffffffff81118282101715610da157634e487b7160e01b600052604160045260246000fd5b6040529050808235610db281610d2f565b81526020830135610dc281610d2f565b6020820152604083013562ffffff81168114610ddd57600080fd5b6040820152610dee60608401610d47565b60608201526080830135610e0181610d2f565b6080919091015292915050565b8015158114610d4457600080fd5b600080828403610100811215610e3157600080fd5b610e3b8585610d5e565b92506060609f1982011215610e4f57600080fd5b50610e58610cf8565b60a0840135610e6681610e0e565b815260c0840135602082015260e0840135610e8081610d2f565b6040820152919491935090915050565b815181526020808301519082015260408101610486565b600060208284031215610eb957600080fd5b5035919050565b600080828403610100811215610ed557600080fd5b610edf8585610d5e565b92506060609f1982011215610ef357600080fd5b50610efc610cf8565b610f0860a08501610d47565b8152610f1660c08501610d47565b602082015260e0939093013560408401525092909150565b60008060c08385031215610f4157600080fd5b610f4b8484610d5e565b915060a0830135610f5b81610d2f565b809150509250929050565b600060a08284031215610f7857600080fd5b610f828383610d5e565b9392505050565b600080600080600080600060c0888a031215610fa457600080fd5b8735610faf81610d2f565b96506020880135610fbf81610d2f565b95506040880135610fcf81610d2f565b9450606088013593506080880135925060a088013567ffffffffffffffff811115610ff957600080fd5b8801601f81018a1361100a57600080fd5b803567ffffffffffffffff81111561102157600080fd5b8a602082840101111561103357600080fd5b602082019350809250505092959891949750929550565b80516001600160a01b03908116835260208083015182169084015260408083015162ffffff169084015260608083015160020b9084015260809182015116910152565b6001600160a01b038416815261012081016110ab602083018561104a565b8251151560c0830152602083015160e083015260408301516001600160a01b03166101008301525b949350505050565b6000602082840312156110ed57600080fd5b81516001600160e01b031981168114610f8257600080fd5b634e487b7160e01b600052601160045260246000fd5b6000600160ff1b820161113057611130611105565b5060000390565b6001600160a01b03851681526101608101611155602083018661104a565b8351151560c0830152602084015160e083015260408401516001600160a01b03166101008301525b8251610120830152602083015161014083015295945050505050565b6001600160a01b038416815261012081016111b7602083018561104a565b8251600290810b60c08401526020840151900b60e083015260408301516101008301526110d3565b8082018082111561048657610486611105565b6001600160a01b03851681526101608101611210602083018661104a565b8351600290810b60c08401526020850151900b60e0830152604084015161010083015261117d565b6001600160a01b038416815260e08101611255602083018561104a565b6001600160a01b039290921660c0919091015292915050565b6001600160a01b0385168152610100810161128c602083018661104a565b6001600160a01b039390931660c082015260029190910b60e09091015292915050565b6000602082840312156112c157600080fd5b8151610f8281610e0e565b6001600160a01b03878116825286166020820152604081018590526060810184905260a0608082018190528101829052818360c0830137600081830160c090810191909152601f909201601f1916010195945050505050565b6000825160005b81811015611346576020818601810151858301520161132c565b506000920191825250919050565b60006020828403121561136657600080fd5b505191905056fea264697066735822122082b7e9656771e527611884e5d40f0607ba09877f41f9901517d4b39429ae643864736f6c634300081c0033",
  "linkReferences": {},
  "deployedLinkReferences": {}
}