{
  "_format": "hh-sol-artifact-1",
  "contractName": "FlashloanV2",
  "sourceName": "contracts/flashloan/FlashloanArbitrage.sol",
  "abi": [
    {
      "inputs": [
        {
          "internalType": "address",
          "name": "_addressProvider",
          "type": "address"
        },
        {
          "internalType": "address",
          "name": "_uniswapRouterAddress",
          "type": "address"
        },
        {
          "internalType": "address",
          "name": "_sushiswapRouterAddress",
          "type": "address"
        }
      ],
      "stateMutability": "nonpayable",
      "type": "constructor"
    },
    {
      "inputs": [
        {
          "internalType": "address",
          "name": "owner",
          "type": "address"
        }
      ],
      "name": "OwnableInvalidOwner",
      "type": "error"
    },
    {
      "inputs": [
        {
          "internalType": "address",
          "name": "account",
          "type": "address"
        }
      ],
      "name": "OwnableUnauthorizedAccount",
      "type": "error"
    },
    {
      "inputs": [
        {
          "internalType": "address",
          "name": "token",
          "type": "address"
        }
      ],
      "name": "SafeERC20FailedOperation",
      "type": "error"
    },
    {
      "anonymous": false,
      "inputs": [
        {
          "indexed": true,
          "internalType": "address",
          "name": "_from",
          "type": "address"
        },
        {
          "indexed": true,
          "internalType": "address",
          "name": "_assetAddress",
          "type": "address"
        },
        {
          "indexed": false,
          "internalType": "uint256",
          "name": "amount",
          "type": "uint256"
        }
      ],
      "name": "LogWithdraw",
      "type": "event"
    },
    {
      "anonymous": false,
      "inputs": [
        {
          "indexed": true,
          "internalType": "address",
          "name": "previousOwner",
          "type": "address"
        },
        {
          "indexed": true,
          "internalType": "address",
          "name": "newOwner",
          "type": "address"
        }
      ],
      "name": "OwnershipTransferred",
      "type": "event"
    },
    {
      "inputs": [],
      "name": "ADDRESSES_PROVIDER",
      "outputs": [
        {
          "internalType": "contract ILendingPoolAddressesProviderV2",
          "name": "",
          "type": "address"
        }
      ],
      "stateMutability": "view",
      "type": "function"
    },
    {
      "inputs": [],
      "name": "LENDING_POOL",
      "outputs": [
        {
          "internalType": "contract ILendingPoolV2",
          "name": "",
          "type": "address"
        }
      ],
      "stateMutability": "view",
      "type": "function"
    },
    {
      "inputs": [
        {
          "internalType": "address[]",
          "name": "assets",
          "type": "address[]"
        },
        {
          "internalType": "uint256[]",
          "name": "amounts",
          "type": "uint256[]"
        },
        {
          "internalType": "uint256[]",
          "name": "premiums",
          "type": "uint256[]"
        },
        {
          "internalType": "address",
          "name": "",
          "type": "address"
        },
        {
          "internalType": "bytes",
          "name": "params",
          "type": "bytes"
        }
      ],
      "name": "executeOperation",
      "outputs": [
        {
          "internalType": "bool",
          "name": "",
          "type": "bool"
        }
      ],
      "stateMutability": "nonpayable",
      "type": "function"
    },
    {
      "inputs": [],
      "name": "owner",
      "outputs": [
        {
          "internalType": "address",
          "name": "",
          "type": "address"
        }
      ],
      "stateMutability": "view",
      "type": "function"
    },
    {
      "inputs": [
        {
          "internalType": "address",
          "name": "_asset",
          "type": "address"
        }
      ],
      "name": "pullTokens",
      "outputs": [],
      "stateMutability": "nonpayable",
      "type": "function"
    },
    {
      "inputs": [],
      "name": "renounceOwnership",
      "outputs": [],
      "stateMutability": "nonpayable",
      "type": "function"
    },
    {
      "inputs": [
        {
          "internalType": "address",
          "name": "_borrowAsset",
          "type": "address"
        },
        {
          "internalType": "uint256",
          "name": "_borrowAmount",
          "type": "uint256"
        },
        {
          "internalType": "address",
          "name": "_swappingPair",
          "type": "address"
        },
        {
          "internalType": "address",
          "name": "_factoryAddress",
          "type": "address"
        }
      ],
      "name": "startTransaction",
      "outputs": [],
      "stateMutability": "nonpayable",
      "type": "function"
    },
    {
      "inputs": [
        {
          "internalType": "address",
          "name": "newOwner",
          "type": "address"
        }
      ],
      "name": "transferOwnership",
      "outputs": [],
      "stateMutability": "nonpayable",
      "type": "function"
    },
    {
      "inputs": [
        {
          "internalType": "address",
          "name": "_assetAddress",
          "type": "address"
        }
      ],
      "name": "withdraw",
      "outputs": [],
      "stateMutability": "nonpayable",
      "type": "function"
    }
  ],
  "bytecode": "0x61010060405234801561001157600080fd5b5060405161269638038061269683398181016040528101906100339190610325565b33838073ffffffffffffffffffffffffffffffffffffffff1660808173ffffffffffffffffffffffffffffffffffffffff16815250508073ffffffffffffffffffffffffffffffffffffffff16630261bf8b6040518163ffffffff1660e01b8152600401602060405180830381865afa1580156100b4573d6000803e3d6000fd5b505050506040513d601f19601f820116820180604052508101906100d89190610378565b73ffffffffffffffffffffffffffffffffffffffff1660a08173ffffffffffffffffffffffffffffffffffffffff168152505050600073ffffffffffffffffffffffffffffffffffffffff168173ffffffffffffffffffffffffffffffffffffffff160361017e5760006040517f1e4fbdf700000000000000000000000000000000000000000000000000000000815260040161017591906103b4565b60405180910390fd5b61018d816101fe60201b60201c565b508173ffffffffffffffffffffffffffffffffffffffff1660c08173ffffffffffffffffffffffffffffffffffffffff16815250508073ffffffffffffffffffffffffffffffffffffffff1660e08173ffffffffffffffffffffffffffffffffffffffff16815250505050506103cf565b60008060009054906101000a900473ffffffffffffffffffffffffffffffffffffffff169050816000806101000a81548173ffffffffffffffffffffffffffffffffffffffff021916908373ffffffffffffffffffffffffffffffffffffffff1602179055508173ffffffffffffffffffffffffffffffffffffffff168173ffffffffffffffffffffffffffffffffffffffff167f8be0079c531659141344cd1fd0a4f28419497f9722a3daafe3b4186f6b6457e060405160405180910390a35050565b600080fd5b600073ffffffffffffffffffffffffffffffffffffffff82169050919050565b60006102f2826102c7565b9050919050565b610302816102e7565b811461030d57600080fd5b50565b60008151905061031f816102f9565b92915050565b60008060006060848603121561033e5761033d6102c2565b5b600061034c86828701610310565b935050602061035d86828701610310565b925050604061036e86828701610310565b9150509250925092565b60006020828403121561038e5761038d6102c2565b5b600061039c84828501610310565b91505092915050565b6103ae816102e7565b82525050565b60006020820190506103c960008301846103a5565b92915050565b60805160a05160c05160e05161225d61043960003960008181610abb01528181610b1d0152610d8b015260008181610a8d01528181610b4b0152610d5b0152600081816105360152818161060f015281816106a8015261116a0152600061019e015261225d6000f3fe608060405234801561001057600080fd5b50600436106100935760003560e01c80638da5cb5b116100665780638da5cb5b146100f8578063920f5c8414610116578063b4dcfc7714610146578063f058fb1b14610164578063f2fde38b1461018057610093565b80630542975c1461009857806342e9c6ce146100b657806351cff8d9146100d2578063715018a6146100ee575b600080fd5b6100a061019c565b6040516100ad919061149b565b60405180910390f35b6100d060048036038101906100cb9190611508565b6101c0565b005b6100ec60048036038101906100e79190611508565b6102d1565b005b6100f661048b565b005b61010061049f565b60405161010d9190611544565b60405180910390f35b610130600480360381019061012b9190611670565b6104c8565b60405161013d9190611787565b60405180910390f35b61014e6106a6565b60405161015b91906117c3565b60405180910390f35b61017e60048036038101906101799190611814565b6106ca565b005b61019a60048036038101906101959190611508565b6107f8565b005b7f000000000000000000000000000000000000000000000000000000000000000081565b6101c861087e565b60008190508073ffffffffffffffffffffffffffffffffffffffff1663095ea7b333476040518363ffffffff1660e01b815260040161020892919061188a565b6020604051808303816000875af1158015610227573d6000803e3d6000fd5b505050506040513d601f19601f8201168201806040525081019061024b91906118df565b508073ffffffffffffffffffffffffffffffffffffffff166323b872dd3033476040518463ffffffff1660e01b81526004016102899392919061190c565b6020604051808303816000875af11580156102a8573d6000803e3d6000fd5b505050506040513d601f19601f820116820180604052508101906102cc91906118df565b505050565b6102d961087e565b60008073ffffffffffffffffffffffffffffffffffffffff168273ffffffffffffffffffffffffffffffffffffffff160361037a5760003090508073ffffffffffffffffffffffffffffffffffffffff163191503373ffffffffffffffffffffffffffffffffffffffff166108fc839081150290604051600060405180830381858888f19350505050158015610373573d6000803e3d6000fd5b5050610422565b8173ffffffffffffffffffffffffffffffffffffffff166370a08231306040518263ffffffff1660e01b81526004016103b39190611544565b602060405180830381865afa1580156103d0573d6000803e3d6000fd5b505050506040513d601f19601f820116820180604052508101906103f49190611958565b905061042133828473ffffffffffffffffffffffffffffffffffffffff166109059092919063ffffffff16565b5b8173ffffffffffffffffffffffffffffffffffffffff163373ffffffffffffffffffffffffffffffffffffffff167f9207361cc2a04b9c7a06691df1eb87c6a63957ae88bf01d0d18c81e3d12720998360405161047f9190611985565b60405180910390a35050565b61049361087e565b61049d6000610984565b565b60008060009054906101000a900473ffffffffffffffffffffffffffffffffffffffff16905090565b6000808a8a60008181106104df576104de6119a0565b5b90506020020160208101906104f49190611508565b905060008989600081811061050c5761050b6119a0565b5b90506020020135905060008888600081811061052b5761052a6119a0565b5b9050602002013590507f000000000000000000000000000000000000000000000000000000000000000073ffffffffffffffffffffffffffffffffffffffff163373ffffffffffffffffffffffffffffffffffffffff16146105c2576040517f08c379a00000000000000000000000000000000000000000000000000000000081526004016105b990611a2c565b60405180910390fd5b600086868101906105d39190611a8a565b90506105e0848483610a48565b50600082846105ef9190611ae6565b90508473ffffffffffffffffffffffffffffffffffffffff1663095ea7b37f0000000000000000000000000000000000000000000000000000000000000000836040518363ffffffff1660e01b815260040161064c92919061188a565b6020604051808303816000875af115801561066b573d6000803e3d6000fd5b505050506040513d601f19601f8201168201806040525081019061068f91906118df565b506001955050505050509998505050505050505050565b7f000000000000000000000000000000000000000000000000000000000000000081565b6106d261087e565b60008173ffffffffffffffffffffffffffffffffffffffff1663e6a4390586856040518363ffffffff1660e01b815260040161070f929190611b1a565b602060405180830381865afa15801561072c573d6000803e3d6000fd5b505050506040513d601f19601f820116820180604052508101906107509190611b58565b9050600073ffffffffffffffffffffffffffffffffffffffff168173ffffffffffffffffffffffffffffffffffffffff16036107c1576040517f08c379a00000000000000000000000000000000000000000000000000000000081526004016107b890611bd1565b60405180910390fd5b6000836040516020016107d49190611544565b60405160208183030381529060405290506107f0868683610b8b565b505050505050565b61080061087e565b600073ffffffffffffffffffffffffffffffffffffffff168173ffffffffffffffffffffffffffffffffffffffff16036108725760006040517f1e4fbdf70000000000000000000000000000000000000000000000000000000081526004016108699190611544565b60405180910390fd5b61087b81610984565b50565b610886610ca9565b73ffffffffffffffffffffffffffffffffffffffff166108a461049f565b73ffffffffffffffffffffffffffffffffffffffff1614610903576108c7610ca9565b6040517f118cdaa70000000000000000000000000000000000000000000000000000000081526004016108fa9190611544565b60405180910390fd5b565b61097f838473ffffffffffffffffffffffffffffffffffffffff1663a9059cbb858560405160240161093892919061188a565b604051602081830303815290604052915060e01b6020820180517bffffffffffffffffffffffffffffffffffffffffffffffffffffffff8381831617835250505050610cb1565b505050565b60008060009054906101000a900473ffffffffffffffffffffffffffffffffffffffff169050816000806101000a81548173ffffffffffffffffffffffffffffffffffffffff021916908373ffffffffffffffffffffffffffffffffffffffff1602179055508173ffffffffffffffffffffffffffffffffffffffff168173ffffffffffffffffffffffffffffffffffffffff167f8be0079c531659141344cd1fd0a4f28419497f9722a3daafe3b4186f6b6457e060405160405180910390a35050565b600080610a56848685610d53565b90506000806002811115610a6d57610a6c611bf1565b5b826002811115610a8057610a7f611bf1565b5b03610ae9576000610ab3867f00000000000000000000000000000000000000000000000000000000000000008988610e7c565b9050610ae1817f0000000000000000000000000000000000000000000000000000000000000000878a610e7c565b915050610b7f565b60016002811115610afd57610afc611bf1565b5b826002811115610b1057610b0f611bf1565b5b03610b79576000610b43867f00000000000000000000000000000000000000000000000000000000000000008988610e7c565b9050610b71817f0000000000000000000000000000000000000000000000000000000000000000878a610e7c565b915050610b7e565b600080fd5b5b80925050509392505050565b6000600167ffffffffffffffff811115610ba857610ba7611c20565b5b604051908082528060200260200182016040528015610bd65781602001602082028036833780820191505090505b5090508381600081518110610bee57610bed6119a0565b5b602002602001019073ffffffffffffffffffffffffffffffffffffffff16908173ffffffffffffffffffffffffffffffffffffffff16815250506000600167ffffffffffffffff811115610c4557610c44611c20565b5b604051908082528060200260200182016040528015610c735781602001602082028036833780820191505090505b5090508381600081518110610c8b57610c8a6119a0565b5b602002602001018181525050610ca28282856110d4565b5050505050565b600033905090565b600080602060008451602086016000885af180610cd4576040513d6000823e3d81fd5b3d925060005191505060008214610cef576001811415610d0b565b60008473ffffffffffffffffffffffffffffffffffffffff163b145b15610d4d57836040517f5274afe7000000000000000000000000000000000000000000000000000000008152600401610d449190611544565b60405180910390fd5b50505050565b600080610d827f0000000000000000000000000000000000000000000000000000000000000000858588611208565b90506000610db27f0000000000000000000000000000000000000000000000000000000000000000868689611208565b905080821115610e1157610dc78683836113a2565b610e06576040517f08c379a0000000000000000000000000000000000000000000000000000000008152600401610dfd90611c9b565b60405180910390fd5b600092505050610e75565b80821015610e6e57610e248682846113a2565b610e63576040517f08c379a0000000000000000000000000000000000000000000000000000000008152600401610e5a90611c9b565b60405180910390fd5b600192505050610e75565b6002925050505b9392505050565b60008273ffffffffffffffffffffffffffffffffffffffff1663095ea7b385876040518363ffffffff1660e01b8152600401610eb992919061188a565b6020604051808303816000875af1158015610ed8573d6000803e3d6000fd5b505050506040513d601f19601f82011682018060405250810190610efc91906118df565b5060006064605f610f0f8787878b611208565b610f199190611cbb565b610f239190611d2c565b90506000600267ffffffffffffffff811115610f4257610f41611c20565b5b604051908082528060200260200182016040528015610f705781602001602082028036833780820191505090505b5090508481600081518110610f8857610f876119a0565b5b602002602001019073ffffffffffffffffffffffffffffffffffffffff16908173ffffffffffffffffffffffffffffffffffffffff16815250508381600181518110610fd757610fd66119a0565b5b602002602001019073ffffffffffffffffffffffffffffffffffffffff16908173ffffffffffffffffffffffffffffffffffffffff168152505060008673ffffffffffffffffffffffffffffffffffffffff166338ed17398985853061012c426110419190611ae6565b6040518663ffffffff1660e01b8152600401611061959493929190611e1b565b6000604051808303816000875af1158015611080573d6000803e3d6000fd5b505050506040513d6000823e3d601f19601f820116820180604052508101906110a99190611f95565b6001815181106110bc576110bb6119a0565b5b60200260200101519050809350505050949350505050565b60003090506000309050600080865167ffffffffffffffff8111156110fc576110fb611c20565b5b60405190808252806020026020018201604052801561112a5781602001602082028036833780820191505090505b50905060005b875181101561116757600082828151811061114e5761114d6119a0565b5b6020026020010181815250508080600101915050611130565b507f000000000000000000000000000000000000000000000000000000000000000073ffffffffffffffffffffffffffffffffffffffff1663ab9c4b5d85898985888b896040518863ffffffff1660e01b81526004016111cd9796959493929190612138565b600060405180830381600087803b1580156111e757600080fd5b505af11580156111fb573d6000803e3d6000fd5b5050505050505050505050565b600080600267ffffffffffffffff81111561122657611225611c20565b5b6040519080825280602002602001820160405280156112545781602001602082028036833780820191505090505b509050848160008151811061126c5761126b6119a0565b5b602002602001019073ffffffffffffffffffffffffffffffffffffffff16908173ffffffffffffffffffffffffffffffffffffffff168152505083816001815181106112bb576112ba6119a0565b5b602002602001019073ffffffffffffffffffffffffffffffffffffffff16908173ffffffffffffffffffffffffffffffffffffffff168152505060008673ffffffffffffffffffffffffffffffffffffffff1663d06ca61f85846040518363ffffffff1660e01b81526004016113329291906121c3565b600060405180830381865afa15801561134f573d6000803e3d6000fd5b505050506040513d6000823e3d601f19601f820116820180604052508101906113789190611f95565b60018151811061138b5761138a6119a0565b5b602002602001015190508092505050949350505050565b60008083670de0b6b3a764000084866113bb91906121f3565b6113c59190611cbb565b6113cf9190611d2c565b905060006103e86003876113e39190611cbb565b60026113ef9190611cbb565b6113f99190611d2c565b90508082111561140e57600192505050611415565b6000925050505b9392505050565b600073ffffffffffffffffffffffffffffffffffffffff82169050919050565b6000819050919050565b600061146161145c6114578461141c565b61143c565b61141c565b9050919050565b600061147382611446565b9050919050565b600061148582611468565b9050919050565b6114958161147a565b82525050565b60006020820190506114b0600083018461148c565b92915050565b6000604051905090565b600080fd5b600080fd5b60006114d58261141c565b9050919050565b6114e5816114ca565b81146114f057600080fd5b50565b600081359050611502816114dc565b92915050565b60006020828403121561151e5761151d6114c0565b5b600061152c848285016114f3565b91505092915050565b61153e816114ca565b82525050565b60006020820190506115596000830184611535565b92915050565b600080fd5b600080fd5b600080fd5b60008083601f8401126115845761158361155f565b5b8235905067ffffffffffffffff8111156115a1576115a0611564565b5b6020830191508360208202830111156115bd576115bc611569565b5b9250929050565b60008083601f8401126115da576115d961155f565b5b8235905067ffffffffffffffff8111156115f7576115f6611564565b5b60208301915083602082028301111561161357611612611569565b5b9250929050565b60008083601f8401126116305761162f61155f565b5b8235905067ffffffffffffffff81111561164d5761164c611564565b5b60208301915083600182028301111561166957611668611569565b5b9250929050565b600080600080600080600080600060a08a8c031215611692576116916114c0565b5b60008a013567ffffffffffffffff8111156116b0576116af6114c5565b5b6116bc8c828d0161156e565b995099505060208a013567ffffffffffffffff8111156116df576116de6114c5565b5b6116eb8c828d016115c4565b975097505060408a013567ffffffffffffffff81111561170e5761170d6114c5565b5b61171a8c828d016115c4565b9550955050606061172d8c828d016114f3565b93505060808a013567ffffffffffffffff81111561174e5761174d6114c5565b5b61175a8c828d0161161a565b92509250509295985092959850929598565b60008115159050919050565b6117818161176c565b82525050565b600060208201905061179c6000830184611778565b92915050565b60006117ad82611468565b9050919050565b6117bd816117a2565b82525050565b60006020820190506117d860008301846117b4565b92915050565b6000819050919050565b6117f1816117de565b81146117fc57600080fd5b50565b60008135905061180e816117e8565b92915050565b6000806000806080858703121561182e5761182d6114c0565b5b600061183c878288016114f3565b945050602061184d878288016117ff565b935050604061185e878288016114f3565b925050606061186f878288016114f3565b91505092959194509250565b611884816117de565b82525050565b600060408201905061189f6000830185611535565b6118ac602083018461187b565b9392505050565b6118bc8161176c565b81146118c757600080fd5b50565b6000815190506118d9816118b3565b92915050565b6000602082840312156118f5576118f46114c0565b5b6000611903848285016118ca565b91505092915050565b60006060820190506119216000830186611535565b61192e6020830185611535565b61193b604083018461187b565b949350505050565b600081519050611952816117e8565b92915050565b60006020828403121561196e5761196d6114c0565b5b600061197c84828501611943565b91505092915050565b600060208201905061199a600083018461187b565b92915050565b7f4e487b7100000000000000000000000000000000000000000000000000000000600052603260045260246000fd5b600082825260208201905092915050565b7f4e6f7420706f6f6c000000000000000000000000000000000000000000000000600082015250565b6000611a166008836119cf565b9150611a21826119e0565b602082019050919050565b60006020820190508181036000830152611a4581611a09565b9050919050565b6000611a578261141c565b9050919050565b611a6781611a4c565b8114611a7257600080fd5b50565b600081359050611a8481611a5e565b92915050565b600060208284031215611aa057611a9f6114c0565b5b6000611aae84828501611a75565b91505092915050565b7f4e487b7100000000000000000000000000000000000000000000000000000000600052601160045260246000fd5b6000611af1826117de565b9150611afc836117de565b9250828201905080821115611b1457611b13611ab7565b5b92915050565b6000604082019050611b2f6000830185611535565b611b3c6020830184611535565b9392505050565b600081519050611b52816114dc565b92915050565b600060208284031215611b6e57611b6d6114c0565b5b6000611b7c84828501611b43565b91505092915050565b7f506169724164647265737320646f6573206e6f74206578697374210000000000600082015250565b6000611bbb601b836119cf565b9150611bc682611b85565b602082019050919050565b60006020820190508181036000830152611bea81611bae565b9050919050565b7f4e487b7100000000000000000000000000000000000000000000000000000000600052602160045260246000fd5b7f4e487b7100000000000000000000000000000000000000000000000000000000600052604160045260246000fd5b7f417262697472616765206e6f742070726f66697461626c650000000000000000600082015250565b6000611c856018836119cf565b9150611c9082611c4f565b602082019050919050565b60006020820190508181036000830152611cb481611c78565b9050919050565b6000611cc6826117de565b9150611cd1836117de565b9250828202611cdf816117de565b91508282048414831517611cf657611cf5611ab7565b5b5092915050565b7f4e487b7100000000000000000000000000000000000000000000000000000000600052601260045260246000fd5b6000611d37826117de565b9150611d42836117de565b925082611d5257611d51611cfd565b5b828204905092915050565b600081519050919050565b600082825260208201905092915050565b6000819050602082019050919050565b611d92816114ca565b82525050565b6000611da48383611d89565b60208301905092915050565b6000602082019050919050565b6000611dc882611d5d565b611dd28185611d68565b9350611ddd83611d79565b8060005b83811015611e0e578151611df58882611d98565b9750611e0083611db0565b925050600181019050611de1565b5085935050505092915050565b600060a082019050611e30600083018861187b565b611e3d602083018761187b565b8181036040830152611e4f8186611dbd565b9050611e5e6060830185611535565b611e6b608083018461187b565b9695505050505050565b6000601f19601f8301169050919050565b611e8f82611e75565b810181811067ffffffffffffffff82111715611eae57611ead611c20565b5b80604052505050565b6000611ec16114b6565b9050611ecd8282611e86565b919050565b600067ffffffffffffffff821115611eed57611eec611c20565b5b602082029050602081019050919050565b6000611f11611f0c84611ed2565b611eb7565b90508083825260208201905060208402830185811115611f3457611f33611569565b5b835b81811015611f5d5780611f498882611943565b845260208401935050602081019050611f36565b5050509392505050565b600082601f830112611f7c57611f7b61155f565b5b8151611f8c848260208601611efe565b91505092915050565b600060208284031215611fab57611faa6114c0565b5b600082015167ffffffffffffffff811115611fc957611fc86114c5565b5b611fd584828501611f67565b91505092915050565b600081519050919050565b600082825260208201905092915050565b6000819050602082019050919050565b612013816117de565b82525050565b6000612025838361200a565b60208301905092915050565b6000602082019050919050565b600061204982611fde565b6120538185611fe9565b935061205e83611ffa565b8060005b8381101561208f5781516120768882612019565b975061208183612031565b925050600181019050612062565b5085935050505092915050565b600081519050919050565b600082825260208201905092915050565b60005b838110156120d65780820151818401526020810190506120bb565b60008484015250505050565b60006120ed8261209c565b6120f781856120a7565b93506121078185602086016120b8565b61211081611e75565b840191505092915050565b600061ffff82169050919050565b6121328161211b565b82525050565b600060e08201905061214d600083018a611535565b818103602083015261215f8189611dbd565b90508181036040830152612173818861203e565b90508181036060830152612187818761203e565b90506121966080830186611535565b81810360a08301526121a881856120e2565b90506121b760c0830184612129565b98975050505050505050565b60006040820190506121d8600083018561187b565b81810360208301526121ea8184611dbd565b90509392505050565b60006121fe826117de565b9150612209836117de565b925082820390508181111561222157612220611ab7565b5b9291505056fea264697066735822122053aa304cea054f9f3d78591f0defb59701ff4ea804dbb49bf38caca213d0cf6364736f6c634300081c0033",
  "linkReferences": {},
  "deployedLinkReferences": {}
}