{
  "_format": "hh-sol-artifact-1",
  "contractName": "FlashloanV2",
  "sourceName": "contracts/flashloan/FlashloanArbitrage.sol",
  "abi": [
    {
      "inputs": [
        {
          "internalType": "address",
          "name": "_addressProvider",
          "type": "address"
        },
        {
          "internalType": "address",
          "name": "_uniswapRouterAddress",
          "type": "address"
        },
        {
          "internalType": "address",
          "name": "_sushiswapRouterAddress",
          "type": "address"
        }
      ],
      "stateMutability": "nonpayable",
      "type": "constructor"
    },
    {
      "inputs": [
        {
          "internalType": "address",
          "name": "owner",
          "type": "address"
        }
      ],
      "name": "OwnableInvalidOwner",
      "type": "error"
    },
    {
      "inputs": [
        {
          "internalType": "address",
          "name": "account",
          "type": "address"
        }
      ],
      "name": "OwnableUnauthorizedAccount",
      "type": "error"
    },
    {
      "inputs": [
        {
          "internalType": "address",
          "name": "token",
          "type": "address"
        }
      ],
      "name": "SafeERC20FailedOperation",
      "type": "error"
    },
    {
      "anonymous": false,
      "inputs": [
        {
          "indexed": true,
          "internalType": "address",
          "name": "token0",
          "type": "address"
        },
        {
          "indexed": true,
          "internalType": "address",
          "name": "token1",
          "type": "address"
        },
        {
          "indexed": false,
          "internalType": "uint256",
          "name": "profit",
          "type": "uint256"
        }
      ],
      "name": "ArbitrageExecuted",
      "type": "event"
    },
    {
      "anonymous": false,
      "inputs": [
        {
          "indexed": true,
          "internalType": "address",
          "name": "_from",
          "type": "address"
        },
        {
          "indexed": true,
          "internalType": "address",
          "name": "_assetAddress",
          "type": "address"
        },
        {
          "indexed": false,
          "internalType": "uint256",
          "name": "amount",
          "type": "uint256"
        }
      ],
      "name": "LogWithdraw",
      "type": "event"
    },
    {
      "anonymous": false,
      "inputs": [
        {
          "indexed": true,
          "internalType": "address",
          "name": "previousOwner",
          "type": "address"
        },
        {
          "indexed": true,
          "internalType": "address",
          "name": "newOwner",
          "type": "address"
        }
      ],
      "name": "OwnershipTransferred",
      "type": "event"
    },
    {
      "inputs": [],
      "name": "ADDRESSES_PROVIDER",
      "outputs": [
        {
          "internalType": "contract ILendingPoolAddressesProviderV2",
          "name": "",
          "type": "address"
        }
      ],
      "stateMutability": "view",
      "type": "function"
    },
    {
      "inputs": [],
      "name": "LENDING_POOL",
      "outputs": [
        {
          "internalType": "contract ILendingPoolV2",
          "name": "",
          "type": "address"
        }
      ],
      "stateMutability": "view",
      "type": "function"
    },
    {
      "inputs": [
        {
          "internalType": "address",
          "name": "token0",
          "type": "address"
        },
        {
          "internalType": "address",
          "name": "token1",
          "type": "address"
        },
        {
          "internalType": "uint256",
          "name": "amount",
          "type": "uint256"
        },
        {
          "internalType": "uint256",
          "name": "uniswapPrice",
          "type": "uint256"
        },
        {
          "internalType": "uint256",
          "name": "sushiswapPrice",
          "type": "uint256"
        }
      ],
      "name": "calculateArbitrageProfitEstimate",
      "outputs": [
        {
          "internalType": "uint256",
          "name": "",
          "type": "uint256"
        }
      ],
      "stateMutability": "view",
      "type": "function"
    },
    {
      "inputs": [
        {
          "internalType": "address",
          "name": "token0",
          "type": "address"
        },
        {
          "internalType": "address",
          "name": "token1",
          "type": "address"
        },
        {
          "internalType": "uint256",
          "name": "amount",
          "type": "uint256"
        }
      ],
      "name": "executeArbitrage",
      "outputs": [],
      "stateMutability": "nonpayable",
      "type": "function"
    },
    {
      "inputs": [
        {
          "internalType": "address[]",
          "name": "path",
          "type": "address[]"
        },
        {
          "internalType": "uint256[]",
          "name": "amounts",
          "type": "uint256[]"
        }
      ],
      "name": "executeComplexArbitrage",
      "outputs": [],
      "stateMutability": "nonpayable",
      "type": "function"
    },
    {
      "inputs": [
        {
          "internalType": "address",
          "name": "baseToken",
          "type": "address"
        },
        {
          "internalType": "address[]",
          "name": "pairs",
          "type": "address[]"
        },
        {
          "internalType": "uint256",
          "name": "amount",
          "type": "uint256"
        },
        {
          "internalType": "uint256[]",
          "name": "prices",
          "type": "uint256[]"
        }
      ],
      "name": "executeMultiDexArbitrage",
      "outputs": [],
      "stateMutability": "nonpayable",
      "type": "function"
    },
    {
      "inputs": [
        {
          "internalType": "address[]",
          "name": "assets",
          "type": "address[]"
        },
        {
          "internalType": "uint256[]",
          "name": "amounts",
          "type": "uint256[]"
        },
        {
          "internalType": "uint256[]",
          "name": "premiums",
          "type": "uint256[]"
        },
        {
          "internalType": "address",
          "name": "initiator",
          "type": "address"
        },
        {
          "internalType": "bytes",
          "name": "params",
          "type": "bytes"
        }
      ],
      "name": "executeOperation",
      "outputs": [
        {
          "internalType": "bool",
          "name": "",
          "type": "bool"
        }
      ],
      "stateMutability": "nonpayable",
      "type": "function"
    },
    {
      "inputs": [
        {
          "internalType": "address",
          "name": "_asset",
          "type": "address"
        },
        {
          "internalType": "uint256",
          "name": "_amount",
          "type": "uint256"
        }
      ],
      "name": "flashloan",
      "outputs": [],
      "stateMutability": "nonpayable",
      "type": "function"
    },
    {
      "inputs": [],
      "name": "owner",
      "outputs": [
        {
          "internalType": "address",
          "name": "",
          "type": "address"
        }
      ],
      "stateMutability": "view",
      "type": "function"
    },
    {
      "inputs": [],
      "name": "renounceOwnership",
      "outputs": [],
      "stateMutability": "nonpayable",
      "type": "function"
    },
    {
      "inputs": [
        {
          "internalType": "uint256",
          "name": "threshold",
          "type": "uint256"
        }
      ],
      "name": "setMinimumProfitThreshold",
      "outputs": [],
      "stateMutability": "nonpayable",
      "type": "function"
    },
    {
      "inputs": [
        {
          "internalType": "bool",
          "name": "shouldFail",
          "type": "bool"
        }
      ],
      "name": "setSimulateFailure",
      "outputs": [],
      "stateMutability": "nonpayable",
      "type": "function"
    },
    {
      "inputs": [
        {
          "internalType": "address",
          "name": "newOwner",
          "type": "address"
        }
      ],
      "name": "transferOwnership",
      "outputs": [],
      "stateMutability": "nonpayable",
      "type": "function"
    },
    {
      "inputs": [
        {
          "internalType": "address",
          "name": "_assetAddress",
          "type": "address"
        }
      ],
      "name": "withdraw",
      "outputs": [],
      "stateMutability": "nonpayable",
      "type": "function"
    },
    {
      "stateMutability": "payable",
      "type": "receive"
    }
  ],
  "bytecode": "0x61010060405234801561001157600080fd5b506040516125bf3803806125bf83398181016040528101906100339190610325565b33838073ffffffffffffffffffffffffffffffffffffffff1660808173ffffffffffffffffffffffffffffffffffffffff16815250508073ffffffffffffffffffffffffffffffffffffffff16630261bf8b6040518163ffffffff1660e01b8152600401602060405180830381865afa1580156100b4573d6000803e3d6000fd5b505050506040513d601f19601f820116820180604052508101906100d89190610378565b73ffffffffffffffffffffffffffffffffffffffff1660a08173ffffffffffffffffffffffffffffffffffffffff168152505050600073ffffffffffffffffffffffffffffffffffffffff168173ffffffffffffffffffffffffffffffffffffffff160361017e5760006040517f1e4fbdf700000000000000000000000000000000000000000000000000000000815260040161017591906103b4565b60405180910390fd5b61018d816101fe60201b60201c565b508173ffffffffffffffffffffffffffffffffffffffff1660c08173ffffffffffffffffffffffffffffffffffffffff16815250508073ffffffffffffffffffffffffffffffffffffffff1660e08173ffffffffffffffffffffffffffffffffffffffff16815250505050506103cf565b60008060009054906101000a900473ffffffffffffffffffffffffffffffffffffffff169050816000806101000a81548173ffffffffffffffffffffffffffffffffffffffff021916908373ffffffffffffffffffffffffffffffffffffffff1602179055508173ffffffffffffffffffffffffffffffffffffffff168173ffffffffffffffffffffffffffffffffffffffff167f8be0079c531659141344cd1fd0a4f28419497f9722a3daafe3b4186f6b6457e060405160405180910390a35050565b600080fd5b600073ffffffffffffffffffffffffffffffffffffffff82169050919050565b60006102f2826102c7565b9050919050565b610302816102e7565b811461030d57600080fd5b50565b60008151905061031f816102f9565b92915050565b60008060006060848603121561033e5761033d6102c2565b5b600061034c86828701610310565b935050602061035d86828701610310565b925050604061036e86828701610310565b9150509250925092565b60006020828403121561038e5761038d6102c2565b5b600061039c84828501610310565b91505092915050565b6103ae816102e7565b82525050565b60006020820190506103c960008301846103a5565b92915050565b60805160a05160c05160e0516121a8610417600039600050506000505060008181610a9101528181610c0601528181610c9e01526111980152600061034901526121a86000f3fe6080604052600436106100e15760003560e01c80638da5cb5b1161007f578063b4dcfc7711610059578063b4dcfc771461028d578063e1ab1b13146102b8578063f2fde38b146102e1578063fb247bc51461030a576100e8565b80638da5cb5b146101fc5780638e5f5f5714610227578063920f5c8414610250576100e8565b8063650f84be116100bb578063650f84be1461016a5780636b2eb2f91461019357806370963235146101bc578063715018a6146101e5576100e8565b80630542975c146100ed57806308739f501461011857806351cff8d914610141576100e8565b366100e857005b600080fd5b3480156100f957600080fd5b50610102610347565b60405161010f919061138c565b60405180910390f35b34801561012457600080fd5b5061013f600480360381019061013a91906114e0565b61036b565b005b34801561014d57600080fd5b5061016860048036038101906101639190611587565b61046e565b005b34801561017657600080fd5b50610191600480360381019061018c91906115b4565b610628565b005b34801561019f57600080fd5b506101ba60048036038101906101b5919061163f565b610751565b005b3480156101c857600080fd5b506101e360048036038101906101de919061166c565b610776565b005b3480156101f157600080fd5b506101fa6108d3565b005b34801561020857600080fd5b506102116108e7565b60405161021e91906116fc565b60405180910390f35b34801561023357600080fd5b5061024e60048036038101906102499190611717565b610910565b005b34801561025c57600080fd5b50610277600480360381019061027291906117ad565b610a8d565b60405161028491906118b8565b60405180910390f35b34801561029957600080fd5b506102a2610c9c565b6040516102af91906118f4565b60405180910390f35b3480156102c457600080fd5b506102df60048036038101906102da919061190f565b610cc0565b005b3480156102ed57600080fd5b5061030860048036038101906103039190611587565b610cd2565b005b34801561031657600080fd5b50610331600480360381019061032c919061193c565b610d58565b60405161033e91906119c6565b60405180910390f35b7f000000000000000000000000000000000000000000000000000000000000000081565b610373610e1a565b60008585905011801561038b57508484905082829050145b6103ca576040517f08c379a00000000000000000000000000000000000000000000000000000000081526004016103c190611a3e565b60405180910390fd5b600154831161040e576040517f08c379a000000000000000000000000000000000000000000000000000000000815260040161040590611aaa565b60405180910390fd5b60008585600081811061042457610423611aca565b5b90506020020160208101906104399190611587565b60405160200161044991906116fc565b6040516020818303038152906040529050610465878583610ea1565b50505050505050565b610476610e1a565b60008073ffffffffffffffffffffffffffffffffffffffff168273ffffffffffffffffffffffffffffffffffffffff16036105175760003090508073ffffffffffffffffffffffffffffffffffffffff163191503373ffffffffffffffffffffffffffffffffffffffff166108fc839081150290604051600060405180830381858888f19350505050158015610510573d6000803e3d6000fd5b50506105bf565b8173ffffffffffffffffffffffffffffffffffffffff166370a08231306040518263ffffffff1660e01b815260040161055091906116fc565b602060405180830381865afa15801561056d573d6000803e3d6000fd5b505050506040513d601f19601f820116820180604052508101906105919190611b0e565b90506105be33828473ffffffffffffffffffffffffffffffffffffffff16610fbf9092919063ffffffff16565b5b8173ffffffffffffffffffffffffffffffffffffffff163373ffffffffffffffffffffffffffffffffffffffff167f9207361cc2a04b9c7a06691df1eb87c6a63957ae88bf01d0d18c81e3d12720998360405161061c91906119c6565b60405180910390a35050565b610630610e1a565b60008111610673576040517f08c379a000000000000000000000000000000000000000000000000000000000815260040161066a90611a3e565b60405180910390fd5b600073ffffffffffffffffffffffffffffffffffffffff168373ffffffffffffffffffffffffffffffffffffffff16141580156106dd5750600073ffffffffffffffffffffffffffffffffffffffff168273ffffffffffffffffffffffffffffffffffffffff1614155b61071c576040517f08c379a000000000000000000000000000000000000000000000000000000000815260040161071390611b87565b60405180910390fd5b60008260405160200161072f91906116fc565b604051602081830303815290604052905061074b848383610ea1565b50505050565b610759610e1a565b80600260006101000a81548160ff02191690831515021790555050565b61077e610e1a565b60018484905011801561079657508383905082829050145b6107d5576040517f08c379a00000000000000000000000000000000000000000000000000000000081526004016107cc90611a3e565b60405180910390fd5b600154828260008181106107ec576107eb611aca565b5b9050602002013511610833576040517f08c379a000000000000000000000000000000000000000000000000000000000815260040161082a90611aaa565b60405180910390fd5b60008484600181811061084957610848611aca565b5b905060200201602081019061085e9190611587565b60405160200161086e91906116fc565b60405160208183030381529060405290506108cc8585600081811061089657610895611aca565b5b90506020020160208101906108ab9190611587565b848460008181106108bf576108be611aca565b5b9050602002013583610ea1565b5050505050565b6108db610e1a565b6108e5600061103e565b565b60008060009054906101000a900473ffffffffffffffffffffffffffffffffffffffff16905090565b610918610e1a565b6000811161095b576040517f08c379a000000000000000000000000000000000000000000000000000000000815260040161095290611bf3565b60405180910390fd5b6000600167ffffffffffffffff81111561097857610977611c13565b5b6040519080825280602002602001820160405280156109a65781602001602082028036833780820191505090505b50905082816000815181106109be576109bd611aca565b5b602002602001019073ffffffffffffffffffffffffffffffffffffffff16908173ffffffffffffffffffffffffffffffffffffffff16815250506000600167ffffffffffffffff811115610a1557610a14611c13565b5b604051908082528060200260200182016040528015610a435781602001602082028036833780820191505090505b5090508281600081518110610a5b57610a5a611aca565b5b6020026020010181815250506000604051806020016040528060008152509050610a86838383611102565b5050505050565b60007f000000000000000000000000000000000000000000000000000000000000000073ffffffffffffffffffffffffffffffffffffffff163373ffffffffffffffffffffffffffffffffffffffff1614610b1d576040517f08c379a0000000000000000000000000000000000000000000000000000000008152600401610b1490611c8e565b60405180910390fd5b600260009054906101000a900460ff1615610b6d576040517f08c379a0000000000000000000000000000000000000000000000000000000008152600401610b6490611cfa565b60405180910390fd5b60008a8a6000818110610b8357610b82611aca565b5b9050602002016020810190610b989190611587565b9050600089896000818110610bb057610baf611aca565b5b905060200201359050600088886000818110610bcf57610bce611aca565b5b90506020020135905060008183610be69190611d49565b90508373ffffffffffffffffffffffffffffffffffffffff1663095ea7b37f0000000000000000000000000000000000000000000000000000000000000000836040518363ffffffff1660e01b8152600401610c43929190611d7d565b6020604051808303816000875af1158015610c62573d6000803e3d6000fd5b505050506040513d601f19601f82011682018060405250810190610c869190611dbb565b5060019450505050509998505050505050505050565b7f000000000000000000000000000000000000000000000000000000000000000081565b610cc8610e1a565b8060018190555050565b610cda610e1a565b600073ffffffffffffffffffffffffffffffffffffffff168173ffffffffffffffffffffffffffffffffffffffff1603610d4c5760006040517f1e4fbdf7000000000000000000000000000000000000000000000000000000008152600401610d4391906116fc565b60405180910390fd5b610d558161103e565b50565b600080841480610d945750600073ffffffffffffffffffffffffffffffffffffffff168673ffffffffffffffffffffffffffffffffffffffff16145b80610dcb5750600073ffffffffffffffffffffffffffffffffffffffff168573ffffffffffffffffffffffffffffffffffffffff16145b15610dd95760009050610e11565b600082841115610df557610dee858585611236565b9050610e0c565b83831115610e0b57610e08858486611236565b90505b5b809150505b95945050505050565b610e22611263565b73ffffffffffffffffffffffffffffffffffffffff16610e406108e7565b73ffffffffffffffffffffffffffffffffffffffff1614610e9f57610e63611263565b6040517f118cdaa7000000000000000000000000000000000000000000000000000000008152600401610e9691906116fc565b60405180910390fd5b565b6000600167ffffffffffffffff811115610ebe57610ebd611c13565b5b604051908082528060200260200182016040528015610eec5781602001602082028036833780820191505090505b5090508381600081518110610f0457610f03611aca565b5b602002602001019073ffffffffffffffffffffffffffffffffffffffff16908173ffffffffffffffffffffffffffffffffffffffff16815250506000600167ffffffffffffffff811115610f5b57610f5a611c13565b5b604051908082528060200260200182016040528015610f895781602001602082028036833780820191505090505b5090508381600081518110610fa157610fa0611aca565b5b602002602001018181525050610fb8828285611102565b5050505050565b611039838473ffffffffffffffffffffffffffffffffffffffff1663a9059cbb8585604051602401610ff2929190611d7d565b604051602081830303815290604052915060e01b6020820180517bffffffffffffffffffffffffffffffffffffffffffffffffffffffff838183161783525050505061126b565b505050565b60008060009054906101000a900473ffffffffffffffffffffffffffffffffffffffff169050816000806101000a81548173ffffffffffffffffffffffffffffffffffffffff021916908373ffffffffffffffffffffffffffffffffffffffff1602179055508173ffffffffffffffffffffffffffffffffffffffff168173ffffffffffffffffffffffffffffffffffffffff167f8be0079c531659141344cd1fd0a4f28419497f9722a3daafe3b4186f6b6457e060405160405180910390a35050565b60003090506000309050600080865167ffffffffffffffff81111561112a57611129611c13565b5b6040519080825280602002602001820160405280156111585781602001602082028036833780820191505090505b50905060005b875181101561119557600082828151811061117c5761117b611aca565b5b602002602001018181525050808060010191505061115e565b507f000000000000000000000000000000000000000000000000000000000000000073ffffffffffffffffffffffffffffffffffffffff1663ab9c4b5d85898985888b896040518863ffffffff1660e01b81526004016111fb9796959493929190612011565b600060405180830381600087803b15801561121557600080fd5b505af1158015611229573d6000803e3d6000fd5b5050505050505050505050565b600082848385611246919061209c565b61125091906120d0565b61125a9190612141565b90509392505050565b600033905090565b600080602060008451602086016000885af18061128e576040513d6000823e3d81fd5b3d9250600051915050600082146112a95760018114156112c5565b60008473ffffffffffffffffffffffffffffffffffffffff163b145b1561130757836040517f5274afe70000000000000000000000000000000000000000000000000000000081526004016112fe91906116fc565b60405180910390fd5b50505050565b600073ffffffffffffffffffffffffffffffffffffffff82169050919050565b6000819050919050565b600061135261134d6113488461130d565b61132d565b61130d565b9050919050565b600061136482611337565b9050919050565b600061137682611359565b9050919050565b6113868161136b565b82525050565b60006020820190506113a1600083018461137d565b92915050565b600080fd5b600080fd5b60006113bc8261130d565b9050919050565b6113cc816113b1565b81146113d757600080fd5b50565b6000813590506113e9816113c3565b92915050565b600080fd5b600080fd5b600080fd5b60008083601f840112611414576114136113ef565b5b8235905067ffffffffffffffff811115611431576114306113f4565b5b60208301915083602082028301111561144d5761144c6113f9565b5b9250929050565b6000819050919050565b61146781611454565b811461147257600080fd5b50565b6000813590506114848161145e565b92915050565b60008083601f8401126114a05761149f6113ef565b5b8235905067ffffffffffffffff8111156114bd576114bc6113f4565b5b6020830191508360208202830111156114d9576114d86113f9565b5b9250929050565b600080600080600080608087890312156114fd576114fc6113a7565b5b600061150b89828a016113da565b965050602087013567ffffffffffffffff81111561152c5761152b6113ac565b5b61153889828a016113fe565b9550955050604061154b89828a01611475565b935050606087013567ffffffffffffffff81111561156c5761156b6113ac565b5b61157889828a0161148a565b92509250509295509295509295565b60006020828403121561159d5761159c6113a7565b5b60006115ab848285016113da565b91505092915050565b6000806000606084860312156115cd576115cc6113a7565b5b60006115db868287016113da565b93505060206115ec868287016113da565b92505060406115fd86828701611475565b9150509250925092565b60008115159050919050565b61161c81611607565b811461162757600080fd5b50565b60008135905061163981611613565b92915050565b600060208284031215611655576116546113a7565b5b60006116638482850161162a565b91505092915050565b60008060008060408587031215611686576116856113a7565b5b600085013567ffffffffffffffff8111156116a4576116a36113ac565b5b6116b0878288016113fe565b9450945050602085013567ffffffffffffffff8111156116d3576116d26113ac565b5b6116df8782880161148a565b925092505092959194509250565b6116f6816113b1565b82525050565b600060208201905061171160008301846116ed565b92915050565b6000806040838503121561172e5761172d6113a7565b5b600061173c858286016113da565b925050602061174d85828601611475565b9150509250929050565b60008083601f84011261176d5761176c6113ef565b5b8235905067ffffffffffffffff81111561178a576117896113f4565b5b6020830191508360018202830111156117a6576117a56113f9565b5b9250929050565b600080600080600080600080600060a08a8c0312156117cf576117ce6113a7565b5b60008a013567ffffffffffffffff8111156117ed576117ec6113ac565b5b6117f98c828d016113fe565b995099505060208a013567ffffffffffffffff81111561181c5761181b6113ac565b5b6118288c828d0161148a565b975097505060408a013567ffffffffffffffff81111561184b5761184a6113ac565b5b6118578c828d0161148a565b9550955050606061186a8c828d016113da565b93505060808a013567ffffffffffffffff81111561188b5761188a6113ac565b5b6118978c828d01611757565b92509250509295985092959850929598565b6118b281611607565b82525050565b60006020820190506118cd60008301846118a9565b92915050565b60006118de82611359565b9050919050565b6118ee816118d3565b82525050565b600060208201905061190960008301846118e5565b92915050565b600060208284031215611925576119246113a7565b5b600061193384828501611475565b91505092915050565b600080600080600060a08688031215611958576119576113a7565b5b6000611966888289016113da565b9550506020611977888289016113da565b945050604061198888828901611475565b935050606061199988828901611475565b92505060806119aa88828901611475565b9150509295509295909350565b6119c081611454565b82525050565b60006020820190506119db60008301846119b7565b92915050565b600082825260208201905092915050565b7f496e76616c696420706172616d65746572730000000000000000000000000000600082015250565b6000611a286012836119e1565b9150611a33826119f2565b602082019050919050565b60006020820190508181036000830152611a5781611a1b565b9050919050565b7f416d6f756e742062656c6f77207468726573686f6c6400000000000000000000600082015250565b6000611a946016836119e1565b9150611a9f82611a5e565b602082019050919050565b60006020820190508181036000830152611ac381611a87565b9050919050565b7f4e487b7100000000000000000000000000000000000000000000000000000000600052603260045260246000fd5b600081519050611b088161145e565b92915050565b600060208284031215611b2457611b236113a7565b5b6000611b3284828501611af9565b91505092915050565b7f496e76616c696420746f6b656e20616464726573736573000000000000000000600082015250565b6000611b716017836119e1565b9150611b7c82611b3b565b602082019050919050565b60006020820190508181036000830152611ba081611b64565b9050919050565b7f416d6f756e74206d7573742062652067726561746572207468616e2030000000600082015250565b6000611bdd601d836119e1565b9150611be882611ba7565b602082019050919050565b60006020820190508181036000830152611c0c81611bd0565b9050919050565b7f4e487b7100000000000000000000000000000000000000000000000000000000600052604160045260246000fd5b7f43616c6c6572206d757374206265206c656e64696e6720706f6f6c0000000000600082015250565b6000611c78601b836119e1565b9150611c8382611c42565b602082019050919050565b60006020820190508181036000830152611ca781611c6b565b9050919050565b7f41726269747261676520657865637574696f6e206661696c6564000000000000600082015250565b6000611ce4601a836119e1565b9150611cef82611cae565b602082019050919050565b60006020820190508181036000830152611d1381611cd7565b9050919050565b7f4e487b7100000000000000000000000000000000000000000000000000000000600052601160045260246000fd5b6000611d5482611454565b9150611d5f83611454565b9250828201905080821115611d7757611d76611d1a565b5b92915050565b6000604082019050611d9260008301856116ed565b611d9f60208301846119b7565b9392505050565b600081519050611db581611613565b92915050565b600060208284031215611dd157611dd06113a7565b5b6000611ddf84828501611da6565b91505092915050565b600081519050919050565b600082825260208201905092915050565b6000819050602082019050919050565b611e1d816113b1565b82525050565b6000611e2f8383611e14565b60208301905092915050565b6000602082019050919050565b6000611e5382611de8565b611e5d8185611df3565b9350611e6883611e04565b8060005b83811015611e99578151611e808882611e23565b9750611e8b83611e3b565b925050600181019050611e6c565b5085935050505092915050565b600081519050919050565b600082825260208201905092915050565b6000819050602082019050919050565b611edb81611454565b82525050565b6000611eed8383611ed2565b60208301905092915050565b6000602082019050919050565b6000611f1182611ea6565b611f1b8185611eb1565b9350611f2683611ec2565b8060005b83811015611f57578151611f3e8882611ee1565b9750611f4983611ef9565b925050600181019050611f2a565b5085935050505092915050565b600081519050919050565b600082825260208201905092915050565b60005b83811015611f9e578082015181840152602081019050611f83565b60008484015250505050565b6000601f19601f8301169050919050565b6000611fc682611f64565b611fd08185611f6f565b9350611fe0818560208601611f80565b611fe981611faa565b840191505092915050565b600061ffff82169050919050565b61200b81611ff4565b82525050565b600060e082019050612026600083018a6116ed565b81810360208301526120388189611e48565b9050818103604083015261204c8188611f06565b905081810360608301526120608187611f06565b905061206f60808301866116ed565b81810360a08301526120818185611fbb565b905061209060c0830184612002565b98975050505050505050565b60006120a782611454565b91506120b283611454565b92508282039050818111156120ca576120c9611d1a565b5b92915050565b60006120db82611454565b91506120e683611454565b92508282026120f481611454565b9150828204841483151761210b5761210a611d1a565b5b5092915050565b7f4e487b7100000000000000000000000000000000000000000000000000000000600052601260045260246000fd5b600061214c82611454565b915061215783611454565b92508261216757612166612112565b5b82820490509291505056fea26469706673582212208846545e9de7159c1afcd138eb6003b3c6b990f28a4f67b7f06fb0e275421bd364736f6c634300081c0033",
  "linkReferences": {},
  "deployedLinkReferences": {}
}