{
  "_format": "hh-sol-artifact-1",
  "contractName": "FlashloanV2",
  "sourceName": "contracts/flashloan/FlashloanArbitrage.sol",
  "abi": [
    {
      "inputs": [
        {
          "internalType": "address",
          "name": "_addressProvider",
          "type": "address"
        },
        {
          "internalType": "address",
          "name": "_uniswapRouterAddress",
          "type": "address"
        },
        {
          "internalType": "address",
          "name": "_sushiswapRouterAddress",
          "type": "address"
        }
      ],
      "stateMutability": "nonpayable",
      "type": "constructor"
    },
    {
      "inputs": [
        {
          "internalType": "address",
          "name": "owner",
          "type": "address"
        }
      ],
      "name": "OwnableInvalidOwner",
      "type": "error"
    },
    {
      "inputs": [
        {
          "internalType": "address",
          "name": "account",
          "type": "address"
        }
      ],
      "name": "OwnableUnauthorizedAccount",
      "type": "error"
    },
    {
      "inputs": [
        {
          "internalType": "address",
          "name": "token",
          "type": "address"
        }
      ],
      "name": "SafeERC20FailedOperation",
      "type": "error"
    },
    {
      "anonymous": false,
      "inputs": [
        {
          "indexed": true,
          "internalType": "address",
          "name": "token0",
          "type": "address"
        },
        {
          "indexed": true,
          "internalType": "address",
          "name": "token1",
          "type": "address"
        },
        {
          "indexed": false,
          "internalType": "uint256",
          "name": "profit",
          "type": "uint256"
        }
      ],
      "name": "ArbitrageExecuted",
      "type": "event"
    },
    {
      "anonymous": false,
      "inputs": [
        {
          "indexed": true,
          "internalType": "address",
          "name": "_from",
          "type": "address"
        },
        {
          "indexed": true,
          "internalType": "address",
          "name": "_assetAddress",
          "type": "address"
        },
        {
          "indexed": false,
          "internalType": "uint256",
          "name": "amount",
          "type": "uint256"
        }
      ],
      "name": "LogWithdraw",
      "type": "event"
    },
    {
      "anonymous": false,
      "inputs": [
        {
          "indexed": true,
          "internalType": "address",
          "name": "previousOwner",
          "type": "address"
        },
        {
          "indexed": true,
          "internalType": "address",
          "name": "newOwner",
          "type": "address"
        }
      ],
      "name": "OwnershipTransferred",
      "type": "event"
    },
    {
      "inputs": [],
      "name": "ADDRESSES_PROVIDER",
      "outputs": [
        {
          "internalType": "contract ILendingPoolAddressesProviderV2",
          "name": "",
          "type": "address"
        }
      ],
      "stateMutability": "view",
      "type": "function"
    },
    {
      "inputs": [],
      "name": "LENDING_POOL",
      "outputs": [
        {
          "internalType": "contract ILendingPoolV2",
          "name": "",
          "type": "address"
        }
      ],
      "stateMutability": "view",
      "type": "function"
    },
    {
      "inputs": [
        {
          "internalType": "address",
          "name": "token0",
          "type": "address"
        },
        {
          "internalType": "address",
          "name": "token1",
          "type": "address"
        },
        {
          "internalType": "uint256",
          "name": "amount",
          "type": "uint256"
        },
        {
          "internalType": "uint256",
          "name": "uniswapPrice",
          "type": "uint256"
        },
        {
          "internalType": "uint256",
          "name": "sushiswapPrice",
          "type": "uint256"
        }
      ],
      "name": "calculateArbitrageProfitEstimate",
      "outputs": [
        {
          "internalType": "uint256",
          "name": "",
          "type": "uint256"
        }
      ],
      "stateMutability": "view",
      "type": "function"
    },
    {
      "inputs": [
        {
          "internalType": "address",
          "name": "token0",
          "type": "address"
        },
        {
          "internalType": "address",
          "name": "token1",
          "type": "address"
        },
        {
          "internalType": "uint256",
          "name": "amount",
          "type": "uint256"
        },
        {
          "internalType": "uint256",
          "name": "price0",
          "type": "uint256"
        },
        {
          "internalType": "uint256",
          "name": "price1",
          "type": "uint256"
        }
      ],
      "name": "executeArbitrage",
      "outputs": [],
      "stateMutability": "nonpayable",
      "type": "function"
    },
    {
      "inputs": [
        {
          "internalType": "address[]",
          "name": "path",
          "type": "address[]"
        },
        {
          "internalType": "uint256[]",
          "name": "amounts",
          "type": "uint256[]"
        }
      ],
      "name": "executeComplexArbitrage",
      "outputs": [],
      "stateMutability": "nonpayable",
      "type": "function"
    },
    {
      "inputs": [
        {
          "internalType": "address",
          "name": "baseToken",
          "type": "address"
        },
        {
          "internalType": "address[]",
          "name": "pairs",
          "type": "address[]"
        },
        {
          "internalType": "uint256",
          "name": "amount",
          "type": "uint256"
        },
        {
          "internalType": "uint256[]",
          "name": "prices",
          "type": "uint256[]"
        }
      ],
      "name": "executeMultiDexArbitrage",
      "outputs": [],
      "stateMutability": "nonpayable",
      "type": "function"
    },
    {
      "inputs": [
        {
          "internalType": "address[]",
          "name": "assets",
          "type": "address[]"
        },
        {
          "internalType": "uint256[]",
          "name": "amounts",
          "type": "uint256[]"
        },
        {
          "internalType": "uint256[]",
          "name": "premiums",
          "type": "uint256[]"
        },
        {
          "internalType": "address",
          "name": "",
          "type": "address"
        },
        {
          "internalType": "bytes",
          "name": "params",
          "type": "bytes"
        }
      ],
      "name": "executeOperation",
      "outputs": [
        {
          "internalType": "bool",
          "name": "",
          "type": "bool"
        }
      ],
      "stateMutability": "nonpayable",
      "type": "function"
    },
    {
      "inputs": [
        {
          "internalType": "address",
          "name": "_asset",
          "type": "address"
        },
        {
          "internalType": "uint256",
          "name": "_amount",
          "type": "uint256"
        }
      ],
      "name": "flashloan",
      "outputs": [],
      "stateMutability": "nonpayable",
      "type": "function"
    },
    {
      "inputs": [],
      "name": "owner",
      "outputs": [
        {
          "internalType": "address",
          "name": "",
          "type": "address"
        }
      ],
      "stateMutability": "view",
      "type": "function"
    },
    {
      "inputs": [
        {
          "internalType": "address",
          "name": "_asset",
          "type": "address"
        }
      ],
      "name": "pullTokens",
      "outputs": [],
      "stateMutability": "nonpayable",
      "type": "function"
    },
    {
      "inputs": [],
      "name": "renounceOwnership",
      "outputs": [],
      "stateMutability": "nonpayable",
      "type": "function"
    },
    {
      "inputs": [
        {
          "internalType": "uint256",
          "name": "threshold",
          "type": "uint256"
        }
      ],
      "name": "setMinimumProfitThreshold",
      "outputs": [],
      "stateMutability": "nonpayable",
      "type": "function"
    },
    {
      "inputs": [
        {
          "internalType": "bool",
          "name": "shouldFail",
          "type": "bool"
        }
      ],
      "name": "setSimulateFailure",
      "outputs": [],
      "stateMutability": "nonpayable",
      "type": "function"
    },
    {
      "inputs": [
        {
          "internalType": "address",
          "name": "_borrowAsset",
          "type": "address"
        },
        {
          "internalType": "uint256",
          "name": "_borrowAmount",
          "type": "uint256"
        },
        {
          "internalType": "address",
          "name": "_swappingPair",
          "type": "address"
        },
        {
          "internalType": "address",
          "name": "_factoryAddress",
          "type": "address"
        }
      ],
      "name": "startTransaction",
      "outputs": [],
      "stateMutability": "nonpayable",
      "type": "function"
    },
    {
      "inputs": [
        {
          "internalType": "address",
          "name": "newOwner",
          "type": "address"
        }
      ],
      "name": "transferOwnership",
      "outputs": [],
      "stateMutability": "nonpayable",
      "type": "function"
    },
    {
      "inputs": [
        {
          "internalType": "address",
          "name": "_assetAddress",
          "type": "address"
        }
      ],
      "name": "withdraw",
      "outputs": [],
      "stateMutability": "nonpayable",
      "type": "function"
    },
    {
      "stateMutability": "payable",
      "type": "receive"
    }
  ],
  "bytecode": "0x61010060405234801561001157600080fd5b5060405161305e38038061305e83398181016040528101906100339190610325565b33838073ffffffffffffffffffffffffffffffffffffffff1660808173ffffffffffffffffffffffffffffffffffffffff16815250508073ffffffffffffffffffffffffffffffffffffffff16630261bf8b6040518163ffffffff1660e01b8152600401602060405180830381865afa1580156100b4573d6000803e3d6000fd5b505050506040513d601f19601f820116820180604052508101906100d89190610378565b73ffffffffffffffffffffffffffffffffffffffff1660a08173ffffffffffffffffffffffffffffffffffffffff168152505050600073ffffffffffffffffffffffffffffffffffffffff168173ffffffffffffffffffffffffffffffffffffffff160361017e5760006040517f1e4fbdf700000000000000000000000000000000000000000000000000000000815260040161017591906103b4565b60405180910390fd5b61018d816101fe60201b60201c565b508173ffffffffffffffffffffffffffffffffffffffff1660c08173ffffffffffffffffffffffffffffffffffffffff16815250508073ffffffffffffffffffffffffffffffffffffffff1660e08173ffffffffffffffffffffffffffffffffffffffff16815250505050506103cf565b60008060009054906101000a900473ffffffffffffffffffffffffffffffffffffffff169050816000806101000a81548173ffffffffffffffffffffffffffffffffffffffff021916908373ffffffffffffffffffffffffffffffffffffffff1602179055508173ffffffffffffffffffffffffffffffffffffffff168173ffffffffffffffffffffffffffffffffffffffff167f8be0079c531659141344cd1fd0a4f28419497f9722a3daafe3b4186f6b6457e060405160405180910390a35050565b600080fd5b600073ffffffffffffffffffffffffffffffffffffffff82169050919050565b60006102f2826102c7565b9050919050565b610302816102e7565b811461030d57600080fd5b50565b60008151905061031f816102f9565b92915050565b60008060006060848603121561033e5761033d6102c2565b5b600061034c86828701610310565b935050602061035d86828701610310565b925050604061036e86828701610310565b9150509250925092565b60006020828403121561038e5761038d6102c2565b5b600061039c84828501610310565b91505092915050565b6103ae816102e7565b82525050565b60006020820190506103c960008301846103a5565b92915050565b60805160a05160c05160e051612c2561043960003960008181611358015281816113ba015261153701526000818161132a015281816113e80152611507015260008181610b2a01528181610c0301528181610c9c0152611247015260006103b10152612c256000f3fe6080604052600436106100f75760003560e01c80638e5f5f571161008a578063e1ab1b1311610059578063e1ab1b13146102f7578063f058fb1b14610320578063f2fde38b14610349578063fb247bc514610372576100fe565b80638e5f5f571461023d5780638ef4164214610266578063920f5c841461028f578063b4dcfc77146102cc576100fe565b80636b2eb2f9116100c65780636b2eb2f9146101a957806370963235146101d2578063715018a6146101fb5780638da5cb5b14610212576100fe565b80630542975c1461010357806308739f501461012e57806342e9c6ce1461015757806351cff8d914610180576100fe565b366100fe57005b600080fd5b34801561010f57600080fd5b506101186103af565b6040516101259190611b13565b60405180910390f35b34801561013a57600080fd5b5061015560048036038101906101509190611c71565b6103d3565b005b34801561016357600080fd5b5061017e60048036038101906101799190611d18565b610492565b005b34801561018c57600080fd5b506101a760048036038101906101a29190611d18565b6105a3565b005b3480156101b557600080fd5b506101d060048036038101906101cb9190611d7d565b61075d565b005b3480156101de57600080fd5b506101f960048036038101906101f49190611daa565b610782565b005b34801561020757600080fd5b50610210610881565b005b34801561021e57600080fd5b50610227610895565b6040516102349190611e3a565b60405180910390f35b34801561024957600080fd5b50610264600480360381019061025f9190611e55565b6108be565b005b34801561027257600080fd5b5061028d60048036038101906102889190611e95565b6109f8565b005b34801561029b57600080fd5b506102b660048036038101906102b19190611f66565b610abc565b6040516102c39190612071565b60405180910390f35b3480156102d857600080fd5b506102e1610c9a565b6040516102ee91906120ad565b60405180910390f35b34801561030357600080fd5b5061031e600480360381019061031991906120c8565b610cbe565b005b34801561032c57600080fd5b50610347600480360381019061034291906120f5565b610cd0565b005b34801561035557600080fd5b50610370600480360381019061036b9190611d18565b610dfe565b005b34801561037e57600080fd5b5061039960048036038101906103949190611e95565b610e84565b6040516103a6919061216b565b60405180910390f35b7f000000000000000000000000000000000000000000000000000000000000000081565b6103db610ec9565b6000858590501180156103f357508484905082829050145b610432576040517f08c379a0000000000000000000000000000000000000000000000000000000008152600401610429906121e3565b60405180910390fd5b60008585600081811061044857610447612203565b5b905060200201602081019061045d9190611d18565b60405160200161046d9190611e3a565b6040516020818303038152906040529050610489878583610f50565b50505050505050565b61049a610ec9565b60008190508073ffffffffffffffffffffffffffffffffffffffff1663095ea7b333476040518363ffffffff1660e01b81526004016104da929190612232565b6020604051808303816000875af11580156104f9573d6000803e3d6000fd5b505050506040513d601f19601f8201168201806040525081019061051d9190612270565b508073ffffffffffffffffffffffffffffffffffffffff166323b872dd3033476040518463ffffffff1660e01b815260040161055b9392919061229d565b6020604051808303816000875af115801561057a573d6000803e3d6000fd5b505050506040513d601f19601f8201168201806040525081019061059e9190612270565b505050565b6105ab610ec9565b60008073ffffffffffffffffffffffffffffffffffffffff168273ffffffffffffffffffffffffffffffffffffffff160361064c5760003090508073ffffffffffffffffffffffffffffffffffffffff163191503373ffffffffffffffffffffffffffffffffffffffff166108fc839081150290604051600060405180830381858888f19350505050158015610645573d6000803e3d6000fd5b50506106f4565b8173ffffffffffffffffffffffffffffffffffffffff166370a08231306040518263ffffffff1660e01b81526004016106859190611e3a565b602060405180830381865afa1580156106a2573d6000803e3d6000fd5b505050506040513d601f19601f820116820180604052508101906106c691906122e9565b90506106f333828473ffffffffffffffffffffffffffffffffffffffff1661106e9092919063ffffffff16565b5b8173ffffffffffffffffffffffffffffffffffffffff163373ffffffffffffffffffffffffffffffffffffffff167f9207361cc2a04b9c7a06691df1eb87c6a63957ae88bf01d0d18c81e3d127209983604051610751919061216b565b60405180910390a35050565b610765610ec9565b80600260006101000a81548160ff02191690831515021790555050565b61078a610ec9565b6001848490501180156107a257508383905082829050145b6107e1576040517f08c379a00000000000000000000000000000000000000000000000000000000081526004016107d8906121e3565b60405180910390fd5b6000848460018181106107f7576107f6612203565b5b905060200201602081019061080c9190611d18565b60405160200161081c9190611e3a565b604051602081830303815290604052905061087a8585600081811061084457610843612203565b5b90506020020160208101906108599190611d18565b8484600081811061086d5761086c612203565b5b9050602002013583610f50565b5050505050565b610889610ec9565b61089360006110ed565b565b60008060009054906101000a900473ffffffffffffffffffffffffffffffffffffffff16905090565b6108c6610ec9565b6000600167ffffffffffffffff8111156108e3576108e2612316565b5b6040519080825280602002602001820160405280156109115781602001602082028036833780820191505090505b509050828160008151811061092957610928612203565b5b602002602001019073ffffffffffffffffffffffffffffffffffffffff16908173ffffffffffffffffffffffffffffffffffffffff16815250506000600167ffffffffffffffff8111156109805761097f612316565b5b6040519080825280602002602001820160405280156109ae5781602001602082028036833780820191505090505b50905082816000815181106109c6576109c5612203565b5b60200260200101818152505060006040518060200160405280600081525090506109f18383836111b1565b5050505050565b610a00610ec9565b60008311610a43576040517f08c379a0000000000000000000000000000000000000000000000000000000008152600401610a3a906121e3565b60405180910390fd5b808203610a85576040517f08c379a0000000000000000000000000000000000000000000000000000000008152600401610a7c906123b7565b60405180910390fd5b600084604051602001610a989190611e3a565b6040516020818303038152906040529050610ab4868583610f50565b505050505050565b6000808a8a6000818110610ad357610ad2612203565b5b9050602002016020810190610ae89190611d18565b9050600089896000818110610b0057610aff612203565b5b905060200201359050600088886000818110610b1f57610b1e612203565b5b9050602002013590507f000000000000000000000000000000000000000000000000000000000000000073ffffffffffffffffffffffffffffffffffffffff163373ffffffffffffffffffffffffffffffffffffffff1614610bb6576040517f08c379a0000000000000000000000000000000000000000000000000000000008152600401610bad90612423565b60405180910390fd5b60008686810190610bc79190612481565b9050610bd48484836112e5565b5060008284610be391906124dd565b90508473ffffffffffffffffffffffffffffffffffffffff1663095ea7b37f0000000000000000000000000000000000000000000000000000000000000000836040518363ffffffff1660e01b8152600401610c40929190612232565b6020604051808303816000875af1158015610c5f573d6000803e3d6000fd5b505050506040513d601f19601f82011682018060405250810190610c839190612270565b506001955050505050509998505050505050505050565b7f000000000000000000000000000000000000000000000000000000000000000081565b610cc6610ec9565b8060018190555050565b610cd8610ec9565b60008173ffffffffffffffffffffffffffffffffffffffff1663e6a4390586856040518363ffffffff1660e01b8152600401610d15929190612511565b602060405180830381865afa158015610d32573d6000803e3d6000fd5b505050506040513d601f19601f82011682018060405250810190610d56919061254f565b9050600073ffffffffffffffffffffffffffffffffffffffff168173ffffffffffffffffffffffffffffffffffffffff1603610dc7576040517f08c379a0000000000000000000000000000000000000000000000000000000008152600401610dbe906125c8565b60405180910390fd5b600083604051602001610dda9190611e3a565b6040516020818303038152906040529050610df6868683610f50565b505050505050565b610e06610ec9565b600073ffffffffffffffffffffffffffffffffffffffff168173ffffffffffffffffffffffffffffffffffffffff1603610e785760006040517f1e4fbdf7000000000000000000000000000000000000000000000000000000008152600401610e6f9190611e3a565b60405180910390fd5b610e81816110ed565b50565b6000806000905082841115610ea557610e9e858585611428565b9050610ebc565b83831115610ebb57610eb8858486611428565b90505b5b8091505095945050505050565b610ed1611455565b73ffffffffffffffffffffffffffffffffffffffff16610eef610895565b73ffffffffffffffffffffffffffffffffffffffff1614610f4e57610f12611455565b6040517f118cdaa7000000000000000000000000000000000000000000000000000000008152600401610f459190611e3a565b60405180910390fd5b565b6000600167ffffffffffffffff811115610f6d57610f6c612316565b5b604051908082528060200260200182016040528015610f9b5781602001602082028036833780820191505090505b5090508381600081518110610fb357610fb2612203565b5b602002602001019073ffffffffffffffffffffffffffffffffffffffff16908173ffffffffffffffffffffffffffffffffffffffff16815250506000600167ffffffffffffffff81111561100a57611009612316565b5b6040519080825280602002602001820160405280156110385781602001602082028036833780820191505090505b50905083816000815181106110505761104f612203565b5b6020026020010181815250506110678282856111b1565b5050505050565b6110e8838473ffffffffffffffffffffffffffffffffffffffff1663a9059cbb85856040516024016110a1929190612232565b604051602081830303815290604052915060e01b6020820180517bffffffffffffffffffffffffffffffffffffffffffffffffffffffff838183161783525050505061145d565b505050565b60008060009054906101000a900473ffffffffffffffffffffffffffffffffffffffff169050816000806101000a81548173ffffffffffffffffffffffffffffffffffffffff021916908373ffffffffffffffffffffffffffffffffffffffff1602179055508173ffffffffffffffffffffffffffffffffffffffff168173ffffffffffffffffffffffffffffffffffffffff167f8be0079c531659141344cd1fd0a4f28419497f9722a3daafe3b4186f6b6457e060405160405180910390a35050565b60003090506000309050600080865167ffffffffffffffff8111156111d9576111d8612316565b5b6040519080825280602002602001820160405280156112075781602001602082028036833780820191505090505b50905060005b875181101561124457600082828151811061122b5761122a612203565b5b602002602001018181525050808060010191505061120d565b507f000000000000000000000000000000000000000000000000000000000000000073ffffffffffffffffffffffffffffffffffffffff1663ab9c4b5d85898985888b896040518863ffffffff1660e01b81526004016112aa9796959493929190612811565b600060405180830381600087803b1580156112c457600080fd5b505af11580156112d8573d6000803e3d6000fd5b5050505050505050505050565b6000806112f38486856114ff565b9050600080600281111561130a5761130961289c565b5b82600281111561131d5761131c61289c565b5b03611386576000611350867f00000000000000000000000000000000000000000000000000000000000000008988611628565b905061137e817f0000000000000000000000000000000000000000000000000000000000000000878a611628565b91505061141c565b6001600281111561139a5761139961289c565b5b8260028111156113ad576113ac61289c565b5b036114165760006113e0867f00000000000000000000000000000000000000000000000000000000000000008988611628565b905061140e817f0000000000000000000000000000000000000000000000000000000000000000878a611628565b91505061141b565b600080fd5b5b80925050509392505050565b60008284838561143891906128cb565b61144291906128ff565b61144c9190612970565b90509392505050565b600033905090565b600080602060008451602086016000885af180611480576040513d6000823e3d81fd5b3d92506000519150506000821461149b5760018114156114b7565b60008473ffffffffffffffffffffffffffffffffffffffff163b145b156114f957836040517f5274afe70000000000000000000000000000000000000000000000000000000081526004016114f09190611e3a565b60405180910390fd5b50505050565b60008061152e7f0000000000000000000000000000000000000000000000000000000000000000858588611880565b9050600061155e7f0000000000000000000000000000000000000000000000000000000000000000868689611880565b9050808211156115bd57611573868383611a1a565b6115b2576040517f08c379a00000000000000000000000000000000000000000000000000000000081526004016115a9906129ed565b60405180910390fd5b600092505050611621565b8082101561161a576115d0868284611a1a565b61160f576040517f08c379a0000000000000000000000000000000000000000000000000000000008152600401611606906129ed565b60405180910390fd5b600192505050611621565b6002925050505b9392505050565b60008273ffffffffffffffffffffffffffffffffffffffff1663095ea7b385876040518363ffffffff1660e01b8152600401611665929190612232565b6020604051808303816000875af1158015611684573d6000803e3d6000fd5b505050506040513d601f19601f820116820180604052508101906116a89190612270565b5060006064605f6116bb8787878b611880565b6116c591906128ff565b6116cf9190612970565b90506000600267ffffffffffffffff8111156116ee576116ed612316565b5b60405190808252806020026020018201604052801561171c5781602001602082028036833780820191505090505b509050848160008151811061173457611733612203565b5b602002602001019073ffffffffffffffffffffffffffffffffffffffff16908173ffffffffffffffffffffffffffffffffffffffff1681525050838160018151811061178357611782612203565b5b602002602001019073ffffffffffffffffffffffffffffffffffffffff16908173ffffffffffffffffffffffffffffffffffffffff168152505060008673ffffffffffffffffffffffffffffffffffffffff166338ed17398985853061012c426117ed91906124dd565b6040518663ffffffff1660e01b815260040161180d959493929190612a0d565b6000604051808303816000875af115801561182c573d6000803e3d6000fd5b505050506040513d6000823e3d601f19601f820116820180604052508101906118559190612b76565b60018151811061186857611867612203565b5b60200260200101519050809350505050949350505050565b600080600267ffffffffffffffff81111561189e5761189d612316565b5b6040519080825280602002602001820160405280156118cc5781602001602082028036833780820191505090505b50905084816000815181106118e4576118e3612203565b5b602002602001019073ffffffffffffffffffffffffffffffffffffffff16908173ffffffffffffffffffffffffffffffffffffffff1681525050838160018151811061193357611932612203565b5b602002602001019073ffffffffffffffffffffffffffffffffffffffff16908173ffffffffffffffffffffffffffffffffffffffff168152505060008673ffffffffffffffffffffffffffffffffffffffff1663d06ca61f85846040518363ffffffff1660e01b81526004016119aa929190612bbf565b600060405180830381865afa1580156119c7573d6000803e3d6000fd5b505050506040513d6000823e3d601f19601f820116820180604052508101906119f09190612b76565b600181518110611a0357611a02612203565b5b602002602001015190508092505050949350505050565b60008083670de0b6b3a76400008486611a3391906128cb565b611a3d91906128ff565b611a479190612970565b905060006103e8600387611a5b91906128ff565b6002611a6791906128ff565b611a719190612970565b905080821115611a8657600192505050611a8d565b6000925050505b9392505050565b600073ffffffffffffffffffffffffffffffffffffffff82169050919050565b6000819050919050565b6000611ad9611ad4611acf84611a94565b611ab4565b611a94565b9050919050565b6000611aeb82611abe565b9050919050565b6000611afd82611ae0565b9050919050565b611b0d81611af2565b82525050565b6000602082019050611b286000830184611b04565b92915050565b6000604051905090565b600080fd5b600080fd5b6000611b4d82611a94565b9050919050565b611b5d81611b42565b8114611b6857600080fd5b50565b600081359050611b7a81611b54565b92915050565b600080fd5b600080fd5b600080fd5b60008083601f840112611ba557611ba4611b80565b5b8235905067ffffffffffffffff811115611bc257611bc1611b85565b5b602083019150836020820283011115611bde57611bdd611b8a565b5b9250929050565b6000819050919050565b611bf881611be5565b8114611c0357600080fd5b50565b600081359050611c1581611bef565b92915050565b60008083601f840112611c3157611c30611b80565b5b8235905067ffffffffffffffff811115611c4e57611c4d611b85565b5b602083019150836020820283011115611c6a57611c69611b8a565b5b9250929050565b60008060008060008060808789031215611c8e57611c8d611b38565b5b6000611c9c89828a01611b6b565b965050602087013567ffffffffffffffff811115611cbd57611cbc611b3d565b5b611cc989828a01611b8f565b95509550506040611cdc89828a01611c06565b935050606087013567ffffffffffffffff811115611cfd57611cfc611b3d565b5b611d0989828a01611c1b565b92509250509295509295509295565b600060208284031215611d2e57611d2d611b38565b5b6000611d3c84828501611b6b565b91505092915050565b60008115159050919050565b611d5a81611d45565b8114611d6557600080fd5b50565b600081359050611d7781611d51565b92915050565b600060208284031215611d9357611d92611b38565b5b6000611da184828501611d68565b91505092915050565b60008060008060408587031215611dc457611dc3611b38565b5b600085013567ffffffffffffffff811115611de257611de1611b3d565b5b611dee87828801611b8f565b9450945050602085013567ffffffffffffffff811115611e1157611e10611b3d565b5b611e1d87828801611c1b565b925092505092959194509250565b611e3481611b42565b82525050565b6000602082019050611e4f6000830184611e2b565b92915050565b60008060408385031215611e6c57611e6b611b38565b5b6000611e7a85828601611b6b565b9250506020611e8b85828601611c06565b9150509250929050565b600080600080600060a08688031215611eb157611eb0611b38565b5b6000611ebf88828901611b6b565b9550506020611ed088828901611b6b565b9450506040611ee188828901611c06565b9350506060611ef288828901611c06565b9250506080611f0388828901611c06565b9150509295509295909350565b60008083601f840112611f2657611f25611b80565b5b8235905067ffffffffffffffff811115611f4357611f42611b85565b5b602083019150836001820283011115611f5f57611f5e611b8a565b5b9250929050565b600080600080600080600080600060a08a8c031215611f8857611f87611b38565b5b60008a013567ffffffffffffffff811115611fa657611fa5611b3d565b5b611fb28c828d01611b8f565b995099505060208a013567ffffffffffffffff811115611fd557611fd4611b3d565b5b611fe18c828d01611c1b565b975097505060408a013567ffffffffffffffff81111561200457612003611b3d565b5b6120108c828d01611c1b565b955095505060606120238c828d01611b6b565b93505060808a013567ffffffffffffffff81111561204457612043611b3d565b5b6120508c828d01611f10565b92509250509295985092959850929598565b61206b81611d45565b82525050565b60006020820190506120866000830184612062565b92915050565b600061209782611ae0565b9050919050565b6120a78161208c565b82525050565b60006020820190506120c2600083018461209e565b92915050565b6000602082840312156120de576120dd611b38565b5b60006120ec84828501611c06565b91505092915050565b6000806000806080858703121561210f5761210e611b38565b5b600061211d87828801611b6b565b945050602061212e87828801611c06565b935050604061213f87828801611b6b565b925050606061215087828801611b6b565b91505092959194509250565b61216581611be5565b82525050565b6000602082019050612180600083018461215c565b92915050565b600082825260208201905092915050565b7f496e76616c696420706172616d65746572730000000000000000000000000000600082015250565b60006121cd601283612186565b91506121d882612197565b602082019050919050565b600060208201905081810360008301526121fc816121c0565b9050919050565b7f4e487b7100000000000000000000000000000000000000000000000000000000600052603260045260246000fd5b60006040820190506122476000830185611e2b565b612254602083018461215c565b9392505050565b60008151905061226a81611d51565b92915050565b60006020828403121561228657612285611b38565b5b60006122948482850161225b565b91505092915050565b60006060820190506122b26000830186611e2b565b6122bf6020830185611e2b565b6122cc604083018461215c565b949350505050565b6000815190506122e381611bef565b92915050565b6000602082840312156122ff576122fe611b38565b5b600061230d848285016122d4565b91505092915050565b7f4e487b7100000000000000000000000000000000000000000000000000000000600052604160045260246000fd5b7f4e6f2070726f66697461626c6520617262697472616765206f70706f7274756e60008201527f6974790000000000000000000000000000000000000000000000000000000000602082015250565b60006123a1602383612186565b91506123ac82612345565b604082019050919050565b600060208201905081810360008301526123d081612394565b9050919050565b7f4e6f7420706f6f6c000000000000000000000000000000000000000000000000600082015250565b600061240d600883612186565b9150612418826123d7565b602082019050919050565b6000602082019050818103600083015261243c81612400565b9050919050565b600061244e82611a94565b9050919050565b61245e81612443565b811461246957600080fd5b50565b60008135905061247b81612455565b92915050565b60006020828403121561249757612496611b38565b5b60006124a58482850161246c565b91505092915050565b7f4e487b7100000000000000000000000000000000000000000000000000000000600052601160045260246000fd5b60006124e882611be5565b91506124f383611be5565b925082820190508082111561250b5761250a6124ae565b5b92915050565b60006040820190506125266000830185611e2b565b6125336020830184611e2b565b9392505050565b60008151905061254981611b54565b92915050565b60006020828403121561256557612564611b38565b5b60006125738482850161253a565b91505092915050565b7f506169724164647265737320646f6573206e6f74206578697374210000000000600082015250565b60006125b2601b83612186565b91506125bd8261257c565b602082019050919050565b600060208201905081810360008301526125e1816125a5565b9050919050565b600081519050919050565b600082825260208201905092915050565b6000819050602082019050919050565b61261d81611b42565b82525050565b600061262f8383612614565b60208301905092915050565b6000602082019050919050565b6000612653826125e8565b61265d81856125f3565b935061266883612604565b8060005b838110156126995781516126808882612623565b975061268b8361263b565b92505060018101905061266c565b5085935050505092915050565b600081519050919050565b600082825260208201905092915050565b6000819050602082019050919050565b6126db81611be5565b82525050565b60006126ed83836126d2565b60208301905092915050565b6000602082019050919050565b6000612711826126a6565b61271b81856126b1565b9350612726836126c2565b8060005b8381101561275757815161273e88826126e1565b9750612749836126f9565b92505060018101905061272a565b5085935050505092915050565b600081519050919050565b600082825260208201905092915050565b60005b8381101561279e578082015181840152602081019050612783565b60008484015250505050565b6000601f19601f8301169050919050565b60006127c682612764565b6127d0818561276f565b93506127e0818560208601612780565b6127e9816127aa565b840191505092915050565b600061ffff82169050919050565b61280b816127f4565b82525050565b600060e082019050612826600083018a611e2b565b81810360208301526128388189612648565b9050818103604083015261284c8188612706565b905081810360608301526128608187612706565b905061286f6080830186611e2b565b81810360a083015261288181856127bb565b905061289060c0830184612802565b98975050505050505050565b7f4e487b7100000000000000000000000000000000000000000000000000000000600052602160045260246000fd5b60006128d682611be5565b91506128e183611be5565b92508282039050818111156128f9576128f86124ae565b5b92915050565b600061290a82611be5565b915061291583611be5565b925082820261292381611be5565b9150828204841483151761293a576129396124ae565b5b5092915050565b7f4e487b7100000000000000000000000000000000000000000000000000000000600052601260045260246000fd5b600061297b82611be5565b915061298683611be5565b92508261299657612995612941565b5b828204905092915050565b7f417262697472616765206e6f742070726f66697461626c650000000000000000600082015250565b60006129d7601883612186565b91506129e2826129a1565b602082019050919050565b60006020820190508181036000830152612a06816129ca565b9050919050565b600060a082019050612a22600083018861215c565b612a2f602083018761215c565b8181036040830152612a418186612648565b9050612a506060830185611e2b565b612a5d608083018461215c565b9695505050505050565b612a70826127aa565b810181811067ffffffffffffffff82111715612a8f57612a8e612316565b5b80604052505050565b6000612aa2611b2e565b9050612aae8282612a67565b919050565b600067ffffffffffffffff821115612ace57612acd612316565b5b602082029050602081019050919050565b6000612af2612aed84612ab3565b612a98565b90508083825260208201905060208402830185811115612b1557612b14611b8a565b5b835b81811015612b3e5780612b2a88826122d4565b845260208401935050602081019050612b17565b5050509392505050565b600082601f830112612b5d57612b5c611b80565b5b8151612b6d848260208601612adf565b91505092915050565b600060208284031215612b8c57612b8b611b38565b5b600082015167ffffffffffffffff811115612baa57612ba9611b3d565b5b612bb684828501612b48565b91505092915050565b6000604082019050612bd4600083018561215c565b8181036020830152612be68184612648565b9050939250505056fea2646970667358221220ba0180ae3e42689cd5c3ad7e519b23f8d4914381c5e0744f9879f4882b43da2764736f6c634300081c0033",
  "linkReferences": {},
  "deployedLinkReferences": {}
}