{
  "_format": "hh-sol-artifact-1",
  "contractName": "FlashloanArbitrage",
  "sourceName": "contracts/flashloan/FlashloanArbitrage.sol",
  "abi": [
    {
      "inputs": [
        {
          "internalType": "address",
          "name": "_addressProvider",
          "type": "address"
        },
        {
          "internalType": "address",
          "name": "_uniswapRouterAddress",
          "type": "address"
        },
        {
          "internalType": "address",
          "name": "_sushiswapRouterAddress",
          "type": "address"
        }
      ],
      "stateMutability": "nonpayable",
      "type": "constructor"
    },
    {
      "inputs": [
        {
          "internalType": "address",
          "name": "owner",
          "type": "address"
        }
      ],
      "name": "OwnableInvalidOwner",
      "type": "error"
    },
    {
      "inputs": [
        {
          "internalType": "address",
          "name": "account",
          "type": "address"
        }
      ],
      "name": "OwnableUnauthorizedAccount",
      "type": "error"
    },
    {
      "inputs": [
        {
          "internalType": "address",
          "name": "token",
          "type": "address"
        }
      ],
      "name": "SafeERC20FailedOperation",
      "type": "error"
    },
    {
      "anonymous": false,
      "inputs": [
        {
          "indexed": true,
          "internalType": "address",
          "name": "token0",
          "type": "address"
        },
        {
          "indexed": true,
          "internalType": "address",
          "name": "token1",
          "type": "address"
        },
        {
          "indexed": false,
          "internalType": "uint256",
          "name": "profit",
          "type": "uint256"
        }
      ],
      "name": "ArbitrageExecuted",
      "type": "event"
    },
    {
      "anonymous": false,
      "inputs": [
        {
          "indexed": true,
          "internalType": "address",
          "name": "_from",
          "type": "address"
        },
        {
          "indexed": true,
          "internalType": "address",
          "name": "_assetAddress",
          "type": "address"
        },
        {
          "indexed": false,
          "internalType": "uint256",
          "name": "amount",
          "type": "uint256"
        }
      ],
      "name": "LogWithdraw",
      "type": "event"
    },
    {
      "anonymous": false,
      "inputs": [
        {
          "indexed": true,
          "internalType": "address",
          "name": "previousOwner",
          "type": "address"
        },
        {
          "indexed": true,
          "internalType": "address",
          "name": "newOwner",
          "type": "address"
        }
      ],
      "name": "OwnershipTransferred",
      "type": "event"
    },
    {
      "inputs": [],
      "name": "ADDRESSES_PROVIDER",
      "outputs": [
        {
          "internalType": "contract ILendingPoolAddressesProviderV2",
          "name": "",
          "type": "address"
        }
      ],
      "stateMutability": "view",
      "type": "function"
    },
    {
      "inputs": [],
      "name": "LENDING_POOL",
      "outputs": [
        {
          "internalType": "contract ILendingPoolV2",
          "name": "",
          "type": "address"
        }
      ],
      "stateMutability": "view",
      "type": "function"
    },
    {
      "inputs": [
        {
          "internalType": "uint256",
          "name": "amount",
          "type": "uint256"
        },
        {
          "internalType": "uint256",
          "name": "uniswapPrice",
          "type": "uint256"
        },
        {
          "internalType": "uint256",
          "name": "sushiswapPrice",
          "type": "uint256"
        }
      ],
      "name": "calculateArbitrageProfitEstimate",
      "outputs": [
        {
          "internalType": "uint256",
          "name": "",
          "type": "uint256"
        }
      ],
      "stateMutability": "view",
      "type": "function"
    },
    {
      "inputs": [
        {
          "internalType": "address",
          "name": "token0",
          "type": "address"
        },
        {
          "internalType": "address",
          "name": "token1",
          "type": "address"
        },
        {
          "internalType": "uint256",
          "name": "amount",
          "type": "uint256"
        }
      ],
      "name": "executeArbitrage",
      "outputs": [],
      "stateMutability": "nonpayable",
      "type": "function"
    },
    {
      "inputs": [
        {
          "internalType": "address[]",
          "name": "path",
          "type": "address[]"
        },
        {
          "internalType": "uint256[]",
          "name": "amounts",
          "type": "uint256[]"
        }
      ],
      "name": "executeComplexArbitrage",
      "outputs": [],
      "stateMutability": "nonpayable",
      "type": "function"
    },
    {
      "inputs": [
        {
          "internalType": "address",
          "name": "baseToken",
          "type": "address"
        },
        {
          "internalType": "address[]",
          "name": "pairs",
          "type": "address[]"
        },
        {
          "internalType": "uint256",
          "name": "amount",
          "type": "uint256"
        },
        {
          "internalType": "uint256[]",
          "name": "prices",
          "type": "uint256[]"
        }
      ],
      "name": "executeMultiDexArbitrage",
      "outputs": [],
      "stateMutability": "nonpayable",
      "type": "function"
    },
    {
      "inputs": [
        {
          "internalType": "address[]",
          "name": "assets",
          "type": "address[]"
        },
        {
          "internalType": "uint256[]",
          "name": "amounts",
          "type": "uint256[]"
        },
        {
          "internalType": "uint256[]",
          "name": "premiums",
          "type": "uint256[]"
        },
        {
          "internalType": "address",
          "name": "initiator",
          "type": "address"
        },
        {
          "internalType": "bytes",
          "name": "params",
          "type": "bytes"
        }
      ],
      "name": "executeOperation",
      "outputs": [
        {
          "internalType": "bool",
          "name": "",
          "type": "bool"
        }
      ],
      "stateMutability": "nonpayable",
      "type": "function"
    },
    {
      "inputs": [
        {
          "internalType": "address",
          "name": "_asset",
          "type": "address"
        },
        {
          "internalType": "uint256",
          "name": "_amount",
          "type": "uint256"
        }
      ],
      "name": "flashloan",
      "outputs": [],
      "stateMutability": "nonpayable",
      "type": "function"
    },
    {
      "inputs": [],
      "name": "owner",
      "outputs": [
        {
          "internalType": "address",
          "name": "",
          "type": "address"
        }
      ],
      "stateMutability": "view",
      "type": "function"
    },
    {
      "inputs": [],
      "name": "renounceOwnership",
      "outputs": [],
      "stateMutability": "nonpayable",
      "type": "function"
    },
    {
      "inputs": [
        {
          "internalType": "uint256",
          "name": "threshold",
          "type": "uint256"
        }
      ],
      "name": "setMinimumProfitThreshold",
      "outputs": [],
      "stateMutability": "nonpayable",
      "type": "function"
    },
    {
      "inputs": [
        {
          "internalType": "bool",
          "name": "shouldFail",
          "type": "bool"
        }
      ],
      "name": "setSimulateFailure",
      "outputs": [],
      "stateMutability": "nonpayable",
      "type": "function"
    },
    {
      "inputs": [
        {
          "internalType": "address",
          "name": "newOwner",
          "type": "address"
        }
      ],
      "name": "transferOwnership",
      "outputs": [],
      "stateMutability": "nonpayable",
      "type": "function"
    },
    {
      "inputs": [
        {
          "internalType": "address",
          "name": "_assetAddress",
          "type": "address"
        }
      ],
      "name": "withdraw",
      "outputs": [],
      "stateMutability": "nonpayable",
      "type": "function"
    },
    {
      "stateMutability": "payable",
      "type": "receive"
    }
  ],
  "bytecode": "0x61010060405234801561001157600080fd5b5060405161303d38038061303d83398181016040528101906100339190610325565b33838073ffffffffffffffffffffffffffffffffffffffff1660808173ffffffffffffffffffffffffffffffffffffffff16815250508073ffffffffffffffffffffffffffffffffffffffff16630261bf8b6040518163ffffffff1660e01b8152600401602060405180830381865afa1580156100b4573d6000803e3d6000fd5b505050506040513d601f19601f820116820180604052508101906100d89190610378565b73ffffffffffffffffffffffffffffffffffffffff1660a08173ffffffffffffffffffffffffffffffffffffffff168152505050600073ffffffffffffffffffffffffffffffffffffffff168173ffffffffffffffffffffffffffffffffffffffff160361017e5760006040517f1e4fbdf700000000000000000000000000000000000000000000000000000000815260040161017591906103b4565b60405180910390fd5b61018d816101fe60201b60201c565b508173ffffffffffffffffffffffffffffffffffffffff1660c08173ffffffffffffffffffffffffffffffffffffffff16815250508073ffffffffffffffffffffffffffffffffffffffff1660e08173ffffffffffffffffffffffffffffffffffffffff16815250505050506103cf565b60008060009054906101000a900473ffffffffffffffffffffffffffffffffffffffff169050816000806101000a81548173ffffffffffffffffffffffffffffffffffffffff021916908373ffffffffffffffffffffffffffffffffffffffff1602179055508173ffffffffffffffffffffffffffffffffffffffff168173ffffffffffffffffffffffffffffffffffffffff167f8be0079c531659141344cd1fd0a4f28419497f9722a3daafe3b4186f6b6457e060405160405180910390a35050565b600080fd5b600073ffffffffffffffffffffffffffffffffffffffff82169050919050565b60006102f2826102c7565b9050919050565b610302816102e7565b811461030d57600080fd5b50565b60008151905061031f816102f9565b92915050565b60008060006060848603121561033e5761033d6102c2565b5b600061034c86828701610310565b935050602061035d86828701610310565b925050604061036e86828701610310565b9150509250925092565b60006020828403121561038e5761038d6102c2565b5b600061039c84828501610310565b91505092915050565b6103ae816102e7565b82525050565b60006020820190506103c960008301846103a5565b92915050565b60805160a05160c05160e051612c046104396000396000818161136b015281816113a1015261152901526000818161133d015281816113cf01526114f9015260008181610af901528181610cf501528181610d8f01526111f4015260006103490152612c046000f3fe6080604052600436106100e15760003560e01c8063715018a61161007f578063920f5c8411610059578063920f5c841461028d578063b4dcfc77146102ca578063e1ab1b13146102f5578063f2fde38b1461031e576100e8565b8063715018a6146102225780638da5cb5b146102395780638e5f5f5714610264576100e8565b806351cff8d9116100bb57806351cff8d91461017e578063650f84be146101a75780636b2eb2f9146101d057806370963235146101f9576100e8565b80630542975c146100ed57806308739f50146101185780632fa2093514610141576100e8565b366100e857005b600080fd5b3480156100f957600080fd5b50610102610347565b60405161010f9190611a8c565b60405180910390f35b34801561012457600080fd5b5061013f600480360381019061013a9190611bea565b61036b565b005b34801561014d57600080fd5b5061016860048036038101906101639190611c91565b61046e565b6040516101759190611cf3565b60405180910390f35b34801561018a57600080fd5b506101a560048036038101906101a09190611d0e565b6104d6565b005b3480156101b357600080fd5b506101ce60048036038101906101c99190611d3b565b610690565b005b3480156101dc57600080fd5b506101f760048036038101906101f29190611dc6565b6107b9565b005b34801561020557600080fd5b50610220600480360381019061021b9190611df3565b6107de565b005b34801561022e57600080fd5b5061023761093b565b005b34801561024557600080fd5b5061024e61094f565b60405161025b9190611e83565b60405180910390f35b34801561027057600080fd5b5061028b60048036038101906102869190611e9e565b610978565b005b34801561029957600080fd5b506102b460048036038101906102af9190611f34565b610af5565b6040516102c1919061203f565b60405180910390f35b3480156102d657600080fd5b506102df610d8d565b6040516102ec919061207b565b60405180910390f35b34801561030157600080fd5b5061031c60048036038101906103179190612096565b610db1565b005b34801561032a57600080fd5b5061034560048036038101906103409190611d0e565b610dc3565b005b7f000000000000000000000000000000000000000000000000000000000000000081565b610373610e49565b60008585905011801561038b57508484905082829050145b6103ca576040517f08c379a00000000000000000000000000000000000000000000000000000000081526004016103c190612120565b60405180910390fd5b600154831161040e576040517f08c379a00000000000000000000000000000000000000000000000000000000081526004016104059061218c565b60405180910390fd5b600085856000818110610424576104236121ac565b5b90506020020160208101906104399190611d0e565b6040516020016104499190611e83565b6040516020818303038152906040529050610465878583610ed0565b50505050505050565b60008084148061047e5750600083145b806104895750600082145b1561049757600090506104cf565b6000828411156104b3576104ac858585610fee565b90506104ca565b838311156104c9576104c6858486610fee565b90505b5b809150505b9392505050565b6104de610e49565b60008073ffffffffffffffffffffffffffffffffffffffff168273ffffffffffffffffffffffffffffffffffffffff160361057f5760003090508073ffffffffffffffffffffffffffffffffffffffff163191503373ffffffffffffffffffffffffffffffffffffffff166108fc839081150290604051600060405180830381858888f19350505050158015610578573d6000803e3d6000fd5b5050610627565b8173ffffffffffffffffffffffffffffffffffffffff166370a08231306040518263ffffffff1660e01b81526004016105b89190611e83565b602060405180830381865afa1580156105d5573d6000803e3d6000fd5b505050506040513d601f19601f820116820180604052508101906105f991906121f0565b905061062633828473ffffffffffffffffffffffffffffffffffffffff1661101b9092919063ffffffff16565b5b8173ffffffffffffffffffffffffffffffffffffffff163373ffffffffffffffffffffffffffffffffffffffff167f9207361cc2a04b9c7a06691df1eb87c6a63957ae88bf01d0d18c81e3d1272099836040516106849190611cf3565b60405180910390a35050565b610698610e49565b600081116106db576040517f08c379a00000000000000000000000000000000000000000000000000000000081526004016106d290612120565b60405180910390fd5b600073ffffffffffffffffffffffffffffffffffffffff168373ffffffffffffffffffffffffffffffffffffffff16141580156107455750600073ffffffffffffffffffffffffffffffffffffffff168273ffffffffffffffffffffffffffffffffffffffff1614155b610784576040517f08c379a000000000000000000000000000000000000000000000000000000000815260040161077b90612269565b60405180910390fd5b6000826040516020016107979190611e83565b60405160208183030381529060405290506107b3848383610ed0565b50505050565b6107c1610e49565b80600260006101000a81548160ff02191690831515021790555050565b6107e6610e49565b6001848490501180156107fe57508383905082829050145b61083d576040517f08c379a000000000000000000000000000000000000000000000000000000000815260040161083490612120565b60405180910390fd5b60015482826000818110610854576108536121ac565b5b905060200201351161089b576040517f08c379a00000000000000000000000000000000000000000000000000000000081526004016108929061218c565b60405180910390fd5b6000848460018181106108b1576108b06121ac565b5b90506020020160208101906108c69190611d0e565b6040516020016108d69190611e83565b6040516020818303038152906040529050610934858560008181106108fe576108fd6121ac565b5b90506020020160208101906109139190611d0e565b84846000818110610927576109266121ac565b5b9050602002013583610ed0565b5050505050565b610943610e49565b61094d600061109a565b565b60008060009054906101000a900473ffffffffffffffffffffffffffffffffffffffff16905090565b610980610e49565b600081116109c3576040517f08c379a00000000000000000000000000000000000000000000000000000000081526004016109ba906122d5565b60405180910390fd5b6000600167ffffffffffffffff8111156109e0576109df6122f5565b5b604051908082528060200260200182016040528015610a0e5781602001602082028036833780820191505090505b5090508281600081518110610a2657610a256121ac565b5b602002602001019073ffffffffffffffffffffffffffffffffffffffff16908173ffffffffffffffffffffffffffffffffffffffff16815250506000600167ffffffffffffffff811115610a7d57610a7c6122f5565b5b604051908082528060200260200182016040528015610aab5781602001602082028036833780820191505090505b5090508281600081518110610ac357610ac26121ac565b5b6020026020010181815250506000604051806020016040528060008152509050610aee83838361115e565b5050505050565b60007f000000000000000000000000000000000000000000000000000000000000000073ffffffffffffffffffffffffffffffffffffffff163373ffffffffffffffffffffffffffffffffffffffff1614610b85576040517f08c379a0000000000000000000000000000000000000000000000000000000008152600401610b7c90612370565b60405180910390fd5b600260009054906101000a900460ff1615610bd5576040517f08c379a0000000000000000000000000000000000000000000000000000000008152600401610bcc906123dc565b60405180910390fd5b60008a8a6000818110610beb57610bea6121ac565b5b9050602002016020810190610c009190611d0e565b9050600089896000818110610c1857610c176121ac565b5b905060200201359050600088886000818110610c3757610c366121ac565b5b90506020020135905060008686810190610c51919061243a565b90506000610c60858584611292565b90508173ffffffffffffffffffffffffffffffffffffffff168573ffffffffffffffffffffffffffffffffffffffff167f546205492ce144edebd2cc39035c50dbd9aebfec90cbcae9c9ae2914d1e130f783604051610cbf9190611cf3565b60405180910390a360008385610cd59190612496565b90508573ffffffffffffffffffffffffffffffffffffffff1663095ea7b37f0000000000000000000000000000000000000000000000000000000000000000836040518363ffffffff1660e01b8152600401610d329291906124ca565b6020604051808303816000875af1158015610d51573d6000803e3d6000fd5b505050506040513d601f19601f82011682018060405250810190610d759190612508565b50600196505050505050509998505050505050505050565b7f000000000000000000000000000000000000000000000000000000000000000081565b610db9610e49565b8060018190555050565b610dcb610e49565b600073ffffffffffffffffffffffffffffffffffffffff168173ffffffffffffffffffffffffffffffffffffffff1603610e3d5760006040517f1e4fbdf7000000000000000000000000000000000000000000000000000000008152600401610e349190611e83565b60405180910390fd5b610e468161109a565b50565b610e51611447565b73ffffffffffffffffffffffffffffffffffffffff16610e6f61094f565b73ffffffffffffffffffffffffffffffffffffffff1614610ece57610e92611447565b6040517f118cdaa7000000000000000000000000000000000000000000000000000000008152600401610ec59190611e83565b60405180910390fd5b565b6000600167ffffffffffffffff811115610eed57610eec6122f5565b5b604051908082528060200260200182016040528015610f1b5781602001602082028036833780820191505090505b5090508381600081518110610f3357610f326121ac565b5b602002602001019073ffffffffffffffffffffffffffffffffffffffff16908173ffffffffffffffffffffffffffffffffffffffff16815250506000600167ffffffffffffffff811115610f8a57610f896122f5565b5b604051908082528060200260200182016040528015610fb85781602001602082028036833780820191505090505b5090508381600081518110610fd057610fcf6121ac565b5b602002602001018181525050610fe782828561115e565b5050505050565b600082848385610ffe9190612535565b6110089190612569565b61101291906125da565b90509392505050565b611095838473ffffffffffffffffffffffffffffffffffffffff1663a9059cbb858560405160240161104e9291906124ca565b604051602081830303815290604052915060e01b6020820180517bffffffffffffffffffffffffffffffffffffffffffffffffffffffff838183161783525050505061144f565b505050565b60008060009054906101000a900473ffffffffffffffffffffffffffffffffffffffff169050816000806101000a81548173ffffffffffffffffffffffffffffffffffffffff021916908373ffffffffffffffffffffffffffffffffffffffff1602179055508173ffffffffffffffffffffffffffffffffffffffff168173ffffffffffffffffffffffffffffffffffffffff167f8be0079c531659141344cd1fd0a4f28419497f9722a3daafe3b4186f6b6457e060405160405180910390a35050565b60003090506000309050600080865167ffffffffffffffff811115611186576111856122f5565b5b6040519080825280602002602001820160405280156111b45781602001602082028036833780820191505090505b50905060005b87518110156111f15760008282815181106111d8576111d76121ac565b5b60200260200101818152505080806001019150506111ba565b507f000000000000000000000000000000000000000000000000000000000000000073ffffffffffffffffffffffffffffffffffffffff1663ab9c4b5d85898985888b896040518863ffffffff1660e01b81526004016112579796959493929190612834565b600060405180830381600087803b15801561127157600080fd5b505af1158015611285573d6000803e3d6000fd5b5050505050505050505050565b6000806112a08486856114f1565b90506002808111156112b5576112b46128bf565b5b8160028111156112c8576112c76128bf565b5b03611308576040517f08c379a00000000000000000000000000000000000000000000000000000000081526004016112ff90612960565b60405180910390fd5b600080600281111561131d5761131c6128bf565b5b8260028111156113305761132f6128bf565b5b03611399576000611363867f000000000000000000000000000000000000000000000000000000000000000089886115ad565b9050611391817f0000000000000000000000000000000000000000000000000000000000000000878a6115ad565b9150506113f9565b60006113c7867f000000000000000000000000000000000000000000000000000000000000000089886115ad565b90506113f5817f0000000000000000000000000000000000000000000000000000000000000000878a6115ad565b9150505b84811161143b576040517f08c379a0000000000000000000000000000000000000000000000000000000008152600401611432906129cc565b60405180910390fd5b80925050509392505050565b600033905090565b600080602060008451602086016000885af180611472576040513d6000823e3d81fd5b3d92506000519150506000821461148d5760018114156114a9565b60008473ffffffffffffffffffffffffffffffffffffffff163b145b156114eb57836040517f5274afe70000000000000000000000000000000000000000000000000000000081526004016114e29190611e83565b60405180910390fd5b50505050565b6000806115207f00000000000000000000000000000000000000000000000000000000000000008585886117ff565b905060006115507f00000000000000000000000000000000000000000000000000000000000000008686896117ff565b90508082111561157a57611565868383611999565b15611575576000925050506115a6565b61159f565b8181111561159e5761158d868284611999565b1561159d576001925050506115a6565b5b5b6002925050505b9392505050565b60008273ffffffffffffffffffffffffffffffffffffffff1663095ea7b385876040518363ffffffff1660e01b81526004016115ea9291906124ca565b6020604051808303816000875af1158015611609573d6000803e3d6000fd5b505050506040513d601f19601f8201168201806040525081019061162d9190612508565b5060006064605f6116408787878b6117ff565b61164a9190612569565b61165491906125da565b90506000600267ffffffffffffffff811115611673576116726122f5565b5b6040519080825280602002602001820160405280156116a15781602001602082028036833780820191505090505b50905084816000815181106116b9576116b86121ac565b5b602002602001019073ffffffffffffffffffffffffffffffffffffffff16908173ffffffffffffffffffffffffffffffffffffffff16815250508381600181518110611708576117076121ac565b5b602002602001019073ffffffffffffffffffffffffffffffffffffffff16908173ffffffffffffffffffffffffffffffffffffffff16815250508573ffffffffffffffffffffffffffffffffffffffff166338ed17398884843061012c426117709190612496565b6040518663ffffffff1660e01b81526004016117909594939291906129ec565b6000604051808303816000875af11580156117af573d6000803e3d6000fd5b505050506040513d6000823e3d601f19601f820116820180604052508101906117d89190612b55565b6001815181106117eb576117ea6121ac565b5b602002602001015192505050949350505050565b600080600267ffffffffffffffff81111561181d5761181c6122f5565b5b60405190808252806020026020018201604052801561184b5781602001602082028036833780820191505090505b5090508481600081518110611863576118626121ac565b5b602002602001019073ffffffffffffffffffffffffffffffffffffffff16908173ffffffffffffffffffffffffffffffffffffffff168152505083816001815181106118b2576118b16121ac565b5b602002602001019073ffffffffffffffffffffffffffffffffffffffff16908173ffffffffffffffffffffffffffffffffffffffff168152505060008673ffffffffffffffffffffffffffffffffffffffff1663d06ca61f85846040518363ffffffff1660e01b8152600401611929929190612b9e565b600060405180830381865afa158015611946573d6000803e3d6000fd5b505050506040513d6000823e3d601f19601f8201168201806040525081019061196f9190612b55565b905080600181518110611985576119846121ac565b5b602002602001015192505050949350505050565b60008083670de0b6b3a764000084866119b29190612535565b6119bc9190612569565b6119c691906125da565b905060006103e86003876119da9190612569565b60026119e69190612569565b6119f091906125da565b90508082118015611a02575060015482115b925050509392505050565b600073ffffffffffffffffffffffffffffffffffffffff82169050919050565b6000819050919050565b6000611a52611a4d611a4884611a0d565b611a2d565b611a0d565b9050919050565b6000611a6482611a37565b9050919050565b6000611a7682611a59565b9050919050565b611a8681611a6b565b82525050565b6000602082019050611aa16000830184611a7d565b92915050565b6000604051905090565b600080fd5b600080fd5b6000611ac682611a0d565b9050919050565b611ad681611abb565b8114611ae157600080fd5b50565b600081359050611af381611acd565b92915050565b600080fd5b600080fd5b600080fd5b60008083601f840112611b1e57611b1d611af9565b5b8235905067ffffffffffffffff811115611b3b57611b3a611afe565b5b602083019150836020820283011115611b5757611b56611b03565b5b9250929050565b6000819050919050565b611b7181611b5e565b8114611b7c57600080fd5b50565b600081359050611b8e81611b68565b92915050565b60008083601f840112611baa57611ba9611af9565b5b8235905067ffffffffffffffff811115611bc757611bc6611afe565b5b602083019150836020820283011115611be357611be2611b03565b5b9250929050565b60008060008060008060808789031215611c0757611c06611ab1565b5b6000611c1589828a01611ae4565b965050602087013567ffffffffffffffff811115611c3657611c35611ab6565b5b611c4289828a01611b08565b95509550506040611c5589828a01611b7f565b935050606087013567ffffffffffffffff811115611c7657611c75611ab6565b5b611c8289828a01611b94565b92509250509295509295509295565b600080600060608486031215611caa57611ca9611ab1565b5b6000611cb886828701611b7f565b9350506020611cc986828701611b7f565b9250506040611cda86828701611b7f565b9150509250925092565b611ced81611b5e565b82525050565b6000602082019050611d086000830184611ce4565b92915050565b600060208284031215611d2457611d23611ab1565b5b6000611d3284828501611ae4565b91505092915050565b600080600060608486031215611d5457611d53611ab1565b5b6000611d6286828701611ae4565b9350506020611d7386828701611ae4565b9250506040611d8486828701611b7f565b9150509250925092565b60008115159050919050565b611da381611d8e565b8114611dae57600080fd5b50565b600081359050611dc081611d9a565b92915050565b600060208284031215611ddc57611ddb611ab1565b5b6000611dea84828501611db1565b91505092915050565b60008060008060408587031215611e0d57611e0c611ab1565b5b600085013567ffffffffffffffff811115611e2b57611e2a611ab6565b5b611e3787828801611b08565b9450945050602085013567ffffffffffffffff811115611e5a57611e59611ab6565b5b611e6687828801611b94565b925092505092959194509250565b611e7d81611abb565b82525050565b6000602082019050611e986000830184611e74565b92915050565b60008060408385031215611eb557611eb4611ab1565b5b6000611ec385828601611ae4565b9250506020611ed485828601611b7f565b9150509250929050565b60008083601f840112611ef457611ef3611af9565b5b8235905067ffffffffffffffff811115611f1157611f10611afe565b5b602083019150836001820283011115611f2d57611f2c611b03565b5b9250929050565b600080600080600080600080600060a08a8c031215611f5657611f55611ab1565b5b60008a013567ffffffffffffffff811115611f7457611f73611ab6565b5b611f808c828d01611b08565b995099505060208a013567ffffffffffffffff811115611fa357611fa2611ab6565b5b611faf8c828d01611b94565b975097505060408a013567ffffffffffffffff811115611fd257611fd1611ab6565b5b611fde8c828d01611b94565b95509550506060611ff18c828d01611ae4565b93505060808a013567ffffffffffffffff81111561201257612011611ab6565b5b61201e8c828d01611ede565b92509250509295985092959850929598565b61203981611d8e565b82525050565b60006020820190506120546000830184612030565b92915050565b600061206582611a59565b9050919050565b6120758161205a565b82525050565b6000602082019050612090600083018461206c565b92915050565b6000602082840312156120ac576120ab611ab1565b5b60006120ba84828501611b7f565b91505092915050565b600082825260208201905092915050565b7f496e76616c696420706172616d65746572730000000000000000000000000000600082015250565b600061210a6012836120c3565b9150612115826120d4565b602082019050919050565b60006020820190508181036000830152612139816120fd565b9050919050565b7f416d6f756e742062656c6f77207468726573686f6c6400000000000000000000600082015250565b60006121766016836120c3565b915061218182612140565b602082019050919050565b600060208201905081810360008301526121a581612169565b9050919050565b7f4e487b7100000000000000000000000000000000000000000000000000000000600052603260045260246000fd5b6000815190506121ea81611b68565b92915050565b60006020828403121561220657612205611ab1565b5b6000612214848285016121db565b91505092915050565b7f496e76616c696420746f6b656e20616464726573736573000000000000000000600082015250565b60006122536017836120c3565b915061225e8261221d565b602082019050919050565b6000602082019050818103600083015261228281612246565b9050919050565b7f416d6f756e74206d7573742062652067726561746572207468616e2030000000600082015250565b60006122bf601d836120c3565b91506122ca82612289565b602082019050919050565b600060208201905081810360008301526122ee816122b2565b9050919050565b7f4e487b7100000000000000000000000000000000000000000000000000000000600052604160045260246000fd5b7f43616c6c6572206d757374206265206c656e64696e6720706f6f6c0000000000600082015250565b600061235a601b836120c3565b915061236582612324565b602082019050919050565b600060208201905081810360008301526123898161234d565b9050919050565b7f41726269747261676520657865637574696f6e206661696c6564000000000000600082015250565b60006123c6601a836120c3565b91506123d182612390565b602082019050919050565b600060208201905081810360008301526123f5816123b9565b9050919050565b600061240782611a0d565b9050919050565b612417816123fc565b811461242257600080fd5b50565b6000813590506124348161240e565b92915050565b6000602082840312156124505761244f611ab1565b5b600061245e84828501612425565b91505092915050565b7f4e487b7100000000000000000000000000000000000000000000000000000000600052601160045260246000fd5b60006124a182611b5e565b91506124ac83611b5e565b92508282019050808211156124c4576124c3612467565b5b92915050565b60006040820190506124df6000830185611e74565b6124ec6020830184611ce4565b9392505050565b60008151905061250281611d9a565b92915050565b60006020828403121561251e5761251d611ab1565b5b600061252c848285016124f3565b91505092915050565b600061254082611b5e565b915061254b83611b5e565b925082820390508181111561256357612562612467565b5b92915050565b600061257482611b5e565b915061257f83611b5e565b925082820261258d81611b5e565b915082820484148315176125a4576125a3612467565b5b5092915050565b7f4e487b7100000000000000000000000000000000000000000000000000000000600052601260045260246000fd5b60006125e582611b5e565b91506125f083611b5e565b925082612600576125ff6125ab565b5b828204905092915050565b600081519050919050565b600082825260208201905092915050565b6000819050602082019050919050565b61264081611abb565b82525050565b60006126528383612637565b60208301905092915050565b6000602082019050919050565b60006126768261260b565b6126808185612616565b935061268b83612627565b8060005b838110156126bc5781516126a38882612646565b97506126ae8361265e565b92505060018101905061268f565b5085935050505092915050565b600081519050919050565b600082825260208201905092915050565b6000819050602082019050919050565b6126fe81611b5e565b82525050565b600061271083836126f5565b60208301905092915050565b6000602082019050919050565b6000612734826126c9565b61273e81856126d4565b9350612749836126e5565b8060005b8381101561277a5781516127618882612704565b975061276c8361271c565b92505060018101905061274d565b5085935050505092915050565b600081519050919050565b600082825260208201905092915050565b60005b838110156127c15780820151818401526020810190506127a6565b60008484015250505050565b6000601f19601f8301169050919050565b60006127e982612787565b6127f38185612792565b93506128038185602086016127a3565b61280c816127cd565b840191505092915050565b600061ffff82169050919050565b61282e81612817565b82525050565b600060e082019050612849600083018a611e74565b818103602083015261285b818961266b565b9050818103604083015261286f8188612729565b905081810360608301526128838187612729565b90506128926080830186611e74565b81810360a08301526128a481856127de565b90506128b360c0830184612825565b98975050505050505050565b7f4e487b7100000000000000000000000000000000000000000000000000000000600052602160045260246000fd5b7f4e6f2070726f66697461626c6520617262697472616765206f70706f7274756e60008201527f6974790000000000000000000000000000000000000000000000000000000000602082015250565b600061294a6023836120c3565b9150612955826128ee565b604082019050919050565b600060208201905081810360008301526129798161293d565b9050919050565b7f496e73756666696369656e742070726f66697400000000000000000000000000600082015250565b60006129b66013836120c3565b91506129c182612980565b602082019050919050565b600060208201905081810360008301526129e5816129a9565b9050919050565b600060a082019050612a016000830188611ce4565b612a0e6020830187611ce4565b8181036040830152612a20818661266b565b9050612a2f6060830185611e74565b612a3c6080830184611ce4565b9695505050505050565b612a4f826127cd565b810181811067ffffffffffffffff82111715612a6e57612a6d6122f5565b5b80604052505050565b6000612a81611aa7565b9050612a8d8282612a46565b919050565b600067ffffffffffffffff821115612aad57612aac6122f5565b5b602082029050602081019050919050565b6000612ad1612acc84612a92565b612a77565b90508083825260208201905060208402830185811115612af457612af3611b03565b5b835b81811015612b1d5780612b0988826121db565b845260208401935050602081019050612af6565b5050509392505050565b600082601f830112612b3c57612b3b611af9565b5b8151612b4c848260208601612abe565b91505092915050565b600060208284031215612b6b57612b6a611ab1565b5b600082015167ffffffffffffffff811115612b8957612b88611ab6565b5b612b9584828501612b27565b91505092915050565b6000604082019050612bb36000830185611ce4565b8181036020830152612bc5818461266b565b9050939250505056fea2646970667358221220c9a58a39cfa993cdf98bebb64701e39144cc317b4df7349b6839e4ff0fc7ca7364736f6c634300081c0033",
  "linkReferences": {},
  "deployedLinkReferences": {}
}