{
  "_format": "hh-sol-artifact-1",
  "contractName": "FlashloanArbitrage",
  "sourceName": "contracts/flashloan/FlashloanArbitrage.sol",
  "abi": [
    {
      "inputs": [
        {
          "internalType": "address",
          "name": "_addressProvider",
          "type": "address"
        },
        {
          "internalType": "address",
          "name": "_uniswapRouterAddress",
          "type": "address"
        },
        {
          "internalType": "address",
          "name": "_sushiswapRouterAddress",
          "type": "address"
        }
      ],
      "stateMutability": "nonpayable",
      "type": "constructor"
    },
    {
      "inputs": [
        {
          "internalType": "address",
          "name": "owner",
          "type": "address"
        }
      ],
      "name": "OwnableInvalidOwner",
      "type": "error"
    },
    {
      "inputs": [
        {
          "internalType": "address",
          "name": "account",
          "type": "address"
        }
      ],
      "name": "OwnableUnauthorizedAccount",
      "type": "error"
    },
    {
      "inputs": [
        {
          "internalType": "address",
          "name": "token",
          "type": "address"
        }
      ],
      "name": "SafeERC20FailedOperation",
      "type": "error"
    },
    {
      "anonymous": false,
      "inputs": [
        {
          "indexed": true,
          "internalType": "address",
          "name": "token0",
          "type": "address"
        },
        {
          "indexed": true,
          "internalType": "address",
          "name": "token1",
          "type": "address"
        },
        {
          "indexed": false,
          "internalType": "uint256",
          "name": "profit",
          "type": "uint256"
        }
      ],
      "name": "ArbitrageExecuted",
      "type": "event"
    },
    {
      "anonymous": false,
      "inputs": [
        {
          "indexed": true,
          "internalType": "address",
          "name": "_from",
          "type": "address"
        },
        {
          "indexed": true,
          "internalType": "address",
          "name": "_assetAddress",
          "type": "address"
        },
        {
          "indexed": false,
          "internalType": "uint256",
          "name": "amount",
          "type": "uint256"
        }
      ],
      "name": "LogWithdraw",
      "type": "event"
    },
    {
      "anonymous": false,
      "inputs": [
        {
          "indexed": true,
          "internalType": "address",
          "name": "previousOwner",
          "type": "address"
        },
        {
          "indexed": true,
          "internalType": "address",
          "name": "newOwner",
          "type": "address"
        }
      ],
      "name": "OwnershipTransferred",
      "type": "event"
    },
    {
      "inputs": [],
      "name": "ADDRESSES_PROVIDER",
      "outputs": [
        {
          "internalType": "contract ILendingPoolAddressesProviderV2",
          "name": "",
          "type": "address"
        }
      ],
      "stateMutability": "view",
      "type": "function"
    },
    {
      "inputs": [],
      "name": "LENDING_POOL",
      "outputs": [
        {
          "internalType": "contract ILendingPoolV2",
          "name": "",
          "type": "address"
        }
      ],
      "stateMutability": "view",
      "type": "function"
    },
    {
      "inputs": [
        {
          "internalType": "address",
          "name": "token0",
          "type": "address"
        },
        {
          "internalType": "address",
          "name": "token1",
          "type": "address"
        },
        {
          "internalType": "uint256",
          "name": "amount",
          "type": "uint256"
        }
      ],
      "name": "calculateArbitrageProfitEstimate",
      "outputs": [
        {
          "internalType": "uint256",
          "name": "",
          "type": "uint256"
        }
      ],
      "stateMutability": "view",
      "type": "function"
    },
    {
      "inputs": [
        {
          "internalType": "address",
          "name": "token0",
          "type": "address"
        },
        {
          "internalType": "address",
          "name": "token1",
          "type": "address"
        },
        {
          "internalType": "uint256",
          "name": "amount",
          "type": "uint256"
        }
      ],
      "name": "executeArbitrage",
      "outputs": [],
      "stateMutability": "nonpayable",
      "type": "function"
    },
    {
      "inputs": [
        {
          "internalType": "address[]",
          "name": "path",
          "type": "address[]"
        },
        {
          "internalType": "uint256[]",
          "name": "amounts",
          "type": "uint256[]"
        }
      ],
      "name": "executeComplexArbitrage",
      "outputs": [],
      "stateMutability": "nonpayable",
      "type": "function"
    },
    {
      "inputs": [
        {
          "internalType": "address",
          "name": "baseToken",
          "type": "address"
        },
        {
          "internalType": "address[]",
          "name": "pairs",
          "type": "address[]"
        },
        {
          "internalType": "uint256",
          "name": "amount",
          "type": "uint256"
        },
        {
          "internalType": "uint256[]",
          "name": "prices",
          "type": "uint256[]"
        }
      ],
      "name": "executeMultiDexArbitrage",
      "outputs": [],
      "stateMutability": "nonpayable",
      "type": "function"
    },
    {
      "inputs": [
        {
          "internalType": "address[]",
          "name": "assets",
          "type": "address[]"
        },
        {
          "internalType": "uint256[]",
          "name": "amounts",
          "type": "uint256[]"
        },
        {
          "internalType": "uint256[]",
          "name": "premiums",
          "type": "uint256[]"
        },
        {
          "internalType": "address",
          "name": "",
          "type": "address"
        },
        {
          "internalType": "bytes",
          "name": "params",
          "type": "bytes"
        }
      ],
      "name": "executeOperation",
      "outputs": [
        {
          "internalType": "bool",
          "name": "",
          "type": "bool"
        }
      ],
      "stateMutability": "nonpayable",
      "type": "function"
    },
    {
      "inputs": [
        {
          "internalType": "address",
          "name": "_asset",
          "type": "address"
        },
        {
          "internalType": "uint256",
          "name": "_amount",
          "type": "uint256"
        }
      ],
      "name": "flashloan",
      "outputs": [],
      "stateMutability": "nonpayable",
      "type": "function"
    },
    {
      "inputs": [
        {
          "internalType": "address",
          "name": "_borrowedAsset",
          "type": "address"
        },
        {
          "internalType": "uint256",
          "name": "_borrowedAmount",
          "type": "uint256"
        },
        {
          "internalType": "address",
          "name": "_swappingPair",
          "type": "address"
        }
      ],
      "name": "makeArbitrage",
      "outputs": [
        {
          "internalType": "uint256",
          "name": "",
          "type": "uint256"
        }
      ],
      "stateMutability": "nonpayable",
      "type": "function"
    },
    {
      "inputs": [],
      "name": "owner",
      "outputs": [
        {
          "internalType": "address",
          "name": "",
          "type": "address"
        }
      ],
      "stateMutability": "view",
      "type": "function"
    },
    {
      "inputs": [],
      "name": "renounceOwnership",
      "outputs": [],
      "stateMutability": "nonpayable",
      "type": "function"
    },
    {
      "inputs": [
        {
          "internalType": "uint256",
          "name": "threshold",
          "type": "uint256"
        }
      ],
      "name": "setMinimumProfitThreshold",
      "outputs": [],
      "stateMutability": "nonpayable",
      "type": "function"
    },
    {
      "inputs": [
        {
          "internalType": "bool",
          "name": "shouldFail",
          "type": "bool"
        }
      ],
      "name": "setSimulateFailure",
      "outputs": [],
      "stateMutability": "nonpayable",
      "type": "function"
    },
    {
      "inputs": [
        {
          "internalType": "address",
          "name": "newOwner",
          "type": "address"
        }
      ],
      "name": "transferOwnership",
      "outputs": [],
      "stateMutability": "nonpayable",
      "type": "function"
    },
    {
      "inputs": [
        {
          "internalType": "address",
          "name": "_assetAddress",
          "type": "address"
        }
      ],
      "name": "withdraw",
      "outputs": [],
      "stateMutability": "nonpayable",
      "type": "function"
    },
    {
      "stateMutability": "payable",
      "type": "receive"
    }
  ],
  "bytecode": "0x61010060405234801561001157600080fd5b5060405161342f38038061342f83398181016040528101906100339190610325565b33838073ffffffffffffffffffffffffffffffffffffffff1660808173ffffffffffffffffffffffffffffffffffffffff16815250508073ffffffffffffffffffffffffffffffffffffffff16630261bf8b6040518163ffffffff1660e01b8152600401602060405180830381865afa1580156100b4573d6000803e3d6000fd5b505050506040513d601f19601f820116820180604052508101906100d89190610378565b73ffffffffffffffffffffffffffffffffffffffff1660a08173ffffffffffffffffffffffffffffffffffffffff168152505050600073ffffffffffffffffffffffffffffffffffffffff168173ffffffffffffffffffffffffffffffffffffffff160361017e5760006040517f1e4fbdf700000000000000000000000000000000000000000000000000000000815260040161017591906103b4565b60405180910390fd5b61018d816101fe60201b60201c565b508173ffffffffffffffffffffffffffffffffffffffff1660c08173ffffffffffffffffffffffffffffffffffffffff16815250508073ffffffffffffffffffffffffffffffffffffffff1660e08173ffffffffffffffffffffffffffffffffffffffff16815250505050506103cf565b60008060009054906101000a900473ffffffffffffffffffffffffffffffffffffffff169050816000806101000a81548173ffffffffffffffffffffffffffffffffffffffff021916908373ffffffffffffffffffffffffffffffffffffffff1602179055508173ffffffffffffffffffffffffffffffffffffffff168173ffffffffffffffffffffffffffffffffffffffff167f8be0079c531659141344cd1fd0a4f28419497f9722a3daafe3b4186f6b6457e060405160405180910390a35050565b600080fd5b600073ffffffffffffffffffffffffffffffffffffffff82169050919050565b60006102f2826102c7565b9050919050565b610302816102e7565b811461030d57600080fd5b50565b60008151905061031f816102f9565b92915050565b60008060006060848603121561033e5761033d6102c2565b5b600061034c86828701610310565b935050602061035d86828701610310565b925050604061036e86828701610310565b9150509250925092565b60006020828403121561038e5761038d6102c2565b5b600061039c84828501610310565b91505092915050565b6103ae816102e7565b82525050565b60006020820190506103c960008301846103a5565b92915050565b60805160a05160c05160e051612fe161044e60003960008181610872015281816108a8015281816111950152611505015260008181610844015281816108d60152818161116501526114d5015260008181610c8e01528181610e4a01528181610ee9015281816110bb01526119b4015260006103910152612fe16000f3fe6080604052600436106100ec5760003560e01c8063715018a61161008a578063b4dcfc7711610059578063b4dcfc77146102d5578063d2202b8914610300578063e1ab1b131461033d578063f2fde38b14610366576100f3565b8063715018a61461022d5780638da5cb5b146102445780638e5f5f571461026f578063920f5c8414610298576100f3565b8063650f84be116100c6578063650f84be1461017557806366ce2d2d1461019e5780636b2eb2f9146101db5780637096323514610204576100f3565b80630542975c146100f857806308739f501461012357806351cff8d91461014c576100f3565b366100f357005b600080fd5b34801561010457600080fd5b5061010d61038f565b60405161011a9190611dce565b60405180910390f35b34801561012f57600080fd5b5061014a60048036038101906101459190611f2c565b6103b3565b005b34801561015857600080fd5b50610173600480360381019061016e9190611fd3565b6104b6565b005b34801561018157600080fd5b5061019c60048036038101906101979190612000565b610670565b005b3480156101aa57600080fd5b506101c560048036038101906101c09190612053565b610799565b6040516101d291906120b5565b60405180910390f35b3480156101e757600080fd5b5061020260048036038101906101fd9190612108565b61094e565b005b34801561021057600080fd5b5061022b60048036038101906102269190612135565b610973565b005b34801561023957600080fd5b50610242610ad0565b005b34801561025057600080fd5b50610259610ae4565b60405161026691906121c5565b60405180910390f35b34801561027b57600080fd5b50610296600480360381019061029191906121e0565b610b0d565b005b3480156102a457600080fd5b506102bf60048036038101906102ba9190612276565b610c8a565b6040516102cc9190612381565b60405180910390f35b3480156102e157600080fd5b506102ea6110b9565b6040516102f791906123bd565b60405180910390f35b34801561030c57600080fd5b5061032760048036038101906103229190612000565b6110dd565b60405161033491906120b5565b60405180910390f35b34801561034957600080fd5b50610364600480360381019061035f91906123d8565b611211565b005b34801561037257600080fd5b5061038d60048036038101906103889190611fd3565b611223565b005b7f000000000000000000000000000000000000000000000000000000000000000081565b6103bb6112a9565b6000858590501180156103d357508484905082829050145b610412576040517f08c379a000000000000000000000000000000000000000000000000000000000815260040161040990612462565b60405180910390fd5b6001548311610456576040517f08c379a000000000000000000000000000000000000000000000000000000000815260040161044d906124ce565b60405180910390fd5b60008585600081811061046c5761046b6124ee565b5b90506020020160208101906104819190611fd3565b60405160200161049191906121c5565b60405160208183030381529060405290506104ad878583611330565b50505050505050565b6104be6112a9565b60008073ffffffffffffffffffffffffffffffffffffffff168273ffffffffffffffffffffffffffffffffffffffff160361055f5760003090508073ffffffffffffffffffffffffffffffffffffffff163191503373ffffffffffffffffffffffffffffffffffffffff166108fc839081150290604051600060405180830381858888f19350505050158015610558573d6000803e3d6000fd5b5050610607565b8173ffffffffffffffffffffffffffffffffffffffff166370a08231306040518263ffffffff1660e01b815260040161059891906121c5565b602060405180830381865afa1580156105b5573d6000803e3d6000fd5b505050506040513d601f19601f820116820180604052508101906105d99190612532565b905061060633828473ffffffffffffffffffffffffffffffffffffffff1661144e9092919063ffffffff16565b5b8173ffffffffffffffffffffffffffffffffffffffff163373ffffffffffffffffffffffffffffffffffffffff167f9207361cc2a04b9c7a06691df1eb87c6a63957ae88bf01d0d18c81e3d12720998360405161066491906120b5565b60405180910390a35050565b6106786112a9565b600081116106bb576040517f08c379a00000000000000000000000000000000000000000000000000000000081526004016106b290612462565b60405180910390fd5b600073ffffffffffffffffffffffffffffffffffffffff168373ffffffffffffffffffffffffffffffffffffffff16141580156107255750600073ffffffffffffffffffffffffffffffffffffffff168273ffffffffffffffffffffffffffffffffffffffff1614155b610764576040517f08c379a000000000000000000000000000000000000000000000000000000000815260040161075b906125ab565b60405180910390fd5b60008260405160200161077791906121c5565b6040516020818303038152906040529050610793848383611330565b50505050565b6000806107a78486856114cd565b90506002808111156107bc576107bb6125cb565b5b8160028111156107cf576107ce6125cb565b5b0361080f576040517f08c379a00000000000000000000000000000000000000000000000000000000081526004016108069061266c565b60405180910390fd5b6000806002811115610824576108236125cb565b5b826002811115610837576108366125cb565b5b036108a057600061086a867f00000000000000000000000000000000000000000000000000000000000000008988611589565b9050610898817f0000000000000000000000000000000000000000000000000000000000000000878a611589565b915050610900565b60006108ce867f00000000000000000000000000000000000000000000000000000000000000008988611589565b90506108fc817f0000000000000000000000000000000000000000000000000000000000000000878a611589565b9150505b848111610942576040517f08c379a0000000000000000000000000000000000000000000000000000000008152600401610939906126d8565b60405180910390fd5b80925050509392505050565b6109566112a9565b80600260006101000a81548160ff02191690831515021790555050565b61097b6112a9565b60018484905011801561099357508383905082829050145b6109d2576040517f08c379a00000000000000000000000000000000000000000000000000000000081526004016109c990612462565b60405180910390fd5b600154828260008181106109e9576109e86124ee565b5b9050602002013511610a30576040517f08c379a0000000000000000000000000000000000000000000000000000000008152600401610a27906124ce565b60405180910390fd5b600084846001818110610a4657610a456124ee565b5b9050602002016020810190610a5b9190611fd3565b604051602001610a6b91906121c5565b6040516020818303038152906040529050610ac985856000818110610a9357610a926124ee565b5b9050602002016020810190610aa89190611fd3565b84846000818110610abc57610abb6124ee565b5b9050602002013583611330565b5050505050565b610ad86112a9565b610ae2600061185a565b565b60008060009054906101000a900473ffffffffffffffffffffffffffffffffffffffff16905090565b610b156112a9565b60008111610b58576040517f08c379a0000000000000000000000000000000000000000000000000000000008152600401610b4f90612744565b60405180910390fd5b6000600167ffffffffffffffff811115610b7557610b74612764565b5b604051908082528060200260200182016040528015610ba35781602001602082028036833780820191505090505b5090508281600081518110610bbb57610bba6124ee565b5b602002602001019073ffffffffffffffffffffffffffffffffffffffff16908173ffffffffffffffffffffffffffffffffffffffff16815250506000600167ffffffffffffffff811115610c1257610c11612764565b5b604051908082528060200260200182016040528015610c405781602001602082028036833780820191505090505b5090508281600081518110610c5857610c576124ee565b5b6020026020010181815250506000604051806020016040528060008152509050610c8383838361191e565b5050505050565b60007f000000000000000000000000000000000000000000000000000000000000000073ffffffffffffffffffffffffffffffffffffffff163373ffffffffffffffffffffffffffffffffffffffff1614610d1a576040517f08c379a0000000000000000000000000000000000000000000000000000000008152600401610d11906127df565b60405180910390fd5b60008a8a9050118015610d3257508989905088889050145b610d71576040517f08c379a0000000000000000000000000000000000000000000000000000000008152600401610d6890612462565b60405180910390fd5b600260009054906101000a900460ff1615610dc1576040517f08c379a0000000000000000000000000000000000000000000000000000000008152600401610db89061284b565b60405180910390fd5b60008a8a6000818110610dd757610dd66124ee565b5b9050602002016020810190610dec9190611fd3565b9050600089896000818110610e0457610e036124ee565b5b905060200201359050600088886000818110610e2357610e226124ee565b5b9050602002013590508273ffffffffffffffffffffffffffffffffffffffff1663095ea7b37f000000000000000000000000000000000000000000000000000000000000000060006040518363ffffffff1660e01b8152600401610e889291906128a6565b6020604051808303816000875af1925050508015610ec457506040513d601f19601f82011682018060405250810190610ec191906128e4565b60015b15610ecb57505b8273ffffffffffffffffffffffffffffffffffffffff1663095ea7b37f00000000000000000000000000000000000000000000000000000000000000008385610f149190612940565b6040518363ffffffff1660e01b8152600401610f31929190612974565b6020604051808303816000875af1158015610f50573d6000803e3d6000fd5b505050506040513d601f19601f82011682018060405250810190610f7491906128e4565b5060008686905011156110a55760008686810190610f9291906129db565b90503073ffffffffffffffffffffffffffffffffffffffff166366ce2d2d8585846040518463ffffffff1660e01b8152600401610fd193929190612a08565b6020604051808303816000875af192505050801561100d57506040513d601f19601f8201168201806040525081019061100a9190612532565b60015b156110a357828461101e9190612940565b8111156110a1578173ffffffffffffffffffffffffffffffffffffffff168573ffffffffffffffffffffffffffffffffffffffff167f546205492ce144edebd2cc39035c50dbd9aebfec90cbcae9c9ae2914d1e130f785876110809190612940565b8461108b9190612a3f565b60405161109891906120b5565b60405180910390a35b505b505b600193505050509998505050505050505050565b7f000000000000000000000000000000000000000000000000000000000000000081565b6000808214806111195750600073ffffffffffffffffffffffffffffffffffffffff168473ffffffffffffffffffffffffffffffffffffffff16145b806111505750600073ffffffffffffffffffffffffffffffffffffffff168373ffffffffffffffffffffffffffffffffffffffff16145b1561115e576000905061120a565b600061118c7f0000000000000000000000000000000000000000000000000000000000000000868686611a52565b905060006111bc7f0000000000000000000000000000000000000000000000000000000000000000878787611a52565b90506000821180156111ce5750600081115b15611203576111fa848284116111e457826111e6565b835b8385116111f357846111f5565b835b611c04565b9250505061120a565b6000925050505b9392505050565b6112196112a9565b8060018190555050565b61122b6112a9565b600073ffffffffffffffffffffffffffffffffffffffff168173ffffffffffffffffffffffffffffffffffffffff160361129d5760006040517f1e4fbdf700000000000000000000000000000000000000000000000000000000815260040161129491906121c5565b60405180910390fd5b6112a68161185a565b50565b6112b1611c31565b73ffffffffffffffffffffffffffffffffffffffff166112cf610ae4565b73ffffffffffffffffffffffffffffffffffffffff161461132e576112f2611c31565b6040517f118cdaa700000000000000000000000000000000000000000000000000000000815260040161132591906121c5565b60405180910390fd5b565b6000600167ffffffffffffffff81111561134d5761134c612764565b5b60405190808252806020026020018201604052801561137b5781602001602082028036833780820191505090505b5090508381600081518110611393576113926124ee565b5b602002602001019073ffffffffffffffffffffffffffffffffffffffff16908173ffffffffffffffffffffffffffffffffffffffff16815250506000600167ffffffffffffffff8111156113ea576113e9612764565b5b6040519080825280602002602001820160405280156114185781602001602082028036833780820191505090505b50905083816000815181106114305761142f6124ee565b5b60200260200101818152505061144782828561191e565b5050505050565b6114c8838473ffffffffffffffffffffffffffffffffffffffff1663a9059cbb8585604051602401611481929190612974565b604051602081830303815290604052915060e01b6020820180517bffffffffffffffffffffffffffffffffffffffffffffffffffffffff8381831617835250505050611c39565b505050565b6000806114fc7f0000000000000000000000000000000000000000000000000000000000000000858588611a52565b9050600061152c7f0000000000000000000000000000000000000000000000000000000000000000868689611a52565b90508082111561155657611541868383611cdb565b1561155157600092505050611582565b61157b565b8181111561157a57611569868284611cdb565b1561157957600192505050611582565b5b5b6002925050505b9392505050565b60008273ffffffffffffffffffffffffffffffffffffffff1663095ea7b38560006040518363ffffffff1660e01b81526004016115c79291906128a6565b6020604051808303816000875af192505050801561160357506040513d601f19601f8201168201806040525081019061160091906128e4565b60015b1561160a57505b8273ffffffffffffffffffffffffffffffffffffffff1663095ea7b385876040518363ffffffff1660e01b8152600401611645929190612974565b6020604051808303816000875af1158015611664573d6000803e3d6000fd5b505050506040513d601f19601f8201168201806040525081019061168891906128e4565b5060006064605f61169b8787878b611a52565b6116a59190612a73565b6116af9190612ae4565b90506000600267ffffffffffffffff8111156116ce576116cd612764565b5b6040519080825280602002602001820160405280156116fc5781602001602082028036833780820191505090505b5090508481600081518110611714576117136124ee565b5b602002602001019073ffffffffffffffffffffffffffffffffffffffff16908173ffffffffffffffffffffffffffffffffffffffff16815250508381600181518110611763576117626124ee565b5b602002602001019073ffffffffffffffffffffffffffffffffffffffff16908173ffffffffffffffffffffffffffffffffffffffff16815250508573ffffffffffffffffffffffffffffffffffffffff166338ed17398884843061012c426117cb9190612940565b6040518663ffffffff1660e01b81526004016117eb959493929190612bd3565b6000604051808303816000875af115801561180a573d6000803e3d6000fd5b505050506040513d6000823e3d601f19601f820116820180604052508101906118339190612d4d565b600181518110611846576118456124ee565b5b602002602001015192505050949350505050565b60008060009054906101000a900473ffffffffffffffffffffffffffffffffffffffff169050816000806101000a81548173ffffffffffffffffffffffffffffffffffffffff021916908373ffffffffffffffffffffffffffffffffffffffff1602179055508173ffffffffffffffffffffffffffffffffffffffff168173ffffffffffffffffffffffffffffffffffffffff167f8be0079c531659141344cd1fd0a4f28419497f9722a3daafe3b4186f6b6457e060405160405180910390a35050565b60003090506000309050600080865167ffffffffffffffff81111561194657611945612764565b5b6040519080825280602002602001820160405280156119745781602001602082028036833780820191505090505b50905060005b87518110156119b1576000828281518110611998576119976124ee565b5b602002602001018181525050808060010191505061197a565b507f000000000000000000000000000000000000000000000000000000000000000073ffffffffffffffffffffffffffffffffffffffff1663ab9c4b5d85898985888b896040518863ffffffff1660e01b8152600401611a179796959493929190612ef0565b600060405180830381600087803b158015611a3157600080fd5b505af1158015611a45573d6000803e3d6000fd5b5050505050505050505050565b600080600267ffffffffffffffff811115611a7057611a6f612764565b5b604051908082528060200260200182016040528015611a9e5781602001602082028036833780820191505090505b5090508481600081518110611ab657611ab56124ee565b5b602002602001019073ffffffffffffffffffffffffffffffffffffffff16908173ffffffffffffffffffffffffffffffffffffffff16815250508381600181518110611b0557611b046124ee565b5b602002602001019073ffffffffffffffffffffffffffffffffffffffff16908173ffffffffffffffffffffffffffffffffffffffff16815250508573ffffffffffffffffffffffffffffffffffffffff1663d06ca61f84836040518363ffffffff1660e01b8152600401611b7a929190612f7b565b600060405180830381865afa925050508015611bb957506040513d6000823e3d601f19601f82011682018060405250810190611bb69190612d4d565b60015b611bc7576000915050611bfc565b6002815110611bf55780600181518110611be457611be36124ee565b5b602002602001015192505050611bfc565b5060009150505b949350505050565b600082848385611c149190612a3f565b611c1e9190612a73565b611c289190612ae4565b90509392505050565b600033905090565b600080602060008451602086016000885af180611c5c576040513d6000823e3d81fd5b3d925060005191505060008214611c77576001811415611c93565b60008473ffffffffffffffffffffffffffffffffffffffff163b145b15611cd557836040517f5274afe7000000000000000000000000000000000000000000000000000000008152600401611ccc91906121c5565b60405180910390fd5b50505050565b60008083670de0b6b3a76400008486611cf49190612a3f565b611cfe9190612a73565b611d089190612ae4565b905060006103e8600387611d1c9190612a73565b6002611d289190612a73565b611d329190612ae4565b90508082118015611d44575060015482115b925050509392505050565b600073ffffffffffffffffffffffffffffffffffffffff82169050919050565b6000819050919050565b6000611d94611d8f611d8a84611d4f565b611d6f565b611d4f565b9050919050565b6000611da682611d79565b9050919050565b6000611db882611d9b565b9050919050565b611dc881611dad565b82525050565b6000602082019050611de36000830184611dbf565b92915050565b6000604051905090565b600080fd5b600080fd5b6000611e0882611d4f565b9050919050565b611e1881611dfd565b8114611e2357600080fd5b50565b600081359050611e3581611e0f565b92915050565b600080fd5b600080fd5b600080fd5b60008083601f840112611e6057611e5f611e3b565b5b8235905067ffffffffffffffff811115611e7d57611e7c611e40565b5b602083019150836020820283011115611e9957611e98611e45565b5b9250929050565b6000819050919050565b611eb381611ea0565b8114611ebe57600080fd5b50565b600081359050611ed081611eaa565b92915050565b60008083601f840112611eec57611eeb611e3b565b5b8235905067ffffffffffffffff811115611f0957611f08611e40565b5b602083019150836020820283011115611f2557611f24611e45565b5b9250929050565b60008060008060008060808789031215611f4957611f48611df3565b5b6000611f5789828a01611e26565b965050602087013567ffffffffffffffff811115611f7857611f77611df8565b5b611f8489828a01611e4a565b95509550506040611f9789828a01611ec1565b935050606087013567ffffffffffffffff811115611fb857611fb7611df8565b5b611fc489828a01611ed6565b92509250509295509295509295565b600060208284031215611fe957611fe8611df3565b5b6000611ff784828501611e26565b91505092915050565b60008060006060848603121561201957612018611df3565b5b600061202786828701611e26565b935050602061203886828701611e26565b925050604061204986828701611ec1565b9150509250925092565b60008060006060848603121561206c5761206b611df3565b5b600061207a86828701611e26565b935050602061208b86828701611ec1565b925050604061209c86828701611e26565b9150509250925092565b6120af81611ea0565b82525050565b60006020820190506120ca60008301846120a6565b92915050565b60008115159050919050565b6120e5816120d0565b81146120f057600080fd5b50565b600081359050612102816120dc565b92915050565b60006020828403121561211e5761211d611df3565b5b600061212c848285016120f3565b91505092915050565b6000806000806040858703121561214f5761214e611df3565b5b600085013567ffffffffffffffff81111561216d5761216c611df8565b5b61217987828801611e4a565b9450945050602085013567ffffffffffffffff81111561219c5761219b611df8565b5b6121a887828801611ed6565b925092505092959194509250565b6121bf81611dfd565b82525050565b60006020820190506121da60008301846121b6565b92915050565b600080604083850312156121f7576121f6611df3565b5b600061220585828601611e26565b925050602061221685828601611ec1565b9150509250929050565b60008083601f84011261223657612235611e3b565b5b8235905067ffffffffffffffff81111561225357612252611e40565b5b60208301915083600182028301111561226f5761226e611e45565b5b9250929050565b600080600080600080600080600060a08a8c03121561229857612297611df3565b5b60008a013567ffffffffffffffff8111156122b6576122b5611df8565b5b6122c28c828d01611e4a565b995099505060208a013567ffffffffffffffff8111156122e5576122e4611df8565b5b6122f18c828d01611ed6565b975097505060408a013567ffffffffffffffff81111561231457612313611df8565b5b6123208c828d01611ed6565b955095505060606123338c828d01611e26565b93505060808a013567ffffffffffffffff81111561235457612353611df8565b5b6123608c828d01612220565b92509250509295985092959850929598565b61237b816120d0565b82525050565b60006020820190506123966000830184612372565b92915050565b60006123a782611d9b565b9050919050565b6123b78161239c565b82525050565b60006020820190506123d260008301846123ae565b92915050565b6000602082840312156123ee576123ed611df3565b5b60006123fc84828501611ec1565b91505092915050565b600082825260208201905092915050565b7f496e76616c696420706172616d65746572730000000000000000000000000000600082015250565b600061244c601283612405565b915061245782612416565b602082019050919050565b6000602082019050818103600083015261247b8161243f565b9050919050565b7f416d6f756e742062656c6f77207468726573686f6c6400000000000000000000600082015250565b60006124b8601683612405565b91506124c382612482565b602082019050919050565b600060208201905081810360008301526124e7816124ab565b9050919050565b7f4e487b7100000000000000000000000000000000000000000000000000000000600052603260045260246000fd5b60008151905061252c81611eaa565b92915050565b60006020828403121561254857612547611df3565b5b60006125568482850161251d565b91505092915050565b7f496e76616c696420746f6b656e20616464726573736573000000000000000000600082015250565b6000612595601783612405565b91506125a08261255f565b602082019050919050565b600060208201905081810360008301526125c481612588565b9050919050565b7f4e487b7100000000000000000000000000000000000000000000000000000000600052602160045260246000fd5b7f4e6f2070726f66697461626c6520617262697472616765206f70706f7274756e60008201527f6974790000000000000000000000000000000000000000000000000000000000602082015250565b6000612656602383612405565b9150612661826125fa565b604082019050919050565b6000602082019050818103600083015261268581612649565b9050919050565b7f496e73756666696369656e742070726f66697400000000000000000000000000600082015250565b60006126c2601383612405565b91506126cd8261268c565b602082019050919050565b600060208201905081810360008301526126f1816126b5565b9050919050565b7f416d6f756e74206d7573742062652067726561746572207468616e2030000000600082015250565b600061272e601d83612405565b9150612739826126f8565b602082019050919050565b6000602082019050818103600083015261275d81612721565b9050919050565b7f4e487b7100000000000000000000000000000000000000000000000000000000600052604160045260246000fd5b7f43616c6c6572206d757374206265206c656e64696e6720706f6f6c0000000000600082015250565b60006127c9601b83612405565b91506127d482612793565b602082019050919050565b600060208201905081810360008301526127f8816127bc565b9050919050565b7f41726269747261676520657865637574696f6e206661696c6564000000000000600082015250565b6000612835601a83612405565b9150612840826127ff565b602082019050919050565b6000602082019050818103600083015261286481612828565b9050919050565b6000819050919050565b600061289061288b6128868461286b565b611d6f565b611ea0565b9050919050565b6128a081612875565b82525050565b60006040820190506128bb60008301856121b6565b6128c86020830184612897565b9392505050565b6000815190506128de816120dc565b92915050565b6000602082840312156128fa576128f9611df3565b5b6000612908848285016128cf565b91505092915050565b7f4e487b7100000000000000000000000000000000000000000000000000000000600052601160045260246000fd5b600061294b82611ea0565b915061295683611ea0565b925082820190508082111561296e5761296d612911565b5b92915050565b600060408201905061298960008301856121b6565b61299660208301846120a6565b9392505050565b60006129a882611d4f565b9050919050565b6129b88161299d565b81146129c357600080fd5b50565b6000813590506129d5816129af565b92915050565b6000602082840312156129f1576129f0611df3565b5b60006129ff848285016129c6565b91505092915050565b6000606082019050612a1d60008301866121b6565b612a2a60208301856120a6565b612a3760408301846121b6565b949350505050565b6000612a4a82611ea0565b9150612a5583611ea0565b9250828203905081811115612a6d57612a6c612911565b5b92915050565b6000612a7e82611ea0565b9150612a8983611ea0565b9250828202612a9781611ea0565b91508282048414831517612aae57612aad612911565b5b5092915050565b7f4e487b7100000000000000000000000000000000000000000000000000000000600052601260045260246000fd5b6000612aef82611ea0565b9150612afa83611ea0565b925082612b0a57612b09612ab5565b5b828204905092915050565b600081519050919050565b600082825260208201905092915050565b6000819050602082019050919050565b612b4a81611dfd565b82525050565b6000612b5c8383612b41565b60208301905092915050565b6000602082019050919050565b6000612b8082612b15565b612b8a8185612b20565b9350612b9583612b31565b8060005b83811015612bc6578151612bad8882612b50565b9750612bb883612b68565b925050600181019050612b99565b5085935050505092915050565b600060a082019050612be860008301886120a6565b612bf560208301876120a6565b8181036040830152612c078186612b75565b9050612c1660608301856121b6565b612c2360808301846120a6565b9695505050505050565b6000601f19601f8301169050919050565b612c4782612c2d565b810181811067ffffffffffffffff82111715612c6657612c65612764565b5b80604052505050565b6000612c79611de9565b9050612c858282612c3e565b919050565b600067ffffffffffffffff821115612ca557612ca4612764565b5b602082029050602081019050919050565b6000612cc9612cc484612c8a565b612c6f565b90508083825260208201905060208402830185811115612cec57612ceb611e45565b5b835b81811015612d155780612d01888261251d565b845260208401935050602081019050612cee565b5050509392505050565b600082601f830112612d3457612d33611e3b565b5b8151612d44848260208601612cb6565b91505092915050565b600060208284031215612d6357612d62611df3565b5b600082015167ffffffffffffffff811115612d8157612d80611df8565b5b612d8d84828501612d1f565b91505092915050565b600081519050919050565b600082825260208201905092915050565b6000819050602082019050919050565b612dcb81611ea0565b82525050565b6000612ddd8383612dc2565b60208301905092915050565b6000602082019050919050565b6000612e0182612d96565b612e0b8185612da1565b9350612e1683612db2565b8060005b83811015612e47578151612e2e8882612dd1565b9750612e3983612de9565b925050600181019050612e1a565b5085935050505092915050565b600081519050919050565b600082825260208201905092915050565b60005b83811015612e8e578082015181840152602081019050612e73565b60008484015250505050565b6000612ea582612e54565b612eaf8185612e5f565b9350612ebf818560208601612e70565b612ec881612c2d565b840191505092915050565b600061ffff82169050919050565b612eea81612ed3565b82525050565b600060e082019050612f05600083018a6121b6565b8181036020830152612f178189612b75565b90508181036040830152612f2b8188612df6565b90508181036060830152612f3f8187612df6565b9050612f4e60808301866121b6565b81810360a0830152612f608185612e9a565b9050612f6f60c0830184612ee1565b98975050505050505050565b6000604082019050612f9060008301856120a6565b8181036020830152612fa28184612b75565b9050939250505056fea26469706673582212205e35e4ba7c923a4f297246dc345930fdad6990c136d54faf3f957433cea8961064736f6c634300081c0033",
  "linkReferences": {},
  "deployedLinkReferences": {}
}