{
  "_format": "hh-sol-artifact-1",
  "contractName": "FlashloanArbitrage",
  "sourceName": "contracts/flashloan/FlashloanArbitrage.sol",
  "abi": [
    {
      "inputs": [
        {
          "internalType": "address",
          "name": "_addressProvider",
          "type": "address"
        },
        {
          "internalType": "address",
          "name": "_uniswapRouterAddress",
          "type": "address"
        },
        {
          "internalType": "address",
          "name": "_sushiswapRouterAddress",
          "type": "address"
        }
      ],
      "stateMutability": "nonpayable",
      "type": "constructor"
    },
    {
      "inputs": [
        {
          "internalType": "address",
          "name": "owner",
          "type": "address"
        }
      ],
      "name": "OwnableInvalidOwner",
      "type": "error"
    },
    {
      "inputs": [
        {
          "internalType": "address",
          "name": "account",
          "type": "address"
        }
      ],
      "name": "OwnableUnauthorizedAccount",
      "type": "error"
    },
    {
      "inputs": [
        {
          "internalType": "address",
          "name": "token",
          "type": "address"
        }
      ],
      "name": "SafeERC20FailedOperation",
      "type": "error"
    },
    {
      "anonymous": false,
      "inputs": [
        {
          "indexed": true,
          "internalType": "address",
          "name": "token0",
          "type": "address"
        },
        {
          "indexed": true,
          "internalType": "address",
          "name": "token1",
          "type": "address"
        },
        {
          "indexed": false,
          "internalType": "uint256",
          "name": "profit",
          "type": "uint256"
        }
      ],
      "name": "ArbitrageExecuted",
      "type": "event"
    },
    {
      "anonymous": false,
      "inputs": [
        {
          "indexed": true,
          "internalType": "address",
          "name": "_from",
          "type": "address"
        },
        {
          "indexed": true,
          "internalType": "address",
          "name": "_assetAddress",
          "type": "address"
        },
        {
          "indexed": false,
          "internalType": "uint256",
          "name": "amount",
          "type": "uint256"
        }
      ],
      "name": "LogWithdraw",
      "type": "event"
    },
    {
      "anonymous": false,
      "inputs": [
        {
          "indexed": true,
          "internalType": "address",
          "name": "previousOwner",
          "type": "address"
        },
        {
          "indexed": true,
          "internalType": "address",
          "name": "newOwner",
          "type": "address"
        }
      ],
      "name": "OwnershipTransferred",
      "type": "event"
    },
    {
      "inputs": [],
      "name": "ADDRESSES_PROVIDER",
      "outputs": [
        {
          "internalType": "contract ILendingPoolAddressesProviderV2",
          "name": "",
          "type": "address"
        }
      ],
      "stateMutability": "view",
      "type": "function"
    },
    {
      "inputs": [],
      "name": "LENDING_POOL",
      "outputs": [
        {
          "internalType": "contract ILendingPoolV2",
          "name": "",
          "type": "address"
        }
      ],
      "stateMutability": "view",
      "type": "function"
    },
    {
      "inputs": [
        {
          "internalType": "address",
          "name": "token0",
          "type": "address"
        },
        {
          "internalType": "address",
          "name": "token1",
          "type": "address"
        },
        {
          "internalType": "uint256",
          "name": "amount",
          "type": "uint256"
        }
      ],
      "name": "calculateArbitrageProfitEstimate",
      "outputs": [
        {
          "internalType": "uint256",
          "name": "",
          "type": "uint256"
        }
      ],
      "stateMutability": "view",
      "type": "function"
    },
    {
      "inputs": [
        {
          "internalType": "address",
          "name": "token0",
          "type": "address"
        },
        {
          "internalType": "address",
          "name": "token1",
          "type": "address"
        },
        {
          "internalType": "uint256",
          "name": "amount",
          "type": "uint256"
        }
      ],
      "name": "executeArbitrage",
      "outputs": [],
      "stateMutability": "nonpayable",
      "type": "function"
    },
    {
      "inputs": [
        {
          "internalType": "address[]",
          "name": "path",
          "type": "address[]"
        },
        {
          "internalType": "uint256[]",
          "name": "amounts",
          "type": "uint256[]"
        }
      ],
      "name": "executeComplexArbitrage",
      "outputs": [],
      "stateMutability": "nonpayable",
      "type": "function"
    },
    {
      "inputs": [
        {
          "internalType": "address",
          "name": "baseToken",
          "type": "address"
        },
        {
          "internalType": "address[]",
          "name": "pairs",
          "type": "address[]"
        },
        {
          "internalType": "uint256",
          "name": "amount",
          "type": "uint256"
        },
        {
          "internalType": "uint256[]",
          "name": "prices",
          "type": "uint256[]"
        }
      ],
      "name": "executeMultiDexArbitrage",
      "outputs": [],
      "stateMutability": "nonpayable",
      "type": "function"
    },
    {
      "inputs": [
        {
          "internalType": "address[]",
          "name": "assets",
          "type": "address[]"
        },
        {
          "internalType": "uint256[]",
          "name": "amounts",
          "type": "uint256[]"
        },
        {
          "internalType": "uint256[]",
          "name": "premiums",
          "type": "uint256[]"
        },
        {
          "internalType": "address",
          "name": "",
          "type": "address"
        },
        {
          "internalType": "bytes",
          "name": "params",
          "type": "bytes"
        }
      ],
      "name": "executeOperation",
      "outputs": [
        {
          "internalType": "bool",
          "name": "",
          "type": "bool"
        }
      ],
      "stateMutability": "nonpayable",
      "type": "function"
    },
    {
      "inputs": [
        {
          "internalType": "address",
          "name": "_asset",
          "type": "address"
        },
        {
          "internalType": "uint256",
          "name": "_amount",
          "type": "uint256"
        }
      ],
      "name": "flashloan",
      "outputs": [],
      "stateMutability": "nonpayable",
      "type": "function"
    },
    {
      "inputs": [
        {
          "internalType": "address",
          "name": "_borrowedAsset",
          "type": "address"
        },
        {
          "internalType": "uint256",
          "name": "_borrowedAmount",
          "type": "uint256"
        },
        {
          "internalType": "address",
          "name": "_swappingPair",
          "type": "address"
        }
      ],
      "name": "makeArbitrage",
      "outputs": [
        {
          "internalType": "uint256",
          "name": "",
          "type": "uint256"
        }
      ],
      "stateMutability": "nonpayable",
      "type": "function"
    },
    {
      "inputs": [],
      "name": "owner",
      "outputs": [
        {
          "internalType": "address",
          "name": "",
          "type": "address"
        }
      ],
      "stateMutability": "view",
      "type": "function"
    },
    {
      "inputs": [],
      "name": "renounceOwnership",
      "outputs": [],
      "stateMutability": "nonpayable",
      "type": "function"
    },
    {
      "inputs": [
        {
          "internalType": "uint256",
          "name": "threshold",
          "type": "uint256"
        }
      ],
      "name": "setMinimumProfitThreshold",
      "outputs": [],
      "stateMutability": "nonpayable",
      "type": "function"
    },
    {
      "inputs": [
        {
          "internalType": "bool",
          "name": "shouldFail",
          "type": "bool"
        }
      ],
      "name": "setSimulateFailure",
      "outputs": [],
      "stateMutability": "nonpayable",
      "type": "function"
    },
    {
      "inputs": [
        {
          "internalType": "address",
          "name": "newOwner",
          "type": "address"
        }
      ],
      "name": "transferOwnership",
      "outputs": [],
      "stateMutability": "nonpayable",
      "type": "function"
    },
    {
      "inputs": [
        {
          "internalType": "address",
          "name": "_assetAddress",
          "type": "address"
        }
      ],
      "name": "withdraw",
      "outputs": [],
      "stateMutability": "nonpayable",
      "type": "function"
    },
    {
      "stateMutability": "payable",
      "type": "receive"
    }
  ],
  "bytecode": "0x61010060405234801561001157600080fd5b5060405161202d38038061202d83398101604081905261003091610172565b3383806001600160a01b03166080816001600160a01b031681525050806001600160a01b0316630261bf8b6040518163ffffffff1660e01b8152600401602060405180830381865afa15801561008a573d6000803e3d6000fd5b505050506040513d601f19601f820116820180604052508101906100ae91906101b5565b6001600160a01b0390811660a052821690506100e457604051631e4fbdf760e01b81526000600482015260240160405180910390fd5b6100ed81610106565b506001600160a01b0391821660c0521660e052506101d7565b600080546001600160a01b038381166001600160a01b0319831681178455604051919092169283917f8be0079c531659141344cd1fd0a4f28419497f9722a3daafe3b4186f6b6457e09190a35050565b80516001600160a01b038116811461016d57600080fd5b919050565b60008060006060848603121561018757600080fd5b61019084610156565b925061019e60208501610156565b91506101ac60408501610156565b90509250925092565b6000602082840312156101c757600080fd5b6101d082610156565b9392505050565b60805160a05160c05160e051611dd7610256600039600081816106c6015281816106fc01528181610e2b01526110490152600081816106980152818161072a01528181610dfb01526110190152600081816102ae01528181610a2201528181610b7a01528181610c1c01526113ea0152600061010a0152611dd76000f3fe6080604052600436106100ec5760003560e01c8063715018a61161008a578063b4dcfc7711610059578063b4dcfc771461029c578063d2202b89146102d0578063e1ab1b13146102f0578063f2fde38b1461031057600080fd5b8063715018a6146102195780638da5cb5b1461022e5780638e5f5f571461024c578063920f5c841461026c57600080fd5b8063650f84be116100c6578063650f84be1461018b57806366ce2d2d146101ab5780636b2eb2f9146101d957806370963235146101f957600080fd5b80630542975c146100f857806308739f501461014957806351cff8d91461016b57600080fd5b366100f357005b600080fd5b34801561010457600080fd5b5061012c7f000000000000000000000000000000000000000000000000000000000000000081565b6040516001600160a01b0390911681526020015b60405180910390f35b34801561015557600080fd5b506101696101643660046116f6565b610330565b005b34801561017757600080fd5b50610169610186366004611785565b610419565b34801561019757600080fd5b506101696101a63660046117a2565b61052c565b3480156101b757600080fd5b506101cb6101c63660046117e3565b6105f9565b604051908152602001610140565b3480156101e557600080fd5b506101696101f4366004611833565b6107a4565b34801561020557600080fd5b50610169610214366004611850565b6107bf565b34801561022557600080fd5b506101696108f7565b34801561023a57600080fd5b506000546001600160a01b031661012c565b34801561025857600080fd5b506101696102673660046118bf565b61090b565b34801561027857600080fd5b5061028c61028736600461192c565b610a15565b6040519015158152602001610140565b3480156102a857600080fd5b5061012c7f000000000000000000000000000000000000000000000000000000000000000081565b3480156102dc57600080fd5b506101cb6102eb3660046117a2565b610dbf565b3480156102fc57600080fd5b5061016961030b366004611a14565b610ea4565b34801561031c57600080fd5b5061016961032b366004611785565b610eb1565b610338610eef565b831580159061034657508084145b61036b5760405162461bcd60e51b815260040161036290611a2d565b60405180910390fd5b60015483116103b55760405162461bcd60e51b8152602060048201526016602482015275105b5bdd5b9d0818995b1bddc81d1a1c995cda1bdb1960521b6044820152606401610362565b6000858560008181106103ca576103ca611a59565b90506020020160208101906103df9190611785565b604080516001600160a01b039092166020830152016040516020818303038152906040529050610410878583610f1c565b50505050505050565b610421610eef565b60006001600160a01b03821661046a575060405130803191339083156108fc029084906000818181858888f19350505050158015610463573d6000803e3d6000fd5b50506104e8565b6040516370a0823160e01b81523060048201526001600160a01b038316906370a0823190602401602060405180830381865afa1580156104ae573d6000803e3d6000fd5b505050506040513d601f19601f820116820180604052508101906104d29190611a6f565b90506104e86001600160a01b0383163383610fba565b6040518181526001600160a01b0383169033907f9207361cc2a04b9c7a06691df1eb87c6a63957ae88bf01d0d18c81e3d12720999060200160405180910390a35050565b610534610eef565b600081116105545760405162461bcd60e51b815260040161036290611a2d565b6001600160a01b0383161580159061057457506001600160a01b03821615155b6105c05760405162461bcd60e51b815260206004820152601760248201527f496e76616c696420746f6b656e206164647265737365730000000000000000006044820152606401610362565b604080516001600160a01b03841660208201526000910160405160208183030381529060405290506105f3848383610f1c565b50505050565b600080610607848685611011565b9050600281600281111561061d5761061d611a88565b036106765760405162461bcd60e51b815260206004820152602360248201527f4e6f2070726f66697461626c6520617262697472616765206f70706f7274756e60448201526269747960e81b6064820152608401610362565b60008082600281111561068b5761068b611a88565b036106f45760006106be867f000000000000000000000000000000000000000000000000000000000000000089886110c9565b90506106ec817f0000000000000000000000000000000000000000000000000000000000000000878a6110c9565b915050610754565b6000610722867f000000000000000000000000000000000000000000000000000000000000000089886110c9565b9050610750817f0000000000000000000000000000000000000000000000000000000000000000878a6110c9565b9150505b8481116107995760405162461bcd60e51b8152602060048201526013602482015272125b9cdd59999a58da595b9d081c1c9bd99a5d606a1b6044820152606401610362565b9150505b9392505050565b6107ac610eef565b6002805460ff1916911515919091179055565b6107c7610eef565b6001831180156107d657508083145b6107f25760405162461bcd60e51b815260040161036290611a2d565b6001548282600081811061080857610808611a59565b90506020020135116108555760405162461bcd60e51b8152602060048201526016602482015275105b5bdd5b9d0818995b1bddc81d1a1c995cda1bdb1960521b6044820152606401610362565b60008484600181811061086a5761086a611a59565b905060200201602081019061087f9190611785565b604080516001600160a01b0390921660208301520160405160208183030381529060405290506108f0858560008181106108bb576108bb611a59565b90506020020160208101906108d09190611785565b848460008181106108e3576108e3611a59565b9050602002013583610f1c565b5050505050565b6108ff610eef565b6109096000611301565b565b610913610eef565b600081116109635760405162461bcd60e51b815260206004820152601d60248201527f416d6f756e74206d7573742062652067726561746572207468616e20300000006044820152606401610362565b60408051600180825281830190925260009160208083019080368337019050509050828160008151811061099957610999611a59565b6001600160a01b03929092166020928302919091019091015260408051600180825281830190925260009181602001602082028036833701905050905082816000815181106109ea576109ea611a59565b60200260200101818152505060006040518060200160405280600081525090506108f0838383611351565b6000336001600160a01b037f00000000000000000000000000000000000000000000000000000000000000001614610a8f5760405162461bcd60e51b815260206004820152601b60248201527f43616c6c6572206d757374206265206c656e64696e6720706f6f6c00000000006044820152606401610362565b8815801590610a9d57508689145b610ab95760405162461bcd60e51b815260040161036290611a2d565b60025460ff1615610b0c5760405162461bcd60e51b815260206004820152601a60248201527f41726269747261676520657865637574696f6e206661696c65640000000000006044820152606401610362565b60008a8a6000818110610b2157610b21611a59565b9050602002016020810190610b369190611785565b9050600089896000818110610b4d57610b4d611a59565b905060200201359050600088886000818110610b6b57610b6b611a59565b60405163095ea7b360e01b81527f00000000000000000000000000000000000000000000000000000000000000006001600160a01b0390811660048301526000602483015260209092029390930135935085169163095ea7b391506044016020604051808303816000875af1925050508015610c04575060408051601f3d908101601f19168201909252610c0191810190611ab4565b60015b15610c0b57505b6001600160a01b03831663095ea7b37f0000000000000000000000000000000000000000000000000000000000000000610c458486611ae7565b6040516001600160e01b031960e085901b1681526001600160a01b03909216600483015260248201526044016020604051808303816000875af1158015610c90573d6000803e3d6000fd5b505050506040513d601f19601f82011682018060405250810190610cb49190611ab4565b508415610dac576000610cc986880188611785565b6040516366ce2d2d60e01b81526001600160a01b038087166004830152602482018690528216604482015290915030906366ce2d2d906064016020604051808303816000875af1925050508015610d3d575060408051601f3d908101601f19168201909252610d3a91810190611a6f565b60015b15610daa57610d4c8385611ae7565b811115610da8576001600160a01b038083169086167f546205492ce144edebd2cc39035c50dbd9aebfec90cbcae9c9ae2914d1e130f7610d8c8688611ae7565b610d969085611b00565b60405190815260200160405180910390a35b505b505b5060019c9b505050505050505050505050565b6000811580610dd557506001600160a01b038416155b80610de757506001600160a01b038316155b15610df45750600061079d565b6000610e227f0000000000000000000000000000000000000000000000000000000000000000868686611466565b90506000610e527f0000000000000000000000000000000000000000000000000000000000000000878787611466565b9050600082118015610e645750600081115b15610e9857610e8f84828411610e7a5782610e7c565b835b838511610e895784611596565b83611596565b9250505061079d565b50600095945050505050565b610eac610eef565b600155565b610eb9610eef565b6001600160a01b038116610ee357604051631e4fbdf760e01b815260006004820152602401610362565b610eec81611301565b50565b6000546001600160a01b031633146109095760405163118cdaa760e01b8152336004820152602401610362565b604080516001808252818301909252600091602080830190803683370190505090508381600081518110610f5257610f52611a59565b6001600160a01b0392909216602092830291909101909101526040805160018082528183019092526000918160200160208202803683370190505090508381600081518110610fa357610fa3611a59565b6020026020010181815250506108f0828285611351565b604080516001600160a01b038416602482015260448082018490528251808303909101815260649091019091526020810180516001600160e01b031663a9059cbb60e01b17905261100c9084906115b8565b505050565b6000806110407f0000000000000000000000000000000000000000000000000000000000000000858588611466565b905060006110707f0000000000000000000000000000000000000000000000000000000000000000868689611466565b90508082111561109a57611085868383611629565b156110955760009250505061079d565b6110bd565b818111156110bd576110ad868284611629565b156110bd5760019250505061079d565b50600295945050505050565b60405163095ea7b360e01b81526001600160a01b038481166004830152600060248301819052919084169063095ea7b3906044016020604051808303816000875af1925050508015611138575060408051601f3d908101601f1916820190925261113591810190611ab4565b60015b1561113f57505b60405163095ea7b360e01b81526001600160a01b0385811660048301526024820187905284169063095ea7b3906044016020604051808303816000875af115801561118e573d6000803e3d6000fd5b505050506040513d601f19601f820116820180604052508101906111b29190611ab4565b50600060646111c38686868a611466565b6111ce90605f611b13565b6111d89190611b2a565b6040805160028082526060820183529293506000929091602083019080368337019050509050848160008151811061121257611212611a59565b60200260200101906001600160a01b031690816001600160a01b031681525050838160018151811061124657611246611a59565b6001600160a01b03928316602091820292909201015286166338ed1739888484306112734261012c611ae7565b6040518663ffffffff1660e01b8152600401611293959493929190611b91565b6000604051808303816000875af11580156112b2573d6000803e3d6000fd5b505050506040513d6000823e601f3d908101601f191682016040526112da9190810190611bcd565b6001815181106112ec576112ec611a59565b6020026020010151925050505b949350505050565b600080546001600160a01b038381166001600160a01b0319831681178455604051919092169283917f8be0079c531659141344cd1fd0a4f28419497f9722a3daafe3b4186f6b6457e09190a35050565b82513090819060009081906001600160401b0381111561137357611373611a9e565b60405190808252806020026020018201604052801561139c578160200160208202803683370190505b50905060005b87518110156113d25760008282815181106113bf576113bf611a59565b60209081029190910101526001016113a2565b5060405163ab9c4b5d60e01b81526001600160a01b037f0000000000000000000000000000000000000000000000000000000000000000169063ab9c4b5d9061142b9087908b908b9087908a908d908b90600401611cc9565b600060405180830381600087803b15801561144557600080fd5b505af1158015611459573d6000803e3d6000fd5b5050505050505050505050565b60408051600280825260608201835260009283929190602083019080368337019050509050848160008151811061149f5761149f611a59565b60200260200101906001600160a01b031690816001600160a01b03168152505083816001815181106114d3576114d3611a59565b6001600160a01b03928316602091820292909201015260405163d06ca61f60e01b81529087169063d06ca61f906115109086908590600401611d88565b600060405180830381865afa92505050801561154e57506040513d6000823e601f3d908101601f1916820160405261154b9190810190611bcd565b60015b61155c5760009150506112f9565b6002815110611589578060018151811061157857611578611a59565b6020026020010151925050506112f9565b5060009695505050505050565b600082846115a48483611b00565b6115ae9190611b13565b6112f99190611b2a565b600080602060008451602086016000885af1806115db576040513d6000823e3d81fd5b50506000513d915081156115f3578060011415611600565b6001600160a01b0384163b155b156105f357604051635274afe760e01b81526001600160a01b0385166004820152602401610362565b600080836116378482611b00565b61164990670de0b6b3a7640000611b13565b6116539190611b2a565b905060006103e8611665876003611b13565b611670906002611b13565b61167a9190611b2a565b9050808211801561168c575060015482115b9695505050505050565b6001600160a01b0381168114610eec57600080fd5b60008083601f8401126116bd57600080fd5b5081356001600160401b038111156116d457600080fd5b6020830191508360208260051b85010111156116ef57600080fd5b9250929050565b6000806000806000806080878903121561170f57600080fd5b863561171a81611696565b955060208701356001600160401b0381111561173557600080fd5b61174189828a016116ab565b9096509450506040870135925060608701356001600160401b0381111561176757600080fd5b61177389828a016116ab565b979a9699509497509295939492505050565b60006020828403121561179757600080fd5b813561079d81611696565b6000806000606084860312156117b757600080fd5b83356117c281611696565b925060208401356117d281611696565b929592945050506040919091013590565b6000806000606084860312156117f857600080fd5b833561180381611696565b925060208401359150604084013561181a81611696565b809150509250925092565b8015158114610eec57600080fd5b60006020828403121561184557600080fd5b813561079d81611825565b6000806000806040858703121561186657600080fd5b84356001600160401b0381111561187c57600080fd5b611888878288016116ab565b90955093505060208501356001600160401b038111156118a757600080fd5b6118b3878288016116ab565b95989497509550505050565b600080604083850312156118d257600080fd5b82356118dd81611696565b946020939093013593505050565b60008083601f8401126118fd57600080fd5b5081356001600160401b0381111561191457600080fd5b6020830191508360208285010111156116ef57600080fd5b600080600080600080600080600060a08a8c03121561194a57600080fd5b89356001600160401b0381111561196057600080fd5b61196c8c828d016116ab565b909a5098505060208a01356001600160401b0381111561198b57600080fd5b6119978c828d016116ab565b90985096505060408a01356001600160401b038111156119b657600080fd5b6119c28c828d016116ab565b90965094505060608a01356119d681611696565b925060808a01356001600160401b038111156119f157600080fd5b6119fd8c828d016118eb565b915080935050809150509295985092959850929598565b600060208284031215611a2657600080fd5b5035919050565b602080825260129082015271496e76616c696420706172616d657465727360701b604082015260600190565b634e487b7160e01b600052603260045260246000fd5b600060208284031215611a8157600080fd5b5051919050565b634e487b7160e01b600052602160045260246000fd5b634e487b7160e01b600052604160045260246000fd5b600060208284031215611ac657600080fd5b815161079d81611825565b634e487b7160e01b600052601160045260246000fd5b80820180821115611afa57611afa611ad1565b92915050565b81810381811115611afa57611afa611ad1565b8082028115828204841417611afa57611afa611ad1565b600082611b4757634e487b7160e01b600052601260045260246000fd5b500490565b600081518084526020840193506020830160005b82811015611b875781516001600160a01b0316865260209586019590910190600101611b60565b5093949350505050565b85815284602082015260a060408201526000611bb060a0830186611b4c565b6001600160a01b0394909416606083015250608001529392505050565b600060208284031215611bdf57600080fd5b81516001600160401b03811115611bf557600080fd5b8201601f81018413611c0657600080fd5b80516001600160401b03811115611c1f57611c1f611a9e565b8060051b604051601f19603f83011681018181106001600160401b0382111715611c4b57611c4b611a9e565b604052918252602081840181019290810187841115611c6957600080fd5b6020850194505b83851015611c8c57845180825260209586019590935001611c70565b509695505050505050565b600081518084526020840193506020830160005b82811015611b87578151865260209586019590910190600101611cab565b6001600160a01b038816815260e060208201819052600090611ced90830189611b4c565b8281036040840152611cff8189611c97565b90508281036060840152611d138188611c97565b6001600160a01b038716608085015283810360a0850152855180825290915060005b81811015611d5157602081880181015184830182015201611d35565b506000602082840101526020601f19601f83011683010192505050611d7c60c083018461ffff169052565b98975050505050505050565b8281526040602082015260006112f96040830184611b4c56fea26469706673582212209beb3f9308f68e8a8cd44a39085ee05d451f3d83ed7573c061e0bbf6893ef03264736f6c634300081c0033",
  "linkReferences": {},
  "deployedLinkReferences": {}
}